:100000000C94C6060C94EE060C94EE060C94EE06C8
:100010000C94EE060C94EE060C94EE060C94EE0690
:100020000C94EE060C94EE060C94FA160C946917D8
:100030000C94EE060C94EE060C94EE060C94EE0670
:100040000C94EE060C943D1A0C94EE060C94EE06FD
:100050000C94EE060C94EE060C94EE060C949B1990
:100060000C94EE060C94EE060C94EE060C94EE0640
:100070000C94EE060C94EE060C94EE060C94EE0630
:100080000C94E5190C94EE060C94EE060C94EE0616
:100090000C94EE060C94EE060C94EE060C94EE0610
:1000A0000C94EE060C94EE060C94EE0607070790EF
:1000B00037911300478000478190430047800047F5
:1000C000903E0047800047903B0047800005901419
:1000D0009138004781004780904400478000479056
:1000E0003F00478000479020913C004781004191AC
:1000F00013000580003B0047819043004780004784
:10010000903E004D800041903B004D800005903FA7
:10011000911E0047809040004181809041004D91A8
:10012000408000418100119043911F00948081F034
:10013000FF0101410101C94141C901014901017F9B
:1001400040407F0101490101C94141C90101490103
:1001500001C94141494141494141C90101490101A7
:10016000FF0000FF0000000000FF0000FF01014948
:100170000101C94141494141494141C90101490187
:1001800001C94141C901014901017F40407F01018D
:10019000490101C94141C90101410101FF000000BC
:1001A000000000000000000000000000000000004F
:1001B000FF0000920000FF0000FF0000920000F22C
:1001C00090909290909290909F8080FF000092007B
:1001D00000FF8080808080808080FF00009200008F
:1001E000FF8080FF0000000000FF8080FF00009281
:1001F0000000FF8080808080808080FF000092006F
:1002000000FF80809F9090929090929090F20000DA
:10021000920000FF0000FF0000920000FF000000BD
:1002200000000000000000000000000000000000CE
:10023000FF0000240000FF00003F20202420202495
:100240002020E40000240000E42020E4000024003A
:1002500000E42020242020242020E40000040000CA
:10026000E02020202020202020202020E00000046A
:100270000000E42020242020242020E4000024008A
:1002800000E42020E40000240000E42020242020BA
:100290002420203F0000FF0000240000FF00000099
:1002A000000000000000000000000000000000004E
:1002B000FF0000490000C9414149414149414149CC
:1002C00041414940404940407F0000FF0000490053
:1002D00000FF0000000000000000FF000000000020
:1002E000FF0000000000000000000000FF00000010
:1002F0000000FF0000000000000000FF00004900B7
:1003000000FF00007F404049404049414149414190
:10031000494141494141C90000490000FF00000036
:1003200000000000000000000000000000000000CD
:10033000FF000092000093828292828292828292D7
:100340008282920202920202FE0000FF00009200EE
:1003500000FF0000000000000000FF00000000009F
:10036000FF0000000000000000000000FF0000008F
:100370000000FF0000000000000000FF00009200ED
:1003800000FF0000FE0202920202928282928282AA
:10039000928282928282930000920000FF0000000D
:1003A000000000000000000000000000000000004D
:1003B000FF0000240000FF0000FC040424040424C7
:1003C0000404270000240000270404270000240060
:1003D000002704042404042404042700002000004F
:1003E00007040404040404040404040407000020B3
:1003F000000027040424040424040427000024002B
:100400000027040427000024000027040424040417
:10041000240404FC0000FF0000240000FF00000092
:1004200000000000000000000000000000000000CC
:10043000FF0000490000FF0000FF00004900004FDE
:100440000909490909490909F90101FF00004900A1
:1004500000FF0101010101010101FF00004900004D
:10046000FF0101FF0000000000FF0101FF00004943
:100470000000FF0101010101010101FF000049002D
:1004800000FF0101F909094909094909094F00005B
:10049000490000FF0000FF0000490000FF000000CD
:1004A000000000000000000000000000000000004C
:1004B000FF8080828080938282938080928080FE01
:1004C0000202FE808092808093828293808092805C
:1004D00080938282928282928282938080928080B4
:1004E000FF0000FF0000000000FF0000FF8080927E
:1004F0008080938282928282928282938080928094
:1005000080938282938080928080FE0202FE8080AF
:10051000928080938282938080828080FF0000009E
:1005200000000000000000000000000000000000CB
:1005300000000000003E5B4F5B3E3E6B4F6B3E1C7D
:100540003E7C3E1C183C7E3C181C577D571C1C5E94
:100550007F5E1C00183C1800FFE7C3E7FF0018246B
:100560001800FFE7DBE7FF30483A060E2629792915
:1005700026407F050507407F05253F5A3CE73C5A4A
:100580007F3E1C1C08081C1C3E7F14227F22145F27
:100590005F005F5F06097F017F006689956A606082
:1005A00060606094A2FFA29408047E040810207E7C
:1005B000201008082A1C08081C2A08081E10101001
:1005C000100C1E0C1E0C30383E3830060E3E0E0647
:1005D000000000000000005F00000007000700149A
:1005E0007F147F14242A7F2A122313086462364959
:1005F0005620500008070300001C22410000412241
:100600001C002A1C7F1C2A08083E08080080703045
:1006100000080808080800006060002010080402B4
:100620003E5149453E00427F4000724949494621BA
:1006300041494D331814127F1027454545393C4A2E
:100640004949314121110907364949493646494945
:10065000291E00001400000040340000000814228D
:1006600041141414141400412214080201590906FB
:100670003E415D594E7C1211127C7F494949363EFC
:10068000414141227F4141413E7F494949417F09E2
:100690000909013E414151737F0808087F00417FED
:1006A00041002040413F017F081422417F404040EB
:1006B000407F021C027F7F0408107F3E4141413E83
:1006C0007F090909063E4151215E7F091929462605
:1006D0004949493203017F01033F4040403F1F2009
:1006E00040201F3F4038403F6314081463030478E0
:1006F00004036159494D43007F4141410204081000
:1007000020004141417F040201020440404040403A
:10071000000307080020545478407F2844443838A8
:1007200044444428384444287F385454541800081A
:100730007E090218A4A49C787F0804047800447DF4
:1007400040002040403D007F1028440000417F4091
:10075000007C047804787C080404783844444438E5
:10076000FC1824241818242418FC7C0804040848C5
:100770005454542404043F44243C4040207C1C2016
:1007800040201C3C4030403C44281028444C909071
:10079000907C4464544C44000836410000007700CB
:1007A00000004136080002010204023C2623263CD8
:1007B0001EA1A161123A4040207A38545455592163
:1007C000555579412154547841215554784020544D
:1007D0005579400C1E527212395555555939545499
:1007E000545939555454580000457C410002457D08
:1007F000420001457C40F0292429F0F0282528F00A
:100800007C545545002054547C547C0A097F49325D
:10081000494949323248484832324A4848303A41D8
:1008200041217A3A42402078009DA0A07D3944447D
:1008300044393D4040403D3C24FF2424487E494308
:10084000662B2FFC2F2BFF0929F620C0887E090379
:1008500020545479410000447D413048484A3238A0
:100860004040227A007A0A0A727D0D19317D2629CC
:10087000292F28262929292630484D4020380808C4
:10088000080808080808382F10C8ACBA2F102834F8
:10089000FA00007B000008142A142222142A1408EB
:1008A0009500220095AA005500AAAA55AA55AA00AB
:1008B0000000FF00101010FF00141414FF001010AF
:1008C000FF00FF1010F010F0141414FC001414F7C3
:1008D00000FF0000FF00FF1414F404FC14141710B0
:1008E0001F10101F101F1414141F00101010F00000
:1008F0000000001F101010101F10101010F010003A
:100900000000FF101010101010101010FF10000049
:1009100000FF140000FF00FF00001F10170000FC84
:1009200004F414141710171414F404F40000FF0056
:10093000F714141414141414F700F71414141714DF
:1009400010101F101F141414F4141010F010F000E5
:10095000001F101F0000001F14000000FC14000006
:10096000F010F01010FF10FF141414FF14101010EA
:100970001F00000000F010FFFFFFFFFFF0F0F0F09D
:10098000F0FFFFFF0000000000FFFF0F0F0F0F0F31
:1009900038444438447C2A2A3E147E020206060269
:1009A0007E027E0263554941633844443C04407EE4
:1009B000201E2006027E020299A5E7A5991C2A495D
:1009C0002A1C4C7201724C304A4D4D3030487848E8
:1009D00030BC625A463D3E494949007E0101017ED4
:1009E0002A2A2A2A2A44445F444440514A44404027
:1009F000444A51400000FF0103E080FF0000080866
:100A00006B6B083612362436060F090F06000018E5
:100A1000180000001010003040FF0101001F01010C
:100A20001E00191D1712003C3C3C3C000000000059
:100A300006011501260137014A015D017201880195
:100A40009F01B801D201EE010B022A024B026E0295
:100A50009302BA02E40210033F037003A403DC0311
:100A6000170455049704DD0427057505C8052006FD
:100A70007D06E0064907B8072D08A9082D09B90920
:100A80004D0AEA0A900B400CFA0CC00D910E6F0F44
:100A90005A1053115B1272139A14D4152017801830
:100AA000F519801B231DDE1EB420A622B524E426E2
:100AB0003429A72B402E0031EA330037453ABC3D9C
:100AC00068414C456B49C84D68524F57805C006285
:100AD00010111213151617181A1C1D1F2123252774
:100AE000292C2E3134373A3E4145494E52575C62EB
:100AF000686E757B838B939CA5AFB9C4D0DCE9F796
:100B00000000000200090F0000030401000C0000B7
:100B1000000000000000000000000000000000F0E5
:100B2000F89C8E8783878E9CF8F00000FEFF0303FD
:100B3000030303070EFCF80000FEFF030303030397
:100B4000070EFCF80000FFFF00000000000000FF9F
:100B5000FF0000FEFF8383838383C7EE7C380000A1
:100B6000F8FC0E07030303070EFCF800003F7FE0CC
:100B7000C08080C0E07F3FFFFF0101010101010152
:100B8000FFFF0000FFFF0C0C0C0C1C3E77E3C100C4
:100B9000007FFFC0C0C0C0C0E0703F1F00001F3F0B
:100BA00070E0C0C0C0E0703F1F00007FFFC1C1C146
:100BB000C1C1E3773E1C00001F3F70E0C0C0C0E031
:100BC000703F1F000000000001FFFF010000000057
:100BD000000000240027002A002D003000D5F08DF1
:100BE00014A1C881CFD9F1AF20000B020A02120272
:100BF00004020802010215011701160100001290FB
:100C00005400C091580031800039905B004381004E
:100C10003B9160007F80007281F000129049005883
:100C2000914A0029800043904C0014810027914E86
:100C3000003B80005B81F002050B05020027905409
:100C4000007780001C90530058800029905200606B
:100C5000800017905100658000149050004E800075
:100C60000A904F0043800021904E004E80001F905C
:100C70004D004B80002C904C005580000D904B0097
:100C80005080000A904A005880904900DD80F000B2
:100C90000B904F914B0117808100D60023904100AB
:100CA000239151011D8100F48000059043002391A0
:100CB0004F011D810388800005F0080B000202022D
:100CC00000000904000001020200000524001001D8
:100CD000052401010104240206052406000107057C
:100CE000810310004009040100020A00000007050A
:100CF00002024000000705830240000004030904CB
:100D000012010002EF02014041233680000101027E
:100D1000030141726475696E6F204C4C430041724F
:100D20006475626F79000408020110408040102051
:100D300040804080080204018040201002011080A1
:100D4000102040402000000000250028002B002E2D
:100D50000031000404040404030405020202020436
:100D60000302020202060606060606040402020246
:100D70000404030107010707040705050707070720
:100D800007050507070707010700A81A11241FBE5A
:100D9000CFEFDAE0DEBFCDBF11E0A0E0B1E0E6E5E5
:100DA000F7E502C005900D92A63AB107D9F727E002
:100DB000A6EAB1E001C01D92A637B207E1F716E03E
:100DC000C6ECD6E004C02197FE010E948A2BC53CE8
:100DD000D107C9F70E94261B0C94A92B0C94000084
:100DE0000F931F9300914002109141022091420203
:100DF00030914302DC01CB01800F911FA21FB31F72
:100E00008093400290934102A0934202B093430228
:100E10002091690221110DC080319742A105B105D1
:100E200040F080914C028F5F80934C0281E0809370
:100E300069021F910F9108952F923F924F925F92F6
:100E40006F927F928F929F92AF92BF92CF92DF92DA
:100E5000EF92FF920F931F93CF93DF93CDB7DEB73F
:100E60002A970FB6F894DEBF0FBECDBF822E912C0D
:100E70009401280F391F37FDF6C0803891050CF01A
:100E8000F2C09B01200F311D37FDEDC060347105AC
:100E90000CF0E9C0DB0177FF04C0AA27BB27A61B23
:100EA000B70BA770BB279B0177FF02C0295F3F4F9D
:100EB000F3E035952795FA95E1F777FF08C02150C3
:100EC000310968E070E0FB01EA1BFB0BDF01E02F5A
:100ED000E695E695E6952E2E312C077019F0FFEF7A
:100EE0002F1A3F0ABA01220E331EA9015695542F1C
:100EF000442757954795480F591FD12CC12CFA010B
:100F0000E659FD4FFA83E983FA01E651FD4FFC8370
:100F1000EB8348E050E03A016A1A7B0A2216330656
:100F200009F4A1C02830310509F49DC02F3FFFEF1F
:100F30003F070CF458C049815A814C0D5D1D5E83FA
:100F40004D834B815C814C0D5D1D5A8749878C0117
:100F500050E040E017FD37C02F3F320709F47FC053
:100F60005A01A60EB71EED81FE81F488F1E0EF1262
:100F700042C0F501A490EA2D0A2E01C0EE0F0A949A
:100F8000EAF7FE2AED81FE81F48A1097E1F027301E
:100F90003105C9F02A01460E571EA984BA84A40E51
:100FA000B51EF501F488F1E0EF123EC0F201449065
:100FB000E42DF0E0062C02C0F595E7950A94E2F7DF
:100FC000FE2AF501F48A4F5F5F4F0F5F1F4FED81DF
:100FD000FE813196FE83ED834815590524F40038CF
:100FE000110509F0B7CF2F5F3F4F680D791DF0E86D
:100FF000CF0ED11C93CFF501E1100DC0A490EA2DC6
:10100000F0E00A2E02C0EE0FFF1F0A94E2F7E0950F
:10101000F095FE22B7CFA490EA2D0A2E01C0EE0F64
:101020000A94EAF7FE26AECFF201E1100DC044901B
:10103000E42DF0E0062C02C0F595E7950A94E2F75E
:10104000E095F095FE22BDCF4490E42DF0E0062C13
:1010500002C0F595E7950A94E2F7FE26B2CF109705
:1010600009F098CFB0CF2A960FB6F894DEBF0FBE26
:10107000CDBFDF91CF911F910F91FF90EF90DF9047
:10108000CF90BF90AF909F908F907F906F905F9028
:101090004F903F902F9008958EE792E020E0B22F7E
:1010A000B111BFEFFC010024B193B193B193B1939F
:1010B0000394D1F708958F929F92AF92BF92CF92EF
:1010C000DF92EF920F93CF93DF9360913B02709189
:1010D0003C0280913D0290913E020E941C2A4B01ED
:1010E00060913702709138028091390290913A02F2
:1010F0000E941C2ACB01E12C03E023E043E85DE0E1
:10110000B4010E941C07C7E3D2E083E4C82E82E04A
:10111000D82E6E8D6150770B8D8DE12C03E023E08E
:1011200043E85DE08150990B0E941C072396CC1682
:10113000DD0679F7DF91CF910F91EF90DF90CF909F
:10114000BF90AF909F908F900895FC018091DF0138
:10115000882311F13FB7F89482E08093E900209151
:10116000F200822F90E01816190614F481E090E046
:10117000882339F0289844E64093DE014091F1003D
:101180004083222339F02091F200211103C02BE685
:101190002093E8003FBF08958FEF9FEF08952FB78A
:1011A000F89483E08093E9009091E800892F8072A1
:1011B00095FF04C09091F20080E4891B2FBF089531
:1011C0008091D60181110DC082E08093D20184E02C
:1011D0008093D3011092D5011092D40181E08093C5
:1011E000D60182ED91E00895CF93DF931F92CDB7A2
:1011F000DEB76983DC01ED91FC910280F381E02D83
:1012000041E050E0BE016F5F7F4F09950F90DF9185
:10121000CF91089583E08093E9008091F2008823C4
:1012200019F08AE38093E80008950E94CF0890E0C7
:101230000895CF93DF931F92CDB7DEB7FC0184856D
:10124000958597FD08C02FEF3FEF358724870F90D6
:10125000DF91CF910895CE0101960E94A5080197D4
:1012600019F4898190E0F3CF8FEF9FEFF0CF0F93C8
:101270001F93CF93DF931F92CDB7DEB78C01FC0194
:101280008485958597FF0BC0CE0101960E94A50825
:10129000019771F4898190E0F80195878487F801BE
:1012A000848595850F90DF91CF911F910F910895BF
:1012B0008FEF9FEFF1CFFC018485958597FD0BC0E3
:1012C0009FB7F89482E08093E9008091F2009FBF7D
:1012D00090E0019608959FB7F89482E08093E9002A
:1012E0008091F2009FBF90E008954091CC01509111
:1012F000CD012091CA013091CB0142175307B4F4BC
:101300009091E8009570E1F39091E80092FD19C08A
:101310008093F1008091CC019091CD0101968F7363
:101320009927892B19F48EEF8093E8008091CC01E6
:101330009091CD0101969093CD018093CC0181E0F5
:10134000089580E00895EF92FF920F931F93CF933B
:10135000DF93F82E192FE62E042F81E0860F880FD9
:101360000E94750983E00E947509CF2DD12FEC0EE4
:10137000FD2EF11CCE15DF05B9F007FF13C0FE01ED
:1013800084910E947509182F80E00E9475098123BD
:1013900021968111EFCFDF91CF911F910F91FF9097
:1013A000EF9008958881EDCF81E0F5CFDF92EF9245
:1013B000FF920F931F93CF93DF93D82E8A01EB01F7
:1013C0007B01E40EF51ECE15DF0559F0D7FE12C0E5
:1013D000FE0184910E94750921968111F4CF0FEFCF
:1013E0001FEFC801DF91CF911F910F91FF90EF90F8
:1013F000DF9008958881EECF0F931F93CF93DF93F3
:101400001F92CDB7DEB782E0898342E450E06AEBF9
:101410007CE080E80E94D6090E94E008DC01129678
:101420000D911C910115110589F0D801ED91FC91E8
:101430000280F381E02DBE016F5F7F4FC8010995E7
:1014400097FD04C0F80100851185ECCF89810F90CC
:10145000DF91CF911F910F910895615030F020914D
:10146000F100FC0120830196F8CF289884E6809350
:10147000DE010895AF92BF92CF92DF92EF92FF927A
:101480000F931F93CF93DF936C017B018B01040FAC
:10149000151FEB015E01AE18BF08C017D10759F048
:1014A0006991D601ED91FC910190F081E02DC6018A
:1014B0000995892B79F7C501DF91CF911F910F9184
:1014C000FF90EF90DF90CF90BF90AF900895282FBE
:1014D00030E0F901E050F54F9491F901EA5DF24FE7
:1014E00084912D5A324FF9012491222309F430C0FE
:1014F0009923E9F091509F30D0F4E92FF0E0ED57B7
:10150000F54F0C948A2BB10AB50A920AA90AAD0AC2
:10151000970A970A970AB80ABE0AC20AC60ACC0AEC
:10152000970AD00A909180009F7790938000E22FD5
:10153000F0E0EE0FFF1FEB5BF24FA591B4919FB768
:10154000F894EC91611132C080958E238C939FBFEB
:101550000895909180009F7DE8CF90918000977FC3
:10156000E4CF94B59F7794BDE2CF94B59F7DFBCF38
:10157000909190009F7790939000D9CF9091900098
:101580009F7DF9CF90919000977FF5CF9091C0000B
:101590009F779093C000CBCF9091C0009F7DF9CFF3
:1015A0009091C200977F9093C200C1CF8E2BCECF77
:1015B000CF93DF9390E0FC01EA5DF24F24918D5AC6
:1015C000924FFC0184918823C9F090E0880F991F05
:1015D000FC01E153F44FA591B491FC01EB5BF24F98
:1015E000C591D49161110DC09FB7F8948C9120954D
:1015F00082238C938881282328839FBFDF91CF91FA
:101600000895623051F49FB7F8943C91822F8095F1
:1016100083238C93E8812E2BEFCF8FB7F894EC9136
:101620002E2B2C938FBFEACF3FB7F8948091B70150
:101630009091B801A091B901B091BA0126B5A89BCB
:1016400005C02F3F19F00196A11DB11D3FBFBA2F54
:10165000A92F982F8827BC01CD01620F711D811D14
:10166000911D42E0660F771F881F991F4A95D1F799
:1016700008958F929F92AF92BF92CF92DF92EF9296
:10168000FF926B017C010E94140B4B015C01C114A1
:10169000D104E104F104B9F00E94140B681979092E
:1016A0008A099B09683E73408105910580F321E01A
:1016B000C21AD108E108F10888EE880E83E0981E6E
:1016C000A11CB11CE4CFFF90EF90DF90CF90BF90B2
:1016D000AF909F908F9008958F929F92AF92BF92FC
:1016E000CF92DF92EF92FF920F931F93CF93DF93EE
:1016F0006C017B018A0180910F01882309F45CC091
:101700008091DF01882309F457C08091D10180FFC7
:1017100005C08091E00082608093E000E801B12C78
:101720008AEFA82E93E0892E2AE3922E209711F4B7
:10173000BB20D9F10E94CF0881110AC0AA94AA2027
:10174000D9F161E070E080E090E00E94390BEECFCB
:101750008C171D0611F00CF08C2F9FB7F894809217
:10176000E9002091E80025FD02C09FBFDFCF282FB0
:1017700030E0C21BD30BF701815020F04191409320
:10178000F100FACFE20EF31EBB2021F09092E800A8
:10179000B12CEBCF8091E80085FDE7CF9092E80077
:1017A000BB24B394209709F3F3CF5D9884E680932C
:1017B000D001101611063CF081E090E0F601938311
:1017C000828310E000E0C801DF91CF911F910F915B
:1017D000FF90EF90DF90CF90BF90AF909F908F9051
:1017E00008952FB7F8946091B3017091B40180917E
:1017F000B5019091B6012FBF08958F929F92AF923D
:10180000BF92CF92DF92EF92FF920F931F93CF93ED
:10181000DF93EC01162F20E030E0A9016881798187
:101820008A819B810E94172A882331F1C09060022F
:10183000D0906102E0906202F090630228EEC2163E
:1018400023E0D206E104F10424F56C817D818E81D0
:101850009F810E941C2A4B01688179818A819B812A
:101860000E941C2ACB01EE24E39403E023E046E827
:101870005DE0B4010E941C07DF91CF911F910F9191
:10188000FF90EF90DF90CF90BF90AF909F908F90A0
:1018900008950E94F10B28EEC21A23E0D20AE10853
:1018A000F1086C157D058E059F0578F60E94F10BF9
:1018B00024E630E040E050E00E947929633371056E
:1018C0008105910510F61111C0CFD6CF43B18FB16C
:1018D00029B190E08095909534E0959587953A955B
:1018E000E1F7887030E02095309553E035952795E5
:1018F0005A95E1F72370822B942F9095907D892B38
:101900000895FC0121912EBD9C5F21910DB407FE2D
:10191000FDCF2EBDE817F907C1F70DB407FEFDCFC7
:101920000895CF92DF92EF92FF920F931F93CF9380
:10193000E82FF0E0EE58F24FC491E62FF0E060336C
:1019400098F5E053F54FE4910E2F10E0F12CE12CC7
:1019500060E074E284EF90E0A70198010E944729BB
:10196000215031094109510991E02115310581E0EA
:10197000480751056CF060E970ED83E090E0A70145
:1019800098010E944729215031094109510993E0EA
:10199000C13089F0C330F9F0CF911F910F91FF90C2
:1019A000EF90DF90CF900895EE0FFF1FE053F64FBA
:1019B00005911491CBCF80918100887F892B8093F2
:1019C0008100309389002093880080916F008260AD
:1019D00080936F00E1CF80919100887F892B809365
:1019E000910030939900209398001093B1010093D7
:1019F000B00181E08093AF0180917100826080939B
:101A00007100CACFE82FF0E0EE58F24FE491E130D8
:101A100019F0E33089F0089580916F008D7F8093F5
:101A20006F008091E301E091E401F091E501908184
:101A300080958923808308951092AF018091E00101
:101A4000E091E101F091E201F2CFCF938091E601C4
:101A5000823081F0E82FF0E0EE58F24FC4918F5FB2
:101A60008093E60161E089E00E94D80AC13021F04C
:101A7000C33021F1CF91089510928000109281001F
:101A800080918100886080938100809181008160D5
:101A900080938100ECE5FDE0E491F0E0EE0FFF1FA4
:101AA000EB5BF24F859194919093E5018093E40173
:101AB000EFE2FDE0E491E093E301DCCF10929000CF
:101AC00010929100809191008860809391008091A4
:101AD0009100816080939100ECE5FDE0E491F0E0FD
:101AE000EE0FFF1FEB5BF24F859194919093E20113
:101AF0008093E101EFE2FDE0E491E093E001809169
:101B0000E601882321F06CE380E00E94910C80E0E4
:101B1000CF910C94020DE091C101F091C201BF017F
:101B20006F5F7F4F7093C2016093C1012491922F28
:101B3000907F822F8F70903819F40E94020DEBCFA6
:101B4000903981F43296F093C201E093C101FB0118
:101B500064919091E6018917F0F667FDDCCF0E9451
:101B6000910CD9CF903E49F48091C3019091C4016A
:101B70009093C2018093C101CECF903F19F410928F
:101B8000C001089597FDC7CF3296F093C201E0934C
:101B9000C101FB016491A091B001B091B101322F5C
:101BA000262F0E949B296C507E4F8F4F9F4F28EE0F
:101BB00033E040E050E00E9479292093AB0130935C
:101BC000AC014093AD015093AE018091AB01909177
:101BD000AC01A091AD01B091AE01892B8A2B8B2B6A
:101BE00061F481E090E0A0E0B0E08093AB019093DD
:101BF000AC01A093AD01B093AE0108951092C50160
:101C0000E4E6F0E0808188608083E5E6F0E08081B2
:101C1000886080830895E4E6F0E08081877F808398
:101C2000E5E6F0E08081877F808381E08093C501D5
:101C3000089560387105E8F440345105D0F4342F2C
:101C4000369536953695A0E83A9FF0011124E60FB7
:101C5000F71FE80FF91F3489CA018770992741E0FF
:101C600050E001C0440F8A95EAF7222319F0432B74
:101C7000448B089540954323FBCF2F923F924F9280
:101C80005F926F927F928F929F92AF92BF92CF920C
:101C9000DF92EF92FF920F931F93CF93DF9300D0C9
:101CA0001F92CDB7DEB79B838A837B016A010983CC
:101CB0008901061B170B17FF03C011950195110928
:101CC00056018A819B81A81AB90AB7FE03C0B19454
:101CD000A194B108A016B1065CF49C2D8D2D69016C
:101CE000292F382F9A818B81FB82EA82E92EF82EE8
:101CF0008A819B81C816D9065CF49E2D8F2D7901AF
:101D0000292F382F9A818B81DB82CA82C92ED82E47
:101D100016018A819B81281A390A29014E185F0809
:101D200057FE03C0519441945108310137FE03C05E
:101D30009FEF691A790A759467948FEFE216F3069C
:101D40000CF481E0882E880F99088A819B81C8163F
:101D5000D906DCF02981AC01B701A016B1061CF050
:101D6000A7016A817B818AE692E00E94190E6418BD
:101D7000750877FE04C0E80CF91C620C731C8A819C
:101D80009B8101969B838A83E0CF0F900F900F90E9
:101D9000DF91CF911F910F91FF90EF90DF90CF9047
:101DA000BF90AF909F908F907F906F905F904F907B
:101DB0003F902F9008954F925F926F927F928F92F3
:101DC0009F92AF92BF92CF92DF92EF92FF920F93CA
:101DD0001F93CF93DF93EC016CE271E080E090E021
:101DE0000E94390B07E312E0BE0190E080E00E9400
:101DF000522AF80124813581468157810E94AB29FE
:101E00000E941C2A6B01F80180809180A280B3801F
:101E100020E030E040E450E4C501B4010E94AB2969
:101E20000E941C2A2B01C501B4010E941C2ACB016F
:101E300000E09601A201B6010E943D0E8EE792E0FD
:101E4000DF91CF911F910F91FF90EF90DF90CF9096
:101E5000BF90AF909F908F907F906F905F904F90CA
:101E60000C94810C2F923F924F925F926F927F92CF
:101E70008F929F92AF92BF92CF92DF92EF92FF929A
:101E80000F931F93CF93DF93CDB7DEB72D970FB688
:101E9000F894DEBF0FBECDBF6A3069F5FC01EA5E83
:101EA000FB4FDC01A85EBB4F2C9148E0249F9001C2
:101EB000112440815181240F351F318320831497D1
:101EC0001D921C922D960FB6F894DEBF0FBECDBFAB
:101ED000DF91CF911F910F91FF90EF90DF90CF9006
:101EE000BF90AF909F908F907F906F905F904F903A
:101EF0003F902F9008956D3029F39D878C878C5EDD
:101F00009B4F9A838983FC01808091802C853D853D
:101F1000285E3B4F3C832B8330E8831691040CF002
:101F200071C0EC85FD85EA5EFB4F6080718040E406
:101F3000641671040CF066C0AB81BC814C9045E026
:101F40009401449E200D311D1124121613060CF02D
:101F500059C0242C312C910153E0220F331F5A9584
:101F6000E1F7260D371D121613060CF04BC0649FC7
:101F7000B001112410E000E0FB01E05DFA4FFB87A7
:101F8000EA87E0E0053029F0EA85FB85E00FF11FE4
:101F9000E491530198E0592E2E2F30E03E832D839B
:101FA000E170EF83F12CE12CE414D8F4C4018E0D20
:101FB0009F1D99878887D12CC12CC41470F4A60169
:101FC0004A0D5B1D2F81688579858C859D850E94D2
:101FD000190E9FEFC91AD90AF0CFAFEFEA1AFA0A21
:101FE000E3CFED81FE81F595E7955A94A20CB31CE1
:101FF0005110D2CF0F5F1F4F820C931C063011057A
:1020000009F0BFCFEB81FC812081422F50E0A981F4
:10201000BA818D919C91B6E02B9F800D911D11246A
:10202000E981FA8191838083EC85FD85E75EFB4F32
:102030002081222309F446CF6AEF64039001659F53
:10204000300D112420583F4F281739070CF03ACF94
:10205000AC85BD85ED91FC9111970190F081E02D4B
:102060006AE0CD012D960FB6F894DEBF0FBECDBF4E
:10207000DF91CF911F910F91FF90EF90DF90CF9064
:10208000BF90AF909F908F907F906F905F904F9098
:102090003F902F900994682F8AE692E00C94320FBB
:1020A000089590E080E00895CF92DF92EF92FF9242
:1020B000CF93DF93EC0181E08093AA01E1E8F0E0A7
:1020C0008081887F81608083DE01AA0FBB1F9A0117
:1020D000AB010E94662928EE33E040E050E00E9408
:1020E000792969017A019E0150E040E060E072E1E7
:1020F0008AE790E00E94472921503109410951099E
:102100003093890020938800C092A601D092A70145
:10211000E092A801F092A901EFE6F0E080818260F0
:102120008083DF91CF91FF90EF90DF90CF90089563
:102130006034710500F5462F477066956695669583
:1021400090E8699FB001112466597D4F680F711D99
:10215000FB01848990E021E030E0042E02C0220FD0
:10216000331F0A94E2F78223932302C09595879543
:102170004A95E2F7089580E008956F927F928F92DA
:102180009F92AF92BF92CF92DF92EF92FF920F9306
:102190001F93CF93DF937901F9013297FE97A8F54A
:1021A000622E742E5B016C01C42FD52F912C812CD3
:1021B00010E000E0B8016E0D7F1DCE010E94981066
:1021C0008823B1F0870CF6018082060DF5010083AB
:1021D00081E0DF91CF911F910F91FF90EF90DF9001
:1021E000CF90BF90AF909F908F907F906F90089509
:1021F0000F5F1F4F03301105E9F6FFEF8F1A9F0A9B
:10220000219683E08816910499F680E0E2CF0F933F
:102210001F93CF93DF938C01EB012496BE010197AE
:102220000E949810811107C0BE01C80103960E9448
:10223000981091E0811190E0892FDF91CF911F914B
:102240000F9108950F931F93CF93DF93EB018C01B0
:102250000250110961507109C8010E949810811142
:1022600008C0BE016D5F7F4FC8010E94981091E0C9
:10227000811190E0892FDF91CF911F910F910895E7
:102280000F931F93CF93DF938C01EB012297BE0135
:1022900001970E949810811107C0BE01C8010396E2
:1022A0000E94981091E0811190E0892FDF91CF91E9
:1022B0001F910F9108950F931F93CF93DF93EB011D
:1022C0008C010C5F1F4F61507109C8010E9498106A
:1022D000811108C0BE016D5F7F4FC8010E94981038
:1022E00091E0811190E0892FDF91CF911F910F91A3
:1022F0000895CF92DF92EF92FF920F931F93CF93A7
:10230000DF93EC018B017B0181E0E81AF1086E019B
:1023100083E0C80ED11CB701C6010E94981081113C
:1023200021C00D5F1F4FB801C6010E949810811196
:1023300019C02197B701CE010E949810811112C0D7
:10234000B801CE010E94981091E0811101C090E087
:10235000892FDF91CF911F910F91FF90EF90DF9028
:10236000CF90089591E0F4CFEF92FF920F931F93D7
:10237000CF93DF937C01EB01842FA901980186FFA5
:1023800013C0F70160817181828193810E94AB2922
:10239000F7016083718382839383DF91CF911F91D3
:1023A0000F91FF90EF90089587FF08C0F7016081BB
:1023B0007181828193810E94AA29EACF83FF0BC099
:1023C000688179818A819B810E94AA2968837983A7
:1023D0008A839B83E2CF81FFE0CF688179818A8104
:1023E0009B810E94AB29F2CF8F929F92AF92BF92B6
:1023F000CF92DF92EF92FF920F93CF93DF93EC0196
:10240000C880D980EA80FB8020E030E0A901C701C4
:10241000B6010E94172A882351F16C817D818E813B
:102420009F810E941C2A4B01C701B6010E941C2AF1
:10243000CB01E12C03E023E04CEA50E0B4010E9420
:102440001C076D85662399F04E8550E070E021E011
:102450008AE692E0DF91CF910F91FF90EF90DF90AD
:10246000CF90BF90AF909F908F900C94190EDF91FA
:10247000CF910F91FF90EF90DF90CF90BF90AF90F2
:102480009F908F900895CF93DF93E7E3F2E0168A51
:10249000148E138EA1E7B7E01C9211961D921D9227
:1024A0001D921C92149793E0958F968F81E0878FF1
:1024B00090A32CE321A382A339E633A394A385A39D
:1024C00036A327A380A711A612A613A614A6A5E8D3
:1024D000B6E088E7ED0119928A95E9F71092840633
:1024E000148A80E090E0A0E0BFE3808B918BA28B08
:1024F000B38B80E090E0A4E5B2E480839183A28373
:10250000B38380E090E0A0E3B2E484839583A68364
:10251000B783178A108E118E128E15A61586108617
:1025200016A617A610AA11AADF91CF910895FC0153
:1025300001900020E9F73197AF01481B590BBC010E
:102540008AE692E00C943A0A8F929F92AF92BF92E1
:102550000F931F93CF93DF93CDB7DEB7A1970FB63D
:10256000F894DEBF0FBECDBF19A2423008F44AE096
:102570008E010F5D1F4F842E912CB12CA12CA50133
:1025800094010E947929E62FB901CA01EA30F4F4D6
:10259000E05DD801EE938D01232B242B252B79F7B9
:1025A00090E080E0109719F0CD010E949712A1965B
:1025B0000FB6F894DEBF0FBECDBFDF91CF911F9154
:1025C0000F91BF90AF909F908F900895E95CE1CFFD
:1025D000009711F00C94971290E080E008950F930B
:1025E0001F93CF93DF938C01D62FC42F85E090E00B
:1025F00090937F0680937E0630E03093810620938F
:102600008006641304C089E391E00E94E812C801C7
:102610000E94E812DC1308C08CE391E0DF91CF91B7
:102620001F910F910C94E812DF91CF911F910F91A0
:1026300008950E944C0885E090E090937F06809377
:102640007E0690938106809380068FE391E00E943E
:10265000971288E491E00E94971229E14091C60107
:1026600060E08BE491E00E94EF1223E24091C6010A
:1026700061E080E591E00E94EF128091C5012DE2BA
:102680004091C60162E0882341F08CE591E00E9410
:10269000EF128EE792E00C94810C89E691E0F7CF7F
:1026A0008F929F92AF92BF92CF92DF92EF92FF9262
:1026B0000F931F93CF93DF93CDB7DEB7A1970FB6DC
:1026C000F894DEBF0FBECDBF80914D02882381F00C
:1026D00010924D0280913F02883009F4CBC08038BF
:1026E00009F4C5C0823009F0C8C084E79DE013C07A
:1026F00080913F02882361F30E94F10B24EF31E0C7
:1027000040E050E00E9479296B3F710581059105F9
:10271000F8F68DE79DE09093460280934502C090C5
:102720004502D090460260913B0270913C0280913C
:102730003D0290913E020E941C2A4B01609137029B
:10274000709138028091390290913A020E941C2ABD
:10275000CB01EE24E39403E023E0A601B4010E9440
:102760001C07E7E3CE2EE2E0DE2EF601878D8823FC
:1027700071F0668D6150770B858DEE24E39403E054
:1027800023E043E85DE08150990B0E941C07F3E0D1
:10279000CF0ED11C83E4C81682E0D80631F709E7D2
:1027A00010E0D12CC12C20E0A601B8018AE692E00D
:1027B0000E94190E9FEFC91AD90AE0E4CE16D1047F
:1027C00091F70F5F1F4F0038110559F70DE610E024
:1027D00077E3C72ED12C20E0A601B8018AE692E06B
:1027E0000E94190EFFEFCF1ADF0A80E4C816D10449
:1027F00091F70F5F1F4F0038110551F720914002EC
:1028000030914102409142025091430219A28E013F
:102810000F5D1F4F6AE0C62ED12CE12CF12CCA01AE
:10282000B901A70196010E944729605DF8016293F2
:102830008F01211531054105510589F7DD24D39418
:1028400099E7A92EB12CF80181918F018823C1F05D
:10285000B0927F06A0927E062D2D30E03093810647
:1028600020938006F8E0DF0E0E944B10ECCF8AE741
:102870009DE051CF87E79DE04ECF80E89DE04BCFB4
:10288000D12CC12C8EE6A82EB12C80914C02873021
:10289000B8F48150990BC816D906ACF4EE24E39431
:1028A00003E023E040E85DE06AE370E0C5010E94D8
:1028B0001C0784E0A80EB11C9FEFC91AD90AE5CF06
:1028C00085E090E0E8CFA1960FB6F894DEBF0FBE8A
:1028D000CDBFDF91CF911F910F91FF90EF90DF90CF
:1028E000CF90BF90AF909F908F900895CF92DF923E
:1028F000EF920F93CF93DF930E944C08EE24E39462
:1029000000E420E840E351E070E060E090E080E027
:102910000E941C070E945013D0E0C0E0CC24C39456
:10292000D12C809100018C171D0689F084F0EE24D3
:10293000E39404E025E047E35CE0B6018EE690E036
:102940000E941C0785E0C80ED11C2196EACFDF91BA
:10295000CF910F91EF90DF90CF9008958F929F923B
:10296000AF92BF92EF92FF921F93CF93DF93CDB7B9
:10297000DEB7A1970FB6F894DEBF0FBECDBF88E2D9
:1029800090E090937F0680937E0686E090E090939F
:1029900081068093800687E791E00E94E8122091EB
:1029A000400230914102409142025091430219A2EB
:1029B00010E07E0181E2E80EF11C8AE0882E912C65
:1029C000A12CB12C1F5FCA01B901A50194010E947D
:1029D0004729605DF70162937F01211531054105AB
:1029E000510581F72DEF2103C0011124C796909363
:1029F0007F0680937E0680E190E09093810680932D
:102A00008006309719F0CF010E949712A1960FB659
:102A1000F894DEBF0FBECDBFDF91CF911F91FF9025
:102A2000EF90BF90AF909F908F900895CF92DF92DC
:102A3000EF92FF92CF93DF93EC01C98CDA8CEB8C91
:102A4000FC8C0E94F10BC616D706E806F906F8F4CE
:102A5000888D811124C00E94F10B6B017C010E94C2
:102A6000D92828EB3BE040E050E00E944729685716
:102A70007C4E8F4F9F4FC60ED71EE81EF91EC98E83
:102A8000DA8EEB8EFC8E888D91E08927888F888D79
:102A9000DF91CF91FF90EF90DF90CF9008950E944B
:102AA000F10B6B017C010E94D92820ED37E040E05A
:102AB00050E00E94472968517C4F8F4F9F4FDBCFDA
:102AC000CF93C82F0E94D92822E030E040E050E0A8
:102AD0000E944729C03811F0C03451F488E06115D4
:102AE000710551F082E06130710531F080E804C079
:102AF00080E461307105D1F7CF910895CF93DF93D2
:102B0000EC010E94F4111D861D8A1C8A1F8A1E8AF0
:102B100080E090E0A0E0BFE389879A87AB87BC871D
:102B200080E090E0A4E5B2E488839983AA83BB8324
:102B30006B89643060F585E0689FB0011124072E31
:102B4000000C880B990B0E94542A20E030E048EBDF
:102B500051E40E94AB296C837D838E839F8388E040
:102B60000E9460158887188E0E94D9282CEA3DE0C3
:102B700040E050E00E9447296C507E4F8F4F9F4F9E
:102B8000698F7A8F8B8F9C8FDF91CF9108950E94F0
:102B9000D9282FE030E040E050E00E944729CFCF15
:102BA0004F925F926F927F92BF92CF92DF92EF929D
:102BB000FF920F931F93CF93DF93B82E84E08093FF
:102BC0000101CDEFD6E084EFC82EDD24D394E12CB3
:102BD000F12C10E000E0809101018017110691F1C5
:102BE0008CF1BB2049F01D86188219821A821B8243
:102BF0001C821D821E821F820B8BCE010E947E15BD
:102C00000E94F10BDC01CB018C0D9D1DAE1DBF1D83
:102C10008F87988BA98BBA8B498C5A8C6B8C7C8C48
:102C2000480E591E6A1E7B1E498E5A8E6B8E7C8EF4
:102C30000F5F1F4F6D9680E2C80E83E0D81EE11C27
:102C4000F11CC9CFDF91CF911F910F91FF90EF90B1
:102C5000DF90CF90BF907F906F905F904F900895DE
:102C60000E94A42B0C9439290C943129CF92DF9225
:102C7000EF92FF92CF93DF93809164008E7F8093D9
:102C8000640087EC80937C0080E280937B0062E0AC
:102C900070E080E090E00E94390B80917A008064BF
:102CA00080937A0080917A0086FDFCCFE0907800D6
:102CB000F0907900E094F0948EE580937C0062E0DF
:102CC00070E080E090E00E94390B80917A0080648F
:102CD00080937A0080917A0086FDFCCFC0907800C6
:102CE000D09079000E94140BC094D094CE9CD00157
:102CF000CF9CB00DDE9CB00D11249B01AC01209542
:102D00003095409550950E9466296B017C010E9488
:102D1000140B6C0D7D1D8E1D9F1D611571058105A8
:102D2000910511F00E9428298091640081608093B0
:102D30006400C3E0D0E0D0930301C09302018FEAA6
:102D400090E09093C4018093C3019093C20180935B
:102D5000C1010E948B0D81E08093C0010E94761416
:102D60008EE792E00E94810C68EE73E080E090E0D4
:102D70000E94390B0E94AE148EE190E090937F0682
:102D800080937E068EE290E0909381068093800689
:102D90008EE791E00E94E8126091000170E090E0FF
:102DA00080E04AE00E94A4128EE792E00E94810C2B
:102DB0006CED75E080E090E00E94390B0E94761483
:102DC0006CE271E080E090E00E94390B0E94761482
:102DD00081E00E94D0158EE792E00E94810CD09392
:102DE0000301C0930201DF91CF91FF90EF90DF903C
:102DF000CF9008951F920F920FB60F9211248F93C8
:102E00009F938091E1009091E100937F9093E10086
:102E100083FF0FC01092E90091E09093EB001092B5
:102E2000EC0092E39093ED001092DF0198E0909314
:102E3000F00082FF22C093E09093E9009091F200AD
:102E4000992319F09AE39093E8009091D001992387
:102E500041F09091D00191509093D001911101C017
:102E60005D9A9091DE01992341F09091DE0191509D
:102E70009093DE01911101C0289A84FF18C08091BF
:102E8000E2008E7E81608093E2008091E1008F7E7F
:102E90008093E1008091D1018E7E80618093D10189
:102EA0009F918F910F900FBE0F901F90189580FFEC
:102EB000F7CF8091E2008E7E80618093E200809166
:102EC000E1008E7E8093E1008091D1018E7E816051
:102ED000E5CF1F920F920FB60F921124CF92DF927F
:102EE000EF92FF920F931F932F933F934F935F9314
:102EF0006F937F938F939F93AF93BF93EF93FF93C2
:102F0000CF93DF93CDB7DEB76C97DEBFCDBF109206
:102F1000E9008091E80083FF25C068E0CE01459676
:102F20000E942D0A82EF8093E8008D8987FF39C0C7
:102F30009091E80090FFFCCF982F907609F034C173
:102F40009E894F89588D2F89F88C911131C0803816
:102F500061F58091CF018093F1001092F1008EEF26
:102F60008093E8006C960FB6F894DEBF0FBECDBF1D
:102F7000DF91CF91FF91EF91BF91AF919F918F9191
:102F80007F916F915F914F913F912F911F910F9181
:102F9000FF90EF90DF90CF900F900FBE0F901F909B
:102FA00018959EEF9093E800C7CF1092F100D5CF0F
:102FB000913059F48111D3CF4130510581F6809180
:102FC000CF018D7F8093CF01CACF933049F4811117
:102FD000C6CF4130510519F68091CF018260F2CF02
:102FE000953041F48091E80080FFFCCF2068209369
:102FF000E300B5CF963009F0A9C00B8D1C8D22E0FF
:103000001092E9001092CD011092CC01F2122EC064
:103010001092CB011092CA010E94FC091F8299E014
:103020009983FA8291E09E8390EA98879AEF998734
:103030002091CC013091CD01275F3F4F3C832B8302
:103040008D831092E9001092CD011092CC01109363
:10305000CB010093CA0149E050E0BE016F5F7F4F92
:1030600080E00E94D6090E94FC0979CF1093CB0121
:103070000093CA010E94E008DC0112960D911C9198
:103080000115110509F451C1D801ED91FC9104809D
:10309000F581E02DBE016B5E7F4FC8010995009759
:1030A00009F03EC1F80100851185EACFF3E0FF1277
:1030B0000EC08F89882309F440C0823061F440E853
:1030C00067E08EE19DE00E94A309811148CF81E273
:1030D0008093EB0047CF813029F440E86BE082E138
:1030E0009DE0F1CF833099F70E94E008DC01129651
:1030F000ED90FC908E010F5F1F4F6801E114F10409
:1031000079F0D701ED91FC910680F781E02DB801AF
:10311000C7010995080F111DF701E084F184EECF76
:10312000D8011C92F60101900020E9F73197BF0108
:103130006C197D0940E0C601C6CF6CEF7CE0FB0155
:10314000449150E080E80E94D60909CF973009F4F5
:10315000BECF983021F481E08093F10000CF993008
:1031600009F0FDCE837009F0B2CFE5E1F1E081E036
:1031700031E096E32191222371F08093E9003093AE
:10318000EB00DF0111972C912093EC009093ED0060
:103190008F5F873079F78EE78093EA001092EA001C
:1031A0008F898093DF01DBCE8B8D9C8D1092E9009F
:1031B0001092CD011092CC019093CB018093CA0163
:1031C000898D811192C08E899D89913A49F481320D
:1031D00009F07DCF47E050E068E071E080E0B3CFD8
:1031E000913209F074CF833269F48F89988DB0E001
:1031F000A0E08093040190930501A0930601B09391
:103200000701ADCE803269F48091E80082FFFCCFE7
:1032100067E088E091E00E942D0A8BEF8093E80040
:103220009ECE823209F09BCE8F8980930F01EEEF04
:10323000FFE7859194918B3F9C4D51F1E0E0F8E0E0
:103240008091080190910901A0910A01B0910B01B0
:10325000803B9440A105B105F1F480910F0180FD00
:103260001AC0EE3F8AE0F80789F587E797E7918370
:103270008083809160008093CE0188E19BE00FB64F
:10328000F894A895809360000FBE9093600067CE7D
:10329000EEEFFAE0D5CF808191818737974709F02B
:1032A0005ECEA895809160008861809360008091D7
:1032B000CE0180936000EE3F2AE0F20789F0809112
:1032C000FE0A9091FF0A9183808349CE808191818B
:1032D0008737980751F29093FF0A8093FE0AC5CF73
:1032E0001092FF0A1092FE0A3ACE0E94E008DC011A
:1032F00012960D911C910115110509F4E8CED80123
:10330000ED91FC910190F081E02DBE016B5E7F4F4D
:10331000C8010995811123CEF80100851185EBCFF5
:10332000181619060CF41BCED2CEF1E0FF12BECE59
:1033300060E07DE004CF1F920F920FB60F92112430
:103340002F933F938F939F93AF93BF938091B3013C
:103350009091B401A091B501B091B6013091B20144
:1033600023E0230F2D3758F50196A11DB11D2093A1
:10337000B2018093B3019093B401A093B501B093CF
:10338000B6018091B7019091B801A091B901B091B7
:10339000BA010196A11DB11D8093B7019093B801A8
:1033A000A093B901B093BA01BF91AF919F918F9152
:1033B0003F912F910F900FBE0F901F90189526E808
:1033C000230F0296A11DB11DD2CF1F920F920FB6EF
:1033D0000F9211242F933F934F935F936F937F939B
:1033E0008F939F93AF93BF93EF93FF938091AF0120
:1033F000882349F08091E001E091E101F091E20140
:103400009081892780838091C001882329F1809150
:10341000AB019091AC01A091AD01B091AE01892BAF
:103420008A2B8B2BC9F08091AB019091AC01A091BC
:10343000AD01B091AE010197A109B1098093AB0133
:103440009093AC01A093AD01B093AE01892B8A2B70
:103450008B2B11F40E948B0DFF91EF91BF91AF91D7
:103460009F918F917F916F915F914F913F912F919C
:103470000F900FBE0F901F9018951F920F920FB6CE
:103480000F9211248F939F93AF93BF93EF93FF936A
:103490008091AA01882309F452C08091A6019091DD
:1034A000A701A091A801B091A901892B8A2B8B2B90
:1034B000A1F19091E301E091E401F091E5018081B7
:1034C000892780838091A6019091A701A091A801EE
:1034D000B091A901181619061A061B069CF48091D2
:1034E000A6019091A701A091A801B091A90101970F
:1034F000A109B1098093A6019093A701A093A80107
:10350000B093A901FF91EF91BF91AF919F918F91DE
:103510000F900FBE0F901F9018951092AA018091E6
:103520006F008D7F80936F008091E301E091E40153
:10353000F091E5019081809589238083E3CF90917C
:10354000E301E091E401F091E50180818927F5CF65
:103550001092EA011092E90188EE93E0A0E0B0E059
:103560008093EB019093EC01A093ED01B093EE01F9
:103570008FE191E09093E8018093E7018FEF9FEF57
:103580009093F4018093F30110926D0210926C02FB
:1035900081E391E090936B0280936A028CE38093C5
:1035A000700280E180937302109272021092710295
:1035B000109278021092790210927A0210927B0295
:1035C00010927C0210927F0610927E061092810665
:1035D0001092800681E08093820683E080934C0203
:1035E0001092400210924102109242021092430245
:1035F000109269020E944312E5E8F6E088E7DF01D5
:103600001D928A95E9F710928406EDEFF6E010829C
:103610001182128213821482158216821782138AF3
:103620001786108A118A128A168615867D96B7E04B
:10363000E137FB0761F71092710710927207109241
:10364000730710927407109275070895CF93DF9354
:10365000CDB7DEB72C970FB6F894DEBF0FBECDBF47
:10366000789484B5826084BD84B5816084BD85B55D
:10367000826085BD85B5816085BD80916E00816069
:1036800080936E001092810080918100826080930F
:103690008100809181008160809381008091800011
:1036A000816080938000809191008260809391007E
:1036B0008091910081608093910080919000816061
:1036C000809390008091C10084608093C1008091BC
:1036D000C10082608093C1008091C10081608093AD
:1036E000C1008091C30081608093C3008091C000BD
:1036F00082608093C0008091C20081608093C2008C
:1037000080917A00846080937A0080917A00826050
:1037100080937A0080917A00816080937A00809112
:103720007A00806880937A001092DF011092CF01B6
:103730001092D1018091D70081608093D70080EAF8
:103740008093D80089B5806189BD89B5826089BDC3
:1037500009B400FEFDCF61E070E080E090E00E94DF
:10376000390B8091D8008F7C80618093D800809144
:10377000E000807F8093E0008091E1008E7E809366
:10378000E1008DE08093E200559A209A68E873E1A9
:1037900080E090E00E94390B0E94250D0E94250DCB
:1037A0001FB7F8948091BB01811127C0E4E6FDE0CA
:1037B0008491E7E3FDE09491E82FF0E0EE0FFF1F26
:1037C000E153F44FA591B491EC91E92321F461E028
:1037D00081E10E94670A61E081E10E94D80A8CB50C
:1037E00080618CBD8CB580648CBD61E08FE00E94EF
:1037F000D80A61E080E10E94D80A8091BB018F5F06
:103800008093BB011FBF0AEE1BE0B801F801849151
:103810006F5F7F4F0E5F1F4FFB016491882319F08C
:103820000E94D80AF2CF61E086E10E94670A61E057
:1038300070E080E090E00E94390B60E086E10E9439
:10384000670A6AE070E080E090E00E94390B61E076
:1038500086E10E94670AEAE6FDE0E491F0E0EE0FFF
:10386000FF1FEB5BF24FA591B4919C918091BF013A
:10387000809589238C93EDE3FDE0E491E093BF0113
:10388000E8E6FDE0E491F0E0EE0FFF1FEB5BF24FA6
:10389000859194919093BE018093BD01EBE3FDE08F
:1038A000E491E093BC018CB58C7F8CBD8DB58160BB
:1038B0008DBDE091BD01F091BE0190818091BC0170
:1038C000809589238083EDEDFBE00BE0EA3EF00775
:1038D00049F084918EBD00000DB407FEFDCF8EB57A
:1038E0003196F3CFE091BD01F091BE0180819091BE
:1038F000BC01892B80838091640081608093640087
:10390000809164008260809364008091640080688C
:10391000809364008091640080648093640080914F
:1039200065008160809365000E94660C83FF0BC078
:1039300080E094E01EBC00000DB407FEFDCF2EB564
:103940000197C1F7FFCF6EEEC62EDD24DA940E94F8
:103950004C08EE24E39400E128E54FE15BE0B6017A
:1039600084E190E00E941C078EE792E00E94810CA7
:103970006BE170E080E090E00E94390B10EFC11223
:1039800006C06AEF70E080E090E00E94390B2FEFF4
:10399000C21AD20A39E1C316D104C9F66EEE72E03A
:1039A00080E090E00E94390B0E94250D0E94250DB9
:1039B0001092C00182E090E00E94341681110E94B2
:1039C0000B0E8091C501811108C00E94FE0D60910F
:1039D000C50182E090E00E94321688E28093700276
:1039E00089E1809373020E94F10B9B01AB01BC0142
:1039F00080917C02882389F080917402922F981B19
:103A000090937D0280917102909172020196909341
:103A100072028093710210927C02809178029091E0
:103A20007902A0917A02B0917B02481759076A0780
:103A30007B07A4F4821B823050F083B7817F83BF61
:103A400083B7816083BF889583B78E7F83BF80E013
:103A500090E0892B41F20E940000C5CF8091730253
:103A60008A019B01080F111D211D311DD901C801BB
:103A70008093780290937902A0937A02B0937B02AC
:103A800040937402509375026093760270937702AC
:103A900081E080937C028091020190910301823049
:103AA000910511F40C94402708F05CC0019779F659
:103AB00083E080934C0210924002109241021092D7
:103AC000420210924302109269020E9443120E9425
:103AD00019131091C6010E94660C83FF08C08FEF76
:103AE000810F87FF02C00C94A7278093C6010E9414
:103AF000660C81FF0CC08091C601082E000C990B4A
:103B0000019663E070E00E94762B8093C6010E94CC
:103B1000660C84FD02C00C94BD270E94191344E179
:103B200050E060E070E08FE692E00E94541068EC94
:103B300070E080E090E00E94390B8091C6018230F5
:103B400011F00C94AE278091C501882311F40C94D8
:103B5000AA270E94FE0D6091C50182E090E00E94BC
:103B6000321675CF8330910509F49DC0059709F091
:103B70006ECF0E944C0880E290E090937F06809385
:103B80007E0610928106109280068AE991E00E94DA
:103B9000E81200E911E0412C512C320143942AE053
:103BA000E22EF12C38E1C32ED12CD0927F06C092A8
:103BB0007E06F0928106E09280064AE0C301B201DF
:103BC0000E94A412C8010E943416882EC8010196D2
:103BD0000E9434162FEF821204C08F3F11F40C9410
:103BE000D527982C882E092C000CAA08BB08C801E0
:103BF00002960E943416382E8093C701C80103969E
:103C00000E9434168093C801C80104960E9434169D
:103C10008093C90181149104A104B104E9F080E307
:103C200090E090937F0680937E06F0928106E0926A
:103C30008006832D0E944B108091C8010E944B107A
:103C40008091C9010E944B1080E20E944B104AE013
:103C5000C501B4010E94A412B8E0EB0EF11CEFEF15
:103C60004E1A5E0A6E0A7E0A0B5F1F4FFBE04F166C
:103C700051046104710409F098CF0E94660C84FD20
:103C800002C00C94DA2781E090E0909303018093C6
:103C9000020144E150E060E070E08BE092E00E94BD
:103CA00054100C94CD270E945B08E12C04E025E021
:103CB00047E35CE06CE270E084E390E00E941C0764
:103CC0005DEF252E56E0352E8101F12CE12C8091FF
:103CD00001018E151F0451F04CF0C8010E94F4112F
:103CE0002FEFE21AF20A035E1F4FF1CF80914B02D1
:103CF00081112BC10E94660C182FC0906002D090D9
:103D00006102E0906202F09063020E94F10B6C1578
:103D10007D058E059F0528F5C0906502D09066024E
:103D2000E0906702F09068020E94F10BC616D70679
:103D3000E806F906B0F44EE150E060E070E080E2A1
:103D400093E00E9454100E94F10B645D7E4F8F4FF0
:103D50009F4F609365027093660280936702909311
:103D60006802111110934402C0903702D0903802BB
:103D7000E0903902F0903A02CD82DE82EF82F8863E
:103D800080903B0290903C02A0903D02B0903E0299
:103D900089829A82AB82BC821091440280913F0258
:103DA000181709F450C016FF12C0C501B4010E94D3
:103DB0001C2A2B01C701B6010E941C2ACB01B201AB
:103DC0000E945B11882319F080E480933F0213FF67
:103DD00012C0C501B4010E941C2A2B01C701B60103
:103DE0000E941C2ACB01B2010E944011882319F0C5
:103DF00088E080933F0217FF12C0C501B4010E9402
:103E00001C2A2B01C701B6010E941C2ACB01B2015A
:103E10000E942211882319F080E880933F0211FF4D
:103E200012C0C501B4010E941C2A4B01C701B60192
:103E30000E941C2ACB01B4010E940711882319F0AB
:103E400082E080933F02C0904E02D0904F02E090FB
:103E50005002F09051020E94F10B6C157D058E0509
:103E60009F0508F0CCC08FE892ECA5EFBEE38093ED
:103E7000470290934802A0934902B0934A02F090FF
:103E80003F0260913B0270913C0280913D02909113
:103E90003E020E941C2A4B01609137027091380249
:103EA0008091390290913A020E941C2A2B01809144
:103EB000840690E045E0489FF001499FF00D1124F1
:103EC000EC57F94F2181328101962415350509F00F
:103ED0009BC0238134818216930609F095C0489FC8
:103EE000F001499FF00D1124EC57F94FF082009139
:103EF0004702109148022091490230914A024F2D09
:103F0000BE016F5F7F4FCE0105960E94B411C9803C
:103F1000DA80EB80FC804D805E806F807884C30106
:103F2000B2010E941C2A4B01C701B6010E941C2A43
:103F3000C4010E947911882309F47FC08091440252
:103F400080933F0281E080934D0280917107882326
:103F500011F40C94242820913702309138024091BA
:103F6000390250913A0260E070E084E592E40E94E8
:103F7000AA299F7720E030E040E050E40E94172A11
:103F8000181614F40C94132820913B0230913C0233
:103F900040913D0250913E0260E070E080E392E487
:103FA0000E94AA299F7720E030E040E050E40E9480
:103FB000172A181614F40C9413288DEF9BE0909395
:103FC000C4018093C3019093C2018093C1010E94F8
:103FD0008B0D81E08093C001109271072091000148
:103FE00088EE93E0289FB001299F700D1124072EC1
:103FF000000C880B990B0E94F0060C9424288AE987
:1040000099E9A9E1BFE333CF68E170E00E94762B24
:104010008093840625E0289FF001299FF00D11244C
:10402000EC57F94F52824182948283820196289FF5
:10403000F001299FF00D112457CF40923702509282
:1040400038026092390270923A0220E030E04CE788
:1040500052E4C701B6010E94042B18160CF4F8C0F4
:10406000C0923B02D0923C02E0923D02F0923E02AE
:1040700020E030E040E450EC60913B0270913C0263
:1040800080913D0290913E020E94172A87FF0CC04A
:1040900000E010E028E732E400933B0210933C027A
:1040A00020933D0230933E0260913B0270913C02AE
:1040B00080913D0290913E020E941C2A9B01A40126
:1040C000BE01675F7F4FCE010A960E94BD10882314
:1040D000E1F144E150E060E070E08BE092E00E94AA
:1040E00054100E94F10B68537F4F8F4F9F4F609386
:1040F0004E0270934F0280935002909351026AE0F7
:1041000070E080E090E00E94F00680915202909171
:104110005302019690935302809352028634910584
:1041200019F08A3A910589F481E0809371070E9421
:10413000F10B685D7C4D8F4F9F4F609372077093BA
:104140007307809374079093750707E312E048E1C3
:10415000E42E4CEFF42ED8015F968C915F97882364
:10416000C9F15D966C9170E090E080E00E94522A67
:104170009B01AC0160913702709138028091390245
:1041800090913A020E94AA299F7720E030E040E017
:1041900050E40E94172A1816ECF0F801668D70E0C2
:1041A00090E080E00E94522A9B01AC0160913B02AA
:1041B00070913C0280913D0290913E020E94AA299A
:1041C0009F7720E030E040E050E40E94172A181664
:1041D0000CF0F6C60D5F1F4FF2E003341F0709F025
:1041E000BACF10913F0260913B0270913C028091E6
:1041F0003D0290913E020E941C2A4B0160913702C1
:10420000709138028091390290913A020E941C2AE2
:104210002B018091840690E045E0489FF001499F82
:10422000F00D1124EC57F94F2181328101962415AC
:104230003505D9F42381348182169306B1F4489F61
:10424000F001499FF00D1124EC57F94F10837DCEFA
:1042500080E090E0A0E0B0EC80933B0290933C02C1
:10426000A0933D02B0933E0203CF68E170E00E944C
:10427000762B8093840625E0289FF001299FF00D7E
:104280001124EC57F94F5282418294828382019625
:10429000289FF001299FF00D1124D6CF8D829E8298
:1042A000AF82B88649825A826B827C822091370223
:1042B000309138024091390250913A02C501B4015F
:1042C0000E94AA299F7720E030E040E050E40E945D
:1042D000172A18160CF44EC020913B0230913C0274
:1042E00040913D0250913E02C301B2010E94AA29B1
:1042F0009F7720E030E040E050E40E94172A181633
:10430000CCF1409060025090610260906202709027
:1043100063020E94F10B641575058605970508F484
:104320002AC181E080934B0260913B0270913C0274
:1043300080913D0290913E020E94232AD62E6091E8
:104340003702709138028091390290913A020E94AE
:10435000232AEDEFF6E090E080E02585621305C0AA
:104360002685D21202C01686158601967D96801784
:1043700091079CF369817A818B819C810E941C2A20
:104380004B018B016D817E818F8198850E941C2A53
:104390002B019B01E4E8F6E090E080E0418152814E
:1043A00001962417350709F06CC143815481041725
:1043B000150709F066C145E0489FF001499FF00DDF
:1043C0001124EC57F94FD080D70154968D919C91D0
:1043D00055972817390709F05BC156968D919C9126
:1043E0000817190709F054C140906002509061020B
:1043F00060906202709063020E94F10B6415750573
:104400008605970508F42BC249805A806B807C8012
:104410006D817E818F8198850E941C2A653371058C
:1044200051F4C301B2010E941C2A6C50710965321B
:10443000710508F014C2D70119960D911D912D91A7
:104440003C911C97D70118964C91BE016F5F7F4F2E
:10445000CE0105960E94B411DC2C69817A818B8192
:104460009C810E941C2A2B016D817E818F81988501
:104470000E941C2ACB01B2010E947911882309F401
:1044800002C2F701448055806680778020E030E0EA
:10449000A901C301B2010E94042B18160CF0F3C14C
:1044A00020E030E040E752E4C301B2010E94172A45
:1044B00087FFE9C1C301B2010E941C2A8B01D70109
:1044C0006D917D918D919C910E941C2AE4E8F6E00B
:1044D00090E080E02181328101966217730709F034
:1044E000CCC1238134810217130709F0C6C1B5E09E
:1044F000B89FF001B99FF00D1124EC57F94FD0800F
:10450000D11005C0F70180850E946015D82EF701F3
:1045100080819181A281B3818D839E83AF83B8878F
:1045200084819581A681B78189839A83AB83BC837B
:1045300000E010E020E83FE34D2DBE016F5F7F4FAC
:10454000CE0105960E94B41169817A818B819C818C
:104550000E941C2A2B016D817E818F8198850E948B
:104560001C2AD70155967C936E93549757965C926C
:104570004E92569772CFEAE1FCE0F093C401E093CB
:10458000C301F093C201E093C1010E948B0D81E051
:104590008093C00161E0C7010E94FD0B6CE771E0F0
:1045A00080E090E00E94390B8EE792E00E94810C3F
:1045B000C7010E947E150E94F10B2B013C018090E7
:1045C000600290906102A0906202B09063020E942B
:1045D000F10BAB01BC01D70153962C91E4EFF1E054
:1045E0002E9FC0012F9F900D1124092E000CAA0BA5
:1045F000BB0B880D991DAA1DBB1D840D951DA61D05
:10460000B71D2C013D01441A550A660A770AD701E5
:104610001F964D925D926D927C92529759968D9114
:104620009D910D90BC91A02D840D951DA61DB71DCB
:10463000F701818F928FA38FB48F609164026F5FB7
:1046400060936402F8EC6F9FB0011124072E000CF8
:10465000880B990B0E94F006809160029091610294
:10466000A0916202B091630284589E4FAF4FBF4F3A
:104670008093600290936102A0936202B093630200
:1046800043C535968831910509F088CED12C9CCE52
:10469000F7018085B401803819F0803409F063C0D7
:1046A000C2010E944011811107C0B401C2010E94E1
:1046B0000711882309F498CE0E94D92823E030E01E
:1046C00040E050E00E944729672B682B692B09F0D6
:1046D00054C0D70114964D905D906D907C901797C3
:1046E00020E030E040EA50E4C301B2010E94042B14
:1046F00018160CF079CE20E030E040E752E4C30118
:10470000B2010E94172A87FF6FCED11061C0C70186
:104710000E941615882309F455C0F701808580385A
:1047200011F0803491F5D70114966D917D918D91A2
:104730009C9117970E941C2A072E000C880B990B3E
:104740000E94542A20913B0230913C0240913D024C
:1047500050913E020E94042B38E0D32E1816C4F16B
:1047600092E0D92E35C0C2010E9422118111A4CF3E
:10477000B401C2010E945B119CCFD110AACFC70126
:104780000E9416158111A5CF2FCE60817181828183
:1047900093810E941C2A072E000C880B990B0E9403
:1047A000542A2091370230913802409139025091B9
:1047B0003A020E94172A20E4D22E87FD09C080E821
:1047C000D82E06C0D70118968C910E946015D82E5D
:1047D00069817A818B819C810E941C2A2B016D81C9
:1047E0007E818F8198850E941C2AF701758B648BCE
:1047F000578A468A00E010E020E83FE34D2DBE01D5
:104800006F5F7F4FCE0105960E94B41169817A8156
:104810008B819C810E941C2A2B016D817E818F815E
:1048200098850E941C2ACB01B2010E94791188232D
:1048300051F1F70180819181A281B3818D839E83A3
:10484000AF83B88784819581A681B78189839A8354
:10485000AB83BC8380850E946015D82ECBCF2AE91C
:1048600039E949E15FE3F7016185728583859485C4
:104870000E94092B8B019C01E5CD3596883191056D
:1048800009F028CE3FCEF701D0868D819E81AF8181
:10489000B88580839183A283B38349805A806B80DB
:1048A0007C8020E030E04CE752E4C301B2010E947A
:1048B000042B1816D4F1D70114964D925D926D9287
:1048C0007C92179720E030E040E450ECF7016481DF
:1048D0007581868197810E94172A87FF0BC000E0AF
:1048E00010E028E732E4D70114960D931D932D9321
:1048F0003C931797F701168615866481758186812A
:1049000097810E941C2A2B01D7016D917D918D9179
:104910009C910E941C2A9201AB01B701625F7F4FFC
:10492000C7010D960E94BD10EFC300E010E020E02B
:1049300030ECD70114960D931D932D933C9317974C
:10494000C1CF0E94501380917107882361F0EE243B
:10495000E39404E025E047E35CE06CE270E084E38C
:1049600090E00E941C0710E000E080910101801798
:10497000110659F054F060E0C1010E94FD0B0F5F79
:104980001F4F2DE1220E311CF0CF80914B02882366
:1049900009F44DC28CE39CE09093C4018093C30161
:1049A0009093C2018093C1010E948B0D81E080939E
:1049B000C00180914C02815080934C02109271078B
:1049C00090E080E00E94DB0E81E090E00E94DB0E30
:1049D00082E090E00E94DB0E80914C0281115EC269
:1049E00060E070E0CB010E94390B0E94AE148EE1B2
:1049F00090E090937F0680937E0683E290E0909310
:104A000081068093800685E891E00E94E8128EE797
:104A100092E00E94810C60ED77E080E090E00E94DF
:104A2000390B81E090E09093030180930201C090E4
:104A30004002D0904102E0904202F0904302C11443
:104A4000D104E104F10409F4F2C100E911E0512CB0
:104A5000C8010E943416B82EC80101960E9434166F
:104A60003FEFB31203C08F3F09F4C8C09B2D21E074
:104A7000250DB0E0A0E08C159D05AE05BF0508F042
:104A800006C20E944C0880E28093C7018093C8014F
:104A90008093C90110E070E1872E912CE8E56E2E1D
:104AA000712CF4E1CF2ED12CA8E42A2E312CB1E2C6
:104AB000AB2E00E2B02E6FE3462E8EE792E00E940E
:104AC000810C0E944C0890927F0680927E06109284
:104AD0008106109280068FE891E00E94E8127092A1
:104AE0007F0660927E061092810610928006609189
:104AF00040027091410280914202909143024AE04B
:104B00000E94A41288E390E090937F0680937E0633
:104B1000D0928106C09280068091C7010E944B10FE
:104B2000A0E4B0E0B0937F06A0937E06D092810609
:104B3000C09280068091C8010E944B1030927F067F
:104B400020927E06D0928106C09280068091C90193
:104B50000E944B1001E02BE130E04EE350E06BE1AE
:104B600070E088E390E00E943D0E2BE130E046E4E7
:104B700050E06BE170E080E490E00E943D0E2BE19C
:104B800030E04EE450E06BE170E088E490E00E9499
:104B90003D0E00E02CE130E048E550E06CE170E0D3
:104BA00088E390E00E943D0E812F012E000C990BAE
:104BB000079653E0880F991F5A95E1F7AC014A5FB9
:104BC0005F4F01E02CE130E06CE170E00E943D0EAF
:104BD00066E970E080E090E00E94390B0E94660C6C
:104BE00087FF0FC0115008F488C04AEF50E060E022
:104BF00070E086E194E00E94541007C090E080E0ED
:104C000036CF0E94660C80FDEDCF0E94660C86FFB9
:104C10000CC01F5F133008F072C04AEF50E060E034
:104C200070E086E194E00E9454100E94660C81FFBF
:104C300028C0812F012E000C990BFC01E953FE4F77
:104C40007F0100810F5F00834AEF50E060E070E079
:104C50008BE092E00E945410003311F4D701BC9213
:104C6000F7018081813211F401E40083D7018C9136
:104C70008B3511F4E0E3EC93D7018C91803409F487
:104C8000AC920E94660C83FF28C0812F012E000C7D
:104C9000990BFC01E953FE4F7F0100810150008315
:104CA0004AEF50E060E070E08BE092E00E94541028
:104CB000003211F4D7014C92F70180818F3211F448
:104CC0000AE50083D7018C918F3111F4EFE2EC9368
:104CD000D7018C91803409F4BC920E94660C84FF49
:104CE000ECCE123074F41F5F4AEF50E060E070E0E9
:104CF00086E194E00E945410DECE10E086CF12E0F0
:104D000094CF4AEF50E060E070E086E194E00E94CA
:104D10005410B5E05B9E8001112400571E4FC8015E
:104D20000E943416682E4801EFEF8E1A9E0AC401C5
:104D30000E943416FFEF6F1203C08F3F09F4A4C026
:104D4000762C682E580122E0A20EB11CC5010E94EB
:104D50003416282E680133E0C30ED11CC6010E9410
:104D60003416382E780144E0E40EF11CC7010E948D
:104D70003416482E609140027091410280914202A7
:104D800090914302672F782F892F9927C8010E949D
:104D9000321660914002C4010E9432166091C70130
:104DA000C5010E9432166091C801C6010E943216E8
:104DB0006091C901C7010E943216C301B0E0A0E0B2
:104DC0008093400290934102A0934202B093430229
:104DD0002092C7013092C8014092C90153940B5FE1
:104DE0001F4F8AE058129BCF10924002109241024E
:104DF000109242021092430280E28093C701809396
:104E0000C8018093C90185E090E0909303018093ED
:104E1000020144E150E060E070E08BE092E00E942B
:104E200054106CE271E080E090E00E94390B8EE754
:104E300092E00E94810C8091520290915302843F33
:104E4000910510F40C94271D8FE89CE09093C40109
:104E50008093C3019093C2018093C1010E948B0D86
:104E600081E08093C001809100018F5F80930001F9
:104E70006CEA7DE080E090E00E94390B0E944312D2
:104E80000E9436160C94271D712C612C5BCF0B5F92
:104E90001F4F522E9AE02913DBCDBBCF64EF71E098
:104EA00080E090E00E94390B0E945B081092600243
:104EB000109261021092620210926302E5E8F6E03D
:104EC00088E7DF011D928A95E9F710928406109217
:104ED0004B0280E090E0A0E0BFE380934702909314
:104EE0004802A0934902B0934A0280E090E0A4E512
:104EF000B2E48093370290933802A0933902B093C2
:104F00003A0280E090E0A0E3B2E480933B02909309
:104F10003C02A0933D02B0933E0210924E021092CA
:104F20004F0210925002109251021092640210929D
:104F3000440210923F021092650210926602109293
:104F400067021092680280E00E94D01570CF82E064
:104F50000C94751D0E940B0E0C94AB1D811108C0A2
:104F600082E090E090930301809302010C94271D4E
:104F7000813019F485E090E0F5CF8091C6011817D3
:104F800011F40C94271D0E94191344E150E060E0D5
:104F900070E08BE092E00E94541068EC70E080E0DA
:104FA00090E00E94390B0C94271D812C912C540108
:104FB0000C94F71D8EE792E00E94810C0C94271D43
:104FC000D8015F961C92109264020E94F10BAB0113
:104FD000BC01209100012150330B2E9DC0012F9D5B
:104FE000900D3E9D900D11248837BCEE9B0714F464
:104FF00088E79CEE8059984E092E000CAA0BBB0B3B
:10500000840F951FA61FB71F8093600290936102C3
:10501000A0936202B093630262E370E080E090E0EC
:105020000E94F006D7C8C0907207D0907307E09036
:105030007407F09075070E94F10BC616D706E806B4
:10504000F90610F4109271078DEFE82E86E0F82E25
:105050001C861B860091010110E02B853C852017E2
:1050600031070CF06ECCD7011896CC9018971F968C
:105070004D905D906D907C9052970E94F10B64155D
:1050800075058605970508F435CCF7018080918079
:10509000A280B380448055806680778020E030E035
:1050A00044E552E4C501B4010E94172A8111F6C8F3
:1050B00020E030E048E851E4C301B2010E94042B33
:1050C00018160CF0EBC820E030E04CE152E4C301CC
:1050D000B2010E94172A87FFE1C820E030E040E8D3
:1050E0005FE3C301B2010E94AA290E941C2A072E75
:1050F000000C880B990B0E94542AD70114966D93CB
:105100007D938D939C931797EB85FC853196FC8757
:10511000EB87FDE1EF0EF11C9DCF8F929F92AF9236
:10512000BF92CF92DF92EF92FF92CF93DF93EC0189
:10513000688179818A819B8161157105810591055D
:1051400021F464E279ED8BE597E02DE133EF41E066
:1051500050E00E94472949015A019B01AC01A7EA8E
:10516000B1E40E9466296B017C01ACEEB4EFA501AD
:1051700094010E947429C60ED71EE81EF91EF7FE80
:1051800006C081E0C81AD108E10880E8F80AC882A0
:10519000D982EA82FB82C701B6019F77DF91CF9166
:1051A000FF90EF90DF90CF90BF90AF909F908F9047
:1051B00008958F929F92AF92BF92CF92DF92EF921B
:1051C000FF926091100170911101809112019091F4
:1051D0001301611571058105910521F464E279EDF2
:1051E0008BE597E02DE133EF41E050E00E94472945
:1051F00049015A019B01AC01A7EAB1E40E9466296A
:105200006B017C01ACEEB4EFA50194010E947429FE
:10521000C60ED71EE81EF91EF7FE06C081E0C81AAA
:10522000D108E10880E8F80AC0921001D09211017B
:10523000E0921201F0921301C701B6019F77FF902F
:10524000EF90DF90CF90BF90AF909F908F90089598
:1052500060931001709311018093120190931301D8
:105260000895F999FECF92BD81BDF89A992780B52E
:105270000895262FF999FECF1FBA92BD81BD20BD9A
:105280000FB6F894FA9AF99A0FBE01960895052E72
:1052900097FB1EF400940E945E2957FD07D00E94E0
:1052A000792907FC03D04EF40C945E295095409563
:1052B000309521953F4F4F4F5F4F089590958095C2
:1052C000709561957F4F8F4F9F4F08950E949B2946
:1052D000A59F900DB49F900DA49F800D911D11244A
:1052E0000895B7FF0C9466290E946629821B930BD0
:1052F0000895A1E21A2EAA1BBB1BFD010DC0AA1F17
:10530000BB1FEE1FFF1FA217B307E407F50720F02E
:10531000A21BB30BE40BF50B661F771F881F991FA9
:105320001A9469F760957095809590959B01AC01F2
:10533000BD01CF010895A29FB001B39FC001A39FFB
:10534000700D811D1124911DB29F700D811D1124BE
:10535000911D08955058BB27AA270E94C2290C947A
:10536000CA2A0E94BC2A38F00E94C32A20F039F4CD
:105370009F3F19F426F40C94B92A0EF4E095E7FB4C
:105380000C94B32AE92F0E94DB2A58F3BA1762075C
:1053900073078407950720F079F4A6F50C94FD2A8D
:1053A0000EF4E0950B2EBA2FA02D0B01B901900140
:1053B0000C01CA01A0011124FF27591B99F0593F84
:1053C00050F4503E68F11A16F040A22F232F342FCC
:1053D0004427585FF3CF469537952795A795F0401A
:1053E0005395C9F77EF41F16BA0B620B730B840B2F
:1053F000BAF09150A1F0FF0FBB1F661F771F881FE7
:10540000C2F70EC0BA0F621F731F841F48F487953E
:1054100077956795B795F7959E3F08F0B0CF939530
:10542000880F08F09927EE0F9795879508950E94A9
:105430008F2A08F481E008950E94232A6894B1110C
:105440000C94FE2A08950E94E32A88F09F5798F052
:10545000B92F9927B751B0F0E1F0660F771F881F79
:10546000991F1AF0BA95C9F714C0B13091F00E9493
:10547000FD2AB1E008950C94FD2A672F782F882724
:10548000B85F39F0B93FCCF3869577956795B395BA
:10549000D9F73EF490958095709561957F4F8F4F29
:1054A0009F4F0895E89409C097FB3EF4909580952E
:1054B000709561957F4F8F4F9F4F9923A9F0F92FDA
:1054C00096E9BB279395F695879577956795B79558
:1054D000F111F8CFFAF4BB0F11F460FF1BC06F5F3E
:1054E0007F4F8F4F9F4F16C0882311F096E911C050
:1054F000772321F09EE8872F762F05C0662371F071
:1055000096E8862F70E060E02AF09A95660F771F84
:10551000881FDAF7880F9695879597F90895990F60
:105520000008550FAA0BE0E8FEEF16161706E8076D
:10553000F907C0F012161306E407F50798F0621B8E
:10554000730B840B950B39F40A2661F0232B242B63
:10555000252B21F408950A2609F4A140A6958FEF82
:10556000811D811D089597F99F6780E870E060E0D4
:1055700008959FEF80EC089500240A9416161706EC
:1055800018060906089500240A9412161306140634
:1055900005060895092E0394000C11F4882352F097
:1055A000BB0F40F4BF2B11F460FF04C06F5F7F4F4F
:1055B0008F4F9F4F089557FD9058440F551F59F036
:1055C0005F3F71F04795880F97FB991F61F09F3FF0
:1055D00079F087950895121613061406551FF2CF19
:1055E0004695F1DF08C0161617061806991FF1CF69
:1055F00086957105610508940895E894BB27662790
:105600007727CB0197F908950E948F2A08F48FEF2E
:1056100008950E941C2B0C94CA2A0E94BC2A38F0C0
:105620000E94C32A20F0952311F00C94B32A0C9405
:10563000B92A11240C94FE2A0E94DB2A70F3959F4C
:10564000C1F3950F50E0551F629FF001729FBB2779
:10565000F00DB11D639FAA27F00DB11DAA1F649F15
:105660006627B00DA11D661F829F2227B00DA11DC8
:10567000621F739FB00DA11D621F839FA00D611D4E
:10568000221F749F3327A00D611D231F849F600D6F
:10569000211D822F762F6A2F11249F5750409AF098
:1056A000F1F088234AF0EE0FFF1FBB1F661F771F24
:1056B000881F91505040A9F79E3F510580F00C94EF
:1056C000B32A0C94FE2A5F3FE4F3983ED4F3869508
:1056D00077956795B795F795E7959F5FC1F7FE2B8F
:1056E000880F911D9695879597F9089597FB072E3A
:1056F00016F4009407D077FD09D00E94902B07FC88
:1057000005D03EF4909581959F4F089570956195D1
:105710007F4F0895EE0FFF1F0590F491E02D09943F
:10572000AA1BBB1B51E107C0AA1FBB1FA617B707C7
:1057300010F0A61BB70B881F991F5A95A9F78095E3
:105740009095BC01CD01089581E090E0F8940C940F
:06575000A92BF894FFCF25
:1057560001040100FFFFFFFF00E100000000000060
:105766000100000000C1808100000000000000F47C
:10577600086C0B15090A095B0919093709000000AD
:1057860000320F3A0A511050105B2000205D004194
:105796007264752D6D616E000D0A00506C617900A2
:1057A600486967682053636F72657300536F756E3F
:1057B600642069733A204F4E00536F756E642069FA
:1057C600733A204F46460053636F72653A004C6544
:1057D60076656C200047414D45204F56455200489E
:1057E6004947482053434F524500484947482053AC
:0657F600434F5245530031
:00000001FF
