:100000000C941B040C9443040C9443040C9443047C
:100010000C9443040C9443040C9443040C94430444
:100020000C9443040C9443040C94620C0C94D10C77
:100030000C9443040C9443040C9443040C94430424
:100040000C9443040C9414100C9443040C94430437
:100050000C9443040C9443040C9443040C94030F39
:100060000C9443040C9443040C9443040C944304F4
:100070000C9443040C9443040C9443040C944304E4
:100080000C944D0F0C9443040C9443040C944304BF
:100090000C9443040C9443040C9443040C944304C4
:1000A0000C9443040C9443040C944304000000009B
:1000B000003E5B4F5B3E3E6B4F6B3E1C3E7C3E1CEE
:1000C000183C7E3C181C577D571C1C5E7F5E1C0034
:1000D000183C1800FFE7C3E7FF0018241800FFE7EB
:1000E000DBE7FF30483A060E2629792926407F05AE
:1000F0000507407F05253F5A3CE73C5A7F3E1C1CC4
:1001000008081C1C3E7F14227F22145F5F005F5F83
:1001100006097F017F006689956A6060606060946F
:10012000A2FFA29408047E040810207E2010080874
:100130002A1C08081C2A08081E101010100C1E0C7F
:100140001E0C30383E3830060E3E0E060000000011
:100150000000005F00000007000700147F147F14F8
:10016000242A7F2A1223130864623649562050003D
:1001700008070300001C2241000041221C002A1C29
:100180007F1C2A08083E0808008070300008080814
:100190000808000060600020100804023E51494534
:1001A0003E00427F400072494949462141494D3352
:1001B0001814127F1027454545393C4A49493141B9
:1001C000211109073649494936464949291E000087
:1001D00014000000403400000008142241141414DC
:1001E0001414004122140802015909063E415D59C8
:1001F0004E7C1211127C7F494949363E41414122D1
:100200007F4141413E7F494949417F090909013EFA
:10021000414151737F0808087F00417F4100204021
:10022000413F017F081422417F404040407F021C33
:10023000027F7F0408107F3E4141413E7F0909094A
:10024000063E4151215E7F09192946264949493216
:1002500003017F01033F4040403F1F2040201F3FDC
:100260004038403F63140814630304780403615961
:10027000494D43007F4141410204081020004141A3
:10028000417F04020102044040404040000307084F
:100290000020545478407F2844443838444444284B
:1002A000384444287F385454541800087E090218F2
:1002B000A4A49C787F0804047800447D400020407A
:1002C000403D007F1028440000417F40007C0478BE
:1002D00004787C080404783844444438FC18242406
:1002E0001818242418FC7C08040408485454542486
:1002F00004043F44243C4040207C1C2040201C3C03
:100300004030403C44281028444C9090907C4464F9
:10031000544C44000836410000007700000041368C
:10032000080002010204023C2623263C1EA1A16112
:10033000123A4040207A3854545559215555794144
:100340002154547841215554784020545579400C1B
:100350001E527212395555555939545454593955FC
:100360005454580000457C410002457D420001453F
:100370007C40F0292429F0F0282528F07C545545AC
:10038000002054547C547C0A097F4932494949323F
:100390003248484832324A4848303A4141217A3A54
:1003A00042402078009DA0A07D39444444393D401E
:1003B00040403D3C24FF2424487E4943662B2FFCCB
:1003C0002F2BFF0929F620C0887E09032054547979
:1003D000410000447D413048484A32384040227A4A
:1003E000007A0A0A727D0D19317D2629292F2826C7
:1003F0002929292630484D402038080808080808CF
:100400000808382F10C8ACBA2F102834FA00007B27
:10041000000008142A142222142A1408950022002D
:1004200095AA005500AAAA55AA55AA000000FF00E7
:10043000101010FF00141414FF001010FF00FF1024
:1004400010F010F0141414FC001414F700FF000056
:10045000FF00FF1414F404FC141417101F10101FD5
:10046000101F1414141F00101010F0000000001FC3
:10047000101010101F10101010F010000000FF10CE
:100480001010101010101010FF10000000FF1400CA
:1004900000FF00FF00001F10170000FC04F41414FC
:1004A0001710171414F404F40000FF00F7141414C8
:1004B00014141414F700F7141414171410101F1048
:1004C0001F141414F4141010F010F000001F101F6B
:1004D0000000001F14000000FC140000F010F010D9
:1004E00010FF10FF141414FF141010101F00000050
:1004F00000F010FFFFFFFFFFF0F0F0F0F0FFFFFF54
:100500000000000000FFFF0F0F0F0F0F38444438AA
:10051000447C2A2A3E147E02020606027E027E02E5
:1005200063554941633844443C04407E201E200604
:10053000027E020299A5E7A5991C2A492A1C4C7241
:1005400001724C304A4D4D303048784830BC625AC8
:10055000463D3E494949007E0101017E2A2A2A2A58
:100560002A44445F444440514A444040444A514034
:100570000000FF0103E080FF000008086B6B0836F5
:1005800012362436060F090F060000181800000066
:100590001010003040FF0101001F01011E00191D55
:1005A0001712003C3C3C3C00000000000601150115
:1005B000260137014A015D01720188019F01B801DE
:1005C000D201EE010B022A024B026E029302BA0222
:1005D000E40210033F037003A403DC031704550473
:1005E0009704DD0427057505C80520067D06E0068D
:1005F0004907B8072D08A9082D09B9094D0AEA0AC3
:10060000900B400CFA0CC00D910E6F0F5A10531145
:100610005B1272139A14D41520178018F519801BD9
:10062000231DDE1EB420A622B524E4263429A72BE0
:10063000402E0031EA330037453ABC3D68414C4515
:100640006B49C84D68524F57805C006210111213FD
:10065000151617181A1C1D1F21232527292C2E318A
:1006600034373A3E4145494E52575C62686E757B5D
:10067000838B939CA5AFB9C4D0DCE9F700000002DE
:1006800000090F0000030401000C0000000000003E
:100690000000000000000000000000F0F89C8E87C1
:1006A00083878E9CF8F00000FEFF0303030303071B
:1006B0000EFCF80000FEFF0303030303070EFCF823
:1006C0000000FFFF00000000000000FFFF0000FE30
:1006D000FF8383838383C7EE7C380000F8FC0E071A
:1006E000030303070EFCF800003F7FE0C08080C0DA
:1006F000E07F3FFFFF01010101010101FFFF000059
:10070000FFFF0C0C0C0C1C3E77E3C100007FFFC008
:10071000C0C0C0C0E0703F1F00001F3F70E0C0C0FD
:10072000C0E0703F1F00007FFFC1C1C1C1C1E377BE
:100730003E1C00001F3F70E0C0C0C0E0703F1F00C3
:100740000000000001FFFF01000000000000002485
:100750000027002A002D003000D5F08D14A1C8819B
:10076000CFD9F1AF20000B020A02120204020802E4
:10077000010215011701160100080B000202020018
:100780000009040000010202000005240010010518
:100790002401010104240206052406000107058145
:1007A0000310004009040100020A000000070502CE
:1007B0000240000007058302400000040309041200
:1007C000010002EF020140412336800001010203D3
:1007D0000141726475696E6F204C4C430041726434
:1007E00075626F79000408020110408040102040BB
:1007F0008040800802040180402010020110801017
:100800002040402000000000250028002B002E0082
:100810003100040404040403040502020202040378
:10082000020202020606060606060404020202048A
:10083000040301007F1011241FBECFEFDAE0DEBFFA
:10084000CDBF11E0A0E0B1E0EAE1FCE302C0059019
:100850000D92A63AB107D9F726E0A6EAB1E001C0A9
:100860001D92AA3AB207E1F714E0CBE1D4E004C04C
:100870002197FE010E94141BCA31D107C9F70E94BB
:10088000B2100C940B1E0C940000CF92DF92EF92EA
:10089000FF92CF93DF93EC0181E080933F02E1E888
:1008A000F0E08081887F81608083DE01AA0FBB1F1A
:1008B0009A01AB010E94BC1A28EE33E040E050E000
:1008C0000E94CF1A69017A019E0150E040E060E089
:1008D00072E18AE790E00E949D1A21503109410996
:1008E00051093093890020938800C0923B02D09236
:1008F0003C02E0923D02F0923E02EFE6F0E08081A1
:1009000082608083DF91CF91FF90EF90DF90CF9056
:10091000089584EA92E020E0B22FB111BFEFFC010C
:100920000024B193B193B193B1930394D1F7089597
:10093000FC0180913302882311F13FB7F89482E0E3
:100940008093E9002091F200822F90E0181619069A
:1009500014F481E090E0882339F0289844E640932D
:1009600032024091F1004083222339F02091F200BD
:10097000211103C02BE62093E8003FBF08958FEFBD
:100980009FEF08952FB7F89483E08093E90090914A
:10099000E800892F807295FF04C09091F20080E4F6
:1009A000891B2FBF089580912A0281110DC082E01A
:1009B0008093260284E080932702109229021092ED
:1009C000280281E080932A0286E292E00895CF9384
:1009D000DF931F92CDB7DEB76983DC01ED91FC9107
:1009E0000280F381E02D41E050E0BE016F5F7F4F58
:1009F00009950F90DF91CF91089583E08093E900EE
:100A00008091F200882319F08AE38093E80008952A
:100A10000E94C20490E00895CF93DF931F92CDB758
:100A2000DEB7FC018485958597FD08C02FEF3FEF69
:100A3000358724870F90DF91CF910895CE010196DD
:100A40000E949804019719F4898190E0F3CF8FEF09
:100A50009FEFF0CF0F931F93CF93DF931F92CDB7EC
:100A6000DEB78C01FC018485958597FF0BC0CE0114
:100A700001960E949804019771F4898190E0F80131
:100A800095878487F801848595850F90DF91CF91B4
:100A90001F910F9108958FEF9FEFF1CFFC01848597
:100AA000958597FD0BC09FB7F89482E08093E9008D
:100AB0008091F2009FBF90E0019608959FB7F8944F
:100AC00082E08093E9008091F2009FBF90E008955A
:100AD000409120025091210220911E0230911F026C
:100AE00042175307B4F49091E8009570E1F39091A8
:100AF000E80092FD19C08093F1008091200290914E
:100B0000210201968F739927892B19F48EEF809318
:100B1000E800809120029091210201969093210299
:100B20008093200281E0089580E00895EF92FF9283
:100B30000F931F93CF93DF93F82E192FE62E042FD8
:100B400081E0860F880F0E94680583E00E94680597
:100B5000CF2DD12FEC0EFD2EF11CCE15DF05B9F0F7
:100B600007FF13C0FE0184910E946805182F80E0E2
:100B70000E946805812321968111EFCFDF91CF91EB
:100B80001F910F91FF90EF9008958881EDCF81E044
:100B9000F5CFDF92EF92FF920F931F93CF93DF93E6
:100BA000D82E8A01EB017B01E40EF51ECE15DF0580
:100BB00059F0D7FE12C0FE0184910E94680521966B
:100BC0008111F4CF0FEF1FEFC801DF91CF911F917B
:100BD0000F91FF90EF90DF9008958881EECF0F93F3
:100BE0001F93CF93DF931F92CDB7DEB782E0898347
:100BF00042E450E069E777E080E80E94C9050E947E
:100C0000D304DC0112960D911C910115110589F098
:100C1000D801ED91FC910280F381E02DBE016F5F60
:100C20007F4FC801099597FD04C0F8010085118523
:100C3000ECCF89810F90DF91CF911F910F91089593
:100C4000615030F02091F100FC0120830196F8CF33
:100C5000289884E6809332020895AF92BF92CF9293
:100C6000DF92EF92FF920F931F93CF93DF936C016C
:100C70007B018B01040F151FEB015E01AE18BF084D
:100C8000C017D10759F06991D601ED91FC910190FF
:100C9000F081E02DC6010995892B79F7C501DF9117
:100CA000CF911F910F91FF90EF90DF90CF90BF9069
:100CB000AF900895282F30E0F901E458F94F94914E
:100CC000F901EB51F84F84912E5E374FF9012491D1
:100CD000222309F430C09923E9F091509F30D0F4D9
:100CE000E92FF0E0EA58F94F0C94141BA406A8066B
:100CF00085069C06A0068A068A068A06AB06B10609
:100D0000B506B906BF068A06C306909180009F7794
:100D100090938000E22FF0E0EE0FFF1FEC5FF74FA3
:100D2000A591B4919FB7F894EC91611132C0809570
:100D30008E238C939FBF0895909180009F7DE8CF74
:100D400090918000977FE4CF94B59F7794BDE2CFD8
:100D500094B59F7DFBCF909190009F7790939000EA
:100D6000D9CF909190009F7DF9CF90919000977F7F
:100D7000F5CF9091C0009F779093C000CBCF90911A
:100D8000C0009F7DF9CF9091C200977F9093C200E1
:100D9000C1CF8E2BCECFCF93DF9390E0FC01EB51F0
:100DA000F84F24918E5E974FFC0184918823C9F0FF
:100DB00090E0880F991FFC01E55BF84FA591B49175
:100DC000FC01EC5FF74FC591D49161110DC09FB745
:100DD000F8948C91209582238C93888128232883F2
:100DE0009FBFDF91CF910895623051F49FB7F8947F
:100DF0003C91822F809583238C93E8812E2BEFCF1B
:100E00008FB7F894EC912E2B2C938FBFEACF3FB77E
:100E1000F8948091B0019091B101A091B201B0918C
:100E2000B30126B5A89B05C02F3F19F00196A11D5F
:100E3000B11D3FBFBA2FA92F982F8827BC01CD0124
:100E4000620F711D811D911D42E0660F771F881F83
:100E5000991F4A95D1F708958F929F92AF92BF92B2
:100E6000CF92DF92EF92FF924B015C010E94070745
:100E70006B017C010E9407076C197D098E099F098F
:100E8000683E734081059105A8F321E0821A91081C
:100E9000A108B10888EEC80E83E0D81EE11CF11C41
:100EA00081149104A104B10429F7FF90EF90DF9021
:100EB000CF90BF90AF909F908F9008958F929F9208
:100EC000AF92BF92CF92DF92EF92FF920F931F9358
:100ED000CF93DF936C017B018A01809111018823FC
:100EE00009F45CC080913302882309F457C08091D3
:100EF000250280FF05C08091E00082608093E000C1
:100F0000E801B12C8AEFA82E93E0892E2AE3922ED5
:100F1000209711F4BB20D9F10E94C20481110AC0AC
:100F2000AA94AA20D9F161E070E080E090E00E94EC
:100F30002C07EECF8C171D0611F00CF08C2F9FB7ED
:100F4000F8948092E9002091E80025FD02C09FBF3F
:100F5000DFCF282F30E0C21BD30BF701815020F0E8
:100F600041914093F100FACFE20EF31EBB2021F035
:100F70009092E800B12CEBCF8091E80085FDE7CF9F
:100F80009092E800BB24B394209709F3F3CF5D98C7
:100F900084E680932402101611063CF081E090E074
:100FA000F6019383828310E000E0C801DF91CF91C6
:100FB0001F910F91FF90EF90DF90CF90BF90AF9077
:100FC0009F908F90089543B18FB129B190E08095A3
:100FD000909534E0959587953A95E1F7887030E0E3
:100FE0002095309553E0359527955A95E1F7237074
:100FF000822B942F9095907D892B0895FC0121914F
:101000002EBD9C5F21910DB407FEFDCF2EBDE817CC
:10101000F907C1F70DB407FEFDCF0895CF92DF9217
:10102000EF92FF920F931F93CF93E82FF0E0EF5CC6
:10103000F74FC491E62FF0E0603398F5E45BF94F89
:10104000E4910E2F10E0F12CE12C60E074E284EFCB
:1010500090E0A70198010E949D1A21503109410991
:10106000510991E02115310581E0480751056CF0E7
:1010700060E970ED83E090E0A70198010E949D1A5D
:10108000215031094109510993E0C13089F0C33041
:10109000F9F0CF911F910F91FF90EF90DF90CF90DB
:1010A0000895EE0FFF1FE45BFA4F05911491CBCF2B
:1010B00080918100887F892B809381003093890003
:1010C0002093880080916F00826080936F00E1CF51
:1010D00080919100887F892B8093910030939900B3
:1010E000209398001093AE010093AD0181E08093AE
:1010F000AC0180917100826080937100CACFE82FAB
:10110000F0E0EF5CF74FE491E13019F0E33089F063
:10111000089580916F008D7F80936F0080913702DA
:10112000E0913802F0913902908180958923808383
:1011300008951092AC0180913402E0913502F09153
:101140003602F2CFCF9380913A02823081F0E82FBD
:10115000F0E0EF5CF74FC4918F5F80933A0261E05B
:1011600089E00E94CB06C13021F0C33021F1CF913C
:101170000895109280001092810080918100886013
:101180008093810080918100816080938100EBE1F8
:10119000F8E0E491F0E0EE0FFF1FEC5FF74F859170
:1011A00094919093390280933802EEEEF7E0E49147
:1011B000E0933702DCCF1092900010929100809162
:1011C000910088608093910080919100816080936C
:1011D0009100EBE1F8E0E491F0E0EE0FFF1FEC5F2F
:1011E000F74F859194919093360280933502EEEEFD
:1011F000F7E0E491E093340280913A02882321F0F1
:101200006CE380E00E940E0880E0CF910C947F0890
:1012100060387105E8F440345105D0F4342F369528
:1012200036953695A0E83A9FF0011124E60FF71F96
:10123000E80FF91F3489CA018770992741E050E00F
:1012400001C0440F8A95EAF7222319F0432B448BFF
:10125000089540954323FBCF5F926F927F928F92C8
:101260009F92AF92BF92CF92DF92EF92FF920F9335
:101270001F93CF93DF937C01EB01D22E502E3C01C4
:10128000640E711C8C01530181E8681671041CF016
:1012900090E8A92EB12C0A151B0554F4252DAE019A
:1012A000B80180E992E00E9408090F5F1F4FEBCF61
:1012B0008E010D0D111D480181E0881A910867010A
:1012C000CA14DB045CF4252DA401B60180E992E088
:1012D0000E9408098FEFC81AD80AF2CF6E01580190
:1012E000013411051CF080E4A82EB12CCA14DB04D3
:1012F0005CF4252DA601B70180E992E00E9408095F
:101300008FEFC81AD80AEBCF81E0681A7108CA15A6
:10131000DB054CF4252DAE01B30180E992E00E947B
:1013200008092196F4CFDF91CF911F910F91FF9083
:10133000EF90DF90CF90BF90AF909F908F907F9075
:101340006F905F9008952F923F924F925F926F92AD
:101350007F928F929F92AF92BF92CF92DF92EF9245
:10136000FF920F931F93CF93DF9300D01F92CDB7BF
:10137000DEB79B838A837B016A0109838901061B8F
:10138000170B17FF03C011950195110956018A81AA
:101390009B81A81AB90AB7FE03C0B194A194B10801
:1013A000A016B1065CF49C2D8D2D6901292F382FD4
:1013B0009A818B81FB82EA82E92EF82E8A819B81B9
:1013C000C816D9065CF49E2D8F2D7901292F382F50
:1013D0009A818B81DB82CA82C92ED82E16018A811E
:1013E0009B81281A390A29014E185F0857FE03C04D
:1013F000519441945108310137FE03C09FEF691A9F
:10140000790A759467948FEFE216F3060CF481E085
:10141000882E880F99088A819B81C816D906DCF02E
:101420002981AC01B701A016B1061CF0A7016A81A1
:101430007B8180E992E00E9408096418750877FEB4
:1014400004C0E80CF91C620C731C8A819B81019614
:101450009B838A83E0CF0F900F900F90DF91CF9105
:101460001F910F91FF90EF90DF90CF90BF90AF90C2
:101470009F908F907F906F905F904F903F902F90B4
:1014800008952F923F924F925F926F927F928F9228
:101490009F92AF92BF92CF92DF92EF92FF920F9303
:1014A0001F93CF93DF93CDB7DEB72D970FB6F89488
:1014B000DEBF0FBECDBF6A3069F5FC01EA5EFB4FAF
:1014C000DC01A85EBB4F2C9148E0249F90011124C1
:1014D00040815181240F351F3183208314971D9241
:1014E0001C922D960FB6F894DEBF0FBECDBFDF91D4
:1014F000CF911F910F91FF90EF90DF90CF90BF9011
:10150000AF909F908F907F906F905F904F903F90A3
:101510002F9008956D3029F39D878C878C5E9B4FAB
:101520009A838983FC01808091802C853D85285E8B
:101530003B4F3C832B8330E8831691040CF071C041
:10154000EC85FD85EA5EFB4F6080718040E46416A7
:1015500071040CF066C0AB81BC814C9045E09401F5
:10156000449E200D311D1124121613060CF059C093
:10157000242C312C910153E0220F331F5A95E1F7AF
:10158000260D371D121613060CF04BC0649FB001D8
:10159000112410E000E0FB01E455FF4FFB87EA87D0
:1015A000E0E0053029F0EA85FB85E00FF11FE491CA
:1015B000530198E0592E2E2F30E03E832D83E170A9
:1015C000EF83F12CE12CE414D8F4C4018E0D9F1D9F
:1015D00099878887D12CC12CC41470F4A6014A0DB8
:1015E0005B1D2F81688579858C859D850E94080902
:1015F0009FEFC91AD90AF0CFAFEFEA1AFA0AE3CF80
:10160000ED81FE81F595E7955A94A20CB31C51101B
:10161000D2CF0F5F1F4F820C931C0630110509F0CB
:10162000BFCFEB81FC812081422F50E0A981BA819C
:101630008D919C91B6E02B9F800D911D1124E98125
:10164000FA8191838083EC85FD85E75EFB4F2081E5
:10165000222309F446CF6AEF64039001659F300DA1
:10166000112420583F4F281739070CF03ACFAC858A
:10167000BD85ED91FC9111970190F081E02D6AE01C
:10168000CD012D960FB6F894DEBF0FBECDBFDF9112
:10169000CF911F910F91FF90EF90DF90CF90BF906F
:1016A000AF909F908F907F906F905F904F903F9002
:1016B0002F900994089590E080E008950F931F9370
:1016C000CF93DF938C01D0E0C0E06FE070E080E06A
:1016D00090E00E942C070E94E30784FF0DC08091D8
:1016E0001B02882381F091E090931B0221960C1736
:1016F0001D0759F780E00AC00E94E307982F9170F8
:1017000080FDEDCFF1CF81E08093BE01DF91CF91DD
:101710001F910F910895FC0101900020E9F7319786
:10172000AF01481B590BBC0180E992E00C942D06D7
:10173000809105011F928F938BE391E09F938F938C
:1017400087E092E09F938F930E94331B1092A5062F
:101750001092A4068AE590E09093A7068093A606CF
:101760000F900F900F900F900F900F9087E092E0E6
:101770000C948B0BAF92BF92CF92DF92EF92FF92BD
:101780000F93CF93DF938091030200E021E04BE0C1
:101790006FE370E090E00E942C09C0910102D091AB
:1017A0000202E090FF01F090000220E0AE01B701DC
:1017B00080E992E00E94080967018FEFC81AD80AF1
:1017C00020E0AE01B60180E992E00E94080921966E
:1017D00020E0AE01B70180E992E00E94080920E014
:1017E000AE01B60180E992E00E94080986E3809389
:1017F00003028CE390E09093020280930102109226
:101800001A02109219021092FD0185ECC82E81E097
:10181000D82EC2E0D0E0B12CA12CF12CE12CF601A5
:10182000EE0DFF1D108201E024E048E0BE01C5017D
:101830000E942C098FEFE81AF80A8AE0A80EB11C62
:101840008DE0E816F10459F78DE0C80ED11C2696FC
:10185000CA31D10501F70E94980B809118028F932D
:10186000809117028F9384E491E09F938F9387E098
:1018700092E09F938F930E94331B80E590E09093BA
:10188000A5068093A4068AE590E09093A70680932E
:10189000A6060F900F900F900F900F900F9087E07B
:1018A00092E0DF91CF910F91FF90EF90DF90CF907A
:1018B000BF90AF900C948B0B0E942E1B0C94871A38
:1018C0000C948F1A1F920F920FB60F9211248F93C0
:1018D0009F938091E1009091E100937F9093E100CC
:1018E00083FF0FC01092E90091E09093EB001092FB
:1018F000EC0092E39093ED001092330298E0909305
:10190000F00082FF22C093E09093E9009091F200F2
:10191000992319F09AE39093E80090912402992377
:1019200041F090912402915090932402911101C0B2
:101930005D9A90913202992341F090913202915038
:1019400090933202911101C0289A84FF18C08091AF
:10195000E2008E7E81608093E2008091E1008F7EC4
:101960008093E100809125028E7E80618093250224
:101970009F918F910F900FBE0F901F90189580FF31
:10198000F7CF8091E2008E7E80618093E2008091AB
:10199000E1008E7E8093E100809125028E7E816041
:1019A000E5CF1F920F920FB60F921124CF92DF92C4
:1019B000EF92FF920F931F932F933F934F935F9359
:1019C0006F937F938F939F93AF93BF93EF93FF9307
:1019D000CF93DF93CDB7DEB76C97DEBFCDBF10924C
:1019E000E9008091E80083FF25C068E0CE014596BC
:1019F0000E94200682EF8093E8008D8987FF39C01E
:101A00009091E80090FFFCCF982F907609F034C1B8
:101A10009E894F89588D2F89F88C911131C080385B
:101A200061F5809123028093F1001092F1008EEF16
:101A30008093E8006C960FB6F894DEBF0FBECDBF62
:101A4000DF91CF91FF91EF91BF91AF919F918F91D6
:101A50007F916F915F914F913F912F911F910F91C6
:101A6000FF90EF90DF90CF900F900FBE0F901F90E0
:101A700018959EEF9093E800C7CF1092F100D5CF54
:101A8000913059F48111D3CF4130510581F68091C5
:101A900023028D7F80932302CACF933049F48111B2
:101AA000C6CF4130510519F6809123028260F2CFF2
:101AB000953041F48091E80080FFFCCF20682093AE
:101AC000E300B5CF963009F0A9C00B8D1C8D22E044
:101AD0001092E9001092210210922002F2122EC000
:101AE00010921F0210921E020E94EF051F8299E0C1
:101AF0009983FA8291E09E8390EA98879AEF99877A
:101B00002091200230912102275F3F4F3C832B839D
:101B10008D831092E90010922102109220021093FE
:101B20001F0200931E0249E050E0BE016F5F7F4F2D
:101B300080E00E94C9050E94EF0579CF10931F0233
:101B400000931E020E94D304DC0112960D911C9199
:101B50000115110509F451C1D801ED91FC910480E2
:101B6000F581E02DBE016B5E7F4FC801099500979E
:101B700009F03EC1F80100851185EACFF3E0FF12BC
:101B80000EC08F89882309F440C0823061F440E898
:101B900067E08DED97E00E949605811148CF81E2C4
:101BA0008093EB0047CF813029F440E86BE081ED72
:101BB00097E0F1CF833099F70E94D304DC011296AD
:101BC000ED90FC908E010F5F1F4F6801E114F1044E
:101BD00079F0D701ED91FC910680F781E02DB801F5
:101BE000C7010995080F111DF701E084F184EECFBC
:101BF000D8011C92F60101900020E9F73197BF014E
:101C00006C197D0940E0C601C6CF6BEB77E0FB01A4
:101C1000449150E080E80E94C90509CF973009F44B
:101C2000BECF983021F481E08093F10000CF99304D
:101C300009F0FDCE837009F0B2CFE7E1F1E081E079
:101C400031E096E32191222371F08093E9003093F3
:101C5000EB00DF0111972C912093EC009093ED00A5
:101C60008F5F873079F78EE78093EA001092EA0061
:101C70008F8980933302DBCE8B8D9C8D1092E9008F
:101C8000109221021092200290931F0280931E0254
:101C9000898D811192C08E899D89913A49F4813252
:101CA00009F07DCF47E050E06AE071E080E0B3CF1B
:101CB000913209F074CF833269F48F89988DB0E046
:101CC000A0E08093060190930701A0930801B093D0
:101CD0000901ADCE803269F48091E80082FFFCCF2B
:101CE00067E08AE091E00E9420068BEF8093E80095
:101CF0009ECE823209F09BCE8F8980931101EEEF48
:101D0000FFE7859194918B3F9C4D51F1E0E0F8E025
:101D100080910A0190910B01A0910C01B0910D01ED
:101D2000803B9440A105B105F1F48091110180FD43
:101D30001AC0EE3F8AE0F80789F587E797E79183B5
:101D40008083809160008093220288E19BE00FB63F
:101D5000F894A895809360000FBE9093600067CEC2
:101D6000EEEFFAE0D5CF808191818737974709F070
:101D70005ECEA8958091600088618093600080911C
:101D8000220280936000EE3F2AE0F20789F0809102
:101D9000FE0A9091FF0A9183808349CE80819181D0
:101DA0008737980751F29093FF0A8093FE0AC5CFB8
:101DB0001092FF0A1092FE0A3ACE0E94D304DC0170
:101DC00012960D911C910115110509F4E8CED80168
:101DD000ED91FC910190F081E02DBE016B5E7F4F93
:101DE000C8010995811123CEF80100851185EBCF3B
:101DF000181619060CF41BCED2CEF1E0FF12BECE9F
:101E00006FEB77E004CF1F920F920FB60F92112461
:101E10002F933F938F939F93AF93BF938091BA017A
:101E20009091BB01A091BC01B091BD013091AF0177
:101E300023E0230F2D3758F50196A11DB11D2093E6
:101E4000AF018093BA019093BB01A093BC01B09302
:101E5000BD018091B0019091B101A091B201B0910A
:101E6000B3010196A11DB11D8093B0019093B10102
:101E7000A093B201B093B301BF91AF919F918F91A5
:101E80003F912F910F900FBE0F901F90189526E84D
:101E9000230F0296A11DB11DD2CF1F920F920FB634
:101EA0000F9211242F933F934F935F936F937F93E0
:101EB0008F939F93AF93BF93EF93FF938091AC0168
:101EC000882349F080913402E0913502F091360286
:101ED0009081892780838091B401882309F456C0BA
:101EE0008091A8019091A901A091AA01B091AB01A4
:101EF000892B8A2B8B2B09F449C08091A8019091E2
:101F0000A901A091AA01B091AB010197A109B10962
:101F10008093A8019093A901A093AA01B093AB016B
:101F2000892B8A2B8B2B91F5E091A601F091A701CB
:101F3000BF016F5F7F4F7093A7016093A60124914B
:101F4000922F907F822F8F70903819F40E947F0813
:101F5000EBCF903981F43296F093A701E093A6017C
:101F6000FB01649190913A028917F0F667FDDCCF8E
:101F70000E940E08D9CF903E29F41092A70110922A
:101F8000A601D2CF903F99F41092B401FF91EF9146
:101F9000BF91AF919F918F917F916F915F914F9181
:101FA0003F912F910F900FBE0F901F90189597FDA6
:101FB000BBCF3296F093A701E093A601FB01649199
:101FC000A091AD01B091AE01322F262F0E94F11ADF
:101FD0006C507E4F8F4F9F4F28EE33E040E050E033
:101FE0000E94CF1A2093A8013093A9014093AA011F
:101FF0005093AB018091A8019091A901A091AA01F1
:10200000B091AB01892B8A2B8B2B09F0BFCF81E0DC
:1020100090E0A0E0B0E08093A8019093A901A09384
:10202000AA01B093AB01B2CF1F920F920FB60F92DD
:1020300011248F939F93AF93BF93EF93FF9380915E
:102040003F02882309F452C080913B0290913C02E8
:10205000A0913D02B0913E02892B8A2B8B2BA1F1DE
:1020600090913702E0913802F091390280818927FE
:10207000808380913B0290913C02A0913D02B091FF
:102080003E02181619061A061B069CF480913B02A4
:1020900090913C02A0913D02B0913E020197A109AE
:1020A000B10980933B0290933C02A0933D02B09310
:1020B0003E02FF91EF91BF91AF919F918F910F9051
:1020C0000FBE0F901F90189510923F0280916F00E5
:1020D0008D7F80936F0080913702E0913802F091FC
:1020E00039029081809589238083E3CF90913702D4
:1020F000E0913802F091390280818927F5CFE0E440
:10210000F2E01382128288EE93E0A0E0B0E08483D4
:102110009583A683B78381E291E0918380838FEFDB
:102120009FEF95878487E0E9F2E01382128283E3D0
:1021300091E0918380838CE3868380E181871086A0
:10214000178216861786108A118A128A1092A5069F
:102150001092A4061092A7061092A60681E0809322
:10216000A8060895789484B5826084BD84B58160A2
:1021700084BD85B5826085BD85B5816085BD809152
:102180006E00816080936E001092810080918100CA
:1021900082608093810080918100816080938100C2
:1021A00080918000816080938000809191008260A6
:1021B0008093910080919100816080939100809143
:1021C00090008160809390008091C1008460809332
:1021D000C1008091C10082608093C1008091C100E4
:1021E00081608093C1008091C30081608093C300AF
:1021F0008091C00082608093C0008091C2008160A5
:102200008093C20080917A00846080937A008091EC
:102210007A00826080937A0080917A008160809356
:102220007A0080917A00806880937A00109233025D
:1022300010922302109225028091D7008160809332
:10224000D70080EA8093D80089B5806189BD89B5BF
:10225000826089BD09B400FEFDCF61E070E080E0DE
:1022600090E00E942C078091D8008F7C8061809341
:10227000D8008091E000807F8093E0008091E100B1
:102280008E7E8093E1008DE08093E200559A209A43
:1022900068E873E180E090E00E942C07CFB7F894E3
:1022A0008091B501811127C0E3E2F8E08491E6EF67
:1022B000F7E09491E82FF0E0EE0FFF1FE55BF84F99
:1022C000A591B491EC91E92321F461E081E10E94B0
:1022D0005A0661E081E10E94CB068CB580618CBD1D
:1022E0008CB580648CBD61E08FE00E94CB0661E01C
:1022F00080E10E94CB068091B5018F5F8093B5018C
:10230000CFBFC6E6D7E0BE01FE0184916F5F7F4F6D
:102310002296FB016491882319F00E94CB06F3CF2B
:1023200061E086E10E945A0661E070E080E090E0A2
:102330000E942C0760E086E10E945A066AE070E085
:1023400080E090E00E942C0761E086E10E945A063E
:10235000E9E2F8E0E491F0E0EE0FFF1FEC5FF74FE9
:10236000A591B4919C918091B901809589238C931A
:10237000ECEFF7E0E491E093B901E7E2F8E0E491F3
:10238000F0E0EE0FFF1FEC5FF74F85919491909373
:10239000B8018093B701EAEFF7E0E491E093B6016A
:1023A0008CB58C7F8CBD8DB581608DBDE091B70102
:1023B000F091B80190818091B60180958923808346
:1023C000E9E5F7E027E0E636F20749F084918EBDB3
:1023D00000000DB407FEFDCF8EB53196F3CFE0912E
:1023E000B701F091B80180819091B601892B80836B
:1023F00080916400816080936400809164008260B9
:102400008093640080916400806880936400809170
:102410006400806480936400809165008160809393
:1024200065000E94E30783FF0BC080E094E01EBCC0
:1024300000000DB407FEFDCF2EB50197C1F7FFCF09
:10244000CEEEDFEFB8E54B2E08E010E00E948904E5
:102450005C2E30EFC3170CF470C09E01D7FF04C090
:10246000222733272C1B3D0B27703327CE01D7FDA6
:102470000796A3E095958795AA95E1F7D7FF05C044
:102480000197A801421B530B9A01BC017695762F48
:10249000662777956795F12CE12C3801621A730A4B
:1024A0008F3F5FEF95070CF441C04E9C50014F9C4D
:1024B000B00C1124DB01A057BD4F50E040E0F50106
:1024C000E556F94F5F01FB01E05FFC4F4F018F3F85
:1024D000980781F0F501E40FF51FE491022E01C089
:1024E000EE0F0A94EAF79896FC919897EF2B98963E
:1024F000EC9398972115310599F0F501E40FF51F3C
:10250000E4916401C40ED51EF0E01F01062C02C048
:10251000359427940A94E2F7F60130A4232820A6E4
:102520004F5F5F4F11964835510589F60196605807
:102530007F4FEA94EF2809F0BBC084EA92E00E9442
:10254000FE076BE170E080E090E00E942C0720EF36
:10255000521206C06AEF70E080E090E00E942C0703
:102560002196C931D10509F071CF6EEE72E080E09D
:1025700090E00E942C070E94A2080E94A2081092DC
:10258000B40182E090E00E945E0C882351F08091BB
:102590006400877F8093640080916500877F8093CB
:1025A00065008CE38093960280E1809399028DE42C
:1025B00091E00E948B0B84EA92E00E94FE07C8EF34
:1025C000DFEF0EE210E00E9489041093A50600934D
:1025D000A406D093A706C093A6068AE591E00E94C0
:1025E0008B0B84EA92E00E94FE072296CC31D10543
:1025F00051F740EA50E060E070E08BED93E00E941C
:10260000450460EA70E080E090E00E942C0740E919
:1026100051E060E070E086E295E00E94450460EDE4
:1026200077E080E090E00E942C072FB7F89480912B
:10263000BA019091BB01A091BC01B091BD012FBF27
:102640002091A202222391F020919A02382F321B6E
:102650003093A30220919702309198022F5F3F4F51
:1026600030939802209397021092A20240919E020A
:1026700050919F026091A0027091A102841795076A
:10268000A607B707CCF4481B423050F083B7817FD0
:1026900083BF83B7816083BF889583B78E7F83BFF5
:1026A00080E090E0892B09F4C0CF0E940000BDCFEC
:1026B000EE24E394F12CF4CE20919902AC01BD01FB
:1026C000420F511D611D711D40939E0250939F0248
:1026D0006093A0027093A10280939A0290939B0250
:1026E000A0939C02B0939D0281E08093A20246E1F8
:1026F000A42EB12C50E3252E312C02E0C1E0109124
:102700001D02111120C10E94890440E150E0509344
:10271000A5064093A406B092A706A092A606009331
:10272000A80682E691E00E948B0BC093A80684EA7B
:1027300092E00E94FE0789E190E00E945E0B811109
:10274000F9C0D5E08FE190E09093A5068093A406B0
:10275000E5E3F0E0F093A706E093A6068BE691E0B0
:102760000E948B0B84EA92E00E94FE0782E390E0D5
:102770000E945E0B8111DEC00E94890420E130E0DE
:102780003093A5062093A406B092A706A092A606B1
:102790000093A80682E691E00E948B0BC093A806E6
:1027A00084EA92E00E94FE0784EA92E00E94FE071B
:1027B00089E190E00E945E0B8111BCC0D15009F00C
:1027C000C1CF10921D020E94890440E250E0509354
:1027D000A5064093A4061092A7061092A60687E7C6
:1027E00091E00E948B0B84EA92E00E94FE07C4E60F
:1027F000D0E08AE0E82EF12C10E000E093E8492ECA
:1028000091E0592E27E0C22E22E0D22E38E1832E0D
:10281000912C0F5F1F4F1F930F935F924F92DF9288
:10282000CF920E94331B9092A5068092A406F0924C
:10283000A706E092A60687E092E00E948B0B84EA4E
:1028400092E00E94FE07CE010E945E0C782ECE011F
:1028500001960E945E0C0F900F900F900F900F90BA
:102860000F909FEF791269C08F3F09F066C01092F8
:10287000180210921702CE0102960E945E0C782E6A
:1028800080930402CE0103960E945E0C682E809312
:102890000502CE0104960E945E0C809306022091F0
:1028A00017023091180221153105A9F13F932F939A
:1028B000282F082E000C330B3F938F93862D062C68
:1028C000000C990B9F936F92872D072C000C990B8E
:1028D0009F937F92E7E8F1E0FF93EF93DF92CF922F
:1028E0000E94331B3092A5062092A406F092A70600
:1028F000E092A60687E092E00E948B0B84EA92E0C9
:102900000E94FE074DB75EB7445F5F4F0FB6F89465
:102910005EBF0FBE4DBF58E0E50EF11C25960A3094
:10292000110509F076CF8CE291E00E945E0B809356
:102930001D02E3CEC0931D02E2CE972D90931802A4
:102940008093170298CF80911C0281110BC084EAFA
:1029500092E00E94FE070E9489040E94BA0B81E067
:1029600080931C0270900501C0910102D091020277
:10297000E090FF01F090000257015FEFA51AB50A41
:102980004E018FEF881A980A772009F4E5C2D0909B
:10299000030200E021E04BE06FE370E08D2D90E05A
:1029A0000E942C0993E79D1540F00E94E30786FFE3
:1029B00004C0D394D394D092030200910302002365
:1029C00039F00E94E30787FF03C00250009303021F
:1029D000C0900302D12C01E021E04BE06FE370E0F6
:1029E000C6010E942C090E94E30784FD04C00E94D6
:1029F000E307182F117010931B0220E0AE01B701FE
:102A000080E992E00E94080920E0AE01B50180E96A
:102A100092E00E94080920E0A401B70180E992E059
:102A20000E94080920E0A401B50180E992E00E941B
:102A300008094091FE014F5F4093FE018091FD0126
:102A4000882309F44EC280910201909103019C01F8
:102A500097FF04C022273327281B390B223031056A
:102A600009F036C297FD019695958795E80EF91EF7
:102A700040FF2EC2F0920002E092FF01809100011F
:102A800090910101C80FD91FD0930202C093010297
:102A90002091FF012093FC012E5F2093FB01C09346
:102AA000FA012C2F2E5F2093F9011C161D06ACF0A5
:102AB00022E030E03093020220930102919581954B
:102AC000910990930101809300014AEF50E060E08A
:102AD00070E08BE092E00E944504809101029091A9
:102AE0000202803491059CF100E021E04BE06FE3AD
:102AF00070E0C6010E942C0986E3809303028CE3F8
:102B000090E090930202809301021092FD017A946A
:102B1000709205010E94980B4AEF50E060E070E06F
:102B20008FEA90E00E9445040E942F1A22E030E0D4
:102B300040E050E00E949D1A672B682B692B09F03A
:102B4000CAC181E090E090930301809302018091DB
:102B5000FF019091000218161906CCF082E090E077
:102B6000909300028093FF018091020190910301F4
:102B700091958195910990930301809302014AEF09
:102B800050E060E070E08BE092E00E9445048091AC
:102B9000FF01909100028E379105CCF08CE790E018
:102BA000909300028093FF018091020190910301B4
:102BB00091958195910990930301809302014AEFC9
:102BC00050E060E070E08BE092E00E94450480916C
:102BD000FF01909100022091030230E0AC014F5FB1
:102BE0005F4F421753070CF444C0A901445F5F4F85
:102BF00048175907F4F140910102509102024D53D8
:102C0000510944305105A8F540910001509101014E
:102C100051954195510950930101409300012A5F5C
:102C20003F4F821B930B63E070E00E94001B709388
:102C3000030160930201672BA1F40E942F1A22E086
:102C400030E040E050E00E949D1A6130710581053E
:102C5000910509F043C181E090E0909303018093D6
:102C600002014AEF50E060E070E088EC90E00E94E2
:102C70004504A5ECAA2EA1E0BA2EC1E0B2E0CB2E0D
:102C8000D12CDAE06D2E17E0812E12E0912E442433
:102C9000439455245394D6E0DC0F80E0F12CE12CD2
:102CA00085010E0D1F1DF8019081FAE07F2E780E30
:102CB0009111C0C08093C4017092C301C093C2013E
:102CC000D093C1019091FA01D91708F4B3C0909143
:102CD000F9019C1708F4AEC09091FC01791608F434
:102CE000A9C09091FB01981708F4A4C02091040199
:102CF0008091170290911802269D800D911D11243C
:102D000090931802809317029F938F9324E431E0ED
:102D10003F932F939F928F920E94331B80E590E008
:102D20009093A5068093A406EAE5F0E0F093A70649
:102D3000E093A60687E092E00E948B0B8091190237
:102D400090911A02019690931A0280931902F80149
:102D5000408200E024E048E0B6016E9CC0016F9C18
:102D6000900D11240E942C090F900F900F900F903E
:102D70000F900F909091F9018091C101891730F067
:102D80009091FA018091C201981720F58091C001BD
:102D9000811120C0209100013091010188279927DD
:102DA000821B930B9093010180930001809101029B
:102DB00090910202821B930B909302028093010276
:102DC0005092C0014AEF50E060E070E085E091E091
:102DD0000E9445049091FC018091C401981730F045
:102DE0009091FB018091C301891720F58091C0016A
:102DF000811120C020910201309103018827992779
:102E0000821B930B90930301809302018091FF0139
:102E100090910002821B930B909300028093FF011C
:102E20005092C0014AEF50E060E070E085E091E030
:102E30000E944504FFEFEF1AFF0A872D823809F040
:102E40002FCF2DE0A20EB11C36E0C30ED11CCD2F2A
:102E5000D93109F020CF1092C001C0910102D09168
:102E600002020091FF011091000221E0AE01B801C1
:102E700080E992E00E94080978015FEFE51AF50AFF
:102E800021E0AE01B70180E992E00E940809219695
:102E900021E0AE01B80180E992E00E94080921E03A
:102EA000AE01B70180E992E00E9408098091190201
:102EB00090911A02C49739F4809104018F5F809336
:102EC00004010E94BA0B84EA92E00E94FE07E8CB5C
:102ED000E80EF91ECFCD8FEF9FEF35CE8FEF9FEF2E
:102EE000BCCE45E0C40ED11CD0920002C092FF01BE
:102EF0000E94E30784FD04C00E94E30780FF22C014
:102F000081E08093BF019091BE0191111DC080931B
:102F1000FD010E942F1A22E030E040E050E00E94C4
:102F20009D1A672B682B692BA1F481E090E09093A8
:102F30000301809302018FEF9FEF90930101809333
:102F4000000102C01092BF018091BF018093BE01B9
:102F500084CF8FEF9FEFEBCF20E0AE01B70180E988
:102F600092E00E94080920E0AE01B50180E992E0FC
:102F70000E94080920E0A401B70180E992E00E94C4
:102F8000080920E0A401B50180E992E00E94080947
:102F9000C4E3D0E0D093A506C093A4068AE290E0F3
:102FA0009093A7068093A60681E991E00E948B0B7F
:102FB000D093A506C093A40686E390E09093A7065D
:102FC0008093A60686E991E00E948B0B84EA92E04A
:102FD0000E94FE0760EA7FE080E090E00E942C07FC
:102FE00000911702109118020115110509F4D4C1BE
:102FF000C4E6D0E0CE010E945E0CF82ECE01019610
:103000000E945E0C9FEFF91203C08F3F09F4D8C0F5
:103010009F2D21E0270D8017910708F0CEC10E9457
:10302000890480E280930402809305028093060263
:10303000C0E03EE8C32E31E0D32E47E0A42E42E0AC
:10304000B42E58E3252E312C64E1E62EF12C70E4E9
:10305000472E512CE8E48E2E912CD0E284EA92E0A7
:103060000E94FE070E948904E0E1F0E0F093A506CB
:10307000E093A4061092A7061092A6068BE991E0B1
:103080000E948B0B809118028F93809117028F936F
:10309000DF92CF92BF92AF920E94331B28E530E0BF
:1030A0003093A5062093A4061092A7061092A606B8
:1030B00087E092E00E948B0B3092A5062092A40636
:1030C000F092A706E092A6066091040280E992E0E1
:1030D0000E94410A5092A5064092A406F092A706CB
:1030E000E092A6066091050280E992E00E94410A02
:1030F0009092A5068092A406F092A706E092A606FA
:103100006091060280E992E00E94410A01E02BE111
:1031100030E04EE350E06BE170E088E390E00E9425
:10312000A3092BE130E046E450E06BE170E080E47D
:1031300090E00E94A3092BE130E04EE450E06BE107
:1031400070E088E490E00E94A30900E02CE130E008
:1031500048E550E06CE170E088E390E00E94A3094C
:103160008C2F0C2E000C990B079623E0880F991FCB
:103170002A95E1F7AC014A5F5F4F01E02CE130E0B6
:103180006CE170E00E94A30966E970E080E090E0E5
:103190000E942C070E94E3070F900F900F900F9052
:1031A0000F900F9087FF0FC0C15008F48AC04AEFFC
:1031B00050E060E070E086E194E00E94450407C0C2
:1031C00090E080E026CF0E94E30780FDEDCF0E94D3
:1031D000E30786FF0CC0CF5FC33008F074C04AEF2E
:1031E00050E060E070E086E194E00E9445040E94B7
:1031F000E30781FF29C00C2F0C2E000C110B0C5F74
:103200001D4FF8016080639460824AEF50E060E0F7
:1032100070E08BE092E00E944504F0E36F1202C080
:10322000F801D083F8018081813211F421E42083F8
:10323000F80180818B3511F420E32083F80180812F
:10324000803411F421E220830E94E30783FF29C028
:103250000C2F0C2E000C110B0C5F1D4FF801608021
:103260006A9460824AEF50E060E070E08BE092E0A8
:103270000E944504F0E26F1203C08FE3F8018083DF
:10328000F80180818F3211F48AE58083F801808112
:103290008F3111F42FE22083F8018081803409F40A
:1032A000D0830E94E30784FFD9CEC23074F4CF5F8D
:1032B0004AEF50E060E070E086E194E00E9445044F
:1032C000CCCEC0E084CFC2E092CF4AEF50E060E0C5
:1032D00070E086E194E00E944504F5E07F9EE00105
:1032E0001124CC59DF4FCE010E945E0C082F5E01E5
:1032F0002FEFA21AB20AC5010E945E0C0F3F19F40B
:103300008F3F09F457C0102F082F4E0132E0830E73
:10331000911CC4010E945E0C482E6E0143E0C40E55
:10332000D11CC6010E945E0C582E7E0154E0E50EB1
:10333000F11CC7010E945E0C682E60911802CE013C
:103340000E94600C60911702C5010E94600C6091A0
:103350000402C4010E94600C60910502C6010E9433
:10336000600C60910602C7010E94600C1093180265
:1033700000931702409204025092050260920602E6
:10338000739425968AE07812AECF80E2809304028F
:1033900080930502809306020E94890410921C0209
:1033A00010921D0283E08093050110921802109282
:1033B000170287CD10E000E0A8CF2596722E9AE084
:1033C000291318CEE9CF8F929F92AF92BF92CF92DE
:1033D000DF92EF92FF92CF93DF93EC0168817981C6
:1033E0008A819B81611571058105910521F464E253
:1033F00079ED8BE597E02DE133EF41E050E00E945D
:103400009D1A49015A019B01AC01A7EAB1E40E944F
:10341000BC1A6B017C01ACEEB4EFA50194010E94D3
:10342000CA1AC60ED71EE81EF91EF7FE06C081E0B6
:10343000C81AD108E10880E8F80AC882D982EA826D
:10344000FB82C701B6019F77DF91CF91FF90EF908C
:10345000DF90CF90BF90AF909F908F9008958F9204
:103460009F92AF92BF92CF92DF92EF92FF926091C4
:103470001201709113018091140190911501611551
:1034800071058105910521F464E279ED8BE597E002
:103490002DE133EF41E050E00E949D1A49015A01AD
:1034A0009B01AC01A7EAB1E40E94BC1A6B017C014C
:1034B000ACEEB4EFA50194010E94CA1AC60ED71E45
:1034C000E81EF91EF7FE06C081E0C81AD108E1081F
:1034D00080E8F80AC0921201D0921301E092140120
:1034E000F0921501C701B6019F77FF90EF90DF9032
:1034F000CF90BF90AF909F908F90089560931201EE
:103500007093130180931401909315010895F99914
:10351000FECF92BD81BDF89A992780B50895262FD8
:10352000F999FECF1FBA92BD81BD20BD0FB6F894A8
:10353000FA9AF99A0FBE01960895052E97FB1EF48C
:1035400000940E94B41A57FD07D00E94CF1A07FCBE
:1035500003D04EF40C94B41A5095409530952195B3
:103560003F4F4F4F5F4F08959095809570956195AF
:103570007F4F8F4F9F4F08950E94F11AA59F900D86
:10358000B49F900DA49F800D911D11240895B7FF45
:103590000C94BC1A0E94BC1A821B930B0895A1E2E2
:1035A0001A2EAA1BBB1BFD010DC0AA1FBB1FEE1FBD
:1035B000FF1FA217B307E407F50720F0A21BB30B08
:1035C000E40BF50B661F771F881F991F1A9469F784
:1035D00060957095809590959B01AC01BD01CF01E0
:1035E0000895A29FB001B39FC001A39F700D811DDC
:1035F0001124911DB29F700D811D1124911D0895FC
:1036000097FB072E16F4009407D077FD09D00E948F
:103610001A1B07FC05D03EF4909581959F4F0895A5
:10362000709561957F4F0895EE0FFF1F0590F491FF
:10363000E02D0994AA1BBB1B51E107C0AA1FBB1FA9
:10364000A617B70710F0A61BB70B881F991F5A952E
:10365000A9F780959095BC01CD01089581E090E097
:10366000F8940C940B1EAEE0B0E0E9E3FBE10C949F
:10367000E21D0D891E8986E08C831A8309838FEFF2
:103680009FE79E838D83AE01475E5F4F6F89788D84
:10369000CE0101960E94561B2F813885020F131F01
:1036A000F80110822E96E4E00C94FE1DABE0B0E031
:1036B000ECE5FBE10C94D41D7C013B018A01FC018B
:1036C00017821682838181FFC8C1CE0101965C01F9
:1036D000F7019381F30193FD859193FF81913F0160
:1036E000882309F453C1853239F493FD859193FF02
:1036F00081913F01853229F4B70190E00E94461D77
:10370000E7CF912C212C312CFFE1F31538F08B32CF
:1037100011F190F4803209F1833229F137FC3CC079
:1037200020ED280F2A3050F536FE20C08AE0989E02
:10373000200D1124922E06C08D3291F0803371F746
:10374000689430F8F30193FD859193FF81913F01D7
:103750008111DACF21C0689431F8689432F8F2CF41
:10376000689433F8EFCF689434F8ECCFEAE02E9EFB
:10377000200D1124222E689435F8E4CF8E3229F4DE
:1037800036FC04C1689436F8DDCF8C3619F46894A1
:1037900037F8D8CF8836B1F2982F9F7D9554933063
:1037A000E0F08336A1F18337C1F1833509F063C0BE
:1037B0002801F2E04F0E511CF801C080D180692D24
:1037C00070E036FC02C06FEF7FEFC6010E94301D33
:1037D0004C01689437F882010AC00C5F1F4FFFE369
:1037E000F98388248394912C6501E89437F833FE9B
:1037F0002DC0522C8114910471F5552009F468CF25
:10380000B70180E290E00E94461D5A94F6CFF8017D
:10381000808189830E5F1F4FE4CF2801F2E04F0EB5
:10382000511CF801C080D180692D70E036FC02C0C7
:103830006FEF7FEFC6010E943B1D4C018201D5CF87
:10384000B70180E290E00E94461D2A9428141904D2
:1038500009F0B0F7CECFF60137FC859137FE8191A4
:103860006F01B70190E00E94461D51105A94F1E09B
:103870008F1A9108BFCF843619F0893609F077C0C6
:10388000F80137FE6BC060817181828193810C5F8A
:103890001F4FF32DFF763F2E97FF09C0909580951F
:1038A000709561957F4F8F4F9F4F689437F82AE04E
:1038B00030E0A5010E94761DC82ECA188C2C432C1E
:1038C00036FE0CC0E89440F8C91440F434FE05C03C
:1038D00032FC03C0F32DFE7E4F2E892C44FE95C092
:1038E000FE01EC0DF11D8081803309F087C0242D8D
:1038F000297E422E842D8870582E43FC95C040FEB0
:103900008FC09C2C821418F42C0C922C981844FE16
:1039100091C0B70180E390E00E94461D42FE09C0BD
:1039200088E790E041FE02C088E590E0B7010E9480
:10393000461DC91408F48AC0CA94D12C9FEFC91A35
:10394000D90ACA0CDB1CF60182916F01B70190E025
:103950000E94461DAC14BD04B1F74FCF6081718148
:10396000072E000C880B990B0E5F1F4F92CFD32CA4
:10397000E894D4F82AE030E0853739F1232D297F07
:10398000D22E8F3601F148F48835A9F0F7018681EF
:1039900097812B96E2E10C94F01D803749F088372F
:1039A000A9F7D4FE02C06894D2F820E130E00DC03F
:1039B0006894D4F8F6CF34FE03C0822F8660D82EE8
:1039C00020E132E002C028E030E0F801D7FE0FC06D
:1039D00060817181828193810C5F1F4FA5010E94DC
:1039E000761DC82ECA183D2CE89437F867CF608141
:1039F000718190E080E00E5F1F4FF0CF42FC02C06B
:103A0000839478CF8394839475CF842D867809F43A
:103A100071CFF6CFB70180E290E00E94461D8394FB
:103A20008214C0F3512C73CF522C5818821408F40E
:103A30006ECFF8CF842D867809F47BCF8BE241FEE0
:103A400080E247FC8DE2B70190E071CFB70180E3DF
:103A500090E00E94461D9A946CCF8FEF9FEF99CF14
:103A6000FC010590615070400110D8F78095909549
:103A70008E0F9F1F0895FC0161507040019001104E
:103A8000D8F7809590958E0F9F1F08950F931F93E1
:103A9000CF93DF93182F092FEB018B8181FD09C094
:103AA0001FEF0FEF812F902FDF91CF911F910F917B
:103AB000089582FF14C02E813F818C819D8128173B
:103AC00039073CF4E881F981CF0101969983888315
:103AD00010838E819F8101969F838E83E3CFE8853B
:103AE000F985812F0995892BA1F3DACFFA01AA274D
:103AF000283051F1203181F1E8946F936E7F6E5F31
:103B00007F4F8F4F9F4FAF4FB1E03ED0B4E03CD0DE
:103B1000670F781F891F9A1FA11D680F791F8A1FC1
:103B2000911DA11D6A0F711D811D911DA11D20D028
:103B300009F468943F912AE0269F11243019305DE2
:103B40003193DEF6CF010895462F4770405D4193D3
:103B5000B3E00FD0C9F7F6CF462F4F70405D4A3320
:103B600018F0495D31FD4052419302D0A9F7EACFE8
:103B7000B4E0A6959795879577956795BA95C9F717
:103B800000976105710508959B01AC010A2E06940A
:103B90005795479537952795BA95C9F7620F731FC3
:103BA000841F951FA01D08952F923F924F925F9200
:103BB0006F927F928F929F92AF92BF92CF92DF923D
:103BC000EF92FF920F931F93CF93DF93CDB7DEB7A2
:103BD000CA1BDB0B0FB6F894DEBF0FBECDBF099436
:103BE0002A88398848885F846E847D848C849B848D
:103BF000AA84B984C884DF80EE80FD800C811B819B
:103C0000AA81B981CE0FD11D0FB6F894DEBF0FBEC9
:0A3C1000CDBFED010895F894FFCF39
:103C1A00FFFFFFFF0103FFFFFFFF00E100000000BD
:103C2A0000000100000000C18081000000000000C7
:103C3A0000E7045E070805FD044E050C052A050089
:103C4A00000000410A2D065B0B5A0B4C495645539E
:103C5A003A25750053434F52453A25750048656C1D
:103C6A006C6F20576F726C64210041524455424F69
:103C7A0059004152414B4E4F49440050524553530B
:103C8A0020464952452100484947482053434F524C
:103C9A004553002532640025632563256320257575
:103CAA000047616D65004F766572004849474820B4
:063CBA0053434F52450088
:00000001FF
