:100000000C9427040C944F040C944F040C944F044C
:100010000C944F040C944F040C944F040C944F0414
:100020000C944F040C944F040C94070C0C94760C15
:100030000C944F040C944F040C944F040C944F04F4
:100040000C944F040C94B90F0C944F040C944F046F
:100050000C944F040C944F040C944F040C94A80E71
:100060000C944F040C944F040C944F040C944F04C4
:100070000C944F040C944F040C944F040C944F04B4
:100080000C94F20E0C944F040C944F040C944F04F7
:100090000C944F040C944F040C944F040C944F0494
:1000A0000C944F040C944F040C944F040000000077
:1000B000003E5B4F5B3E3E6B4F6B3E1C3E7C3E1CEE
:1000C000183C7E3C181C577D571C1C5E7F5E1C0034
:1000D000183C1800FFE7C3E7FF0018241800FFE7EB
:1000E000DBE7FF30483A060E2629792926407F05AE
:1000F0000507407F05253F5A3CE73C5A7F3E1C1CC4
:1001000008081C1C3E7F14227F22145F5F005F5F83
:1001100006097F017F006689956A6060606060946F
:10012000A2FFA29408047E040810207E2010080874
:100130002A1C08081C2A08081E101010100C1E0C7F
:100140001E0C30383E3830060E3E0E060000000011
:100150000000005F00000007000700147F147F14F8
:10016000242A7F2A1223130864623649562050003D
:1001700008070300001C2241000041221C002A1C29
:100180007F1C2A08083E0808008070300008080814
:100190000808000060600020100804023E51494534
:1001A0003E00427F400072494949462141494D3352
:1001B0001814127F1027454545393C4A49493141B9
:1001C000211109073649494936464949291E000087
:1001D00014000000403400000008142241141414DC
:1001E0001414004122140802015909063E415D59C8
:1001F0004E7C1211127C7F494949363E41414122D1
:100200007F4141413E7F494949417F090909013EFA
:10021000414151737F0808087F00417F4100204021
:10022000413F017F081422417F404040407F021C33
:10023000027F7F0408107F3E4141413E7F0909094A
:10024000063E4151215E7F09192946264949493216
:1002500003017F01033F4040403F1F2040201F3FDC
:100260004038403F63140814630304780403615961
:10027000494D43007F4141410204081020004141A3
:10028000417F04020102044040404040000307084F
:100290000020545478407F2844443838444444284B
:1002A000384444287F385454541800087E090218F2
:1002B000A4A49C787F0804047800447D400020407A
:1002C000403D007F1028440000417F40007C0478BE
:1002D00004787C080404783844444438FC18242406
:1002E0001818242418FC7C08040408485454542486
:1002F00004043F44243C4040207C1C2040201C3C03
:100300004030403C44281028444C9090907C4464F9
:10031000544C44000836410000007700000041368C
:10032000080002010204023C2623263C1EA1A16112
:10033000123A4040207A3854545559215555794144
:100340002154547841215554784020545579400C1B
:100350001E527212395555555939545454593955FC
:100360005454580000457C410002457D420001453F
:100370007C40F0292429F0F0282528F07C545545AC
:10038000002054547C547C0A097F4932494949323F
:100390003248484832324A4848303A4141217A3A54
:1003A00042402078009DA0A07D39444444393D401E
:1003B00040403D3C24FF2424487E4943662B2FFCCB
:1003C0002F2BFF0929F620C0887E09032054547979
:1003D000410000447D413048484A32384040227A4A
:1003E000007A0A0A727D0D19317D2629292F2826C7
:1003F0002929292630484D402038080808080808CF
:100400000808382F10C8ACBA2F102834FA00007B27
:10041000000008142A142222142A1408950022002D
:1004200095AA005500AAAA55AA55AA000000FF00E7
:10043000101010FF00141414FF001010FF00FF1024
:1004400010F010F0141414FC001414F700FF000056
:10045000FF00FF1414F404FC141417101F10101FD5
:10046000101F1414141F00101010F0000000001FC3
:10047000101010101F10101010F010000000FF10CE
:100480001010101010101010FF10000000FF1400CA
:1004900000FF00FF00001F10170000FC04F41414FC
:1004A0001710171414F404F40000FF00F7141414C8
:1004B00014141414F700F7141414171410101F1048
:1004C0001F141414F4141010F010F000001F101F6B
:1004D0000000001F14000000FC140000F010F010D9
:1004E00010FF10FF141414FF141010101F00000050
:1004F00000F010FFFFFFFFFFF0F0F0F0F0FFFFFF54
:100500000000000000FFFF0F0F0F0F0F38444438AA
:10051000447C2A2A3E147E02020606027E027E02E5
:1005200063554941633844443C04407E201E200604
:10053000027E020299A5E7A5991C2A492A1C4C7241
:1005400001724C304A4D4D303048784830BC625AC8
:10055000463D3E494949007E0101017E2A2A2A2A58
:100560002A44445F444440514A444040444A514034
:100570000000FF0103E080FF000008086B6B0836F5
:1005800012362436060F090F060000181800000066
:100590001010003040FF0101001F01011E00191D55
:1005A0001712003C3C3C3C00000000000601150115
:1005B000260137014A015D01720188019F01B801DE
:1005C000D201EE010B022A024B026E029302BA0222
:1005D000E40210033F037003A403DC031704550473
:1005E0009704DD0427057505C80520067D06E0068D
:1005F0004907B8072D08A9082D09B9094D0AEA0AC3
:10060000900B400CFA0CC00D910E6F0F5A10531145
:100610005B1272139A14D41520178018F519801BD9
:10062000231DDE1EB420A622B524E4263429A72BE0
:10063000402E0031EA330037453ABC3D68414C4515
:100640006B49C84D68524F57805C006210111213FD
:10065000151617181A1C1D1F21232527292C2E318A
:1006600034373A3E4145494E52575C62686E757B5D
:10067000838B939CA5AFB9C4D0DCE9F700000002DE
:1006800000090F0000030401000C0000000000003E
:100690000000000000000000000000F0F89C8E87C1
:1006A00083878E9CF8F00000FEFF0303030303071B
:1006B0000EFCF80000FEFF0303030303070EFCF823
:1006C0000000FFFF00000000000000FFFF0000FE30
:1006D000FF8383838383C7EE7C380000F8FC0E071A
:1006E000030303070EFCF800003F7FE0C08080C0DA
:1006F000E07F3FFFFF01010101010101FFFF000059
:10070000FFFF0C0C0C0C1C3E77E3C100007FFFC008
:10071000C0C0C0C0E0703F1F00001F3F70E0C0C0FD
:10072000C0E0703F1F00007FFFC1C1C1C1C1E377BE
:100730003E1C00001F3F70E0C0C0C0E0703F1F00C3
:100740000000000001FFFF01000000000000002485
:100750000027002A002D003000D5F08D14A1C8819B
:10076000CFD9F1AF20000B020A02120204020802E4
:100770000102150117011601000A050A05080B0000
:100780000202020000090400000102020000052428
:1007900000100105240101010424020605240600BD
:1007A000010705810310004009040100020A00004E
:1007B0000007050202400000070583024000000414
:1007C00003090412010002EF0201404123368000B8
:1007D000010102030141726475696E6F204C4C4344
:1007E0000041726475626F79000E0D0B070F0D0EDC
:1007F0000C0C0E0D0F0F0F05030C0A0F0F0408024F
:100800000110408040102040804080080204018098
:100810004020100201108010204040200000000005
:10082000250028002B002E003100040404040403DA
:100830000405020202020403020202020606060680
:100840000606040402020204040301002410112419
:100850001FBECFEFDAE0DEBFCDBF11E0A0E0B1E018
:10086000E2E6F6E302C005900D92A63BB107D9F788
:1008700028E0A6EBB1E001C01D92A836B207E1F76F
:1008800014E0C7E2D4E004C02197FE010E943818AA
:10089000C632D107C9F70E9459100C942F1B0C9433
:1008A00000004F925F926F927F928F929F92AF92D1
:1008B000BF92CF92DF92EF92FF920F931F93CF934D
:1008C000DF93603871050CF098C0FA01EE0DF11D50
:1008D000F7FD93C0403451050CF08FC0DA0157FF8B
:1008E00004C0AA27BB27A41BB50BA770BB27FA011E
:1008F00057FD3796D3E0F595E795DA95E1F757FF81
:1009000007C0319748E050E0EA01CA1BDB0BDE016B
:100910008E2C869486948694912CDE2DD77019F0B7
:100920004FEF841A940A10E0AF01F695FE2FEE27E0
:10093000F795E795E60FF71F8E0F9F1FE901840ECD
:10094000951E20E830E07901E61AF70A28E030E049
:1009500039016A1A7B0A8416950609F44EC048309C
:10096000510509F44AC04F3FEFEF5E070CF43BC05E
:10097000BC0130E020E05C01F0E8AF0EB11C4F3F5D
:100980005407C1F1F901EC0FFD1FE491F0E06F0194
:100990000A2E01C0CC0C0A94EAF7FB01D488CD28BA
:1009A000C48A1097B1F04730510599F0FE01E20F6B
:1009B000F31FE4916501C20ED31EF0E02F01062C57
:1009C00002C0559447940A94E2F7F60154884528EA
:1009D000448A2F5F3F4F6F5F7F4F201731071CF412
:1009E0002E153F0561F64F5F5F4F80589F4FC00F38
:1009F000D11FB1CF1097D1F6ECCFDF91CF911F91DE
:100A00000F91FF90EF90DF90CF90BF90AF909F90AD
:100A10008F907F906F905F904F90089582E694E062
:100A200020E0B22FB111BFEFFC010024B193B193CC
:100A3000B193B1930394D1F70895EF92FF920F937E
:100A40001F93CF93DF93F12CCAEFD0E0E0905602D2
:100A5000FE1408F043C00F2D10E080915702800F64
:100A6000912F911DBE010E9424189C0180914C047D
:100A700090914D04F901EE0FFF1FE75AFD4F4081A1
:100A800050E0220F331FF901E55BFD4F658570E0F3
:100A9000EE2DE150FF0B0E171F07D1F420914D02F0
:100AA00034E0E32E04E0211106C029EF37E00E9474
:100AB0005104F394CBCF213019F425EF37E0F7CF71
:100AC000223019F421EF37E0F2CF2DEE37E0EFCFEF
:100AD00024E0E22E04E029EE37E0E9CFDF91CF9168
:100AE0001F910F91FF90EF9008952FB7F894809188
:100AF000F0019091F101A091F201B091F3012FBFAB
:100B000020916004222391F020915804382F321B49
:100B10003093610420915504309156042F5F3F4F6C
:100B200030935604209355041092600440915C0465
:100B300050915D0460915E0470915F048417950785
:100B4000A607B7077CF4481B423050F083B7817F7B
:100B500083BF83B7816083BF889583B78E7F83BF50
:100B600080E0089520915704AC01BD01420F511D52
:100B7000611D711D40935C0450935D0460935E049D
:100B800070935F048093580490935904A0935A047F
:100B9000B0935B0481E0809360040895CF92DF926C
:100BA000EF92FF92CF93DF93EC0181E08093EF010E
:100BB000E1E8F0E08081887F81608083DE01AA0F18
:100BC000BB1F9A01AB010E94D41728EE33E040E02E
:100BD00050E00E94E71769017A019E0150E040E071
:100BE00060E072E18AE790E00E94B5172150310978
:100BF000410951093093890020938800C092EB018C
:100C0000D092EC01E092ED01F092EE01EFE6F0E01F
:100C1000808182608083DF91CF91FF90EF90DF90A1
:100C2000CF900895FC018091EA01882311F13FB72C
:100C3000F89482E08093E9002091F200822F90E006
:100C40001816190614F481E090E0882339F02898EA
:100C500044E64093E9014091F1004083222339F0BA
:100C60002091F200211103C02BE62093E8003FBF42
:100C700008958FEF9FEF08952FB7F89483E0809346
:100C8000E9009091E800892F807295FF04C090914F
:100C9000F20080E4891B2FBF08958091E10181114A
:100CA0000DC082E08093DD0184E08093DE0110922C
:100CB000E0011092DF0181E08093E1018DED91E090
:100CC0000895CF93DF931F92CDB7DEB76983DC0120
:100CD000ED91FC910280F381E02D41E050E0BE01F6
:100CE0006F5F7F4F09950F90DF91CF91089583E05B
:100CF0008093E9008091F200882319F08AE38093C1
:100D0000E80008950E943C0690E00895CF93DF9399
:100D10001F92CDB7DEB7FC018485958597FD08C08D
:100D20002FEF3FEF358724870F90DF91CF91089504
:100D3000CE0101960E941206019719F4898190E074
:100D4000F3CF8FEF9FEFF0CF0F931F93CF93DF93EE
:100D50001F92CDB7DEB78C01FC018485958597FF86
:100D60000BC0CE0101960E941206019771F4898191
:100D700090E0F80195878487F801848595850F9028
:100D8000DF91CF911F910F9108958FEF9FEFF1CFDA
:100D9000FC018485958597FD0BC09FB7F89482E090
:100DA0008093E9008091F2009FBF90E00196089542
:100DB0009FB7F89482E08093E9008091F2009FBF92
:100DC00090E008954091D7015091D8012091D5012C
:100DD0003091D60142175307B4F49091E800957012
:100DE000E1F39091E80092FD19C08093F1008091A9
:100DF000D7019091D80101968F739927892B19F407
:100E00008EEF8093E8008091D7019091D8010196F0
:100E10009093D8018093D70181E0089580E00895F0
:100E2000EF92FF920F931F93CF93DF93F82E192F1A
:100E3000E62E042F81E0860F880F0E94E20683E0F1
:100E40000E94E206CF2DD12FEC0EFD2EF11CCE1507
:100E5000DF05B9F007FF13C0FE0184910E94E2068E
:100E6000182F80E00E94E206812321968111EFCFA6
:100E7000DF91CF911F910F91FF90EF90089588819E
:100E8000EDCF81E0F5CFDF92EF92FF920F931F93AA
:100E9000CF93DF93D82E8A01EB017B01E40EF51E80
:100EA000CE15DF0559F0D7FE12C0FE0184910E94D5
:100EB000E20621968111F4CF0FEF1FEFC801DF91F9
:100EC000CF911F910F91FF90EF90DF90089588814F
:100ED000EECF0F931F93CF93DF931F92CDB7DEB763
:100EE00082E0898342E450E06DE777E080E80E9489
:100EF00043070E944D06DC0112960D911C910115CD
:100F0000110589F0D801ED91FC910280F381E02D6B
:100F1000BE016F5F7F4FC801099597FD04C0F801BE
:100F200000851185ECCF89810F90DF91CF911F91C2
:100F30000F910895615030F02091F100FC01208361
:100F40000196F8CF289884E68093E9010895AF923E
:100F5000BF92CF92DF92EF92FF920F931F93CF93A6
:100F6000DF936C017B018B01040F151FEB015E0108
:100F7000AE18BF08C017D10759F06991D601ED919D
:100F8000FC910190F081E02DC6010995892B79F73C
:100F9000C501DF91CF911F910F91FF90EF90DF90EE
:100FA000CF90BF90AF900895282F30E0F901E4581A
:100FB000F94F9491F901E350F84F8491265D374F32
:100FC000F9012491222309F430C09923E9F09150CA
:100FD0009F30D0F4E92FF0E0E051F84F0C9438182E
:100FE0001E082208FF0716081A0804080408040847
:100FF00025082B082F083308390804083D0890916C
:1010000080009F7790938000E22FF0E0EE0FFF1FAB
:10101000E45EF74FA591B4919FB7F894EC916111FC
:1010200032C080958E238C939FBF0895909180004D
:101030009F7DE8CF90918000977FE4CF94B59F7714
:1010400094BDE2CF94B59F7DFBCF909190009F77A8
:1010500090939000D9CF909190009F7DF9CF90917F
:101060009000977FF5CF9091C0009F779093C0003C
:10107000CBCF9091C0009F7DF9CF9091C200977F18
:101080009093C200C1CF8E2BCECFCF93DF9390E051
:10109000FC01E350F84F2491865D974FFC01849149
:1010A0008823C9F090E0880F991FFC01E55BF84F99
:1010B000A591B491FC01E45EF74FC591D491611103
:1010C0000DC09FB7F8948C91209582238C938881D2
:1010D000282328839FBFDF91CF910895623051F478
:1010E0009FB7F8943C91822F809583238C93E8815D
:1010F0002E2BEFCF8FB7F894EC912E2B2C938FBF24
:10110000EACF3FB7F8948091C0019091C101A091BE
:10111000C201B091C30126B5A89B05C02F3F19F0AD
:101120000196A11DB11D3FBFBA2FA92F982F882767
:10113000BC01CD01620F711D811D911D42E0660F42
:10114000771F881F991F4A95D1F708958F929F9214
:10115000AF92BF92CF92DF92EF92FF924B015C0170
:101160000E9481086B017C010E9481086C197D0935
:101170008E099F09683E734081059105A8F321E01F
:10118000821A9108A108B10888EEC80E83E0D81E23
:10119000E11CF11C81149104A104B10429F7FF9012
:1011A000EF90DF90CF90BF90AF909F908F90089579
:1011B0008F929F92AF92BF92CF92DF92EF92FF9267
:1011C0000F931F93CF93DF936C017B018A01809172
:1011D0000B01882309F45CC08091EA01882309F49B
:1011E00057C08091DC0180FF05C08091E0008260E3
:1011F0008093E000E801B12C8AEFA82E93E0892EBD
:101200002AE3922E209711F4BB20D9F10E943C06CC
:1012100081110AC0AA94AA20D9F161E070E080E0AF
:1012200090E00E94A608EECF8C171D0611F00CF07E
:101230008C2F9FB7F8948092E9002091E80025FD5B
:1012400002C09FBFDFCF282F30E0C21BD30BF701B6
:10125000815020F041914093F100FACFE20EF31E4D
:10126000BB2021F09092E800B12CEBCF8091E800F8
:1012700085FDE7CF9092E800BB24B394209709F353
:10128000F3CF5D9884E68093DB01101611063CF0E5
:1012900081E090E0F6019383828310E000E0C801D2
:1012A000DF91CF911F910F91FF90EF90DF90CF9042
:1012B000BF90AF909F908F90089543B18FB129B1A7
:1012C00090E08095909534E0959587953A95E1F773
:1012D000887030E02095309553E0359527955A95E4
:1012E000E1F72370822B942F9095907D892B0895A0
:1012F000FC0121912EBD9C5F21910DB407FEFDCF15
:101300002EBDE817F907C1F70DB407FEFDCF08950C
:10131000CF92DF92EF92FF920F931F93CF93E82F1C
:10132000F0E0E75BF74FC491E62FF0E0603398F50B
:10133000E45BF94FE4910E2F10E0F12CE12C60E01A
:1013400074E284EF90E0A70198010E94B517215044
:1013500031094109510991E02115310581E0480722
:1013600051056CF060E970ED83E090E0A701980111
:101370000E94B517215031094109510993E0C1304C
:1013800089F0C330F9F0CF911F910F91FF90EF904A
:10139000DF90CF900895EE0FFF1FE45BFA4F0591A9
:1013A0001491CBCF80918100887F892B809381001D
:1013B000309389002093880080916F008260809331
:1013C0006F00E1CF80919100887F892B80939100FD
:1013D00030939900209398001093BE010093BD01B3
:1013E00081E08093BC0180917100826080937100E4
:1013F000CACFE82FF0E0E75BF74FE491E13019F056
:10140000E33089F0089580916F008D7F80936F00A5
:101410008091F701E091F801F091F90190818095B8
:101420008923808308951092BC018091F401E0919A
:10143000F501F091F601F2CFCF938091FA0182305D
:1014400081F0E82FF0E0E75BF74FC4918F5F809366
:10145000FA0161E089E00E944508C13021F0C33003
:1014600021F1CF9108951092800010928100809117
:1014700081008860809381008091810081608093E9
:101480008100E3E3F8E0E491F0E0EE0FFF1FE45E9B
:10149000F74F859194919093F9018093F801E6E0DC
:1014A000F8E0E491E093F701DCCF10929000109205
:1014B00091008091910088608093910080919100CB
:1014C000816080939100E3E3F8E0E491F0E0EE0FB7
:1014D000FF1FE45EF74F859194919093F6018093FE
:1014E000F501E6E0F8E0E491E093F4018091FA017F
:1014F000882321F06CE380E00E94880980E0CF918E
:101500000C94F90960387105E8F440345105D0F4C1
:10151000342F369536953695A0E83A9FF001112480
:10152000E60FF71FE80FF91F3489CA018770992762
:1015300041E050E001C0440F8A95EAF7222319F0F8
:10154000432B448B089540954323FBCF2F923F922A
:101550004F925F926F927F928F929F92AF92BF92C3
:10156000CF92DF92EF92FF920F931F93CF93DF936F
:10157000CDB7DEB72D970FB6F894DEBF0FBECDBF47
:101580006A3069F5FC01EA5EFB4FDC01A85EBB4FE7
:101590002C9148E0249F9001112440815181240F17
:1015A000351F3183208314971D921C922D960FB600
:1015B000F894DEBF0FBECDBFDF91CF911F910F9189
:1015C000FF90EF90DF90CF90BF90AF909F908F9063
:1015D0007F906F905F904F903F902F9008956D3067
:1015E00029F39D878C878C5E9B4F9A838983FC01AE
:1015F000808091802C853D85285E3B4F3C832B83EA
:1016000030E8831691040CF071C0EC85FD85EA5E2C
:10161000FB4F6080718040E4641671040CF066C07A
:10162000AB81BC814C9045E09401449E200D311D5E
:101630001124121613060CF059C0242C312C9101E0
:1016400053E0220F331F5A95E1F7260D371D12166E
:1016500013060CF04BC0649FB001112410E000E0B1
:10166000FB01E455FF4FFB87EA87E0E0053029F0F6
:10167000EA85FB85E00FF11FE491530198E0592EB4
:101680002E2F30E03E832D83E170EF83F12CE12C8F
:10169000E414D8F4C4018E0D9F1D99878887D12C3E
:1016A000C12CC41470F4A6014A0D5B1D2F816885FE
:1016B00079858C859D850E94820A9FEFC91AD90A77
:1016C000F0CFAFEFEA1AFA0AE3CFED81FE81F5958C
:1016D000E7955A94A20CB31C5110D2CF0F5F1F4F45
:1016E000820C931C0630110509F0BFCFEB81FC8101
:1016F0002081422F50E0A981BA818D919C91B6E062
:101700002B9F800D911D1124E981FA8191838083A3
:10171000EC85FD85E75EFB4F2081222309F446CF4F
:101720006AEF64039001659F300D112420583F4FEC
:10173000281739070CF03ACFAC85BD85ED91FC91A7
:1017400011970190F081E02D6AE0CD012D960FB642
:10175000F894DEBF0FBECDBFDF91CF911F910F91E7
:10176000FF90EF90DF90CF90BF90AF909F908F90C1
:101770007F906F905F904F903F902F9009940895C5
:1017800090E080E00895CF93C82F84E690E00E9417
:101790009F17C81731F06C2F84E690E0CF910C941E
:1017A000A717CF910895CF93DF930E944717CBE4FB
:1017B000D2E02EE130E040E050E00E94B5176F5FCC
:1017C0007F4F8F4F9F4F660F660F6B830E944717A7
:1017D0002EE030E040E050E00E94B5176F5F7F4F91
:1017E0008F4F9F4F660F660F6C83DF91CF910895E7
:1017F000FC0101900020E9F73197AF01481B590B1C
:10180000BC018EE494E00C94A7070E9452181F922A
:101810000F920FB60F9211248F939F938091E10046
:101820009091E100937F9093E10083FF0FC01092AD
:10183000E90091E09093EB001092EC0092E390931A
:10184000ED001092EA0198E09093F00082FF22C030
:1018500093E09093E9009091F200992319F09AE3B4
:101860009093E8009091DB01992341F09091DB0186
:1018700091509093DB01911101C05D9A9091E90123
:10188000992341F09091E90191509093E9019111D0
:1018900001C0289A84FF18C08091E2008E7E81608A
:1018A0008093E2008091E1008F7E8093E10080913F
:1018B000DC018E7E80618093DC019F918F910F907F
:1018C0000FBE0F901F90189580FFF7CF8091E20018
:1018D0008E7E80618093E2008091E1008E7E809315
:1018E000E1008091DC018E7E8160E5CF1F920F9236
:1018F0000FB60F921124CF92DF92EF92FF920F93C7
:101900001F932F933F934F935F936F937F938F9387
:101910009F93AF93BF93EF93FF93CF93DF93CDB795
:10192000DEB76C97DEBFCDBF1092E9008091E80072
:1019300083FF25C068E0CE0145960E949A0782EF9A
:101940008093E8008D8987FF39C09091E80090FF6F
:10195000FCCF982F907609F034C19E894F89588D1D
:101960002F89F88C911131C0803861F58091DA01AE
:101970008093F1001092F1008EEF8093E8006C9656
:101980000FB6F894DEBF0FBECDBFDF91CF91FF91B0
:10199000EF91BF91AF919F918F917F916F915F91E7
:1019A0004F913F912F911F910F91FF90EF90DF90FA
:1019B000CF900F900FBE0F901F9018959EEF9093B1
:1019C000E800C7CF1092F100D5CF913059F48111C2
:1019D000D3CF4130510581F68091DA018D7F80931C
:1019E000DA01CACF933049F48111C6CF4130510595
:1019F00019F68091DA018260F2CF953041F480913E
:101A0000E80080FFFCCF20682093E300B5CF96303C
:101A100009F0A9C00B8D1C8D22E01092E9001092F4
:101A2000D8011092D701F2122EC01092D601109256
:101A3000D5010E9469071F8299E09983FA8291E09B
:101A40009E8390EA98879AEF99872091D7013091E9
:101A5000D801275F3F4F3C832B838D831092E90091
:101A60001092D8011092D7011093D6010093D5019E
:101A700049E050E0BE016F5F7F4F80E00E94430766
:101A80000E94690779CF1093D6010093D5010E9477
:101A90004D06DC0112960D911C910115110509F4FA
:101AA00051C1D801ED91FC910480F581E02DBE017A
:101AB0006B5E7F4FC8010995009709F03EC1F801A0
:101AC00000851185EACFF3E0FF120EC08F898823CD
:101AD00009F440C0823061F440E867E081EE97E0AD
:101AE0000E941007811148CF81E28093EB0047CF1D
:101AF000813029F440E86BE085ED97E0F1CF833049
:101B000099F70E944D06DC011296ED90FC908E0133
:101B10000F5F1F4F6801E114F10479F0D701ED91D7
:101B2000FC910680F781E02DB801C7010995080FE7
:101B3000111DF701E084F184EECFD8011C92F6016B
:101B400001900020E9F73197BF016C197D0940E051
:101B5000C601C6CF6FEB77E0FB01449150E080E80F
:101B60000E94430709CF973009F4BECF983021F483
:101B700081E08093F10000CF993009F0FDCE8370B1
:101B800009F0B2CFE1E1F1E081E031E096E32191AB
:101B9000222371F08093E9003093EB00DF0111976D
:101BA0002C912093EC009093ED008F5F873079F7B4
:101BB0008EE78093EA001092EA008F898093EA0111
:101BC000DBCE8B8D9C8D1092E9001092D801109283
:101BD000D7019093D6018093D501898D811192C050
:101BE0008E899D89913A49F4813209F07DCF47E091
:101BF00050E064E071E080E0B3CF913209F074CF3F
:101C0000833269F48F89988DB0E0A0E08093000161
:101C100090930101A0930201B0930301ADCE8032F5
:101C200069F48091E80082FFFCCF67E084E091E0F6
:101C30000E949A078BEF8093E8009ECE823209F0D3
:101C40009BCE8F8980930B01EEEFFFE785919491F6
:101C50008B3F9C4D51F1E0E0F8E0809104019091C0
:101C60000501A0910601B0910701803B9440A105B8
:101C7000B105F1F480910B0180FD1AC0EE3F8AE0BE
:101C8000F80789F587E797E7918380838091600063
:101C90008093D90188E19BE00FB6F894A8958093D2
:101CA00060000FBE9093600067CEEEEFFAE0D5CFF4
:101CB000808191818737974709F05ECEA895809102
:101CC00060008861809360008091D90180936000FA
:101CD000EE3F2AE0F20789F08091FE0A9091FF0A18
:101CE0009183808349CE808191818737980751F213
:101CF0009093FF0A8093FE0AC5CF1092FF0A1092BC
:101D0000FE0A3ACE0E944D06DC0112960D911C91FE
:101D10000115110509F4E8CED801ED91FC9101906F
:101D2000F081E02DBE016B5E7F4FC80109958111E6
:101D300023CEF80100851185EBCF181619060CF497
:101D40001BCED2CEF1E0FF12BECE63EC77E004CF23
:101D50001F920F920FB60F9211242F933F938F93E0
:101D60009F93AF93BF938091F0019091F101A09167
:101D7000F201B091F3013091BF0123E0230F2D3721
:101D800058F50196A11DB11D2093BF018093F0016C
:101D90009093F101A093F201B093F3018091C001FF
:101DA0009091C101A091C201B091C3010196A11D02
:101DB000B11D8093C0019093C101A093C201B09363
:101DC000C301BF91AF919F918F913F912F910F9040
:101DD0000FBE0F901F90189526E8230F0296A11DA5
:101DE000B11DD2CF1F920F920FB60F9211242F93D5
:101DF0003F934F935F936F937F938F939F93AF9393
:101E0000BF93EF93FF938091BC01882349F08091A9
:101E1000F401E091F501F091F6019081892780832A
:101E20008091C401882309F456C08091B801909133
:101E3000B901A091BA01B091BB01892B8A2B8B2BE0
:101E400009F449C08091B8019091B901A091BA01FB
:101E5000B091BB010197A109B1098093B80190939A
:101E6000B901A093BA01B093BB01892B8A2B8B2BAC
:101E700091F5E091B601F091B701BF016F5F7F4F1F
:101E80007093B7016093B6012491922F907F822FB7
:101E90008F70903819F40E94F909EBCF903981F4D2
:101EA0003296F093B701E093B601FB0164919091F3
:101EB000FA018917F0F667FDDCCF0E948809D9CFB7
:101EC000903E29F41092B7011092B601D2CF903F04
:101ED00099F41092C401FF91EF91BF91AF919F913E
:101EE0008F917F916F915F914F913F912F910F90C3
:101EF0000FBE0F901F90189597FDBBCF3296F093B1
:101F0000B701E093B601FB016491A091BD01B091CE
:101F1000BE01322F262F0E9409186C507E4F8F4F22
:101F20009F4F28EE33E040E050E00E94E7172093F7
:101F3000B8013093B9014093BA015093BB0180912D
:101F4000B8019091B901A091BA01B091BB01892B60
:101F50008A2B8B2B09F0BFCF81E090E0A0E0B0E0AE
:101F60008093B8019093B901A093BA01B093BB01DB
:101F7000B2CF1F920F920FB60F9211248F939F939F
:101F8000AF93BF93EF93FF938091EF01882309F400
:101F900052C08091EB019091EC01A091ED01B091C4
:101FA000EE01892B8A2B8B2BA1F19091F701E09107
:101FB000F801F091F9018081892780838091EB01FC
:101FC0009091EC01A091ED01B091EE011816190667
:101FD0001A061B069CF48091EB019091EC01A091F4
:101FE000ED01B091EE010197A109B1098093EB01D8
:101FF0009093EC01A093ED01B093EE01FF91EF916E
:10200000BF91AF919F918F910F900FBE0F901F9036
:1020100018951092EF0180916F008D7F80936F0073
:102020008091F701E091F801F091F901908180959C
:1020300089238083E3CF9091F701E091F801F0913B
:10204000F90180818927F5CFEBEFF1E0138212824D
:1020500088EE93E0A0E0B0E084839583A683B78305
:102060008BE191E0918380838FEF9FEF9587848749
:10207000EEE4F4E0138212828DE291E0918380839A
:102080008CE3868380E18187108617821686178607
:10209000108A118A128A10926308109262081092B4
:1020A00065081092640881E0809366088093550269
:1020B0000895789484B5826084BD84B5816084BDC0
:1020C00085B5826085BD85B5816085BD80916E00D6
:1020D000816080936E001092810080918100826007
:1020E0008093810080918100816080938100809144
:1020F0008000816080938000809191008260809355
:102100009100809191008160809391008091900076
:102110008160809390008091C10084608093C100B1
:102120008091C10082608093C1008091C100816074
:102130008093C1008091C30081608093C30080912F
:10214000C00082608093C0008091C2008160809353
:10215000C20080917A00846080937A0080917A0036
:10216000826080937A0080917A00816080937A0007
:1021700080917A00806880937A001092EA01109230
:10218000DA011092DC018091D70081608093D70042
:1021900080EA8093D80089B5806189BD89B5826065
:1021A00089BD09B400FEFDCF61E070E080E090E001
:1021B0000E94A6088091D8008F7C80618093D8000F
:1021C0008091E000807F8093E0008091E1008E7E2E
:1021D0008093E1008DE08093E200559A209A68E8B0
:1021E00073E180E090E00E94A608CFB7F894809158
:1021F000C501811127C0EBE3F8E08491EEE0F8E03F
:102200009491E82FF0E0EE0FFF1FE55BF84FA591EA
:10221000B491EC91E92321F461E081E10E94D407BB
:1022200061E081E10E9445088CB580618CBD8CB570
:1022300080648CBD61E08FE00E94450861E080E130
:102240000E9445088091C5018F5F8093C501CFBF73
:10225000C6E6D7E0BE01FE0184916F5F7F4F2296F4
:10226000FB016491882319F00E944508F3CF61E0D7
:1022700086E10E94D40761E070E080E090E00E9477
:10228000A60860E086E10E94D4076AE070E080E082
:1022900090E00E94A60861E086E10E94D407E1E494
:1022A000F8E0E491F0E0EE0FFF1FE45EF74FA59138
:1022B000B4919C918091C901809589238C93E4E12C
:1022C000F8E0E491E093C901EFE3F8E0E491F0E095
:1022D000EE0FFF1FE45EF74F859194919093C80134
:1022E0008093C701E2E1F8E0E491E093C6018CB588
:1022F0008C7F8CBD8DB581608DBDE091C701F09163
:10230000C80190818091C601809589238083E9E589
:10231000F7E086E697E08E179F0749F024912EBDDF
:1023200000000DB407FEFDCF2EB53196F4CFE0913D
:10233000C701F091C80180819091C601892B8083EB
:102340008091640081608093640080916400826069
:102350008093640080916400806880936400809121
:102360006400806480936400809165008160809344
:1023700065000E945D0983FF0BC080E094E01EBCF5
:1023800000000DB407FEFDCF2EB50197C1F7FFCFBA
:10239000CEEEDFEF0E940E0590E1E92E08E52BE975
:1023A00036E0AE0164E170E08EE494E00E945104F6
:1023B00082E694E00E9478096BE170E080E090E0B2
:1023C0000E94A608C03F31F46AEF70E080E090E020
:1023D0000E94A6082196C931D105E1F66EEE72E0A1
:1023E00080E090E00E94A6080E941C0A0E941C0A3D
:1023F0001092C40182E090E00E949F17882351F060
:1024000080916400877F8093640080916500877F5E
:102410008093650084E690E00E949F178093D4012A
:102420008F3F29F41092D40180E00E94C30B1092D8
:10243000D30183E080934D02109252021092530216
:102440008EE494E090934D0480934C0480E6809356
:102450004B0210924C0289E180935602109257026F
:1024600080E090915602891708F454C0CAEFD0E07A
:1024700012E0812E912CA12CB12C0EE4602E04E0F0
:10248000702E8AE0282E312CB9E14B2E512C8091F0
:102490005302882309F4E3C081E08093540488EE5A
:1024A00080935704809152029091D401981720F4A0
:1024B0008093D4010E94C30B0E945D0980FF37C046
:1024C0001092D30183E080934D0210925202109239
:1024D000530270924D0460924C0480E680934B024C
:1024E00010924C0289E1809356021092570280E0CC
:1024F00090915602891708F093C2E82FF0E0EE0F92
:10250000FF1FE85AFD4F982F990F990F9083118262
:102510008F5FEECFE82FF0E0EE0FFF1FE85AFD4F80
:10252000982F990F990F908311828F5F9ACF0E94F5
:102530007505882309F457C40E940E0582E0809334
:102540006608309263082092620882E090E09093DF
:1025500065088093640885E391E00E94F80B81E0B0
:102560008093660873E1E72EF12CF0926308E09205
:10257000620850926508409264088FE391E00E94DF
:10258000F80BEBE5CE2ED12CD0926308C0926208F6
:102590005092650840926408809152021F928F9376
:1025A0000CE411E01F930F938FEC91E09F938F93B6
:1025B0000E9457188FEC91E00E94F80BF09263088C
:1025C000E0926208F8E2EF2EF12CF0926508E092BA
:1025D000640881E591E00E94F80BD0926308C092F4
:1025E0006208F0926508E09264088091D4011F921D
:1025F0008F931F930F938BEC91E09F938F930E9487
:1026000057188BEC91E00E94F80B8091CA0190E082
:1026100001962DB73EB7245F3F4F0FB6F8943EBFEB
:102620000FBE2DBF66E070E00E9424188093CA019F
:10263000833080F487E090E0909363088093620891
:1026400087E390E090936508809364088DE591E0BE
:102650000E94F80B82E694E00E947809C4C31091AE
:10266000D301113009F01BC10E945D0983FF39C0FD
:1026700010924D020E947505882309F4B4C390910D
:102680004D0280914C029111A7C0845080934C025E
:1026900000915602E091570240914B0210914C027A
:1026A00030E020E0F0E0201708F0B7C2CF01820F41
:1026B000931FBE010E942418DC01AA0FBB1FA55B5B
:1026C000BD4F1D965C91451309C0880F991FDC0111
:1026D000A75ABD4F8C91181709F4A7C22F5F3F4F1F
:1026E000E2CF0E945D0981FF03C010934D02C2CF6B
:1026F0000E945D0987FF04C082E080934D02BACF3B
:102700000E945D0986FF02C083E0F7CF0E945D0949
:1027100084FF56C01093660880915502882349F1C2
:10272000109255028CE190E09093630880936208C8
:10273000109265081092640881E791E00E94F80BFE
:1027400082E290E09093630880936208109265089B
:10275000109264088EE791E00E94F80B82E694E004
:102760000E94780968EE73E080E090E00E94A6087D
:1027700081CF109355028FE190E09093630880938E
:102780006208109265081092640882E791E00E9446
:10279000F80B85E290E090936308809362081092B2
:1027A00065081092640889E891E00E94F80B48ECF3
:1027B00050E060E070E088EE93E00E94CE05CECF5E
:1027C0000E945D0980FF56CF82E08093D30168ECC0
:1027D00070E080E090E0CACF913011F48C5F56CF6A
:1027E00080914B02923021F4845080934B0250CF61
:1027F0008C5FFBCF20838183809156028F5F809313
:102800005602809152028F5F8093520263E00E94D1
:102810001818911116C0809154028D3090F48F5F7A
:102820008330D9F180935402E0914C04F0914D042F
:1028300060915402668370E088EE93E00E94241851
:1028400061870E94D30B80915502882309F43FC20F
:1028500042E350E060E070E084EF91E00E94CE053A
:1028600060E570E080E090E00E94A60842E350E05E
:1028700060E070E080E293E00E94CE0560E570E0E9
:1028800080E090E00E94A60844E650E060E070E03E
:102890008CE494E00E94CE051AC284E0C3CF1230CB
:1028A00009F076C00E945D0980FF09C081E0809335
:1028B000D30168EC70E080E090E00E94A6080E94DE
:1028C0007505882309F48FC206E110E092E1E92E34
:1028D000F12C20E0A701B8018EE494E00E94820A66
:1028E0003FEFE31AF30A8EE2E816F10491F70F5F67
:1028F0001F4F0A36110551F707E110E021E043E1CF
:1029000050E0B8018EE494E00E94820A0F5F1F4FEE
:102910000936110599F707E110E021E04CE250E09B
:10292000B8018EE494E00E94820A0F5F1F4F0936BF
:10293000110599F703E110E021E0A80167E170E0DB
:102940008EE494E00E94820A0F5F1F4F0D32110542
:1029500099F703E110E021E0A80168E670E08EE459
:1029600094E00E94820A0F5F1F4F0D32110599F704
:1029700082E080936608EDE1F0E0F0936308E09375
:102980006208509265084092640883E991E060CE45
:1029900084E18093540482E3809357040E945D098C
:1029A00080FF45C091E09093D30183E080934D0276
:1029B000109252021092530270924D0460924C0495
:1029C00028E420934B0280E280934C0235E0309360
:1029D00056021092570238E33093580280935902FE
:1029E0003CE330935A0280935B0230E430935C0204
:1029F00080935D0234E430935E0280935F02209303
:102A0000600280936102909354029093540488EE84
:102A10008093570470925102609250020E94D30B2F
:102A200068EC70E080E090E00E94A608DCC10E94A3
:102A30007505882309F4D7C190914B0280914C020F
:102A400010914D029C3709F0A6C0811163C013306C
:102A500009F059C081E080934D0284E080934C02DC
:102A600020914C0230914B02809157029091560276
:102A7000890F9927991FBE010E942418FC01EE0FAF
:102A8000FF1FE85AFD4F308321838091570290E069
:102A90000196BE010E942418809357020E940E05E1
:102AA00082E08093660830926308209262082BE0EF
:102AB00030E030936508209364088AE991E00E9431
:102AC000F80B81E0809366088091CA0190E001963E
:102AD0006EE170E00E9424188093CA018F3080F468
:102AE00080E190E09093630880936208ECE2F0E06C
:102AF000F0936508E093640884EA91E00E94F80B83
:102B00000E941D05A7CD82E080934D0288E7809347
:102B10004B02A6CF8032B1F5133081F40E944717E3
:102B2000A50194010E94B51780914C02662309F417
:102B30004FC091E090934D028C5F90CF113071F4B3
:102B40000E944717A50194010E94B517662399F0CA
:102B500081E080934D0280914C02EECF0E94471796
:102B6000A50194010E94B517662329F010924D0229
:102B700080914C022FC082E080934D0280914B02E5
:102B80008450C5CF8C33E1F5113009F4BCCF1092DD
:102B90004D0288E363CF911133C08C3339F4123086
:102BA000B1F383E080934D0284E0B1CF803219F518
:102BB000123009F4B3CF113079F40E944717A50100
:102BC00094010E94B517662379F010934D02C3CF8C
:102BD00010924D02845042CF0E944717A5019401E4
:102BE0000E94B5176111C2CF83E080934D0280919E
:102BF0004B028C5F8CCF811103C0123091F62ACF2B
:102C0000112341F3113009F497CF123021F494507D
:102C100090934B0225CF9C5FFBCF442331F04C3780
:102C200021F0112311F01C3359F581E080935302F8
:102C300080915502882321F140E550E060E070E08A
:102C40008CE494E00E94CE0564E670E080E090E0C1
:102C50000E94A60840E550E060E070E088EE93E056
:102C60000E94CE0564E670E080E090E00E94A60835
:102C700044EF51E060E070E084EF91E00E94CE0507
:102C800020914B0230914C02809157029091560254
:102C9000890F9927991FBE010E942418FC01EE0F8D
:102CA000FF1FE85AFD4F80914E02281305C0809106
:102CB0004F02831709F49ECD208331838091570200
:102CC00090E00196BE010E942418809357028091E3
:102CD0005302811188C00E940E0502E010E021E03D
:102CE00042E050E0B8018EE494E00E94820A0F5F57
:102CF0001F4F0E37110599F702E010E021E04DE378
:102D000050E0B8018EE494E00E94820A0F5F1F4FEA
:102D10000E37110599F702E010E021E0A80162E00A
:102D200070E08EE494E00E94820A0F5F1F4F0E3322
:102D3000110599F702E010E021E0A8016DE770E0CD
:102D40008EE494E00E94820A0F5F1F4F0E3311053C
:102D500099F781E080936608E1E3F0E0F09363087F
:102D6000E0936208109265081092640888E791E089
:102D70000E94F80B27E330E0309363082093620849
:102D80001092650810926408809152021F928F93EE
:102D90008CE491E09F938F938FEC91E09F938F93BE
:102DA0000E9457188FEC91E00E94F80B0E941D05BD
:102DB00040914F0250E060914E0270E024E0E22E1C
:102DC00004E029E737E080915002909151020E947F
:102DD000510482E694E00E9478090F900F900F90C2
:102DE0000F900F900F9080E090E0892B09F44FCB6B
:102DF0000E94000049CB8F929F92AF92BF92CF92D8
:102E0000DF92EF92FF92CF93DF93EC01688179819B
:102E10008A819B81611571058105910521F464E228
:102E200079ED8BE597E02DE133EF41E050E00E9432
:102E3000B51749015A019B01AC01A7EAB1E40E9410
:102E4000D4176B017C01ACEEB4EFA50194010E9494
:102E5000E217C60ED71EE81EF91EF7FE06C081E077
:102E6000C81AD108E10880E8F80AC882D982EA8243
:102E7000FB82C701B6019F77DF91CF91FF90EF9062
:102E8000DF90CF90BF90AF909F908F9008958F92DA
:102E90009F92AF92BF92CF92DF92EF92FF9260919A
:102EA0000C0170910D0180910E0190910F0161153F
:102EB00071058105910521F464E279ED8BE597E0D8
:102EC0002DE133EF41E050E00E94B51749015A016E
:102ED0009B01AC01A7EAB1E40E94D4176B017C010D
:102EE000ACEEB4EFA50194010E94E217C60ED71E06
:102EF000E81EF91EF7FE06C081E0C81AD108E108F5
:102F000080E8F80AC0920C01D0920D01E0920E0107
:102F1000F0920F01C701B6019F77FF90EF90DF900D
:102F2000CF90BF90AF909F908F90089560930C01C9
:102F300070930D0180930E0190930F010895F999FC
:102F4000FECF92BD81BDF89A992780B50895262FAE
:102F5000F999FECF1FBA92BD81BD20BD0FB6F8947E
:102F6000FA9AF99A0FBE01960895052E97FB1EF462
:102F700000940E94CC1757FD07D00E94E71707FC6A
:102F800003D04EF40C94CC17509540953095219574
:102F90003F4F4F4F5F4F0895909580957095619585
:102FA0007F4F8F4F9F4F08950E940918A59F900D46
:102FB000B49F900DA49F800D911D11240895B7FF1B
:102FC0000C94D4170E94D417821B930B0895A1E28E
:102FD0001A2EAA1BBB1BFD010DC0AA1FBB1FEE1F93
:102FE000FF1FA217B307E407F50720F0A21BB30BDE
:102FF000E40BF50B661F771F881F991F1A9469F75A
:1030000060957095809590959B01AC01BD01CF01B5
:103010000895A29FB001B39FC001A39F700D811DB1
:103020001124911DB29F700D811D1124911D0895D1
:10303000991B79E004C0991F961708F0961B881F0A
:103040007A95C9F78095089597FB072E16F400949A
:1030500007D077FD09D00E943E1807FC05D03EF44A
:10306000909581959F4F0895709561957F4F089534
:10307000EE0FFF1F0590F491E02D0994AA1BBB1BD6
:1030800051E107C0AA1FBB1FA617B70710F0A61B68
:10309000B70B881F991F5A95A9F780959095BC0189
:1030A000CD01089581E090E0F8940C942F1BAEE0E0
:1030B000B0E0EDE5F8E10C94061B0D891E8986E071
:1030C0008C831A8309838FEF9FE79E838D83AE01E4
:1030D000475E5F4F6F89788DCE0101960E947A1806
:1030E0002F813885020F131FF80110822E96E4E01D
:1030F0000C94221BABE0B0E0E0E8F8E10C94F81A85
:103100007C013B018A01FC0117821682838181FFC9
:10311000C8C1CE0101965C01F7019381F30193FDD3
:10312000859193FF81913F01882309F453C1853232
:1031300039F493FD859193FF81913F01853229F404
:10314000B70190E00E946A1AE7CF912C212C312C14
:10315000FFE1F31538F08B3211F190F4803209F170
:10316000833229F137FC3CC020ED280F2A3050F57E
:1031700036FE20C08AE0989E200D1124922E06C0B3
:103180008D3291F0803371F7689430F8F30193FD3C
:10319000859193FF81913F018111DACF21C068941D
:1031A00031F8689432F8F2CF689433F8EFCF68942E
:1031B00034F8ECCFEAE02E9E200D1124222E6894E4
:1031C00035F8E4CF8E3229F436FC04C1689436F821
:1031D000DDCF8C3619F4689437F8D8CF8836B1F241
:1031E000982F9F7D95549330E0F08336A1F183377B
:1031F000C1F1833509F063C02801F2E04F0E511C84
:10320000F801C080D180692D70E036FC02C06FEFFC
:103210007FEFC6010E94541A4C01689437F882016E
:103220000AC00C5F1F4FFFE3F98388248394912C1D
:103230006501E89437F833FE2DC0522C81149104B7
:1032400071F5552009F468CFB70180E290E00E9443
:103250006A1A5A94F6CFF801808189830E5F1F4F56
:10326000E4CF2801F2E04F0E511CF801C080D1805C
:10327000692D70E036FC02C06FEF7FEFC6010E943F
:103280005F1A4C018201D5CFB70180E290E00E9425
:103290006A1A2A942814190409F0B0F7CECFF6015F
:1032A00037FC859137FE81916F01B70190E00E9454
:1032B0006A1A51105A94F1E08F1A9108BFCF8436E0
:1032C00019F0893609F077C0F80137FE6BC06081CC
:1032D0007181828193810C5F1F4FF32DFF763F2E0A
:1032E00097FF09C090958095709561957F4F8F4F9E
:1032F0009F4F689437F82AE030E0A5010E949A1A9F
:10330000C82ECA188C2C432C36FE0CC0E89440F80A
:10331000C91440F434FE05C032FC03C0F32DFE7E18
:103320004F2E892C44FE95C0FE01EC0DF11D8081CD
:10333000803309F087C0242D297E422E842D887089
:10334000582E43FC95C040FE8FC09C2C821418F46C
:103350002C0C922C981844FE91C0B70180E390E0A9
:103360000E946A1A42FE09C088E790E041FE02C04E
:1033700088E590E0B7010E946A1AC91408F48AC06F
:10338000CA94D12C9FEFC91AD90ACA0CDB1CF601CA
:1033900082916F01B70190E00E946A1AAC14BD04DB
:1033A000B1F74FCF60817181072E000C880B990B0C
:1033B0000E5F1F4F92CFD32CE894D4F82AE030E070
:1033C000853739F1232D297FD22E8F3601F148F42C
:1033D0008835A9F0F701868197812B96E2E10C945C
:1033E000141B803749F08837A9F7D4FE02C06894CF
:1033F000D2F820E130E00DC06894D4F8F6CF34FE66
:1034000003C0822F8660D82E20E132E002C028E07F
:1034100030E0F801D7FE0FC0608171818281938115
:103420000C5F1F4FA5010E949A1AC82ECA183D2C86
:10343000E89437F867CF6081718190E080E00E5F9B
:103440001F4FF0CF42FC02C0839478CF83948394C3
:1034500075CF842D867809F471CFF6CFB70180E25D
:1034600090E00E946A1A83948214C0F3512C73CFA7
:10347000522C5818821408F46ECFF8CF842D867819
:1034800009F47BCF8BE241FE80E247FC8DE2B7017D
:1034900090E071CFB70180E390E00E946A1A9A949D
:1034A0006CCF8FEF9FEF99CFFC010590615070407A
:1034B0000110D8F7809590958E0F9F1F0895FC01FD
:1034C0006150704001900110D8F7809590958E0F53
:1034D0009F1F08950F931F93CF93DF93182F092FEA
:1034E000EB018B8181FD09C01FEF0FEF812F902F22
:1034F000DF91CF911F910F91089582FF14C02E810B
:103500003F818C819D81281739073CF4E881F9813E
:10351000CF0101969983888310838E819F810196C4
:103520009F838E83E3CFE885F985812F0995892BC9
:10353000A1F3DACFFA01AA27283051F1203181F125
:10354000E8946F936E7F6E5F7F4F8F4F9F4FAF4FAB
:10355000B1E03ED0B4E03CD0670F781F891F9A1FBE
:10356000A11D680F791F8A1F911DA11D6A0F711D72
:10357000811D911DA11D20D009F468943F912AE07E
:10358000269F11243019305D3193DEF6CF01089566
:10359000462F4770405D4193B3E00FD0C9F7F6CF97
:1035A000462F4F70405D4A3318F0495D31FD40525F
:1035B000419302D0A9F7EACFB4E0A69597958795F5
:1035C00077956795BA95C9F70097610571050895D4
:1035D0009B01AC010A2E0694579547953795279580
:1035E000BA95C9F7620F731F841F951FA01D089518
:1035F0002F923F924F925F926F927F928F929F9203
:10360000AF92BF92CF92DF92EF92FF920F931F93F0
:10361000CF93DF93CDB7DEB7CA1BDB0B0FB6F894A1
:10362000DEBF0FBECDBF09942A88398848885F84E1
:103630006E847D848C849B84AA84B984C884DF8052
:10364000EE80FD800C811B81AA81B981CE0FD11D36
:103650000FB6F894DEBF0FBECDBFED010895F8940C
:02366000FFCF9A
:10366200FFFFFFFF00E1000000000000010000007A
:1036720000C18081000000000000006106D80882BD
:10368200067706C8068606A40600000000A60AA75A
:1036920007C00BBF0B47414D45204F5645520059BD
:1036A2006F75722073636F72653A2000253033752F
:1036B20000486967682073636F72653A00507265EB
:1036C2007373204220746F20636F6E74696E756528
:1036D2000020202020202020202020202000536FA6
:1036E200756E643A204F464600536F756E643A20F9
:1036F2004F4E005041555345440041524455534E9C
:10370200414B45005072657373204220746F2073E1
:06371200746172740000F6
:00000001FF
