:100000000C9410060C9438060C9438060C943806A0
:100010000C9438060C9438060C9438060C94380668
:100020000C9438060C9438060C94BD0E0C942C0FCE
:100030000C9438060C9438060C9438060C94380648
:100040000C9438060C9438060C9438060C94380638
:100050000C9438060C9438060C9438060C945E11F7
:100060000C9438060C9438060C9438060C94380618
:100070000C9438060C9438060C9438060C94380608
:100080000C94A8110C9438060C9438060C9438067D
:100090000C9438060C9438060C9438060C943806E8
:1000A0000C9438060C9438060C94380600000000B6
:1000B000003E5B4F5B3E3E6B4F6B3E1C3E7C3E1CEE
:1000C000183C7E3C181C577D571C1C5E7F5E1C0034
:1000D000183C1800FFE7C3E7FF0018241800FFE7EB
:1000E000DBE7FF30483A060E2629792926407F05AE
:1000F0000507407F05253F5A3CE73C5A7F3E1C1CC4
:1001000008081C1C3E7F14227F22145F5F005F5F83
:1001100006097F017F006689956A6060606060946F
:10012000A2FFA29408047E040810207E2010080874
:100130002A1C08081C2A08081E101010100C1E0C7F
:100140001E0C30383E3830060E3E0E060000000011
:100150000000005F00000007000700147F147F14F8
:10016000242A7F2A1223130864623649562050003D
:1001700008070300001C2241000041221C002A1C29
:100180007F1C2A08083E0808008070300008080814
:100190000808000060600020100804023E51494534
:1001A0003E00427F400072494949462141494D3352
:1001B0001814127F1027454545393C4A49493141B9
:1001C000211109073649494936464949291E000087
:1001D00014000000403400000008142241141414DC
:1001E0001414004122140802015909063E415D59C8
:1001F0004E7C1211127C7F494949363E41414122D1
:100200007F4141413E7F494949417F090909013EFA
:10021000414151737F0808087F00417F4100204021
:10022000413F017F081422417F404040407F021C33
:10023000027F7F0408107F3E4141413E7F0909094A
:10024000063E4151215E7F09192946264949493216
:1002500003017F01033F4040403F1F2040201F3FDC
:100260004038403F63140814630304780403615961
:10027000494D43007F4141410204081020004141A3
:10028000417F04020102044040404040000307084F
:100290000020545478407F2844443838444444284B
:1002A000384444287F385454541800087E090218F2
:1002B000A4A49C787F0804047800447D400020407A
:1002C000403D007F1028440000417F40007C0478BE
:1002D00004787C080404783844444438FC18242406
:1002E0001818242418FC7C08040408485454542486
:1002F00004043F44243C4040207C1C2040201C3C03
:100300004030403C44281028444C9090907C4464F9
:10031000544C44000836410000007700000041368C
:10032000080002010204023C2623263C1EA1A16112
:10033000123A4040207A3854545559215555794144
:100340002154547841215554784020545579400C1B
:100350001E527212395555555939545454593955FC
:100360005454580000457C410002457D420001453F
:100370007C40F0292429F0F0282528F07C545545AC
:10038000002054547C547C0A097F4932494949323F
:100390003248484832324A4848303A4141217A3A54
:1003A00042402078009DA0A07D39444444393D401E
:1003B00040403D3C24FF2424487E4943662B2FFCCB
:1003C0002F2BFF0929F620C0887E09032054547979
:1003D000410000447D413048484A32384040227A4A
:1003E000007A0A0A727D0D19317D2629292F2826C7
:1003F0002929292630484D402038080808080808CF
:100400000808382F10C8ACBA2F102834FA00007B27
:10041000000008142A142222142A1408950022002D
:1004200095AA005500AAAA55AA55AA000000FF00E7
:10043000101010FF00141414FF001010FF00FF1024
:1004400010F010F0141414FC001414F700FF000056
:10045000FF00FF1414F404FC141417101F10101FD5
:10046000101F1414141F00101010F0000000001FC3
:10047000101010101F10101010F010000000FF10CE
:100480001010101010101010FF10000000FF1400CA
:1004900000FF00FF00001F10170000FC04F41414FC
:1004A0001710171414F404F40000FF00F7141414C8
:1004B00014141414F700F7141414171410101F1048
:1004C0001F141414F4141010F010F000001F101F6B
:1004D0000000001F14000000FC140000F010F010D9
:1004E00010FF10FF141414FF141010101F00000050
:1004F00000F010FFFFFFFFFFF0F0F0F0F0FFFFFF54
:100500000000000000FFFF0F0F0F0F0F38444438AA
:10051000447C2A2A3E147E02020606027E027E02E5
:1005200063554941633844443C04407E201E200604
:10053000027E020299A5E7A5991C2A492A1C4C7241
:1005400001724C304A4D4D303048784830BC625AC8
:10055000463D3E494949007E0101017E2A2A2A2A58
:100560002A44445F444440514A444040444A514034
:100570000000FF0103E080FF000008086B6B0836F5
:1005800012362436060F090F060000181800000066
:100590001010003040FF0101001F01011E00191D55
:1005A0001712003C3C3C3C0000000000F0F89C8E20
:1005B0008783878E9CF8F00000FEFF03030303038C
:1005C000070EFCF80000FEFF0303030303070EFC05
:1005D000F80000FFFF00000000000000FFFF000027
:1005E000FEFF8383838383C7EE7C380000F8FC0E14
:1005F00007030303070EFCF800003F7FE0C0808084
:10060000C0E07F3FFFFF01010101010101FFFF0089
:1006100000FFFF0C0C0C0C1C3E77E3C100007FFFB9
:10062000C0C0C0C0C0E0703F1F00001F3F70E0C0EE
:10063000C0C0E0703F1F00007FFFC1C1C1C1C1E366
:10064000773E1C00001F3F70E0C0C0C0E0703F1F3D
:10065000000000000001FFFF01000000D5F08D1434
:10066000A1C881CFD9F1AF20000000000000000038
:10067000000000000000000000000000000000007A
:1006800000000000000000000001800001FFFFFFEB
:10069000FFFFFFFFFF80000180014000010000001C
:1006A0000000000000800002800120000100000026
:1006B00000000000008000048001980001003FFF5E
:1006C000FFFC0000008000198000CE0001003FFF09
:1006D000FC000000008000730000F38001003FF880
:1006E00000000000008001CF00013CE00100380064
:1006F000000000000080073C80018E300100383986
:10070000F9B9B98300800C718000C3100100383B37
:10071000FDFDFDC7008008C30000F05001003F3917
:10072000FDFDFCC600800A0F0000789801003F38EC
:100730001DDDDCEE0080191E00004CC801003F38B2
:100740001DDDDC7E00801332000063CC01003839EF
:10075000FDFDFC3C008033C6000030660100383BE4
:10076000FDFDFC3C0080660C00003CEB8100383B4A
:10077000FDF9F8380081D73C00002FB8E100383B84
:100780009DC1C03800871DF40000333A1900383B82
:10079000FDC1C03800985CCC00001E6C0F00383BD7
:1007A000FDC1C07000F03678000017C489003839E8
:1007B000EDC1C1F0009123E80000198F27003838FF
:1007C000018183C000E4F19800000F39DB00383963
:1007D000FFFFFF8000DB9CF0000007F33700000004
:1007E000007FFE0000ECCFE0000000C36B000000C3
:1007F0000000000000D6C300000000FECF00000093
:100800000000000000F37F000000007B9300003F29
:10081000C001DC0000C9DE00000000031700003F3B
:10082000E001DC0000E8C000000000002F00003FF5
:10083000F001DC0000F40000000000007900003846
:100840007801DC00009E000000000000310000384C
:100850003801DC00008C00000000000001000038BE
:100860003801DC00008000000000000001000038BA
:1008700031F9DC0000800000000000000100003FB2
:10088000F3FDDC0000800000000000000100003FDC
:10089000E1FDDC0000800000000000000100003FDE
:1008A000F01DDC00008000000000000001000038A6
:1008B000381DDC000080000000000000010000384E
:1008C00039FDDC000080000000000000010000385D
:1008D0003BFDDC000080000000000000010000384B
:1008E0003BFDDC000080000000000000010000383B
:1008F0007B9DDC0000800000000000000100003F44
:10090000FBFDDC0000800000000000000100003F53
:10091000F3FDDC0000800000000000000100003F4B
:10092000E1EDDC000080000000000000010000009C
:100930000000000000800000000000000100000036
:100940000000000000800000000000000100000026
:1009500000000000008000000000000001FFFFFF19
:10096000FFFFFFFFFF80000000000000000000000C
:100970000000000000000000000000000000000077
:100980000000000000000000000000000000000067
:100990000000000000000000000000000000000057
:1009A0000000000000000000000000000000000047
:1009B0000000000000000000000000000000000037
:1009C0000000000000000000000000000000000027
:1009D0000000000000000000000000000000000017
:1009E0000000000000000000000000000000000007
:1009F00000000000000000000000000000000000F7
:100A000000000000000000000000000000000000E6
:100A100000000000000000000000000000000000D6
:100A200000000000000000000000000000000000C6
:100A300000000000000000000000000000000000B6
:100A400000000000000000000000000000000000A6
:100A50000000000000000000000000000000000096
:100A60000000000000000000000B02F4010601F489
:100A7000014A01F401B801F4018801F4010601F40E
:100A8000010B02F4010601F4014A01F401B801F47A
:100A9000018801F4010601F401B801F401DC00F45D
:100AA000010601F4015D01F4012601F401DC00F40A
:100AB00001B801F401DC00F4010601F4018801F43D
:100AC000012601F4015D01F4010B02D0070080FF53
:100AD00080003FC3FC07F80080FFFFE04207FC0FE7
:100AE000F08083002042044C0810808300244204DC
:100AF0004C88108FF3002442644C88108903232013
:100B000042644C09908903232042644C0990890374
:100B1000232042644C09F089132321C2644C39001C
:100B200089132327C2040CF9008103232042040CFB
:100B300009008103232042060C0900FFFFFFFFC3C9
:100B4000FDF7FF0000000000000000000006012C7F
:100B500001930096000000960083009600C400EE0A
:100B60000226018403F7002500C4002500A5002506
:100B700000830025006E0025005700250049002550
:100B8000003E00F401008006011F0015011F002631
:100B9000011F000080DC034B002705E10000802ED0
:100BA000006B000601F4010080080B000202020045
:100BB00000090400000102020000052400100105E4
:100BC0002401010104240206052406000107058111
:100BD0000310004009040100020A0000000705029A
:100BE00002400000070583024000000403090412CC
:100BF000010002EF0201404123368000010102039F
:100C00000141726475696E6F204C4C4300417264FF
:100C100075626F7900010204081020408000801284
:100C200011241FBECFEFDAE0DEBFCDBF11E0A0E0A0
:100C3000B1E0E6E5F2E302C005900D92A438B107F9
:100C4000D9F726E0A4E8B1E001C01D92A334B207B1
:100C5000E1F716E0C0E1D6E004C02197FE010E9452
:100C60001E19CF30D107C9F70E94C5120C9429195B
:100C70000C94000080919A010895480F592F511D3E
:100C8000141615066CF597FF02C090E080E041381D
:100C9000510514F040E850E0481BFB01E770FF27C6
:100CA00021E001C0220FEA95EAF777FF02C0695FF1
:100CB0007F4FFB0133E0F595E7953A95E1F7F6951F
:100CC000FE2FEE27F795E795E80FF91FEB53FE4F40
:100CD000415030F08191DF011197822B8C93F8CF36
:100CE000089580389105B0F46034710598F4E5E119
:100CF000FCE090E1969FD001A0781124A80F6770C6
:100D0000E60FF11D9491AB53BE4F442321F08C911B
:100D1000982B9C93089590958C919823FACF2F92BD
:100D20003F924F925F926F927F928F929F92AF927B
:100D3000BF92CF92DF92EF92FF920F931F93CF93C8
:100D4000DF93EC018B017A016901C61AD70AD7FE3D
:100D500003C0D194C194D10847018C1A9D0A97FE13
:100D600003C09194819491088C149D0454F49E2D99
:100D70008F2D7901292F382F9C2F8D2FE801092FD6
:100D8000182FEC16FD0654F4902F812F8901292F7E
:100D9000382F9C2F8D2FE701E92EF82E17012C1AE2
:100DA0003D0A2901401A510A57FE03C0519441944B
:100DB0005108310137FE03C08FEF681A780A759425
:100DC00067948FEF021713070CF481E0A82E880FA9
:100DD000BB08EC16FD06A4F041E0BE01C8018C146E
:100DE0009D0414F0B801CE010E94710664187508C4
:100DF00077FE04C00A0D1B1D620C731C2196E9CFFF
:100E0000DF91CF911F910F91FF90EF90DF90CF90E6
:100E1000BF90AF909F908F907F906F905F904F901A
:100E20003F902F9008952F923F925F926F927F9202
:100E30008F929F92AF92BF92CF92DF92EF92FF92EA
:100E40000F931F93CF93DF9300D000D0CDB7DEB7C1
:100E50009C838B83562EBC016C5F7F4F452D80E2B7
:100E600090E00E9471066B817C8164507109452D70
:100E700080E290E00E947106452D6B817C8184E2C6
:100E800090E00E947106452D6B817C818CE190E0A1
:100E90000E94710681E090E09A838983F12CE12C15
:100EA00004E010E028EF222E33243A943DEFC32EC5
:100EB000DD24DA948FEFE81AF80A89819A81029684
:100EC0009A838983C80ED91E470190E2890E911C2E
:100ED000452DAB80BC80A00EB11EB501C4010E949F
:100EE000710680E2682E712C6E187F08452DB501C1
:100EF000C3010E947106452DAB80BC80A01AB10AC7
:100F0000B501C4010E947106452DB501C3010E94BF
:100F10007106AB80BC80AE0CBF1C452DB5014801ED
:100F200080E2880E911CC4010E947106452DB50116
:100F300090E2692E712C601A710AC3010E94710639
:100F4000AB80BC80AE18BF08452DB501C4010E941E
:100F50007106452DB501C3010E947106E016F10628
:100F6000B4F00F900F900F900F90DF91CF911F91E1
:100F70000F91FF90EF90DF90CF90BF90AF909F9038
:100F80008F907F906F905F903F902F900895D7FC47
:100F900091CF0150110992E0290E311CC20CD31CD3
:100FA00089CF8F929F92AF92BF92CF92DF92EF92B2
:100FB000FF920F931F93CF93DF935C01EB01042FFC
:100FC000E22E6034710510F40E943D06EC0EFD2EF9
:100FD000F11CB701615071096034710520F4402F94
:100FE000C5010E943D06D7FF02C0D0E0C0E04E011F
:100FF000670181E4E816F1041CF080E4C82ED12CCE
:101000008C149D044CF441E0B401C5010E947106AA
:101010008FEF881A980AECCF0A0D1B2D111D015075
:101020001109CC15DD053CF441E0BE01C8010E9468
:1010300071062196F6CFDF91CF911F910F91FF900E
:10104000EF90DF90CF90BF90AF909F908F900895DA
:101050008091C5018EBDE6ECF1E085EC95E0219133
:101060000DB407FEFDCF2EBD8E179F07C1F70DB43F
:1010700007FEFDCF089580E0E5ECF1E081118FEFF0
:10108000002481938193819381930394D1F70895F0
:10109000FC018091C001882311F13FB7F89482E0F0
:1010A0008093E9002091F200822F90E01816190633
:1010B00014F481E090E0882339F0289844E64093C6
:1010C000BF014091F1004083222339F02091F200CA
:1010D000211103C02BE62093E8003FBF08958FEF56
:1010E0009FEF08952FB7F89483E08093E9009091E3
:1010F000E800892F807295FF04C09091F20080E48F
:10110000891B2FBF08958091B70181110DC082E026
:101110008093B30184E08093B4011092B6011092E1
:10112000B50181E08093B70183EB91E00895CF93FF
:10113000DF931F92CDB7DEB76983DC01ED91FC919F
:101140000280F381E02D41E050E0BE016F5F7F4FF0
:1011500009950F90DF91CF91089583E08093E90086
:101160008091F200882319F08AE38093E8000895C3
:101170000E94720890E00895CF93DF931F92CDB73D
:10118000DEB7FC018485958597FD08C02FEF3FEF02
:10119000358724870F90DF91CF910895CE01019676
:1011A0000E944808019719F4898190E0F3CF8FEFEE
:1011B0009FEFF0CF0F931F93CF93DF931F92CDB785
:1011C000DEB78C01FC018485958597FF0BC0CE01AD
:1011D00001960E944808019771F4898190E0F80116
:1011E00095878487F801848595850F90DF91CF914D
:1011F0001F910F9108958FEF9FEFF1CFFC01848530
:10120000958597FD0BC09FB7F89482E08093E90025
:101210008091F2009FBF90E0019608959FB7F894E7
:1012200082E08093E9008091F2009FBF90E00895F2
:101230004091AD015091AE012091AB013091AC01D4
:1012400042175307B4F49091E8009570E1F3909140
:10125000E80092FD19C08093F1008091AD0190915A
:10126000AE0101968F739927892B19F48EEF809325
:10127000E8008091AD019091AE0101969093AE018E
:101280008093AD0181E0089580E00895DF92EF92B0
:10129000FF920F931F93CF93DF93D82E8A01EB0118
:1012A0007B01E40EF51ECE15DF0559F0D7FE12C006
:1012B000FE0184910E94180921968111F4CF0FEF4D
:1012C0001FEFC801DF91CF911F910F91FF90EF9019
:1012D000DF9008958881EECF0F931F93CF93DF9314
:1012E0001F92CDB7DEB782E0898342E450E069EA1D
:1012F0007BE080E80E9446090E948308DC01129688
:101300000D911C910115110589F0D801ED91FC9109
:101310000280F381E02DBE016F5F7F4FC801099508
:1013200097FD04C0F80100851185ECCF89810F90ED
:10133000DF91CF911F910F910895615030F020916E
:10134000F100FC0120830196F8CF289884E6809371
:10135000BF010895AF92BF92CF92DF92EF92FF92BA
:101360000F931F93CF93DF936C017B018B01040FCD
:10137000151FEB015E01AE18BF08C017D10759F069
:101380006991D601ED91FC910190F081E02DC601AB
:101390000995892B79F7C501DF91CF911F910F91A5
:1013A000FF90EF90DF90CF90BF90AF9008953FB740
:1013B000F8948091930190919401A0919501B0913E
:1013C000960126B5A89B05C02F3F19F00196A11DD7
:1013D000B11D3FBFBA2FA92F982F8827BC01CD017F
:1013E000620F711D811D911D42E0660F771F881FDE
:1013F000991F4A95D1F708958F929F92AF92BF920D
:10140000CF92DF92EF92FF926B017C010E94D7098D
:101410004B015C01C114D104E104F104B9F00E9454
:10142000D709681979098A099B09683E73408105C3
:10143000910580F321E0C21AD108E108F10888EE95
:10144000880E83E0981EA11CB11CE4CFFF90EF90A2
:10145000DF90CF90BF90AF909F908F9008958F9224
:101460009F92AF92BF92CF92DF92EF92FF920F9333
:101470001F93CF93DF936C017B018A01809111014F
:10148000882309F45CC08091C001882309F457C007
:101490008091B20180FF05C08091E000826080935E
:1014A000E000E801B12C8AEFA82E93E0892E2AE310
:1014B000922E209711F4BB20D9F10E94720881115D
:1014C0000AC0AA94AA20D9F161E070E080E090E01F
:1014D0000E94FC09EECF8C171D0611F00CF08C2F2A
:1014E0009FB7F8948092E9002091E80025FD02C0A2
:1014F0009FBFDFCF282F30E0C21BD30BF7018150F5
:1015000020F041914093F100FACFE20EF31EBB2090
:1015100021F09092E800B12CEBCF8091E80085FD9E
:10152000E7CF9092E800BB24B394209709F3F3CF60
:101530005D9884E68093B101101611063CF081E0BD
:1015400090E0F6019383828310E000E0C801DF9110
:10155000CF911F910F91FF90EF90DF90CF90BF90B0
:10156000AF909F908F90089520918B01E091890119
:10157000F0918A01CF01029690938A0180938901AC
:10158000222319F085919491089580819181089585
:10159000E1E7F0E080818D7F808310929100469892
:1015A0004798109288010895CF92DF92EF92FF92B0
:1015B000CF93DF930E94B40A811520E8920741F48B
:1015C000DF91CF91FF90EF90DF90CF900C94C80AFD
:1015D00021E020938801813020E8920751F4809126
:1015E00086019091870190938A01809389010E94DE
:1015F000B40A97FD05C020918501222309F45BC040
:1016000020918401211157C021E020938C01EC012D
:10161000DF77209709F052C081E080938D014698D2
:101620003FE9C32E3FE0D32EE12CF12CCAEFD0E0EE
:10163000E0912306F09124060995811103C081E011
:1016400080938D0180918C01882329F080918D01F8
:10165000882309F446C047980E94B40A009709F409
:1016600044C09C01DE010E940F19DC01CB0129E07E
:10167000B595A795979587952A95D1F710929000E3
:101680002AE020939100D0929900C0929800809314
:101690008E0190938F01A0939001B093910180915E
:1016A0007100826080937100DF91CF91FF90EF9085
:1016B000DF90CF90089510928C01A9CF9E0150E049
:1016C00040E060E472E48FE090E00E94BB186901A2
:1016D0007A0181E0C81AD108E108F10810928D0161
:1016E000A7CF4699B8CF479AB7CF8FEF9FEFDC01CE
:1016F000C5CF9C01E1E7F0E090819D7F908381E080
:1017000080938B0130938A01209389013093870164
:10171000209386010C94D40A5E9A0895BC0190E04F
:1017200080E00C94FC0943B18FB129B190E0809521
:10173000909534E0959587953A95E1F7887030E07B
:101740002095309553E0359527955A95E1F723700C
:10175000822B942F9095907D892B089583B7817F5C
:1017600083BF83B7816083BF889583B78E7F83BF34
:101770000895CF932FB7F8948091C1019091C20141
:10178000A091C301B091C4012FBFC0913906CC23F1
:1017900059F020913106821B80933A061092390647
:1017A000C0E08C2FCF9108954091350650913606B8
:1017B000609137067091380684179507A607B7071A
:1017C00030F4481B423068F30E94AE0BEACF21E0B0
:1017D000209339068093310690933206A093330606
:1017E000B093340620913006820F911DA11DB11DCA
:1017F0008093350690933606A0933706B09338064B
:1018000080912C0690912D06019690932D06809341
:101810002C06C1E0C6CF8EBD00000DB407FEFDCF83
:10182000089510929A01259825980895259A259A49
:1018300081E080939A0108952F923F924F925F9298
:101840006F927F928F929F92AF92BF92CF92DF92D0
:10185000EF92FF920F931F93CF93DF93CDB7DEB735
:101860002A970FB6F894DEBF0FBECDBF9A83898347
:101870006A3061F5DC015C968C91B8E08B9F900139
:101880001124E981FA81808D918D820F931F918FB0
:10189000808F178A168A81E090E02A960FB6F89416
:1018A000DEBF0FBECDBFDF91CF911F910F91FF9093
:1018B000EF90DF90CF90BF90AF909F908F907F90F0
:1018C0006F905F904F903F902F9008956D3019F377
:1018D00029813A813A872987D9015696AD90BC90E3
:1018E000B0E8AB16B1040CF07BC0F901C08CD18C10
:1018F000F0E4CF16D1040CF073C0D9015C966C9063
:101900005C9745E09501649E200D311D112412164F
:1019100013060CF065C0262C312C910153E0220FE8
:10192000331F5A95E1F72C0D3D1D121613060CF0CE
:1019300057C05B96BC91BB83E985FA85F28DFC8329
:10194000649FB00111249B0124553F4F3A832983A2
:10195000712CE981FA818491F5E07F1201C080E069
:10196000460138E0532E282F30E03E832D834C80F3
:1019700080FF4B80411004C03B818C813817E1F01F
:1019800010E000E00615C0F4D501A00FB11FB88724
:10199000AF83F12CE12CE61460F4B701680D791DDA
:1019A000442D8F8198850E947106BFEFEB1AFB0AC8
:1019B000F2CF0F5F1F4FE6CF8D819E819595879562
:1019C0005A94820C931C5110CECF7394E981FA8102
:1019D0003196FA83E983A20CB31CF6E07F12B9CFEB
:1019E000A985BA855C962C915C97422F50E056965B
:1019F0008D919C91B6E02B9F800D911D1124E9855E
:101A0000FA85978B868B258D222309F444CF6AEFC4
:101A100064039001659F300D112420583F4F281713
:101A200039070CF038CFDF010190F081E02D0190F3
:101A3000F081E02D6AE0CD0109952DCF089508953C
:101A400090E080E0089564E670E080E090E00E941D
:101A5000FC090E94930B8111FCCF64E670E080E0EA
:101A600090E00C94FC098091040180930501409161
:101A700099014F5F4093990120919701309198010E
:101A8000285F3F4F3093980120939701429FC001F8
:101A9000439F900D1124805E9F4E9C0186E03595FA
:101AA00027958A95E1F7809101018054820F8093F8
:101AB0000401089580918801811125C080917100F1
:101AC0008D7F8093710010928B0185E196E0909359
:101AD0008A0180938901909387018093860181E236
:101AE00090E090931606809315068DE790E0909312
:101AF00018068093170680E090E890931A0680936A
:101B000019060E94D40A80E79FEF90939801809372
:101B10009701109299018091040180930101089529
:101B20008F929F92AF92BF92CF92DF92EF92FF92ED
:101B30000F931F93CF93DF9382EAE82E81E0F82E74
:101B400090E4A92EF701C1917F01CC2309F441C093
:101B5000B3800C2E000CDD0B2B2D4CE06FEF7FEFD4
:101B6000CE010E94D10780910201CB2C0B2C000CDE
:101B7000DD088601080F111D2A2D281B2B194CE0AA
:101B8000B801CE010E94D1074E01F2E08F1A9108F0
:101B9000B6016350710923E040E1C4010E94D107FE
:101BA00023E040E1B801C4010E94D10722969601CA
:101BB00025503109AE0170E060E0CE010E948F0631
:101BC000B8016B5F7F4F2DE330E0AE01CE010E9484
:101BD0008F0686EAE81681E0F80609F0B3CFDF91B8
:101BE000CF911F910F91FF90EF90DF90CF90BF901A
:101BF000AF909F908F9008950F931F93CF93DF9393
:101C000080910001815087FD32C080930001C09116
:101C100004010C2E000CDD0B60E0CE010E941307C6
:101C200061E0CE010E941307809100018E01081B24
:101C3000110987FD139598014BE150E0BE0180E248
:101C400090E00E948F06B8016F5F7F4F41E08BE10B
:101C500090E00E947106BE016250710941E081E28C
:101C600090E0DF91CF911F910F910C94710684E069
:101C7000CCCF40E86FE370E090E080E00C943D064C
:101C8000FC0101900020E9F73197AF01481B590B87
:101C9000BC0185E296E00C94AA09CF92DF92EF9204
:101CA000FF920F931F93CF93DF93CDB7DEB7A1972A
:101CB0000FB6F894DEBF0FBECDBF9C0150E040E0F0
:101CC00019A28E010F5D1F4F8AE0C82ED12CE12C86
:101CD000F12CCA01B901A70196010E94ED18605DBF
:101CE000F80162938F01211531054105510589F7EE
:101CF00090E080E0309761F001900020E9F73197A3
:101D0000AF01401B510BB80185E296E00E94AA0981
:101D1000A1960FB6F894DEBF0FBECDBFDF91CF9175
:101D20001F910F91FF90EF90DF90CF900895CF9388
:101D3000DF93C82FD62F0E948C0B88EC90E00E9476
:101D40008E0B5E9882E090E00E94A518D81729F0CB
:101D50006D2F82E090E00E94AD1884EF91E00E9428
:101D60008E0B0E948C0B0E94930B8C23C817D9F307
:101D7000DF91CF9108950E9424191F920F920FB600
:101D80000F9211248F939F938091E1009091E10035
:101D9000937F9093E10083FF0FC01092E90091E0E0
:101DA0009093EB001092EC0092E39093ED00109270
:101DB000C00198E09093F00082FF22C093E09093DE
:101DC000E9009091F200992319F09AE39093E800CA
:101DD0009091B101992341F09091B101915090936C
:101DE000B101911101C05D9A9091BF01992341F019
:101DF0009091BF0191509093BF01911101C0289A19
:101E000084FF18C08091E2008E7E81608093E200A2
:101E10008091E1008F7E8093E1008091B2018E7EFF
:101E200080618093B2019F918F910F900FBE0F90B0
:101E30001F90189580FFF7CF8091E2008E7E806121
:101E40008093E2008091E1008E7E8093E10080919A
:101E5000B2018E7E8160E5CF1F920F920FB60F9276
:101E60001124CF92DF92EF92FF920F931F932F9343
:101E70003F934F935F936F937F938F939F93AF9312
:101E8000BF93EF93FF93CF93DF93CDB7DEB76C97FC
:101E9000DEBFCDBF1092E9008091E80083FF25C02E
:101EA00068E0CE0145960E949D0982EF8093E8008C
:101EB0008D8987FF39C09091E80090FFFCCF982F63
:101EC000907609F034C19E894F89588D2F89F88CFE
:101ED000911131C0803861F58091B0018093F1009B
:101EE0001092F1008EEF8093E8006C960FB6F89494
:101EF000DEBF0FBECDBFDF91CF91FF91EF91BF91BC
:101F0000AF919F918F917F916F915F914F913F9191
:101F10002F911F910F91FF90EF90DF90CF900F9036
:101F20000FBE0F901F9018959EEF9093E800C7CFBB
:101F30001092F100D5CF913059F48111D3CF4130B7
:101F4000510581F68091B0018D7F8093B001CACF99
:101F5000933049F48111C6CF4130510519F6809173
:101F6000B0018260F2CF953041F48091E80080FFAB
:101F7000FCCF20682093E300B5CF963009F0A9C0CC
:101F80000B8D1C8D22E01092E9001092AE01109290
:101F9000AD01F2122EC01092AC011092AB010E9462
:101FA0006C091F8299E09983FA8291E09E8390EAFE
:101FB00098879AEF99872091AD013091AE01275F04
:101FC0003F4F3C832B838D831092E9001092AE012A
:101FD0001092AD011093AC010093AB0149E050E0C9
:101FE000BE016F5F7F4F80E00E9446090E946C092E
:101FF00079CF1093AC010093AB010E948308DC0100
:1020000012960D911C910115110509F451C1D801C9
:10201000ED91FC910480F581E02DBE016B5E7F4F58
:10202000C8010995009709F03EC1F80100851185A6
:10203000EACFF3E0FF120EC08F89882309F440C075
:10204000823061F440E867E08DE09CE00E94091274
:10205000811148CF81E28093EB0047CF813029F492
:1020600040E86BE081E09CE0F1CF833099F70E947B
:102070008308DC011296ED90FC908E010F5F1F4FDC
:102080006801E114F10479F0D701ED91FC9106802B
:10209000F781E02DB801C7010995080F111DF7015F
:1020A000E084F184EECFD8011C92F601019000206B
:1020B000E9F73197BF016C197D0940E0C601C6CF31
:1020C0006BEE7BE0FB01449150E080E80E94460902
:1020D00009CF973009F4BECF983021F481E0809386
:1020E000F10000CF993009F0FDCE837009F0B2CF36
:1020F000E7E1F1E081E031E096E32191222371F004
:102100008093E9003093EB00DF0111972C9120932D
:10211000EC009093ED008F5F873079F78EE7809326
:10212000EA001092EA008F898093C001DBCE8B8D8C
:102130009C8D1092E9001092AE011092AD01909327
:10214000AC018093AB01898D811192C08E899D89EC
:10215000913A49F4813209F07DCF47E050E06AE0DE
:1021600071E080E0B3CF913209F074CF833269F42B
:102170008F89988DB0E0A0E08093060190930701CD
:10218000A0930801B0930901ADCE803269F480912B
:10219000E80082FFFCCF67E08AE091E00E949D09A1
:1021A0008BEF8093E8009ECE823209F09BCE8F8920
:1021B00080931101EEEFFFE7859194918B3F9C4D49
:1021C00051F1E0E0F8E080910A0190910B01A091BB
:1021D0000C01B0910D01803B9440A105B105F1F4D3
:1021E0008091110180FD1AC0EE3F8AE0F80789F561
:1021F00087E797E791838083809160008093AF01A8
:1022000088E19BE00FB6F894A895809360000FBE1C
:102210009093600067CEEEEFFAE0D5CF8081918198
:102220008737974709F05ECEA89580916000886156
:10223000809360008091AF0180936000EE3F2AE0C0
:10224000F20789F08091FE0A9091FF0A91838083C2
:1022500049CE808191818737980751F29093FF0A88
:102260008093FE0AC5CF1092FF0A1092FE0A3ACE62
:102270000E948308DC0112960D911C910115110535
:1022800009F4E8CED801ED91FC910190F081E02DA8
:10229000BE016B5E7F4FC8010995811123CEF80105
:1022A00000851185EBCF181619060CF41BCED2CE83
:1022B000F1E0FF12BECE6FEE7BE004CF1F920F92D3
:1022C0000FB60F9211242F933F938F939F93AF9349
:1022D000BF938091C1019091C201A091C301B091BF
:1022E000C4013091920123E0230F2D3758F5019658
:1022F000A11DB11D209392018093C1019093C20151
:10230000A093C301B093C401809193019091940173
:10231000A0919501B09196010196A11DB11D8093E8
:10232000930190939401A0939501B0939601BF916E
:10233000AF919F918F913F912F910F900FBE0F9072
:102340001F90189526E8230F0296A11DB11DD2CF2C
:102350001F920F920FB60F9211242F933F934F931A
:102360005F936F937F938F939F93AF93BF93EF93FD
:10237000FF9380918E0190918F01A0919001B09177
:102380009101892B8A2B8B2B09F440C080918D0100
:1023900081110BC088B190E4892788B980918C01A4
:1023A000882319F088B1805888B980918E01909166
:1023B0008F01A0919001B0919101181619061A068B
:1023C0001B069CF480918E0190918F01A091900149
:1023D000B09191010197A109B10980938E01909369
:1023E0008F01A0939001B0939101FF91EF91BF9164
:1023F000AF919F918F917F916F915F914F913F919D
:102400002F910F900FBE0F901F9018950E94D40A25
:10241000ECCFEF92FF920F931F93CF93DF93F82EA1
:10242000192FE62E042F81E0860F880F0E941809CD
:1024300083E00E941809CF2DD12FEC0EFD2EF11C48
:10244000CE15DF05B9F007FF13C0FE0184910E948D
:102450001809182F80E00E94180981232196811104
:10246000EFCFDF91CF911F910F91FF90EF900895E3
:102470008881EDCF81E0F5CF0F931F93CF93DF934A
:102480008C0181E090E00E94A51880FF31C08AE0B5
:1024900090E00E94A5189FEF980F9E3F48F522E319
:1024A00030E0D80157963C932E93569728E330E0BE
:1024B00059963C932E935897CBE0D0E0D801ED91FC
:1024C000FC910190F081E02D682FC8010995CE01A3
:1024D0000E94A5182196C131D10581F70E942808D4
:1024E00088EE93E0DF91CF911F910F910C948E0BAA
:1024F000DF91CF911F910F91089504970C943C1296
:10250000E5ECF5E01382128288EE93E0A0E0B0E003
:1025100084839583A683B78381E291E0918380834E
:102520008FEF9FEF95878487E5E2F6E013821282B2
:102530001186128620E1238790878783108A118A6B
:10254000128A138A148A83E391E09183808381E461
:1025500091E095838483178A168A118E108E81E00C
:10256000828F138E848F158E8AE396E090932406D3
:102570008093230680E090E89093220680932106C2
:1025800046983E9A47983F9A0895789484B5826019
:1025900084BD84B5816084BD85B5826085BD85B507
:1025A000816085BD80916E00816080936E00109285
:1025B0008100809181008260809381008091810000
:1025C0008160809381008091800081608093800091
:1025D0008091910082608093910080919100816050
:1025E0008093910080919000816080939000809111
:1025F000C10084608093C1008091C100826080939B
:10260000C1008091C10081608093C1008091C300AE
:1026100081608093C3008091C00082608093C0007D
:102620008091C20081608093C20080917A008460B2
:1026300080937A0080917A00826080937A00809102
:102640007A00816080937A0080917A00806880931C
:102650007A001092C0011092B0011092B2018091E4
:10266000D70081608093D70080EA8093D80089B535
:10267000806189BD89B5826089BD09B400FEFDCF46
:1026800061E070E080E090E00E94FC098091D80059
:102690008F7C80618093D8008091E000807F809360
:1026A000E0008091E1008E7E8093E1008DE08093D8
:1026B000E200559A209A68E873E180E090E00E9479
:1026C000FC0981EC80937C0085B1886485B92398EE
:1026D00084B1866484B9589A899880B3836180BB39
:1026E0008F9A85B1806D85B98BB188618BB9879AD6
:1026F00084B18F6284B98AB1876E8AB92D9A84B108
:102700008F6D84B98EB18F6B8EB98DB18F6B8DB992
:10271000259A259A80E58CBD81E08DBD85E090E00D
:102720000E948E0B899A85E090E00E948E0B88981B
:102730008C98CCE5D6E009E616E0FE0184910E9473
:102740000B0C21960C171D07C1F78C9A81E880931A
:10275000640081E080936500C0E0D4E080E00E94E6
:102760000B0C2197D9F70E94930B83FF10C08C9814
:1027700085EA0E940B0C8C9A5E985E985E98809118
:1027800064008062809364000E94AE0BFDCF0E94C3
:10279000930B80FF16C05E980E94930B897089305E
:1027A00019F46FEF0E94970E0E94930B8370833091
:1027B00019F460E00E94970E88EC90E00E948E0B66
:1027C000E6CF0E948C0B82E090E00E94A51888233F
:1027D00009F480C20E94160C5E98CEEEDFEF08E08E
:1027E00010E00E94930B86FF78C25E9A5E9A0E9468
:1027F0008C0B82E390E00E948E0B0E94930B811160
:10280000F8CF81E2809330060E943B0810923E068A
:1028100010923D0610923C0610923B06F12CE12CE2
:1028200010E000E0B0E8CB2ED12CD0E0C0E0FE01FB
:10283000A3E0F595E795AA95E1F7EE0DFF1DE759A1
:10284000F94FE491CE0187709927960102C0359522
:1028500027958A95E2F7C901F0E0E223F923EF2BEF
:1028600029F041E0B801CE010E9471062196C038DE
:10287000D105E9F60F5F1F4F30E1E30EF11C003484
:10288000110599F60E94280889E69AE00E94790BC2
:1028900064EF71E080E090E00E94FC0982E190E04A
:1028A00090933C0680933B0687E390E090933E062E
:1028B00080933D0683E491E00E94400E0E94280828
:1028C0000E94930B8823E1F30E94230D8091640002
:1028D0008E7F8093640080917A00806480937A0078
:1028E00080917A0086FDFCCFC0917800D09179006C
:1028F0000E94D709AB01BC01CE01B0E0A0E0DC0131
:10290000992788278C019D01040F151F261F371F4B
:10291000C901B801611571058105910511F00E9489
:102920009C18809164008160809364001092A201E1
:102930001092A3011092A4011092A50120E8222E6A
:10294000312C32E3632E712C4AE3442E512C5EE18C
:10295000C52ED12C6EE3A62EB12C7AE2872E912CB7
:102960000E94B90B882309F444C30E94930B87FF8C
:102970000BC080919A01882309F44BC20E94C80AB7
:102980000E94110C0E94230D0E943B0810923E06EB
:1029900010923D0610923C0610923B068091AA01CF
:1029A000811142C00E94390E0E94FC0DC6E0D0E0A9
:1029B000D0933C06C0933B0683E090E090933E06A4
:1029C00080933D0684E591E00E94400ED0933C0642
:1029D000C0933B0683E390E090933E0680933D06D0
:1029E00086E691E00E94400E80919A011BE0CEE4C1
:1029F000811102C011E1C0E6D0E0412F6BE370E02D
:102A0000CE010E943D06412F6CE370E0CE010E9492
:102A10003D060E94930B8B7139F081E08093AA01EF
:102A20000E94C80A0E945A0D8091AA01813009F0C3
:102A300009C19091050180910401891734F00E9429
:102A4000930B8B7111F00E945A0D0E94330D8091EF
:102A5000040184305CF484E08093040110929901B5
:102A600080930101109298011092970180912C0699
:102A700090912D068F719927892B59F5E2EAF1E0A3
:102A8000D0E0C0E081918111CBC1CE55DE4F80E80E
:102A90008883809102018201081B110986E090E081
:102AA000A0E0B0E0073011059CF00E944D18012E07
:102AB000000C220B330BA901980126503109410962
:102AC00051090E94BB18DC01CB010696A11DB11D66
:102AD0008C83C2EAD1E08E01F8018081882331F134
:102AE0008250843F0CF4A2C18083F8018081803140
:102AF000E9F48091A0019091A10101969093A10128
:102B00008093A00180910301815080930301F0E242
:102B1000F0939F01809104018C5080939E012FE0DF
:102B200020939D0185E99BE00E94790B0F5F1F4F69
:102B300031E0063A130781F680919D01882339F12F
:102B400080919E01815080939E0187FD71C12091EB
:102B50009F01022E000C330B30933C0620933B0662
:102B6000082E000C990B90933E0680933D068091B1
:102B7000A0019091A1010E944D0E80919F01825071
:102B800080939F0180919D01815080939D01809150
:102B900004018C3334F08BE38093040142E04093D2
:102BA000AA01909104014DEF490F9D5F1091020120
:102BB0003091AA012991222369F17CE0720F8B8167
:102BC0007E3130F0233220F4481710F4911121C0E7
:102BD0005EEF520F6EE0620F6E3140F0533230F410
:102BE000481720F4EDEFE80FE91798F0810F7E31D8
:102BF00030F0233220F44F3310F4891750F06E3147
:102C000048F0533238F423E0280F421718F489179C
:102C100008F432E051E0C63AD50761F63093AA01D4
:102C20000E94900D0E94390E0E94FC0D133150F04D
:102C300080910301811106C011501093020185E0BB
:102C4000809303018091AA01823009F0D0C1809164
:102C5000A0019091A10120919B0130919C01281726
:102C6000390720F490939C0180939B010E942808CF
:102C700087E89BE00E94790B64E670E080E090E0DA
:102C80000E94FC0910929901809104018093010136
:102C90001092980110929701809104018B330CF0EF
:102CA000CAC00E94330D0E943B0810923E0610924B
:102CB0003D0610923C0610923B060E94900D0E9429
:102CC000390E0E94FC0D0E9428080E94B90B88232F
:102CD000E1F3E2CF0E94110C7FCDCC3FFFEFDF0785
:102CE00021F40E948C0B5E9803C0C831D105C9F352
:102CF0000E943B08C03F2FEFD2070CF46CC09E012E
:102D0000D7FF04C0222733272C1B3D0B2770332706
:102D1000CE01D7FD079653E0959587955A95E1F733
:102D2000D7FF05C00197A801421B530B9A01BC01B4
:102D30007695762F6627779567956B5B7D4FF12C9F
:102D4000E12C4801821A930A8F3F5FEF9507C4F187
:102D5000DB01A058B10950E040E0F701E455FA4F1B
:102D60005F018F3F980781F0F501E40FF51FE491B3
:102D7000022E01C0EE0F0A94EAF75496FC91549784
:102D8000EF2B5496EC9354972115310599F0F501EA
:102D9000E40FF51FE4916B01C40ED51EF0E03F0176
:102DA000082C02C0759467940A94E2F7F6017488BF
:102DB0006728648A4F5F5F4F11964835510589F641
:102DC0000196F8E5EF0EF11C60587F4F40EBE416DA
:102DD000F10409F0B9CF0E9428088BE190E00E942D
:102DE0008E0BC03F5FEFD50721F48AEF90E00E9481
:102DF0008E0B2196C931D10509F0F3CC8CEB92E012
:102E00000E948E0B0E948C0B85E296E00E943C1281
:102E1000F0CC0E94160C8FE99BE00E94790BB2CD9A
:102E20002196C430D10509F02DCE53CE10825DCE4F
:102E300010929D01ACCE8DE49BE00E94790B20E3C3
:102E400040E668E070E080E190E00E94D107C1E1D7
:102E5000D0E009E010E040E0B801CE010E94710628
:102E60000F5F1F4F07331105B1F72196CF36D105FC
:102E700081F79CE0E92EF12C10E000E0D0E0C0E00A
:102E8000FE0183E0F595E7958A95E1F7E00FF11FE4
:102E9000E153F54FE491CE0187709927910102C06B
:102EA000359527958A95E2F7C901F0E0E223F923E9
:102EB000EF2B31F041E0B701CE014E960E94710632
:102EC0002196C834D105E1F6075F1F4F3FEFE31AA3
:102ED000F30A0E37110591F68091A0019091A1019E
:102EE00028E1803147E2940770F422E1883E53E004
:102EF000950748F42CE08436910528F426E08A30C2
:102F0000910508F420E0F301E21BF109F0933C067F
:102F1000E0933B06D0923E06C0923D060E944D0EC5
:102F2000B0923C06A0923B06D0923E06C0923D066F
:102F300089E791E00E94400E80919B0190919C0155
:102F400028E18031F7E29F0770F422E1883E03E038
:102F5000900748F42CE08436910528F426E08A3066
:102F6000910508F420E0A301421B510950933C064F
:102F700040933B0690923E0680923D060E944D0E85
:102F8000B0923C06A0923B0690923E0680923D068F
:102F90008FE791E00E94400E0E94280868EE73E0DF
:102FA00080E090E00E94FC090E94930B8B71E1F39A
:102FB0000E94230D1092AA0189E69AE00E94790BE3
:102FC0001092A1011092A00110929D011092A201F5
:102FD0001092A3011092A4011092A5018FE1809399
:102FE00004018EE18093020185E0809303010E9439
:102FF000280880E090E0892B09F4B2CC0E94000000
:10300000AFCC8F929F92AF92BF92CF92DF92EF920E
:10301000FF92CF93DF93EC01688179818A819B8154
:10302000611571058105910521F464E279ED8BE567
:1030300097E02DE133EF41E050E00E94BB184901D9
:103040005A019B01AC01A7EAB1E40E94DA186B01B6
:103050007C01ACEEB4EFA50194010E94E818C60E05
:10306000D71EE81EF91EF7FE06C081E0C81AD10877
:10307000E10880E8F80AC882D982EA82FB82C701A7
:10308000B6019F77DF91CF91FF90EF90DF90CF90C7
:10309000BF90AF909F908F9008958F929F92AF9224
:1030A000BF92CF92DF92EF92FF92609112017091E6
:1030B000130180911401909115016115710581052D
:1030C000910521F464E279ED8BE597E02DE133EF92
:1030D00041E050E00E94BB1849015A019B01AC013C
:1030E000A7EAB1E40E94DA186B017C01ACEEB4EF00
:1030F000A50194010E94E818C60ED71EE81EF91E0D
:10310000F7FE06C081E0C81AD108E10880E8F80A95
:10311000C0921201D0921301E0921401F0921501B5
:10312000C701B6019F77FF90EF90DF90CF90BF90DF
:10313000AF909F908F900895609312017093130148
:1031400080931401909315010895F999FECF92BDD3
:1031500081BDF89A992780B50895262FF999FECF59
:103160001FBA92BD81BD20BD0FB6F894FA9AF99AA4
:103170000FBE01960895052E97FB1EF400940E9441
:10318000D21857FD07D00E94ED1807FC03D04EF46B
:103190000C94D21850954095309521953F4F4F4F44
:1031A0005F4F089590958095709561957F4F8F4FF3
:1031B0009F4F08950E940F19A59F900DB49F900DE9
:1031C000A49F800D911D11240895B7FF0C94DA1867
:1031D0000E94DA18821B930B0895A1E21A2EAA1BF3
:1031E000BB1BFD010DC0AA1FBB1FEE1FFF1FA217B7
:1031F000B307E407F50720F0A21BB30BE40BF50BB4
:10320000661F771F881F991F1A9469F7609570953C
:10321000809590959B01AC01BD01CF010895A29FBF
:10322000B001B39FC001A39F700D811D1124911D9A
:10323000B29F700D811D1124911D0895EE0FFF1F87
:103240000590F491E02D099481E090E0F8940C94BD
:063250002919F894FFCFDC
:10325600041F1E051F1FFFFFFFFF00E10000000007
:1032660000000100000000C1808100000000000095
:103276000097082F0AB808AD08FE08BC08DA08004F
:103286000000001C0CAA09200D1F0D3C12FCFF00BB
:10329600007D12507265737320416E7920427574F9
:1032A600746F6E00412C422C55702C446F776E3A29
:1032B600204A756D70004C6566743A20536F756EC2
:1032C60064204F6E2F4F66660053636F7265004829
:0432D60069676800BC
:00000001FF
