:100000000C9429080C9451080C9451080C94510834
:100010000C9451080C9451080C9451080C945108FC
:100020000C9451080C9451080C94261E0C94951EA7
:100030000C9451080C9451080C9451080C945108DC
:100040000C9451080C9469210C9451080C9451089B
:100050000C9451080C9451080C9451080C94C7202E
:100060000C9451080C9451080C9451080C945108AC
:100070000C9451080C9451080C9451080C9451089C
:100080000C9411210C9451080C9451080C945108B3
:100090000C9451080C9451080C9451080C9451087C
:1000A0000C9451080C9451080C94510805A84CCD9F
:1000B000B2D44EB93836A9020C50B9918688083CA2
:1000C000A6AAAA2ABE000000803F544845204D49F8
:1000D00054204C4943454E53452E0052454C454112
:1000E00053454420554E44455200544849532050EE
:1000F000524F4752414D2049530050524F475245AD
:100100004D4D4544204259204F424F4E4F004445EB
:1001100043454D4245522032303136002D20484F64
:100120004C4C4F57205345454B4552202D004352D0
:1001300045444954005245434F52440053544152A0
:10014000542047414D45000000000000700100C0F0
:10015000000C00CAA77C0A42F55508534248195EB4
:10016000F55112003000000027450040941C001497
:10017000F3190504F11104200400000441100400E7
:10018000040000104208015E14450F40F0010059C0
:1001900055551351555D0D8C927C085755550D5E84
:1001A00055550D51520C015E55550F5655550F00C2
:1001B000A0000000A4000000C2280080A228008047
:1001C00062080040500D0000E318009C92241F5F5D
:1001D000555D0D9C1445115F1425075F5555115F42
:1001E0005114015E54551D1F41101F40F44500106D
:1001F0000421071F41181D1F0441105EF0041F9CBD
:1002000010041F5E54450F5F9214035ED4451F5FB8
:1002100092341B5655550D41F005011F0421071F4F
:100220004208011FE4410F1743181D07C10901517E
:10023000564D1100F0450000F0010040F40100802F
:10024000100C001004411090480064800019904A7E
:100250000064800019904C0064800019904D006487
:10026000800019904F00C880F09037007880000A15
:100270009036008C800014903500A080001E9034D1
:1002800000B4800028903300C8800032903200DC37
:1002900080003C903100F08000469030000480F0F7
:1002A0009043000A904F000A904C000A80F090148E
:1002B000911301F48081F01083AC696DAD82100060
:1002C000136C69EDAD022000232CE9ED2D022020F6
:1002D00006D8D25A5AC4101082AD6D69AC83102072
:1002E00002ADED696C130020022DEDE92C23001006
:1002F000C45A5AD2D806204E4557205245434F5231
:10030000440053434F524500594F5552000000E0FE
:10031000F0F83C9C9C9C9C9C800000C060606060ED
:10032000E0C08000E0E0E0406060E0E0C06060E0ED
:10033000E0C00080C0E0E06060E0C08000E0F0F875
:100340003C1C1C1C3CF8F0E00060E0E0E00000E039
:10035000E0E06080C0E0E06060E0C08000E0E0E0FD
:10036000C0E0E000000000070F1F3C3B3B3B3F3F6D
:100370001F001C3E3F3333133F3F3F003F3F3F00D2
:1003800000003F3F3F00003F3F3F000F1F3F36361A
:100390003637370700070F1F3C3838383C1F0F0728
:1003A0000000031F3F3E3E3F1F03000F1F3F363636
:1003B00036373707003F3F3F00000000000000FCD9
:1003C000FCFC8C8CCCFCF8780080C0E0E06060E045
:1003D000C0800000C060606060E0C0800080C0E05D
:1003E000E0E0E0C0FEFEFE0020E0E0E00000E0E033
:1003F000E0600000381C1C9CFCFC78000000003F02
:100400003F3F03071F3E3E38200F1F3F363636372B
:100410003707001C3E3F3333133F3F3F000F1F3F62
:10042000313030183F3F3F000000C3CFFFFC7F1F3B
:100430000300000000383B3B390000000090064EEE
:10044000E4C0881899E0F8FC1C1CFCF8F00F1F3F72
:1004500038383F1F07383838FCFCFC00000000002B
:100460003F3F3F000000381C1C9CFCF878383C3EA5
:100470003B3B393838001CDCDCDCFC783800383990
:1004800039393F1F0E00C0F07CFCFCFC000F0F0D43
:100490000C3F3F3F0CFCFCFCFCDCDC9C003938389A
:1004A00038383F1F0FE0F0F8BCDCDCDC800F1F3F6A
:1004B00039393F1F0F1C1C1C9CDCFC7C1C00303E8F
:1004C0003F3F03000070F8FC8C8CFCF8700E1F3F5F
:1004D00031313F1F0EF0F8FC9C9CFCF8E0003939EC
:1004E000393D1F1F074F424E2D593031205645527E
:1004F00020302E333200C0C6CFDFFFFB73037CFEFB
:10050000FFC7E3FF7F3E00FFFFFF1B1B1B03000332
:1005100003FFFFFF030300000000000000008080D5
:10052000808000000000000000000000000080E06B
:10053000F058AC56AB55AB5500FF01010102020467
:100540000810608000003FFFAA55AA55AA55AA5579
:10055000A85FAC5CAC5CAC5CAC5C0CCF3C0000005D
:100560000103060D1A152A252A252A252215120906
:10057000040201000000FFFF57AB57AB57AB57AB6E
:1005800003FF808080000000000000000000FFFFEB
:1005900055AA55AA55AA55AA00FF0000000101025C
:1005A000040830C000001F7FD5AA55AA55AA55AA35
:1005B00054AF56AE56AE56AE562E86671E0000009D
:1005C000000103060D0A151215121512110A09046D
:1005D0000201000000000000000000008080C0C098
:1005E000C0C0808080000000000000000000C0F05B
:1005F00078AC56AB55AA55AA00FF000000010102D5
:10060000040830C00000FFFF55AA55AA55AA55AAF4
:1006100000FFFEAE56AE56AE56AE5607FE001F1792
:100620001512151215121512101F17121512151288
:10063000151215101F009045000A80F03C7EFFFF48
:10064000FF7E3CFD8181FDFDFDFEC0C0FEFD8D8D68
:10065000FDFDFDFEC6C6FEDDDDDDDDFDFDEEEEEEE3
:10066000EE1C0100000E01FA000000EA00DB00CAE7
:1006700000504C41592054494D45202000504C41D8
:100680005920434F554E5420005D20005B004245E9
:1006900053542031302053434F524553004F464668
:1006A000004F4E00534F554E4420003C01A40635E8
:1006B000012E0153434F5245004C4153540000005A
:1006C000000000000080C0E0F070787800F8FC06C0
:1006D000F3F9FDFDFDF9F204F80060408000000030
:1006E000000000000000000000E0D8D6CBD4EAE40F
:1006F000EAF5F2F5F2F9F7F6ECEDEBEBEBE9F4FAEB
:10070000F9F8FA797A7B7C600000000000000000B4
:10071000000707073FC70703AB53FBFBFBFDFD814A
:1007200081FDFDFDFEC0C0FEFEFEFEFF1F000000BD
:1007300000000000000000C0201028488404A556D6
:10074000AC59AA5DB757B76FAF69A828E86EAF5725
:10075000B757AB54AA56EA42E2160C0408F000035D
:10076000040404050203010FF920202522252A355F
:100770002A35EA203FF52A352A25222520F03F0098
:10078000000101010100F0F8FCFEFE9E1E1E1E1E6F
:100790003C00000000008080C0C0C0C0C0C080001D
:1007A000000000008080C0C0C0C0C0C08000000049
:1007B000FFFFFFFFFF000080C0C0C0C0C0C000003E
:1007C0008080C0C0C0C0C0C080000000C0C0C0C029
:1007D000C080C0C0C000E1C3C7878F8F9FFFFEFEEF
:1007E000FCF800007CFFFFFFFFBB39393F3F3FBFF4
:1007F0003E007CFFFFFFFFBB39393F3F3FBF3E005C
:10080000FFFFFFFFFF187EFFFFFFFFE783007CFF76
:10081000FFFFFFBB39393F3F3FBF3E00FFFFFFFFF8
:10082000FF0703030300030707070707070703037F
:10083000010000000001030307070707070707037C
:10084000000000010303070707070707070300006D
:100850000707070707000001070707070707040145
:100860000303070707070707070300000707070732
:10087000070000000000FEFEFEFEFE8080808080FB
:100880008080FEFEFEFEFE000000008080C0C0C032
:10089000C0C0C08080000000FFFFFFFFFF0000FF1E
:1008A000FFFFFFFF000000008080C0C0C0C0C0C0CC
:1008B00080800000C0C0C0C0C0C0000000C0C0C078
:1008C000C0C0800000C0C0C0C0C0FFFFFFFFFF0F5E
:1008D0000F0F0F0F0F0FFFFFFFFFFF00007CFFFF49
:1008E000FFFFC78383C7FFFFFFFF7C00FFFFFFFF02
:1008F000FF0000FFFFFFFFFF00007CFFFFFFFFC7BF
:100900008383C7FFFFFFFF7C000F7FFFFFFFF0F037
:10091000FFFF1F1FFFFFFFF0F0FFFF7F070007072C
:10092000070707000000000000000707070707008F
:10093000000001030307070707070703030100007F
:100940000707070707000007070707070000000160
:100950000303070707070707030301000000000759
:100960000707070707030000070707070707030034
:100970000000904A001480F000000000003E5B4F31
:100980005B3E3E6B4F6B3E1C3E7C3E1C183C7E3CEF
:10099000181C577D571C1C5E7F5E1C00183C1800FD
:1009A000FFE7C3E7FF0018241800FFE7DBE7FF308D
:1009B000483A060E2629792926407F050507407FFB
:1009C00005253F5A3CE73C5A7F3E1C1C08081C1C6E
:1009D0003E7F14227F22145F5F005F5F06097F0164
:1009E0007F006689956A606060606094A2FFA2944F
:1009F00008047E040810207E201008082A1C08081D
:100A00001C2A08081E101010100C1E0C1E0C30386A
:100A10003E3830060E3E0E06000000000000005F6B
:100A200000000007000700147F147F14242A7F2A87
:100A30001223130864623649562050000807030049
:100A4000001C2241000041221C002A1C7F1C2A0895
:100A5000083E0808008070300008080808080000F8
:100A600060600020100804023E5149453E00427F6C
:100A7000400072494949462141494D331814127FBB
:100A80001027454545393C4A49493141211109075B
:100A90003649494936464949291E000014000000DC
:100AA00040340000000814224114141414140041AE
:100AB00022140802015909063E415D594E7C12116B
:100AC000127C7F494949363E414141227F414141A3
:100AD0003E7F494949417F090909013E414151731E
:100AE0007F0808087F00417F41002040413F017F8F
:100AF000081422417F404040407F021C027F7F0457
:100B000008107F3E4141413E7F090909063E41519F
:100B1000215E7F09192946264949493203017F018F
:100B2000033F4040403F1F2040201F3F4038403F90
:100B3000631408146303047804036159494D4300A6
:100B40007F4141410204081020004141417F0402DD
:100B50000102044040404040000307080020545474
:100B600078407F2844443838444444283844442852
:100B70007F385454541800087E090218A4A49C78A5
:100B80007F0804047800447D40002040403D007F01
:100B90001028440000417F40007C047804787C08E1
:100BA0000404783844444438FC18242418182424B5
:100BB00018FC7C08040408485454542404043F449A
:100BC000243C4040207C1C2040201C3C4030403CC9
:100BD00044281028444C9090907C4464544C440029
:100BE000083641000000770000004136080002018D
:100BF0000204023C2623263C1EA1A161123A404079
:100C0000207A3854545559215555794121545478F6
:100C100041215554784020545579400C1E5272128F
:100C20003955555559395454545939555454580017
:100C300000457C410002457D420001457C40F02991
:100C40002429F0F0282528F07C54554500205454E0
:100C50007C547C0A097F4932494949323248484824
:100C600032324A4848303A4141217A3A424020786B
:100C7000009DA0A07D39444444393D4040403D3C66
:100C800024FF2424487E4943662B2FFC2F2BFF0989
:100C900029F620C0887E090320545479410000447D
:100CA0007D413048484A32384040227A007A0A0A68
:100CB000727D0D19317D2629292F282629292926DB
:100CC00030484D4020380808080808080808382F20
:100CD00010C8ACBA2F102834FA00007B00000814AA
:100CE0002A142222142A14089500220095AA0055DD
:100CF00000AAAA55AA55AA000000FF00101010FF74
:100D000000141414FF001010FF00FF1010F010F07A
:100D1000141414FC001414F700FF0000FF00FF146B
:100D200014F404FC141417101F10101F101F1414B7
:100D3000141F00101010F0000000001F1010101001
:100D40001F10101010F010000000FF1010101010F5
:100D500010101010FF10000000FF140000FF00FF33
:100D600000001F10170000FC04F4141417101714CF
:100D700014F404F40000FF00F714141414141414F1
:100D8000F700F7141414171410101F101F14141464
:100D9000F4141010F010F000001F101F0000001FCE
:100DA00014000000FC140000F010F01010FF10FF01
:100DB000141414FF141010101F00000000F010FF96
:100DC000FFFFFFFFF0F0F0F0F0FFFFFF000000007A
:100DD00000FFFF0F0F0F0F0F38444438447C2A2ABE
:100DE0003E147E02020606027E027E0263554941DF
:100DF000633844443C04407E201E2006027E0202EA
:100E000099A5E7A5991C2A492A1C4C7201724C30FD
:100E10004A4D4D303048784830BC625A463D3E49D4
:100E20004949007E0101017E2A2A2A2A2A44445F78
:100E3000444440514A444040444A51400000FF016C
:100E400003E080FF000008086B6B0836123624367A
:100E5000060F090F060000181800000010100030DF
:100E600040FF0101001F01011E00191D1712003C67
:100E70003C3C3C0000000000060115012601370142
:100E80004A015D01720188019F01B801D201EE01A2
:100E90000B022A024B026E029302BA02E402100312
:100EA0003F037003A403DC03170455049704DD0417
:100EB00027057505C80520067D06E0064907B80721
:100EC0002D08A9082D09B9094D0AEA0A900B400C12
:100ED000FA0CC00D910E6F0F5A1053115B12721362
:100EE0009A14D41520178018F519801B231DDE1EB7
:100EF000B420A622B524E4263429A72B402E0031A5
:100F0000EA330037453ABC3D68414C456B49C84D12
:100F100068524F57805C0062101112131516171893
:100F20001A1C1D1F21232527292C2E3134373A3E28
:100F30004145494E52575C62686E757B838B939C2A
:100F4000A5AFB9C4D0DCE9F70000000200090F002A
:100F500000030401000C000000000000000000007D
:100F60000000000000000003010000000024002732
:100F7000002A002D003000D5F08D14A1C881CFD9F2
:100F8000F1AF200004080201104080401020408092
:100F900040800802040180402010020110801020CF
:100FA00040402000000000250028002B002E0031CA
:100FB0000004040404040304050202020204030200
:100FC00002020206060606060604040202020404E1
:100FD0000B020A02120204020802010215011701A3
:100FE000160100080B0002020200000904000001C3
:100FF000020200000524001001052401010104245F
:1010000002060524060001070581031000400904BB
:101010000100020A00000007050202400000070567
:1010200083024000000403090412010002EF0201E0
:101030004041233680000101020301417264756959
:101040006E6F204C4C430041726475626F790000F2
:10105000D42111241FBECFEFDAE0DEBFCDBF11E0F7
:10106000A0E0B1E0E0E4F7E502C005900D92A635FE
:10107000B107D9F727E0A6E5B1E001C01D92AC3871
:10108000B207E1F718E0C9E2D8E004C02197FE01F9
:101090000E94B228C832D107C9F70E940B220C94D3
:1010A0009E2B0C940000CF93DF93DC0177FF13C0DD
:1010B00022273327261B370B842F042E000C990B75
:1010C000281739072CF4460F70E060E0141644F03E
:1010D000DF91CF9108951416DCF760347105C4F7E1
:1010E000A038B105A9F3262FCB01840F911D47FD30
:1010F0009A958134910514F040E4461B27709FEFC8
:10110000022E01C0990F0A94EAF7420F621B71097F
:1011100077FF02C0695F7F4F83E0759567958A9579
:10112000E1F7FB01F695FE2FEE27F795E795EA0F1D
:10113000FB1FE058FC4F28E030E06FEF70E0141622
:101140003CF6483064F4D901A41BB10947FDB395BE
:10115000EB0102C0D595C795AA95E2F79C23808143
:10116000982B90834850E058FF4F9FEFE8CF0F93A4
:10117000CF93DF9377FF14C0AA27BB27A61BB70B1B
:10118000E22F022E000CFF0BAE17BF072CF4260F28
:1011900070E060E012163CF0DF91CF910F9108955E
:1011A00060347105CCF7FC01E40FF11DE138F10565
:1011B00014F040E8481B562FFB01E20FF11D27FDFC
:1011C000FA95E134F10514F020E4261B57703FEF47
:1011D000052E01C0330F0A94EAF7250F651B71092C
:1011E00077FF02C0695F7F4F53E0759567955A9509
:1011F000E1F77695762F662777956795860F971F87
:1012000080589C4FA8E0B0E0CFEFD0E0121624F653
:10121000283064F4BD01621B710927FD7395FE013E
:1012200002C0F595E7956A95E2F73E2301110DC0DE
:101230003095FC01542F6081632361935150D9F79D
:10124000285080589F4F3FEFE1CFFC01542F608121
:10125000632B61935150D9F7F3CF2F923F924F9266
:101260005F926F927F928F929F92AF92BF92CF9236
:10127000DF92EF92FF920F931F93CF93DF9300D0F3
:1012800000D0CDB7DEB7822E912C9401280F391FE4
:1012900037FDB0C0803891050CF0ACC09B01200F29
:1012A000311D37FDA7C0603471050CF0A3C0DB0110
:1012B00077FF04C0AA27BB27A61BB70BA770BB27C5
:1012C0009B0177FF02C0295F3F4FF3E035952795DB
:1012D000FA95E1F777FF08C02150310968E070E026
:1012E000FB01EA1BFB0BDF01202E2694269426949B
:1012F000312C077019F0FFEF2F1A3F0AB9017695CC
:10130000762F662777956795680F791F64597C4F0C
:101310008A01220E331E48E050E03A016A1A7B0A25
:101320002F3F4FEF34070CF458C07C836B836C0164
:1013300050E040E02B01F0E84F0E511CD7FC3BC0C1
:101340002F3F320709F4A6C05A01A00EB11EEB814F
:10135000FC81F488F1E0EF1264C0F501A490EA2D5D
:101360000A2E01C0EE0F0A94EAF7FE2AEB81FC81F7
:10137000F48A109701F127303105E9F0FA01E00F06
:10138000F11FFA83E9835201A40EB51EF501F4881A
:10139000F1E0EF125FC0E981FA81F491EF2FF0E004
:1013A000FA83E983062C02C0F595E7950A94E2F7E3
:1013B000FE2AF501F48A4F5F5F4FFFEFCF1ADF0A75
:1013C000EB81FC813196FC83EB83481559052CF4A5
:1013D000E0E8CE16D10409F0B1CF2F5F3F4F60583F
:1013E0007F4F080D191D2215330521F028303105D6
:1013F00009F096CF0F900F900F900F90DF91CF9143
:101400001F910F91FF90EF90DF90CF90BF90AF9022
:101410009F908F907F906F905F904F903F902F9014
:101420000895F501E1100DC0A490EA2DF0E00A2E18
:1014300002C0EE0FFF1F0A94E2F7E095F095FE223E
:1014400095CFA490EA2D0A2E01C0EE0F0A94EAF778
:10145000FE268CCFE981FA81E1100FC0F491EF2FC5
:10146000F0E0FA83E983062C02C0F595E7950A942B
:10147000E2F7E095F095FE229CCFF491EF2FF0E09B
:10148000FA83E983062C02C0F595E7950A94E2F702
:10149000FE268FCF109709F071CF8DCF80E893E0B3
:1014A00020E0B22FB111BFEFFC010024B193B19342
:1014B000B193B1930394D1F70895FC018091140383
:1014C000882311F13FB7F89482E08093E9002091DE
:1014D000F200822F90E01816190614F481E090E0D3
:1014E000882339F0289844E6409313034091F10093
:1014F0004083222339F02091F200211103C02BE612
:101500002093E8003FBF08958FEF9FEF08952FB716
:10151000F89483E08093E9009091E800892F80722D
:1015200095FF04C09091F20080E4891B2FBF0895BD
:1015300080910B0381110DC082E08093070384E04A
:101540008093080310920A031092090381E08093AC
:101550000B0387E093E00895CF93DF931F92CDB7FD
:10156000DEB76983DC01ED91FC910280F381E02D0F
:1015700041E050E0BE016F5F7F4F09950F90DF9112
:10158000CF91089583E08093E9008091F200882351
:1015900019F08AE38093E80008950E94870A90E09A
:1015A0000895CF93DF931F92CDB7DEB7FC018485FA
:1015B000958597FD08C02FEF3FEF358724870F9063
:1015C000DF91CF910895CE0101960E945D0A0197A7
:1015D00019F4898190E0F3CF8FEF9FEFF0CF0F9355
:1015E0001F93CF93DF931F92CDB7DEB78C01FC0121
:1015F0008485958597FF0BC0CE0101960E945D0AF8
:10160000019771F4898190E0F80195878487F8014A
:10161000848595850F90DF91CF911F910F9108954B
:101620008FEF9FEFF1CFFC018485958597FD0BC06F
:101630009FB7F89482E08093E9008091F2009FBF09
:1016400090E0019608959FB7F89482E08093E900B6
:101650008091F2009FBF90E0089540910103509166
:1016600002032091FF023091000342175307B4F4A4
:101670009091E8009570E1F39091E80092FD19C017
:101680008093F100809101039091020301968F7382
:101690009927892B19F48EEF8093E800809101033C
:1016A000909102030196909302038093010381E0DD
:1016B000089580E00895EF92FF920F931F93CF93C8
:1016C000DF93F82E192FE62E042F81E0860F880F66
:1016D0000E942D0B83E00E942D0BCF2DD12FEC0EFD
:1016E000FD2EF11CCE15DF05B9F007FF13C0FE017A
:1016F00084910E942D0B182F80E00E942D0B8123D6
:1017000021968111EFCFDF91CF911F910F91FF9023
:10171000EF9008958881EDCF81E0F5CFDF92EF92D1
:10172000FF920F931F93CF93DF93D82E8A01EB0183
:101730007B01E40EF51ECE15DF0559F0D7FE12C071
:10174000FE0184910E942D0B21968111F4CF0FEFA1
:101750001FEFC801DF91CF911F910F91FF90EF9084
:10176000DF9008958881EECF0F931F93CF93DF937F
:101770001F92CDB7DEB782E0898342E450E063EE8A
:101780007FE080E80E948E0B0E94980ADC0112968E
:101790000D911C910115110589F0D801ED91FC9175
:1017A0000280F381E02DBE016F5F7F4FC801099574
:1017B00097FD04C0F80100851185ECCF89810F9059
:1017C000DF91CF911F910F910895615030F02091DA
:1017D000F100FC0120830196F8CF289884E68093DD
:1017E0001303089588E78093F8020895AF92BF929B
:1017F000CF92DF92EF92FF920F931F93CF93DF93DD
:101800006C017B018B01040F151FEB015E01AE180B
:10181000BF08C017D10759F06991D601ED91FC912D
:101820000190F081E02DC6010995892B79F7C5015A
:10183000DF91CF911F910F91FF90EF90DF90CF90AC
:10184000BF90AF900895282F30E0F901E85BF04F8A
:101850009491F901EC57F04F84912F54304FF901D6
:101860002491222309F430C09923E9F091509F304C
:10187000D0F4E92FF0E0E15CF34F0C94B2286D0C4A
:10188000710C4E0C650C690C530C530C530C740CFE
:101890007A0C7E0C820C880C530C8C0C909180007E
:1018A0009F7790938000E22FF0E0EE0FFF1FED5541
:1018B000F04FA591B4919FB7F894EC91611132C0AB
:1018C00080958E238C939FBF0895909180009F7D7B
:1018D000E8CF90918000977FE4CF94B59F7794BD37
:1018E000E2CF94B59F7DFBCF909190009F7790932E
:1018F0009000D9CF909190009F7DF9CF909190006A
:10190000977FF5CF9091C0009F779093C000CBCF89
:101910009091C0009F7DF9CF9091C200977F9093E6
:10192000C200C1CF8E2BCECFCF93DF9390E0FC01CE
:10193000EC57F04F24918F54904FFC0184918823F1
:10194000C9F090E0880F991FFC01E759F04FA5916D
:10195000B491FC01ED55F04FC591D49161110DC0CA
:101960009FB7F8948C91209582238C9388812823AB
:1019700028839FBFDF91CF910895623051F49FB7C4
:10198000F8943C91822F809583238C93E8812E2BB1
:10199000EFCF8FB7F894EC912E2B2C938FBFEACF1B
:1019A0003FB7F8948091E9029091EA02A091EB028E
:1019B000B091EC0226B5A89B05C02F3F19F0019607
:1019C000A11DB11D3FBFBA2FA92F982F8827BC0199
:1019D000CD01620F711D811D911D42E0660F771FC1
:1019E000881F991F4A95D1F708958F929F92AF92C1
:1019F000BF92CF92DF92EF92FF924B015C010E9467
:101A0000D00C6B017C010E94D00C6C197D098E09F1
:101A10009F09683E734081059105A8F321E0821A71
:101A20009108A108B10888EEC80E83E0D81EE11C19
:101A3000F11C81149104A104B10429F7FF90EF90E7
:101A4000DF90CF90BF90AF909F908F9008958F922E
:101A50009F92AF92BF92CF92DF92EF92FF920F933D
:101A60001F93CF93DF936C017B018A0180910B015F
:101A7000882309F45CC080911403882309F457C0BB
:101A80008091060380FF05C08091E0008260809312
:101A9000E000E801B12C8AEFA82E93E0892E2AE31A
:101AA000922E209711F4BB20D9F10E94870A811150
:101AB0000AC0AA94AA20D9F161E070E080E090E029
:101AC0000E94F50CEECF8C171D0611F00CF08C2F38
:101AD0009FB7F8948092E9002091E80025FD02C0AC
:101AE0009FBFDFCF282F30E0C21BD30BF7018150FF
:101AF00020F041914093F100FACFE20EF31EBB209B
:101B000021F09092E800B12CEBCF8091E80085FDA8
:101B1000E7CF9092E800BB24B394209709F3F3CF6A
:101B20005D9884E680930503101611063CF081E071
:101B300090E0F6019383828310E000E0C801DF911A
:101B4000CF911F910F91FF90EF90DF90CF90BF90BA
:101B5000AF909F908F90089543B18FB129B190E0DD
:101B60008095909534E0959587953A95E1F7887042
:101B700030E02095309553E0359527955A95E1F75B
:101B80002370822B942F9095907D892B089583B795
:101B9000817F83BF83B7816083BF889583B78E7F42
:101BA00083BF0895E091F502F091F6029081809153
:101BB000F4028095892380830895CF92DF92EF927B
:101BC000FF920F931F93CF93E82FF0E0E959F04F66
:101BD000C491E62FF0E0603398F5E85EF04FE491B1
:101BE0000E2F10E0F12CE12C60E074E284EF90E025
:101BF000A70198010E94102621503109410951097D
:101C000091E02115310581E0480751056CF060E94C
:101C100070ED83E090E0A70198010E94102621500A
:101C200031094109510993E0C13089F0C330F9F01D
:101C3000CF911F910F91FF90EF90DF90CF9008957B
:101C4000EE0FFF1FE85EF14F05911491CBCF80910D
:101C50008100887F892B80938100309389002093B5
:101C6000880080916F00826080936F00E1CF809147
:101C70009100887F892B8093910030939900209365
:101C800098001093E7020093E60281E08093E5025A
:101C900080917100826080937100CACFE82FF0E0DC
:101CA000E959F04FE491E13019F0E33089F00895FB
:101CB00080916F008D7F80936F008091F002E091A2
:101CC000F102F091F202908180958923808308953A
:101CD0001092E5028091ED02E091EE02F091EF02A8
:101CE000F2CFE0911703F0911803BF016F5F7F4FB0
:101CF00070931803609317032491922F907F822F83
:101D00008F70903819F40E944E0EEBCF903981F409
:101D10003296F0931803E0931703FB0164919091BE
:101D200015038917F0F667FDDCCF0E94DD0DD9CFD2
:101D3000903E49F48091190390911A0390931803EF
:101D400080931703CECF903F19F410921603089595
:101D500097FDC7CF3296F0931803E0931703FB016A
:101D60006491A091E602B091E702322F262F0E94E3
:101D700064266C507E4F8F4F9F4F28EE33E040E03B
:101D800050E00E9442262093E1023093E202409309
:101D9000E3025093E4028091E1029091E202A0916B
:101DA000E302B091E402892B8A2B8B2B61F481E052
:101DB00090E0A0E0B0E08093E1029093E202A09373
:101DC000E302B093E40208950F931F93CF93DF9340
:101DD00020911B03222329F1162FEC018091160379
:101DE000882381F080918A078617D8F000E08091DF
:101DF0001503081728F4802F0E944E0E0F5FF7CFAF
:101E00001092160310938A07D0931A03C0931903F4
:101E1000D0931803C09317030E94710E81E0809342
:101E20001603DF91CF911F910F91089510921B031C
:101E3000E4E6F0E0808188608083E5E6F0E0808180
:101E4000886080830895E4E6F0E08081877F808366
:101E5000E5E6F0E08081877F808381E080931B034B
:101E6000089560387105E8F440345105D0F4342FFA
:101E7000369536953695A0E83A9FF0011124E60F85
:101E8000F71FE80FF91F3489CA018770992741E0CD
:101E900050E001C0440F8A95EAF7222319F0432B42
:101EA000448B089540954323FBCF2F923F924F924E
:101EB0005F926F927F928F929F92AF92BF92CF92DA
:101EC000DF92EF92FF920F931F93CF93DF93CDB7E3
:101ED000DEB72D970FB6F894DEBF0FBECDBF6A30C8
:101EE00069F5FC01EA5EFB4FDC01A85EBB4F2C915B
:101EF00048E0249F9001112440815181240F351F17
:101F00003183208314971D921C922D960FB6F8945E
:101F1000DEBF0FBECDBFDF91CF911F910F91FF901C
:101F2000EF90DF90CF90BF90AF909F908F907F9079
:101F30006F905F904F903F902F9008956D3029F3F0
:101F40009D878C878C5E9B4F9A838983FC01808060
:101F500091802C853D85285E3B4F3C832B8330E868
:101F6000831691040CF071C0EC85FD85EA5EFB4F91
:101F70006080718040E4641671040CF066C0AB812F
:101F8000BC814C9045E09401449E200D311D1124EC
:101F9000121613060CF059C0242C312C910153E079
:101FA000220F331F5A95E1F7260D371D121613061F
:101FB0000CF04BC0649FB001112410E000E0FB0165
:101FC000E858F64FFB87EA87E0E0053029F0EA851C
:101FD000FB85E00FF11FE491530198E0592E2E2F5D
:101FE00030E03E832D83E170EF83F12CE12CE4148B
:101FF000D8F4C4018E0D9F1D99878887D12CC12CE0
:10200000C41470F4A6014A0D5B1D2F816885798583
:102010008C859D850E94310F9FEFC91AD90AF0CF98
:10202000AFEFEA1AFA0AE3CFED81FE81F595E79565
:102030005A94A20CB31C5110D2CF0F5F1F4F820CC9
:10204000931C0630110509F0BFCFEB81FC81208184
:10205000422F50E0A981BA818D919C91B6E02B9FCF
:10206000800D911D1124E981FA8191838083EC8593
:10207000FD85E75EFB4F2081222309F446CF6AEFFE
:1020800064039001659F300D112420583F4F28179D
:1020900039070CF03ACFAC85BD85ED91FC911197D5
:1020A0000190F081E02D6AE0CD012D960FB6F894F5
:1020B000DEBF0FBECDBFDF91CF911F910F91FF907B
:1020C000EF90DF90CF90BF90AF909F908F907F90D8
:1020D0006F905F904F903F902F9009946FEF82E741
:1020E00099E00C94E40E2091F80221502093F8021C
:1020F000422F4F50550BCA0163E070E00E949E28AA
:102100008AE39AEAA3EEBEEE04C0B695A79597952A
:1021100087956A95D2F781708093B40281E021118E
:1021200080E00895CF92DF92EF920F931F93CF93A9
:10213000DF93EC016B018A014A3051055CF0CA0162
:102140006AE070E00E949E28AB01B601CE010A97BA
:102150000E949210C8016AE070E00E949E28AC01C3
:1021600084E0440F551F8A95E1F74B5B5B4FEE24EB
:10217000E39400E128E0B601CE010E942D09DF9131
:10218000CF911F910F91EF90DF90CF9008952F92F4
:102190003F924F925F926F927F928F929F92AF92F7
:1021A000BF92CF92DF92EF92FF920F931F93CF9344
:1021B000DF93CDB7DEB72F970FB6F894DEBF0FBE13
:1021C000CDBF6A3071F5FC01EA5EFB4FDC01A85E11
:1021D000BB4F4C912081318156E0459F200D311D30
:1021E00011243183208314971D921C9281E090E08A
:1021F0002F960FB6F894DEBF0FBECDBFDF91CF9103
:102200001F910F91FF90EF90DF90CF90BF90AF9014
:102210009F908F907F906F905F904F903F902F9006
:10222000089520EE260F203408F79F878E878C5E56
:102230009B4F9E838D83FC01008111812E853F85FC
:10224000285E3B4F39872887003811050CF065C0A0
:10225000EE85FF85EA5EFB4F808191819B838A83B7
:10226000803491050CF059C0D9018C91482E512C25
:102270009801B5E08B9F200D311D112437FD4DC015
:102280002A813B81E6E08E9F200D311D112437FD10
:1022900044C0EE85FF85E55EFB4F7080EE85FF85CF
:1022A000E65EFB4F608024E0629FF0011124E95359
:1022B000FF4F85909590A590B490813009F05FC054
:1022C00026E0D22EF12CE12CD501C4018170992792
:1022D000AA27BB2780FC02C0761479F0262D892B13
:1022E0008A2B8B2B09F4272D4A815B814E0D5F1DB4
:1022F000B8018E859F850E94310FB694A79497945C
:1023000087943FEFE31AF30A56E0E516F104E1F68D
:10231000DA940F5F1F4FD110D5CFA885B9852C91C6
:10232000422F50E0ED81FE8180819181F6E02F9F68
:10233000800D911D1124AD81BE818D939C93EE85FE
:10234000FF85E75EFB4F2081222309F44FCF6AEF20
:1023500064039001659F300D112420583F4F2817CA
:1023600039070CF043CFAE85BF85ED91FC911197F5
:102370000190F081E02D6AE0CD01099537CF180179
:1023800086E089830A811B8196E09C83D101A40D9C
:10239000B51DBD87AC87D501C40181709927AA27D7
:1023A000BB2780FC02C0761481F1892B8A2B8B2BF2
:1023B00031F16F826101F801E40DF51DFB87EA87B9
:1023C0002C853D85C216D30604F5780117FF02C09F
:1023D000F12CE12C8A859B858134910514F080E4F1
:1023E00090E0E816F9066CF42F81A701B6018E85FE
:1023F0009F850E94310F3FEFE31AF30AEBCF7F82F4
:10240000D9CF5FEFC51AD50ADBCFB694A7949794BE
:1024100087948C8181508C83040D151D8111BBCF55
:10242000998191509983240C351C9111ABCF75CFB4
:10243000EF92FF920F931F93CF93DF938C017B0159
:10244000D0E0C0E0F701EC0FFD1F6491662339F086
:10245000C8010E94C710892B11F02196F3CFCE013D
:10246000DF91CF911F910F91FF90EF9008958F9280
:102470009F92AF92BF92CF92DF92EF920F93CF9342
:10248000DF930E944E0A2091F80288E790E0821BB9
:10249000910968E270E00E949E284B0186E1C82EF7
:1024A00085E0D82E9CE1A92EB12CD0E0C0E081E0DF
:1024B00090E08C169D0611F090E080E02091B4022F
:1024C000289FB001299F700D1124645F7F4FEE2477
:1024D000E39400E228E1A601C5010E942D0921969E
:1024E00088E1A80EB11C80E6C80ED11CC330D1050E
:1024F000F1F608E020E246EF54E06CE270E084E49C
:1025000090E00E942D0980E190E0909381078093F4
:1025100080078AE390E0909383078093820765EEBB
:1025200074E08CE693E0DF91CF910F91EF90DF9014
:10253000CF90BF90AF909F908F900C9418120895F9
:1025400090E080E00895FB0101900020E9F73197C9
:10255000AF01461B570B0C94F60B8F929F92AF92D4
:10256000BF920F931F93CF93DF93CDB7DEB7A197A1
:102570000FB6F894DEBF0FBECDBF19A2423008F4EB
:102580004AE08E010F5D1F4F842E912CB12CA12C9F
:10259000A50194010E944226E62FB901CA01EA3042
:1025A00004F5E05DD801EE938D01232B242B252B20
:1025B00079F790E080E0109729F0BD018CE693E078
:1025C0000E94A312A1960FB6F894DEBF0FBECDBF36
:1025D000DF91CF911F910F91BF90AF909F908F90FF
:1025E0000895E95CDFCF0E94CC28AB01BC01F999CA
:1025F000FECF8091DA029091DB020E94F325809158
:10260000DA029091DB0204969093DB028093DA0267
:102610000895F999FECFBC018091DA029091DB0216
:102620000E94FB258091DA029091DB020296909342
:10263000DB028093DA020895CF93DF93F999FECFFE
:10264000C091DA02D091DB02CE010E94D9252496F6
:10265000D093DB02C093DA02DF91CF910895CF933C
:10266000DF93F999FECFC091DA02D091DB02CE015F
:102670000E94DF252296D093DB02C093DA02DF911D
:10268000CF9108952F923F924F925F926F927F92D7
:102690008F929F92AF92BF92CF92DF92EF92FF9272
:1026A0000F931F93CF93DF93CDB7DEB768970FB625
:1026B000F894DEBF0FBECDBF8091D902882371F0A0
:1026C0001091D8020E944E0A113009F40CC108F48E
:1026D00047C0123009F4FDC11092D9028091D8028E
:1026E000811125C08091B9028695869563E070E0DE
:1026F000681B710977FD60E0633009F461E08AE0EE
:10270000689FB00111246D5B794F4AE050E084E18D
:1027100096E00E94B625E090B80208E027E04CE37E
:1027200056E06AE170E086E190E00E942D0968962B
:102730000FB6F894DEBF0FBECDBFDF91CF911F91D2
:102740000F91FF90EF90DF90CF90BF90AF909F9050
:102750008F907F906F905F904F903F902F90089553
:10276000EE24E39404E124E546E758E070E060E0FD
:1027700083E090E00E942D0920E546E857E063E100
:1027800070E08DE290E00E942D0908E228E24EEB15
:1027900056E068E170E084E090E00E942D098091AD
:1027A000D6029091D7029E012F5F3F4F7901892B6E
:1027B00009F443C002E610E01093810700938007FC
:1027C000109283071092820769EB76E08CE693E023
:1027D0000E941812109381070093800786E090E012
:1027E000909383078093820763EB76E08CE693E017
:1027F0000E9418128091D7028F938091D6028F93F6
:102800008BE491E09F938F93FF92EF920E94D128E7
:1028100010938107009380078EE090E090938307E8
:1028200080938207B7018CE693E00E94A3120F9079
:102830000F900F900F900F900F906BEAA62E66E00E
:10284000B62E78E2C72ED12C10E000E0F50185907D
:102850009490B401C7010E94BF258091D502082E33
:10286000000C990B80179107D9F58CE390E09093B9
:10287000810780938007D0928307C0928207B701B7
:102880008CE693E00E94A31234EA831636E09306A6
:1028900061F48091D40261EA76E0811102C06DE9B1
:1028A00076E08CE693E00E9418120F5F1F4F82E0E3
:1028B000A80EB11C96E0C90ED11C0430110531F6EA
:1028C0006091D502E6E06E02B0011124685D7F4F91
:1028D00001E025E045E084E390E00E94B708FCCEEB
:1028E00080E490E0C4CF86E190E0909381078093EC
:1028F000800784E090E090938307809382076EE8DE
:1029000076E08CE693E00E941812E0E0F4E02FE716
:1029100034E08081806181932E173F07D1F740EC2E
:10292000242E42E0342EC12CD12C7601C39404E035
:1029300010E04601F1E08F1A9108388E2F8A2601A7
:1029400037013EE0A32EB12C90E080E029E0821612
:10295000910411F486E090E0F801E81BF90BF09384
:102960008107E0938007B0928307A09282076CE80A
:1029700076E08CE693E00E9418124AE0C301B201AF
:102980000E94AD1269E876E08CE693E00E9418128E
:10299000EF89F88D61917191F88FEF8B90E080E075
:1029A0004AE00E94AD12FFEF8F1A9F0A26E0A20EA6
:1029B000B11C3FEF431A530A630A730A8CE2A8164C
:1029C000B10411F6045C1F4F95E0C90ED11CE11C47
:1029D000F11CEAE02E0E311C0C37110509F0A9CFCD
:1029E000E0E0F6E02FE736E08081806181932E17EA
:1029F0003F07D1F700E110E01093810700938007B3
:102A000080E390E090938307809382076DE776E000
:102A10008CE693E00E9418126091BE027091BF0292
:102A200090E080E04AE00E94AD121093810700938D
:102A3000800786E390E0909383078093820761E7A5
:102A400076E08CE693E00E9418126091BA027091D1
:102A5000BB028091BC029091BD0220E13EE040E0CB
:102A600050E00E944226CA01B9014AE00E94AD121C
:102A70006091BA027091BB028091BC029091BD023C
:102A80002CE3C22ED12CE12CF12CA70196010E943F
:102A90004226CA01B901A70196010E9442269F93CE
:102AA0008F937F936F938FE491E09F938F938E0129
:102AB0000F5F1F4F1F930F930E94D128B8018CE620
:102AC00093E00E94A3120FB6F894DEBF0FBECDBFF5
:102AD00003CE81E6E82E86E0F82E08E010E0F7014C
:102AE000659174916115710501F1CE0101960E9405
:102AF000BF2566E170E0CE0101960E94C625382F01
:102B00002DEF2303C0011124805C9F4F9093810718
:102B1000809380071093830700938207BE016F5F45
:102B20007F4F8CE693E00E94A31232E0E30EF11C8B
:102B30000A5F1F4F0833110591F6CECD2F923F92B9
:102B40005F926F927F928F929F92AF92BF92CF923D
:102B5000DF92EF92FF920F931F93CF93DF93CDB746
:102B6000DEB72E970FB6F894DEBF0FBECDBF0E9422
:102B70004E0A8091B2029091B30281FB222420F888
:102B8000312C813D934014F4312C212C6091B00202
:102B90007091B102C101860F971F9A83898380903B
:102BA000AE029090AF02820C931C10E000E0F2E1C4
:102BB0006F2E712C877099279E838D8391958195B7
:102BC00091099C01277033273A87298788279927FD
:102BD000881999099C012770332738872F83C901E9
:102BE0009195819591099C01277033273C872B870C
:102BF000E091AD02E00FF12FF11DCF01089660E9E1
:102C000070E00E949E286C017C0173E0F594E794CB
:102C10007A95E1F75C0137E0A322BB24E770FF2738
:102C2000E35CFB4F5490C701880F991F9C838B83F3
:102C3000FC01E757FD4F9081292F30E03E872D871B
:102C4000A114B10409F062C0C7014196B3010E940A
:102C50009E28FC01EE0FFF1FE757FD4F8081A90161
:102C6000481B51094F5F5F4F2D853E8589819A81B1
:102C7000280F391F3E872D8737FD5FC014161506B4
:102C800014F041E050E02D853E85241735070CF403
:102C9000A9018D859E85841B950B9E878D87BC0120
:102CA000C8010E945308452D098401C046950A9425
:102CB000EAF7852D0D8001C0880F0A94EAF7482BAA
:102CC000F801E058FC4F28E030E08D859E85281BF8
:102CD000390B8D859E85181619067CF508975CF5CD
:102CE0008FEF90E0022E02C0959587950A94E2F747
:102CF00084239081892B8083E058FF4F8D859E85AA
:102D000008979E878D87285F3F4FE3CF41E050E0D3
:102D100087E0A816B10409F0A7CFC7014396B30115
:102D20000E949E28FC01EE0FFF1FE757FD4F808198
:102D30004D855E8595CF8FEFDBCFEB81FC81E7572B
:102D4000FD4F218130E0C7014196A114B10439F053
:102D500087E0A816B10409F063C0C7014396B30128
:102D60000E949E28FC01EE0FFF1FE757FD4F918147
:102D7000892F90E0821B930B01969C838B8390E4B8
:102D8000E92EF12CE21AF30AE818F908F7FC4BC017
:102D90002B813C811216130624F081E090E09C8385
:102DA0008B832B813C81E216F30614F4FC82EB82C8
:102DB00060E470E06E197F094B81C8010E945308DE
:102DC0008B819C81E81AF90A852D0F8001C08695B8
:102DD0000A94EAF70B8401C0550C0A94EAF7582AC2
:102DE000D801A050B94F28E030E02E193F091E1439
:102DF0001F04CCF48FEF98E0E916F1042CF4022EB6
:102E000001C0880F0A94EAF785219C91892B8C9345
:102E1000A058B10988E0E81AF108285F3F4FE7CFD2
:102E200081E090E0AACFF601EE0FFF1FE759FE4FB9
:102E300040814423A9F0449FA0011124B6E0559598
:102E40004795BA95E1F78181480F511D87FD5A9545
:102E5000420D531D21E0B8018CE693E00E94310F32
:102E60000F5F1F4F0038110509F0C2CEE0916801D5
:102E7000F0E0EE0FFF1FE757FD4F818120916701C2
:102E800040916601608170E090916501911196C05A
:102E900024039001112437FF02C0295F3F4FF3E064
:102EA00035952795FA95E1F7820F932F911D089795
:102EB000880D991D29813A81620F731F6817790760
:102EC0000CF4BC016933710514F068E370E0809183
:102ED000640134E0839FC00111244695480F592FA7
:102EE000511DE3E0440F551FEA95E1F749545D4F4A
:102EF00080916301EE24E39408E028E090E00E94D2
:102F00002D09809162018823B9F08C3008F059C0F6
:102F100086958650990B10928107109280079093A6
:102F2000830780938207609160017091610190E056
:102F300080E04AE00E94AD1280915F01882309F48D
:102F400043C080915D0190915E019A838983499786
:102F500024F028E130E03A83298389819A814097DF
:102F60009A83898300E020E140E4BC0180E290E0A4
:102F70000E94B708EE24E39400E120E44DEB53E017
:102F800069817A8180E290E00E942D092E960FB629
:102F9000F894DEBF0FBECDBFDF91CF911F910F918F
:102FA000FF90EF90DF90CF90BF90AF909F908F9069
:102FB0007F906F905F903F902F900895680D791DDE
:102FC00086CF90E080E0A7CF809165018823F1F261
:102FD00020915D0130915E013A83298380ED91E07B
:102FE0006C01C21AD30A1C141D0414F4D12CC12C78
:102FF00000E020E148E5B60184E190E00E94B708D6
:10300000EE24E39400E128E54DE053E0B60184E1CD
:1030100090E00E942D0989819A81803C914024F49E
:1030200080EC91E09A83898380915C0190E09C011F
:103030002E5F3F4F220F220F220F33E0880F991F80
:103040003A95E1F7E980FA8030E9E31A31E0F30AD2
:10305000B701681B790B00E048E48CE190E00E9426
:10306000B7084091600150916101B7018AE590E095
:103070000E9492100EE110E01093810700938007E8
:1030800089819A818D58914090938307809382071C
:1030900068E073E08CE693E00E94181210938107B9
:1030A0000093800789819A81875891409093830784
:1030B0008093820762E073E08CE693E00E9418122E
:1030C00080915C01882309F461CF8091B2029091D4
:1030D000B30268E070E00E949E2804970CF056CF7F
:1030E00082E290E0909381078093800789819A81A2
:1030F00086599140909383078093820767EF72E02F
:103100008CE693E02E960FB6F894DEBF0FBECDBFCF
:10311000DF91CF911F910F91FF90EF90DF90CF90B3
:10312000BF90AF909F908F907F906F905F903F90F7
:103130002F900C9418120F931F93CF93DF9310923C
:10314000D80281E08093D902C0911B03CC2309F4FB
:1031500071C00E94230FC093D4021092D5028091B7
:10316000B50281114BC080E093E09093DB02809325
:10317000DA020E941C136F3472448E44914009F0AD
:103180005CC0C3E0D0E00BEE14E40E942F139C015E
:10319000C29FC001C39F900DD29F900D1124080FB4
:1031A000191F2196C031D10581F70E942F130817EE
:1031B000190709F042C084E093E09093DB0280930A
:1031C000DA02C0ECD2E00E942F138993999332E087
:1031D000C43DD307C1F70E942F139093BF02809381
:1031E000BE020E941C136093BA027093BB028093CC
:1031F000BC029093BD0282E08093B5020E9402253A
:1032000064E670E00E949E288A568093B90281E0AD
:103210008093B8021092B7020E94022564EB70E01E
:103220000E949E28845C8093B602DF91CF911F910B
:103230000F9108950E94160F8ECFE0ECF2E084ED1E
:1032400092E0119211928E179F07D9F71092BF0248
:103250001092BE021092BA021092BB021092BC02EF
:103260001092BD0281E0C8CFAF92BF92CF92DF92A1
:10327000EF92FF920F931F93CF93DF937C01B62EB3
:103280008A01FA01C1808081C81ADD080E940225E6
:1032900063E070E00E949E28EC01BB2031F088E0E2
:1032A00090E09C012C1B3D0BE901F80181818252C9
:1032B000990B65E070E00E949E285B010E94022548
:1032C000FE01EC19FD099F01F7FF04C022273327F7
:1032D0002E1B3F0B61E170E0621B730B9501B7FE83
:1032E00004C0222733272A193B09621B730B0E9453
:1032F0009E289C0128503109CC16DD0614F42E0FAF
:103300003F1FB7FE02C02A193B09F8018181820FD5
:10331000932F911D8031910514F480E190E0893361
:10332000910514F088E390E0982F9C1BF70190839F
:103330008183DF91CF911F910F91FF90EF90DF90EC
:10334000CF90BF90AF9008950F931F93CF93DF93CB
:1033500081E080935F011092650188E790E090938F
:103360005E0180935D0110926101109260011092E4
:1033700062011092AD021092B3021092B20210924A
:103380005601109258011092570180E280935B0120
:10339000E9E8F2E090E288E290838183329622E0CD
:1033A000EB39F207C9F7D0E0C0E08E0107561D4F98
:1033B000809156019FEF980F9093560160E087FF30
:1033C00019C00E9402259C01990F440B550B3058DF
:1033D0004F4F5F4FA0916001B09161010E942F2675
:1033E00026E195958795779567952A95D1F760930E
:1033F000560161E0A801CE0185569D4F0E94341907
:103400002296C231D10589F6E9E6F1E010823296C2
:1034100082E0E938F807D1F71092630181E08093E8
:10342000680180936401109266011092670160E068
:1034300087E492E0DF91CF911F910F910C94E40EFD
:10344000CF92DF92EF92FF92CF938091D8028111B9
:10345000C3C08091B9029FEF980F9093B902811178
:1034600009C00E94022564E670E00E949E288A56E8
:103470008093B9028091B7029091B602882341F0FF
:1034800090FF06C03091B80221E0231B2093B802C0
:103490002FEF290F2093B60291110DC091E08927DB
:1034A0008093B7020E94022564EB70E00E949E2880
:1034B000845C8093B6028091880790E08095909517
:1034C00020918907287030E082239323892B79F09B
:1034D0008091D5028823B1F181508093D5026FEF9E
:1034E00086E396E00E94E40E81E08093D902809109
:1034F000880790E08095909520918907227030E0B0
:1035000082239323892B79F08091D5028330E1F0D7
:103510008F5F8093D5026FEF86E396E00E94E40E02
:1035200081E08093D9028091880790E08095909502
:1035300020918907217130E082239323892B39F46C
:10354000C0E01EC083E0C9CF1092D502E4CF8091C5
:10355000D502813079F124F4882341F0C0E00DC018
:103560008230B1F18330D1F782E033C060911B0328
:1035700082E090E00E94E525C1E081E08093D902DD
:103580000E9402256C01990FEE08FF080E94D00CE2
:10359000C616D706E806F90631F06C257D258E257E
:1035A0009F250E94AD258C2FCF91FF90EF90DF904B
:1035B000CF900895C091D402C82739F00E94230FFC
:1035C000C093D4020E946E10C9CF0E94160FF8CF8C
:1035D00081E08093D802F6CF8091880790E08095B3
:1035E000909520918907217130E082239323892BC4
:1035F00009F4A6CF1092D8020E946E1081E0809349
:10360000D9029ECFBF92CF92DF92EF92FF920F939B
:103610001F93CF93DF93B090650180915F0181117B
:1036200003C0BB2009F40DC380915D0190915E0140
:10363000019790935E0180935D01892B11F41092A4
:103640005F0110915F0111110FC08091B202909142
:10365000B30202968B19910960E074E00E949E28E3
:103660009093B3028093B202E090B202F090B30262
:1036700020EDE21623E0F20629F462E08EEA92E001
:103680000E94E40EB701FF0C880B990B0E941D27C6
:103690002BED3FE049E450E40E94E82720E030E0D1
:1036A00040E05BE30E94E8270E94E02620E030E053
:1036B00040E05FE30E94E8279B01AC0160E070E01E
:1036C00080E09FE30E9473266B017C0160915B01A7
:1036D00070E090E080E00E941D279B01AC01C701D3
:1036E000B6010E94E8270E94E5266B019B017093BA
:1036F0005A0160935901CB018095909597FD0196F1
:10370000959587959093B1028093B002C60137FDDD
:103710000196959587959093AF028093AE02BB205A
:1037200029F180918907817190E02091880730E02C
:103730002095309582239323892B11F00E94A419A0
:1037400080916601882309F4BEC081508093660190
:1037500080916401880F90916301890F9FEF980F0A
:10376000993308F070C190936301ADC080916601F8
:103770008111EBCF11110AC080918907982F991FF1
:103780009927991F86FF95C087FD9DC081E0809392
:10379000640101E010E02091680130E0C901800F70
:1037A000911F429662E170E00E949E28DC01AA0F00
:1037B000BB1FA757BD4F11965C911197220F331F66
:1037C000F901E757FD4F418120813C91E42FE31B34
:1037D000FF0BBF01E52FE21BFF0B9F016E177F0759
:1037E0000CF49B01C20ED31EF8E0CF16D1040CF4EA
:1037F0006AC0451B409367018093680188E080930D
:10380000660180916301080F111D093311050CF445
:1038100046C00091AD0206950695069510E0C801D8
:10382000419662E170E00E949E28880F991F9C01DA
:1038300027573D4F7901809156019FEF980F909344
:10384000560187FF1AC00E9402259C01990F440B64
:10385000550B30584F4F5F4FA0916001B0916101FF
:103860000E942F2626E195958795779567952A954D
:10387000D1F760935601BB24B394C801880F991FF8
:10388000A7016B2D87579D4F0E94341980916001CD
:103890009091610101969093610180936001809104
:1038A0005F0181114DCF63E080EA92E00E94E40E57
:1038B00047CF992341F010926401809163010FEF8B
:1038C0001FEF811168CF2091AE023091AF02E9E67F
:1038D000F1E010E000E0C80187709927892B79F4A6
:1038E000D801C3E0B595A795CA95E1F7AA0FBB1F0C
:1038F000A757BD4F1196CC91C20FD32FD11D8081F8
:10390000882399F08F5F8083889FC0011124A6E0EF
:1039100095958795AA95E1F74181840F911D47FD03
:103920009A95C817D9070CF410820F5F1F4F329673
:103930000039110581F680915F01811155C10E9406
:1039400002256091B2027091B302E6E07595679529
:10395000EA95E1F76F5F7F4F0E949E28892B09F55A
:103960000E940225B8010E949E28DC01AA0FBB1FFD
:10397000A759BE4F2C91211114C021E02C9397FD23
:103980000796FC0133E0F595E7953A95E1F7EE0FE0
:10399000FF1FE757FD4F80819091B002890F11966C
:1039A0008C9380915F0181111FC18091B20290912F
:1039B000B302892B09F018C18091570190915801E9
:1039C0000196909358018093570120915B012F3FFE
:1039D00019F02F5F20935B01E0916801F0E0EE0F9A
:1039E000FF1FE757FD4F21813081231B330B24300C
:1039F00031050CF0F9C021E020936501982F88274C
:103A0000990F092E000CAA0BBB0B4091600150913D
:103A100061015093D7024093D6022AE030E0E901D9
:103A20009E0121503109F901EE0FFF1FE054FD4FB7
:103A30006081718164177507A0F429303105B1F4F4
:103A4000C9E0D0E0EDCF8250809363018091AD0258
:103A500090E0019660E970E00E949E288093AD029C
:103A600032CFCA30D10599F09E0109C0CC0FDD1FBD
:103A7000C054DD4F798368832115310581F6F90142
:103A8000EE0FFF1FE054FD4F51834083E901209169
:103A9000BE023091BF022F5F3F4F3093BF02209391
:103AA000BE024091BA025091BB026091BC0270917B
:103AB000BD02840F951FA61FB71F8093BA02909373
:103AC000BB02A093BC02B093BD028091B5028130CD
:103AD00061F480E093E09093DB028093DA026FE47C
:103AE00072E48EE491E00E94F512CE018E579E4F53
:103AF000880F991F9093DB028093DA028E01000FEA
:103B0000111F00541D4F40ECE42E42E0F42E54ED02
:103B1000C52E52E0D52EC016D10639F0F80181919C
:103B200091918F010E940913F6CF8091BE0290916E
:103B3000BF020E9409136091BA027091BB0280918A
:103B4000BC029091BD020E94F51223E030E04BEEE2
:103B500054E4F701619171917F01629FC001639FFD
:103B6000900D729F900D1124480F591F2F5F3F4FEA
:103B70002D30310571F7C090BA02D090BB02E090B1
:103B8000BC02F090BD028091BE029091BF026DE038
:103B9000689F9001699F300D11246EE06C9DC001FB
:103BA0006D9D900D1124280F391F6FE06E9DC0018F
:103BB0006F9D900D1124820F931F840F951F0E94FB
:103BC000091382E08093B50281E0C11180E0809307
:103BD0005C0180EE91E090935E0180935D0161E075
:103BE00089E692E00E94E40E809165019091620165
:103BF000209163012033A8F020915F01211111C0B1
:103C0000811121C0903218F49F5F90936201DF917F
:103C1000CF911F910F91FF90EF90DF90CF90BF90C9
:103C20000895992319F0915090936201882379F3B4
:103C300081E020915D0130915E01232B41F380E012
:103C4000E6CF10E002CD992399F3EDCF1F920F92AA
:103C50000FB60F9211248F939F938091E100909162
:103C6000E100937F9093E10083FF0FC01092E90081
:103C700091E09093EB001092EC0092E39093ED00B2
:103C80001092140398E09093F00082FF22C093E01A
:103C90009093E9009091F200992319F09AE39093A0
:103CA000E80090910503992341F09091050391500C
:103CB00090930503911101C05D9A9091130399238C
:103CC00041F090911303915090931303911101C00F
:103CD000289A84FF18C08091E2008E7E81608093D4
:103CE000E2008091E1008F7E8093E10080910603E5
:103CF0008E7E8061809306039F918F910F900FBEFF
:103D00000F901F90189580FFF7CF8091E2008E7E74
:103D100080618093E2008091E1008E7E8093E100DB
:103D2000809106038E7E8160E5CF1F920F920FB6C1
:103D30000F921124CF92DF92EF92FF920F931F9375
:103D40002F933F934F935F936F937F938F939F93A3
:103D5000AF93BF93EF93FF93CF93DF93CDB7DEB7CE
:103D60006C97DEBFCDBF1092E9008091E80083FF21
:103D700025C068E0CE0145960E94E50B82EF809356
:103D8000E8008D8987FF39C09091E80090FFFCCF53
:103D9000982F907609F034C19E894F89588D2F89CC
:103DA000F88C911131C0803861F5809104038093C3
:103DB000F1001092F1008EEF8093E8006C960FB640
:103DC000F894DEBF0FBECDBFDF91CF91FF91EF9191
:103DD000BF91AF919F918F917F916F915F914F9123
:103DE0003F912F911F910F91FF90EF90DF90CF9017
:103DF0000F900FBE0F901F9018959EEF9093E800C4
:103E0000C7CF1092F100D5CF913059F48111D3CFA3
:103E10004130510581F6809104038D7F8093040326
:103E2000CACF933049F48111C6CF4130510519F6FC
:103E3000809104038260F2CF953041F48091E800D4
:103E400080FFFCCF20682093E300B5CF963009F0C7
:103E5000A9C00B8D1C8D22E01092E9001092020384
:103E600010920103F2122EC0109200031092FF0272
:103E70000E94B40B1F8299E09983FA8291E09E839D
:103E800090EA98879AEF9987209101033091020375
:103E9000275F3F4F3C832B838D831092E900109264
:103EA000020310920103109300030093FF0249E004
:103EB00050E0BE016F5F7F4F80E00E948E0B0E943A
:103EC000B40B79CF109300030093FF020E94980A6D
:103ED000DC0112960D911C910115110509F451C1D7
:103EE000D801ED91FC910480F581E02DBE016B5E5F
:103EF0007F4FC8010995009709F03EC1F801008580
:103F00001185EACFF3E0FF120EC08F89882309F4F0
:103F100040C0823061F440E867E087E490E10E94AD
:103F20005B0B811148CF81E28093EB0047CF81305A
:103F300029F440E86BE08BE390E1F1CF833099F70F
:103F40000E94980ADC011296ED90FC908E010F5FA2
:103F50001F4F6801E114F10479F0D701ED91FC9154
:103F60000680F781E02DB801C7010995080F111DE2
:103F7000F701E084F184EECFD8011C92F6010190A4
:103F80000020E9F73197BF016C197D0940E0C601B7
:103F9000C6CF65E270E1FB01449150E080E80E94E9
:103FA0008E0B09CF973009F4BECF983021F481E011
:103FB0008093F10000CF993009F0FDCE837009F0B5
:103FC000B2CFE7E2F1E081E031E096E321912223F4
:103FD00071F08093E9003093EB00DF0111972C9191
:103FE0002093EC009093ED008F5F873079F78EE798
:103FF0008093EA001092EA008F8980931403DBCE4D
:104000008B8D9C8D1092E900109202031092010397
:10401000909300038093FF02898D811192C08E8955
:104020009D89913A49F4813209F07DCF47E050E013
:1040300064E071E080E0B3CF913209F074CF833255
:1040400069F48F89988DB0E0A0E08093000190938F
:104050000101A0930201B0930301ADCE803269F457
:104060008091E80082FFFCCF67E084E091E00E944D
:10407000E50B8BEF8093E8009ECE823209F09BCE59
:104080008F8980930B01EEEFFFE7859194918B3F31
:104090009C4D51F1E0E0F8E0809104019091050120
:1040A000A0910601B0910701803B9440A105B105A4
:1040B000F1F480910B0180FD1AC0EE3F8AE0F80711
:1040C00089F587E797E791838083809160008093EB
:1040D000030388E19BE00FB6F894A89580936000F5
:1040E0000FBE9093600067CEEEEFFAE0D5CF8081EF
:1040F00091818737974709F05ECEA895809160003F
:104100008861809360008091030380936000EE3F9C
:104110002AE0F20789F08091FE0A9091FF0A9183CC
:10412000808349CE808191818737980751F290939F
:10413000FF0A8093FE0AC5CF1092FF0A1092FE0A72
:104140003ACE0E94980ADC0112960D911C9101153D
:10415000110509F4E8CED801ED91FC910190F081B0
:10416000E02DBE016B5E7F4FC8010995811123CE02
:10417000F80100851185EBCF181619060CF41BCE3B
:10418000D2CEF1E0FF12BECE69E270E104CF1F9201
:104190000F920FB60F9211242F933F938F939F93FB
:1041A000AF93BF938091F9029091FA02A091FB0224
:1041B000B091FC023091E80223E0230F2D3758F52F
:1041C0000196A11DB11D2093E8028093F9029093FE
:1041D000FA02A093FB02B093FC028091E902909155
:1041E000EA02A091EB02B091EC020196A11DB11D73
:1041F0008093E9029093EA02A093EB02B093EC0261
:10420000BF91AF919F918F913F912F910F900FBED2
:104210000F901F90189526E8230F0296A11DB11D3F
:10422000D2CF1F920F920FB60F9211242F933F936C
:104230004F935F936F937F938F939F93AF93BF93AE
:10424000EF93FF938091E502882349F08091ED027E
:10425000E091EE02F091EF029081892780838091B6
:104260001603882329F18091E1029091E202A09146
:10427000E302B091E402892B8A2B8B2BC9F0809149
:10428000E1029091E202A091E302B091E402019771
:10429000A109B1098093E1029093E202A093E302A5
:1042A000B093E402892B8A2B8B2B11F40E94710EA0
:1042B000FF91EF91BF91AF919F918F917F916F91FE
:1042C0005F914F913F912F910F900FBE0F901F90D4
:1042D00018951F920F920FB60F9211248F939F93F0
:1042E000AF93BF93EF93FF938091E002882309F48B
:1042F00052C08091DC029091DD02A091DE02B0916B
:10430000DF02892B8A2B8B2BA1F19091F002E09197
:10431000F102F091F2028081892780838091DC0292
:104320009091DD02A091DE02B091DF02181619060D
:104330001A061B069CF48091DC029091DD02A0918C
:10434000DE02B091DF020197A109B1098093DC027E
:104350009093DD02A093DE02B093DF02FF91EF9114
:10436000BF91AF919F918F910F900FBE0F901F90B3
:1043700018951092E00280916F008D7F80936F00FE
:104380008091F002E091F102F091F202908180952B
:1043900089238083E3CF9091F002E091F102F091C4
:1043A000F20280818927F5CFECE1F3E013821282DB
:1043B00088EE93E0A0E0B0E084839583A683B78382
:1043C00081E391E0918380838FEF9FEF95878487CE
:1043D000ECE6F3E0138212828CE3868380E181872E
:1043E0001086178216861786108A118A128A1092F2
:1043F000810710928007109283071092820781E054
:104400008093840723E431E03183208380938607FF
:10441000109287070895789484B5826084BD84B52E
:10442000816084BD85B5826085BD85B5816085BDAF
:1044300080916E00816080936E0010928100809167
:1044400081008260809381008091810081608093EF
:104450008100809180008160809380008091910034
:10446000826080939100809191008160809391009F
:10447000809190008160809390008091C100846061
:104480008093C1008091C10082608093C1008091BF
:10449000C10081608093C1008091C30081608093DE
:1044A000C3008091C00082608093C0008091C200F0
:1044B00081608093C20080917A00846080937A004A
:1044C00080917A00826080937A0080917A00816086
:1044D00080937A0080917A00806880937A001092AD
:1044E000140310920403109206038091D700816098
:1044F0008093D70080EA8093D80089B5806189BD18
:1045000089B5826089BD09B400FEFDCF61E070E02D
:1045100080E090E00E94F50C8091D8008F7C806153
:104520008093D8008091E000807F8093E0008091AC
:10453000E1008E7E8093E1008DE08093E200559A49
:10454000209A68E873E180E090E00E94F50CCFB714
:10455000F8948091F302811127C0E2ECFFE084918E
:10456000E5E9FFE09491E82FF0E0EE0FFF1FE75937
:10457000F04FA591B491EC91E92321F461E081E140
:104580000E94230C61E081E10E94940C8CB5806153
:104590008CBD8CB580648CBD61E08FE00E94940C72
:1045A00061E080E10E94940C8091F3028F5F809320
:1045B000F302CFBFC0EDDFE0BE01FE0184916F5F6B
:1045C0007F4F2296FB016491882319F00E94940C7E
:1045D000F3CF61E086E10E94230C61E070E080E0AF
:1045E00090E00E94F50C60E086E10E94230C6AE0F6
:1045F00070E080E090E00E94F50C61E086E10E94AE
:10460000230CE8ECFFE0E491F0E0EE0FFF1FED5526
:10461000F04FA591B4919C918091F70280958923E8
:104620008C93EBE9FFE0E491E093F702E6ECFFE026
:10463000E491F0E0EE0FFF1FED55F04F859194915E
:104640009093F6028093F502E9E9FFE0E491E093AC
:10465000F4028CB58C7F8CBD8DB581608DBD0E94C0
:10466000D20DE7E7FFE03FE0E438F30749F084913B
:104670008EBD00000DB407FEFDCF8EB53196F3CF91
:10468000E091F502F091F60280819091F402892B7D
:1046900080838091640081608093640080916400D5
:1046A00082608093640080916400806880936400DD
:1046B00080916400806480936400809165008160D3
:1046C000809365000E94AC0D83FF1AC00E94D20D3A
:1046D00085EA8EBD00000DB407FEFDCF8EB5E091DA
:1046E000F502F091F60280819091F402892B80838B
:1046F000809164008062809364000E94C70DFDCFAA
:1047000080911503823091F0E82FF0E0E959F04FE5
:10471000C4918F5F8093150361E089E00E94940C3F
:10472000C13009F45CC0C33009F47BC061E089E0AA
:104730000E94940C82E090E00E94D125882309F425
:104740009DC080916500877F8093650081E08093A4
:104750001B038CE38093720380E18093750388E7E9
:104760008093F80216E0C0E0D0E001E02FB7F894A3
:104770008091F9029091FA02A091FB02B091FC02A3
:104780002FBF20917E03222391F020917603E82F02
:10479000E21BE0937F0320917303309174032F5F3A
:1047A0003F4F309374032093730310927E03409124
:1047B0007A0350917B0360917C0370917D03841791
:1047C0009507A607B7070CF061C0481B423010F0F0
:1047D0000E94C70D209751F20E940000C7CF10928F
:1047E0008000109281008091810088608093810018
:1047F00080918100816080938100EAEBFFE0E49189
:10480000F0E0EE0FFF1FED55F04F859194919093DE
:10481000F2028093F102EDE8FFE0E491E093F00210
:1048200085CF109290001092910080919100886045
:104830008093910080919100816080939100EAEBD8
:10484000FFE0E491F0E0EE0FFF1FED55F04F859192
:1048500094919093EF028093EE02EDE8FFE0E491F3
:10486000E093ED0280911503882321F06CE380E052
:104870000E94DD0D80E00E944E0E58CF10921B0367
:104880008091650088608093650063CF20917503F7
:10489000AC01BD01420F511D611D711D40937A0392
:1048A00050937B0360937C0370937D038093760326
:1048B00090937703A0937803B093790300937E03DA
:1048C00080918907809388070E94AC0D80938907A7
:1048D0008091FD029091FE02189FF001199FF00D4A
:1048E0001124EC5EFE4F0280F381E02D0995F82E35
:1048F0008091FD029091FE02189FF001199FF00D2A
:104900001124EC5EFE4F0480F581E02D0995809125
:1049100080038EBDE1E8F3E081910DB407FEFDCF89
:104920008EBD37E0E038F307B9F70DB407FEFDCFD1
:10493000FF2009F44FCF8091FD029091FE02019774
:1049400091F081E090E09093FE028093FD02189F29
:10495000F001199FF00D1124EC5EFE4F0190F081E3
:10496000E02D099537CF82E090E0EDCF8F929F92B6
:10497000AF92BF92CF92DF92EF92FF92CF93DF93ED
:10498000EC01688179818A819B81611571058105BE
:10499000910521F464E279ED8BE597E02DE133EFA9
:1049A00041E050E00E94102649015A019B01AC01F0
:1049B000A7EAB1E40E942F266B017C01ACEEB4EFB4
:1049C000A50194010E943D26DC01CB018C0D9D1DAB
:1049D000AE1DBF1DB7FF03C00197A109B048888372
:1049E0009983AA83BB839F77DF91CF91FF90EF904C
:1049F000DF90CF90BF90AF909F908F9008950E94CE
:104A0000B62408958CE091E00E94B6240895B0E0A9
:104A1000A0E080930C0190930D01A0930E01B09340
:104A20000F0108958F929F92AF92BF92CF92DF9223
:104A3000EF92FF92CF93DF93EC01688179818A81B5
:104A40009B81611571058105910521F464E279ED81
:104A50008BE597E02DE133EF41E050E00E94102616
:104A600049015A019B01AC01A7EAB1E40E942F263B
:104A70006B017C01ACEEB4EFA50194010E943D26D0
:104A8000C60ED71EE81EF91EF7FE06C081E0C81A42
:104A9000D108E10880E8F80AC882D982EA82FB825C
:104AA000C701B6019F77DF91CF91FF90EF90DF9024
:104AB000CF90BF90AF909F908F9008958F929F92CC
:104AC000AF92BF92CF92DF92EF92FF92609110016E
:104AD000709111018091120190911301611571057E
:104AE0008105910521F464E279ED8BE597E02DE1F4
:104AF00033EF41E050E00E94102649015A019B012A
:104B0000AC01A7EAB1E40E942F266B017C01ACEE58
:104B1000B4EFA50194010E943D26C60ED71EE81EE3
:104B2000F91EF7FE06C081E0C81AD108E10880E846
:104B3000F80AC0921001D0921101E0921201F09295
:104B40001301C701B6019F77FF90EF90DF90CF90E0
:104B5000BF90AF909F908F900895609310017093D5
:104B6000110180931201909313010895FB01DC0160
:104B700002C005900D9241505040D8F70895FB01B6
:104B8000DC0105900D920020E1F70895FC016150D1
:104B9000704001900110D8F7809590958E0F9F1F5F
:104BA0000895F999FECF92BD81BDF89A992780B5F5
:104BB0000895A6E1B0E044E050E00C940226A8E19C
:104BC000B0E042E050E00C940226262FF999FECF87
:104BD0001FBA92BD81BD20BD0FB6F894FA9AF99A1A
:104BE0000FBE01960895242F0E94E625252F0E94CE
:104BF000E6250C94FB250E94E525272F0C94E6253D
:104C0000DC01CB01FC01F999FECF06C0F2BDE1BD8C
:104C1000F89A319600B40D9241505040B8F708957B
:104C2000052E97FB1EF400940E94272657FD07D0FF
:104C30000E94422607FC03D04EF40C942726509580
:104C40004095309521953F4F4F4F5F4F0895909578
:104C50008095709561957F4F8F4F9F4F08950E946B
:104C60006426A59F900DB49F900DA49F800D911D6B
:104C700011240895B7FF0C942F260E942F26821B23
:104C8000930B0895A1E21A2EAA1BBB1BFD010DC0B8
:104C9000AA1FBB1FEE1FFF1FA217B307E407F507EC
:104CA00020F0A21BB30BE40BF50B661F771F881FC8
:104CB000991F1A9469F760957095809590959B015E
:104CC000AC01BD01CF010895A29FB001B39FC00107
:104CD000A39F700D811D1124911DB29F700D811D28
:104CE0001124911D08955058BB27AA270E948B2696
:104CF0000C949A270E94612738F00E94682720F0C0
:104D000039F49F3F19F426F40C945E270EF4E095D5
:104D1000E7FB0C945827E92F0E94BF2758F3BA17D6
:104D2000620773078407950720F079F4A6F50C94C1
:104D3000E1270EF4E0950B2EBA2FA02D0B01B9013F
:104D400090010C01CA01A0011124FF27591B99F001
:104D5000593F50F4503E68F11A16F040A22F232F0D
:104D6000342F4427585FF3CF469537952795A7955D
:104D7000F0405395C9F77EF41F16BA0B620B730B04
:104D8000840BBAF09150A1F0FF0FBB1F661F771F75
:104D9000881FC2F70EC0BA0F621F731F841F48F42A
:104DA000879577956795B795F7959E3F08F0B0CFB3
:104DB0009395880F08F09927EE0F9795879508959A
:104DC0000E947127E3950C94AB270E94EC2668940F
:104DD000B1110C94E22708950E94C72788F09F57CD
:104DE00098F0B92F9927B751B0F0E1F0660F771F0F
:104DF000881F991F1AF0BA95C9F714C0B13091F005
:104E00000E94E127B1E008950C94E127672F782FE5
:104E10008827B85F39F0B93FCCF3869577956795C9
:104E2000B395D9F73EF490958095709561957F4F35
:104E30008F4F9F4F0895E89409C097FB3EF49095DB
:104E40008095709561957F4F8F4F9F4F9923A9F063
:104E5000F92F96E9BB279395F695879577956795F2
:104E6000B795F111F8CFFAF4BB0F11F460FF1BC036
:104E70006F5F7F4F8F4F9F4F16C0882311F096E9C9
:104E800011C0772321F09EE8872F762F05C0662377
:104E900071F096E8862F70E060E02AF09A95660F30
:104EA000771F881FDAF7880F9695879597F90895E9
:104EB00097F99F6780E870E060E008959FEF80ECCD
:104EC000089500240A941616170618060906089570
:104ED00000240A94121613061406050608950C946D
:104EE0005E270E94C727D8F3E894E0E0BB279F57CE
:104EF000F0F02AED3FE049EC06C0EE0FBB0F661F55
:104F0000771F881F28F0B23A62077307840728F0DA
:104F1000B25A620B730B840BE3959A9572F7803843
:104F200030F49A95BB0F661F771F881FD2F7904801
:104F30000C945728092E0394000C11F4882352F086
:104F4000BB0F40F4BF2B11F460FF04C06F5F7F4FB5
:104F50008F4F9F4F0895EF93E0FF07C0A2EA2AED1D
:104F60003FE049EC5FEB0E948B260E949A270F904E
:104F7000039401FC9058ECEAF0E00C94632857FD90
:104F80009058440F551F59F05F3F71F04795880FB7
:104F900097FB991F61F09F3F79F08795089512164E
:104FA00013061406551FF2CF4695F1DF08C01616FA
:104FB00017061806991FF1CF8695710561050894AB
:104FC0000895E894BB2766277727CB0197F90895C2
:104FD0000E94FB270C949A270E94612738F00E94B8
:104FE000682720F0952311F00C9458270C945E2725
:104FF00011240C94E2270E94BF2770F3959FC1F300
:10500000950F50E0551F629FF001729FBB27F00D76
:10501000B11D639FAA27F00DB11DAA1F649F6627CB
:10502000B00DA11D661F829F2227B00DA11D621F1A
:10503000739FB00DA11D621F839FA00D611D221FD4
:10504000749F3327A00D611D231F849F600D211DB8
:10505000822F762F6A2F11249F5750409AF0F1F03B
:1050600088234AF0EE0FFF1FBB1F661F771F881FA4
:1050700091505040A9F79E3F510580F00C9458275D
:105080000C94E2275F3FE4F3983ED4F3869577953E
:105090006795B795F795E7959F5FC1F7FE2B880F4A
:1050A000911D9695879597F908959F3F31F09150FE
:1050B00020F4879577956795B795880F911D9695FC
:1050C000879597F908959F938F937F936F93FF939D
:1050D000EF939B01AC010E94E827EF91FF910E94A2
:1050E00077282F913F914F915F910C94E827DF93A0
:1050F000CF931F930F93FF92EF92DF927B018C016E
:10510000689406C0DA2EEF010E94FB27FE01E894A6
:10511000A5912591359145915591A6F3EF010E94F6
:105120008B26FE019701A801DA9469F7DF90EF90D2
:10513000FF900F911F91CF91DF91089597FB072E5C
:1051400016F4009407D077FD09D00E94B82807FC18
:1051500005D03EF4909581959F4F08957095619587
:105160007F4F0895EE0FFF1F0590F491E02D0994F5
:10517000AA1BBB1B51E107C0AA1FBB1FA617B7077D
:1051800010F0A61BB70B881F991F5A95A9F7809599
:105190009095BC01CD01089581E090E0F8940C94C5
:1051A0009E2BAEE0B0E0E7EDF8E20C94752B0D8994
:1051B0001E8986E08C831A8309838FEF9FE79E8385
:1051C0008D83AE01475E5F4F6F89788DCE0101966A
:1051D0000E94F4282F813885020F131FF8011082D6
:1051E0002E96E4E00C94912BABE0B0E0EAEFF8E20D
:1051F0000C94672B7C013B018A01FC01178216820B
:10520000838181FFC8C1CE0101965C01F7019381C2
:10521000F30193FD859193FF81913F01882309F468
:1052200053C1853239F493FD859193FF81913F01FC
:10523000853229F4B70190E00E94D92AE7CF912C5A
:10524000212C312CFFE1F31538F08B3211F190F461
:10525000803209F1833229F137FC3CC020ED280F60
:105260002A3050F536FE20C08AE0989E200D112489
:10527000922E06C08D3291F0803371F7689430F829
:10528000F30193FD859193FF81913F018111DACF65
:1052900021C0689431F8689432F8F2CF689433F8FA
:1052A000EFCF689434F8ECCFEAE02E9E200D112465
:1052B000222E689435F8E4CF8E3229F436FC04C1EE
:1052C000689436F8DDCF8C3619F4689437F8D8CF67
:1052D0008836B1F2982F9F7D95549330E0F0833655
:1052E000A1F18337C1F1833509F063C02801F2E0F1
:1052F0004F0E511CF801C080D180692D70E036FC42
:1053000002C06FEF7FEFC6010E94CE2A4C01689465
:1053100037F882010AC00C5F1F4FFFE3F98388242E
:105320008394912C6501E89437F833FE2DC0522CFC
:105330008114910471F5552009F468CFB70180E21A
:1053400090E00E94D92A5A94F6CFF801808189838F
:105350000E5F1F4FE4CF2801F2E04F0E511CF80101
:10536000C080D180692D70E036FC02C06FEF7FEF06
:10537000C6010E94C6254C018201D5CFB70180E24B
:1053800090E00E94D92A2A942814190409F0B0F751
:10539000CECFF60137FC859137FE81916F01B701C1
:1053A00090E00E94D92A51105A94F1E08F1A910886
:1053B000BFCF843619F0893609F077C0F80137FE7F
:1053C0006BC060817181828193810C5F1F4FF32DCF
:1053D000FF763F2E97FF09C0909580957095619557
:1053E0007F4F8F4F9F4F689437F82AE030E0A50138
:1053F0000E94092BC82ECA188C2C432C36FE0CC0D8
:10540000E89440F8C91440F434FE05C032FC03C0EF
:10541000F32DFE7E4F2E892C44FE95C0FE01EC0D2F
:10542000F11D8081803309F087C0242D297E422E12
:10543000842D8870582E43FC95C040FE8FC09C2C54
:10544000821418F42C0C922C981844FE91C0B701C9
:1054500080E390E00E94D92A42FE09C088E790E0EC
:1054600041FE02C088E590E0B7010E94D92AC91424
:1054700008F48AC0CA94D12C9FEFC91AD90ACA0C61
:10548000DB1CF60182916F01B70190E00E94D92ADE
:10549000AC14BD04B1F74FCF60817181072E000CB1
:1054A000880B990B0E5F1F4F92CFD32CE894D4F842
:1054B0002AE030E0853739F1232D297FD22E8F362F
:1054C00001F148F48835A9F0F701868197812B9680
:1054D000E2E10C94832B803749F08837A9F7D4FE9A
:1054E00002C06894D2F820E130E00DC06894D4F88E
:1054F000F6CF34FE03C0822F8660D82E20E132E042
:1055000002C028E030E0F801D7FE0FC06081718151
:10551000828193810C5F1F4FA5010E94092BC82E29
:10552000CA183D2CE89437F867CF6081718190E00C
:1055300080E00E5F1F4FF0CF42FC02C0839478CF13
:105540008394839475CF842D867809F471CFF6CF38
:10555000B70180E290E00E94D92A83948214C0F3BC
:10556000512C73CF522C5818821408F46ECFF8CFF8
:10557000842D867809F47BCF8BE241FE80E247FCE4
:105580008DE2B70190E071CFB70180E390E00E9417
:10559000D92A9A946CCF8FEF9FEF99CFFC01059099
:1055A000615070400110D8F7809590958E0F9F1F25
:1055B00008950F931F93CF93DF93182F092FEB01BB
:1055C0008B8181FD09C01FEF0FEF812F902FDF919D
:1055D000CF911F910F91089582FF14C02E813F81BA
:1055E0008C819D81281739073CF4E881F981CF012E
:1055F00001969983888310838E819F8101969F8372
:105600008E83E3CFE885F985812F0995892BA1F356
:10561000DACFFA01AA27283051F1203181F1E8943C
:105620006F936E7F6E5F7F4F8F4F9F4FAF4FB1E095
:105630003ED0B4E03CD0670F781F891F9A1FA11D90
:10564000680F791F8A1F911DA11D6A0F711D811D91
:10565000911DA11D20D009F468943F912AE0269F56
:1056600011243019305D3193DEF6CF010895462FB5
:105670004770405D4193B3E00FD0C9F7F6CF462F96
:105680004F70405D4A3318F0495D31FD40524193FF
:1056900002D0A9F7EACFB4E0A695979587957795BC
:1056A0006795BA95C9F700976105710508959B0143
:1056B000AC010A2E06945795479537952795BA95CC
:1056C000C9F7620F731F841F951FA01D08952F92A5
:1056D0003F924F925F926F927F928F929F92AF9282
:1056E000BF92CF92DF92EF92FF920F931F93CF93CF
:1056F000DF93CDB7DEB7CA1BDB0B0FB6F894DEBF66
:105700000FBECDBF09942A88398848885F846E848B
:105710007D848C849B84AA84B984C884DF80EE80D5
:10572000FD800C811B81AA81B981CE0FD11D0FB6DE
:10573000F894DEBF0FBECDBFED010895F894FFCF02
:10574000FFFFFFFF00E1000000000000010000007B
:1057500001000000F20B731037129B18201A42133D
:10576000A419021B9E1500C18081000000000000EA
:1057700000AC0A270DCD0AC20A130BD10AEF0A00AA
:10578000000000C710F60BA0129F122535640027F9
:0657900025303264220006
:00000001FF
