:100000000C947E080C94A6080C94A6080C94A608E0
:100010000C94A6080C94A6080C94A6080C94A608A8
:100020000C94A6080C94A6080C94BD200C942C21CA
:100030000C94A6080C94A6080C94A6080C94A60888
:100040000C94A6080C9400240C94A6080C94A60802
:100050000C94A6080C94A6080C94A6080C945E2395
:100060000C94A6080C94A6080C94A6080C94A60858
:100070000C94A6080C94A6080C94A6080C94A60848
:100080000C94A8230C94A6080C94A6080C94A6081B
:100090000C94A6080C94A6080C94A6080C94A60828
:1000A0000C94A6080C94A6080C94A608084AD73B02
:1000B0003BCE016E84BCBFFDC12F3D6C74319ABD37
:1000C00056833DDA3D00C77F11BED9E4BB4C3E915B
:1000D0006BAAAABE000000803F05A84CCDB2D44E4A
:1000E000B93836A9020C50B9918688083CA6AAAA4C
:1000F0002ABE000000803F0006FEFEFFFFFF0C1F2F
:100100001F1F0E0607070707070606000000F8FC7A
:10011000FEFFFF33333F3E3E38000103070707066B
:10012000060603030CFEFEFFFFFF020307FFFFFFAF
:10013000FEF8303F7F7F7F7F6206070707030100DD
:10014000F0FCFEFEFF83030FFFFFFEFCF80001033F
:100150000707070606070303010003FFFFFFFFFF72
:10016000C3C0C0C3FFFFFFFFFF03C0FFFFFFFFFFD0
:10017000C10101C1FFFFFFFFFFC0000000000070D0
:100180000100C0000C00CAA77C0A42F55508534282
:1001900048195EF5511200300000002745004094D8
:1001A0001C0014F3190504F111042004000004419B
:1001B000100400040000104208015E14450F40F0D6
:1001C00001005955551351555D0D8C927C085755BA
:1001D000550D5E55550D51520C015E55550F565536
:1001E000550F00A0000000A4000000C2280080A25B
:1001F00028008062080040500D0000E318009C9227
:10020000241F5F555D0D9C1445115F1425075F5534
:1002100055115F5114015E54551D1F41101F40F4CC
:100220004500100421071F41181D1F0441105EF0F6
:10023000041F9C10041F5E54450F5F9214035ED48C
:10024000451F5F92341B5655550D41F005011F04A3
:1002500021071F4208011FE4410F1743181D07C162
:10026000090151564D1100F0450000F0010040F425
:10027000010080100C00100441109005000F901137
:10028000000F901D000F9029000F9035000F904136
:10029000000F904D000F9059000F80F090510028F2
:1002A00080002890560028800028905A002880005E
:1002B00028E09037007880000A9036008C80001487
:1002C000903500A080001E903400B4800028903348
:1002D00000C8800032903200DC80003C903100F099
:1002E0008000469030000480F05041555345004E48
:1002F0004557205245434F5244210078FEFE870364
:1003000063E7EFEE600090D848F8F8F0000010F8CE
:10031000F8F810F8F8F810F8F8F800E0F0F8487875
:1003200070000000000078FEFEC383070FFEFE7819
:10033000001838F8F8D8C0381800E0F0F84878709D
:100340000010F8F8F8181800010103030303010076
:10035000000001030303030301000303030300037D
:10036000030300030303030003030303010000006E
:10037000000000010103030303010100000000006D
:100380000303000000000003030303010003030351
:10039000030300545259204E455854204C455645AD
:1003A0004C0003FFFFFF337B7B87C00018B878F851
:1003B000E0B81800E0F0F81838B000E0F0F848783D
:1003C000700004FEFEFE000004FEFEFE00E0F0F8F9
:1003D0004878700010F0F8F810F8F80018FCFCFEEF
:1003E0001818008FBF9F03030303030303030100D7
:1003F00003030003030303000001030303010000E0
:1004000003030303010003030303030003030303C4
:1004100003000303030301000303030300030303B7
:10042000000103030301000303034C4556454C0040
:1004300053434F52450003FFFFFF33F3FFFF8E008E
:1004400000E0F0F84878700090D848F8F8F0000024
:10045000F0F8F81AFEFEFE00001838F8F8D8C07858
:1004600018000E8FB3BF1F0E030303030300030323
:100470000303000003030303010001030303030359
:100480000100000303030303030200060E0C0F0721
:100490000100000000030303000024343343424101
:1004A0003130201011010203131466243CFF3C5A22
:1004B0005A3C3013FD3C5AB5F4380C443F5DBCF453
:1004C0006A3026126C9CFFED546408699FFCFC9F07
:1004D00069086454EDFF9C6C1226306AF4BC5D3FE1
:1004E000440C38F4B55A3CFD13303C5A5A3CFF3C9E
:1004F00024661C2FAD5A3CBFC80C0C562F3DBAFCCD
:100500002230262AB7FF393648641096F93F3FF962
:10051000961064483639FFB72A263022FCBA3D2FA0
:10052000560C0CC8BF3C5AAD2F1C55AA55AA3366B1
:10053000CC9900AA00AA55FF55FF9048006480009E
:1005400019904A0064800019904C00648000199052
:100550004D0064800019904F00C880F04F424E2D2E
:100560005930322056455220302E323200C0C6CF8C
:10057000DFFFFB73037CFEFFC7E3FF7F3E00FFFF4F
:10058000FF1B1B1B03000303FFFFFF03030000000F
:10059000000000000080808080000000000000005B
:1005A000000000000080E0F058AC56AB55AB5500A1
:1005B000FF0101010202040810608000003FFFAA51
:1005C00055AA55AA55AA55A85FAC5CAC5CAC5CAC0E
:1005D0005C0CCF3C0000000103060D1A152A252AE9
:1005E000252A2522151209040201000000FFFF57E9
:1005F000AB57AB57AB57AB03FF80808000000000C8
:100600000000000000FFFF55AA55AA55AA55AA00F0
:10061000FF000000010102040830C000001F7FD568
:10062000AA55AA55AA55AA54AF56AE56AE56AE56BE
:100630002E86671E000000000103060D0A15121524
:10064000121512110A090402010000000000000046
:100650000000008080C0C0C0C0808080000000001A
:100660000000000000C0F078AC56AB55AA55AA00B7
:10067000FF000000010102040830C00000FFFF5528
:10068000AA55AA55AA55AA00FFFEAE56AE56AE56BA
:10069000AE5607FE001F171512151215121512106F
:1006A0001F171215121512151215101F0090450074
:1006B0000A80F02D20484F50504552202D00004E0A
:1006C0004F56454D42455220323031370050524F3F
:1006D0004752454D4D4544204259204F424F4E4FC1
:1006E0000000544849532050524F4752414D204931
:1006F000530052454C454153454420554E444552C4
:1007000000544845204D4954204C4943454E5345DB
:100710002E00504C41592054494D45202000504C4A
:10072000415920434F554E5420005D20005B00424C
:100730004553542031302053434F524553004F46C8
:1007400046004F4E0053544152542047414D4500FE
:10075000534F554E4420005245434F52440043529C
:1007600045444954005A011040010D24010E240152
:100770000E0E010BF8000B0000000000F0FCFE1E46
:100780003FFF8F1FFFFEFEFCF00000000000000096
:1007900000000000000000000000C0E0E0F3F7F7F8
:1007A000FEFFFFFFFFFFFFFFFC7C3E1E1E1E3E3CC8
:1007B000380000000000000000030707030100E00C
:1007C000F1FFFFFF3F1FFFFFFFFEF80000000000EA
:1007D0000000000000000000000000000000000118
:1007E00003070F1F1F1C00071F7FFFFFFC70000087
:1007F00000000000000000000000000000000000F9
:1008000000000000000000000000000000000000E8
:100810000000000000000000000000808080A06058
:1008200060C0800000000000000000008080C0C0A8
:10083000E0F0F8F8F8700078FEFFE5E5E5FFFFFF6F
:10084000FFFEF9FFFFFEFEFEFEFEFFFFFFFFEFC70C
:10085000C38381808000000001030307377B7D3D57
:100860003E0E0F0703010101000000010103030711
:10087000070F0F1F1F1F0F000000000000000000E7
:10088000000000F0FCFCFCFC180000000000000070
:100890000000000000000000001C3E3F1F1F3F7EC4
:1008A000FCF8F0FFFFFFFFF8C000000000000000B0
:1008B0000000000000000000000000000000000038
:1008C000838FDFFFFFFFFFFFFFFF7EFF97376FEE96
:1008D000DC0000000000000000000000001C3E3FA3
:1008E0001F0F030101010F3F7F7FFEFCF9FF7E7F99
:1008F0003F0F0000000000000000000000000000AA
:1009000000000000008080808000000080C0C0E007
:10091000E0E0E0C0C080000000000000808080C0F7
:10092000C0C0BC7F7F8FF7F7FFFFFFFEFFE7A7A7E1
:10093000BFFFFFFFFF7F1E00007CFEFF7F0F0F0742
:100940000707078FFFFFFFE7DB3B7B777F3F3F0F0B
:100950000101010000000000000000000000000094
:10096000060F0F0F0F070703010000000000000033
:100970000000000000000053434F524500904A0021
:100980001480F000000000003E5B4F5B3E3E6B4F6A
:100990006B3E1C3E7C3E1C183C7E3C181C577D5711
:1009A0001C1C5E7F5E1C00183C1800FFE7C3E7FFBD
:1009B0000018241800FFE7DBE7FF30483A060E2650
:1009C00029792926407F050507407F05253F5A3CA8
:1009D000E73C5A7F3E1C1C08081C1C3E7F14227FEB
:1009E00022145F5F005F5F06097F017F00668995C3
:1009F0006A606060606094A2FFA29408047E0408AC
:100A000010207E201008082A1C08081C2A08081E2E
:100A1000101010100C1E0C1E0C30383E3830060E14
:100A20003E0E06000000000000005F00000007000E
:100A30000700147F147F14242A7F2A1223130864CA
:100A40006236495620500008070300001C2241006E
:100A50000041221C002A1C7F1C2A08083E080800AE
:100A6000807030000808080808000060600020104E
:100A70000804023E5149453E00427F400072494908
:100A800049462141494D331814127F1027454545E9
:100A9000393C4A494931412111090736494949360A
:100AA000464949291E00001400000040340000009F
:100AB00008142241141414141400412214080201D1
:100AC0005909063E415D594E7C1211127C7F4949FD
:100AD00049363E414141227F4141413E7F4949499A
:100AE000417F090909013E414151737F0808087F90
:100AF00000417F41002040413F017F081422417F97
:100B0000404040407F021C027F7F0408107F3E412E
:100B100041413E7F090909063E4151215E7F091985
:100B20002946264949493203017F01033F4040409D
:100B30003F1F2040201F3F4038403F63140814638C
:100B400003047804036159494D43007F4141410248
:100B500004081020004141417F040201020440408A
:100B6000404040000307080020545478407F284448
:100B700044383844444428384444287F3854545432
:100B80001800087E090218A4A49C787F0804047841
:100B900000447D40002040403D007F10284400007C
:100BA000417F40007C047804787C08040478384451
:100BB000444438FC1824241818242418FC7C080405
:100BC0000408485454542404043F44243C40402026
:100BD0007C1C2040201C3C4030403C4428102844D1
:100BE0004C9090907C4464544C4400083641000082
:100BF00000770000004136080002010204023C2692
:100C000023263C1EA1A161123A4040207A38545458
:100C100055592155557941215454784121555478DD
:100C20004020545579400C1E527212395555555971
:100C3000395454545939555454580000457C410096
:100C400002457D420001457C40F0292429F0F0282E
:100C50002528F07C545545002054547C547C0A09C6
:100C60007F4932494949323248484832324A484835
:100C7000303A4141217A3A42402078009DA0A07D3F
:100C800039444444393D4040403D3C24FF242448FD
:100C90007E4943662B2FFC2F2BFF0929F620C088A5
:100CA0007E090320545479410000447D4130484876
:100CB0004A32384040227A007A0A0A727D0D193190
:100CC0007D2629292F28262929292630484D4020EC
:100CD000380808080808080808382F10C8ACBA2FC8
:100CE000102834FA00007B000008142A1422221471
:100CF0002A14089500220095AA005500AAAA55AA10
:100D000055AA000000FF00101010FF00141414FF7B
:100D1000001010FF00FF1010F010F0141414FC006D
:100D20001414F700FF0000FF00FF1414F404FC1477
:100D30001417101F10101F101F1414141F00101070
:100D400010F0000000001F101010101F10101010E5
:100D5000F010000000FF101010101010101010FF05
:100D600010000000FF140000FF00FF00001F10171C
:100D70000000FC04F414141710171414F404F40005
:100D800000FF00F714141414141414F700F71414CB
:100D900014171410101F101F141414F4141010F052
:100DA00010F000001F101F0000001F14000000FCC6
:100DB000140000F010F01010FF10FF141414FF14B2
:100DC0001010101F00000000F010FFFFFFFFFFF0E9
:100DD000F0F0F0F0FFFFFF0000000000FFFF0F0F3A
:100DE0000F0F0F38444438447C2A2A3E147E0202F6
:100DF0000606027E027E0263554941633844443C44
:100E000004407E201E2006027E020299A5E7A599D5
:100E10001C2A492A1C4C7201724C304A4D4D30300C
:100E200048784830BC625A463D3E494949007E01F7
:100E300001017E2A2A2A2A2A44445F444440514A16
:100E4000444040444A51400000FF0103E080FF005D
:100E50000008086B6B083612362436060F090F0699
:100E6000000018180000001010003040FF010100C1
:100E70001F01011E00191D1712003C3C3C3C0000E4
:100E800000000006011501260137014A015D0172CB
:100E90000188019F01B801D201EE010B022A024B29
:100EA000026E029302BA02E40210033F037003A42D
:100EB00003DC03170455049704DD0427057505C8F2
:100EC0000520067D06E0064907B8072D08A9082D6C
:100ED00009B9094D0AEA0A900B400CFA0CC00D91B1
:100EE0000E6F0F5A1053115B1272139A14D41520FF
:100EF000178018F519801B231DDE1EB420A622B50D
:100F000024E4263429A72B402E0031EA330037454C
:100F10003ABC3D68414C456B49C84D68524F5780BB
:100F20005C006210111213151617181A1C1D1F21D0
:100F3000232527292C2E3134373A3E4145494E523C
:100F4000575C62686E757B838B939CA5AFB9C4D0E8
:100F5000DCE9F70000000200090F000003040100B3
:100F60000C00000000000000000000000000000075
:100F70000000030100000000240027002A002D00CB
:100F80003000D5F08D14A1C881CFD9F1AF20000475
:100F90000802011040804010204080408008020478
:100FA00001804020100201108010204040200000ED
:100FB0000000250028002B002E003100040404044A
:100FC00004030405020202020403020202020606EE
:100FD00006060606040402020204040B020A0212B8
:100FE0000204020802010215011701160100080B94
:100FF00000020202000009040000010202000005D4
:101000002400100105240101010424020605240620
:1010100000010705810310004009040100020A00D5
:10102000000007050202400000070583024000009F
:101030000403090412010002EF020140412336803B
:1010400000010102030141726475696E6F204C4C0E
:10105000430041726475626F790078FCFE86FEFC85
:10106000780000000101010000008C8CFEFEFE866D
:10107000800001010101010101000C86E6FEBEDCD9
:10108000C00001010101010301000426363EFEF407
:10109000E0000103030303010000E0F0D8FCFEFEC2
:1010A000C0000000000303030000383E3676F6E679
:1010B000E600030303030301000078FEFF9FF8F836
:1010C000700000000101010000000E0E06C6F67E51
:1010D00006000000070703000000EEFF3F7DF9FF58
:1010E000E60000010101010100003C7E7EE6FEFCFD
:1010F0007C0000020707030100006B2411241FBEBF
:10110000CFEFDAE0DEBFCDBF11E0A0E0B1E0E6E076
:10111000FFE502C005900D92A235B107D9F727E08F
:10112000A2E5B1E001C01D92A23EB207E1F718E0CE
:10113000CEE7D8E004C02197FE010E94952CCD3760
:10114000D107C9F70E94A2240C94812F0C940000AF
:10115000CF93DF93DC0177FF13C022273327261BB1
:10116000370B842F042E000C990B281739072CF409
:10117000460F70E060E0141644F0DF91CF910895BF
:101180001416DCF760347105C4F7A038B105A8F770
:10119000262FCB01840F911D47FD9A95813491052F
:1011A00014F040E4461B27709FEF022E01C0990FF8
:1011B0000A94EAF7420F621B710977FF02C0695F68
:1011C0007F4F83E0759567958A95E1F7FB01F6956A
:1011D000FE2FEE27F795E795EA0FFB1FEA52FC4F2B
:1011E00028E030E06FEF70E014163CF6483064F40D
:1011F000D901A41BB10947FDB395EB0102C0D595F8
:10120000C795AA95E2F79C238081982B908348503C
:10121000E058FF4F9FEFE8CF0F93CF93DF9397FFF7
:101220000CC0EE27FF27E81BF90B4E171F0609F02D
:101230000CF47CC0480F90E080E077FF0FC0AA2735
:10124000BB27A61BB70BE22F022E000CFF0BAE171D
:10125000BF070CF06BC0260F70E060E0442309F478
:1012600065C0803891050CF061C012160CF05EC0AC
:10127000603471050CF05AC0FC01E40FF11DE13837
:10128000F10514F040E8481B562FFB01E20FF11D59
:1012900027FDFA95E134F10514F020E4261B577080
:1012A0003FEF052E01C0330F0A94EAF7250F651BA7
:1012B000710977FF02C0695F7F4F53E075956795AD
:1012C0005A95E1F77695762F662777956795860F7D
:1012D000971F8A529C4FA8E0B0E0CFEFD0E01216E3
:1012E0002CF5283064F4BD01621B710927FD73954C
:1012F000FE0102C0F595E7956A95E2F73E230111DC
:101300000DC03095FC01542F6081632361935150CF
:10131000D9F7285080589F4F3FEFE1CFFC01542F61
:101320006081632B61935150D9F7F3CFDF91CF9157
:101330000F9108954F925F926F927F928F929F923A
:10134000AF92BF92CF92DF92EF92FF920F931F93D3
:10135000CF93DF9330E0F901E80FF91FF7FDBFC02D
:10136000803891050CF0BBC0FB01E00FF11DF7FDCB
:10137000B6C0603471050CF0B2C0DB0177FF04C069
:10138000AA27BB27A61BB70BA770BB27FB0177FDBE
:101390003796C3E0F595E795CA95E1F777FF07C063
:1013A000319768E070E0EB01CA1BDB0BDE01602EB9
:1013B000669466946694712C077019F0DFEF6D1ACD
:1013C0007D0ABF01EF01D695DC2FCC27D795C795B5
:1013D000C80FD91FCE53DC4F8A01660E771E48E036
:1013E00050E06A01CA1ADB0A6F3FEFEF7E070CF488
:1013F00069C050E040E04E01F0E88F0E911C4217AA
:1014000053070CF05FC0FC01E40FF51FE038F10555
:101410000CF058C0F7FD37C06F3F760709F470C075
:101420002801440E551E5E01A40EB51EF501F48878
:10143000F1E0EF122BC0F2014490E42D0A2E01C01E
:10144000EE0F0A94EAF7FE2AF501F48A1097D9F014
:1014500067307105C1F02801440E551E5401A40ED9
:10146000B51EF501F488F1E0EF121EC0F2014490C0
:10147000E42DF0E00C2C02C0F595E7950A94E2F714
:10148000FE2AF501F48A4F5F5F4FB9CFF201449015
:10149000E42DF0E00A2E02C0EE0FFF1F0A94E2F7DF
:1014A000E095F095FE22D0CFF2014490E42DF0E0DB
:1014B0000C2C02C0F595E7950A94E2F7E095F095BB
:1014C000FE22DFCF6F5F7F4FC058DF4F020F131F29
:1014D0006616770621F06830710509F085CFDF9137
:1014E000CF911F910F91FF90EF90DF90CF90BF9021
:1014F000AF909F908F907F906F905F904F900895E6
:10150000109709F0A8CFBFCFAF92BF92CF92DF92D2
:10151000EF920F931F93CF93DF935C018B0184E0D5
:10152000489F60011124D0E0C0E06A3071055CF092
:10153000CB016AE070E00E94812CC5018C199D09E5
:101540000E94840AEC01C8016AE070E00E94812CCC
:10155000AC0184E0440F551F8A95E1F7465A5F4E6F
:10156000EE24E39400E128E066E070E0C5018C0F12
:101570009D1F0E949A09CE0108968C199D09DF9142
:10158000CF911F910F91EF90DF90CF90BF90AF90D0
:10159000089586ED93E020E0B22FB111BFEFFC017A
:1015A0000024B193B193B193B1930394D1F708950B
:1015B000FC0180916A03882311F13FB7F89482E01F
:1015C0008093E9002091F200822F90E0181619060E
:1015D00014F481E090E0882339F0289844E64093A1
:1015E00069034091F1004083222339F02091F200F9
:1015F000211103C02BE62093E8003FBF08958FEF31
:101600009FEF08952FB7F89483E08093E9009091BD
:10161000E800892F807295FF04C09091F20080E469
:10162000891B2FBF08958091610381110DC082E055
:1016300080935D0384E080935E03109260031092B8
:101640005F0381E0809361038DE593E00895CF937C
:10165000DF931F92CDB7DEB76983DC01ED91FC917A
:101660000280F381E02D41E050E0BE016F5F7F4FCB
:1016700009950F90DF91CF91089583E08093E90061
:101680008091F200882319F08AE38093E80008959E
:101690000E94020B90E00895CF93DF931F92CDB785
:1016A000DEB7FC018485958597FD08C02FEF3FEFDD
:1016B000358724870F90DF91CF910895CE01019651
:1016C0000E94D80A019719F4898190E0F3CF8FEF37
:1016D0009FEFF0CF0F931F93CF93DF931F92CDB760
:1016E000DEB78C01FC018485958597FF0BC0CE0188
:1016F00001960E94D80A019771F4898190E0F8015F
:1017000095878487F801848595850F90DF91CF9127
:101710001F910F9108958FEF9FEFF1CFFC0184850A
:10172000958597FD0BC09FB7F89482E08093E90000
:101730008091F2009FBF90E0019608959FB7F894C2
:1017400082E08093E9008091F2009FBF90E00895CD
:1017500040915703509158032091550330915603FF
:1017600042175307B4F49091E8009570E1F390911B
:10177000E80092FD19C08093F10080915703909189
:10178000580301968F739927892B19F48EEF809354
:10179000E800809157039091580301969093580365
:1017A0008093570381E0089580E00895EF92FF92BF
:1017B0000F931F93CF93DF93F82E192FE62E042F4C
:1017C00081E0860F880F0E94A80B83E00E94A80B7F
:1017D000CF2DD12FEC0EFD2EF11CCE15DF05B9F06B
:1017E00007FF13C0FE0184910E94A80B182F80E010
:1017F0000E94A80B812321968111EFCFDF91CF9119
:101800001F910F91FF90EF9008958881EDCF81E0B7
:10181000F5CFDF92EF92FF920F931F93CF93DF9359
:10182000D82E8A01EB017B01E40EF51ECE15DF05F3
:1018300059F0D7FE12C0FE0184910E94A80B219698
:101840008111F4CF0FEF1FEFC801DF91CF911F91EE
:101850000F91FF90EF90DF9008958881EECF0F9366
:101860001F93CF93DF931F92CDB7DEB782E08983BA
:1018700042E450E06EEE7FE080E80E94090C0E9496
:10188000130BDC0112960D911C910115110589F0C5
:10189000D801ED91FC910280F381E02DBE016F5FD4
:1018A0007F4FC801099597FD04C0F8010085118597
:1018B000ECCF89810F90DF91CF911F910F91089507
:1018C000615030F02091F100FC0120830196F8CFA7
:1018D000289884E680936903089588E780934E03EF
:1018E0000895AF92BF92CF92DF92EF92FF920F9343
:1018F0001F93CF93DF936C017B018B01040F151FA6
:10190000EB015E01AE18BF08C017D10759F069910D
:10191000D601ED91FC910190F081E02DC601099571
:10192000892B79F7C501DF91CF911F910F91FF901E
:10193000EF90DF90CF90BF90AF900895282F30E0C8
:10194000F901ED5AF04F9491F901E157F04F84916C
:101950002454304FF9012491222309F430C09923F3
:10196000E9F091509F30D0F4E92FF0E0E654F34FC6
:101970000C94952CE80CEC0CC90CE00CE40CCE0C8F
:10198000CE0CCE0CEF0CF50CF90CFD0C030DCE0CAF
:10199000070D909180009F7790938000E22FF0E0F8
:1019A000EE0FFF1FE255F04FA591B4919FB7F89449
:1019B000EC91611132C080958E238C939FBF089566
:1019C000909180009F7DE8CF90918000977FE4CF39
:1019D00094B59F7794BDE2CF94B59F7DFBCF909156
:1019E00090009F7790939000D9CF909190009F7D29
:1019F000F9CF90919000977FF5CF9091C0009F779D
:101A00009093C000CBCF9091C0009F7DF9CF909173
:101A1000C200977F9093C200C1CF8E2BCECFCF93C1
:101A2000DF9390E0FC01E157F04F24918454904FF4
:101A3000FC0184918823C9F090E0880F991FFC0174
:101A4000EC58F04FA591B491FC01E255F04FC591CF
:101A5000D49161110DC09FB7F8948C912095822389
:101A60008C938881282328839FBFDF91CF9108958D
:101A7000623051F49FB7F8943C91822F8095832374
:101A80008C93E8812E2BEFCF8FB7F894EC912E2B0F
:101A90002C938FBFEACF3FB7F89480913F0390918A
:101AA0004003A0914103B091420326B5A89B05C015
:101AB0002F3F19F00196A11DB11D3FBFBA2FA92FCD
:101AC000982F8827BC01CD01620F711D811D911DCA
:101AD00042E0660F771F881F991F4A95D1F7089536
:101AE0008F929F92AF92BF92CF92DF92EF92FF922E
:101AF0004B015C010E944B0D6B017C010E944B0D60
:101B00006C197D098E099F09683E73408105910516
:101B1000A8F321E0821A9108A108B10888EEC80E46
:101B200083E0D81EE11CF11C81149104A104B104CE
:101B300029F7FF90EF90DF90CF90BF90AF909F90EC
:101B40008F9008958F929F92AF92BF92CF92DF9223
:101B5000EF92FF920F931F93CF93DF936C017B0162
:101B60008A0180910B01882309F45CC080916A038B
:101B7000882309F457C080915C0380FF05C08091E1
:101B8000E00082608093E000E801B12C8AEFA82E8B
:101B900093E0892E2AE3922E209711F4BB20D9F1ED
:101BA0000E94020B81110AC0AA94AA20D9F161E017
:101BB00070E080E090E00E94700DEECF8C171D0663
:101BC00011F00CF08C2F9FB7F8948092E9002091CF
:101BD000E80025FD02C09FBFDFCF282F30E0C21BE9
:101BE000D30BF701815020F041914093F100FACFDF
:101BF000E20EF31EBB2021F09092E800B12CEBCF57
:101C00008091E80085FDE7CF9092E800BB24B39473
:101C1000209709F3F3CF5D9884E680935B03101659
:101C200011063CF081E090E0F6019383828310E09E
:101C300000E0C801DF91CF911F910F91FF90EF90CD
:101C4000DF90CF90BF90AF909F908F90089543B159
:101C50008FB129B190E08095909534E09595879566
:101C60003A95E1F7887030E02095309553E035954E
:101C700027955A95E1F72370822B942F9095907DAC
:101C8000892B089583B7817F83BF83B7816083BF2A
:101C9000889583B78E7F83BF0895E0914B03F091C1
:101CA0004C03908180914A03809589238083089515
:101CB000CF92DF92EF92FF920F931F93CF93E82F73
:101CC000F0E0EE58F04FC491E62FF0E0603398F565
:101CD000ED5DF04FE4910E2F10E0F12CE12C60E06F
:101CE00074E284EF90E0A70198010E949E282150A1
:101CF00031094109510991E02115310581E0480779
:101D000051056CF060E970ED83E090E0A701980167
:101D10000E949E28215031094109510993E0C130A8
:101D200089F0C330F9F0CF911F910F91FF90EF90A0
:101D3000DF90CF900895EE0FFF1FED5DF14F0591FD
:101D40001491CBCF80918100887F892B8093810073
:101D5000309389002093880080916F008260809387
:101D60006F00E1CF80919100887F892B8093910053
:101D7000309399002093980010933D0300933C0307
:101D800081E080933B0380917100826080937100B9
:101D9000CACFE82FF0E0EE58F04FE491E13019F0AF
:101DA000E33089F0089580916F008D7F80936F00FC
:101DB00080914603E0914703F0914803908180951C
:101DC00089238083089510923B0380914303E0911F
:101DD0004403F0914503F2CFE0916D03F0916E035F
:101DE000BF016F5F7F4F70936E0360936D0324910B
:101DF000922F907F822F8F70903819F40E94C90E15
:101E0000EBCF903981F43296F0936E03E0936D033B
:101E1000FB01649190916B038917F0F667FDDCCFAD
:101E20000E94580ED9CF903E49F480916F03909153
:101E3000700390936E0380936D03CECF903F19F49F
:101E400010926C03089597FDC7CF3296F0936E03FE
:101E5000E0936D03FB016491A0913C03B0913D03BD
:101E6000322F262F0E94F2286C507E4F8F4F9F4FAB
:101E700028EE33E040E050E00E94D0282093370362
:101E8000309338034093390350933A0380913703DA
:101E900090913803A0913903B0913A03892B8A2B92
:101EA0008B2B61F481E090E0A0E0B0E080933703F9
:101EB00090933803A0933903B0933A0308950F9396
:101EC0001F93CF93DF9320917103222329F1162FC3
:101ED000EC0180916C03882381F08091E0078617E4
:101EE000D8F000E080916B03081728F4802F0E943F
:101EF000C90E0F5FF7CF10926C031093E007D093D9
:101F00007003C0936F03D0936E03C0936D030E9460
:101F1000EC0E81E080936C03DF91CF911F910F91C4
:101F2000089510927103E4E6F0E080818860808378
:101F3000E5E6F0E08081886080830895E4E6F0E0E3
:101F40008081877F8083E5E6F0E08081877F8083E2
:101F500081E080937103089560387105E8F440349E
:101F60005105D0F4342F369536953695A0E83A9F32
:101F7000F0011124E60FF71FE80FF91F3489CA0199
:101F80008770992741E050E001C0440F8A95EAF735
:101F9000222319F0432B448B089540954323FBCF14
:101FA0002F923F924F925F926F927F928F929F9269
:101FB000AF92BF92CF92DF92EF92FF920F931F9357
:101FC000CF93DF93CDB7DEB72D970FB6F894DEBF72
:101FD0000FBECDBF6A3069F5FC01EA5EFB4FDC0144
:101FE000A85EBB4F2C9148E0249F900111244081B2
:101FF0005181240F351F3183208314971D921C9229
:102000002D960FB6F894DEBF0FBECDBFDF91CF91F6
:102010001F910F91FF90EF90DF90CF90BF90AF9006
:102020009F908F907F906F905F904F903F902F90F8
:1020300008956D3029F39D878C878C5E9B4F9A8322
:102040008983FC01808091802C853D85285E3B4FF3
:102050003C832B8330E8831691040CF071C0EC852F
:10206000FD85EA5EFB4F6080718040E46416710478
:102070000CF066C0AB81BC814C9045E09401449E5D
:10208000200D311D1124121613060CF059C0242CFA
:10209000312C910153E0220F331F5A95E1F7260DA1
:1020A000371D121613060CF04BC0649FB0011124AB
:1020B00010E000E0FB01ED57F64FFB87EA87E0E018
:1020C000053029F0EA85FB85E00FF11FE49153010B
:1020D00098E0592E2E2F30E03E832D83E170EF8360
:1020E000F12CE12CE414D8F4C4018E0D9F1D9987C6
:1020F0008887D12CC12CC41470F4A6014A0D5B1D35
:102100002F81688579858C859D850E94AC0F9FEF16
:10211000C91AD90AF0CFAFEFEA1AFA0AE3CFED8174
:10212000FE81F595E7955A94A20CB31C5110D2CFBD
:102130000F5F1F4F820C931C0630110509F0BFCFB3
:10214000EB81FC812081422F50E0A981BA818D91E1
:102150009C91B6E02B9F800D911D1124E981FA819D
:1021600091838083EC85FD85E75EFB4F20812223F0
:1021700009F446CF6AEF64039001659F300D112486
:1021800020583F4F281739070CF03ACFAC85BD8552
:10219000ED91FC9111970190F081E02D6AE0CD0165
:1021A0002D960FB6F894DEBF0FBECDBFDF91CF9155
:1021B0001F910F91FF90EF90DF90CF90BF90AF9065
:1021C0009F908F907F906F905F904F903F902F9057
:1021D00009946FEF8DE799E00C945F0F20914E0307
:1021E000215020934E03422F4F50550BCA0163E0FC
:1021F00070E00E94812C8AE39AEAA3EEBEEE04C04E
:10220000B695A795979587956A95D2F78170809333
:10221000FF0281E0211180E008952F923F924F92BA
:102220005F926F927F928F929F92AF92BF92CF9266
:10223000DF92EF92FF920F931F93CF93DF93CDB76F
:10224000DEB72F970FB6F894DEBF0FBECDBF6A3052
:1022500071F5FC01EA5EFB4FDC01A85EBB4F4C91BF
:102260002081318156E0459F200D311D112431839D
:10227000208314971D921C9281E090E02F960FB658
:10228000F894DEBF0FBECDBFDF91CF911F910F91AC
:10229000FF90EF90DF90CF90BF90AF909F908F9086
:1022A0007F906F905F904F903F902F90089520EE19
:1022B000260F203408F79F878E878C5E9B4F9E8366
:1022C0008D83FC01008111812E853F85285E3B4F67
:1022D00039872887003811050CF065C0EE85FF8529
:1022E000EA5EFB4F808191819B838A8380349105D4
:1022F0000CF059C0D9018C91482E512C9801B5E0B1
:102300008B9F200D311D112437FD4DC02A813B814B
:10231000E6E08E9F200D311D112437FD44C0EE856F
:10232000FF85E55EFB4F7080EE85FF85E65EFB4F27
:10233000608024E0629FF0011124E650FF4F8590F9
:102340009590A590B490813009F05FC026E0D22E20
:10235000F12CE12CD501C40181709927AA27BB2754
:1023600080FC02C0761479F0262D892B8A2B8B2BCA
:1023700009F4272D4A815B814E0D5F1DB8018E85C2
:102380009F850E94AC0FB694A794979487943FEFD3
:10239000E31AF30A56E0E516F104E1F6DA940F5F6A
:1023A0001F4FD110D5CFA885B9852C91422F50E071
:1023B000ED81FE8180819181F6E02F9F800D911D3E
:1023C0001124AD81BE818D939C93EE85FF85E75EE0
:1023D000FB4F2081222309F44FCF6AEF6403900161
:1023E000659F300D112420583F4F281739070CF0F6
:1023F00043CFAE85BF85ED91FC9111970190F0819F
:10240000E02D6AE0CD01099537CF180186E0898378
:102410000A811B8196E09C83D101A40DB51DBD8767
:10242000AC87D501C40181709927AA27BB2780FCFE
:1024300002C0761481F1892B8A2B8B2B31F16F82AC
:102440006101F801E40DF51DFB87EA872C853D85C8
:10245000C216D30604F5780117FF02C0F12CE12C57
:102460008A859B858134910514F080E490E0E8161C
:10247000F9066CF42F81A701B6018E859F850E9415
:10248000AC0F3FEFE31AF30AEBCF7F82D9CF5FEFB8
:10249000C51AD50ADBCFB694A794979487948C81FC
:1024A00081508C83040D151D8111BBCF99819150F2
:1024B0009983240C351C9111ABCF75CFEF92FF920D
:1024C0000F931F93CF93DF938C017B01D0E0C0E08B
:1024D000F701EC0FFD1F6491662339F0C8010E94DB
:1024E0000D11892B11F02196F3CFCE01DF91CF9101
:1024F0001F910F91FF90EF9008958F929F92AF924E
:10250000BF92CF92DF92EF920F93CF93DF930E940F
:10251000C90A20914E0388E790E0821B910968E286
:1025200070E00E94812C4B018DE8C82E85E0D82EEA
:102530009CE1A92EB12CD0E0C0E081E090E08C16A7
:102540009D0611F090E080E02091FF02289FB001ED
:10255000299F700D1124645F7F4FEE24E39400E205
:1025600028E1A601C5010E949A09219688E1A80EDA
:10257000B11C80E6C80ED11CC330D105F1F608E0CD
:1025800020E24DE655E06CE270E084E490E00E94C9
:102590009A0980E190E09093D7078093D6078AE369
:1025A00090E09093D9078093D8076CE575E082ECB2
:1025B00093E0DF91CF910F91EF90DF90CF90BF909C
:1025C000AF909F908F900C945E12089590E080E001
:1025D0000895FB0101900020E9F73197AF01461BF8
:1025E000570B0C94710C8F929F92AF92BF920F93E6
:1025F0001F93CF93DF93CDB7DEB7A1970FB6F894B3
:10260000DEBF0FBECDBF19A2423008F44AE08E01F2
:102610000F5D1F4F842E912CB12CA12CA50194018C
:102620000E94D028E62FB901CA01EA3004F5E05D26
:10263000D801EE938D01232B242B252B79F790E0E5
:1026400080E0109729F0BD0182EC93E00E94E9122E
:10265000A1960FB6F894DEBF0FBECDBFDF91CF912C
:102660001F910F91BF90AF909F908F900895E95C5C
:10267000DFCF97FF0DC022273327281B390B4217C6
:10268000130629F024F0480F90E080E031F408951B
:102690004423E9F380389105D4F760347105B8F725
:1026A0009C01240F311D2138310514F040E8481BEE
:1026B000362F377021E001C0220F3A95EAF7FB016F
:1026C00033E0F595E7953A95E1F7F695FE2FEE277D
:1026D000F795E795E80FF91FEA52FC4F8081822BAE
:1026E00081934150D9F7D3CF0E94AF2CAB01BC01ED
:1026F000F999FECF80913003909131030E94812897
:10270000809130039091310304969093310380932C
:1027100030030895F999FECFBC0180913003909168
:1027200031030E94892880913003909131030296F1
:1027300090933103809330030895CF93DF93F999F9
:10274000FECFC0913003D0913103CE010E946728A3
:102750002496D0933103C0933003DF91CF91089535
:10276000CF93DF93F999FECFC0913003D09131031D
:10277000CE010E946D282296D0933103C09330037E
:10278000DF91CF9108950F931F93CF93DF93109212
:102790002E031092220381E080932F0380E2809326
:1027A0002B03E3E2F3E0A1E0B3E088EB81931D9219
:1027B00023E0E932F207D1F7C0917103CC2309F489
:1027C00058C00E949E0FC093210380910003811185
:1027D0004BC080E293E090933103809330030E94DA
:1027E0009D136F3472448E44924009F045C0C3E09B
:1027F000D0E00BEE16E40E94B0139C01C29FC00112
:10280000C39F900DD29F900D1124080F191F219680
:10281000C031D10581F70E94B0130817190761F57F
:1028200084E293E09093310380933003CDE0D3E0D2
:1028300001E213E00E94B013899399930C171D07CE
:10284000C9F70E94B01390930C0380930B030E946E
:102850009D1360930703709308038093090390937B
:102860000A0382E080930003DF91CF911F910F91C3
:1028700008950E94910FA7CFEDE0F3E081E293E08D
:10288000119211928E179F07D9F710920C03109294
:102890000B03109207031092080310920903109281
:1028A0000A0381E0DFCF2F923F924F925F926F92A7
:1028B0007F928F929F92AF92BF92CF92DF92EF92D0
:1028C000FF920F931F93CF93DF93CDB7DEB7669739
:1028D0000FB6F894DEBF0FBECDBF80912F038823C3
:1028E00069F00E94C90A80912E03813009F4FCC06E
:1028F000F0F0823009F4E8C110922F0366960FB60B
:10290000F894DEBF0FBECDBFDF91CF911F910F9125
:10291000FF90EF90DF90CF90BF90AF909F908F90FF
:102920007F906F905F904F903F902F90089580918F
:102930002C0390912D03892B09F11092D707109247
:10294000D6071092D9071092D80767E779E082EC92
:1029500093E00E945E121092D7071092D60786E08D
:1029600090E09093D9078093D80760912C037091E1
:102970002D0390E080E04AE00E94F31260912B0367
:102980006602B001112477FF02C0615E7F4FB5E09F
:1029900075956795BA95E1F7605E7F4F6034710574
:1029A0009CF440912A0320E84203A00111244958D5
:1029B000584F80912903EE24E39400E220E2082E90
:1029C000000C990B0E949A09E5E6AE2EE7E0BE2EB8
:1029D000F3E26F2EF3E07F2EA6E18A2E912CD12C0C
:1029E000C12CF50145915491F50132961491F301F2
:1029F00061913F0167FD6D5F65956595062E000C41
:102A0000770B85E090E0C114D10411F490E080E0F0
:102A1000680F791FEE24E39400E1212FC4010E9486
:102A20009A09E12FF0E031968E0E9F1EFFEFCF1A2C
:102A3000DF0A23E0A20EB11C36E0C316D10489F6EA
:102A400068E2E62EF12C75E4C72E77E0D72E10E071
:102A500000E0B601CE0101960E944D28809122032C
:102A6000082E000C990B80179107D9F580E490E0AF
:102A70009093D7078093D607F092D907E092D807B2
:102A8000BE016F5F7F4F82EC93E00E94E9120196D6
:102A9000C80ED91E0130110561F48091210362E452
:102AA00077E0811102C06EE377E082EC93E00E9450
:102AB0005E120F5F1F4F86E0E80EF11C0430110517
:102AC00041F66091220396E06902B0011124685D2D
:102AD0007F4F01E025E045E088E390E00E940C098B
:102AE0000BCF84E490E0C4CF86E190E09093D707C9
:102AF0008093D60784E090E09093D9078093D8071D
:102B00006FE277E082EC93E00E945E1240E86CE0B6
:102B100070E090E080E00E9439134DE0242E43E005
:102B2000342EC12CD12C7601C39404E010E0460170
:102B3000E1E08E1A91083E8A2D8A260137013EE097
:102B4000A32EB12C90E080E0F9E08F16910411F4EF
:102B500086E090E09801281B390B3093D70720932B
:102B6000D607B092D907A092D8076DE277E082EC41
:102B700093E00E945E124AE0C301B2010E94F31288
:102B80006AE277E082EC93E00E945E12ED89FE89B2
:102B900061917191FE8BED8B90E080E04AE00E94A4
:102BA000F312FFEF8F1A9F0A26E0A20EB11C3FEF2F
:102BB000431A530A630A730A8CE2A816B10411F689
:102BC000045C1F4F95E0C90ED11CE11CF11CEAE02A
:102BD0002E0E311C0C37110509F0A9CF40E86CE22C
:102BE00070E090E080E00E94391300E110E0109363
:102BF000D7070093D60780E390E09093D90780939E
:102C0000D8076EE177E082EC93E00E945E1260915B
:102C10000B0370910C0390E080E04AE00E94F312F5
:102C20001093D7070093D60786E390E09093D907D7
:102C30008093D80762E177E082EC93E00E945E1215
:102C400060910703709108038091090390910A0332
:102C500020E13EE040E050E00E94D028CA01B901E6
:102C60004AE00E94F312609107037091080380917B
:102C7000090390910A032CE3C22ED12CE12CF12CF4
:102C8000A70196010E94D028CA01B901A7019601A7
:102C90000E94D0289F938F937F936F938BE491E052
:102CA0009F938F938E010F5F1F4F1F930F930E946F
:102CB000B42CB80182EC93E00E94E9120FB6F894AC
:102CC000DEBF0FBECDBF18CE08E010E083EBE82ECC
:102CD00086E0F82EB701CE0101960E944D2864E1EE
:102CE00070E0CE0101960E945428382F2DEF230367
:102CF000C0011124805C9F4F9093D7078093D60723
:102D00001093D9070093D807BE016F5F7F4F82EC05
:102D100093E00E94E9120196E80EF91E0A5F1F4F28
:102D200008331105B9F6E8CDCF92DF92EF92FF920A
:102D30000F931F93CF93DF9380912E038111E8C0EF
:102D400080912B0380320CF07BC08F5F80932B032C
:102D5000C3E2D3E001E013E084E8C82ED12CE12CDB
:102D6000F12C8991F80161918F016F5F860F80349A
:102D700094F00E94F527A70196010E949E28605CAE
:102D80007F4F8F4F9F4F0E94222A0E94972B90586F
:102D90000E94EA2980E4FE0131978083F80131978F
:102DA0006083F3E0C932DF07E1F68091DE0790E04F
:102DB000809590952091DF07287030E0822393233F
:102DC000892B69F080912203882309F45DC081502A
:102DD000809322036FEF8DEA96E00E945F0F80914F
:102DE000DF07827090E02091DE0730E0209530957B
:102DF00082239323892B69F080912203833009F485
:102E000045C08F5F809322036FEF8DEA96E00E94AA
:102E10005F0F8091DE0790E0809590952091DF070D
:102E2000217130E082239323892B41F0809122038A
:102E3000813009F45BC06CF5882389F1C0E036C0AD
:102E40000E94F52729E130E040E050E00E949E28F2
:102E5000609329030E94F52721E430E040E050E030
:102E60000E949E28605E7F4F8F4F9F4F61956093B9
:102E70002B030E94F52724E030E040E050E00E9460
:102E80009E2860932A0364CF83E0A2CF109222038E
:102E9000BBCF8230C9F1833089F682E036C06091C1
:102EA000710382E090E00E947328C1E081E080938A
:102EB0002F030E9499276C01990FEE08FF080E94CA
:102EC0004B0DC616D706E806F90631F06C257D25B0
:102ED0008E259F250E9444288C2FDF91CF911F9132
:102EE0000F91FF90EF90DF90CF900895C091210354
:102EF000C82739F00E949E0FC09321030E94E91059
:102F00009DCF0E94910FF8CF81E080932E03F6CFE2
:102F10008091DE0790E0809590952091DF072171E8
:102F200030E082239323892B39F010922E030E94E4
:102F3000E91081E080932F03C0E0BBCF2F923F9236
:102F40004F925F926F927F928F929F92AF92BF92B9
:102F5000CF92DF92EF92FF920F931F93CF93DF9365
:102F6000CDB7DEB728970FB6F894DEBF0FBECDBF42
:102F700080915E02882309F410C20E94C90A8091E0
:102F80006F02843009F493C12BE531E03A83298341
:102F9000912C812CE0915B02F0915C02E80DF91D0F
:102FA000F370F395A981BA810D911C91C801BF01FD
:102FB0000E94812C9B01205C3F4FA981BA8112960F
:102FC0000D90BC91A02DBC83AB83CD01BF010E94AD
:102FD000812C7B01B0E2EB0EF11C60915A01062EB0
:102FE000000C770B77FF03C0719561957109E60FAF
:102FF000F71FC801BF010E94812C8B01005C1F4F8D
:103000008B819C81BF010E94812CCB0180969E8385
:103010008D836C01CE18DF08D7FE03C0D194C19414
:10302000D1085801A21AB30AB7FE03C0B194A19403
:10303000B108AC14BD045CF09D818E811E830D83AC
:10304000092F182F9E2D8F2D7901292F382FAD8113
:10305000BE81AE15BF055CF0902F812F8901292F0D
:10306000382F9D818E81FE82ED82E92EF82E170188
:103070006D817E81261A370A2901401A510A57FEAE
:1030800003C0519441945108310137FE03C07FEFD2
:10309000671A770A7594679481E0021713070CF09A
:1030A0008FEFA82F880FBB0BBC83AB832D813E8194
:1030B000E216F306F4F021E04D815E81B801AC1414
:1030C000BD041CF0A8016D817E8182EC93E00E941A
:1030D000AC0F6418750877FE06C06B817C81060F03
:1030E000171F620C731C8D819E8101969E838D83B8
:1030F000DDCF90E1890E911CA981BA811496BA8323
:10310000A9838114B4E09B0609F044CF1A82198286
:1031100013E0412E512C612C712C80916302298186
:103120003A81280F311DC9016AE070E00E94812CAC
:103130003EE0389FF001399FF00D1124EE58FD4F0D
:103140001081112309F4B3C02681378137FDA5C052
:103150008485882309F4A1C03395982F80E0B901B4
:103160000E94812C6B01A62EA694B12C82819381A2
:10317000B9010E94812CCB01805C9F4F8A199B0969
:1031800098878F8384819581B9010E94812C7B016E
:1031900090E2E90EF11CEA18FB0880915801909129
:1031A00059018E179F0709F040C080915A01082EDF
:1031B000000C990B4C01A0E18A0E911C97FE04C0F3
:1031C0004C01BFE28B0E911CB5E095948794BA95A3
:1031D000E1F7092C000CAA08BB080E94F527A301FF
:1031E00092010E949E289B01AC01215031094109A6
:1031F0005109C501B4010E94712C2F813885260F19
:10320000371F38872F830E94F527A30192010E9460
:103210009E289B01AC012150310941095109C5018A
:10322000B4010E94712CE60EF71EB60177277C834D
:103230006B83153009F0CAC000915D022C2D4C2D16
:10324000B7018F8198850E940C094C2DB7018F81A1
:1032500098850E943913B7016C0D711DC7FC7A95D2
:10326000615071094C2D8F8198850E943913CA9441
:10327000CA94BFEFEB1AFB0A4C2DB7018F819885DA
:103280000E94A8088B819C812F813885820F931F13
:103290004C2DB70101970E94A80869817A816F5F60
:1032A0007F4F7A8369836A30710509F036CFE091E8
:1032B0005701F0E0389624E0F595E7952A95E1F777
:1032C000EF70FF27CF0133E0880F991F3A95E1F7A0
:1032D000DC01A655BB4F5D018091610290916202B5
:1032E00097FF02C081509F4F8CE1890FC82E880F35
:1032F000DD0880915F029091600297FF02C08150CB
:103300009F4FBCE3B90F2B2F022E000C330B3A83D7
:10331000298380915D02882309F401C1912C812CBD
:1033200093E0692E712CC401B3010E94812C6C0DB5
:103330007D1D61507109A981BA818A0F9B1FE12C03
:1033400008E028E0A50101970E949A09BFEF8B1AB7
:103350009B0A29E08216910431F7EE24E39408E0F9
:1033600028E0A501B60189819A810E949A0980917D
:103370006F028111E8C00CE022E346E354E06CE008
:1033800070E087E290E00E949A0980915D0291E0EE
:10339000892780935D0210925E0228960FB6F894FA
:1033A000DEBF0FBECDBFDF91CF911F910F91FF9078
:1033B000EF90DF90CF90BF90AF909F908F907F90D5
:1033C0006F905F904F903F902F9008958F819885D8
:1033D000BC2C6F81788597FF0DC0919581959109DF
:1033E000AB81BC818A179B070CF02FCFBF80BC0C30
:1033F00070E060E04C2DC701F7FE0FC088279927C9
:103400008E199F092C2D0C2C000C330B821793075F
:103410000CF01BCF4E0D90E080E0BB2009F415CFDF
:10342000603871050CF011CF14160CF00ECF8034FB
:1034300091050CF00ACF9B012B0D311D2138310570
:103440001CF0A0E8BA2EB61A582F9C01240F311D8B
:1034500047FD3A952134310514F040E4481B57707C
:10346000AA24AA94052E01C0AA0C0A94EAF7450FD3
:10347000851B910997FD079653E0959587955A9579
:10348000E1F79695982F8827979587959C01260FA9
:10349000371F2A523C4F612F6150770BDB01AA0F77
:1034A000BB1FAA0FBB1FBE83AD8322242A942B0C03
:1034B0002B183308B1E82B0E311C14160CF0C5CEB6
:1034C000483074F488E090E0841B910947FD93959F
:1034D0006FEF70E002C0759567958A95E2F7A622B6
:1034E000890145018094C80164E070E00E94812C4C
:1034F000ED81FE81E80FF91FE65DFA4FE491D801F6
:103500009C919821EA21E92BED938D019A949110D9
:10351000EACF4850220D331DAA24AA94CECFE656F6
:10352000FB4FE4916E2F62956F706C0D7D2D711DB8
:10353000EF7000E024E044E089819A818E0F911DB4
:103540000E940C090ACF1092D7071092D60710924A
:10355000D9071092D80760E374E082EC93E00E94F0
:103560005E126091690270916A0240E090E080E032
:103570000E94840A82E690E09093D7078093D60752
:103580001092D9071092D8076AE274E082EC93E0B7
:103590000E945E1260917002709171026F5F7F4FA6
:1035A00042E088E790E00E94840A80916F028230B6
:1035B000F9F4EE24E3940CE024E442EA53E06CE0F6
:1035C00070E08EE190E00E949A0986E190E090938D
:1035D000D7078093D6078EE290E09093D907809327
:1035E000D80763E973E082EC93E00E945E12CDCECF
:1035F000833009F04DC00E94F5274B015C010E9409
:10360000F5272B013C0183E0C82ED12CE12CF12CB5
:10361000C501B401A70196010E949E284B015C01DF
:103620003BE0830E911CA11CB11CC301B201A70198
:1036300096010E949E28DC01CB014996A11DB11D77
:10364000EE24E3940CE02CE44BEF52E0B4010E9432
:103650009A0980915601882309F497CE80915401EC
:103660009091550168E070E00E94812C04970CF065
:103670008CCE8FE190E09093D7078093D6078EE2AF
:1036800090E09093D9078093D8076FEE72E0ABCFAC
:10369000843009F07ACE81E390E09093D70780934D
:1036A000D6078EE290E09093D9078093D80769EE11
:1036B00072E099CF2F923F924F925F926F927F92DA
:1036C0008F929F92AF92BF92CF92DF92EF92FF9232
:1036D0000F931F93CF93DF9300D01F92CDB7DEB728
:1036E0008983E091FE022E2E312C8EE0E89FF001BE
:1036F0001124EE58FD4F9981908361835383428357
:1037000035832483178306830E94F52720E031E068
:1037100040E050E00E949E280E94222A2BED3FE0CC
:1037200049E450E40E941C2B20E030E040E05CE3E0
:103730000E941C2B4B015C01E981E23009F072C050
:103740002091700230917102205F3F4F84E0220F80
:10375000331F8A95E1F73B832A83C501B4010E9498
:1037600073292B013C01EA81FB81BF01FF0F880B0C
:10377000990B0E94222A6B017C018EE0829D9001B0
:10378000839D300D11242E583D4F3B832A83A70182
:103790009601C301B2010E941C2B0E94EA29EA8112
:1037A000FB8171876087C501B4010E94892B9B0151
:1037B000AC01C701B6010E941C2B0E94EA29EA81D4
:1037C000FB817387628720917002F98184E2821BFA
:1037D000F43029F0922F990F920F80E4891B8031E9
:1037E00008F480E19EE0929DF001939DF00D11247C
:1037F000EE58FD4F848785870F900F900F90DF91D3
:10380000CF911F910F91FF90EF90DF90CF90BF90DD
:10381000AF909F908F907F906F905F904F903F9070
:103820002F9008951B821A8298CF0F931F93CF93E6
:10383000882309F475C010926F0210926B021092E7
:103840006C0210926D0210926E0210926A02109237
:103850006902109271021092700260E08AE395E0B2
:103860000E945F0F10926802809170029091710225
:103870008630910568F421E0209368022093640269
:103880008130910529F432E030936802209365027B
:1038900080FF0BC0E091680221E02E0F20936802A8
:1038A000F0E0EC59FD4F22E0208381FF0BC0E09156
:1038B000680221E02E0F20936802F0E0EC59FD4FE2
:1038C00023E0208382FD02C0089759F4E09168024A
:1038D00081E08E0F80936802F0E0EC59FD4F84E0A8
:1038E0008083E2E7F2E08EEF92E010823E968E1740
:1038F0009F07D9F7109263021092FE022091610295
:103900003091620240915F025091600200E010E14C
:1039100060E081E00E945A1BCF911F910F910895A2
:103920008091700290917102019690937102809340
:103930007002C0E080916B03C81728F48C2F0E949E
:10394000C90ECF5FF7CF10926C038CCFCF93DF936C
:10395000109253011092600210925F021092620264
:103960001092610210925A011092520184EC8093DD
:103970005701109259011092580110925D0281E096
:103980000E94151CCBE5D1E00E949927880F991F52
:10399000998388830E949927880F991F9B838A8324
:1039A000249682E0CB35D80779F710925C0210920A
:1039B0005B02DF91CF9108952F923F924F925F92D9
:1039C0006F927F928F929F92AF92BF92CF92DF922F
:1039D000EF92FF920F931F93CF93DF9340916F026B
:1039E000443049F58091DE0790E0809590952091D4
:1039F000DF07217130E082239323892B41F081E09E
:103A000080936F029EE19093530180935E0280E069
:103A1000DF91CF911F910F91FF90EF90DF90CF90AA
:103A2000BF90AF909F908F907F906F905F904F90DE
:103A30003F902F90089520915F02309160027901AC
:103A400037FF03C053E0E50EF11CF594E794F594BD
:103A5000E794F194E194F1088091610290916202FF
:103A60006C0197FF03C0E3E0CE0ED11CD594C79440
:103A7000D594C794D194C194D1082E0D3F1D309395
:103A8000600220935F028C0D9D1D909362028093D3
:103A900061028091570190915201890F80935701E3
:103AA00080915A01813C6CF0815080935A018111C0
:103AB00008C01092590110925801423011F40E942E
:103AC000151C80916F02833009F4A3C0A0905A01A5
:103AD0000A2C000CBB08C2E7D2E0FEEF8F2EF2E00A
:103AE0009F2EA2E04A2E512C612C712C4881442338
:103AF00009F1888599858E0D9F1D2A813B81820F52
:103B0000931F9B838A830A851B850C0D1D1D2C81A9
:103B10003D81020F131F1D830C832E813F812A0DCF
:103B20003B1D3F832E83433009F0F2C15D8537FF93
:103B300070C15C872E968C169D06C1F6E0916302DB
:103B40008E2F90E05EE0E59FF0011124EE58FD4FCE
:103B5000268137812130304144F0108201966AE09D
:103B600070E00E94812C8093630280916F0281300B
:103B700009F04FC0E091FE025EE0E59FF0011124E4
:103B8000EE58FD4F0681178117FD43C080818530B7
:103B900009F43FC0C181CF5FD5E0C233A9F0809066
:103BA0006802912CB12CA12C81149104A104B104C0
:103BB00039F00E94F527A50194010E949E284B012F
:103BC000F401EC59FD4FD0818091FE0290E0019606
:103BD0006AE070E00E94812C8093FE028091700266
:103BE00090917102409625E0880F991F2A95E1F780
:103BF000081B190B0E9499275C010E9499279501C7
:103C0000220F331FAC01440F551F6C2F8D2F0E94C4
:103C10005A1B20915A01EBE5F1E04BE552E080811F
:103C200091818E0D9F1D91838083828193818C0D64
:103C30009D1D9383828334964E175F0781F7809191
:103C40005B0290915C02820F911D27FD9A95937003
:103C500090935C0280935B02D0916F028D2F8D7FD9
:103C6000813009F041C2C091DF078C2F0C2E000C6F
:103C7000990B292F221F2227221F30E088279927FE
:103C8000821B930BC6FF04C081E090E0821B930B64
:103C9000C3FB222420F8312CC1FD54C1319421945E
:103CA0003108009729F020E831E02114310411F4A3
:103CB00020E032E0829FB001839F700D929F700DD3
:103CC000112440915F0250916002460F571F50939C
:103CD000600240935F02229EA001239E500D329EFF
:103CE000500D11242091610230916202240F351F82
:103CF0003093620220936102009721F42114310471
:103D000009F441C0BC01990F880B990B0E94222A2B
:103D10006B017C01B101330C880B990B0E94222AA4
:103D2000A70196010E94142920E030E040E053E40E
:103D30000E941C2B2BED3FE049E450E40E947829BF
:103D40000E94F12980915701681B90915201292FFF
:103D5000092E000C330B37FF03C031952195310933
:103D6000223031050CF4F5C06E5F653060F4892FA8
:103D7000881F8827881F890F21E019160CF020E082
:103D8000821B80935201D13009F0D9C140916B025E
:103D900050916C0260916D0270916E024F5F5F4FA7
:103DA0006F4F7F4F40936B0250936C0260936D0294
:103DB00070936E02E09163022EE0E29FF001112405
:103DC000EE58FD4F8681978197FFA6C183E08093CF
:103DD0006F022091690230916A0230932D03209383
:103DE0002C038AE090E0EC01CE010197FC01EE0F7C
:103DF000FF1FE35FFC4F0190F081E02DE217F30716
:103E000008F0B0C08930910509F0B1C0C9E0D0E038
:103E1000EBCF4C85451721F0442311F041504C87DE
:103E20001A141B040CF486CE2A0D3B1D1216130621
:103E30000CF480CE2091610230916202021B130BC0
:103E400017FF03C011950195110920915F02309170
:103E50006002821B930B97FF03C091958195910996
:103E6000081719070CF48C018C85F0E88F9FC001AE
:103E70001124081719070CF05DCE209170023091C3
:103E8000710242E3429FC001439F900D112449817A
:103E90002091690230916A02840F911D8217930765
:103EA00008F4C90190936A02809369020E94F52781
:103EB000A30192010E949E28660F771F881F991FF9
:103EC000615071098109910921E0011558E0150738
:103ED0003CF0212F25952250011514410CF028E0CB
:103EE000269F602D112460935201D0935901C093F5
:103EF00058018881853099F4F0E6F0935A0122E068
:103F000020936F0262E08CE992E00E945F0F12CE74
:103F10001A141B040CF40ECE37FF86CF0BCE30E400
:103F200030935A01833019F48C8581508C878091AD
:103F30006F028D7F19F441E040936F0263E08AE7DE
:103F400092E0E3CF61E070E0FB01E219F3091F01A9
:103F5000A8CE63300CF062E06E3F0CF46EEF60931D
:103F6000520111CFCA30D10599F0CE0109C0CC0F52
:103F7000DD1FC35FDC4FF983E883009709F033CF7F
:103F8000FC01EE0FFF1FE35FFC4F31832083EC0148
:103F900080910B0390910C03019690930C038093F6
:103FA0000B038091070390910803A0910903B0913E
:103FB0000A03840F951FA61FB71F809307039093D2
:103FC0000803A0930903B0930A0380910003813092
:103FD00061F480E293E090933103809330036FE4C7
:103FE00072E48EE492E00E947613CE018E569E4FCC
:103FF000880F991F90933103809330038E01000F37
:10400000111F035F1C4F4DE0E42E43E0F42E51E2FC
:10401000C52E53E0D52EC016D10639F0F801819196
:1040200091918F010E948A13F6CF80910B0390919A
:104030000C030E948A13609107037091080380911A
:10404000090390910A030E94761323E030E04BEEBF
:1040500056E4F701619171917F01629FC001639FF6
:10406000900D729F900D1124480F591F2F5F3F4FE5
:104070002D30310571F7C0900703D0900803E09010
:104080000903F0900A0380910B0390910C036DE0FB
:10409000689F9001699F300D11246EE06C9DC001F6
:1040A0006D9D900D1124280F391F6FE06E9DC0018A
:1040B0006F9D900D1124820F931F840F951F0E94F6
:1040C0008A1382E08093000381E0C11180E0809335
:1040D000560180EE91E0909355018093540161E088
:1040E00082EB92E00E945F0F8091530118161CF43E
:1040F00081508093530181E080935E0280916F0232
:10410000833009F084CC8091540190915501892B22
:1041100009F07DCC81E07CCC809153018111E4CF0A
:104120002091DE0730E020953095C171D0E0C223A8
:10413000D323CD2B01F384E080936F02D5CF809100
:10414000540190915501019790935501809354012A
:10415000809153018111C8CF8091DE07282F30E074
:1041600020953095C1718C2F90E082239323892B69
:1041700011F281E00E94151CB7CF1F920F920FB66B
:104180000F9211248F939F938091E1009091E10011
:10419000937F9093E10083FF0FC01092E90091E0BC
:1041A0009093EB001092EC0092E39093ED0010924C
:1041B0006A0398E09093F00082FF22C093E090930E
:1041C000E9009091F200992319F09AE39093E800A6
:1041D00090915B03992341F090915B0391509093F0
:1041E0005B03911101C05D9A90916903992341F09D
:1041F00090916903915090936903911101C0289A9D
:1042000084FF18C08091E2008E7E81608093E2007E
:104210008091E1008F7E8093E10080915C038E7E2F
:10422000806180935C039F918F910F900FBE0F90E0
:104230001F90189580FFF7CF8091E2008E7E8061FD
:104240008093E2008091E1008E7E8093E100809176
:104250005C038E7E8160E5CF1F920F920FB60F92A6
:104260001124CF92DF92EF92FF920F931F932F931F
:104270003F934F935F936F937F938F939F93AF93EE
:10428000BF93EF93FF93CF93DF93CDB7DEB76C97D8
:10429000DEBFCDBF1092E9008091E80083FF25C00A
:1042A00068E0CE0145960E94600C82EF8093E800A2
:1042B0008D8987FF39C09091E80090FFFCCF982F3F
:1042C000907609F034C19E894F89588D2F89F88CDA
:1042D000911131C0803861F580915A038093F100CB
:1042E0001092F1008EEF8093E8006C960FB6F89470
:1042F000DEBF0FBECDBFDF91CF91FF91EF91BF9198
:10430000AF919F918F917F916F915F914F913F916D
:104310002F911F910F91FF90EF90DF90CF900F9012
:104320000FBE0F901F9018959EEF9093E800C7CF97
:104330001092F100D5CF913059F48111D3CF413093
:10434000510581F680915A038D7F80935A03CACF1D
:10435000933049F48111C6CF4130510519F680914F
:104360005A038260F2CF953041F48091E80080FFDB
:10437000FCCF20682093E300B5CF963009F0A9C0A8
:104380000B8D1C8D22E01092E900109258031092C0
:104390005703F2122EC010925603109255030E943A
:1043A0002F0C1F8299E09983FA8291E09E8390EA14
:1043B00098879AEF99872091570330915803275F88
:1043C0003F4F3C832B838D831092E900109258035A
:1043D00010925703109356030093550349E050E0A1
:1043E000BE016F5F7F4F80E00E94090C0E942F0C7E
:1043F00079CF10935603009355030E94130BDC01F1
:1044000012960D911C910115110509F451C1D801A5
:10441000ED91FC910480F581E02DBE016B5E7F4F34
:10442000C8010995009709F03EC1F8010085118582
:10443000EACFF3E0FF120EC08F89882309F440C051
:10444000823061F440E867E082E590E10E94D60B9B
:10445000811148CF81E28093EB0047CF813029F46E
:1044600040E86BE086E490E1F1CF833099F70E9459
:10447000130BDC011296ED90FC908E010F5F1F4F25
:104480006801E114F10479F0D701ED91FC91068007
:10449000F781E02DB801C7010995080F111DF7013B
:1044A000E084F184EECFD8011C92F6010190002047
:1044B000E9F73197BF016C197D0940E0C601C6CF0D
:1044C00060E370E1FB01449150E080E80E94090C38
:1044D00009CF973009F4BECF983021F481E0809362
:1044E000F10000CF993009F0FDCE837009F0B2CF12
:1044F000E7E2F1E081E031E096E32191222371F0DF
:104500008093E9003093EB00DF0111972C91209309
:10451000EC009093ED008F5F873079F78EE7809302
:10452000EA001092EA008F8980936A03DBCE8B8DBC
:104530009C8D1092E90010925803109257039093AB
:10454000560380935503898D811192C08E899D8970
:10455000913A49F4813209F07DCF47E050E064E0C0
:1045600071E080E0B3CF913209F074CF833269F407
:104570008F89988DB0E0A0E08093000190930101B5
:10458000A0930201B0930301ADCE803269F4809113
:10459000E80082FFFCCF67E084E091E00E94600CBD
:1045A0008BEF8093E8009ECE823209F09BCE8F89FC
:1045B00080930B01EEEFFFE7859194918B3F9C4D2B
:1045C00051F1E0E0F8E08091040190910501A091A3
:1045D0000601B0910701803B9440A105B105F1F4BB
:1045E00080910B0180FD1AC0EE3F8AE0F80789F543
:1045F00087E797E7918380838091600080935903D8
:1046000088E19BE00FB6F894A895809360000FBEF8
:104610009093600067CEEEEFFAE0D5CF8081918174
:104620008737974709F05ECEA89580916000886132
:10463000809360008091590380936000EE3F2AE0F0
:10464000F20789F08091FE0A9091FF0A918380839E
:1046500049CE808191818737980751F29093FF0A64
:104660008093FE0AC5CF1092FF0A1092FE0A3ACE3E
:104670000E94130BDC0112960D911C91011511057E
:1046800009F4E8CED801ED91FC910190F081E02D84
:10469000BE016B5E7F4FC8010995811123CEF801E1
:1046A00000851185EBCF181619060CF41BCED2CE5F
:1046B000F1E0FF12BECE64E370E104CF1F920F92CF
:1046C0000FB60F9211242F933F938F939F93AF9325
:1046D000BF9380914F0390915003A0915103B091EB
:1046E000520330913E0323E0230F2D3758F50196F6
:1046F000A11DB11D20933E0380934F03909350035F
:10470000A0935103B093520380913F0390914003D3
:10471000A0914103B09142030196A11DB11D809368
:104720003F0390934003A0934103B0934203BF9192
:10473000AF919F918F913F912F910F900FBE0F904E
:104740001F90189526E8230F0296A11DB11DD2CF08
:104750001F920F920FB60F9211242F933F934F93F6
:104760005F936F937F938F939F93AF93BF93EF93D9
:10477000FF9380913B03882349F080914303E091AC
:104780004403F091450390818927808380916C03D5
:10479000882329F18091370390913803A091390340
:1047A000B0913A03892B8A2B8B2BC9F08091370368
:1047B00090913803A0913903B0913A030197A10970
:1047C000B1098093370390933803A0933903B093D2
:1047D0003A03892B8A2B8B2B11F40E94EC0EFF914C
:1047E000EF91BF91AF919F918F917F916F915F9169
:1047F0004F913F912F910F900FBE0F901F901895E2
:104800001F920F920FB60F9211248F939F93AF9325
:10481000BF93EF93FF9380913603882309F452C02E
:104820008091320390913303A0913403B09135030A
:10483000892B8A2B8B2BA1F190914603E0914703A2
:10484000F091480380818927808380913203909181
:104850003303A0913403B0913503181619061A06D4
:104860001B069CF48091320390913303A091340392
:10487000B09135030197A109B10980933203909358
:104880003303A0933403B0933503FF91EF91BF91AD
:10489000AF919F918F910F900FBE0F901F90189521
:1048A0001092360380916F008D7F80936F0080910E
:1048B0004603E0914703F091480390818095892356
:1048C0008083E3CF90914603E0914703F091480342
:1048D00080818927F5CFE2E7F3E01382128288EE28
:1048E00093E0A0E0B0E084839583A683B78381E35F
:1048F00091E0918380838FEF9FEF95878487E2EC2F
:10490000F3E0138212828CE3868380E18187108634
:10491000178216861786108A118A128A1092D70774
:104920001092D6071092D9071092D80781E0809391
:10493000DA0723E431E0318320838093DC0710928F
:10494000DD070895789484B5826084BD84B5816064
:1049500084BD85B5826085BD85B5816085BD80914A
:104960006E00816080936E001092810080918100C2
:1049700082608093810080918100816080938100BA
:10498000809180008160809380008091910082609E
:10499000809391008091910081608093910080913B
:1049A00090008160809390008091C100846080932A
:1049B000C1008091C10082608093C1008091C100DC
:1049C00081608093C1008091C30081608093C300A7
:1049D0008091C00082608093C0008091C20081609D
:1049E0008093C20080917A00846080937A008091E5
:1049F0007A00826080937A0080917A00816080934F
:104A00007A0080917A00806880937A0010926A031D
:104A100010925A0310925C038091D70081608093BA
:104A2000D70080EA8093D80089B5806189BD89B5B7
:104A3000826089BD09B400FEFDCF61E070E080E0D6
:104A400090E00E94700D8091D8008F7C80618093EF
:104A5000D8008091E000807F8093E0008091E100A9
:104A60008E7E8093E1008DE08093E200559A209A3B
:104A700068E873E180E090E00E94700DCFB7F89491
:104A800080914903811127C0EDECFFE08491E0EAB9
:104A9000FFE09491E82FF0E0EE0FFF1FEC58F04F8D
:104AA000A591B491EC91E92321F461E081E10E94A8
:104AB0009E0C61E081E10E940F0D8CB580618CBD80
:104AC0008CB580648CBD61E08FE00E940F0D61E0C9
:104AD00080E10E940F0D809149038F5F809349030D
:104AE000CFBFCBEDDFE0BE01FE0184916F5F7F4F52
:104AF0002296FB016491882319F00E940F0DF3CFD9
:104B000061E086E10E949E0C61E070E080E090E050
:104B10000E94700D60E086E10E949E0C6AE070E0E9
:104B200080E090E00E94700D61E086E10E949E0CA2
:104B3000E3EDFFE0E491F0E0EE0FFF1FE255F04FF0
:104B4000A591B4919C9180914D03809589238C937C
:104B5000E6EAFFE0E491E0934D03E1EDFFE0E4914C
:104B6000F0E0EE0FFF1FE255F04F85919491909386
:104B70004C0380934B03E4EAFFE0E491E0934A03A3
:104B80008CB58C7F8CBD8DB581608DBD0E944D0E26
:104B9000E2E8FFE03FE0EF38F30749F084918EBD93
:104BA00000000DB407FEFDCF8EB53196F3CFE09136
:104BB0004B03F0914C03808190914A03892B8083B1
:104BC00080916400816080936400809164008260C1
:104BD0008093640080916400806880936400809179
:104BE000640080648093640080916500816080939C
:104BF00065000E94270E83FF1AC00E944D0E85EAB1
:104C00008EBD00000DB407FEFDCF8EB5E0914B03C5
:104C1000F0914C03808190914A03892B808380918D
:104C200064008062809364000E94420EFDCF8091F8
:104C30006B03823091F0E82FF0E0EE58F04FC49112
:104C40008F5F80936B0361E089E00E940F0DC1309C
:104C500009F45CC0C33009F47BC061E089E00E94C4
:104C60000F0D82E090E00E945F28882309F49DC028
:104C700080916500877F8093650081E08093710358
:104C80008CE38093C80380E18093CB0388E7809313
:104C90004E0316E0C0E0D0E001E02FB7F894809119
:104CA0004F0390915003A0915103B09152032FBF35
:104CB0002091D403222391F02091CC03E82FE21B12
:104CC000E093D5032091C9033091CA032F5F3F4F72
:104CD0003093CA032093C9031092D4034091D003A8
:104CE0005091D1036091D2037091D303841795073B
:104CF000A607B7070CF061C0481B423010F00E94B5
:104D0000420E209751F20E940000C7CF10928000FF
:104D10001092810080918100886080938100809151
:104D20008100816080938100E5ECFFE0E491F0E098
:104D3000EE0FFF1FE255F04F859194919093480339
:104D400080934703E8E9FFE0E491E093460385CFD1
:104D50001092900010929100809191008860809351
:104D6000910080919100816080939100E5ECFFE0DB
:104D7000E491F0E0EE0FFF1FE255F04F8591949122
:104D80009093450380934403E8E9FFE0E491E093C6
:104D9000430380916B03882321F06CE380E00E9441
:104DA000580E80E00E94C90E58CF10927103809176
:104DB000650088608093650063CF2091CB03AC01D0
:104DC000BD01420F511D611D711D4093D0035093D1
:104DD000D1036093D2037093D3038093CC03909359
:104DE000CD03A093CE03B093CF030093D40380915F
:104DF000DF078093DE070E94270E8093DF078091F4
:104E0000530390915403189FF001199FF00D112442
:104E1000EC5EFE4F0280F381E02D0995F82E809123
:104E2000530390915403189FF001199FF00D112422
:104E3000EC5EFE4F0480F581E02D09958091D6034C
:104E40008EBDE7EDF3E081910DB407FEFDCF8EBD81
:104E500037E0E63DF307B9F70DB407FEFDCFFF20BD
:104E600009F44FCF8091530390915403019791F02F
:104E700081E090E09093540380935303189FF001D6
:104E8000199FF00D1124EC5EFE4F0190F081E02D92
:104E9000099537CF82E090E0EDCF8F929F92AF924D
:104EA000BF92CF92DF92EF92FF92CF93DF93EC010C
:104EB000688179818A819B816115710581059105E0
:104EC00021F464E279ED8BE597E02DE133EF41E0E9
:104ED00050E00E949E2849015A019B01AC01A7EABB
:104EE000B1E40E94BD286B017C01ACEEB4EFA501DA
:104EF00094010E94CB28DC01CB018C0D9D1DAE1DC1
:104F0000BF1DB7FF03C00197A109B04888839983EB
:104F1000AA83BB839F77DF91CF91FF90EF90DF90C3
:104F2000CF90BF90AF909F908F9008950E944D2793
:104F300008958CE091E00E944D270895B0E0A0E034
:104F400080930C0190930D01A0930E01B0930F017B
:104F500008958F929F92AF92BF92CF92DF92EF927D
:104F6000FF92CF93DF93EC01688179818A819B81E5
:104F7000611571058105910521F464E279ED8BE5F8
:104F800097E02DE133EF41E050E00E949E28490177
:104F90005A019B01AC01A7EAB1E40E94BD286B0154
:104FA0007C01ACEEB4EFA50194010E94CB28C60EA3
:104FB000D71EE81EF91EF7FE06C081E0C81AD10808
:104FC000E10880E8F80AC882D982EA82FB82C70138
:104FD000B6019F77DF91CF91FF90EF90DF90CF9058
:104FE000BF90AF909F908F9008958F929F92AF92B5
:104FF000BF92CF92DF92EF92FF9260911001709179
:1050000011018091120190911301611571058105C3
:10501000910521F464E279ED8BE597E02DE133EF22
:1050200041E050E00E949E2849015A019B01AC01D9
:10503000A7EAB1E40E94BD286B017C01ACEEB4EF9D
:10504000A50194010E94CB28C60ED71EE81EF91EAA
:10505000F7FE06C081E0C81AD108E10880E8F80A26
:10506000C0921001D0921101E0921201F09213014E
:10507000C701B6019F77FF90EF90DF90CF90BF9070
:10508000AF909F908F9008956093100170931101DD
:1050900080931201909313010895FB01DC010590A8
:1050A0000D920020E1F70895FC01615070400190DD
:1050B0000110D8F7809590958E0F9F1F0895F9994C
:1050C000FECF92BD81BDF89A992780B50895A6E1DB
:1050D000B0E044E050E00C949028A8E1B0E042E059
:1050E00050E00C949028262FF999FECF1FBA92BD5C
:1050F00081BD20BD0FB6F894FA9AF99A0FBE0196B9
:105100000895242F0E947428252F0E9474280C943F
:1051100089280E947328272F0C947428DC01CB0166
:10512000FC01F999FECF06C0F2BDE1BDF89A3196B7
:1051300000B40D9241505040B8F70895052E97FBEA
:105140001EF400940E94B52857FD07D00E94D02875
:1051500007FC03D04EF40C94B5285095409530953B
:1051600021953F4F4F4F5F4F0895909580957095D3
:1051700061957F4F8F4F9F4F08950E94F228A59F02
:10518000900DB49F900DA49F800D911D1124089542
:10519000B7FF0C94BD280E94BD28821B930B089575
:1051A000A1E21A2EAA1BBB1BFD010DC0AA1FBB1F2B
:1051B000EE1FFF1FA217B307E407F50720F0A21B9D
:1051C000B30BE40BF50B661F771F881F991F1A940A
:1051D00069F760957095809590959B01AC01BD0134
:1051E000CF010895A29FB001B39FC001A39F700D8E
:1051F000811D1124911DB29F700D811D1124911DDF
:1052000008950E948D2A60F080E891E009F49EEFF5
:105210000E94942A28F040E851E071F45EEF0CC03F
:105220000C94632A0C940D2BE92FE0780E94EB2A52
:1052300040F3092E052AB1F3261737074807590707
:1052400038F00E2E07F8E02569F0E025E0640AC08A
:10525000EF6307F8009407FADB01B9019D01DC0157
:10526000CA01AD01EF930E948F290E94C62A0E94B5
:1052700044295F91552339F02BED3FE049E450FD7F
:1052800049EC0C94DC2B0895DF93DD27B92FBF7711
:1052900040E85FE31616170648075B0718F4D92F96
:1052A0000E94142B9F938F937F936F930E94D72B11
:1052B000ECEAF0E00E94662A0E94C62A2F913F91F4
:1052C0004F915F910E942F2BDD2351F09058A2EA5D
:1052D0002AED3FE049EC5FE3D0785D270E94F32B95
:1052E000DF910C94C62A0E949D2AE3950C94D72A3C
:1052F0000E948C290C94C62A0E94942A58F00E947D
:105300008D2A40F029F45F3F29F00C945D2A511159
:105310000C940E2B0C94632A0E94EB2A68F39923B9
:10532000B1F3552391F3951B550BBB27AA276217A1
:105330007307840738F09F5F5F4F220F331F441FAE
:10534000AA1FA9F335D00E2E3AF0E0E832D09150E2
:105350005040E695001CCAF72BD0FE2F29D0660FCF
:10536000771F881FBB1F261737074807AB07B0E812
:1053700009F0BB0B802DBF01FF2793585F4F3AF018
:105380009E3F510578F00C945D2A0C940E2B5F3FE4
:10539000E4F3983ED4F3869577956795B795F7959E
:1053A0009F5FC9F7880F911D9695879597F9089586
:1053B000E1E0660F771F881FBB1F62177307840722
:1053C000BA0720F0621B730B840BBA0BEE1F88F731
:1053D000E09508950E94F1296894B1110C940E2B68
:1053E00008950E94F32A88F09F5798F0B92F9927C3
:1053F000B751B0F0E1F0660F771F881F991F1AF0C0
:10540000BA95C9F714C0B13091F00E940D2BB1E0EC
:1054100008950C940D2B672F782F8827B85F39F0EB
:10542000B93FCCF3869577956795B395D9F73EF458
:1054300090958095709561957F4F8F4F9F4F089500
:10544000E89409C097FB3EF490958095709561951E
:105450007F4F8F4F9F4F9923A9F0F92F96E9BB27D4
:105460009395F695879577956795B795F111F8CF50
:10547000FAF4BB0F11F460FF1BC06F5F7F4F8F4FBB
:105480009F4F16C0882311F096E911C0772321F0B1
:105490009EE8872F762F05C0662371F096E8862F49
:1054A00070E060E02AF09A95660F771F881FDAF7A0
:1054B000880F9695879597F9089597F99F6780E8E3
:1054C00070E060E008959FEF80EC0895DF93CF9344
:1054D0001F930F93FF92EF92DF927B018C016894F0
:1054E00006C0DA2EEF010E942F2BFE01E894A59151
:1054F0002591359145915591A6F3EF010E94F32B2B
:10550000FE019701A801DA9469F7DF90EF90FF9010
:105510000F911F91CF91DF91089500240A941616E0
:10552000170618060906089500240A941216130691
:105530001406050608950C94632A0E94F32AD8F3F2
:10554000E894E0E0BB279F57F0F02AED3FE049ECFC
:1055500006C0EE0FBB0F661F771F881F28F0B23AF8
:1055600062077307840728F0B25A620B730B840B2F
:10557000E3959A9572F7803830F49A95BB0F661FC1
:10558000771F881FD2F790480C944A2C092E039459
:10559000000C11F4882352F0BB0F40F4BF2B11F420
:1055A00060FF04C06F5F7F4F8F4F9F4F0895EF9351
:1055B000E0FF07C0A2EA2AED3FE049EC5FEB0E9462
:1055C000F32B0E94C62A0F90039401FC9058E9ED3A
:1055D000F0E00C945D2C57FD9058440F551F59F086
:1055E0005F3F71F04795880F97FB991F61F09F3FD0
:1055F00079F087950895121613061406551FF2CFF9
:105600004695F1DF08C0161617061806991FF1CF48
:1056100086957105610508940895E894BB2766276F
:105620007727CB0197F908959B01AC0160E070E00A
:1056300080E89FE30C9478290E942F2B0C94C62AB3
:105640000E948D2A38F00E94942A20F0952311F0B0
:105650000C945D2A0C94632A11240C940E2B0E9446
:10566000EB2A70F3959FC1F3950F50E0551F629F91
:10567000F001729FBB27F00DB11D639FAA27F00DAB
:10568000B11DAA1F649F6627B00DA11D661F829FD2
:105690002227B00DA11D621F739FB00DA11D621FB7
:1056A000839FA00D611D221F749F3327A00D611DD4
:1056B000231F849F600D211D822F762F6A2F1124B6
:1056C0009F5750409AF0F1F088234AF0EE0FFF1FE9
:1056D000BB1F661F771F881F91505040A9F79E3F40
:1056E000510580F00C945D2A0C940E2B5F3FE4F37F
:1056F000983ED4F3869577956795B795F795E79596
:105700009F5FC1F7FE2B880F911D9695879597F99E
:1057100008959F930E949D2A0F9007FCEE5F0C94C2
:10572000D72A19F416F40C94632A0C94482C0E947E
:10573000F32AB8F39923C9F3B6F39F57550B87FFA4
:105740000E94562C0024A0E640EA9001805856950D
:10575000979528F4805C660F771F881F20F0261726
:105760003707480730F4621B730B840B202931295B
:105770004A2BA69517940794202531254A2758F7D8
:10578000660F771F881F20F026173707480730F469
:10579000620B730B840B200D311D411DA09581F709
:1057A000B901842F9158880F9695879508959B018C
:1057B000AC010C941C2B5058BB27AA270E94F32B3A
:1057C0000C94C62A0E948D2A38F00E94942A20F058
:1057D00039F49F3F19F426F40C94632A0EF4E095F3
:1057E000E7FB0C945D2AE92F0E94EB2A58F3BA17C5
:1057F000620773078407950720F079F4A6F50C94E7
:105800000D2B0EF4E0950B2EBA2FA02D0B01B90134
:1058100090010C01CA01A0011124FF27591B99F026
:10582000593F50F4503E68F11A16F040A22F232F32
:10583000342F4427585FF3CF469537952795A79582
:10584000F0405395C9F77EF41F16BA0B620B730B29
:10585000840BBAF09150A1F0FF0FBB1F661F771F9A
:10586000881FC2F70EC0BA0F621F731F841F48F44F
:10587000879577956795B795F7959E3F08F0B0CFD8
:105880009395880F08F09927EE0F979587950895BF
:105890009F3F31F0915020F4879577956795B795A4
:1058A000880F911D9695879597F9089591505040CE
:1058B000660F771F881FD2F708959F938F937F936A
:1058C0006F93FF93EF939B01AC010E941C2BEF9110
:1058D000FF910E94662A2F913F914F915F910C9406
:1058E0001C2BDB018F939F930E94BD28BF91AF912A
:1058F000A29F800D911DA39F900DB29F900D11242A
:10590000089597FB072E16F4009407D077FD09D071
:105910000E949B2C07FC05D03EF4909581959F4FEB
:105920000895709561957F4F0895EE0FFF1F0590C4
:10593000F491E02D0994AA1BBB1B51E107C0AA1FDB
:10594000BB1FA617B70710F0A61BB70B881F991F20
:105950005A95A9F780959095BC01CD01089581E0F5
:1059600090E0F8940C94812FAEE0B0E0EAEBFCE21A
:105970000C94582F0D891E8986E08C831A83098325
:105980008FEF9FE79E838D83AE01475E5F4F6F89E8
:10599000788DCE0101960E94D72C2F813885020F79
:1059A000131FF80110822E96E4E00C94742FABE0E4
:1059B000B0E0EDEDFCE20C944A2F7C013B018A0142
:1059C000FC0117821682838181FFC8C1CE01019636
:1059D0005C01F7019381F30193FD859193FF819120
:1059E0003F01882309F453C1853239F493FD859131
:1059F00093FF81913F01853229F4B70190E00E9425
:105A0000BC2EE7CF912C212C312CFFE1F31538F07F
:105A10008B3211F190F4803209F1833229F137FC95
:105A20003CC020ED280F2A3050F536FE20C08AE019
:105A3000989E200D1124922E06C08D3291F0803355
:105A400071F7689430F8F30193FD859193FF81918C
:105A50003F018111DACF21C0689431F8689432F89F
:105A6000F2CF689433F8EFCF689434F8ECCFEAE0E3
:105A70002E9E200D1124222E689435F8E4CF8E320C
:105A800029F436FC04C1689436F8DDCF8C3619F45D
:105A9000689437F8D8CF8836B1F2982F9F7D955407
:105AA0009330E0F08336A1F18337C1F1833509F0FB
:105AB00063C02801F2E04F0E511CF801C080D18074
:105AC000692D70E036FC02C06FEF7FEFC6010E94C7
:105AD000B12E4C01689437F882010AC00C5F1F4F49
