:100000000C94EE070C9416080C9416080C94160821
:100010000C9416080C9416080C9416080C941608E8
:100020000C9416080C9416080C940F230C947E2341
:100030000C9416080C9416080C9416080C941608C8
:100040000C9416080C9452260C9416080C9416085E
:100050000C9416080C9416080C9416080C94B025F1
:100060000C9416080C9416080C9416080C94160898
:100070000C9416080C9416080C9416080C94160888
:100080000C94FA250C9416080C9416080C94160877
:100090000C9416080C9416080C9416080C94160868
:1000A0000C9416080C9416080C94160805A84CCD50
:1000B000B2D44EB93836A9020C50B9918688083CA2
:1000C000A6AAAA2ABE000000803F0000000000701F
:1000D0000100C0000C00CAA77C0A42F55508534233
:1000E00048195EF551120030000000274500409489
:1000F0001C0014F3190504F111042004000004414C
:10010000100400040000104208015E14450F40F086
:1001100001005955551351555D0D8C927C0857556A
:10012000550D5E55550D51520C015E55550F5655E6
:10013000550F00A0000000A4000000C2280080A20B
:1001400028008062080040500D0000E318009C92D7
:10015000241F5F555D0D9C1445115F1425075F55E5
:1001600055115F5114015E54551D1F41101F40F47D
:100170004500100421071F41181D1F0441105EF0A7
:10018000041F9C10041F5E54450F5F9214035ED43D
:10019000451F5F92341B5655550D41F005011F0454
:1001A00021071F4208011FE4410F1743181D07C113
:1001B000090151564D1100F0450000F0010040F4D6
:1001C000010080100C0010044110904A001480F0CF
:1001D00090480064904A0064904C0064904D006424
:1001E000904F00C880F09035000F9041000F904D67
:1001F000000F80F09030000590470005901D00052D
:1002000090340005905300059023000590430005AD
:10021000905B0005E09073001990700019907400D5
:100220001990720019E0903700789036008C903564
:1002300000A0903400B4903300C8903200DC9031BC
:1002400000F09030000480F05155495400434F4E67
:1002500054494E5545004E4557205245434F524450
:100260002100C0F0384C6623F1F3730080C0603089
:10027000F0F07000C0F07020F0F0702030F0F0F07E
:100280000080E0F0D07070000000000000C0F03C82
:100290000E070303C3FF3E00F0F0E000C0E0703043
:1002A00080E0F0D07070000000F0F03010303003CB
:1002B00007060406030301000007070603070700FB
:1002C00006070300070703000006070300000307F3
:1002D00004040603030000000000030704040406EE
:1002E00003010000000007070701000000030704E6
:1002F00004060303000707010000000000C0FEFE23
:10030000C6E2323E1C0000C0E0A0E0E0000080C079
:1003100060E0E0E0000080C06020F0FF3F03C0E04C
:10032000E00080E0E0080CCCC662723E1C0E0F03B9
:10033000010001070E0C00070F09090C06060F0F3C
:100340000C060F0F00000F0F080C060F0F004047A0
:1003500067343E1F0701000C0D0D0000000003086C
:10036000031E3F3F3F3F3F1E3C7EFFFFFFFFFF7EE0
:100370003C0700000304000106000204000202041E
:10038000020404040404040402040202000402003F
:100390000601000403000007000106000304000139
:1003A0000201020201010201010102010102020136
:1003B000020100040300060100007F001C1C080865
:1003C000000E700E1C0C0402041A661E06020408BD
:1003D000142E5E0E00080814142E5F001010142E48
:1003E0002F280020202C2F2C202000282F2E141006
:1003F00010006F2E14140808000E5E2E140804025C
:10040000061E661A0402040C1C0E700E0008081C5E
:100410001C007F0010181C3807380020303C332C9B
:10042000102000383D3A140810007D3A14140808D2
:10043000000A7A3A14040402021A7A1A0202040424
:10044000143A7A0A00080814143A7D001008143A85
:100450003D380020102C333C3020003807381C1861
:10046000109064005090550014906400289055003E
:100470001490640014905500149064000A80F09069
:100480006A0050905E0014906A0028905E001490FC
:100490006A0014905E0014906A000A80F070FC8E6E
:1004A00083C1713F0E0000C0F93F07010080C0E228
:1004B000A3B1919F8E40C0828BC9793F06181C164C
:1004C00013F1FC1F1340C08C8FCB7931010078FCF5
:1004D0009E8BF9730200C1F1390D07030160F69F8D
:1004E00099FD670202808E9FD1793F0E004F424EE8
:1004F0002D5930372056455220302E313200C0C69B
:10050000CFDFFFFB73037CFEFFC7E3FF7F3E00FFEF
:10051000FFFF1B1B1B03000303FFFFFF0303000080
:1005200000000000000080808080000000000000CB
:1005300000000000000080E0F058AC56AB55AB5511
:1005400000FF0101010202040810608000003FFF6B
:10055000AA55AA55AA55AA55A85FAC5CAC5CAC5C80
:10056000AC5C0CCF3C0000000103060D1A152A25D7
:100570002A252A2522151209040201000000FFFF86
:1005800057AB57AB57AB57AB03FF808080000000E1
:10059000000000000000FFFF55AA55AA55AA55AA61
:1005A00000FF000000010102040830C000001F7FAE
:1005B000D5AA55AA55AA55AA54AF56AE56AE56AEB0
:1005C000562E86671E000000000103060D0A151254
:1005D00015121512110A09040201000000000000A2
:1005E000000000008080C0C0C0C08080800000008B
:1005F000000000000000C0F078AC56AB55AA55AA28
:1006000000FF000000010102040830C00000FFFFED
:1006100055AA55AA55AA55AA00FFFEAE56AE56AE2B
:1006200056AE5607FE001F17151215121512151299
:10063000101F171215121512151215101F009045D4
:10064000000A80F00000502050001408221C413E97
:100650003E476B6D6D413E001C1C001C3E7F4352AB
:1006600045444954005245434F524400535441526B
:10067000542047414D450000000000F0FCFCFC0008
:1006800000000000000000000000000000000080EA
:10069000C0E0F0F8783C1C1CFCFCF8F00000000006
:1006A0000000C0E0F0F87C3C1E0E0F070707070FA4
:1006B0000E00000000C0F8FCFC7C38383C1C1C1C00
:1006C0001C0C0C0C0C000000F8FCFCFC3C1C1C1C62
:1006D0001C1C1C3CFCF8F8F00000000000C0E0F01E
:1006E000F87C3C1E0E0F070707070F0E0080F0FF77
:1006F000FF3F0700000000000000000000000000B5
:10070000C0F0FC7E7F7F777130303038F8FFFFFF1C
:100710001F0000000000070F1F1F1C1C1C1C1C3C9E
:10072000FCFCF8F000000000E0FEFFFFEFE160706D
:100730007030383818180000000000E0FEFF7F77A6
:100740007070F8F8FCDCCE8F070703010000000092
:1007500000070F1F1F1C1C1C1C1C3CFCFCF8F0009D
:10076000007C7FFFFFE3E070707838381C1C1E0EA1
:100770000E0000F8FFFF7F0300000000000000E013
:10078000FCFF7F0F01000000307070F0E0E0E0F04F
:10079000F0787C3E1F0F070300000070FFFFFFE3AF
:1007A000E0E0707078383C1C0C0C00000000F0FE9B
:1007B000FF7F0700000000000001030F3FFFFEF86D
:1007C000600000307070F0E0E0E0F0F0787C3E1FF8
:1007D0000F0703000000504C41592054494D45007B
:1007E000504C415920434F554E54005D20005B0052
:1007F000424553542031302053434F524553002D2E
:10080000204C4153455253202D000046454252553D
:1008100041525920323031390050524F4752454DE4
:100820004D4544204259204F424F4E4F00005448FE
:1008300049532050524F4752414D20495300524591
:100840004C454153454420554E444552005448457B
:10085000204D4954204C4943454E53452E002120FC
:100860005741524E494E47202100005448452053DD
:10087000435245454E20464C49434B455253005642
:100880004552592052415049444C592E2049542038
:100890004D415900434155534520444953434F4D21
:1008A000464F525420414E44005452494747455206
:1008B000204550494C4550544943005345495A55E9
:1008C0005245532E204245204341524546554C2E19
:1008D000003E41555551653E50524553532020200E
:1008E000544F204143434550540000000000003E57
:1008F0005B4F5B3E3E6B4F6B3E1C3E7C3E1C183C90
:100900007E3C181C577D571C1C5E7F5E1C00183CEB
:100910001800FFE7C3E7FF0018241800FFE7DBE734
:10092000FF30483A060E2629792926407F0505071B
:10093000407F05253F5A3CE73C5A7F3E1C1C080877
:100940001C1C3E7F14227F22145F5F005F5F06093C
:100950007F017F006689956A606060606094A2FF95
:10096000A29408047E040810207E201008082A1C87
:1009700008081C2A08081E101010100C1E0C1E0C53
:1009800030383E3830060E3E0E06000000000000F3
:10099000005F00000007000700147F147F14242A62
:1009A0007F2A122313086462364956205000080734
:1009B0000300001C2241000041221C002A1C7F1C55
:1009C0002A08083E08080080703000080808080857
:1009D000000060600020100804023E5149453E00BE
:1009E000427F400072494949462141494D3318141C
:1009F000127F1027454545393C4A4949314121116B
:100A000009073649494936464949291E000014005C
:100A1000000040340000000814224114141414147F
:100A2000004122140802015909063E415D594E7CDD
:100A30001211127C7F494949363E414141227F4192
:100A400041413E7F494949417F090909013E4141F0
:100A500051737F0808087F00417F41002040413FDB
:100A6000017F081422417F404040407F021C027FEA
:100A70007F0408107F3E4141413E7F090909063E3F
:100A80004151215E7F09192946264949493203010E
:100A90007F01033F4040403F1F2040201F3F403820
:100AA000403F631408146303047804036159494DFB
:100AB00043007F4141410204081020004141417F31
:100AC00004020102044040404040000307080020A7
:100AD000545478407F2844443838444444283844A7
:100AE00044287F385454541800087E090218A4A4DE
:100AF0009C787F0804047800447D40002040403DFD
:100B0000007F1028440000417F40007C0478047876
:100B10007C080404783844444438FC182424181809
:100B2000242418FC7C080404084854545424040465
:100B30003F44243C4040207C1C2040201C3C403052
:100B4000403C44281028444C9090907C4464544C81
:100B500044000836410000007700000041360800DC
:100B600002010204023C2623263C1EA1A161123A86
:100B70004040207A385454555921555579412154D3
:100B8000547841215554784020545579400C1E52D8
:100B9000721239555555593954545459395554547C
:100BA000580000457C410002457D420001457C40E3
:100BB000F0292429F0F0282528F07C545545002000
:100BC00054547C547C0A097F49324949493232489D
:100BD000484832324A4848303A4141217A3A424004
:100BE0002078009DA0A07D39444444393D404040D8
:100BF0003D3C24FF2424487E4943662B2FFC2F2BA9
:100C0000FF0929F620C0887E090320545479410049
:100C100000447D413048484A32384040227A007AC8
:100C20000A0A727D0D19317D2629292F28262929A6
:100C3000292630484D4020380808080808080808C8
:100C4000382F10C8ACBA2F102834FA00007B0000EF
:100C500008142A142222142A14089500220095AAA6
:100C6000005500AAAA55AA55AA000000FF001010BE
:100C700010FF00141414FF001010FF00FF1010F0FC
:100C800010F0141414FC001414F700FF0000FF000F
:100C9000FF1414F404FC141417101F10101F101F5D
:100CA0001414141F00101010F0000000001F10108A
:100CB00010101F10101010F010000000FF10101086
:100CC000101010101010FF10000000FF140000FFA3
:100CD00000FF00001F10170000FC04F4141417108C
:100CE000171414F404F40000FF00F714141414147F
:100CF0001414F700F7141414171410101F101F14F5
:100D00001414F4141010F010F000001F101F000055
:100D1000001F14000000FC140000F010F01010FF81
:100D200010FF141414FF141010101F00000000F026
:100D300010FFFFFFFFFFF0F0F0F0F0FFFFFF0000FB
:100D4000000000FFFF0F0F0F0F0F38444438447CA2
:100D50002A2A3E147E02020606027E027E026355A5
:100D60004941633844443C04407E201E2006027EF4
:100D7000020299A5E7A5991C2A492A1C4C72017206
:100D80004C304A4D4D303048784830BC625A463D70
:100D90003E494949007E0101017E2A2A2A2A2A4425
:100DA000445F444440514A444040444A514000005A
:100DB000FF0103E080FF000008086B6B0836123665
:100DC0002436060F090F0600001818000000101046
:100DD000003040FF0101001F01011E00191D171204
:100DE000003C3C3C3C0000000000060115012601CF
:100DF00037014A015D01720188019F01B801D201EA
:100E0000EE010B022A024B026E029302BA02E402C6
:100E100010033F037003A403DC0317045504970475
:100E2000DD0427057505C80520067D06E00649078F
:100E3000B8072D08A9082D09B9094D0AEA0A900B2F
:100E4000400CFA0CC00D910E6F0F5A1053115B122B
:100E500072139A14D41520178018F519801B231DBE
:100E6000DE1EB420A622B524E4263429A72B402E6A
:100E70000031EA330037453ABC3D68414C456B4987
:100E8000C84D68524F57805C00621011121315163E
:100E900017181A1C1D1F21232527292C2E31343702
:100EA0003A3E4145494E52575C62686E757B838B72
:100EB000939CA5AFB9C4D0DCE9F70000000200099B
:100EC0000F0000030401000C0000000000000000FF
:100ED00000000000000000000003010000000024EA
:100EE0000027002A002D003000D5F08D14A1C88104
:100EF000CFD9F1AF2000040802011040804010203B
:100F000040804080080204018040201002011080CF
:100F1000102040402000000000250028002B002E5B
:100F20000031000404040404030405020202020464
:100F30000302020202060606060606040402020274
:100F400004040B020A021202040208020102150143
:100F50001701160100A2108010761356104710E8F2
:100F6000135F19F1186D168520E720C01C080B00CF
:100F70000202020000090400000102020000052430
:100F800000100105240101010424020605240600C5
:100F9000010705810310004009040100020A000056
:100FA000000705020240000007058302400000041C
:100FB00003090412010002EF0201404123368000C0
:100FC000010102030141726475696E6F204C4C434C
:100FD0000041726475626F790000BD2611241FBE46
:100FE000CFEFDAE0DEBFCDBF11E0A0E0B1E0EEEE82
:100FF000FBE502C005900D92AA33B107D9F728E0AE
:10100000AAE3B1E001C01D92AB31B207E1F717E0EE
:10101000CEEED7E004C02197FE010E94D62DCD3E32
:10102000D107C9F70E94F4260C94F52D0C9400000A
:101030002091170830E0209530954091180850E035
:101040002423352390E02823392381E0232B09F43E
:1010500080E00895CF93DF93DC0177FF13C0222750
:101060003327261B370B842F042E000C990B2817CF
:1010700039072CF4460F70E060E0141644F0DF915D
:10108000CF9108951416DCF760347105C4F7A038C9
:10109000B105A8F7262FCB01840F911D47FD9A9526
:1010A0008134910514F040E4461B27709FEF022E17
:1010B00001C0990F0A94EAF7420F621B710977FF8A
:1010C00002C0695F7F4F83E0759567958A95E1F768
:1010D000FB01F695FE2FEE27F795E795EA0FFB1F2C
:1010E000E15FFB4F28E030E06FEF70E014163CF654
:1010F000483064F4D901A41BB10947FDB395EB0155
:1011000002C0D595C795AA95E2F79C238081982BBC
:1011100090834850E058FF4F9FEFE8CF0F93CF9355
:10112000DF9397FF0CC0EE27FF27E81BF90B4E1744
:101130001F0609F00CF47CC0480F90E080E077FFB8
:101140000FC0AA27BB27A61BB70BE22F022E000C4D
:10115000FF0BAE17BF070CF06BC0260F70E060E00E
:10116000442309F465C08038910509F461C0121662
:101170000CF05EC0603471050CF05AC0FC01E40F45
:10118000F11DE138F10514F040E8481B562FFB0132
:10119000E20FF11D27FDFA95E134F10514F020E48A
:1011A000261B57703FEF052E01C0330F0A94EAF754
:1011B000250F651B710977FF02C0695F7F4F53E000
:1011C000759567955A95E1F77695762F6627779509
:1011D0006795860F971F815F9B4FA8E0B0E0CFEF28
:1011E000D0E012162CF5283064F4BD01621B7109A1
:1011F00027FD7395FE0102C0F595E7956A95E2F724
:101200003E2301110DC03095FC01542F60816323F2
:1012100061935150D9F7285080589F4F3FEFE1CF4D
:10122000FC01542F6081632B61935150D9F7F3CFA8
:10123000DF91CF910F9108958FE094E020E0B22FDD
:10124000B111BFEFFC010024B193B193B193B193FD
:101250000394D1F70895FC018091A303882311F131
:101260003FB7F89482E08093E9002091F200822F4A
:1012700090E01816190614F481E090E0882339F004
:10128000289844E64093A2034091F1004083222332
:1012900039F02091F200211103C02BE62093E800E1
:1012A0003FBF08958FEF9FEF08952FB7F89483E025
:1012B0008093E9009091E800892F807295FF04C027
:1012C0009091F20080E4891B2FBF089580919A03CA
:1012D00081110DC082E08093960384E08093970390
:1012E000109299031092980381E080939A0386E903
:1012F00093E00895CF93DF931F92CDB7DEB7698354
:10130000DC01ED91FC910280F381E02D41E050E0A1
:10131000BE016F5F7F4F09950F90DF91CF910895C8
:1013200083E08093E9008091F200882319F08AE33A
:101330008093E80008950E94550990E00895CF93A6
:10134000DF931F92CDB7DEB7FC018485958597FDAD
:1013500008C02FEF3FEF358724870F90DF91CF91A3
:101360000895CE0101960E942B09019719F48981F5
:1013700090E0F3CF8FEF9FEFF0CF0F931F93CF93BA
:10138000DF931F92CDB7DEB78C01FC018485958574
:1013900097FF0BC0CE0101960E942B09019771F4B3
:1013A000898190E0F80195878487F8018485958587
:1013B0000F90DF91CF911F910F9108958FEF9FEFC5
:1013C000F1CFFC018485958597FD0BC09FB7F894FC
:1013D00082E08093E9008091F2009FBF90E0019647
:1013E00008959FB7F89482E08093E9008091F2001D
:1013F0009FBF90E0089540919003509191032091F8
:101400008E0330918F0342175307B4F49091E80094
:101410009570E1F39091E80092FD19C08093F1007E
:10142000809190039091910301968F739927892B56
:1014300019F48EEF8093E8008091900390919103CE
:101440000196909391038093900381E0089580E04A
:101450000895EF92FF920F931F93CF93DF93F82E8F
:10146000192FE62E042F81E0860F880F0E94FB09BA
:1014700083E00E94FB09CF2DD12FEC0EFD2EF11C35
:10148000CE15DF05B9F007FF13C0FE0184910E945D
:10149000FB09182F80E00E94FB098123219681110E
:1014A000EFCFDF91CF911F910F91FF90EF900895B3
:1014B0008881EDCF81E0F5CFDF92EF92FF920F931D
:1014C0001F93CF93DF93D82E8A01EB017B01E40EAB
:1014D000F51ECE15DF0559F0D7FE12C0FE0184912E
:1014E0000E94FB0921968111F4CF0FEF1FEFC80175
:1014F000DF91CF911F910F91FF90EF90DF900895B2
:101500008881EECF0F931F93CF93DF931F92CDB7B8
:10151000DEB782E0898342E450E06DE67FE080E858
:101520000E945C0A0E946609DC0112960D911C91D2
:101530000115110589F0D801ED91FC910280F3812C
:10154000E02DBE016F5F7F4FC801099597FD04C074
:10155000F80100851185ECCF89810F90DF91CF9143
:101560001F910F910895615030F02091F100FC011E
:1015700020830196F8CF289884E68093A2030895EB
:10158000AF92BF92CF92DF92EF92FF920F931F9391
:10159000CF93DF936C017B018B01040F151FEB01CF
:1015A0005E01AE18BF08C017D10759F06991D60186
:1015B000ED91FC910190F081E02DC6010995892BF8
:1015C00079F7C501DF91CF911F910F91FF90EF90B7
:1015D000DF90CF90BF90AF900895282F30E0F901B1
:1015E000E654F14F9491F901EA50F14F84912D5D49
:1015F000304FF9012491222309F430C09923E9F0F6
:1016000091509F30D0F4E92FF0E0E75FF44F0C9455
:10161000D62D370B3B0B180B2F0B330B1D0B1D0B54
:101620001D0B3E0B440B480B4C0B520B1D0B560B6A
:10163000909180009F7790938000E22FF0E0EE0F72
:10164000FF1FEB5EF04FA591B4919FB7F894EC911A
:10165000611132C080958E238C939FBF0895909125
:1016600080009F7DE8CF90918000977FE4CF94B574
:101670009F7794BDE2CF94B59F7DFBCF9091900072
:101680009F7790939000D9CF909190009F7DF9CF54
:1016900090919000977FF5CF9091C0009F779093A5
:1016A000C000CBCF9091C0009F7DF9CF9091C20038
:1016B000977F9093C200C1CF8E2BCECFCF93DF9375
:1016C00090E0FC01EA50F14F24918D5D904FFC01B8
:1016D00084918823C9F090E0880F991FFC01E5529E
:1016E000F14FA591B491FC01EB5EF04FC591D491FF
:1016F00061110DC09FB7F8948C91209582238C9333
:101700008881282328839FBFDF91CF91089562307D
:1017100051F49FB7F8943C91822F809583238C934A
:10172000E8812E2BEFCF8FB7F894EC912E2B2C93D2
:101730008FBFEACF3FB7F8948091790390917A03F5
:10174000A0917B03B0917C0326B5A89B05C02F3FD9
:1017500019F00196A11DB11D3FBFBA2FA92F982FD7
:101760008827BC01CD01620F711D811D911D42E0D2
:10177000660F771F881F991F4A95D1F708958F929A
:101780009F92AF92BF92CF92DF92EF92FF924B0166
:101790005C010E949A0B6B017C010E949A0B6C19F0
:1017A0007D098E099F09683E734081059105A8F364
:1017B00021E0821A9108A108B10888EEC80E83E0E2
:1017C000D81EE11CF11C81149104A104B10429F775
:1017D000FF90EF90DF90CF90BF90AF909F908F9051
:1017E00008958F929F92AF92BF92CF92DF92EF9225
:1017F000FF920F931F93CF93DF936C017B018A01BC
:1018000080910C01882309F45CC08091A303882394
:1018100009F457C08091950380FF05C08091E000D6
:1018200082608093E000E801B12C8AEFA82E93E05B
:10183000892E2AE3922E209711F4BB20D9F10E9421
:10184000550981110AC0AA94AA20D9F161E070E07B
:1018500080E090E00E94BF0BEECF8C171D0611F0C8
:101860000CF08C2F9FB7F8948092E9002091E8004B
:1018700025FD02C09FBFDFCF282F30E0C21BD30B56
:10188000F701815020F041914093F100FACFE20E30
:10189000F31EBB2021F09092E800B12CEBCF809199
:1018A000E80085FDE7CF9092E800BB24B394209731
:1018B00009F3F3CF5D9884E6809394031016110624
:1018C0003CF081E090E0F6019383828310E000E039
:1018D000C801DF91CF911F910F91FF90EF90DF90A2
:1018E000CF90BF90AF909F908F90089543B18FB1EC
:1018F00029B190E08095909534E0959587953A953B
:10190000E1F7887030E02095309553E035952795C4
:101910005A95E1F72370822B942F9095907D892B17
:10192000089583B7817F83BF83B7816083BF889524
:1019300083B78E7F83BF0895E0918503F09186037E
:101940009081809184038095892380830895CF922C
:10195000DF92EF92FF920F931F93CF93E82FF0E067
:10196000E752F14FC491E62FF0E0603398F5E65767
:10197000F14FE4910E2F10E0F12CE12C60E074E2C5
:1019800084EF90E0A70198010E94FE2A21503109BE
:101990004109510991E02115310581E048075105C0
:1019A0006CF060E970ED83E090E0A70198010E947F
:1019B000FE2A215031094109510993E0C13089F0D3
:1019C000C330F9F0CF911F910F91FF90EF90DF900E
:1019D000CF900895EE0FFF1FE657F24F0591149137
:1019E000CBCF80918100887F892B809381003093B9
:1019F00089002093880080916F00826080936F003F
:101A0000E1CF80919100887F892B80939100309362
:101A1000990020939800109377030093760381E058
:101A20008093750380917100826080937100CACFAA
:101A3000E82FF0E0E752F14FE491E13019F0E330A4
:101A400089F0089580916F008D7F80936F00809161
:101A50008003E0918103F091820390818095892336
:101A6000808308951092750380917D03E0917E0339
:101A7000F0917F03F2CFCF93C0E08091AA03C81703
:101A800028F48C2F0E94180DCF5FF7CF1092A90376
:101A9000CF910895E091A403F091A503BF016F5F7A
:101AA0007F4F7093A5036093A4032491922F907F9E
:101AB000822F8F70903819F40E94180DEBCF903957
:101AC00081F43296F093A503E093A403FB016491A3
:101AD0009091AA038917F0F667FDDCCF0E94A70C4E
:101AE000D9CF903E49F48091A6039091A70390939B
:101AF000A5038093A403CECF903F19F41092A903BD
:101B0000089597FDC7CF3296F093A503E093A40301
:101B1000FB016491A0917603B0917703322F262FB9
:101B20000E94522B6C507E4F8F4F9F4F28EE33E018
:101B300040E050E00E94302B2093710330937203F9
:101B400040937303509374038091710390917203D7
:101B5000A0917303B0917403892B8A2B8B2B61F4B2
:101B600081E090E0A0E0B0E0809371039093720375
:101B7000A0937303B093740308951F93CF93DF93DF
:101B80002091A8032223D9F0162FEC018091A903FC
:101B9000882331F080911908861788F00E943B0D48
:101BA00010931908D093A703C093A603D093A5035D
:101BB000C093A4030E944A0D81E08093A903DF91A2
:101BC000CF911F9108952F923F924F925F926F9203
:101BD0007F928F929F92AF92BF92CF92DF92EF92BD
:101BE000FF920F931F93CF93DF93CDB7DEB72B9761
:101BF0000FB6F894DEBF0FBECDBFC98610E0F80166
:101C0000E60FF71FF7FDEDC0603871050CF0E9C075
:101C1000FA01EE0DF11DF7FDE4C0403451050CF062
:101C2000E0C0DA0157FF04C0AA27BB27A41BB50BED
:101C3000A770BB27FA0157FD3796F595E795F595FF
:101C4000E795F595E79557FF07C0319748E050E0D5
:101C50005A01AA1ABB0AD501CE2CC694C694C694C2
:101C6000D12C4E2D477019F05FEFC51AD50AAF0180
:101C7000261B370B5601AE0EBF1EBC82AB82F695FB
:101C8000FE2FEE27F795E7954B018E0E9F1E860FD0
:101C9000971F6C01CE0EDF1EDA82C982F12CE12C77
:101CA000240180E8480E511C88E090E03C016A1A4B
:101CB0007B0AAB80BC80A416B50609F492C04830FC
:101CC000510509F48EC04F3F8FEF58070CF460C0E8
:101CD0001701280C391C5201AE0CBF1CBE82AD820C
:101CE000C980DA80CE0CDF1CD886CF82CB0197FD6D
:101CF0003FC04F3F540709F470C0EF81F885D48886
:101D00005901A80EB91EF985F13009F049C0F50155
:101D1000A490EA2D0A2E01C0EE0F0A94EAF7DE2AFB
:101D2000EF81F885D48A109719F14730510501F1F8
:101D3000AF80B884A218B308CD80DE80AC0CBD1C87
:101D4000F501D488F901E80FF91FFB87EA87F985C7
:101D5000F130A1F5EA85FB85C490EC2DF0E0062C6E
:101D600002C0F595E7950A94E2F7DE2AF501D48AD8
:101D70000196EF81F8853196F887EF83FC01E61B29
:101D8000F70BE017F10724F48038910509F0AFCF85
:101D90004F5F5F4F200F311FF0E8EF0EF11C89CF2E
:101DA000F501A490EA2DF0E00A2E02C0EE0FFF1F0D
:101DB0000A94E2F7E095F095DE22B2CFEA85FB8542
:101DC000C490EC2DF0E0062C02C0F595E7950A943E
:101DD000E2F7E095F095DE22C9CF109709F0A8CF81
:101DE000C7CF2B960FB6F894DEBF0FBECDBFDF91E5
:101DF000CF911F910F91FF90EF90DF90CF90BF9008
:101E0000AF909F908F907F906F905F904F903F909A
:101E10002F90089560387105E8F440345105D0F4EE
:101E2000342F369536953695A0E83A9FF001112467
:101E3000E60FF71FE80FF91F3489CA018770992749
:101E400041E050E001C0440F8A95EAF7222319F0DF
:101E5000432B448B089540954323FBCF2F923F9211
:101E60004F925F926F927F928F929F92AF92BF92AA
:101E7000CF92DF92EF92FF920F931F93CF93DF9356
:101E8000CDB7DEB72D970FB6F894DEBF0FBECDBF2E
:101E90006A3069F5FC01EA5EFB4FDC01A85EBB4FCE
:101EA0002C9148E0249F9001112440815181240FFE
:101EB000351F3183208314971D921C922D960FB6E7
:101EC000F894DEBF0FBECDBFDF91CF911F910F9170
:101ED000FF90EF90DF90CF90BF90AF909F908F904A
:101EE0007F906F905F904F903F902F9008956D304E
:101EF00029F39D878C878C5E9B4F9A838983FC0195
:101F0000808091802C853D85285E3B4F3C832B83D0
:101F100030E8831691040CF071C0EC85FD85EA5E13
:101F2000FB4F6080718040E4641671040CF066C061
:101F3000AB81BC814C9045E09401449E200D311D45
:101F40001124121613060CF059C0242C312C9101C7
:101F500053E0220F331F5A95E1F7260D371D121655
:101F600013060CF04BC0649FB001112410E000E098
:101F7000FB01E651F74FFB87EA87E0E0053029F0E7
:101F8000EA85FB85E00FF11FE491530198E0592E9B
:101F90002E2F30E03E832D83E170EF83F12CE12C76
:101FA000E414D8F4C4018E0D9F1D99878887D12C25
:101FB000C12CC41470F4A6014A0D5B1D2F816885E5
:101FC00079858C859D850E940A0F9FEFC91AD90AD1
:101FD000F0CFAFEFEA1AFA0AE3CFED81FE81F59573
:101FE000E7955A94A20CB31C5110D2CF0F5F1F4F2C
:101FF000820C931C0630110509F0BFCFEB81FC81E8
:102000002081422F50E0A981BA818D919C91B6E048
:102010002B9F800D911D1124E981FA81918380838A
:10202000EC85FD85E75EFB4F2081222309F446CF36
:102030006AEF64039001659F300D112420583F4FD3
:10204000281739070CF03ACFAC85BD85ED91FC918E
:1020500011970190F081E02D6AE0CD012D960FB629
:10206000F894DEBF0FBECDBFDF91CF911F910F91CE
:10207000FF90EF90DF90CF90BF90AF909F908F90A8
:102080007F906F905F904F903F902F900994809138
:102090006A03833341F481E00E941808882319F011
:1020A00082E090E0089581E090E008958EE598E068
:1020B00090936903809368038FE18093670389E0BD
:1020C00080936A0381E080936B03089584E090E03D
:1020D000909366038093650308959C0190912B0370
:1020E00095306CF484E09802F0011124EE5EFC4F10
:1020F00033832283718360839F5F90932B030895C2
:1021000020911103215020931103422F4F50550B62
:10211000CA0163E070E00E94C22D8AE39AEAA3EE4E
:10212000BEEE04C0B695A795979587956A95D2F7A8
:1021300081708093100381E090E0222311F090E001
:1021400080E0089588E7809311030895EDECF1E0B5
:102150009381992331F08FEF890F83838281890FD7
:102160008283359683E0ED30F80790F30895FC0103
:102170002081318184E0359527958A95E1F7638147
:102180006203A001639F500D112493E0559547957C
:102190009A95E1F7848120E18202C0011124840F25
:1021A000951F08956FEF8AEC91E00C94BD0D0E948D
:1021B000D21083E090E090936603809365030895C6
:1021C0000E94D21082E090E09093660380936503B2
:1021D00008950E94D21010924A031092490384E09D
:1021E00090E090930F0380930E0308950E94D21005
:1021F00081E090E090930F0380930E03089588236D
:1022000049F080916500877F8093650081E080932D
:10221000A80308951092A8038091650088608093B8
:102220006500089588E00E941808882361F0809175
:102230003003181644F48150809330036FEF8EE31F
:1022400096E00E94BD0D82E00E9418088823B9F034
:1022500020913003422F022E000C550B80912B034E
:10226000082E000C990B01974817590744F42F5F6B
:10227000209330036FEF8EE396E00E94BD0D80E166
:102280000E941808882341F09091A80381E08927D3
:102290000E94FF100E94D21081E00E94180888233B
:1022A00061F0E091300384E0E802F0011124EE5E79
:1022B000FC4F0190F081E02D099408958091000178
:1022C0009AEA811195E5492F40952FE034E0F90114
:1022D000002491934193919341930394D1F791E01A
:1022E00089278093000108958F929F92AF92BF92A9
:1022F000CF92EF92FF920F931F93CF93DF93EC0156
:102300005B014A01AB014F5F5F4FBC016F5F7F4FC5
:10231000C12CE02E022F94018BEF93E00E94E30D7D
:10232000CC24C3949401A501BE018BEF93E00E94DD
:10233000E30DDF91CF911F910F91FF90EF90CF9020
:10234000BF90AF909F908F900895AF92BF92CF9221
:10235000DF92EF92FF920F931F93CF936C015B017B
:102360008A017901C0E04A3051059CF0CA016AE057
:1023700070E00E94C22DAB01B501C901880F991F01
:10238000880F991FF601E81BF90BCF010E94A511D8
:10239000C82FC8016AE070E00E94C22DAC0183E042
:1023A000440F551F8A95E1F743565B4F08E028E03C
:1023B000B501C6018C0F911DC7FD9A950E9474113D
:1023C000EE0CEE0C8C2F8E19885FCF911F910F9120
:1023D000FF90EF90DF90CF90BF90AF900895EBE427
:1023E000F3E025E030E089E398E561917191629F27
:1023F000A001639F500D729F500D1124840F951FF3
:102400002E5F3F4F2F31310581F708952F923F9274
:102410004F925F926F927F928F929F92AF92BF92F4
:10242000CF92DF92EF92FF920F931F93CF93DF93A0
:10243000CDB7DEB72F970FB6F894DEBF0FBECDBF76
:102440006A3071F5FC01EA5EFB4FDC01A85EBB4F10
:102450004C912081318156E0459F200D311D112482
:102460003183208314971D921C9281E090E02F9677
:102470000FB6F894DEBF0FBECDBFDF91CF911F9195
:102480000F91FF90EF90DF90CF90BF90AF909F9013
:102490008F907F906F905F904F903F902F90089516
:1024A00020EE260F203408F79F878E878C5E9B4F87
:1024B0009E838D83FC01008111812E853F85285EDE
:1024C0003B4F39872887003811050CF065C0EE8531
:1024D000FF85EA5EFB4F808191819B838A838034F4
:1024E00091050CF059C0D9018C91482E512C9801BE
:1024F000B5E08B9F200D311D112437FD4DC02A8181
:102500003B81E6E08E9F200D311D112437FD44C034
:10251000EE85FF85E55EFB4F7080EE85FF85E65E0C
:10252000FB4F608024E0629FF0011124E65BFF4FC7
:1025300085909590A590B490813009F05FC026E019
:10254000D22EF12CE12CD501C40181709927AA2744
:10255000BB2780FC02C0761479F0262D892B8A2BAC
:102560008B2B09F4272D4A815B814E0D5F1DB8012D
:102570008E859F850E940A0FB694A794979487949E
:102580003FEFE31AF30A56E0E516F104E1F6DA94B8
:102590000F5F1F4FD110D5CFA885B9852C91422F41
:1025A00050E0ED81FE8180819181F6E02F9F800DCA
:1025B000911D1124AD81BE818D939C93EE85FF8585
:1025C000E75EFB4F2081222309F44FCF6AEF6403BB
:1025D0009001659F300D112420583F4F281739076F
:1025E0000CF043CFAE85BF85ED91FC911197019022
:1025F000F081E02D6AE0CD01099537CF180186E022
:1026000089830A811B8196E09C83D101A40DB51DAD
:10261000BD87AC87D501C40181709927AA27BB2744
:1026200080FC02C0761481F1892B8A2B8B2B31F12F
:102630006F826101F801E40DF51DFB87EA872C85A7
:102640003D85C216D30604F5780117FF02C0F12CB0
:10265000E12C8A859B858134910514F080E490E01B
:10266000E816F9066CF42F81A701B6018E859F85C7
:102670000E940A0F3FEFE31AF30AEBCF7F82D9CF14
:102680005FEFC51AD50ADBCFB694A79497948794C9
:102690008C8181508C83040D151D8111BBCF9981D4
:1026A00091509983240C351C9111ABCF75CFEF92CB
:1026B000FF920F931F93CF93DF938C017B01D0E0A8
:1026C000C0E0F701EC0FFD1F6491662339F0C801EB
:1026D0000E940612892B11F02196F3CFCE01DF91D3
:1026E000CF911F910F91FF90EF9008956F927F927D
:1026F0008F929F92AF92BF92CF92EF920F93CF9310
:10270000DF930E941C092091110388E790E0821B4F
:1027100091096CE270E00E94C22D3B012EE1A22ED5
:1027200025E0B22E3CE1832E912CD0E0C0E081E088
:1027300090E06C167D0611F090E080E0209110038F
:10274000289FA001299F500D1124445F5F4FCC2486
:10275000C39490E2E92E08E19501B4018BEF93E078
:102760000E94E30D219688E1880E911C80E6A80E58
:10277000B11CC330D105D9F688E0E82E00E22EEF77
:1027800034E04CE250E064E470E08BEF93E00E94B0
:10279000E30D80E190E09093100880930F088AE3A6
:1027A00090E090931208809311086DEE74E08BEF27
:1027B00093E0DF91CF910F91EF90CF90BF90AF90CA
:1027C0009F908F907F906F900C9457130C940612EB
:1027D000AF92BF92CF92DF92EF92FF920F931F932F
:1027E000CF93DF9380916B03882389F00E941C09AB
:1027F00001E027E040E868E070E090E080E00E94BF
:102800008E08109215081092160810926B03FF2480
:10281000F39494E0D92ECDE0D0E029E3A22EB12CA0
:1028200080916A03833308F050C0E0916803F0910F
:1028300069039F012F5F3F4F309369032093680323
:102840001491111129C0F0921508F0921608D09237
:1028500067038A5F80936A03833311F7D09310086C
:10286000C0930F08B0921208A092110868ED78E0AA
:102870008BEF93E00E945713CC24C39487E0E82E9B
:1028800007E021ED38E048E350E060E370E08BEFD3
:1028900093E00E94E30DC4CF2091670330E03093B2
:1028A000100820930F0890E090931208809311086D
:1028B000612F8BEF93E00E94E613809167038A5F9C
:1028C0008093670311320CF4ABCFDF91CF911F914E
:1028D0000F91FF90EF90DF90CF90BF90AF90089551
:1028E000089590E080E0089597FF0BC022273327DA
:1028F000281B390B4217130631F02CF0480F90E0DB
:1029000080E0411101C0089560347105E0F79C0139
:10291000240F311D2138310514F040E8481B362FB3
:10292000377021E001C0220F3A95EAF7FB0133E04E
:10293000F595E7953A95E1F7F695FE2FEE27F79591
:10294000E795E80FF91FE15FFB4F8081822B8193B0
:102950004150D9F70895BF92CF92DF92EF92FF9244
:102960000F931F93CF93DF93142FB22EC62F660FB2
:10297000DD0B6E019FEFC91AD90AE82E880FFF08F8
:1029800000E0B601C70101960E948E08412FBE01EA
:10299000C7010E947414BE016B0D711DB7FC7A95BE
:1029A00061507109412FC7010E947414BA94BA94FE
:1029B0004B2DB601C7010E942A08C701810F911D46
:1029C0004B2DB6010197DF91CF911F910F91FF9091
:1029D000EF90DF90CF90BF900C942A08AF92BF92F7
:1029E000CF92DF92EF92FF920F931F93CF93DF93DB
:1029F00020912C032C5F40912D034C5F60912E039E
:102A0000625080912F0382500E94AB1410E000E0CE
:102A1000B12CA12C92E1C92E93E0D92EC0912E03A6
:102A20000C2E000CDD0BE0902F030E2C000CFF0889
:102A300020913003422F022E000C550B80912B0366
:102A4000082E000C990BA816B90634F5F601628120
:102A50007381C00FD11FFCE0EF0EF11C84E090E009
:102A6000A416B50611F090E080E0E81AF90AF09299
:102A70001008E0920F08D0931208C09311088BEF52
:102A800093E00E9457138FEFA81AB80AE4E0CE0E25
:102A9000D11C0A5F1F4FC2CF16E0BE012102600D9C
:102AA000711D112401E025E045E0C7010E948E0858
:102AB00080912D035701A80EB11C87FDBA94809117
:102AC0002C03C80FD11D87FDDA952797B5016551F5
:102AD0007109CC24C39487E0E82E0EE020E536E0AF
:102AE000AE018BEF93E00E94E30D2091A803129FAB
:102AF000900111242C5B394FB5016650710906E035
:102B0000AE018BEF93E00E94E30DDF91CF911F9117
:102B10000F91FF90EF90DF90CF90BF90AF9008950E
:102B20008F929F92AF92BF92EF92FF920F931F935B
:102B3000CF93DF93CDB7DEB7A1970FB6F894DEBF82
:102B40000FBECDBF7C01FA01CB0119A2223008F4DF
:102B50002AE08E010F5D1F4F822E912CB12CA12CEB
:102B6000BF01A50194010E94302BF901CA016A300E
:102B70004CF5605DD8016E938D01232B242B252B02
:102B800079F790E080E0109761F0FD01019000205E
:102B9000E9F73197AF014A1B5B0BBD01C7010E94EA
:102BA000C00AA1960FB6F894DEBF0FBECDBFDF916D
:102BB000CF911F910F91FF90EF90BF90AF909F909A
:102BC0008F900895695CD6CFCF92DF92EF92FF92FB
:102BD0000F931F93CF93DF9377FF1DC06A017B0193
:102BE000EC016DE20E94E6138C0144275527BA01DF
:102BF0004C195D096E097F092AE0CE010E949015EB
:102C0000800F911FDF91CF911F910F91FF90EF9057
:102C1000DF90CF9008952AE0DF91CF911F910F911F
:102C2000FF90EF90DF90CF900C9490150E94F02DC4
:102C30000E94522A29E130E040E050E00E94FE2A42
:102C400088E0860F0895CF92DF92EF92FF920F9364
:102C50001F93CF93DF937C01162F042FC0900D0399
:102C60000C2C000CDD080E94522A25E02C9DE0016E
:102C70002D9DD00D1124C353DE4F20EA35E040E0F6
:102C800050E00E94FE2A605D7240810991096E0D3C
:102C90007F1D7983688383E08A830E94522A212FD3
:102CA00030E050E040E00E94FE2A160F1B830C83A8
:102CB00080910D03082E000C990B019660E470E0E2
:102CC0000E94C22D80930D03DF91CF911F910F9130
:102CD000FF90EF90DF90CF9008952F923F924F9208
:102CE0005F926F927F928F929F92AF92BF92CF929C
:102CF000DF92EF92FF920F931F93CF93DF9300D059
:102D000000D000D01F92CDB7DEB70E945E1151E314
:102D1000C52E53E0D52E10E0012F0170F601019071
:102D2000F081E02DFE83ED83F7FF03C03F96FE8325
:102D3000ED832D813E8144E0359527954A95E1F755
:102D40003E832D83F12CE12C202FA7016D817E8104
:102D50008BEF93E00E940A0F3FEFE31AF30A80E43F
:102D6000E816F10489F71F5F93E0C90ED11C1830F3
:102D700099F680916503909166038230910509F47C
:102D80005BC0D8F40197F9F027960FB6F894DEBF30
:102D90000FBECDBFDF91CF911F910F91FF90EF90AC
:102DA000DF90CF90BF90AF909F908F907F906F906B
:102DB0005F904F903F902F9008958330910509F4D4
:102DC000DAC1049709F708E125E747E756E068E02C
:102DD00070E085E090E00E947411409149035091A9
:102DE0004A034115510571F01092100810920F0816
:102DF000109212081092110870E060E08BEF93E0DF
:102E00000E94E41527960FB6F894DEBF0FBECDBF23
:102E1000DF91CF911F910F91FF90EF90DF90CF90B6
:102E2000BF90AF909F908F907F906F905F904F90EA
:102E30003F902F900C94EE1427E34BE764E082E080
:102E40000E94AB14E3E0F0E0FE83ED8305E010E0C8
:102E500021E0A8016D817E818BEF93E00E940A0F33
:102E60000F5F1F4F0D30110599F72D813E812F5FA8
:102E70003F4F3E832D832C37310541F74BE76CE202
:102E800070E082E090E00E94741410921508109295
:102E9000160886E190E09093100880930F0886E072
:102EA00090E0909312088093110860EF77E08BEF29
:102EB00093E00E94571381E08093150880931608D1
:102EC0002BE4822E23E0922EC12CD12C7601C394C8
:102ED00084E090E09E838D83560191E0A91AB108A9
:102EE0001401260137010EE010E086E090E0E9E0F1
:102EF000AE16B10411F090E080E02D813E81281BD8
:102F0000390B3093100820930F0810931208009388
:102F100011086EEE77E08BEF93E00E9457132AE0E2
:102F2000B301A2018BEF93E00E9490156BEE77E066
:102F30008BEF93E00E945713F101419151911F01D2
:102F400070E060E02AE08BEF93E00E949015FFEFC5
:102F5000AF1ABF0A0A5F1F4F2FEF421A520A620AC6
:102F6000720A0C32110509F68D819E81CC969E83E2
:102F70008D8395E0C90ED11CE11CF11CEAE08E0E98
:102F8000911C2D813E812C37310509F0A5CF80E1C0
:102F900090E09093100880930F080EE210E01093D9
:102FA00012080093110860EE77E08BEF93E00E9427
:102FB0005713409163035091640370E060E082E531
:102FC000282E312C3092100820920F0810931208EE
:102FD000009311088BEF93E00E94E415E0E1F0E02C
:102FE000F0931008E0930F0804E310E01093120828
:102FF0000093110866ED77E08BEF93E00E94571382
:10300000C0905F03D0906003E0906103F090620392
:10301000C701B60120EC3BE443E050E00E94302BB6
:1030200029013A01C701B60120E13EE040E050E04D
:103030000E94302B9CE3892E912CA12CB12CCA012B
:10304000B901A50194010E94302B6F837A838B8391
:103050009C836983C701B601A50194010E94302BAE
:10306000CA01B901A50194010E94302B6D83972EEE
:103070005C01862E3092100820920F0810931208DF
:10308000009311084114510409F046C0F981F1116F
:1030900057C06A3028F460E38BEF93E00E94E61398
:1030A0002AE04D81592DB5018BEF93E00E949015D8
:1030B0006EE28BEF93E00E94E613C701B60126E0B3
:1030C00030E040E050E00E94302BCA01B9012AE014
:1030D00030E040E050E00E94302BAB01BC012AE020
:1030E0008BEF93E027960FB6F894DEBF0FBECDBFEF
:1030F000DF91CF911F910F91FF90EF90DF90CF90D4
:10310000BF90AF909F908F907F906F905F904F9007
:103110003F902F900C9490152AE0B301A2018BEF01
:1031200093E00E9490156AE38BEF93E00E94E61310
:1031300029812A3028F460E38BEF93E00E94E613A4
:103140002AE04F815A816B817C818BEF93E00E9452
:1031500090156AE38BEF93E00E94E61339E038158F
:1031600028F060E38BEF93E00E94E6132AE04D81A4
:10317000592DB501B5CF23E349E766E083E00E940E
:10318000AB1488E090E09E838D830FEF17E064E13D
:1031900070E0C8010E94AA2A7C01FF24282F3DEF7D
:1031A0003203C0011124805C9F4F909310088093DC
:1031B0000F088D819E819093120880931108B801A9
:1031C0008BEF93E00E9457139FEFE91AF90A0E0D57
:1031D0001F1DED81FE813696FE83ED83F897B9F6CB
:1031E000D3CDCF92DF92EF92FF920F931F93CF93A5
:1031F000DF938091650390916603019709F04AC0BF
:103200000E941211809165039091660303E010E023
:10321000049711F002E010E0C1E3D3E0EE24EA9459
:1032200087E0F82E2A8188819981820F911D27FDE0
:103230009A9597FD3EC099838883888199818115ED
:10324000984034F0F982E8820E94181681958A83AA
:10325000239683E0C934D80728F30E94F6296C012D
:10326000990FEE08FF080E949A0BC616D706E806CB
:10327000F90631F06C257D258E259F250E94A12A17
:10328000C801DF91CF911F910F91FF90EF90DF90D8
:10329000CF90089581E10E941808882309F4BACFDD
:1032A0000E94D21081E090E09093660380936503C2
:1032B000B1CF198218820E9418168A83BECF8F92CE
:1032C0009F92AF92BF92CF92DF92EF92FF921F93A5
:1032D000CF93DF938091650390916603892B09F06A
:1032E0004CC080EC93E090932A0380932903F999D2
:1032F000FECF80EC93E00E94CD2A24EC33E03093A3
:103300002A03209329036F3472448E44974009F0B6
:1033100096C0F999FECF4AE150E064EC73E08BE48B
:1033200093E00E94B52AC0912903D0912A036A969E
:10333000D0932A03C0932903F999FECFCE010E94AE
:10334000D32A7C012296D0932A03C09329030E949A
:10335000EF118E159F0509F072C082E090E0909306
:10336000280380932703109226038091A8030E94CC
:10337000FF1010924A0310924903C1E3D3E0812C5D
:1033800038E0932EA12CB12C42E0C42ED12CE12C9C
:10339000F12C0E94522AA50194010E94FE2A7983F1
:1033A00068830E941816182F0E94522AA7019601BE
:1033B0000E94FE2A660F771F881F991F61507109AE
:1033C00081099109169F602D11246A832396B3E029
:1033D000C934DB07F0F210922B0366E670E18CE64D
:1033E00096E00E946D1060EE70E185E696E00E9426
:1033F0006D1067ED70E18EE596E00E946D1089E139
:1034000080932F038AE280932E038DE480932D0313
:1034100083E180932C031092300381E090E090933D
:10342000660380936503DF91CF911F91FF90EF902A
:10343000DF90CF90BF90AF909F908F900895EBE476
:10344000F3E08AE1DF011D928A95E9F781E090E0DF
:1034500090932803809327038093260386CF3F927F
:103460004F925F926F927F928F929F92AF92BF9294
:10347000CF92DF92EF92FF920F931F93CF93DF9340
:10348000CDB7DEB72A970FB6F894DEBF0FBECDBF1B
:1034900025E531E03A87298750E9352EE985FA8517
:1034A0004281442309F432C120813181240F311D2E
:1034B00047FD3A9531832083578185819681850F19
:1034C000911D57FD9A9597FDFEC096838583E985EA
:1034D000FA85858196818038F6E19F0734F080581F
:1034E0009641E985FA8596838583E985FA85808505
:1034F00037FFEEC047FFF3C0883008F0F7C0E9851A
:10350000FA851282108680910E0390910F03039723
:1035100009F4FCC000914C0110914D01021B130BEA
:1035200080904A0190904B0189859A850E94B7103E
:103530005C01E985FA8565817681072E000C880B90
:10354000990B0E94102C25E33AEF4EE85AE30E94B3
:10355000042D2B013C010E94D32B6B017C01C30184
:10356000B2010E94712D9B01AC01505829833A830E
:103570004B835C83B801110F880B990B0E94102CB0
:103580002B013C01B4016A197B09072E000C880B42
:10359000990B0E94102C6D837E838F839887A301E3
:1035A0009201C701B6010E94042D4B015C012D81DF
:1035B0003E814F81588569817A818B819C810E94EF
:1035C000042D9B01AC01C501B4010E94622B4B018B
:1035D0005C0120E030E0A9010E94FF2C87FD96C02D
:1035E000E985FA85608570E090E080E00E94102C0B
:1035F00020E030E040E851E40E94042D9B01AC0142
:10360000C501B4010E94CE2B87FF80C0A3019201A7
:1036100069817A818B819C810E94042D2B013C0160
:103620002D813E814F815885C701B6010E94042D2E
:103630009B01AC01C301B2010E94612B6B017C01B3
:1036400020E030E0A9010E94FF2C18160CF053C0B6
:1036500020E030E040E852E4C701B6010E94CE2BE2
:1036600087FF54C020E030E040E85DE3C501B401CD
:103670000E94042D0E94DF2BE985FA8560878091E6
:103680004601218590914901291366C12091470186
:10369000309148012F5F3F4F3093480120934701FD
:1036A00081608093460103E010E0E985FA85858119
:1036B0009681418566E0805C944F0E9423160150FC
:1036C000110999F723C08058994EE985FA85FDCEF6
:1036D0002115F8E03F071CF014160CF40DCF8E5F97
:1036E000E985FA85813928F030860DCF8850E98543
:1036F000FA85808708CF20E030E040E852ECC7012F
:10370000B6010E94FF2C18160CF4ACCF29853A851F
:10371000265F3F4F3A8729872D5C314008F4BECEA3
:10372000809153019091540101979093540180939B
:103730005301181619060CF4F7C0809151019091AD
:1037400052016CE070E00E94C22D8C010E94522A4E
:103750002AE0209FF001219FF00D1124EB5AFE4F2B
:10376000FA83E98322E030E040E050E00E94FE2A44
:1037700020E638E0629FA001639F500D729F500DBC
:103780001124CA01C097E981FA81918380830E9444
:10379000522A25E030E040E050E00E94FE2AAB01D2
:1037A000BC014A5F5F4F6F4F7F4FE981FA81808193
:1037B0009181181619060CF4DBC081E09AE0909F05
:1037C0009001919F300D11242B5A3E4F3A8329834B
:1037D000849F602D1124F90162830E94522A30E4F3
:1037E000C32ED12CE12CF12CA70196010E94FE2AB8
:1037F000E981FA8164830E94522AA70196010E94FE
:10380000FE2AE981FA818481681B63830E94522A1F
:1038100020E836E140E050E00E94FE2A0E94102C91
:1038200025E33AEF4EE85CE30E94042D0E94D82B7A
:10383000E981FA81768365830E94522A4B015C01FB
:103840000E94522A22E030E040E050E00E94FE2A2E
:103850006B017C01CC0CDD1CEE1CFF1CF1E0CF1ACF
:10386000D108E108F108C501B40121E230E040E0EF
:1038700050E00E94FE2A605F7F4F8F4F9F4FC69E91
:10388000C02C1124E981FA81C78210860E94522A35
:1038900028E030E040E050E00E94FE2A30915001E4
:1038A000C32E032E000CDD08EE08FF0841E06C1566
:1038B0007D058E059F050CF440E02AE0209FF00175
:1038C000219FF00D1124EB5AFE4F41873150242FD8
:1038D000220F230F209350016C157D058E059F0547
:1038E0000CF448C08FE794E090934F0180934E0111
:1038F0002091510130915201C901019690935201DA
:103900008093510197FD0396959587959595879599
:10391000919581959109865A9F4F8E3191056CF151
:1039200090935401809353012A960FB6F894DEBF0A
:103930000FBECDBFDF91CF911F910F91FF90EF9000
:10394000DF90CF90BF90AF909F908F907F906F90BF
:103950005F904F903F900895209144013091450130
:103960002C5331093093450120934401836099CE53
:103970008FEF24CF81E694E0B7CF8EE190E0D0CFF7
:103980002F923F924F925F926F927F928F929F926F
:10399000AF92BF92CF92DF92EF92FF920F931F935D
:1039A000CF93DF93CDB7DEB762970FB6F894DEBF43
:1039B0000FBECDBF0E945E1180910E0390910F0348
:1039C0008130910519F0049709F425C380914C01C9
:1039D00090914D019C01E4E035952795EA95E1F73A
:1039E0003E832D8380914A0190914B01DC01F4E0EC
:1039F000B595A795FA95E1F7B88BAF870DEC11E077
:103A0000CD01092E000CAA0BBB0B8F839887A987C9
:103A1000BA87C901092E000CAA0BBB0B8B879C87A8
:103A2000AD87BE87D80113968C911397882309F42C
:103A30007FC06D917C91072E000C880B990B0E9422
:103A4000102C25E33AEF4EE85AE30E94042D6B0157
:103A50007C01F801628170E090E080E00E94102C0F
:103A600020E030E040E85EE30E94042D2B013C01A1
:103A7000D80114963C90C701B6010E94712D69834C
:103A80007A838B839C836F81788589859A850E9450
:103A9000102C4B015C0129813A814B815C81C3016F
:103AA000B2010E94042D9B01AC01C501B4010E942A
:103AB000612B0E94D82B7A836983C701B6010E94CB
:103AC000D32B6B017C016B857C858D859E850E9447
:103AD000102C4B015C01A7019601C301B2010E94A9
:103AE000042D9B01AC01C501B4010E94622B0E9410
:103AF000D82B6B01B2E0CB0ED11C7B0177FF02C04B
:103B0000F12CE12CC601E1E8CE16D10414F080E8D6
:103B100090E0E816F90664F4232D49815A81B70133
:103B20008BEF93E00E940A0FFFEFEF1AFF0AEACF34
:103B30000B5F1F4F23E00D30120708F473CF85E5AC
:103B400091E09A838983A981BA8112968C91129708
:103B5000882309F4DCC02D903C90119764E03594E3
:103B600027946A95E1F7CD010E94B7108C0174E0AB
:103B7000159507957A95E1F7E981FA816581768156
:103B8000072E000C880B990B0E94102C25E33AEFAE
:103B90004EE85AE30E94042D4B015C01A981BA81D1
:103BA0001996BC91BF830E94712D6B017C01E98144
:103BB000FA81608570E090E080E00E94102C6B87B5
:103BC0007C878D879E87B801012E000C880B990B8E
:103BD0000E94102C2B013C012B853C854D855E8578
:103BE000C701B6010E94042D9B01AC01C301B201C3
:103BF0000E94612B0E94D82B6B017A8B698BC501C7
:103C0000B4010E94D32B2B013C01B101032C000C09
:103C1000880B990B0E94102C4B015C01A3019201AF
:103C20006B857C858D859E850E94042D9B01AC0152
:103C3000C501B4010E94622B0E94D82B5B013601A2
:103C4000601A710A77FE03C07194619471084B0188
:103C50008218930897FE03C091948194910886146A
:103C6000970444F07A8B698B5601902F812F810144
:103C7000292E382E29893A89201731075CF09A2D90
:103C80008B2D5101292E382E99898A891A8B098BFF
:103C9000092F182F680189899A89C81AD90A210120
:103CA0004A185B0857FE03C05194419451087601AD
:103CB000D7FE03C09FEFE91AF90AF594E79481E073
:103CC000A214B3040CF08FEF282E880F3308A989B3
:103CD000BA890A171B07DCF02F81AD01B5018614E4
:103CE00097041CF0A50169897A898BEF93E00E9403
:103CF0000A0FE418F508F7FE04C0A20CB31CEC0C84
:103D0000FD1CE989FA893196FA8BE98BE0CF29818C
:103D10003A81265F3F4F3A8329832D5C314008F476
:103D200012CFA5E5B1E0BA83A98320EF222E312C72
:103D300038E1432E512C47E0F42E11E0E981FA815D
:103D40008281882309F450C0A080B180A4E0B5949A
:103D5000A794AA95E1F7CF010E94B7103C01B4E007
:103D600075946794BA95E1F7A981BA8115968D91FA
:103D70009C9188589F4FB1010E94C22DCB01B20186
:103D80000E94C22D4C019924F89C9001F99C300DA1
:103D9000112427543C4FA30143505109B5016350EE
:103DA0007109E981FA81C18407E0E02E07E08BEF19
:103DB00093E00E94E30DA981BA811996CC90C126A7
:103DC0009401220F331F280D391D2F583C4FA3019A
:103DD00041505109B5016150710993E0E92E03E0AA
:103DE0008BEF93E00E94E30DE981FA813A96FA8322
:103DF000E983ED5CF14008F4A1CFA0904401B090BC
:103E000045011A141B040CF086C081E090E020915B
:103E10004301283014F490E080E0AF85B889A81BF6
:103E2000B90BBA83A983F090490111E01F25AD01B8
:103E300043505109C12E38E0E32E09E028E633E073
:103E40006D817E81645071098BEF93E00E94E30DD8
:103E500049815A8142505109CF2C66E0E62E07E095
:103E600021E633E06D817E81635071098BEF93E031
:103E70000E94E30D49815A814150510980914201CC
:103E8000480F511D87FD5A95809141016D817E81BA
:103E900061507109680F711D87FD7A95C12EE4E0AC
:103EA000EE2E03E02EE533E08BEF93E00E94E30D6E
:103EB000B8EEAB16B3E0BB0674F5C5016AE070E07E
:103EC0000E94C22DAB01770F660B770B80914001EA
:103ED000E981FA81E80FF11D87FDFA95FA83E983FC
:103EE0008D819E81059723E030E0F4E6AF16B104A2
:103EF00014F030E020E0820F931F9093100880931D
:103F00000F0829813A8130931208209311088BEF12
:103F100093E00E94E41580913F0130E020E0882387
:103F200011F022E030E0409147015091480160914A
:103F30003E01062E000C770B082E000C990B0E94F8
:103F4000A5118091510190915201892B51F40FE0FC
:103F500021E34CEF52E068E070E088E290E00E94DC
:103F6000741180910E0390910F030397A1F50BE05C
:103F70002DE442E652E06AE170E089E190E00E94BF
:103F8000741180913D01882309F445C080913B0163
:103F900090913C0123E0969587952A95E1F78170F1
:103FA00080931508809316088FE190E09093100895
:103FB00080930F0888E290E0909312088093110894
:103FC00066E572E08BEF93E00E94571381E08093E7
:103FD00015088093160880910E0390910F030297A5
:103FE000D1F462960FB6F894DEBF0FBECDBFDF915D
:103FF000CF911F910F91FF90EF90DF90CF90BF90E6
:10400000AF909F908F907F906F905F904F903F9078
:104010002F900C94EE1462960FB6F894DEBF0FBE8C
:10402000CDBFDF91CF911F910F91FF90EF90DF9067
:10403000CF90BF90AF909F908F907F906F905F9048
:104040004F903F902F900895CF93DF938091260358
:10405000882309F454C08091270390912803019785
:1040600009F050C080EC93E090932A0380932903D9
:10407000F999FECF4FE452E46EE477E080EC93E0F0
:104080000E94F12A8091290390912A03049690932B
:104090002A0380932903F999FECF60912903709137
:1040A0002A034AE150E08BE493E00E94D92AC091B0
:1040B0002903D0912A036A96D0932A03C093290337
:1040C0000E94EF11F999FECFBC01CE010E94F92A9E
:1040D0008091290390912A03029690932A0380935A
:1040E00029036091A80382E090E00E94E32A82E025
:1040F00090E0909328038093270310922603DF918A
:10410000CF91089584EC93E0C2CFCF938091630365
:104110009091640301969093640380936303C1E0DC
:10412000C09326030E942420109248011092470158
:1041300010923F0187EF80933E0128EE33E03093E9
:104140004501209344018093400110923C0110925C
:104150003B0180E094E090934D0180934C0180E01E
:1041600092E090934B0180934A0110924301C093D7
:10417000490184E080935001E5E5F1E012823A962E
:1041800081E0ED3CF807D0F31092520110925101FA
:1041900088E790E09093540180935301EDECF1E0B7
:1041A0001382359683E0ED30F807D0F310920D03BB
:1041B00081E090E090930F0380930E0360E080ED28
:1041C00091E00E94BD0D10923A01CF910895CF93D6
:1041D000DF9380910E0390910F038230910509F4D3
:1041E000E5C18330910509F4E4C1019709F09BC151
:1041F0001092460110924F0110924E018091510190
:1042000090915201181619069CF580915F039091C8
:104210006003A0916103B09162030196A11DB11DDD
:1042200080935F0390936003A0936103B093620354
:1042300080913B0190913C01019690933C018093C9
:104240003B0187709927892B49F480914701909110
:1042500048010196909348018093470180913E0167
:1042600087FF03C08F5F80933E0181E08093260328
:104270008091440190914501883E23E092072CF4FF
:104280000196909345018093440110924101109250
:1042900042018091180887FF03C09FEF909341016E
:1042A00086FF05C0909141019F5F9093410183FF7C
:1042B00003C09FEF9093420181FF05C080914201AE
:1042C0008F5F80934201309141012091420132027F
:1042D000C001112448E0892B09F046E080914C018F
:1042E00090914D013402800D911D1124803491056F
:1042F0000CF4C8C090934D0180934C0180914C0107
:1043000090914D01813B974034F080EB97E0909382
:104310004D0180934C0180914A0190914B01240200
:10432000800D911D1124803491050CF4AEC0909342
:104330004B0180934A0180914A0190914B01813B4E
:10434000934034F080EB93E090934B0180934A01CB
:10435000809143018F5F8F7080934301311104C0BE
:10436000211102C01092430181E00E9418088823A5
:1043700061F08091490191E089278093490186EE9F
:1043800091E090934F0180934E0180913F01811104
:104390007FC080914C0190914D018134924034F462
:1043A00088E780933F0188EF80933E0180914A0126
:1043B00090914B01803543E094073CF420914401F7
:1043C00030914501283E334019F427EF20934001F6
:1043D000813A91051CF486E0809340010E942F1AD7
:1043E0000E94A610C091460180913A018C1761F09D
:1043F000C13009F45BC0C33009F45EC0C11102C012
:104400000E943B0DC0933A0180914E0190914F0163
:10441000009741F063E021E0863E920709F064E0F6
:104420000E94BD0D80914401909145011816190616
:104430000CF485C0D0E0C0E0409149016BE0CE01B2
:104440000E942316C65ADF4FC03846E1D407A1F7B1
:1044500040914701509148012AE030E0C9019C0198
:1044600021503109F901EE0FFF1FE55BFC4F608120
:1044700071816417750720F52930310531F589E020
:1044800090E0EDCF80E490E035CF80E490E04FCF36
:1044900018160CF08BCF80914C0190914D01803B10
:1044A00095400CF483CF10923F017DCF62E085E10F
:1044B00092E00E94BD0DA6CF62E084EF91E0F9CFBB
:1044C0008A309105A9F09C010BC0880F991FFC014F
:1044D000E55BFC4F718360832115310509F0BECF88
:1044E000F901EE0FFF1FE55BFC4F51834083C901CB
:1044F00050934A034093490321E0892B09F020E0BF
:1045000020933D010E94242010923C0110923B0117
:1045100083E090E090930F0380930E0361E086E2C6
:1045200092E00E94BD0D80910E0390910F030497BD
:1045300009F072C082E090E0DF91CF910895809100
:10454000510190915201181619066CF780E10E94F2
:104550001808882341F30E94242010922B0366EF51
:1045600070E18DE492E00E946D1069EE70E188E4E4
:1045700092E00E946D1082E280932F038AE1809383
:104580002E038BE380932D0381E180932C03109203
:10459000300382E090E090930F0380930E030E941B
:1045A0003B0D0E94D21010923A01BDCF0E94121111
:1045B000BACF80913B0190913C01019690933C01D0
:1045C00080933B0180913E0187FF03C08F5F809302
:1045D0003E010E942F1A0E94A610C0913B01D0916B
:1045E0003C01CC33D10508F49ECF80E10E9418082D
:1045F000811103C0C835D24030F084E090E0909340
:104600000F0380930E0381E00E941808882309F4A9
:104610008ACF0E94852087CF83E090E08DCF1F92C4
:104620000F920FB60F9211248F939F938091E10008
:104630009091E100937F9093E10083FF0FC010926F
:10464000E90091E09093EB001092EC0092E39093DC
:10465000ED001092A30398E09093F00082FF22C037
:1046600093E09093E9009091F200992319F09AE376
:104670009093E80090919403992341F090919403D2
:10468000915090939403911101C05D9A9091A2036F
:10469000992341F09091A20391509093A20391111C
:1046A00001C0289A84FF18C08091E2008E7E81604C
:1046B0008093E2008091E1008F7E8093E100809101
:1046C00095038E7E8061809395039F918F910F90CB
:1046D0000FBE0F901F90189580FFF7CF8091E200DA
:1046E0008E7E80618093E2008091E1008E7E8093D7
:1046F000E100809195038E7E8160E5CF1F920F923D
:104700000FB60F921124CF92DF92EF92FF920F9388
:104710001F932F933F934F935F936F937F938F9349
:104720009F93AF93BF93EF93FF93CF93DF93CDB757
:10473000DEB76C97DEBFCDBF1092E9008091E80034
:1047400083FF25C068E0CE0145960E94B30A82EF40
:104750008093E8008D8987FF39C09091E80090FF31
:10476000FCCF982F907609F034C19E894F89588DDF
:104770002F89F88C911131C0803861F580919303B5
:104780008093F1001092F1008EEF8093E8006C9618
:104790000FB6F894DEBF0FBECDBFDF91CF91FF9172
:1047A000EF91BF91AF919F918F917F916F915F91A9
:1047B0004F913F912F911F910F91FF90EF90DF90BC
:1047C000CF900F900FBE0F901F9018959EEF909373
:1047D000E800C7CF1092F100D5CF913059F4811184
:1047E000D3CF4130510581F6809193038D7F809323
:1047F0009303CACF933049F48111C6CF413051059C
:1048000019F6809193038260F2CF953041F4809144
:10481000E80080FFFCCF20682093E300B5CF9630FE
:1048200009F0A9C00B8D1C8D22E01092E9001092B6
:10483000910310929003F2122EC010928F031092E7
:104840008E030E94820A1F8299E09983FA8291E086
:104850009E8390EA98879AEF9987209190033091F0
:104860009103275F3F4F3C832B838D831092E90098
:10487000109291031092900310938F0300938E0374
:1048800049E050E0BE016F5F7F4F80E00E945C0A0C
:104890000E94820A79CF10938F0300938E030E94A7
:1048A0006609DC0112960D911C910115110509F4A0
:1048B00051C1D801ED91FC910480F581E02DBE013C
:1048C0006B5E7F4FC8010995009709F03EC1F80162
:1048D00000851185EACFF3E0FF120EC08F8988238F
:1048E00009F440C0823061F440E867E081ED9FE068
:1048F0000E94290A811148CF81E28093EB0047CFC3
:10490000813029F440E86BE085EC9FE0F1CF833003
:1049100099F70E946609DC011296ED90FC908E01D9
:104920000F5F1F4F6801E114F10479F0D701ED9199
:10493000FC910680F781E02DB801C7010995080FA9
:10494000111DF701E084F184EECFD8011C92F6012D
:1049500001900020E9F73197BF016C197D0940E013
:10496000C601C6CF6FEA7FE0FB01449150E080E8CA
:104970000E945C0A09CF973009F4BECF983021F429
:1049800081E08093F10000CF993009F0FDCE837073
:1049900009F0B2CFE6E1F1E081E031E096E3219168
:1049A000222371F08093E9003093EB00DF0111972F
:1049B0002C912093EC009093ED008F5F873079F776
:1049C0008EE78093EA001092EA008F898093A30318
:1049D000DBCE8B8D9C8D1092E9001092910310928A
:1049E000900390938F0380938E03898D811192C0E1
:1049F0008E899D89913A49F4813209F07DCF47E053
:104A000050E065E071E080E0B3CF913209F074CFFF
:104A1000833269F48F89988DB0E0A0E08093010122
:104A200090930201A0930301B0930401ADCE8032B4
:104A300069F48091E80082FFFCCF67E085E091E0B7
:104A40000E94B30A8BEF8093E8009ECE823209F079
:104A50009BCE8F8980930C01EEEFFFE785919491B7
:104A60008B3F9C4D51F1E0E0F8E080910501909181
:104A70000601A0910701B0910801803B9440A10577
:104A8000B105F1F480910C0180FD1AC0EE3F8AE07F
:104A9000F80789F587E797E7918380838091600025
:104AA0008093920388E19BE00FB6F894A8958093D9
:104AB00060000FBE9093600067CEEEEFFAE0D5CFB6
:104AC000808191818737974709F05ECEA8958091C4
:104AD0006000886180936000809192038093600001
:104AE000EE3F2AE0F20789F08091FE0A9091FF0ADA
:104AF0009183808349CE808191818737980751F2D5
:104B00009093FF0A8093FE0AC5CF1092FF0A10927D
:104B1000FE0A3ACE0E946609DC0112960D911C91A4
:104B20000115110509F4E8CED801ED91FC91019031
:104B3000F081E02DBE016B5E7F4FC80109958111A8
:104B400023CEF80100851185EBCF181619060CF459
:104B50001BCED2CEF1E0FF12BECE63EB7FE004CFDE
:104B60001F920F920FB60F9211242F933F938F93A2
:104B70009F93AF93BF938091880390918903A091F5
:104B80008A03B0918B033091780323E0230F2D37F4
:104B900058F50196A11DB11D2093780380938803D9
:104BA00090938903A0938A03B0938B038091790338
:104BB00090917A03A0917B03B0917C030196A11D93
:104BC000B11D8093790390937A03A0937B03B093F4
:104BD0007C03BF91AF919F918F913F912F910F9047
:104BE0000FBE0F901F90189526E8230F0296A11D67
:104BF000B11DD2CF1F920F920FB60F9211242F9397
:104C00003F934F935F936F937F938F939F93AF9354
:104C1000BF93EF93FF9380917503882349F08091B0
:104C20007D03E0917E03F0917F039081892780834B
:104C30008091A903882329F18091710390917203D7
:104C4000A0917303B0917403892B8A2B8B2BC9F02D
:104C50008091710390917203A0917303B0917403DA
:104C60000197A109B1098093710390937203A093F6
:104C70007303B0937403892B8A2B8B2B11F40E943E
:104C80004A0DFF91EF91BF91AF919F918F917F91CD
:104C90006F915F914F913F912F910F900FBE0F90A9
:104CA0001F9018951F920F920FB60F9211248F9399
:104CB0009F93AF93BF93EF93FF93809170038823EB
:104CC00009F452C080916C0390916D03A0916E0322
:104CD000B0916F03892B8A2B8B2BA1F190918003CC
:104CE000E0918103F0918203808189278083809104
:104CF0006C0390916D03A0916E03B0916F03181631
:104D000019061A061B069CF480916C0390916D03A2
:104D1000A0916E03B0916F030197A109B10980932F
:104D20006C0390936D03A0936E03B0936F03FF9198
:104D3000EF91BF91AF919F918F910F900FBE0F9008
:104D40001F9018951092700380916F008D7F809353
:104D50006F0080918003E0918103F0918203908144
:104D6000809589238083E3CF90918003E091810334
:104D7000F091820380818927F5CFEBEAF3E013827B
:104D8000128288EE93E0A0E0B0E084839583A6834E
:104D9000B78380E291E0918380838FEF9FEF9587C7
:104DA0008487EBEFF3E0138212828CE3868380E149
:104DB00081871086178216861786108A118A128AB2
:104DC0001092100810920F081092120810921108F9
:104DD00081E08093130822E331E0318320838093C4
:104DE0001508109216080895789484B5826084BDE1
:104DF00084B5816084BD85B5826085BD85B58160DF
:104E000085BD80916E00816080936E00109281005C
:104E10008091810082608093810080918100816017
:104E200080938100809180008160809380008091D8
:104E300091008260809391008091910081608093C5
:104E40009100809190008160809390008091C100DA
:104E500084608093C1008091C10082608093C10012
:104E60008091C10081608093C1008091C300816006
:104E70008093C3008091C00082608093C0008091C5
:104E8000C20081608093C20080917A008460809328
:104E90007A0080917A00826080937A0080917A0013
:104EA000816080937A0080917A00806880937A0094
:104EB0001092A30310929303109295038091D70050
:104EC00081608093D70080EA8093D80089B58061A3
:104ED00089BD89B5826089BD09B400FEFDCF61E05E
:104EE00070E080E090E00E94BF0B8091D8008F7C42
:104EF00080618093D8008091E000807F8093E00003
:104F00008091E1008E7E8093E1008DE08093E2004D
:104F1000559A209A68E873E180E090E00E94BF0B08
:104F2000CFB7F89480918303811127C0E4E3FFE0B9
:104F30008491E7E0FFE09491E82FF0E0EE0FFF1F8F
:104F4000E552F14FA591B491EC91E92321F461E090
:104F500081E10E94ED0A61E081E10E945E0B8CB567
:104F600080618CBD8CB580648CBD61E08FE00E9457
:104F70005E0B61E080E10E945E0B809183038F5F96
:104F800080938303CFBFC2E4DFE0BE01FE018491C2
:104F90006F5F7F4F2296FB016491882319F00E9476
:104FA0005E0BF3CF61E086E10E94ED0A61E070E004
:104FB00080E090E00E94BF0B60E086E10E94ED0A75
:104FC0006AE070E080E090E00E94BF0B61E086E163
:104FD0000E94ED0AEAE3FFE0E491F0E0EE0FFF1F2C
:104FE000EB5EF04FA591B4919C91809187038095E1
:104FF00089238C93EDE0FFE0E491E0938703E8E3FD
:10500000FFE0E491F0E0EE0FFF1FEB5EF04F8591C3
:1050100094919093860380938503EBE0FFE0E49105
:10502000E09384038CB58C7F8CBD8DB581608DBD84
:105030000E949C0CE9EEFEE086EF9EE08E179F0733
:1050400049F024912EBD00000DB407FEFDCF2EB512
:105050003196F4CFE0918503F091860380819091A1
:105060008403892B80838091640081608093640035
:105070008091640082608093640080916400806805
:1050800080936400809164008064809364008091C8
:1050900065008160809365000E94760C83FF1AC0D2
:1050A0000E949C0C85EA8EBD00000DB407FEFDCF6A
:1050B0008EB5E0918503F091860380819091840301
:1050C000892B8083809164008062809364000E94B9
:1050D000910CFDCF8091AA03823091F0E82FF0E08F
:1050E000E752F14FC4918F5F8093AA0361E089E09A
:1050F0000E945E0BC13009F46DC0C33009F48CC04E
:1051000061E089E00E945E0B82E090E00E94C52A87
:10511000882309F4AEC080916500877F8093650085
:1051200081E08093A8038CE38093010480E1809365
:10513000040481E0809315088093160810928D0373
:1051400010928C03E5E5FFE085919491FC010995AF
:1051500086E0D82ECFE0D8E000E010E0CC24C39465
:105160002FB7F8948091880390918903A0918A03C6
:10517000B0918B032FBF20910D04222391F0209139
:105180000504F82FF21BF0930E04209102043091D5
:1051900003042F5F3F4F30930304209302041092C7
:1051A0000D044091090450910A0460910B04709120
:1051B0000C0484179507A607B7070CF062C0481BBC
:1051C000423010F00E94910C0115110549F20E9425
:1051D0000000C6CF10928000109281008091810063
:1051E000886080938100809181008160809381003C
:1051F000ECE2FFE0E491F0E0EE0FFF1FEB5EF04F1A
:10520000859194919093820380938103EFEFFEE068
:10521000E491E093800374CF10929000109291007B
:1052200080919100886080939100809191008160CD
:1052300080939100ECE2FFE0E491F0E0EE0FFF1FBD
:10524000EB5EF04F8591949190937F0380937E0362
:10525000EFEFFEE0E491E0937D038091AA038823C1
:1052600021F06CE380E00E94A70C80E00E94180D02
:1052700047CF1092A80380916500886080936500F5
:1052800052CF20910404AC01BD01420F511D611D9C
:10529000711D4093090450930A0460930B047093AA
:1052A0000C048093050490930604A0930704B09324
:1052B0000804C0920D0480911808809317080E947A
:1052C000760C8093180880918C0390918D03D89E62
:1052D000F001D99EF00D1124E95AF04F8591949177
:1052E000FC0109957C0180918C0390918D03D89EDF
:1052F000F001D99EF00D1124E75AF04F8591949159
:10530000FC01099580910F048EBDE0E1F4E08191EC
:105310000DB407FEFDCF8EBDCE17DF07C1F70DB46C
:1053200007FEFDCF80918C0390918D03E816F9065E
:1053300009F44ACFF0928D03E0928C03DE9CF001D9
:10534000DF9CF00D1124EB5AF04F85919491FC01F4
:1053500009953ACF8F929F92AF92BF92CF92DF92F0
:10536000EF92FF92CF93DF93EC01688179818A817C
:105370009B81611571058105910521F464E279ED48
:105380008BE597E02DE133EF41E050E00E94FE2AEB
:1053900049015A019B01AC01A7EAB1E40E941D2B0F
:1053A0006B017C01ACEEB4EFA50194010E942B2BA4
:1053B000DC01CB018C0D9D1DAE1DBF1DB7FF03C0D1
:1053C0000197A109B04888839983AA83BB839F77FB
:1053D000DF91CF91FF90EF90DF90CF90BF90AF9093
:1053E0009F908F9008950E94AA2908958DE091E0E2
:1053F0000E94AA290895B0E0A0E080930D01909347
:105400000E01A0930F01B093100108958F929F9207
:10541000AF92BF92CF92DF92EF92FF92CF93DF9342
:10542000EC01688179818A819B8161157105810513
:10543000910521F464E279ED8BE597E02DE133EFFE
:1054400041E050E00E94FE2A49015A019B01AC0153
:10545000A7EAB1E40E941D2B6B017C01ACEEB4EF16
:10546000A50194010E942B2BC60ED71EE81EF91E23
:10547000F7FE06C081E0C81AD108E10880E8F80A02
:10548000C882D982EA82FB82C701B6019F77DF9189
:10549000CF91FF90EF90DF90CF90BF90AF909F9013
:1054A0008F9008958F929F92AF92BF92CF92DF928A
:1054B000EF92FF926091110170911201809113019E
:1054C00090911401611571058105910521F464E243
:1054D00079ED8BE597E02DE133EF41E050E00E945C
:1054E000FE2A49015A019B01AC01A7EAB1E40E94DE
:1054F0001D2B6B017C01ACEEB4EFA50194010E9461
:105500002B2BC60ED71EE81EF91EF7FE06C081E043
:10551000C81AD108E10880E8F80AC0921101D092B7
:105520001201E0921301F0921401C701B6019F77B6
:10553000FF90EF90DF90CF90BF90AF909F908F90B3
:105540000895609311017093120180931301909359
:1055500014010895FC010590615070400110D8F7C6
:10556000809590958E0F9F1F0895DC01CB01FC0163
:10557000F999FECF06C0F2BDE1BDF89A319600B4AC
:105580000D9241505040B8F70895F999FECF92BD61
:1055900081BDF89A992780B50895A6E1B0E044E06E
:1055A00050E00C94B72AA8E1B0E042E050E00C943F
:1055B000B72ADC01CB0103C02D910E94E42A41509F
:1055C0005040D0F70895262FF999FECF1FBA92BD0B
:1055D00081BD20BD0FB6F894FA9AF99A0FBE0196D4
:1055E0000895242F0E94E42A252F0E94E42A0C9477
:1055F000F92A0E94E32A272F0C94E42A052E97FB10
:105600001EF400940E94152B57FD07D00E94302BEA
:1056100007FC03D04EF40C94152B50954095309513
:1056200021953F4F4F4F5F4F08959095809570950E
:1056300061957F4F8F4F9F4F08950E94522BA59FDA
:10564000900DB49F900DA49F800D911D112408957D
:10565000B7FF0C941D2B0E941D2B821B930B0895EA
:10566000A1E21A2EAA1BBB1BFD010DC0AA1FBB1F66
:10567000EE1FFF1FA217B307E407F50720F0A21BD8
:10568000B30BE40BF50B661F771F881F991F1A9445
:1056900069F760957095809590959B01AC01BD016F
:1056A000CF010895A29FB001B39FC001A39F700DC9
:1056B000811D1124911DB29F700D811D1124911D1A
:1056C00008955058BB27AA270E94792B0C94B12C1F
:1056D0000E94782C38F00E947F2C20F039F49F3FF4
:1056E00019F426F40C94752C0EF4E095E7FB0C9459
:1056F0006F2CE92F0E94D62C58F3BA176207730754
:105700008407950720F079F4A6F50C94F82C0EF494
:10571000E0950B2EBA2FA02D0B01B90190010C01C1
:10572000CA01A0011124FF27591B99F0593F50F4D9
:10573000503E68F11A16F040A22F232F342F442731
:10574000585FF3CF469537952795A795F040539529
:10575000C9F77EF41F16BA0B620B730B840BBAF0F9
:105760009150A1F0FF0FBB1F661F771F881FC2F764
:105770000EC0BA0F621F731F841F48F48795779578
:105780006795B795F7959E3F08F0B0CF9395880F32
:1057900008F09927EE0F9795879508950E944B2C56
:1057A00008F481E008950E94882CE3950C94C22CA3
:1057B0000E94DF2B6894B1110C94F92C08950E947B
:1057C000DE2C88F09F5798F0B92F9927B751B0F089
:1057D000E1F0660F771F881F991F1AF0BA95C9F775
:1057E00014C0B13091F00E94F82CB1E008950C94EF
:1057F000F82C672F782F8827B85F39F0B93FCCF3A2
:10580000869577956795B395D9F73EF490958095F1
:10581000709561957F4F8F4F9F4F0895E89409C011
:1058200097FB3EF490958095709561957F4F8F4FD3
:105830009F4F9923A9F0F92F96E9BB279395F695E9
:10584000879577956795B795F111F8CFFAF4BB0F67
:1058500011F460FF1BC06F5F7F4F8F4F9F4F16C0CB
:10586000882311F096E911C0772321F09EE8872F55
:10587000762F05C0662371F096E8862F70E060E011
:105880002AF09A95660F771F881FDAF7880F96958A
:10589000879597F90895990F0008550FAA0BE0E82E
:1058A000FEEF16161706E807F907C0F012161306E2
:1058B000E407F50798F0621B730B840B950B39F422
:1058C0000A2661F0232B242B252B21F408950A2688
:1058D00009F4A140A6958FEF811D811D089597F9C8
:1058E0009F6780E870E060E008959FEF80EC089586
:1058F00000240A94161617061806090608950024AF
:105900000A94121613061406050608950C94752CB5
:105910000E94DE2CD8F3E894E0E0BB279F57F0F01C
:105920002AED3FE049EC06C0EE0FBB0F661F771F64
:10593000881F28F0B23A62077307840728F0B25A2A
:10594000620B730B840BE3959A9572F7803830F4F1
:105950009A95BB0F661F771F881FD2F790480C944B
:105960007B2D092E0394000C11F4882352F0BB0FF9
:1059700040F4BF2B11F460FF04C06F5F7F4F8F4F67
:105980009F4F0895EF93E0FF07C0A2EA2AED3FE0A2
:1059900049EC5FEB0E94792B0E94B12C0F9003948D
:1059A00001FC9058ECEAF0E00C94872D57FD9058DC
:1059B000440F551F59F05F3F71F04795880F97FBD3
:1059C000991F61F09F3F79F087950895121613068D
:1059D0001406551FF2CF4695F1DF08C016161706BC
:1059E0001806991FF1CF86957105610508940895F1
:1059F000E894BB2766277727CB0197F908950E9483
:105A00004B2C08F48FEF08950E94172D0C94B12CA5
:105A10000E94782C38F00E947F2C20F0952311F002
:105A20000C946F2C0C94752C11240C94F92C0E945E
:105A3000D62C70F3959FC1F3950F50E0551F629FD0
:105A4000F001729FBB27F00DB11D639FAA27F00DD7
:105A5000B11DAA1F649F6627B00DA11D661F829FFE
:105A60002227B00DA11D621F739FB00DA11D621FE3
:105A7000839FA00D611D221F749F3327A00D611D00
:105A8000231F849F600D211D822F762F6A2F1124E2
:105A90009F5750409AF0F1F088234AF0EE0FFF1F15
:105AA000BB1F661F771F881F91505040A9F79E3F6C
:105AB000510580F00C946F2C0C94F92C5F3FE4F3AB
:105AC000983ED4F3869577956795B795F795E795C2
:105AD0009F5FC1F7FE2B880F911D9695879597F9CB
