:100000000C94CE030C94F6030C94F6030C94F603B4
:100010000C94F6030C94F6030C94F6030C94F6037C
:100020000C94F6030C94F6030C94F0180C945F19DE
:100030000C94F6030C94F6030C94F6030C94F6035C
:100040000C94F6030C94F6030C94F6030C94F6034C
:100050000C94F6030C94F6030C94F6030C94911B89
:100060000C94F6030C94F6030C94F6030C94F6032C
:100070000C94F6030C94F6030C94F6030C94F6031C
:100080000C94DB1B0C94F6030C94F6030C94F6030F
:100090000C94F6030C94F6030C94F6030C94F603FC
:1000A0000C94F6030C94F6030C94F6039D91709057
:1000B00099696E577E666DD9510D966DBE0E6B684F
:1000C0006D7ED66B6E9801D99B99EFDFD7EF4BA170
:1000D0008985280032003C0032003C0032003200AA
:1000E000320000809600320000802C0132005E0158
:1000F0003200900132000080FFDFC7F8FE07E09F6A
:10010000AFBBF53D50608381C075055000EFE7F946
:10011000F89E08E0FFFFFFE3FC1FE082010074048B
:10012000E000AE5F29F07E03E0EFCFE7FCFF8FE059
:10013000F7F7FD71AE0CA083018020050000D7D732
:10014000ED71AE0CA0DFDFE7FCFF87E0FFFFFFF003
:10015000FC07C0FFFFC060000000C30183F03E0346
:10016000E08E0F21F51EA9E0080B0002020200003C
:10017000090400000102020000052400100105240A
:10018000010101042402060524060001070581037C
:1001900010004009040100020A00000007050202E5
:1001A0004000000705830240000004030904120117
:1001B0000002EF02014041233680000101020301E9
:1001C00041726475696E6F204C4C430041726475D6
:1001D000626F7900F0F89C8E8783878E9CF8F00020
:1001E00000FEFF0303030303070EFCF80000FEFFFD
:1001F0000303030303070EFCF80000FFFF000000E9
:1002000000000000FFFF0000FEFF8383838383C79D
:10021000EE7C380000F8FC0E07030303070EFCF821
:1002200000003F7FE0C08080C0E07F3FFFFF010112
:100230000101010101FFFF0000FFFF0C0C0C0C1C71
:100240003E77E3C100007FFFC0C0C0C0C0E0703F88
:100250001F00001F3F70E0C0C0C0E0703F1F0000E3
:100260007FFFC1C1C1C1C1E3773E1C00001F3F70C9
:10027000E0C0C0C0E0703F1F000000000001FFFFB1
:1002800001000000D5F08D14A1C881CFD9F1AF20B5
:10029000004D6963726F54616E6B2100FA00320089
:1002A0005E013200C2016400F401320000802602C7
:1002B0006400BC026400B603640052036400008062
:1002C000808CB7BDA5ADB6BDDBDDDDDEEEEE830611
:1002D0000C183FC083166DDBA700C78F1E3D6A80D8
:1002E000EFDFBF7EE180D78F1E3C6200BB76AD188A
:1002F000270083060C183FC0F3F9F3F7E7EFF5FA90
:10030000F5F3EFCFE3F0E3E3E7C7E7E3E7E7E7E79A
:10031000A7FFFFC78FFF8E1C3F5D78E1FCE4C90695
:10032000868DC05841DCDCD9ACAAAAE7F18F0FFF5B
:1003300009E9F237170F6801000303030845424536
:100340004B4542BBBDBBB7BBBDFFF8F767F5775F59
:1003500004A79A8373C529D31E5DE5DFBD81DF98AD
:10036000F79BB980995BC78F1F70D7775F70AA9A88
:10037000AEB0AADAAEB0AADAAEB0D7775F70C78FE8
:100380001F70870CC81264C80032644E7224C9E022
:100390003E640E7204C86032648E7244C9E0870CF9
:1003A000CE7266180082061830003F9CC99CC003BC
:1003B0009CC99CC0F39C083CC0079CC99CC0870C8E
:1003C000E40F866408203E6444FF3264F9802264AE
:1003D000043F326439803204A4FF330CF820826475
:1003E000E40F879C0980860400327CF0321C303296
:1003F0007CF0867CF086603220320032408660835A
:100400000CC990403E64C893000264C81300F264B3
:10041000C91300070E1990C0793C1C09F3F7D727C0
:100420005EB082020E30A2828E3083460E30C78FBD
:100430001E30EFDFBF7077BBDDEEFEFFFF7FFFFEFC
:100440007FFFFF7FFEFF7FFFFFFEEEDDBB773930D2
:10045000C1C3F818664C11264C99FE732249012736
:10046000CC99FE73204129264199FE7024483930E9
:10047000CCC3FE73264CF8FFF803F3FB8333DF3263
:10048000DFF8DFFAD3309332DFF8DFFADFF8D24A51
:10049000D2485E7A5E7AFFFFFFFFFFE3DD8BFDB39C
:1004A000FC8BF4FBF5FBF93BF93BF47BF1FBD87BD0
:1004B000ADFBD5E59FDBFFFFFFFFFFFFFFFFFFF772
:1004C000FFE3FFC9F79C87D5035D7B3D52755A1545
:1004D000FF7FF6DFFFFFFFFFFDFFFDFFF81FFBDFE4
:1004E000F95FBBDFB95F1BDB395B5BD3C95189DBCC
:1004F0009FFFDEFFFDEFF7FFB7FF03FF7BEF7BD72B
:1005000028037BFB7AAB2BFB7BFB7AAB2AF36BE7F5
:10051000FFE3E763F9F7FFFFFFFFDFFF8FFF07FF51
:10052000AFFF803FAA9FA00DBFED8EAFAAABABEA95
:10053000FFFCFEDBEA17FFFFFFFFFFFFF0FFF6F90E
:10054000F2C0EECAC4DE828A1CDEBBCA8B5A9A7F16
:10055000FF77EFFFFFDFFFBFF31FE313E2ADE440E0
:10056000D46D9C658EE58EFFDF0FF053CAA9A503FD
:10057000D03FFE1BFFBFFFFFFFFFFDFFFDEFE8EFDA
:10058000F8E7FCD3E6C381830083BDC7A9A799C759
:10059000ACEF9C6FF87FFFFFFFBFF01FF7DFF54167
:1005A000E7DDE555F7E5F56D35D0BF9A5FD5AE2AA5
:1005B0005F55B66ACFDFFFFFFFEFFF83EF7DEE00F1
:1005C000EF4DEF4DC07DBF7D40793FFDA1FDA525DD
:1005D000A925A5FDA97CFEFFFE9FFE67F9F9F60699
:1005E000F9F9BA65BA652BFD2BFD4BFDE655A6550D
:1005F000CA7D827DEFFFFFFFFF87FFB7FFC7FFF7D1
:10060000FE17F1E3EFFDD002EFFDE805AAA589553D
:10061000AAA48954FFFFFFFFFFFFFFFF8FEF0FEF3B
:1006200017CF97872F86DFC6DFCCDFEA93E4F4EAA3
:1006300080D4A2AADDFFFFFFFFFFD7FFEFFBFFFB88
:10064000FFF9FFF1FF71FF610000AA2A5555AA2AA0
:100650005555B22AFDFFFFFFF87FFB7FFC7FFF7F30
:10066000FF7FFF7F7C1E7AAE01402BEA52242AAA2C
:1006700052A43AAAE7FFFFFFFFFFFFFFC3FF997FE6
:10068000CB7FDABFCB71DB6D0000AA2A5555AA2AB1
:100690005555B22AE7FFF3FF807FCAFFD4FFBF7F23
:1006A000807FE9FFE5FEE9FEE400E8AAA554A8AAD8
:1006B000A5544CAABFFF468720E40480209A0B4132
:1006C000690A3840468720E4048020EFDFE7FCFF1A
:1006D000C7E0FEDAE6F5253F692BFFBB5DFF0201AF
:1006E00000200400207AFD7FAFF5FFA02A552AA53F
:1006F00054AAA0870380700E0060FFFFFFFFFFFF7A
:10070000E0060300600C006062E1782F05F0205ADB
:10071000BD57AAF55FA093098530A60520E7E3F849
:100720007F0FF060060300600C00E062E1782F05A7
:10073000F0203A5D2FA5F4AFA08B1582B0560AA029
:10074000E7E3F87F0FF0604C04320090013200962E
:100750000032000080FFFFFFFAFFFFFF85FFFFC8A8
:100760000BFFFC8036FFF8334FFFCB44EFFEACDDD0
:10077000FFEDDDDEFFCC456EFF911377FFFD96EABE
:100780006FCDBB640032004B0032003200320000FB
:10079000800102040810204080006F1C11241FBE3D
:1007A000CFEFDAE0DEBFCDBF11E0A0E0B1E0E0E9DD
:1007B000F4E602C005900D92A833B107D9F728E0FE
:1007C000A8E3B1E001C01D92A337B207E1F713E03F
:1007D000CEECD3E004C02197FE010E944032CD3C14
:1007E000D107C9F70E94EF1C0C9446320C9400000C
:1007F00080915701089580389105B0F460347105F7
:1008000098F4E1E9F7E090E1969FD001A0781124F7
:10081000A80F6770E60FF11D9491A858BC4F4423B0
:1008200021F08C91982B9C93089590958C9198230E
:10083000FACFDF92EF92FF920F931F93CF93DF9344
:100840007C01D22E8B01040F111DEB0177FF02C03A
:10085000D0E0C0E0C8010134110514F080E490E05C
:10086000C817D9073CF44D2DBE01C7010E94FB03F8
:100870002196F0CFDF91CF911F910F91FF90EF90D4
:10088000DF900895CF92DF92EF92FF920F931F9324
:10089000CF93DF936B01122FEC017C01E40EF11C6E
:1008A000CE15DF0544F4202F412FB601CE010E9462
:1008B00019042196F5CFDF91CF911F910F91FF90F1
:1008C000EF90DF90CF900895EF92FF920F931F93D8
:1008D000CF938C01842F41E0420FC3E0C20F9B01F4
:1008E00021503109790120E0813079F4C801019665
:1008F0000E94190420E04C2FB701C801CF911F912D
:100900000F91FF90EF900C941904C8010197F0CF5C
:100910002F923F924F925F926F927F928F929F920F
:10092000AF92BF92CF92DF92EF92FF920F931F93FD
:10093000CF93DF9300D01F92CDB7DEB76C015B0180
:10094000842F90E09B838A8381E090E04C014A8170
:100950005B81841A950A2A01519441945108440CF0
:10096000551CF12CE12C66246394712C522F547089
:100970005983822F8270382E922F9870292E122F31
:1009800011702A813B81E216F3060CF072C097FCCD
:1009900009C0215031093B832A8332E0430E511CA8
:1009A000840C951C4FEFE41AF40A52E0650E711C9A
:1009B000860C971C89818823A1F0402F6A817B8156
:1009C0006A0D7B1DC6018E0D9F1D0E94FB03402FEB
:1009D000B5016E0D7F1D8A819B818C0D9D1D0E942E
:1009E000FB033320A9F0402FB5012A813B81621B14
:1009F000730BC6018E0D9F1D0E94FB03402FB50196
:100A00006E197F098A819B818C0D9D1D0E94FB03BD
:100A10002220A9F0402FB5016E0D7F1DC6012A814D
:100A20003B81821B930B0E94FB03402F6A817B81D9
:100A30006A0D7B1DC6018E199F090E94FB031123BD
:100A400009F49FCF402FB5016E197F09C6012A8195
:100A50003B81821B930B0E94FB03402FB5018A81CF
:100A60009B81681B790BC6018E199F090E94FB03AD
:100A700088CF0F900F900F90DF91CF911F910F9122
:100A8000FF90EF90DF90CF90BF90AF909F908F90AE
:100A90007F906F905F904F903F902F9008959F921E
:100AA000AF92BF92CF92DF92EF92FF920F931F937C
:100AB000CF93DF93C82FD62EC22E082F10E00C5FE5
:100AC0001F4F0138110564F5842F860F9927991F50
:100AD0007C0191E4E916F1041CF5AC2EB12CA016B2
:100AE000B106F4F4DD2D8C2F8170982E6D2F70E0FF
:100AF0006E157F059CF4C7FD08C0D03430F48D2FEF
:100B00008170992021F0811104C0DF5FEFCF811146
:100B1000FCCF4C2DC5010E94FB03F7CFCF5FDDCF8B
:100B2000DF91CF911F910F91FF90EF90DF90CF90C9
:100B3000BF90AF909F900895E0915D08E53090F4EC
:100B4000F0E0E15CF74F81898F5F80935B08E09173
:100B50005B08E53030F4F0E0E15CF74F8589809385
:100B60005C08089580914F08E53071F380914E083C
:100B7000EBCF80E090E0A0E2B1E480933F08909357
:100B80004008A0934108B093420880E090E0A0EFB5
:100B9000B1E48093430890934408A0934508B09330
:100BA000460882E080934A0880E197E290934908E2
:100BB0008093480810924C0810924B0810924708F6
:100BC0008EE180934D081092E90210924E08109227
:100BD0004F0810925008109251081092520810922B
:100BE000530810925408A8E4B3E0FD0190E080E0BF
:100BF000248121112BC026E0289FF001299FF00DB0
:100C00001124E85BFC4F81E0848384E680838EE1DD
:100C1000818382E08383128290E080E014962C919D
:100C20001497211119C026E0289FF001299FF00D8B
:100C30001124E85BFC4F81E0848384E6808382E3B7
:100C4000818385E0838312820C949C0501963696FD
:100C50008830910569F6E0CF0196169688309105A7
:100C6000E9F6F2CFEF92FF920F931F93CF93DF93AA
:100C7000E9E6F1E090E0A82FB0E04A0F5B2F511DAC
:100C800070E0260F372F311D85818823C9F0008140
:100C9000E02EF12CE416F5069CF4C181D0E0C217D9
:100CA000D30774F4828103E0823009F404E10E0D6D
:100CB0001F2D111DA017B1071CF4C617D7072CF460
:100CC0009F5F3696903401F79FEF892FDF91CF9188
:100CD0001F910F91FF90EF900895E8E7F3E08111E5
:100CE0008FEF002481938193819381930394D1F7B3
:100CF0000895809178038EBDE9E7F3E088E797E0F7
:100D000021910DB407FEFDCF2EBD8E179F07C1F7B1
:100D10000DB407FEFDCF0895FC0180916801882382
:100D200011F13FB7F89482E08093E9002091F2003E
:100D3000822F90E01816190614F481E090E08823C1
:100D400039F0289844E6409367014091F1004083D0
:100D5000222339F02091F200211103C02BE62093C9
:100D6000E8003FBF08958FEF9FEF08952FB7F894E5
:100D700083E08093E9009091E800892F807295FFCD
:100D800004C09091F20080E4891B2FBF08958091E8
:100D90005F0181110DC082E080935B0184E080934C
:100DA0005C0110925E0110925D0181E080935F0111
:100DB0008BE591E00895089540914C0150914D01CB
:100DC00020914A0130914B0142175307B4F490919E
:100DD000E8009570E1F39091E80092FD19C08093CE
:100DE000F10080914C0190914D0101968F739927EC
:100DF000892B19F48EEF8093E80080914C0190913B
:100E00004D01019690934D0180934C0181E008952E
:100E100080E00895DF92EF92FF920F931F93CF939C
:100E2000DF93D82E8A01EB017B01E40EF51ECE156F
:100E3000DF0559F0D7FE12C0FE0184910E94DC0646
:100E400021968111F4CF0FEF1FEFC801DF91CF91F1
:100E50001F910F91FF90EF90DF9008958881EECF62
:100E60000F931F93CF93DF931F92CDB7DEB782E02E
:100E7000898342E450E068E671E080E80E940A0756
:100E80000E94C706DC0112960D911C9101151105F7
:100E900089F0D801ED91FC910280F381E02DBE0133
:100EA0006F5F7F4FC801099597FD04C0F801008569
:100EB0001185ECCF89810F90DF91CF911F910F9118
:100EC0000895615030F02091F100FC0120830196DB
:100ED000F8CF289884E6809367010895CF93DF9335
:100EE0001F92CDB7DEB76983DC01ED91FC910280E2
:100EF000F381E02D41E050E0BE016F5F7F4F099527
:100F00000F90DF91CF91089583E08093E900809165
:100F1000F200882319F08AE38093E80008950E9484
:100F2000B60690E00895CF93DF931F92CDB7DEB75A
:100F3000FC018485958597FD08C02FEF3FEF35872D
:100F400024870F90DF91CF910895CE0101960E94E2
:100F50008C06019719F4898190E0F3CF8FEF9FEF12
:100F6000F0CF0F931F93CF93DF931F92CDB7DEB7D0
:100F70008C01FC018485958597FF0BC0CE010196FD
:100F80000E948C06019771F4898190E0F8019587A1
:100F90008487F801848595850F90DF91CF911F910B
:100FA0000F9108958FEF9FEFF1CFFC018485958518
:100FB00097FD0BC09FB7F89482E08093E900809181
:100FC000F2009FBF90E0019608959FB7F89482E0E9
:100FD0008093E9008091F2009FBF90E008953FB7B1
:100FE000F8948091460190914701A0914801B091F9
:100FF000490126B5A89B05C02F3F19F00196A11DF8
:10100000B11D3FBFBA2FA92F982F8827BC01CD0152
:10101000620F711D811D911D42E0660F771F881FB1
:10102000991F4A95D1F708958F929F92AF92BF92E0
:10103000CF92DF92EF92FF926B017C010E94EF074B
:101040004B015C01C114D104E104F104B9F00E9428
:10105000EF07681979098A099B09683E7340810581
:10106000910580F321E0C21AD108E108F10888EE69
:10107000880E83E0981EA11CB11CE4CFFF90EF9076
:10108000DF90CF90BF90AF909F908F9008958F92F8
:101090009F92AF92BF92CF92DF92EF92FF920F9307
:1010A0001F93CF93DF936C017B018A0180910B0129
:1010B000882309F45CC080916801882309F457C033
:1010C0008091500180FF05C08091E0008260809394
:1010D000E000E801B12C8AEFA82E93E0892E2AE3E4
:1010E000922E209711F4BB20D9F10E94B6068111EF
:1010F0000AC0AA94AA20D9F161E070E080E090E0F3
:101100000E941408EECF8C171D0611F00CF08C2FE6
:101110009FB7F8948092E9002091E80025FD02C075
:101120009FBFDFCF282F30E0C21BD30BF7018150C8
:1011300020F041914093F100FACFE20EF31EBB2064
:1011400021F09092E800B12CEBCF8091E80085FD72
:10115000E7CF9092E800BB24B394209709F3F3CF34
:101160005D9884E680934F01101611063CF081E0F3
:1011700090E0F6019383828310E000E0C801DF91E4
:10118000CF911F910F91FF90EF90DF90CF90BF9084
:10119000AF909F908F9008952FB7F894609142017F
:1011A0007091430180914401909145012FBF0895B2
:1011B00020915601E0915401F0915501CF01029622
:1011C0009093550180935401222319F085919491B5
:1011D0000895808191810895CF92DF92EF92FF92DE
:1011E000CF93DF930E94D808811520E8920791F4ED
:1011F000809171008D7F80937100109291004698CC
:10120000479810923A01DF91CF91FF90EF90DF90D5
:10121000CF90089521E020933A01813020E8920791
:1012200051F4809152019091530190935501809314
:1012300054010E94D80897FD05C02091390122234E
:1012400009F454C020913801211150C021E02093AD
:101250003B01EC01DF77209709F04BC081E08093E0
:101260003C0146983FE9C32E3FE0D32EE12CF12C00
:10127000CAEFD0E0E091D607F091D7070995811128
:1012800003C081E080933C0180913B01882329F0D9
:1012900080913C01882309F43FC047980E94D808F8
:1012A0000097F1F19C01DE010E942330DC01CB01AB
:1012B00029E0B595A795979587952A95D1F710922E
:1012C00090002AE020939100D0929900C09298005B
:1012D00080933D0190933E01A0933F01B093400164
:1012E000809171008260809371008DCF10923B01DC
:1012F000B0CF9E0150E040E060E472E48FE090E007
:101300000E94CF2F69017A0181E0C81AD108E10853
:10131000F10810923C01AECF4699BFCF479ABECF9D
:101320008FEF9FEFDC01CBCF9C01E1E7F0E09081F4
:101330009D7F908381E080935601309355012093E7
:10134000540130935301209352010C94EC08FF9206
:101350000F931F93CF93DF93E8EFF2E0D0E0C0E06C
:101360009481992359F021963596C031D105C1F762
:10137000DF91CF911F910F91FF900895142F062FA9
:10138000F82E85E08C9FF0018D9FF00D1124E85020
:10139000FD4F81E08483423021F483E897E00E948E
:1013A000940985E08C9FF0018D9FF00D1124E85089
:1013B000FD4FF082018312831382DACF5E9A089583
:1013C000BC0190E080E00C94140843B18FB129B1C6
:1013D00090E08095909534E0959587953A95E1F762
:1013E000887030E02095309553E0359527955A95D3
:1013F000E1F72370822B942F9095907D892B08958F
:101400001F93882331F090916008992321F0109266
:1014100060081F910895182F80915A08823069F44E
:101420000E94E50987FF09C090914B08943628F483
:101430009C5E990F90934B08ECCF87E497E00E9455
:10144000940924E6129FA001112420914E0830E057
:1014500080915A08882321F190E080E0280F391FFD
:10146000220F220F220F8091F0029091F102880F3B
:10147000892F881F990B9195281B21039001112416
:10148000421B530B8091480890914908481759070F
:1014900050F4841B950B9093490880934808B9CF6A
:1014A00083E090E0DBCF6091430870914408809125
:1014B0004508909146080E94AB30162F20E030E09E
:1014C00040E850E460913F087091400880914108E5
:1014D000909142080E9433300E94AB30862F42E048
:1014E000612F0E94A70980914A088230C8F081507C
:1014F00080934A0880914E082AE0829FC0011124FF
:101500008C599F4F44E6489F9001499F300D11240C
:1015100030934908209348088CE380934D0879CF95
:1015200081E08093EF020E94CC0868517C4F8F4F7E
:101530009F4F6093EB027093EC028093ED029093C7
:10154000EE021092EA0282E080934A0880E197E27C
:10155000A2CF83B7817F83BF83B7816083BF889524
:1015600083B78E7F83BF08958EBD00000DB407FE44
:10157000FDCF089510925701259825980895259A32
:10158000259A81E0809357010895480F592F511DE6
:1015900014161506D4F580389105BCF597FF02C0E6
:1015A00090E080E04138510514F040E850E0481BDD
:1015B000FB0177FD379633E0F595E7953A95E1F72E
:1015C000F695FE2FEE27F795E795E80FF91FE858F7
:1015D000FC4F6770772781E090E001C0880F6A9523
:1015E000EAF7382F213041F4415078F08191DF0142
:1015F0001197832B8C93F8CF8095415030F09191C7
:10160000DF01119798239C93F8CF08954F925F9232
:101610006F927F928F929F92AF92BF92CF92DF9202
:10162000EF92FF920F931F93CF93DF93EC016B0127
:10163000542EF22E102F000F442E401A812E912C82
:101640005401A80EB91E6034710528F42E2D442DC6
:10165000C5010E94C50A36016F0C711CB3016150AF
:1016600071096034710528F42E2D442DC5010E94A6
:10167000C50AF01AC80CD91C2E2D4F2DB601CE016B
:101680000E941904C50DD11D2E2D4F2DB601CE017E
:1016900001970E9419040E2D21E0412FB601C501CA
:1016A0000E948804C819D909219722E0412FB60168
:1016B000CE010E9488046818790881E0681A7108D0
:1016C00024E0412FB301CE010E94880428E0412F7D
:1016D000B301C5010E948804DF91CF911F910F9142
:1016E000FF90EF90DF90CF90BF90AF909F908F9042
:1016F0007F906F905F904F900895AF92BF92CF927E
:10170000DF92EF92FF920F931F93CF93DF93142FEB
:10171000C62FD0E0C82ED12CEE24E39401E026E0C1
:1017200044E1BE01C6010E94060B219676018FEFAF
:10173000E81AF80A00E024E042E1BE01C7010E9475
:10174000420482E0C80ED11C560104E041E0BE0113
:10175000C5010E94FB03015084E0A80EB11C0111D9
:10176000F5CF01E024E0412FBE01C7010E944204F1
:10177000133040F04EEF410F00E021E0BE01C60102
:101780000E944204DF91CF911F910F91FF90EF9043
:10179000DF90CF90BF90AF900895BF92CF92DF922D
:1017A000EF92FF920F931F93CF93DF93B42E122FDC
:1017B000C62F660FDD0BC82E880FDD08E12C03E075
:1017C000BE01C6010E94060B2EEF210F4EEF4B0DFE
:1017D000BE016F5F7F4FEE24E39402E0C6010196E5
:1017E0000E94060B1450760183E0E80EF11C4AEFCC
:1017F0004B0DBE016E5F7F4F00E0212FC7010E949D
:101800004204812F8350990B8C0123968CEF8B0D12
:10181000980141E0BE018C0D9D2D911D0E94640434
:10182000980142E0BE01C701DF91CF911F910F9156
:10183000FF90EF90DF90CF90BF900C9464048823CA
:1018400081F0813039F0823039F0833039F08430E2
:1018500039F0089587E0089580E108958BE10895B7
:1018600086E20895882349F0813049F0823049F0BA
:10187000833049F0843049F0089586E0089588E087
:1018800008958AE008958BE008958DE008958823F7
:1018900049F0813049F09EEF980F923038F0843053
:1018A00039F0089586E0089588E008958AE0089563
:1018B0008CE008950F931F93CF93C82F0E94CC08FC
:1018C0000091EB021091EC022091ED023091EE02BA
:1018D0006017710782079307D0F08C2FCC0F990BFC
:1018E000079667E070E00E942C3280935D080E94AA
:1018F0009C050E94CC0868537F4F8F4F9F4F609389
:10190000EB027093EC028093ED029093EE02CF9184
:101910001F910F9108950F93FC018481958168E7D1
:1019200075E00E94183241E0460F618170E088E066
:1019300090E0841B9109308100E021E0830F911D2C
:101940000E9442040F910895EF92FF920F931F930C
:10195000CF93DF93C82FE62E142F6091F20270917F
:10196000F3028091F4029091F50223E030E040E030
:1019700050E00E940130672B682B692B01F5F12C98
:10198000D0E0B7016F5F7F4F40E0CE010E94FB03C4
:10199000B7016150710940E0CE010E94FB0322971C
:1019A000812F90E09C01220F331F820F931F00E0D4
:1019B00021E042E0B7018C0F9D1F0E944204DF919D
:1019C000CF911F910F91FF90EF900895EF920F9399
:1019D000342FE22E01E0423008F400E091E0900F55
:1019E000292F220F432F440F70E06E5F7F4F601B43
:1019F000710990E00496831B91090E94060B0F91D8
:101A0000EF9008952F923F924F925F926F927F9244
:101A10008F929F92AF92BF92CF92DF92EF92FF92FE
:101A20000F931F93CF93DF93CDB7DEB72D970FB6EC
:101A3000F894DEBF0FBECDBFF801EC0DFD1DFA839B
:101A4000E983EC15FD050CF477C08D8647015C87B2
:101A50004B871B01295F3F4FA90123E0559547950F
:101A60002A95E1F75C834B83712C612CF12CE12CDE
:101A70005EEF5A0D5D839B0121503109F901E80D9C
:101A8000F91DFA87E987E894A1F8AE825C01AC18E9
:101A9000BD0801978C0D9D1D9C01200F311F3887BB
:101AA0002F833D8121014E0C5F1C323020F449848C
:101AB0005A844E185F08860149815A8140175107A0
:101AC00081F1F80117FD379683E0F595E7958A9542
:101AD000E1F7E60DF71D8B859C85E80FF91FE49172
:101AE000C8018770992720E830E002C03595279516
:101AF0008A95E2F7C901F0E0E223F923EF2B71F4B4
:101B00003E81C501800F911F313021F48F8198856E
:101B1000801B910B4D85B2010E94FB030F5F1F4F8D
:101B2000CBCF4FEFE41AF40A8B819C81680E791EAB
:101B30008E149F0409F0B5CF2D960FB6F894DEBF32
:101B40000FBECDBFDF91CF911F910F91FF90EF900E
:101B5000DF90CF90BF90AF909F908F907F906F90CD
:101B60005F904F903F902F9008954F925F926F92A9
:101B70007F928F929F92AF92CF92DF92EF92FF92DD
:101B80000F931F93CF93DF93C8EFD2E035E0432E3E
:101B9000512C612C712C8C81882309F493C09A817B
:101BA000923008F051C02B818881322F330F911170
:101BB00049C0831BAA24A394A92694E029026001AA
:101BC000112469816250770B912C812C23E0E22E45
:101BD000F12C04E010E020E130E04DE757E090E028
:101BE0000E94020D8091F60280FD6CC0C090F2024E
:101BF000D090F302E090F402F090F502C701B60134
:101C000023E030E040E050E00E94013061157105B2
:101C10008105910539F420910C01211103C028811F
:101C2000215028832A812230D8F5672B682B692B15
:101C300009F048C08B818F5F8B83843009F042C0EC
:101C40001C8240C0830FB6CF923061F68B8194E046
:101C500089026001112469816250770B8881912C7F
:101C6000812CAA24A3949AE0E92EF12C04E010E040
:101C700020E230E045E557E090E00E94020D8B81C4
:101C800094E089026001112469816250770B888198
:101C9000A12C20E230E045E557E08350990BA0CF1E
:101CA000223081F4C701B601A30192010E940130E4
:101CB000672B682B692B31F48B818F5F8B83883086
:101CC00009F4BECF259683E0C834D80709F063CF66
:101CD000DF91CF911F910F91FF90EF90DF90CF9008
:101CE000AF909F908F907F906F905F904F900895EE
:101CF0003F924F925F926F927F928F929F92AF929C
:101D0000BF92CF92DF92EF92FF920F931F93CF93E8
:101D1000DF93382EC62FD42F0E94E50983FD0CC017
:101D20000E94E509A12C81FF0DC00E94E509A82EA3
:101D3000AA1CAA24AA1C06C00E94E509AA24A394EE
:101D400087FDEECF0E94E50981FD0CC00E94E509E8
:101D5000B12C83FF0DC00E94E509B82EBB1CBB242B
:101D6000BB1C06C00E94E509BB24B39487FDEECFDF
:101D70006091F2027091F3028091F4029091F50269
:101D800025E030E040E050E00E9401302B013C01B2
:101D90008D2F0E941F0CC82E8D2F0E94470CD82F0C
:101DA000D12C082F10E06C2F70E06C5F7F4F832DDB
:101DB00090E0A11003C0BB2009F44EC0912C812CEF
:101DC00035E0E32EF12C23E330E044E257E04528F0
:101DD0004628472811F041E057E00E94020D80910B
:101DE0006008882309F449C0CC5FBC0ECB2CD12CF1
:101DF00056018FEFA81AB80AD30DCD2FD0E040E0DE
:101E0000B501CE010E94FB0300E022E041E0B501F4
:101E1000CE0101960E94420424E041E0B601CE01C9
:101E200002960E944204B6016D5F7F4F40E0CE01F2
:101E30000396DF91CF911F910F91FF90EF90DF906C
:101E4000CF90BF90AF909F908F907F906F905F905A
:101E50004F903F900C94FB03AA24A3944528462856
:101E6000472809F0A12C912C812C25E0E22EF12CA1
:101E700023E330E04EED56E0B0CFDF91CF911F91DC
:101E80000F91FF90EF90DF90CF90BF90AF909F9019
:101E90008F907F906F905F904F903F9008952F921A
:101EA0003F924F925F926F927F928F929F92AF92EA
:101EB000BF92CF92DF92EF92FF920F931F93CF9337
:101EC000DF9300D000D000D0CDB7DEB78091E80717
:101ED0009091E9079C0194E0369527959A95E1F752
:101EE0008F7009E0B02E11F418E0B12E1E821D8211
:101EF000A90155275A834983F6E12F2EF5E03F2E9D
:101F0000A6E56A2EA5E07A2EB6E74B2EB5E05B2E4D
:101F1000E82FF0E0FC83EB8389819A812D813E815B
:101F2000820F931F69E370E00E942C321092E50744
:101F3000811148C01092E7071092E6074091E6072A
:101F40005091E70741155105E1F0912C812CA090AB
:101F5000E507D12CC12C80E1E82EF12C00E110E046
:101F600020E130E070E060E08D819E81E4E0880F48
:101F7000991FEA95E1F7EB81FC818E1B9F0B0E9474
:101F8000020D2D813E812F5F3F4F3E832D832B1508
:101F900018F226960FB6F894DEBF0FBECDBFDF91C4
:101FA000CF911F910F91FF90EF90DF90CF90BF9056
:101FB000AF909F908F907F906F905F904F903F90E9
:101FC0002F900895813019F486E996E009C0823097
:101FD00019F486E796E012C0833039F486E596E07E
:101FE0009093E7078093E607A9CF843019F486E33E
:101FF00096E0F6CF853051F486E196E09093E707BE
:102000008093E60781E08093E50798CF863009F456
:1020100091CF46EF55E0873009F44EC0883019F46F
:1020200086ED95E0DDCF893019F486EB95E0D8CFC9
:102030008A3019F486E196E0D3CF8B3019F486E329
:1020400096E0DCCF8C3019F486E596E0D7CF8D3062
:1020500019F486E995E0C4CF8E3019F486E996E04C
:10206000CDCF8F3029F45092E7074092E60766CF34
:10207000803109F45FCF813129F47092E7076092D3
:10208000E6075CCF823119F486E395E0A9CF83316E
:1020900029F43092E7072092E60750CFE6E3F5E017
:1020A000843109F470C026EF34E0853109F4A1C011
:1020B000863139F446ED54E05093E7074093E60744
:1020C0003DCF873119F486EB94E08ACF883129F42B
:1020D0003092E7072092E60795CFE6EBF4E08931EE
:1020E00009F451C08A3129F47092E7076092E6073B
:1020F00089CF8B3109F41ECF8C3129F45092E70738
:102100004092E6077FCF8D3109F494CF8E3109F4E8
:1021100096CF8F3109F4A2CF26E934E08032E1F185
:1021200046E754E0813209F44FC0823219F486EB5D
:1021300095E064CF833209F4FDCE843209F444CFB4
:10214000853219F486E995E059CF863209F486CFB5
:10215000873209F465CF883209F46CCF893209F4EB
:1021600038CF8A3209F443CF8B3209F477CF8C32DF
:1021700019F486E994E042CF8D3209F4DBCE8E3239
:1021800039F4E6EFF5E0F093E707E093E6073ACF9E
:102190008F3239F426E734E03093E7072093E607DF
:1021A000CDCE803309F45FCF813309F4C3CE8233BF
:1021B00009F49ACF833309F48BCF843309F4BACE70
:1021C000853339F446ED54E05093E7074093E60732
:1021D00019CF863319F486EF94E010CF26EB34E064
:1021E000873339F4E6E3F5E0F093E707E093E60799
:1021F000A5CE3093E7072093E60704CF8F929F92F6
:10220000AF92CF92DF92EF92FF920F931F93CF93F3
:10221000DF93D62F142FC22F8150823008F4D15073
:10222000802F0E941F0CC82E802F0E94320C4CE47D
:1022300051E0CC2371F046EB56E0C13051F040E361
:1022400051E0C23031F048EF50E0C33011F444E1C6
:1022500051E08E2C912CD12C90E0612F70E0A12CBC
:1022600024E0E22EF12C8C0123E330E08D2F90E06E
:102270000E94020DDF91CF911F910F91FF90EF907F
:10228000DF90CF90AF909F908F9008952F923F92C4
:102290004F925F926F927F928F929F92AF92BF9276
:1022A000CF92DF92EF92FF920F931F93CF93DF9322
:1022B00000D000D0CDB7DEB780914D08882319F04B
:1022C000815080934D0880914D088F3108F098C35C
:1022D000882321F08091F20280FD92C310915A0868
:1022E000212F012E000C330B215C374F3A832983B9
:1022F0006091430870914408809145089091460888
:102300000E94AB30F62E60913F087091400880919A
:102310004108909142080E94AB30E12CE981FA819A
:102320000189212F4F2D80915E080E94FE1080911F
:102330005A088111CFC000915E08002309F499C0AA
:10234000F0915008F98320E030E040E050E46091E3
:1023500043087091440880914508909146080E9476
:1023600032306B017C012981412C512C3201223009
:1023700030F4412C512CF0E86F2EFFE37F2E80903B
:102380003F0890904008A0904108B0904208898191
:102390000E94320C182FA3019201C701B6010E94BE
:1023A00033300E94AB30862F90E09A838983612F6F
:1023B00070E090E080E00E94DC30A50194010E9472
:1023C00033304B015C01602F002E000C770B880B23
:1023D000990B0E94DC309B01AC01C501B4010E9445
:1023E00033300E94AB30662E712CC02E000FDD08FA
:1023F00091E0C91AD108C601880F991FC80ED91ECD
:10240000912C812CA12C44E0E42EF12C03E010E06F
:1024100028E130E042ED56E069817A81C3010E94F3
:10242000020DC0905E080C2C000CDD08E1E0CE1A15
:10243000D108C601880F991FC80ED91E69817A81FB
:102440006D5F7F4FE2E0AE2E28E130E042ED56E0D6
:10245000C3010E94020D8091F20280FD0AC08091AA
:102460005E08883024F48F5F80935E0802C010926B
:102470005E086091430870914408809145089091EE
:1024800046080E94AB30698360913F087091400814
:1024900080914108909142080E94AB30862F409174
:1024A0004E0869810F900F900F900F90DF91CF91A0
:1024B0001F910F91FF90EF90DF90CF90BF90AF9062
:1024C0009F908F907F906F905F904F903F902F9054
:1024D0000C94780E40903F0850904008609041085E
:1024E000709042088090430890904408A09045085E
:1024F000B0904608813009F05DC080914B088F3F55
:1025000009F4B7CF109151082FEF30E0281B3109A3
:1025100096E0359527959A95E1F73A832983812F9F
:102520000E941F0CC82E812F0E94320C182FC5014B
:10253000B4010E94A4304B01C301B2010E94A43037
:10254000CB0101E024E0412FB4010E944204D12CD0
:1025500024E0E22EF12C89819A81E81AF90A012FF0
:1025600010E0BC01990F880B990B0E94DC30209180
:1025700043083091440840914508509146080E9414
:1025800033300E94A4302B0160913F0870914008C5
:1025900080914108909142080E94A430CB01912C77
:1025A000812CA12C23E330E046EB56E0B2010E94DF
:1025B000020D5FCF833009F03DC180915E0880FF3E
:1025C00014C0C501B4010E94A4306B0120E030E0CA
:1025D00040E850E4C301B2010E9433300E94A430AD
:1025E000CB0140E0B6010E94FB0380915E0881FFB1
:1025F00026C020E030E040E85FE36091430870913E
:10260000440880914508909146080E9432300E940B
:10261000A4306B0120E030E040E450E460913F08DA
:102620007091400880914108909142080E94333097
:102630000E94A430CB0140E0B6010E94FB038091D0
:102640005E0882FF26C020E030E040E050E4609168
:1026500043087091440880914508909146080E9473
:1026600032300E94A4306B0120E030E040E85FE3AC
:1026700060913F0870914008809141089091420814
:102680000E9433300E94A430CB0140E0B6010E948A
:10269000FB0380915E0883FF26C020E030E040E825
:1026A0005FE36091430870914408809145089091E0
:1026B00046080E9432300E94A4306B0120E030E0D6
:1026C00040E85FE360913F087091400880914108C5
:1026D000909142080E9432300E94A430CB0140E029
:1026E000B6010E94FB0380915E0884FF20C06091C8
:1026F00043087091440880914508909146080E94D3
:10270000A4306B0120E030E040E050E460913F08ED
:102710007091400880914108909142080E943230A7
:102720000E94A430CB0140E0B6010E94FB038091DF
:102730005E0885FF26C020E030E040E85FE360915E
:1027400043087091440880914508909146080E9482
:1027500033300E94A4306B0120E030E040E450E4CC
:1027600060913F0870914008809141089091420823
:102770000E9432300E94A430CB0140E0B6010E949A
:10278000FB0380915E0886FF26C020E030E040E435
:1027900050E46091430870914408809145089091FD
:1027A00046080E9433300E94A4306B0120E030E0E4
:1027B00040E850E460913F087091400880914108E2
:1027C000909142080E9432300E94A430CB0140E038
:1027D000B6010E94FB0380915E0887FF26C020E0BF
:1027E00030E040EC50E460914308709144088091DF
:1027F0004508909146080E9433300E94A4306B0136
:1028000020E030E040EA50E460913F0870914008D9
:1028100080914108909142080E9432300E94A43079
:10282000CB0140E0B6010E94FB0380915E08880F57
:10283000990B1ACE823009F01CCE20914B082F3F05
:1028400009F417CE9091F202917099838FEF90E086
:10285000821B910962E370E00E942C32E981E60F4D
:10286000E983809152080E94320C3981232F30E095
:102870003C832B83682F70E090E080E00E94DC3086
:10288000A30192010E94333020E030E040E85FE392
:102890000E9433306B017C01EB81FC81BF01FF0F93
:1028A000880B990B0E94DC309B01AC01C701B6017B
:1028B0000E9433300E94AB30062F20E030E040E829
:1028C0005FE3C501B4010E9433300E94A4302B01A4
:1028D0005B0110E081E090E06C012B813C81C21A29
:1028E000D30A1901319421943108220C331CB90107
:1028F000640D751D40E0C8010E94FB03B2018B818D
:102900009C81681B790B40E0C8010E94FB0340E0FA
:10291000B2018B819C81800F911F0E94FB0340E0DC
:10292000B201C801EB81FC818E1B9F0B0E94FB034F
:10293000F12CE12C21E030E03A8329838B819C81CA
:10294000E816F9060CF095CDD7FC08C001979C83DA
:102950008B8392E0290E311CC20CD31CEFEFEE1AD0
:10296000FE0A29813A812E5F3F4F3A832983C20EA6
:10297000D31E3701600E711E40E08B809C808A0C54
:102980009B1CB401C3010E94FB0328014E185F0881
:1029900040E0B401C2010E94FB0340E045018B818D
:1029A0009C81881A990AB401C3010E94FB0340E08C
:1029B000B401C2010E94FB0345018E0C9F1C40E044
:1029C000B4016B807C80600E711EC3010E94FB030A
:1029D00040E0B4012801EB81FC814E1A5F0AC2017C
:1029E0000E94FB0345018E189F0840E0B401C3011B
:1029F0000E94FB0340E0B401C2010E94FB039ECF92
:102A00000F900F900F900F90DF91CF911F910F912A
:102A1000FF90EF90DF90CF90BF90AF909F908F90FE
:102A20007F906F905F904F903F902F9008958F927E
:102A30009F92AF92CF92DF92EF92FF920F931F93EC
:102A4000FC019381937028E0929F60011124918191
:102A5000292F260F3327331FB9018081912C812C18
:102A6000A12C92E0E92EF12C08E010E020E230E009
:102A70004AEC50E090E00E94020D1F910F91FF90F0
:102A8000EF90DF90CF90AF909F908F9008952F920E
:102A90003F924F925F926F927F928F929F92AF92EE
:102AA000BF92CF92DF92EF92FF920F931F93CF933B
:102AB000DF93C1E04A3051057CF0C2E04436510555
:102AC0005CF0C3E0483E93E0590734F0C5E0403184
:102AD00097E259070CF4C4E0DC2FDD0FDD0FDC0FAB
:102AE0008550D80FB12C3AE0432E512C662E660F3C
:102AF0007708CA01B2010E942C321B016C01DD244F
:102B0000CC0CDD1CCC0CDD1C88248394912CA12CD6
:102B100026E0E22EF12C04E010E028E230E04CEA5E
:102B200050E0B3018D2F0D2E000C990B0E94020D69
:102B3000A101D550B394CB11DCCF8C2FDF91CF9175
:102B40001F910F91FF90EF90DF90CF90BF90AF90CB
:102B50009F908F907F906F905F904F903F902F90BD
:102B60000895CF93DF93C82FD62F0E94A92F64E634
:102B700070E00E942C328D3320F5823028F18530B0
:102B800028F1893028F18B3028F18B3029F18131FF
:102B900028F1843128F181E0E8E4F3E030E020E03E
:102BA000948191111FC096E0929FF001939FF00DC8
:102BB0001124E85BFC4F91E09483C083D18383832D
:102BC0001282DF91CF91089580E0E6CF83E0E4CFD9
:102BD00085E0E2CF86E0E0CF87E0DECF84E0DCCFA7
:102BE00082E0DACF2F5F3F4F369628303105C1F6AD
:102BF000E8CFCF93DF93EC011D821C828AEF8B8399
:102C00008A81863059F46981625088810E94B115A9
:102C100069816150888142E08C5F12C08530A1F4E7
:102C2000888140E0698182500E94A709888141E043
:102C300069818E5F0E94A7096981645042E08881A2
:102C4000DF91CF910C94A709843021F4888142E070
:102C50006981E2CFDF91CF9108958F929F92AF92D9
:102C6000BF92CF92DF92EF92FF92CF9360914F0885
:102C700070E090E080E00E94DA302DEC3CEC4CEC0F
:102C80005DE30E94913120E030E040E85FE30E9484
:102C900033306B017C0180915A08813009F057C0B4
:102CA00080914B08893C08F452C02DEC3CEC4CE47C
:102CB0005EE3C701B6010E9433306B017C010E94C4
:102CC000E50986FF44C020E030E040E85FE3609122
:102CD00043087091440880914508909146080E94ED
:102CE00033300E94AB30C62F20E030E040E85FE395
:102CF00060913F087091400880914108909142088E
:102D00000E9433304B015C016091F2027091F3023A
:102D10008091F4029091F502609570958095909560
:102D20006170772788279927072E000C880B990B4D
:102D30000E94DC309B01AC01C501B4010E9432301D
:102D40000E94AB30862F40E06C2F0E94A40C809133
:102D50005A08843051F42AE939E949E95EE3C701A8
:102D6000B6010E9432306B017C010E94E50981FFAF
:102D700014C0A701960160914308709144088091A6
:102D80004508909146080E94333060934308709341
:102D9000440880934508909346080E94E50983FF04
:102DA00014C0A70196016091430870914408809176
:102DB0004508909146080E94323060934308709312
:102DC000440880934508909346080E94E50986FFD1
:102DD00014C0A701960160913F087091400880914E
:102DE0004108909142080E94333060933F087093ED
:102DF000400880934108909342080E94E50987FFAC
:102E000014C0A701960160913F087091400880911D
:102E10004108909142080E94323060933F087093BD
:102E20004008809341089093420820E030E0A901D7
:102E300060913F087091400880914108909142084C
:102E40000E949F3087FF08C010923F0810924008F0
:102E5000109241081092420820E030E042EF52E424
:102E600060913F087091400880914108909142081C
:102E70000E948C31181664F480E090E0A2EFB2E476
:102E800080933F0890934008A0934108B093420874
:102E900020E030E040E451E4609143087091440840
:102EA00080914508909146080E949F3087FF0CC092
:102EB00080E090E0A0E4B1E480934308909344085C
:102EC000A0934508B093460820E030E040E652E485
:102ED000609143087091440880914508909146089C
:102EE0000E948C31181664F480E090E0A0E6B2E411
:102EF0008093430890934408A0934508B0934608F4
:102F00008091670880FD18C08091660880FF14C01A
:102F10000E94E50984FF10C080914C08882361F06D
:102F20009AE0899F802D112490915A08913009F1DF
:102F30008093E90210924C0880915A08823009F07F
:102F400077C00E94E50990914B0884FF14C08091DE
:102F500052088B5F981718F0981B90934B08CF91ED
:102F6000FF90EF90DF90CF90BF90AF909F908F90A9
:102F70000895865FDDCF9F3F91F3EE24EA94F12C14
:102F8000E91AF108F594E7948AEE90E00E9494091A
:102F900020E030E040E050E4609143087091440844
:102FA00080914508909146080E9433300E94AB30D2
:102FB000C62F80903F0890904008A0904108B090A4
:102FC0004208E0915A080E2E000CFF0BE15CF74F0F
:102FD00081890E94320C682F70E090E080E00E94AE
:102FE000DC30A50194010E9433300E94AB30E9E649
:102FF000F1E090E080E02581222349F001963696A9
:1030000080349105C1F78FEF80934B08A8CF26E05D
:10301000289FF001299FF00D1124E759FE4F81E010
:1030200085836083C18392E09283E3828483EBCFC4
:103030000E94E50984FF93CFC0915A08C1114FC087
:1030400080914B08803A08F48ACF83E897E00E9489
:10305000940980914B08805A80934B0881E08093BB
:103060005E08F0905A0820E030E040E050E46091C3
:1030700043087091440880914508909146080E9449
:1030800033300E94AB30E62E80903F08909040088D
:10309000A0904108B0904208EF2D0F2C000CFF0BC0
:1030A000E15CF74F81890E94320C682F70E090E05C
:1030B00080E00E94DC30A50194010E9433300E9420
:1030C000AB30E9E6F1E090E080E02581222309F4CD
:1030D00053C00196369680349105B9F740CFC13080
:1030E00069F480914B088F3F09F039CF83E897E06E
:1030F0000E94940910924B08C0E0B3CFC33059F539
:1031000080915E08837009F02ACFC0914B080E941D
:10311000A92F40914B0820E931E0241B310953E0ED
:10312000359527955A95E1F72C5E421708F417CF8D
:10313000C695C695C69568E070E00E942C32C80F0F
:10314000421B40934B0884EE90E00E9494098091CA
:103150005E08816084CFC43079F680914B08843159
:1031600008F4FDCE82ED90E00E94940980914B0816
:10317000845180934B08C0CF26E0289FF001299FFF
:10318000F00D1124E759FE4F81E085836083E182D1
:10319000F282C3838483E3CECF93DF93C82FD62FED
:1031A0000E94DE0988EC90E00E94E0095E9882E0CF
:1031B00090E00E94B92FD81729F06D2F82E090E09F
:1031C0000E94C12F84EF91E00E94E0090E94DE0975
:1031D0000E94E5098C23C817D9F3DF91CF91089598
:1031E0001F920F920FB60F9211248F939F9380918D
:1031F000E1009091E100937F9093E10083FF0FC085
:103200001092E90091E09093EB001092EC0092E3B1
:103210009093ED001092680198E09093F00082FF87
:1032200022C093E09093E9009091F200992319F065
:103230009AE39093E80090914F01992341F0909187
:103240004F01915090934F01911101C05D9A90915F
:103250006701992341F09091670191509093670124
:10326000911101C0289A84FF18C08091E2008E7EDF
:1032700081608093E2008091E1008F7E8093E10085
:10328000809150018E7E8061809350019F918F913B
:103290000F900FBE0F901F90189580FFF7CF809171
:1032A000E2008E7E80618093E2008091E1008E7E5C
:1032B0008093E100809150018E7E8160E5CF1F9266
:1032C0000F920FB60F921124CF92DF92EF92FF92DE
:1032D0000F931F932F933F934F935F936F937F931E
:1032E0008F939F93AF93BF93EF93FF93CF93DF930E
:1032F000CDB7DEB76C97DEBFCDBF1092E9008091ED
:10330000E80083FF25C068E0CE0145960E94610772
:1033100082EF8093E8008D8987FF39C09091E800A3
:1033200090FFFCCF982F907609F034C19E894F8989
:10333000588D2F89F88C911131C0803861F58091BA
:1033400051018093F1001092F1008EEF8093E8001C
:103350006C960FB6F894DEBF0FBECDBFDF91CF9154
:10336000FF91EF91BF91AF919F918F917F916F915D
:103370005F914F913F912F911F910F91FF90EF908F
:10338000DF90CF900F900FBE0F901F9018959EEF7B
:103390009093E800C7CF1092F100D5CF913059F447
:1033A0008111D3CF4130510581F6809151018D7F3C
:1033B00080935101CACF933049F48111C6CF413077
:1033C000510519F6809151018260F2CF953041F498
:1033D0008091E80080FFFCCF20682093E300B5CF08
:1033E000963009F0A9C00B8D1C8D22E01092E900E7
:1033F00010924D0110924C01F2122EC010924B010E
:1034000010924A010E9430071F8299E09983FA8244
:1034100091E09E8390EA98879AEF998720914C01DA
:1034200030914D01275F3F4F3C832B838D8310925A
:10343000E90010924D0110924C0110934B01009342
:103440004A0149E050E0BE016F5F7F4F80E00E947B
:103450000A070E94300779CF10934B0100934A016D
:103460000E94C706DC0112960D911C9101151105F1
:1034700009F451C1D801ED91FC910480F581E02D52
:10348000BE016B5E7F4FC8010995009709F03EC1F0
:10349000F80100851185EACFF3E0FF120EC08F8995
:1034A000882309F440C0823061F440E867E08CEC86
:1034B00091E00E943C1C811148CF81E28093EB0097
:1034C00047CF813029F440E86BE080EC91E0F1CF08
:1034D000833099F70E94C706DC011296ED90FC90AC
:1034E0008E010F5F1F4F6801E114F10479F0D701DD
:1034F000ED91FC910680F781E02DB801C701099597
:10350000080F111DF701E084F184EECFD8011C9261
:10351000F60101900020E9F73197BF016C197D0990
:1035200040E0C601C6CF6AEA71E0FB01449150E079
:1035300080E80E940A0709CF973009F4BECF98307F
:1035400021F481E08093F10000CF993009F0FDCEA5
:10355000837009F0B2CFE7E1F1E081E031E096E37A
:103560002191222371F08093E9003093EB00DF0179
:1035700011972C912093EC009093ED008F5F873092
:1035800079F78EE78093EA001092EA008F898093A2
:103590006801DBCE8B8D9C8D1092E90010924D015D
:1035A00010924C0190934B0180934A01898D8111B7
:1035B00092C08E899D89913A49F4813209F07DCF7C
:1035C00047E050E064E071E080E0B3CF913209F071
:1035D00074CF833269F48F89988DB0E0A0E0809336
:1035E000000190930101A0930201B0930301ADCEBD
:1035F000803269F48091E80082FFFCCF67E084E0CC
:1036000091E00E9461078BEF8093E8009ECE8232AA
:1036100009F09BCE8F8980930B01EEEFFFE7859138
:1036200094918B3F9C4D51F1E0E0F8E080910401D2
:1036300090910501A0910601B0910701803B944053
:10364000A105B105F1F480910B0180FD1AC0EE3F98
:103650008AE0F80789F587E797E79183808380916F
:10366000600080934E0188E19BE00FB6F894A89526
:10367000809360000FBE9093600067CEEEEFFAE09B
:10368000D5CF808191818737974709F05ECEA89585
:103690008091600088618093600080914E018093EA
:1036A0006000EE3F2AE0F20789F08091FE0A9091D7
:1036B000FF0A9183808349CE808191818737980763
:1036C00051F29093FF0A8093FE0AC5CF1092FF0A31
:1036D0001092FE0A3ACE0E94C706DC0112960D91A6
:1036E0001C910115110509F4E8CED801ED91FC916A
:1036F0000190F081E02DBE016B5E7F4FC8010995FE
:10370000811123CEF80100851185EBCF181619061B
:103710000CF41BCED2CEF1E0FF12BECE6EEA71E009
:1037200004CF1F920F920FB60F9211242F933F9345
:103730008F939F93AF93BF938091420190914301E8
:10374000A0914401B09145013091410123E0230F44
:103750002D3758F50196A11DB11D2093410180938D
:10376000420190934301A0934401B093450180919D
:10377000460190914701A0914801B09149010196FD
:10378000A11DB11D8093460190934701A09348016C
:10379000B0934901BF91AF919F918F913F912F912C
:1037A0000F900FBE0F901F90189526E8230F0296DA
:1037B000A11DB11DD2CF1F920F920FB60F921124EF
:1037C0002F933F934F935F936F937F938F939F9329
:1037D000AF93BF93EF93FF9380913D0190913E0192
:1037E000A0913F01B0914001892B8A2B8B2B09F4CA
:1037F00040C080913C0181110BC088B190E48927C1
:1038000088B980913B01882319F088B1805888B924
:1038100080913D0190913E01A0913F01B091400106
:10382000181619061A061B069CF480913D0190910A
:103830003E01A0913F01B09140010197A109B1095A
:1038400080933D0190933E01A0933F01B0934001CE
:10385000FF91EF91BF91AF919F918F917F916F9168
:103860005F914F913F912F910F900FBE0F901F903E
:1038700018950E94EC08ECCFEF92FF920F931F93E4
:10388000CF93DF93F82E192FE62E042F81E0860FB9
:10389000880F0E94DC0683E00E94DC06CF2DD12F2A
:1038A000EC0EFD2EF11CCE15DF05B9F007FF13C09D
:1038B000FE0184910E94DC06182F80E00E94DC0645
:1038C000812321968111EFCFDF91CF911F910F912D
:1038D000FF90EF9008958881EDCF81E0F5CF1092B1
:1038E0007B0710927A0788EE93E0A0E0B0E0809327
:1038F0007C0790937D07A0937E07B0937F0781E2BA
:1039000091E090937907809378078FEF9FEF9093E2
:1039100085078093840723E331E030936208209386
:103920006108109266081092670820E120936808E9
:10393000909365088093640810926D0810926E0849
:1039400010926F08109270081092710888EF93E03F
:103950009093D7078093D60780E090E89093D5079F
:103960008093D40746983E9A47983F9A10924E0803
:1039700010924F0885E0E0E5F8E0DF01982F1D92F6
:103980009A95E9F7E1E1F1E0A5E5B8E001900D9243
:103990008A95E1F710925A0881E080935B0882E0F3
:1039A00080935C0810925D0810925E0810925F0888
:1039B00010926008EBEEF7E016823796A8E0EF333E
:1039C000FA07D1F71092E9071092E8071092EA0778
:1039D00081E090E09093E4078093E3070895CF930C
:1039E000DF93CDB7DEB728970FB6F894DEBF0FBED2
:1039F000CDBF789484B5826084BD84B5816084BD78
:103A000085B5826085BD85B5816085BD80916E007C
:103A1000816080936E0010928100809181008260AD
:103A200080938100809181008160809381008091EA
:103A300080008160809380008091910082608093FB
:103A4000910080919100816080939100809190001D
:103A50008160809390008091C10084608093C10058
:103A60008091C10082608093C1008091C10081601B
:103A70008093C1008091C30081608093C3008091D6
:103A8000C00082608093C0008091C20081608093FA
:103A9000C20080917A00846080937A0080917A00DD
:103AA000826080937A0080917A00816080937A00AE
:103AB00080917A00806880937A0010926801109259
:103AC0005101109250018091D70081608093D700FE
:103AD00080EA8093D80089B5806189BD89B582600C
:103AE00089BD09B400FEFDCF61E070E080E090E0A8
:103AF0000E9414088091D8008F7C80618093D80048
:103B00008091E000807F8093E0008091E1008E7ED4
:103B10008093E1008DE08093E200559A209A68E856
:103B200073E180E090E00E9414088FEF9FEF909384
:103B300085078093840721E932E03D832C83EC8163
:103B4000FD816491662361F088E797E00E946E072B
:103B50002C813D812F5F3F4F3D832C83892B79F74B
:103B600042E050E065E371E088E797E00E94470893
:103B700081EC80937C0085B1886485B9239884B1F9
:103B8000866484B9589A899880B3836180BB8F9A80
:103B900085B1806D85B98BB188618BB9879A84B105
:103BA0008F6284B98AB1876E8AB92D9A84B18F6D7C
:103BB00084B98EB18F6B8EB98DB18F6B8DB9259A0B
:103BC000259A80E58CBD81E08DBD85E090E00E9466
:103BD000E009899A85E090E00E94E00988988C9835
:103BE00044E852E05D834C83EC81FD8184910E9426
:103BF000B40A2C813D812F5F3F4F3D832C83215997
:103C0000324091F78C9A81E88093640081E0809340
:103C1000650080E094E09D838C8380E00E94B40A7C
:103C2000AC81BD811197BD83AC83AB2BB1F70E94F2
:103C3000E50983FF10C08C9885EA0E94B40A8C9A2B
:103C40005E985E985E9880916400806280936400C4
:103C50000E94A90AFDCF0E94E50980FF16C05E9868
:103C60000E94E5098970893019F46FEF0E94CC1821
:103C70000E94E5098370833019F460E00E94CC183B
:103C800088EC90E00E94E009E6CF0E94DE0982E025
:103C900090E00E94B92F882309F46DC00E94BF0AEA
:103CA0005E987EEE472E55245A940CE610E0E8E02C
:103CB000EE2EF12C0E94E50986FF60C05E9A5E9AA6
:103CC0000E94DE0982E390E00E94E0090E94E5097B
:103CD0008111F8CF81E280936808809171008D7F17
:103CE000809371001092560188EC97E090935501F3
:103CF00080935401909353018093520188EC90E09B
:103D00009093C9078093C8079093CB078093CA0705
:103D10002CE231E03093CD072093CC079093CF076E
:103D20008093CE0780E090E89093D1078093D007EE
:103D30000E94EC0881E00E946D06E8EDF7E0119228
:103D400047E0E33EF407D9F70E94B9050E94CC088A
:103D500020917108222309F4B4C020916908621BE4
:103D6000609372081092710880E090E0892B71F3E3
:103D70000E940000EBCF0E94BA0A92CFBCEF4B1614
:103D8000BFEF5B0621F40E94DE095E9804C0E8E103
:103D90004E165104C1F380E00E946D06F0EF4F16FD
:103DA000FFEF5F060CF46FC0920157FE04C022279C
:103DB00033272419350927703327C20157FC07968A
:103DC00063E0959587956A95E1F757FE05C00197E1
:103DD000A701421B530B9A01BC017695762F6627EB
:103DE0007795679568587C4FB0E0A0E03701621A7C
:103DF000730A8F3F5FEF95070CF43CC048E550E035
:103E0000FD01E45DFD4F5F014B01F0E88F0E911C59
:103E10008F3F9807A1F0F501E41BF50BE4916801D1
:103E2000C41AD50AC60ED71EF0E01F01022E01C02B
:103E3000220C0A94EAF7F60130802328208221150B
:103E40003105A9F0F501E41BF50BE4916801C41AF2
:103E5000D50AC80CD91CF0E01F01062C02C035940D
:103E600027940A94E2F7F6013080232820824150FB
:103E7000510971F60196A85ABF4F60587F4FA03B79
:103E8000B10509F0B6CF0E9479068BE190E00E945F
:103E9000E009F0EF4F16FFEF5F0621F48AEF90E0A4
:103EA0000E94E0092FEF421A520A39E143165104E9
:103EB00009F000CF8CEB92E00E94E0090E94DE093D
:103EC00001CF00916D0810916E0820916F0830911C
:103ED0007008601771078207930738F4061B0230D9
:103EE00008F442CF0E94A90A3FCF21E02093710835
:103EF0006093690870936A0880936B0890936C08CC
:103F000020916808620F711D811D911D60936D08DD
:103F100070936E0880936F08909370088091640886
:103F2000909165080196909365088093640880914C
:103F30006608809367080E94E5098093660881E01F
:103F40000E946D0680910C0190916708882309F406
:103F5000ADC090FDA6C08091660880FFA2C01092FF
:103F60000C010E94B9050E94CC0860577E4F8F4F0C
:103F70009F4F6093EB027093EC028093ED0290935D
:103F8000EE020E944F0F0E94B50D81E090E09D83EC
:103F90008C83812C912C30E4A32E32E4B32E40E8A4
:103FA000E42EF12CA501940160E070E080E892E439
:103FB0000E9432300E94A4302B0100E022E341E055
:103FC0008C819D810E94420422E341E0B201C7013D
:103FD000AC81BD818A1B9B0B0E94420423E333E327
:103FE00043E35FE3C501B4010E9491314B015C01E1
:103FF000EC81FD813296FD83EC837B9799F660918D
:10400000F2027091F3028091F4029091F5022EE198
:1040100030E040E050E00E940130672B682B692BB4
:1040200091F40E94A92F382F68E20E94FE3128E106
:10403000290F832F60E60E94FE3142E0622F80E16B
:10404000890F0E94A7090E9446110E942D16912CEB
:10405000812CA12CD12CC12C25E0E22EF12C00E4E6
:1040600010E020E430E04EE454E062E170E080E2F1
:1040700090E00E94020D0E9479068091F2029091D8
:10408000F302A091F402B091F5020196A11DB11DB9
:104090008093F2029093F302A093F402B093F5029E
:1040A00063CE0E94E50984FD5ACF6BCF80915A01FF
:1040B000882319F0815080935A0190FD5EC0809151
:1040C000660880FF5AC0F091EA02FC830E94E5096D
:1040D00084FD53C00E94CC080091EB021091EC02C9
:1040E0002091ED023091EE0260177107820793076D
:1040F00008F443C08091EF02882309F4CCC01092E9
:10410000EF0210925901109258011092F102109290
:10411000F0021092E9071092E807E9E6F1E0158253
:10412000369622E0E93EF207D1F7EBEEF7E0168291
:10413000379638E0EF33F307D1F710924C03109223
:1041400052031092580310925E031092640310926F
:104150006A0310927003109276030E94B9050E94C0
:10416000CC0868537F4F8F4F9F4F6093EB02709343
:10417000EC028093ED029093EE028091EA02882394
:1041800009F48FC00E942D168091EA02882311F451
:104190000C94702D80914E080E94470C082F60915E
:1041A00043087091440880914508909146080E9408
:1041B000AB30162F60913F08709140088091410804
:1041C000909142080E94AB3098E4692E93E0792EDA
:1041D000F301D12CC12C70E05B01A00EB11CA12F0A
:1041E000B0E08D01095F1F4F2481222309F4F9C03B
:1041F000408150E09A012E5F3F4F2A153B050CF09D
:10420000F0C0218130E0790182E0E80EF11CE01677
:10421000F1060CF0E6C04C5F5F4F461757070CF4F1
:10422000E0C02C5F3F4F2A173B070CF4DAC086E052
:104230008C9DF0018D9DF00D1124E85BFC4F1381E6
:104240008EEA92E00E949409112309F412C21330FD
:1042500009F021C2209148083091490828573C4E66
:10426000309349082093480880914E084AE0849F83
:10427000C00111248C599F4F64E6689FA001699F7B
:10428000500D11244217530708F0FBC15093490801
:1042900040934808F6C181E04C8148274093EA02E8
:1042A0005ECF0E94E50983FF05C080915D088150C3
:1042B0000E945A0C0E94E50981FF05C080915D08AB
:1042C0008F5F0E945A0C0E94E50987FF27C00E9459
:1042D000CC080091EB021091EC022091ED0230919C
:1042E000EE020617170728073907C0F48091570117
:1042F000882309F465C00E94BA0A8CE380935A01AE
:104300000E94CC0860577E4F8F4F9F4F6093EB0207
:104310007093EC028093ED029093EE020E94E50907
:1043200086FF42C00E94CC080091EB021091EC0283
:104330002091ED023091EE02061717072807390782
:1043400098F540915B08453078F520914708309109
:104350005C08231748F180914E0890E001964817B9
:10436000190609F00CF5231B209347088CE992E00D
:104370000E949409E0915D08E53028F5F0E0E15CE9
:10438000F74F81898F5F818B0E949C050E94CC082A
:1043900060577E4F8F4F9F4F6093EB027093EC02FC
:1043A0008093ED029093EE020E94E50984FFECCE2B
:1043B00080915D08853008F0E7CE80935A08E4CEFE
:1043C0000E94BF0A9ACFE53031F480914F088F5F89
:1043D00080934F08D9CF80914E088F5F80934E080D
:1043E000D3CF9FEFC91AD90A369628E0C216D10456
:1043F00009F0FACE8BEE97E098878F838C01D80175
:1044000016968C911697882369F013968C911397C2
:104410008F3F41F411966C9111978C910E94B115C8
:10442000F8011682095F1F4FF8E00F331F0739F7B5
:1044300080914E080E94470CE82E609143087091CD
:10444000440880914508909146080E94AB30F62EB2
:1044500060913F0870914008809141089091420816
:104460000E94AB30EBEEF7E010E000E070E05B01A3
:10447000AE0CB11CAF2DB0E07D0127E0E20EF11CC7
:104480002681222309F439C1408150E09A012E5F30
:104490003F4F2A153B050CF030C1218130E0690106
:1044A00082E0C80ED11CCE14DF040CF026C14C5F94
:1044B0005F4F461757070CF420C12C5F3F4F2A1758
:1044C0003B070CF41AC187E0809FF001819FF00D3B
:1044D0001124E551F84F83818A3F09F016C180917C
:1044E0004E080E94470C082F6091430870914408C1
:1044F00080914508909146080E94AB30162F60913C
:104500003F087091400880914108909142080E94B4
:10451000AB30862F27E0402F612F0E9432068F3F5D
:10452000B9F1E82EF12C96E0899FF0011124E759AA
:10453000FE4F848181112CC080914D08811128C0CB
:104540008281882309F405C1853009F405C18330CF
:1045500009F405C1843039F480915A08843009F097
:1045600001C1A1E0AB838B810E94000A86E08E9D91
:1045700080018F9D100D112407591E4F41E0D80175
:1045800011966C9111978C910E94A709F8011582E0
:10459000BBEE2B2EB7E03B2E16E0D12E04E6C02E4C
:1045A00083E0B82ED10116968C911697882309F4D2
:1045B0002BC128E048E011966C9111978C910E94D4
:1045C00032068F3F09F420C1F1012281253009F420
:1045D0001BC128F044815581452B09F415C1E82EF3
:1045E000F12CDE9CF001DF9CF00D1124E759FE4F09
:1045F0000481002309F408C1D10113968C918A3FEC
:1046000008F002C11281A0915A080A2E000CBB0BBF
:10461000A15CB74F51963C911111A7C0832F880F11
:10462000880F830F825E233011F486958695882348
:10463000F1F08C9D900111244091F0025091F10213
:10464000440F452F441F550B5195849FB001859F02
:10465000700D1124261B370BF101848195812817D9
:10466000390708F0A6C0821B930B9583848300E072
:10467000ACC080914A08833008F0ECCD8F5F809306
:104680004A0886E08C9DF0018D9DF00D1124E85BB9
:10469000FC4F1482AFCE113031F4809147088F5F08
:1046A00080934708EECF143071F48091F602909118
:1046B000F70280589F4F9093F7028093F60280E0B4
:1046C0000E946D06DECF123021F481E080936008F5
:1046D000D8CF1530B0F28CEF810F90914C0898171D
:1046E00018F480934C08CDCF8913CBCF135010937F
:1046F0004C08143030F283E0F4CF0F5F1F4F379631
:104700000C30110509F0BCCEEACE84819581892B4D
:1047100009F4E5CE82818430B0F08430B1F0853088
:10472000B1F480E590916008911180E00E94000A48
:1047300027E0209FC001219F900D11248551984FA3
:104740000E94F915CCCE81E0EDCF8FE0EBCF85E074
:10475000E9CFB8E0BB8307CFEFE0EB8304CFF4E011
:10476000FB8301CF25E02B83FECE113031F4832F64
:10477000880F880F880F8A5B56CF123039F48381F7
:104780006B2D0E940A32330F830F4DCF85E0830FCC
:10479000880F133009F447CF143011F485E0F4CFBB
:1047A000153011F00C94452F8EE6233009F041CFDF
:1047B0003CCFC1010E94F915809158019091590197
:1047C00001969093590180935801DE9CF001DF9C83
:1047D000F00D1124E759FE4F8081123011F4D10100
:1047E0008C91DE9CF001DF9CF00D1124E759FE4F07
:1047F00040E061810E94A709002311F40C944C2F22
:10480000113011F00C944C2FF7E02F0E311C2FE3D8
:10481000221628E0320609F0C5CE0E944F0F6091A3
:10482000F2027091F3028091F4029091F50223E07C
:1048300030E040E050E00E9401302091F60220FD7F
:1048400029C0672B682B692B49F52091F002309124
:10485000F1028091E8079091E907019660E973E021
:104860000E9418329093E9078093E8072F5F3F4F2B
:104870003093F1022093F002E8EDF7E08191882374
:1048800021F0DF01119781508C9337E0E33EF3076D
:10489000A9F704C0672B682B692B71F3EBEEF7E0E7
:1048A00020E08681882329F084819581892B09F075
:1048B0002F5F379648E0EF33F40799F785E090E0F3
:1048C000821B910944E1489F9001499F300D1124BA
:1048D00088EC90E0821B930B2091F0023091F10262
:1048E000F5E036952795FA95E1F7821B930B893C05
:1048F000910514F088EC90E08A30910514F48AE078
:1049000090E09093E4078093E3070E94A92F6091C1
:10491000E3077091E4070E942C326C01F12CE12C2A
:104920000E94CC082091E3073091E407032E000C8D
:10493000440B550B0E940130C616D706E806F9064F
:10494000B1F40E94A92F64E670E00E942C329C0111
:10495000E82F99276BE070E00E941832DC01A85222
:10496000B84F4C919BE0442381F19150E1F789E6E7
:1049700091E09D838C832C01D20115968C91159723
:10498000882309F44DC1BC90B7FC04C011968C91EA
:10499000803410F0F2011582D20112968C91129798
:1049A00081119EC08B2D90E014962C911497119636
:1049B0006C91222309F486C0409150084D5F70E04D
:1049C00000E021E00E944204EDC090E19C938C5FE6
:1049D000482F440F440FE43118F52370EBEEF7E055
:1049E00070E060E08681882339F06F5F7F4F3796F3
:1049F0006C307105B9F7BBCF37E0369FF001379FB8
:104A0000F00D1124E551F84F81E0868380E8808322
:104A100041833283238380E197E295838483A7CF08
:104A2000E83220F58E2F66E00E94FE31592FEBEE22
:104A3000F7E030E020E08681882339F02F5F3F4F98
:104A400037962C303105B9F792CF67E0629FF001BD
:104A5000639FF00D1124E551F84F81E0868380E8D3
:104A60008083418386E082835383D5CF6091F102B6
:104A700066956F5F6130A1F0673008F066E08E2FB9
:104A80000E94FE31592FEBEEF7E090E080E02681A6
:104A9000222341F0019637968C309105C1F767CFFC
:104AA00062E0EDCF67E0689FF001699FF00D11248F
:104AB000E551F84F81E0868380E88083418352830B
:104AC0001382A9CF70E040E00E94FB03F2016181F4
:104AD00070E0808190E040E001960E94FB0362C09C
:104AE000813009F045C08091F2029091F302A091CB
:104AF000F402B091F50283709927AA27BB27F1E051
:104B0000FE83892B8A2B8B2B09F01E82E0915A0899
:104B10000E2E000CFF0BE15CF74F1189812F0E94D4
:104B2000320C082F812F0E941F0CC82ED12C10E0B0
:104B3000D20111966C916250770B912C812CA12C93
:104B4000E3E0EE2EF12C23E330E046EB56E08B2D34
:104B500090E00E94020DF201618161509EEFFE81A2
:104B60009F1BD2018C9140E0890F0E94A40C1AC0B7
:104B7000823049F4F201618170E000E021E040E21E
:104B80008B2D90E01FCF833009F030C211966C91CD
:104B900070E040E08B2D90E00E94FB03F2018481E5
:104BA000811195CF8091F602F201148180FF02C03D
:104BB0001123B1F1C090F202D090F302E090F40220
:104BC000F090F502C701B60123E030E040E050E08C
:104BD0000E940130672B682B692B21F4D2018C9144
:104BE00081508C93F2018281882309F4C1C2813003
:104BF00009F05DC2809151088C5F8A83198211117E
:104C000003C03A8131953A83D2018C91BA818B0FDE
:104C1000F20180838181F9818F0FD20111968C93EB
:104C2000B6E04B0E511CE9EE4E16E2E05E0609F0CE
:104C3000A3CE96E0B92E27E0522ED30114968C9184
:104C4000882309F465C0C090F202D090F302E0908E
:104C5000F402F090F502C701B60123E030E040E035
:104C600050E00E940130672B682B692B21F4F3017F
:104C7000808181508083C701B6012AE030E040E0A6
:104C800050E00E940130D30113962C911397672BAB
:104C9000682B692B99F412968C9190E0019668E745
:104CA00070E00E942C32F3018283223008F078C237
:104CB000837021F4858191E089278583D301EC916C
:104CC000E7FD04C011968C91803418F0D30114963E
:104CD0001C92211172C2D30112968C91129783708B
:104CE000859D6001112411966C91119770E0912CB3
:104CF000812C1596AC9086E0E82EF12C07E010E0B0
:104D00002CE130E04EE154E08E2F90E00E94020D45
:104D1000F6E06F0E711C28E733E02615370509F021
:104D20008CCF56E0B52E77247A94AF81B88516964D
:104D30008C91882309F44AC08091F60280FD3AC321
:104D4000C090F202D090F302E090F402F090F502ED
:104D5000C701B60123E030E040E050E00E9401309E
:104D6000672B682B692B29F4EF81F88580818150AE
:104D70008083AF81B88512960C911297073009F4A1
:104D800019C313961C91063009F0E8C2212F30E0B8
:104D90002E5F3F4F032E000C440B550BC701B6018D
:104DA0000E940130672B682B692B09F003C3EF8148
:104DB000F88584819581892B09F4FCC2808181501A
:104DC0008083EF81F88586818111F4C2EF81F885B7
:104DD0003796F887EF832E163F0609F0A6CF0E947C
:104DE000B50DE0915A08E230A9F00E2E000CFF0B31
:104DF000E15CF74F81898B5F880F90914B08492FB9
:104E0000480F5527551F890F4F3F51050CF08FEF65
:104E100080934B080E9446114091F6025091F70290
:104E20004115510569F0415051095093F7024093E3
:104E3000F6024130510509F037C680E00E946D0648
:104E40005091E9025E83552309F442C06091F20259
:104E50007091F3028091F4029091F50227E030E026
:104E600040E050E00E940130672B682B692B81F5F0
:104E70008E8181508093E9020E94A92F60E170E049
:104E80000E942C32282F80FD18C68091E90265E02F
:104E90000E94FE3132E0390F330F330F330F922F60
:104EA00027FF02C093E0920F95959595390F90E0FA
:104EB00080E0AC81BD8115964C911597442309F48F
:104EC000FEC501961696BD83AC838034910589F7A3
:104ED0002CE042E46DEF81E40E94CD0B20914B0861
:104EE00030E0A2E1B0E00E9423302FEF30E040E05C
:104EF00050E00E94CF2F422F60E084E40E947D0B9F
:104F0000C0904C088091F202CC2029F08370C82E0A
:104F1000CC0CCC0CCC0CD12C88248394912CA12CBF
:104F200056E0E52EF12C08E010E020E230E046E308
:104F300054E070E060E08AE590E00E94020D21E01C
:104F400040914C0860E08AE50E94E60CE0914A0836
:104F500067E0C62ED12C07E010E02CE130E04EE1F6
:104F600054E070E060E087E690E08E1B91090E94BB
:104F7000020DE0914A08E23088F034E0C32ED12CD3
:104F800004E010E028E030E048E154E070E060E048
:104F90008DE690E08E1B91090E94020D80914A08D7
:104FA0008330B0F088248394912CA12C94E0C92EF6
:104FB000D12C26E0E22EF12C04E010E028E030E0D5
:104FC00048E154E070E060E08DE690E00E94020D60
:104FD000809148089091490864E670E00E94183278
:104FE000AB0160E082E70E94471545C8843089F52F
:104FF00013962C91139720313CF411966C9170E02C
:1050000000E021E044E0BCCD2C3134F4F2016181B8
:10501000615020E043E013C0022E000C330B80915E
:10502000540890E00D96880F991F880F991F281734
:1050300039074CF411966C91625020E045E08B2DBD
:105040000E944F05AFCD0896281739070CF0AACD5E
:10505000DDCF853009F0A6CD8091F2029091F30268
:10506000A091F402B091F50283709927AA27BB277B
:1050700011E0892B8A2B8B2B09F010E0D2011196BD
:105080006C9170E000E021E044E08B2D90E00E9404
:105090004204F20194818081992329F0109540E027
:1050A0006181810F62CD1C5F41E06181FACF823066
:1050B00009F462C08330E1F40381011104C0198254
:1050C000B4E0BA839CCDC701B601202F002E000C9E
:1050D000330B440B550B0E940130672B682B692B57
:1050E00071F700FF4DC0E1E0E983F4E0FA8387CD7A
:1050F000843099F423812C5F2383022E000C330B20
:105100008091540890E00F96880F991F880F991F7F
:1051100082179307A4F61582D2CF853009F06FCDA0
:10512000F381F983FF2389F1EF2FFF0FFF0B80E558
:1051300090E0BF010E942C32161617062CF080EB6F
:105140009FEFBF010E942C329B01770F440B550B40
:10515000C701B6010E940130672B682B692BB9F497
:10516000298127FF18C03FEF398342E04A8347CDAA
:10517000198255E05A8343CD19828AE08A833FCD54
:105180009FEF9983A4E0AA833ACDB2E09ACF198227
:10519000E2E0EA8334CDF1E0F98322E02A832FCDE7
:1051A000233009F08BCD6B2D0E94FE31911186CDFD
:1051B000858191E08927858381CD2130D1F4D30188
:1051C00012968C9112978370859D6001112411961F
:1051D0006C91119770E0912C812C1596AC9007E0A2
:1051E000E02EF12C07E010E02CE130E046E653E041
:1051F0008BCD2330D9F5D30112968C916B2D0E9463
:10520000FE31B8E09B9F60011124D30111966C918F
:10521000119770E0912C812C1596AC9014E0E12E42
:10522000F12C08E010E020E330E048EF52E08E2F50
:1052300090E00E94020DF301A58081E0A826A394CE
:10524000A39482816B2D0E94FE31F8E09F9F600144
:105250001124D30111966C91119770E06C5F7F4F10
:105260008C9120E330E048EF52E04FCD2430D1F470
:10527000D30112968C9112976B2D0E94FE31959D51
:105280006001112411966C9170E0912C812CA12C5D
:10529000B7E0EB2EF12C07E010E02AE230E04EEC14
:1052A00052E032CD223091F5D30112968C91837069
:1052B000B4E08B9F60011124D30111966C9170E0D2
:1052C000912C812CA12CA7E0EA2EF12C04E010E017
:1052D00020E130E040EC52E08E2F90E00E94020D81
:1052E000F30182818370F4E08F9F60011124D30168
:1052F00011966C91119770E08C9190E0AA24A39480
:1053000020E130E040EC52E0039600CD253008F477
:10531000FFCCB3E0CB22DD2463E0CC0CDD1C6A952E
:10532000E1F7D30111966C9170E0912C812CA12CA6
:10533000F6E0EF2EF12C08E010E020E230E046E34A
:1053400054E08E2F90E00E94020DF30143814450FF
:1053500020E0618180810E94E60CDACCC701B601B1
:105360000530A9F425E030E040E050E00E94013033
:10537000672B682B692BF1F4212F30E02F5F3F4F13
:1053800027703327AF81B88513962C931ACD2AE066
:1053900030E040E050E00E940130EF81F8858481E8
:1053A0009581892B09F047C0611104C01F5F1E3F22
:1053B000E8F51383AF81B885EC91EB3820F41196B2
:1053C0008C91803420F0AF81B88516961C92AF8105
:1053D000B88513968C9113978F3F09F4F7CC1296EA
:1053E0001C911297173009F02BC114962D913C9106
:1053F000159766E0232B09F42EC18B9D60011124C3
:10540000AF81B88511966C9170E0912C812CA12C04
:1054100098E0E92EF12C06E010E028E130E049E4C4
:1054200053E08E2F90E00E94020DD0CCAF81B88562
:1054300013967C92C6CC023009F047C01F5FEF8103
:10544000F88513831C3348F5812F63E00E94FE31F9
:10545000911123C00E94A92F24E630E0211B3109BD
:10546000359527953595279560E170E00E942C329F
:10547000280FAF81B88511968C9111978C5F9C9104
:10548000E9E6F1E070E060E03581332371F06F5FB1
:105490007F4F369660347105B9F7EF81F8858381C7
:1054A000873709F08ECC13828CCCB69EF001B79E64
:1054B000F00D1124E759FE4F31E03583908381834D
:1054C00083E0828323831482E8CF043009F045C04F
:1054D000611112C081E0810FAF81B88513968C9362
:1054E00013978A3008F0E7C463E00E94FE319111FF
:1054F00068CC8C9181508C93EF81F88523812A3080
:1055000008F45FCCAF81B88511968C9111978B5FB1
:105510009C919450E9E6F1E070E060E0358133233E
:1055200061F06F5F7F4F369660347105B9F72331B4
:1055300009F047CCEF81F885B6CFB69EF001B79E53
:10554000F00D1124E759FE4F31E0358390838183BC
:1055500084E0828313821482EACF61112BCF212F42
:1055600030E02F5F3F4F23703327AF81B88513960C
:105570002C9313971C91233019F411501C9321CCB8
:10558000223009F017CF013011F5EF81F885418104
:105590004C5F1F5FE9E6F1E030E020E08581882381
:1055A00039F02F5F3F4F369620343105B9F702CFDF
:1055B000B29EF001B39EF00D1124E759FE4F81E039
:1055C000858310834183128213821482FACB0111E6
:1055D000F1CEAF81B88511960C91602F70E090E00C
:1055E00080E00E94DC309B01AC0160914308709127
:1055F000440880914508909146080E9432300E94EC
:10560000A4300B5F1F5FE9E6F1E030E020E0858128
:10561000882339F02F5F3F4F369620343105B9F794
:10562000C9CEB29EF001B39EF00D1124E759FE4F92
:1056300081E085831083018385E082836383C5CF06
:10564000163071F5AF81B88514962D913C91159760
:10565000232B29F465E0CD010E941715B7CBB8E0E4
:105660008B9F60011124AF81B88511966C9170E019
:105670006E5F7F4F912C812CAA24A39485E0E82EA5
:10568000F12C08E010E020E330E04BE253E08E2FF5
:1056900090E00E94020D8F8198850E948B0C96CB22
:1056A000153009F048C0AF81B88514968D919C9152
:1056B0001597892B09F48ACB11966C9170E06C5F79
:1056C0007F4F8E2F90E040E001960E94FB03EF8118
:1056D000F885618170E06D5F7F4F808190E040E0F0
:1056E00003960E94FB03AF81B88511966C911197C8
:1056F00070E06C5F7F4F8C9190E040E005960E94D7
:10570000FB03EF81F885938180816181292F30E04F
:1057100070E06C5F7F4F953040F490E0019640E080
:10572000820F931F0E94FB0351CB90E0099640E04B
:10573000821B930BF7CF123011F5AF81B885149609
:105740002D913C91159711964C91232B09F045C052
:10575000642F70E06D5F7F4F912C812CA12C18E09D
:10576000C12ED12C05E0E02EF12C05E010E028E15F
:1057700030E04CE153E08E2F90E00E94020DAF81AB
:10578000B88513962C91139711966C91119770E030
:105790008C9190E036E0320F343008F04FC0129612
:1057A0003C91E6E0323009F0E2E02A5F330BB29E32
:1057B0006001B39ED00C11246C5F7F4F912C812C23
:1057C000A12CA4E0EA2EF12C06E010E028E130E064
:1057D00040E153E08E0F911D26CE863458F180357E
:1057E00058F18A3578F011E08C3360F463E00E9460
:1057F000FE31911107C064E0640F40E08FEF8E0F1F
:105800000E94A40CB8E01B9F60011124EF81F88571
:10581000618170E06D5F7F4F8081912C812CA12C84
:10582000B5E0EB2EF12C08E010E028E130E04CE18F
:1058300053E02ECF10E0D8CF11E0E4CF6D5F7F4F63
:1058400000E024E042E003960E944204EF81F885E4
:10585000618170E06C5F7F4F808190E041E0039652
:105860000E94FB03AF81B88513962C911397237088
:105870008C9111966C9170E0695F7F4F90E040E0F1
:10588000223008F044C003960E94FB03EF81F885A4
:10589000618170E0695F7F4F808190E040E0049615
:1058A0000E94FB038F8198850E948B0CAF81B88585
:1058B00012968C911297813009F046C011966C9126
:1058C000119770E06B5F7F4F8C9190E040E0019604
:1058D0000E94FB03EF81F885618170E06B5F7F4F71
:1058E000808190E040E002960E94FB03AF81B88582
:1058F00013968C911397823009F068CA11966C91B7
:1059000011976B5F40E08C910E94A40C5FCA22301B
:1059100069F402960E94FB03AF81B88511966C91E1
:10592000119770E0695F7F4F8C91B7CF03960E940B
:10593000FB03EF81F885618170E0695F7F4F8081B3
:1059400090E040E00596ACCF811136C0EF81F8853C
:10595000618170E06C5F7F4F808190E040E0019654
:105960000E94FB03AF81B88511966C91119770E08E
:105970006C5F7F4F8C9190E040E002960E94FB03A9
:10598000EF81F885618170E06C5F7F4F808190E0EE
:1059900040E005960E94FB03AF81B88513968C9179
:1059A0001397823009F012CA11966C9111976C5FAF
:1059B0008C9141E08A5FA8CF833051F5EF81F88563
:1059C000618170E06D5F7F4F808190E000E024E0B6
:1059D00041E001960E944204AF81B88511966C9116
:1059E000119770E06B5F7F4F8C9190E040E00296E2
:1059F0000E94FB03EF81F88583818111E7C96181F2
:105A000070E06B5F7F4F808190E040E005968ACE2A
:105A1000843009F0DBC9AF81B88511966C9111977C
:105A200070E08C9190E0019613962C912830C8F587
:105A30006A5F7F4F40E00E94FB03EF81F885618140
:105A400070E06B5F7F4F808190E040E002960E94A3
:105A5000FB03AF81B88511966C91119770E06D5F73
:105A60007F4F8C9190E000E024E043E005960E9497
:105A70004204EF81F885618170E06D5F7F4F808126
:105A800090E041E005960E94FB03AF81B885119636
:105A90006C91119770E06A5F7F4F8C9190E041E0CC
:105AA000B5CF6B5F7F4FC6CF00E021E06FE370E0C2
:105AB00090E080E00E944204C3C92195E6C946E017
:105AC000489FF001499FF00D1124E759FE4F81E0F6
:105AD00085831082318395E0928323838483F8C980
