:100000000C94BE080C94E6080C94E6080C94E608E0
:100010000C94E6080C94E6080C94E6080C94E608A8
:100020000C94E6080C94E6080C94DB1C0C944A1D16
:100030000C94E6080C94E6080C94E6080C94E60888
:100040000C94E6080C94E6080C94E6080C94E60878
:100050000C94E6080C94E6080C94E6080C947C1FBB
:100060000C94E6080C94E6080C94E6080C94E60858
:100070000C94E6080C94E6080C94E6080C94E60848
:100080000C94E6080C94E6080C94E6080C94E60838
:100090000C94E6080C94E6080C94E6080C94E60828
:1000A0000C94E6080C94E6080C94E6084275646724
:1000B000657400536176652F4C6F61640053746101
:1000C0006469756D004669726520446570740050FE
:1000D0006F6C6963652044657074005061726B00D9
:1000E000506F776572706C616E7400496E647573E1
:1000F000747269616C00436F6D6D65726369616CE8
:10010000005265736964656E7469616C00506F7745
:1001100065726C696E6500526F61640042756C6C4B
:10012000646F7A657200446563004E6F76004F63BA
:10013000740053657000417567004A756C004A751C
:100140006E004D617900417072004D61720046652C
:1001500062004A616E00010D050B070E03040106E3
:100160000C020A090B080102030102030103010248
:10017000030202010301000100050101020900045C
:1001800000080307060A00004908B400BEF67B7A9F
:10019000A59455B848002944442A15A00B420050A4
:1001A00003020008259076BA595CC59EC53892E6D0
:1001B000F33A73BAE59077BA773A084008502A4480
:1001C0001CE08852E508568E77B677B8728CD6BA9E
:1001D000739E739272AEB7B6E95C64AAB7B4929C90
:1001E000BEB6D6B656AAD79276EE77B47138E9483D
:1001F000B6AEB6AAB6F6B5B4B548E59C694C91243E
:10020000642E5400001C44000EAE9ABA0E8C2EAE22
:100210000ECE56D0553B93B44144415197B4494416
:1002200017B61AB60AAAD6D3766717900F389A8CE3
:1002300016AE16BA16F615B4B52B1C5E6B4C4948B3
:10024000C95A540056E20102040810204080D5F03B
:100250008D14A1C881CFD9F1AF2000F0F89C8E8712
:1002600083878E9CF8F00000FEFF0303030303075F
:100270000EFCF80000FEFF0303030303070EFCF867
:100280000000FFFF00000000000000FFFF0000FE74
:10029000FF8383838383C7EE7C380000F8FC0E075E
:1002A000030303070EFCF800003F7FE0C08080C01E
:1002B000E07F3FFFFF01010101010101FFFF00009D
:1002C000FFFF0C0C0C0C1C3E77E3C100007FFFC04D
:1002D000C0C0C0C0E0703F1F00001F3F70E0C0C042
:1002E000C0E0703F1F00007FFFC1C1C1C1C1E37703
:1002F0003E1C00001F3F70E0C0C0C0E0703F1F0008
:100300000000000001FFFF01000000627920406A48
:10031000616D657368686F776172640000FE02FA50
:100320000AEAEAEAEAEAEADADAEAEAEAEAEAEA0A0D
:10033000FA0AEAEAEA0AFA32DAEAEAEAEAEAEAEA85
:10034000EAEAEA0AFA0AEAEAEAEAEAEAEAEAEAEABD
:10035000EA1AF262B2DAEAEAEAEAEAEAEADAB26265
:10036000C202FE0000FF00FF00FFFFFF00FE405F33
:100370005F40FE00FFFFFF00FF00FFFFFF00FF00E8
:10038000FFFFFF007E42424242424242FF00FFFF27
:10039000FF38BABA7AF8FFBF3FC0FF00FFFFFF0087
:1003A0007E427E00FFFFFF00FF00FF0000FF801F76
:1003B00010171717101F000000001F101717171035
:1003C0001F10F737D7505F565D5B17F717D717F732
:1003D000175757D05F5017F717D09F719FD017F757
:1003E00017101F060D1B171717171717171B0D06CA
:1003F0000380FF00FFFEFDFBF6ECD8B060C080007C
:10040000000000000000000000007FC0BFA0AFA9F6
:10041000A9A989FF80BF80FF01FF80BF80FF010184
:1004200003FE81BF81FE0301000000000000000008
:100430000080C060B0D8ECF6FBFDFEFFFFFFFFFFC1
:10044000FFFFFFFFFFFEFDFBFAFAFAFAFAFAFAFAEB
:10045000FAFAFAFAFAFAFAFAFAFAFAFAFAFAFAFAFC
:10046000FAFAFAFAFAFAFAFAFAFAFAFAFAFAFAFAEC
:10047000FAFAFAFAFAFAFAFAFBFDFEFFFFFFFFFFBB
:10048000FFFFFFFFFFFFFFFFFFFFFFFFFFFFFFFF7C
:10049000FFFFFFFFFFFFFFFFFFFFFFFFFFFFFFFF6C
:1004A000FFFFFFFFFFFFFFFFFFFFFFFFFFFFFFFF5C
:1004B000FF1F0000FFFFFFFFFFFFFFFFFFFFFFFF2A
:1004C000FFFFFF7F7F7F3F3F3F7FFFFFFF7F7FFF7C
:1004D000FFFFFFFFFFFFFFFFFFFFFFFFFFFFFFFF2C
:1004E000FFE00000FFFFFFFFFFFFFFFFFFFFFFFF39
:1004F000FFFF80000000000000000000000000007E
:1005000001030F7F7F7F7FFFFFFFFFFF7F7F3F3F65
:100510003F1F0000FFFFFFFFFFFFFFFFFFFFFFFF89
:10052000FFFFFFFFFEFEFCF8F0800000000000006F
:1005300000E0F0F8FCFCFCF8F8F8F8F8F8FCFCFC3B
:10054000F8F00000FFFFFFFFFFFFFFFFFFFFFFFFCF
:10055000FFFFFFFFFFFFFFFF1F0300000000000081
:1005600000070F0F1F3FFFFFFFFFFFFFFFFFFFFF12
:10057000FF000000FFFFFFFFFFFFFFFFFFFFFFFF88
:10058000FFFFFFFFFFFFFFFFFFFEFEFCFCFCFCFC8C
:10059000FCFCFCFCFCFEFFFFFFFFFFFFFFFFFFFF7B
:1005A000FF1F000000F0F8FCFCFCFEFEFEFCFCFC63
:1005B000FCFCFCFEFEFEFEFEFEFEFEFCF8F8F8F87B
:1005C000F8F8F8F8FCFCFCFCFEFEFEFEFEFEFEFE6B
:1005D000FCF8C000000081C3E3E3E3E3E3E3E3C727
:1005E000070FFFFFFFFFFFFFFFFFFFFFFFFFFFFF03
:1005F000FFFFFFFFFFFFFFFFFFFFFFFFFFFFFFFF0B
:10060000FFFF0F0000001F3F7F7F7F7F3F3F3F0FB7
:1006100080C0FFFFFFFFFFFFFFFFFFFFFFFFFFFFA8
:10062000FFFF1F0F0F0F0F0F0F0F070707030383A6
:10063000C3C18000000000C0F8FCFEFEFEFFFFFF0B
:10064000FFFFFFFFFFFFFFFFFFFFFFFFFFFFFFFFBA
:10065000FFFFFFFCFCF8F8F8F8F8FCFEFEFFFFFFD8
:10066000FFFFFF00000007FFFFFFFFFFFFFFFFFF8F
:10067000FFFFFFFFFFFFFFFFFFFFFFFFFFFFFFFF8A
:10068000FFFFFFFFFFFFFFFFFFFFFFFFFFFFFFFF7A
:10069000FF070000003C7F7F7F7F7F3F3F3F3F3F62
:1006A0003F3F3F3F1F1F0F0F07070F0F0F0F3F3F2A
:1006B0007F7F3F3F3F1F1F1F1F1F3F7F7F7F7F7F2A
:1006C0003F1E0000FFFFFFFFFFFFFFFFFFFFFFFFD9
:1006D000FFFF3F0F0701C0E0F8FCFEFFFFFFFFFF39
:1006E000FFFFFFFFFFFFFFFFFFFFFFFFFFFFFFFF1A
:1006F000FFFFFFFFFFFFFFFFFFFFFFFFFFFFFFFF0A
:10070000FFFFE0C08000030F1F3F3F7FFFFFFFFFA1
:10071000FFFFFFFFFFFFFFFFFFFFFFFFFFFFFFFFE9
:10072000FFFFFFFFFFFFFFFFFFFFFFFFFFFFFFFFD9
:10073000FFFFFFFFFFFFFEFCF8F8F0E0C0800103C1
:10074000070F3FFFFFFFFFFFFFFFFFFFFFFFFFFF61
:10075000FFFFFFFFFFFFFFFFFFFFFFFFFFFFFFFFA9
:10076000FFFFFFFFFFFFFFFFFFFFFFFFFFFFFEF8A1
:10077000E000000003FFFFFFFFFFFFFFFFFFFFFFA1
:10078000FFFFFFFFFFFFFFFFFFFFFFFFFFFFFFFF79
:10079000FFFFFFFFFFFFFFFFFFFFFFFFFFFFFFFF69
:1007A0003F00000000FFFFFFFFFFFFFFFFFFFFFF15
:1007B000FFFFFFFFFFFFFFFFFFFFFFFFFFFFFFFF49
:1007C000FFFFFFFFFFFFFFFFFFFFFFFF3F0F0700E0
:1007D0000080C0F8FEFFFFFFFFFFFFFFFFFFFFFFEE
:1007E000FFFFFFFF4C616B650049736C616E640035
:1007F0005269766572003E003C0000000000006413
:100800000003034064000303436400030346B80B82
:100810000404A03200030349F40103034CF4010370
:10082000037CB80B0404A4000003030000000404CC
:10083000001C0117010D010101F600EB00E000DBD7
:1008400000CF00C500BD00B300AC0052014E014A0C
:1008500001460142013E013A01360132012E012AD0
:1008600001260146697265207265706F7274656455
:1008700021004F6666004F6E004175746F2042750F
:10088000646765743A004E65772043697479004C5B
:100890006F61642043697479005361766520436910
:1008A0007479004361736820666C6F7700526F61E2
:1008B000642062756467657400506F6C69636520BD
:1008C0006275646765740046697265206275646765
:1008D000657400546178657320636F6C6C65637434
:1008E00065640054617820726174652020202020A6
:1008F000202020203C20202025203E0042756467D7
:100900006574207265706F727420666F7200080BD8
:1009100000020202000009040000010202000005BA
:100920002400100105240101010424020605240607
:1009300000010705810310004009040100020A00BC
:100940000000070502024000000705830240000086
:100950000403090412010002EF0201404123368022
:1009600000010102030141726475696E6F204C4CF5
:10097000430041726475626F79000000000000005E
:100980000000FFFFDDFFFFFFEFFFFFFDFFDFFFFBCD
:10099000FFFFFFFFFDFFBFFFFFFFFFFFFFF7FFBFF1
:1009A000FDFF0111110101111101FF00000066009E
:1009B0000000FF0703016111110101111101610123
:1009C000030701101000060080C0FFC08000061061
:1009D0001000011111018111910151000000660008
:1009E00000000110110001101000FF00000066005F
:1009F00000145100010081008014FFFFFFFFFFFF82
:100A0000FFFF88888222200008888880A222202078
:100A100000888882222222200008888A022222005E
:100A200008084115510541155105FF0055006600A4
:100A3000AA00FF0743096115910541155105610998
:100A4000A3074114510026008AC0FFC0950046103C
:100A5000520041155105C115D105510055006600E0
:100A6000AA004114510441145004FF0055006600CF
:100A7000AA145104410081008414829292828292CD
:100A8000928200FF0000660000FF8A8A0A0A2A2A72
:100A90000A0A888000FF00FF0008FFFFFFFFFFFF3A
:100AA000FFFF0551154105511541FF00AA006600E1
:100AB0005500FF0793016511150105519501650169
:100AC000530705501240061085C0FFC08A2006500B
:100AD000114005511541855195415100AA0066000C
:100AE00055000550154005501440FF00AA0066004F
:100AF00055145140030081028014007E662A4C6E1A
:100B00007E00011111FE01FE1101F50A0A0A6E0AAA
:100B10000A0A7DF7DEFBFEB7FDDFFFFFFFFFFFFFE9
:100B2000FFFFF5F5F58181F5F5F5FFFFFF00FF000B
:100B3000FFFFFFFFFF01FD05F5F5F5F5F505FD01EB
:100B4000FFFFF5F5F58083F0FFFFFFFFFFF08380E7
:100B5000F5F5F5F5F505FD05F5F5F5F5F504FF00F9
:100B6000FFFFF5F5F5F4F7F4F5F5FFFFFF00FF04DF
:100B7000F5F5F5F5F504FF04F5F5FF55FFFDFFFD6F
:100B8000FFFDFFFDFFFDFFFDFFFDFFFDFFFDFFFD85
:100B9000FF55FF55FFFDFFFDFFFDFFFDFFFDFFFDC5
:100BA000FFFDFFFDFFFDFFFDFF55FF55FFFDFFFDB5
:100BB000FFFDFFFDFFFDFFFDFFFDFFFDFFFDFFFD55
:100BC000FF55FF01E9E5315D9D31E5A901FFFF0119
:100BD000BDE5D14965FD359D5901FF0FF7FB01FDCD
:100BE000FDFDFD11D7D737F717D7D737F1FDFDFD3D
:100BF000FD0180E0F0F0F8FEEEFFFF55FFFFFFFF84
:100C0000FFFFFFFF81EDED93FFFFFFFFFFFFFFFF02
:100C1000FF55FF55FFFFFFFFFFFFFFFFC3BDBDDB1C
:100C2000FFFFFFFFFFFFFFFFFF55FF55FFFFFFFF28
:100C3000FFFFFFFFBD81BDFFFFFFFFFFFFFFFFFFC6
:100C4000FF55FF18DBDA1B9A5A1BDBBD66C3CB6668
:100C5000BD5B981A59D81B9A5A18FF003F5F606F06
:100C60006F6F6F682EAEAFAFA82B6B6C6F6F6FAFEF
:100C7000CFE0FFFEFCD8F8F0E080FF55FF7FFF7F5C
:100C8000FF7FFF7FFF7FFF7FFF7FFF7FFF7FFF7F74
:100C9000FF55FF55FF7FFF7FFF7FFF7FFF7FFF7FB8
:100CA000FF7FFF7FFF7FFF7FFF55FF55FF7FFF7FA8
:100CB000FF7FFF7FFF7FFF7FFF7FFF7FFF7FFF7F44
:100CC000FF55FF0027154F7E664B526700FFFF0060
:100CD000775E7C4D26174D7E7600FF81A581A1852C
:100CE00081FFC0CFD0D7D7D7E7F0FF8185A185A1FD
:100CF00081FF01070F1F1B3F7FFFFFFFC33DA5C5FE
:100D00006DF35BFD00FEFEFEFE0E6E6E9EFEFEFEB1
:100D1000FE00FF1FEF57FB01FD7D71777777777737
:100D2000773B415DDDDDDD5D9DC1FF017D7D01ED39
:100D3000ED6DADA1BFBFA1ADAD61FFFFFF0155A935
:100D400001FFFFFFFFFFFFFFFFFFFFFFFFFFFFFFB1
:100D5000FFFFFFFFFFFFFFFFFFFFFF07FB01FD7D21
:100D60007D7D7D7D7D7D7D7D7D415F5F5F5F5F5FA3
:100D7000DF1FFF7F3D1F1F0F0701FF0156FF55FFBC
:100D8000D5FF75BFC05FDF5FDF5CDF5FDC5FDF5F0C
:100D90009FC0FF00FF95FF24FE00FFFFC3BDBDDB2A
:100DA000FFFFFF00FEFEFEE0EF0FFFFFFF07FB016E
:100DB000FEFFFFFFBD81BDFFFFFFFE01FF26DADA68
:100DC00026FFFFFFFFFFFFFFFFFFFFFFFFFFFFFF0C
:100DD000FFFFFFFFFFFFFFFFFFFFFF00FF54FE00CD
:100DE000FFFFFF03DBDBFBFF037B7B87FFFFFF00D6
:100DF000FF00FFFFFFFFFFFFFFFFFF809DAFB79BDF
:100E0000BD96BF95BF95BF95BFD5EF85B3B5B6B6B7
:100E1000B680FF003F5A6F557B54557D55755D7503
:100E20006D65696C6F6F6FAFCFE0FF9F6F6C9BF765
:100E3000EEEDEBEBEBEBEBF3FB0576475F5956562C
:100E400019FFFFFFFFFFFFFFFFFFFFFFFFFFFFFF98
:100E5000FFFFFFFFFFFFFFFFFFFFFF003F556F702A
:100E60003717171757773717171757777757475089
:100E70009FC0FFFFFFFFFFFFFFFFFF01FDFD7D9D07
:100E8000ED05F9AD56AA56AA56AA55F905ED05F98C
:100E9000AD56AA56AA56AA55FB07FF016D6D6D6D9A
:100EA00045456D01F79BFD15D5555DD555555D55EE
:100EB00055D55D55D515FD9BF70FFFFFFFFFFFFFD4
:100EC000FFFFFFFFFFFFFFFFFFFFFFFFFFFFFFFF32
:100ED000FFFFFFFFFFFFFFFFFFFFFFFFFFFFFFFF22
:100EE000FFFFFFFFFFFFFFFFFFFFFFFFFFFFFFFF12
:100EF000FFFFFFFFFFFFFFFFFFFFFF007FC0BF7F80
:100F0000FFF8FBF6EDEAED6AADCAC5BB7CFFFCFB62
:100F1000F6EDEA6DAACDEA05FBFCFF0125012501EE
:100F20002501FF00FF24FF00FF0000038242424230
:100F300082030000FF00FF24FF00FFFFFFFFFFFF11
:100F4000FFFFFFFFFFFFFFFFFFFFFFFFFFFFFFFFB1
:100F5000FFFFFFFFFFFFFFFFFFFFFFFFFFFFFFFFA1
:100F6000FFFFFFFFFFFFFFFFFFFFFFFFFFFFFFFF91
:100F7000FFFFFFFFFFFFFFFFFFFFFFFF00EFF79BFC
:100F8000FC00FEFEFECE46129EDEFEFEFE00765603
:100F9000768EFE8F7757778EFE00E380A280A200C8
:100FA0002280FF00FF49FF00FF01018183858585C5
:100FB00083810101FF00FF49FF00FFFFFFFFFFFFEB
:100FC000FFFFFFFFFFFFFFFFFFFFFFFFFFFFFFFF31
:100FD000FFFFFFFFFFFFFFFFFFFFFFFFFFFFFFFF21
:100FE000FFFFFFFFFFFFFFFFFFFFFFFFFFFFFFFF11
:100FF000FFFFFFFFFFFFFFFFFFFFFFFF005F4F56F9
:101000005B5C555D555D55555D556D7579605D55FC
:101010005D637F635D555D637F00FF007E70777465
:101020007404FCE0DFB27F50575474575454745426
:101030005457745457507FB2DFE0FFFFFFFFFFFFAC
:10104000FFFFFFFFFFFFFFFFFFFFFFFFFFFFFFFFB0
:10105000FFFFFFFFFFFFFFFFFFFFFFFFFFFFFFFFA0
:10106000FFFFFFFFFFFFFFFFFFFFFFFFFFFFFFFF90
:10107000FFFFFFFFFFFFFFFFFFFFFF016D686A0A31
:101080007801FFC1D5D41455411F212DEDED0D7D03
:101090007D01FF80B6B680B6B680007E7E007E669B
:1010A0006600FFC11D5D5D407E0007575757500227
:1010B000FAF8FFC01E5E401EDEC0FF8F773B1D7E2C
:1010C00081FFFF9F633D1E7987FFFF837D1B3B7779
:1010D0008FFFFF9F673B377BA39FFFFFFFFFFFFF54
:1010E000FFFFFFFFFFFFFFFFFFFFFFFFFFFFFFFF10
:1010F000FFFFFFFFFFFFFFFFFFFFFFDFA3ABA3AF7C
:10110000CFB7FF1F07016A01071FFFFFF5F500F5C5
:10111000F5FFFFEF07C3012307EFFFFF002A802A37
:1011200000FFFF031D021D1E1F1FFFFFE7A389CF46
:10113000EFFFFFF3E915E9F3FFFFFFC0A1130B85F4
:10114000C0FFFFFF050105DBE7FFFFCF971B63A78C
:10115000CFFF0070777774777001FFFFB7AB01ABFB
:10116000DBFFFFFFFFFFFFFFFFFFFFFFFFFFFFFFB3
:10117000FFFFFFFFFFFFFFFFFFFFF91F11241FBE4F
:10118000CFEFDAE0DEBFCDBF11E0A0E0B1E0E6E7EF
:10119000FCE502C005900D92AE32B107D9F72AE006
:1011A000AEE2B1E001C01D92A933B207E1F718E049
:1011B000CEEBD8E004C02197FE010E94332ECD3B38
:1011C000D107C9F70E941F200C94392E0C940000FF
:1011D00090E02091D609821B910927FD93958131DA
:1011E0009105B8F470E02091D509621B710927FDC3
:1011F00073956930710568F441E1469F9001479FFE
:10120000300D1124245C364F820F931F23E3FC0121
:10121000208308954F925F926F927F928F929F9258
:10122000AF92BF92CF92DF92EF92FF920F931F93F4
:10123000CF93DF93803891050CF08FC0FB01E00F56
:10124000F11DF7FD8AC0603471050CF086C0DB012A
:1012500077FF04C0AA27BB27A61BB70BA770BB2725
:10126000EB0177FD2796E3E0D595C795EA95E1F781
:1012700077FF07C0219768E070E0FB01EA1BFB0BDA
:10128000DF0130E0069506950695802E912C8A01A7
:10129000AE015695542F442757954795480F591F2F
:1012A000445C5A4FBE01E0E8F0E07F01E81AF90A19
:1012B00088E090E03C016A1A7B0A6F3FFFEF7F07EE
:1012C0000CF43BC090E080E05A01E0E8AE0EB11CA7
:1012D0006F3F760709F452C0FC01E00FF11FE49163
:1012E0006A01C80ED91EF0E02F010A2E01C0440C7D
:1012F0000A94EAF7F6015080452840821097B1F031
:101300006730710599F0F801E80FF91FE491650164
:10131000C80ED91EF0E02F01062C02C05594479448
:101320000A94E2F7F6015080452840820196821720
:1013300093071CF4E816F90659F66F5F7F4F020F0A
:10134000131F40585F4FCB018C1B9D0B88159905CF
:1013500024F46830710509F0B0CFDF91CF911F916F
:101360000F91FF90EF90DF90CF90BF90AF909F9044
:101370008F907F906F905F904F900895109709F035
:10138000C2CFD4CF80913C058EBDEDE3F5E08CE378
:1013900099E021910DB407FEFDCF2EBD8E179F075A
:1013A000C1F70DB407FEFDCF0895FC0180913B0508
:1013B000882311F13FB7F89482E08093E9002091EF
:1013C000F200822F90E01816190614F481E090E0E4
:1013D000882339F0289844E640933A054091F1007B
:1013E0004083222339F02091F200211103C02BE623
:1013F0002093E8003FBF08958FEF9FEF08952FB728
:10140000F89483E08093E9009091E800892F80723E
:1014100095FF04C09091F20080E4891B2FBF0895CE
:101420008091320581110DC082E080932E0584E009
:1014300080932F05109231051092300581E0809342
:1014400032058EE295E00895CF93DF931F92CDB7DA
:10145000DEB76983DC01ED91FC910280F381E02D20
:1014600041E050E0BE016F5F7F4F09950F90DF9123
:10147000CF91089583E08093E9008091F200882362
:1014800019F08AE38093E80008950E94FF0990E034
:101490000895CF93DF931F92CDB7DEB7FC0184850B
:1014A000958597FD08C02FEF3FEF358724870F9074
:1014B000DF91CF910895CE0101960E94D509019741
:1014C00019F4898190E0F3CF8FEF9FEFF0CF0F9366
:1014D0001F93CF93DF931F92CDB7DEB78C01FC0132
:1014E0008485958597FF0BC0CE0101960E94D50992
:1014F000019771F4898190E0F80195878487F8015C
:10150000848595850F90DF91CF911F910F9108955C
:101510008FEF9FEFF1CFFC018485958597FD0BC080
:101520009FB7F89482E08093E9008091F2009FBF1A
:1015300090E0019608959FB7F89482E08093E900C7
:101540008091F2009FBF90E008954091280550914E
:101550002905209126053091270542175307B4F439
:101560009091E8009570E1F39091E80092FD19C028
:101570008093F100809128059091290501968F7341
:101580009927892B19F48EEF8093E8008091280524
:10159000909129050196909329058093280581E073
:1015A000089580E00895DF92EF92FF920F931F93CA
:1015B000CF93DF93D82E8A01EB017B01E40EF51E59
:1015C000CE15DF0559F0D7FE12C0FE0184910E94AE
:1015D000A50A21968111F4CF0FEF1FEFC801DF910B
:1015E000CF911F910F91FF90EF90DF900895888128
:1015F000EECF0F931F93CF93DF931F92CDB7DEB73C
:1016000082E0898342E450E06EE079E080E80E9465
:10161000D30A0E94100ADC0112960D911C9101154B
:10162000110589F0D801ED91FC910280F381E02D44
:10163000BE016F5F7F4FC801099597FD04C0F80197
:1016400000851185ECCF89810F90DF91CF911F919B
:101650000F910895615030F02091F100FC0120833A
:101660000196F8CF289884E680933A050895089566
:101670003FB7F8948091310190913201A0913301EC
:10168000B091340126B5A89B05C02F3F19F00196F3
:10169000A11DB11D3FBFBA2FA92F982F8827BC01CC
:1016A000CD01620F711D811D911D42E0660F771FF4
:1016B000881F991F4A95D1F708958F929F92AF92F4
:1016C000BF92CF92DF92EF92FF926B017C010E945A
:1016D000380B4B015C01C114D104E104F104B9F0F1
:1016E0000E94380B681979098A099B09683E734082
:1016F0008105910580F321E0C21AD108E108F108C3
:1017000088EE880E83E0981EA11CB11CE4CFFF90E8
:10171000EF90DF90CF90BF90AF909F908F90089503
:101720008F929F92AF92BF92CF92DF92EF92FF92F1
:101730000F931F93CF93DF936C017B018A018091FC
:101740000D01882309F45CC080913B05882309F4CE
:1017500057C080912D0580FF05C08091E000826018
:101760008093E000E801B12C8AEFA82E93E0892E47
:101770002AE3922E209711F4BB20D9F10E94FF0991
:1017800081110AC0AA94AA20D9F161E070E080E03A
:1017900090E00E945D0BEECF8C171D0611F00CF04F
:1017A0008C2F9FB7F8948092E9002091E80025FDE6
:1017B00002C09FBFDFCF282F30E0C21BD30BF70141
:1017C000815020F041914093F100FACFE20EF31ED8
:1017D000BB2021F09092E800B12CEBCF8091E80083
:1017E00085FDE7CF9092E800BB24B394209709F3DE
:1017F000F3CF5D9884E680932C05101611063CF01B
:1018000081E090E0F6019383828310E000E0C8015C
:10181000DF91CF911F910F91FF90EF90DF90CF90CC
:10182000BF90AF909F908F9008955E9A0895BC01ED
:1018300090E080E00C945D0B43B18FB129B190E052
:101840008095909534E0959587953A95E1F7887065
:1018500030E02095309553E0359527955A95E1F77E
:101860002370822B942F9095907D892B089583B7B8
:10187000817F83BF83B7816083BF889583B78E7F65
:1018800083BF08959B0143E0359527954A95E1F77D
:1018900046E0429FF001439FF00D11249C0153E06C
:1018A000359527955A95E1F7E20FF31F73E0EE0F98
:1018B000FF1F7A95E1F787708E0F9F2F911D67703C
:1018C00021E030E001C0220F6A95EAF740918303DE
:1018D000E4EAF5E0413031F0E4E8F4E0423011F0C0
:1018E000E4ECF6E0E80FF91FE491E22381E009F46B
:1018F00080E0089587FD17C070E0603471059CF4A6
:10190000E6E4F2E090E1969FD001A0781124A80FC0
:101910006770E60FF11D9491A45CBA4F442321F047
:101920008C91982B9C93089590958C919823FACF45
:10193000CF92DF92FF920F931F93CF93DF9328E014
:10194000829FC0011124C62F10E000E09C012658A0
:10195000364F6901F601E00FF11FD49187E3F82EAD
:101960004D2F4170D6956F2D8C2F0E947A0CF394D9
:101970003FE3F312F5CF0F5F1F4FCF5F0830110524
:1019800049F7DF91CF911F910F91FF90DF90CF909A
:10199000089580FF07C090912005992319F0915078
:1019A0009093200582FF07C090912105992319F09B
:1019B00091509093210581FF07C0909120059F329F
:1019C00018F49F5F9093200583FF07C08091210545
:1019D0008F3218F48F5F80932105089582FF07C02E
:1019E00090912305992379F091509093230583FFDB
:1019F00010C0809123056150770B8617170631F4CC
:101A00001092230508959FEF960FEFCF8F5F80937D
:101A100023050895CF93DF93EB01DA0125E0AC01B4
:101A2000249FC001259F900D1124FC01E450F84F24
:101A300024918350984FFC01849190912005992323
:101A400011F140E350E0421B5109E92FE150FF0B37
:101A500091504E175F0714F490E3921B9883909176
:101A600021059923A9F020E330E0281B3109692FD3
:101A70006150770B2617370744F490E3981B9C932B
:101A8000DF91CF9108951882EACF91509C93F8CFBF
:101A90001C92F6CF2091000130910101C901969569
:101AA000879520FF02C024EB922790930101809339
:101AB0000001019708952F923F924F925F926F928B
:101AC0007F928F929F92AF92BF92CF92DF92EF92CE
:101AD000FF920F931F93CF93DF93CDB7DEB7299774
:101AE0000FB6F894DEBF0FBECDBF805290E0880FD6
:101AF000991FFC01EA57FE4F249189579E4FFC0124
:101B0000849110912E01F0912F01F98726FB222458
:101B100020F831E02326EF2EE39425FB332430F820
:101B20003326FF2EF394F3940F2F0D5F24FB4424F0
:101B300040F84326922F9095E92FE170E98323FB2B
:101B4000552450F8532622FB662460F8632621FBB7
:101B5000EE27E0F93E273A8382FB222720F9F1E0C5
:101B6000F227FB8388248394810E32E0932E910E1A
:101B700043E0A42EA10E54E0B52EB10E65E0C62EB2
:101B8000C10E792E771C7724771CD82ED694282F57
:101B900020952C83382F32953695369533703D83BA
:101BA000982F9295969597709E83E82FE295EF7007
:101BB000EF83F82FF695F695F695F88780FFA2C08B
:101BC00041E0612F89850E947A0C41E0612F8E2DC2
:101BD0000E947A0C41E0612F8F2D0E947A0C41E027
:101BE000612F802F0E947A0C472D682D89850E94D5
:101BF0007A0C422D682D8E2D0E947A0C432D682D73
:101C00008F2D0E947A0C41E0682D802F0E947A0C63
:101C1000442D692D89850E947A0C452D692D8E2DC4
:101C20000E947A0C462D692D8F2D0E947A0C41E07E
:101C3000692D802F0E947A0C4A816A2D89850E9425
:101C40007A0C49816A2D8E2D0E947A0C41E04D2537
:101C500041706A2D8F2D0E947A0C41E06A2D802FF1
:101C60000E947A0C4C81441F4427441F6B2D8985A8
:101C70000E947A0C4D8121E0422741706B2D8E2D00
:101C80000E947A0C4E8131E0432741706B2D8F2DDD
:101C90000E947A0C41E06B2D802F0E947A0C4F81BC
:101CA00081E0482741706C2D89850E947A0C91E073
:101CB000E8859E27492F41706C2D8E2D0E947A0C4D
:101CC0004B816C2D8F2D0E947A0C41E06C2D802F62
:101CD00029960FB6F894DEBF0FBECDBFDF91CF912E
:101CE0001F910F91FF90EF90DF90CF90BF90AF903A
:101CF0009F908F907F906F905F904F903F902F902C
:101D00000C947A0C472D612F89850E947A0C422D04
:101D1000612F8E2D0E947A0C432D612F8F2D0E94F2
:101D20007A0C41E0612F802F0E947A0C442D682D9F
:101D300089850E947A0C452D682D8E2D0E947A0C83
:101D4000462D682D8F2D0E947A0C41E0682D802F42
:101D50000E947A0C4A81692D89850E947A0C4981FA
:101D6000692D8E2D0E947A0C41E04D254170692D20
:101D70008F2D0E947A0C41E0692D802F0E947A0CF1
:101D80004C81441F4427441F6A2D89850E947A0C88
:101D90004D81F1E04F2741706A2D8E2D0E947A0C03
:101DA0004E8121E0422741706A2D8F2D0E947A0CCE
:101DB00041E06A2D802F0E947A0C4F8131E0432749
:101DC00041706B2D89850E947A0C81E09885892766
:101DD000482F41706B2D8E2D0E947A0C4B816B2DFC
:101DE0008F2D0E947A0C41E06B2D802F0E947A0C7F
:101DF00041E06C2D89850E947A0C41E06C2D8E2D7E
:101E00000E947A0C41E05DCF2F923F924F925F92F9
:101E10006F927F928F929F92AF92BF92CF92DF92FA
:101E2000EF92FF920F931F93CF93DF9300D000D0D8
:101E30001F92CDB7DEB74B015C01498340932F0160
:101E400020932E0181149104A104B10431F580E3A3
:101E50000E945B0D8981845080932F0181E08D83E6
:101E600084E20E945B0D8D818F5F0F900F900F9029
:101E70000F900F90DF91CF911F910F91FF90EF90F6
:101E8000DF90CF90BF90AF909F908F907F906F909A
:101E90005F904F903F902F9008957C016B01B7FEAB
:101EA00007C0CC24DD247601C818D908EA08FB084D
:101EB00003E010E0312C8AE0482E512C612C712C6B
:101EC000C701B601A30192010E94BB2D222E3983C6
:101ED0004A835B8380E3860F0E945B0D80912F0114
:101EE0008C83845080932F0181E0830D8D83C22CDD
:101EF000D980EA80FB8001501109C114D104E104AA
:101F0000F10469F4B7FEACCF8DE20E945B0D8C81C9
:101F1000885080932F01339433943D82A1CF0115D3
:101F2000110561F48CE20E945B0D8C8188508093D6
:101F30002F01339433943D8203E010E03D80C0CF05
:101F4000CF92DF92EF92FF920F931F93CF93DF9385
:101F500000D000D01F92CDB7DEB78C01F62E609373
:101F60002F0140932E01009781F480E30F900F9092
:101F70000F900F900F90DF91CF911F910F91FF90D5
:101F8000EF90DF90CF900C945B0D97FF07C08DE230
:101F90000E945B0D84E08F0D80932F01CE0101968E
:101FA0007C01FC0130E020E08AE0C82ED12C2F5FBC
:101FB0003F4FC801B6010E941F2E805D81938B01A7
:101FC0002530310519F00115110589F78701020F38
:101FD000131FE016F10659F0F80182918F010E945B
:101FE0005B0D80912F018C5F80932F01F2CF0F90BA
:101FF0000F900F900F900F90DF91CF911F910F9145
:10200000FF90EF90DF90CF900895CF93DF93609390
:102010002F0140932E01EC01FE018491219688232B
:1020200041F00E945B0D80912F018C5F80932F0106
:10203000F3CFDF91CF9108959F92AF92BF92CF924D
:10204000DF92EF92FF920F931F93CF93DF93D82EDF
:10205000C62E942E122FD0E0C0E0A42EB12CFF2467
:10206000FA94F20EF60ECA15DB0574F4EC2EED0CA4
:10207000402F6C2D8E2D0E947A0C402F6F2D8E2DAF
:102080000E947A0C2196EFCFC1E0D0E0812F8150E1
:10209000990B7C011FEF1D0D190DCE15DF0574F492
:1020A000BC2EBC0C402F6B2D8D2D0E947A0C402F26
:1020B0006B2D812F0E947A0C2196EFCFDF91CF916B
:1020C0001F910F91FF90EF90DF90CF90BF90AF9056
:1020D0009F9008959F92AF92BF92CF92DF92EF921E
:1020E000FF920F931F93CF93DF93982E162FF12C0F
:1020F000E12CC22ED12CA42EB12CEC14FD0494F4AE
:10210000D0E0C0E0CA15DB0544F4402F612F8C2FCE
:10211000890D0E947A0C2196F5CF8FEFE81AF80A04
:102120001F5FEBCFDF91CF911F910F91FF90EF9049
:10213000DF90CF90BF90AF909F9008959F92AF9205
:10214000BF92CF92DF92EF92FF920F931F93CF93A4
:10215000DF93D82FD62EC42EE22EF42EF80EB12CFB
:10216000A12C042F10E099249A94920E960EFA94C2
:10217000A016B10634F1AD2CAE0C10E000E0F12C4D
:10218000BB24BA94BD0EBC0CAA940E151F059CF579
:1021900040911B05400F512F511D55954795559561
:1021A0004795C42FC1706D2D600F4C2F8D2F0E944D
:1021B0007A0C4C2F6A2D8B2D0E947A0C0F5F1F4FCB
:1021C000E3CF40911B054A0D5B2D511D5595479559
:1021D00055954795C42FC1704C2F692D8D2F8A0DB1
:1021E0000E947A0C4C2F6D2D8F2D0E947A0C8FEF50
:1021F000A81AB80ABCCFDF91CF911F910F91FF9021
:10220000EF90DF90CF90BF90AF909F90089541E105
:10221000469F9001479F300D1124245C364F820F5A
:10222000931FFC01808120911B059FEE980F943035
:1022300030F4922F96959151890F83708F5E98E1BB
:10224000980F943028F4922F9695890F83708851B7
:1022500022FF05C09BEE980F9B3008F4805F089525
:10226000FF920F931F93CF93DF93DC0111969C9104
:102270001197192F12951F7085E0189F9001112456
:10228000F901E450F84FE491F901E350F84FC4919B
:10229000F901E250F84F54911296DC9112978D2F6C
:1022A000807309F449C0892F807F803221F0892F03
:1022B000807D803129F4613019F4413009F43CC04B
:1022C0007C91272F2295269526952370892F8F7034
:1022D000880F880F822B7F730FEA709FE02D1124E7
:1022E00027E6F22E8F9D202D1124E227262F30E0A5
:1022F0004C9F200D311D1124E20FF32FF11DEF70C3
:10230000FF27EA59FE4F2491ED2FE295E37030E06C
:10231000E21713068CF0840F8F9D802D1124670F18
:10232000609F402D1124842783708851DF91CF91C5
:102330001F910F91FF90089583E31930B8F7892F0B
:10234000807F803221F0892F807D803121F4DF7001
:10235000DE3038F0505D842F8295807F860F850FA8
:10236000E5CF613011F44130B1F32C91822F829589
:10237000869586958370E92FEF70EE0FEE0FE82BB0
:1023800087E6E89FE02D11242F739FEA299F202DD7
:102390001124E227262F30E04C9F200D311D1124FF
:1023A000E20FF32FF11DEF70FF27EA5AFE4F249141
:1023B00030E0D21713067CF2489F802D1124699FCC
:1023C000402D1124842787708052B0CF90E020E305
:1023D000629F800D911D1124FC0123E0F595E79586
:1023E0002A95E1F7E45CFA4F208130E08770992765
:1023F00041E050E002C0440F551F8A95E2F72423C4
:10240000352381E0232B09F480E008958033910582
:1024100038F56033710520F520E3269FF001279FF2
:10242000F00D11248E0F9F1F9C0123703327220F64
:10243000331F9595879595958795FC01E55CFE4F33
:1024400083E090E0022E01C0880F0A94EAF780959D
:102450009085892301C0440F2A95EAF7842B808751
:10246000089580339105F8F460337105E0F440E39A
:10247000469F9001479F300D1124280F391FF90105
:10248000F595E795F595E795E55CFE4F808590E03D
:1024900023703327220F331F02C0959587952A9505
:1024A000E2F78370089580E008958F929F92AF9233
:1024B000BF92CF92DF92EF92FF920F931F93CF9331
:1024C000DF93DC0111969C911197292F22952F7093
:1024D00085E0289F90011124F901E450F84F1491F0
:1024E000F901E350F84FD4910C91802F8295869595
:1024F000869583709F70990F990F982BE92EF12C78
:10250000C0E0C9F0802F8F73C82ED12C912C812C64
:10251000C0E0570121E0A21AB108811660F4B501AC
:10252000C4018C0D9D1D0E94311280FDCF5F3FEFD5
:10253000831A930AF2CF47018D0E911C80E388160F
:102540009104A4F4802F8F73A82EB12CD12CC12C10
:10255000C11660F4B401C6018A0D9B1D0E943112A0
:1025600080FDCF5F2FEFC21AD20AF2CF802F8F7378
:10257000A1F0282F2150330B5901D12CC12CCD169D
:1025800060F4B7016C0D7D1DC5010E94311280FD04
:10259000CF5F3FEFC31AD30AF2CF0F73010F11279A
:1025A000111F0033110584F4D12CC12CCD1660F419
:1025B000B7016C0D7D1DC8010E94311280FDCF5FF7
:1025C0008FEFC81AD80AF2CF8C2FDF91CF911F91CD
:1025D0000F91FF90EF90DF90CF90BF90AF909F90C2
:1025E0008F900895EF92FF920F931F93CF93DF93F5
:1025F0008C017B01D42F161617063CF4615071092B
:102600000E9431128D23C1E009F4C0E00F321105A0
:1026100044F4B701C80101960E9431128D2309F0DC
:10262000C2608FE2E816F1044CF4B7016F5F7F4F90
:10263000C8010E9431128D2309F0C46010161106E2
:1026400044F4B701C80101970E9431128D2309F0AB
:10265000C8608C2FDF91CF911F910F91FF90EF9069
:102660000895BF92CF92DF92EF92FF920F931F9344
:10267000CF93DF938C01C09708F068C16033710578
:1026800008F064C150E040E025E0C22EDA01AA0F54
:10269000BB1FA40FB51FFD01EB56FC4F2181822FFC
:1026A000807F09F449C08081982F9F73D92EE92E2D
:1026B000F12C0E151F050CF43FC08295869586956A
:1026C0008370922F9F70990F990F982BC92FD0E08C
:1026D0006C177D078CF1FD01EA56FC4F2081229595
:1026E0002F702C9D90011124F901E450F84FB49003
:1026F000F901E350F84F84912250384FF9012491A9
:10270000EB0CF11C0E151F05BCF4C80FD11D6C1786
:102710007D0794F4462F491B602F6D19CD018B5610
:102720009C4FDF91CF911F910F91FF90EF90DF9021
:10273000CF90BF900C9430114F5F5F4F42385105DE
:1027400009F0A4CF7B01C8010E943112813009F049
:1027500075C041E0B701C8010E94F212E82FF0E015
:10276000EA58FE4FC491B701C8010E94420C811182
:102770000DC08C2F8170805EDF91CF911F910F91E2
:10278000FF90EF90DF90CF90BF90089550E040E031
:10279000D5E0DA01AA0FBB1FA40FB51FBD016B5610
:1027A0007C4FFB019181892F807F09F43FC09D01FF
:1027B00029563C4FF901808186FF38C0FB0180819A
:1027C000682F6F7370E09B012150310902171307C6
:1027D0006CF1282F2295269526952370E92FEF700E
:1027E000EE0FEE0FE22B2E2F30E0C9010197E81615
:1027F000F906E4F0AA56BC4F8C9182958F708D9F9C
:10280000C0011124FC01E450F84FA491FC01E350F5
:10281000F84FE4916A0F711D601771073CF0E20FE9
:10282000F32FF11DEE15FF050CF092C04F5F5F4FC7
:102830004238510509F0ADCF85E017C08230B9F4B8
:1028400042E0B701C8010E94F212E82FF0E0EA5816
:10285000FE4FC491B701C8010E94420C811104C00F
:102860008C2F81708E5D88CF85E38C0F85CF833070
:1028700069F441E0B701C8010E94F212E82FF0E0CC
:10288000EA58FE4F849181708F5C76CFE114F10499
:1028900009F46AC0B70161507109C8010E94420C75
:1028A000D82F0F32110509F455C0B701C8010196A0
:1028B0000E94420CC82FCC24C394FFE2EF16F1040F
:1028C00039F0B7016F5F7F4FC8010E94420CC82EDC
:1028D000DD24D3940115110531F0B701C80101972A
:1028E0000E94420CD82EB701C8010E94420C8823D6
:1028F00009F1D11114C08FE4DD2009F43DCF8FE53B
:10290000CC2309F439CF87E6E89E802D11246FEAA5
:10291000069F002D1124802783708F5F2DCFC1105B
:10292000F2CF8FE6DD2009F427CF8FE7CC2309F41F
:1029300023CFE9CF87E6E89E802D11246FEA069F1A
:10294000002D1124802783708F5E16CF80E014CF76
:1029500085E18BCFCC24C394C1E08FE2E816F1046B
:1029600009F4BBCFC1E0ADCFD1E00F32110509F0C2
:102970009CCFF8CFCF93DF9390E02091D609AC01A4
:10298000421B510927FD53959A0141315105C0F46D
:1029900070E04091D509FB01E41BF10947FDF39577
:1029A000AF01399768F4E1E1E49FE001E59FD00DC4
:1029B0001124C20FD31F0E943113C45CD64F8883E9
:1029C000DF91CF9108954F925F926F927F928F9295
:1029D0009F92AF92BF92CF92DF92EF92FF920F93AE
:1029E0001F93CF93DF936C01DC011196CC91C295BC
:1029F000CF70B5E0CB9FE0011124FE01E450F84F09
:102A00000491C350D84FFE01C491F12CE12CD0E0C9
:102A100010E081E1582ED601EC918E2F829586959B
:102A20008695837011966C90B62DBF706B2E660CD8
:102A3000660C682AEC16FD06DCF54E2C6E0C912C0B
:102A4000812C712CF601A080FA2DFF73AF2E801619
:102A5000910654F5A80CB12C8091D609A81AB1089A
:102A600087FDB39421E1A216B104D0F48091D50979
:102A7000D301A81BB10987FDB395A930B10580F436
:102A80005A9E90015B9E300D1124A20EB31E442D60
:102A9000682DC6010E943011F501E45CF64F808379
:102AA000BFEF8B1A9B0ACECFEFEFEE1AFE0AB3CF21
:102AB000EF73BB24BA94BE0EE11101C0B12C0E0F0E
:102AC000111D0033110514F00FE210E0702EAA243E
:102AD000AA94A60C611001C0A12CC60DD11DC03353
:102AE000D10514F0CFE2D0E06C2E8B2C912C640138
:102AF000EA2CF12C0C151D05C4F0B701C6010E948B
:102B0000311280FF04C06A2D8C2D0E94BA14BE01C0
:102B1000C6010E94311280FF04C0662D8C2D0E94D8
:102B2000BA14FFEFCF1ADF0AE3CFCE15DF05C4F0EA
:102B3000B701C4010E94311280FF04C06E2D8B2D9D
:102B40000E94BA14B701C8010E94311280FF04C06C
:102B50006E2D872D0E94BA142FEFE21AF20AE5CFEC
:102B6000DF91CF911F910F91FF90EF90DF90CF9069
:102B7000BF90AF909F908F907F906F905F904F909D
:102B80000895EF92FF920F931F93CF93DF93D82F67
:102B9000C62F0E94BA140C2F10E0ED2EF12CD1118B
:102BA0000DC0B801C70101960E9431128823A1F01F
:102BB0006C2F81E08D0F0E94BA140EC0B801C701BE
:102BC00001970E943112882329F06C2F8FEF8D0F0F
:102BD0000E94BA14DF3228F3C11113C0B8016F5F2D
:102BE0007F4FC7010E9431128823D1F061E06C0F42
:102BF0008D2FDF91CF911F910F91FF90EF900C944B
:102C0000BA14B80161507109C7010E9431128823BA
:102C100029F06FEF6C0F8D2F0E94BA14CF32F0F2B3
:102C2000DF91CF911F910F91FF90EF9008956F92D8
:102C30007F928F929F92AF92BF92CF92DF92EF924C
:102C4000FF920F931F93CF93DF93C0911C05D091F8
:102C50001D0583E0D595C7958A95E1F7C093D60900
:102C600060901E0570901F0593E0759467949A9587
:102C7000E1F76092D5092CE3C22E29E0D22E10E0B4
:102C800000E0062C000C77080C2E000CDD0B460132
:102C9000F12CE12C5301A00EB11EB501CE018E0D19
:102CA0009F1D0E943113F40181934F01FFEFEF1A32
:102CB000FF0A81E1E816F10481F70F5F1F4FE1E1A0
:102CC000CE0ED11C0930110511F7DF91CF911F9164
:102CD0000F91FF90EF90DF90CF90BF90AF909F90BB
:102CE0008F907F906F900895EBE3F1E0119285E073
:102CF000EB31F807D9F787E08093840380E994E209
:102D000090939403809393030E94171681E080931D
:102D1000220588E1809320058093210584E890E0D6
:102D200090931D0580931C0584EA90E090931F0505
:102D300080931E0580E197E2A0E0B0E080933F0120
:102D400090934001A0934101B093420180912505E9
:102D500081608093250508958F929F92AF92BF92D4
:102D6000CF92DF92EF92FF920F931F93CF93DF9357
:102D70008C01DC0111962C91822F82958F70B5E029
:102D80008B9FC0011124FC01E450F84FC490FC015A
:102D9000E350F84FE491D8018C90882D8295869568
:102DA000869583702F70822E880C880C882A912C2F
:102DB000EE2EF12CAC2CB12CF8018081982F92953D
:102DC000969596959370C181CF70CC0FCC0FC92B7F
:102DD00097012C0F311D82169306BCF48F73C82FF8
:102DE000D0E0D8018C918F738A0D9B2D911DC8174F
:102DF000D9073CF440E0B401CE010E9406122196AE
:102E0000F0CFBFEF8B1A9B0AD7CF82818F7C828352
:102E1000F3E099E0CF129AE09295907FD801119655
:102E20008C9111978F70892B11968C93D12CF8016E
:102E3000D0818D2F829586958695837021812F7004
:102E4000220F220F282B2E0D3F2D311DC2171306E6
:102E500094F4DF73D8018C918F738C0D9D2D911D8F
:102E6000D817190634F46C2F8D2F0E94E808DF5F05
:102E7000F1CFCF5FDCCFDF91CF911F910F91FF900A
:102E8000EF90DF90CF90BF90AF909F908F9008957C
:102E9000CF92DF92EF92FF920F931F93CF93DF9326
:102EA000B0E0A0E075E0C82FD0E0062F10E0AD0143
:102EB000440F551F4A0F5B1F9A012B563C4F790157
:102EC000F9019181292F207F81F1FA01EA56FC4F07
:102ED000208122952F70279F90011124F901E45041
:102EE000F84FD490F901E350F84FC490F7012081D6
:102EF000322F3F738317C8F0E32FED0DFF27FF1F1D
:102F0000CE17DF0794F4322F32953695369533700D
:102F1000292F2F70220F220F232B621730F02C0D38
:102F20003327331F0217130744F01196A238B10557
:102F300009F0BDCF90E080E003C0CA018B569C4FE2
:102F4000DF91CF911F910F91FF90EF90DF90CF9085
:102F50000895BF92CF92DF92EF92FF920F931F934B
:102F6000CF93DF938C01DC0111969C91C92FC29500
:102F7000CF70B5E0CB9FE0011124FE01E450F84F83
:102F8000D490FE01E350F84FC490D801EC91BE2FCD
:102F9000BF73EB2EF1E02EEFB22EBB0EFB1708F045
:102FA000BB2EE295E695E695E370C92FCF70CC0F66
:102FB000CC0FCE2B8EEFF82EFC0EC23008F4FC2E78
:102FC0000E944A0DD801DC91982F927080FF4BC06F
:102FD000D295D695D695D3701196FC90BF2DBF7023
:102FE000FB2EFF0CFF0CFD2AE394E394ED0C9111F2
:102FF000EB2CD12CF8018081982F9295969596957F
:10300000937081818F70880F880F892B8C0D9D2D77
:10301000911DF81619065CF080E0DF91CF911F91A9
:103020000F91FF90EF90DF90CF90BF9008956F2D9C
:103030008E2D0E944817FC01892B99F09281892FCF
:10304000807379F48181282F207F203551F08039D9
:1030500040F49F7C90619283CF010E94E31481E051
:10306000DCCFF394C7CFDF73CE5FCC0D9111CF2DA2
:10307000ED2CF12CD8018C918F738E0D9F2D911D0D
:10308000D81719064CF66C2F8D2F0E944817FC019B
:10309000892B59F09281892F807339F48181282FEF
:1030A000207F203511F08039A0F2DF5FE3CF0F934E
:1030B0001F93CF93DF9380E190E00E94A52D83348E
:1030C00019F581E190E00E94A52D8435E9F482E1B3
:1030D00090E00E94A52D8935B9F483E190E00E942B
:1030E000A52D813389F4C4E1D0E00BE311E0CE01DA
:1030F0000E94A52DF80181938F012196C43FF3E032
:10310000DF07A9F781E001C080E0DF91CF911F9137
:103110000F910895FF920F931F93CF93DF93EC01CC
:10312000F62E08811981C8010E94A52DF81621F0FC
:103130006F2DC8010E94AD2DCE01DF91CF911F915F
:103140000F91FF9008950F931F93CF93DF9300D0BB
:10315000CDB7DEB7182F062F0E94150C88EC90E033
:103160000E94170C5E9882E090E09A838983602F1A
:10317000CE0101960E948A1884EF91E00E94170CFC
:103180000E94150C0E941C0C81231817D9F30F9074
:103190000F90DF91CF911F910F9108952F923F9241
:1031A0004F925F926F927F928F929F92AF92BF9257
:1031B000CF92DF92EF92FF920F931F93CF93DF9303
:1031C000CDB7DEB72A970FB6F894DEBF0FBECDBFDE
:1031D0005090240524E052124AC080FF07C090910D
:1031E0002305911115C09CE09093230581FF06C033
:1031F000909123059C3071F4109223058073A9F0FF
:10320000809123058B3050F48093220582E04EC0DC
:103210009150EACF9F5F90932305F0CF8B30F1F46C
:1032200085E080932405109223052A960FB6F89422
:10323000DEBF0FBECDBFDF91CF911F910F91FF90E9
:10324000EF90DF90CF90BF90AF909F908F907F9046
:103250006F905F904F903F902F9008958C3029F79A
:1032600086E08093240580E180932305DECF182F2C
:1032700033E0531203C00E94C90CD7CF511019C0BC
:1032800062E00E94EE0C15FFD0CF809123058823C9
:1032900061F0813051F60E945718882331F282E0A4
:1032A000809324050E941716C0CF81E080932405E7
:1032B000BCCF41E0541222C080FF07C0809183033D
:1032C000811116C082E08093830311FF06C08091B4
:1032D0008303823079F41092830315FFA6CF1091F7
:1032E00083030E947416109383030E9417168ECFD7
:1032F0008150E9CF8F5F80938303EFCF85E0581231
:103300005DC064E0812F0E94EE0C14FF03C082E0D8
:103310008093240515FF89CF80912305813009F41E
:10332000BACF78F0823009F4C0CF833009F07DCF76
:1033300090912505892F8E7F90FF816080932505D0
:1033400074CF80E190E09A83898363E4CE01019693
:103350000E948A1881E190E09A83898364E5CE0116
:1033600001960E948A1882E190E09A83898369E538
:10337000CE0101960E948A1883E190E09A838983A6
:1033800061E3CE0101960E948A18ABE3EA2EA1E028
:10339000FA2E04E110E0F701D1907F01C8010E94EC
:1033A000A52DD81621F06D2DC8010E94AD2D0F5FFF
:1033B0001F4F043FF3E01F0771F728CF22E052129E
:1033C000DCC2812F0E94C90C14FF07C084E08093E7
:1033D0002405809122058093230515FF26CF309187
:1033E00022053C83311172C0009121051091200506
:1033F000602F812F0E9448170097B1F1FC012181B5
:1034000022952F70293080F5F5E02F9F900111242F
:10341000F901E450F84F44912350384FF9012491B9
:10342000C0903F01D0904001E0904101F0904201F6
:10343000429FA0011124052E000C660B770BC416C9
:10344000D506E606F7060CF4F0CEC41AD50AE60A4D
:10345000F70AC0923F01D0924001E0924101F09200
:1034600042010E94AC16E1CEC02ED12CE12EF12CEF
:10347000B601C7010E943112882309F4D6CE80918B
:103480003F0190914001A0914101B0914201181675
:1034900019061A061B060CF0C8CE0197A109B1093E
:1034A00080933F0190934001A0934101B09342016A
:1034B00040E0B601C7010E940612602F812F0E94D2
:1034C000C115602F812F0E94E808AFCEFC81F33038
:1034D00008F0C5C0B0902105A09020056B2D8A2D65
:1034E0000E9448176C01009729F0FC018181803906
:1034F00008F49BCEFC81E5E02E2E312CF13029F42E
:1035000055245394FAE02F2E312CEB2CF12C0A2D5C
:1035100010E0B701C8010E943112682EB701C8013E
:103520000E94420C8823A1F1852D862109F07DCED1
:1035300040913F01509140016091410170914201E1
:10354000C101330CAA0BBB0B481759076A077B074D
:103550000CF46BCE481B590B6A0B7B0B40933F015D
:10356000509340016093410170934201452D4629DB
:10357000B701C8010E940612C114D10421F0F6015E
:1035800081818F7081836B2D8A2D0E94C1154DCE54
:1035900061104BCE452DB701C8010E94F212782E62
:1035A0008FEF870D823048F08CEF870D823028F046
:1035B000872D8D7F883009F038CE70FC3DC071FEBC
:1035C00012C048013FEF831A930AB701C4010E9459
:1035D000420C811108C0452DB701C4010E94F212AE
:1035E000857009F022CE72FE12C047014FEF841A97
:1035F000940AB401C8010E94420C811108C0452DF3
:10360000B401C8010E94F2128A7009F00ECE73FE56
:103610008BCF480181E0881A9108B701C4010E944C
:10362000420C811181CF452DB701C4010E94F212D5
:10363000857009F479CFF9CD470121E0821A91080C
:10364000B401C8010E94420C8111B9CF452DB401CB
:10365000C8010E94F2128A7009F4B1CFE6CD2C8124
:103660002250330B8901AE014F5F5F4FBE016D5F8A
:103670007F4FC9010E940A0D25E0209FC001219FB4
:10368000900D1124FC01E650F84F25903490FC0178
:10369000E450F84FFE83ED8304919C012350384F92
:1036A00038872F83F901C4906B80712C060D172D7C
:1036B000111D013311050CF0B8CDE980F12CCE0CB1
:1036C000DF2CD11CF1E3CF16D1040CF0AECD5301A9
:1036D000A016B106CCF447018C149D048CF4B401FF
:1036E000C5010E94420C882309F49FCDB401C50195
:1036F0000E94311280FD99CD2FEF821A920AECCFF1
:103700003FEFA31AB30AE4CF50E040E065E0CA01FE
:10371000880F991F840F951FDC01AB56BC4F119683
:103720003C911197232F207F99F18A569C4FFC01E1
:10373000808182958F70893058F5869FC001112451
:10374000FC01E450F84F74918350984FFC01849130
:103750009C91E92FEF73F0E0E017F107CCF4E70F4D
:10376000F11D6E167F06A4F492959695969593702A
:10377000232F2F70220F220F292B30E02C153D050F
:103780003CF4820F932F911DE816F9060CF44DCDF1
:103790004F5F5F4F4238510509F0B9CF3101912C8D
:1037A000812C80913F0190914001A0914101B09105
:1037B000420186159705A805B9050CF436CD498058
:1037C0003B8190E080E0FC01EE0FFF1FE80FF91F46
:1037D000EA56FC4F208122952F70C9F0019682385D
:1037E000910589F790E080E0FC01EE0FFF1FE80FE4
:1037F000F91FEA56FC4F208122952F70295F2F7008
:10380000223028F001968238910571F70ECD2C8177
:103810002250FC01EE0FFF1FE80FF91FCF018B565E
:103820009C4F9A878987FC01832F8F73942D9295E3
:10383000990F990F907C892B8083942D969596955E
:103840009F70822F8295807F892B818382818074F3
:103850008283ED81FE818491EF81F885F491FC8370
:10386000253009F4512C232E312C81015101A80E51
:10387000B11CC42CD12C2C812C0D3D2D311D3E832F
:103880002D830A151B0594F476018D819E81E8161F
:10389000F9064CF4452DB701C8010E9406129FEFAE
:1038A000E91AF90AF2CF0F5F1F4FEBCF70E060E02B
:1038B00095E0C92E512C7201EC81EE0EF11C9B019A
:1038C000220F331F260F371FF901EA56FC4F808164
:1038D00082958F70893090F18C9DC0011124FC017C
:1038E000E450F84FD490FC01E350F84FE491D90133
:1038F000AB56BC4F2C91022F0F7310E00A151B051D
:10390000ECF40D0D111D20163106C4F422952695F8
:103910002695237011969C9111979F70892F880F7F
:10392000880F282B30E02E153F0544F4E20FF32FCB
:10393000F11D4E165F0614F411969C936F5F7F4F36
:103940006238710509F0BBCF89859A850E94E3141E
:1039500080913F0190914001A0914101B0914201BD
:1039600086199709A809B90980933F0190934001EE
:10397000A0934101B093420158CCF6E05F1255CCC0
:1039800080912305803108F450CC10FF07C080914E
:103990008403882319F081508093840311FF07C0AA
:1039A00080918403833618F48F5F809384031073AF
:1039B00009F02CCC3ACC1F920F920FB60F92112423
:1039C0008F939F938091E1009091E100937F90937A
:1039D000E10083FF0FC01092E90091E09093EB00AB
:1039E0001092EC0092E39093ED0010923B0598E06A
:1039F0009093F00082FF22C093E09093E9009091B1
:103A0000F200992319F09AE39093E80090912C0525
:103A1000992341F090912C05915090932C05911190
:103A200001C05D9A90913A05992341F090913A0531
:103A3000915090933A05911101C0289A84FF18C0C3
:103A40008091E2008E7E81608093E2008091E100AF
:103A50008F7E8093E10080912D058E7E8061809322
:103A60002D059F918F910F900FBE0F901F9018956D
:103A700080FFF7CF8091E2008E7E80618093E2002C
:103A80008091E1008E7E8093E10080912D058E7EF5
:103A90008160E5CF1F920F920FB60F921124CF9243
:103AA000DF92EF92FF920F931F932F933F934F93C9
:103AB0005F936F937F938F939F93AF93BF93EF9396
:103AC000FF93CF93DF93CDB7DEB76C97DEBFCDBF4B
:103AD0001092E9008091E80083FF25C068E0CE01E4
:103AE00045960E942A0B82EF8093E8008D8987FF1C
:103AF00039C09091E80090FFFCCF982F907609F0A4
:103B000034C19E894F89588D2F89F88C911131C00D
:103B1000803861F580912B058093F1001092F100BF
:103B20008EEF8093E8006C960FB6F894DEBF0FBE60
:103B3000CDBFDF91CF91FF91EF91BF91AF919F9159
:103B40008F917F916F915F914F913F912F911F9135
:103B50000F91FF90EF90DF90CF900F900FBE0F90DE
:103B60001F9018959EEF9093E800C7CF1092F10038
:103B7000D5CF913059F48111D3CF4130510581F621
:103B800080912B058D7F80932B05CACF933049F40C
:103B90008111C6CF4130510519F680912B05826005
:103BA000F2CF953041F48091E80080FFFCCF20688F
:103BB0002093E300B5CF963009F0A9C00B8D1C8D82
:103BC00022E01092E9001092290510922805F212C5
:103BD0002EC010922705109226050E94F90A1F8216
:103BE00099E09983FA8291E09E8390EA98879AEF10
:103BF00099872091280530912905275F3F4F3C8305
:103C00002B838D831092E9001092290510922805CC
:103C1000109327050093260549E050E0BE016F5F31
:103C20007F4F80E00E94D30A0E94F90A79CF109357
:103C30002705009326050E94100ADC0112960D91BB
:103C40001C910115110509F451C1D801ED91FC91A8
:103C50000480F581E02DBE016B5E7F4FC8010995A0
:103C6000009709F03EC1F80100851185EACFF3E025
:103C7000FF120EC08F89882309F440C0823061F49E
:103C800040E867E082E799E00E94C61F811148CFB3
:103C900081E28093EB0047CF813029F440E86BE06C
:103CA00086E699E0F1CF833099F70E94100ADC0193
:103CB0001296ED90FC908E010F5F1F4F6801E1148A
:103CC000F10479F0D701ED91FC910680F781E02DA8
:103CD000B801C7010995080F111DF701E084F184AF
:103CE000EECFD8011C92F60101900020E9F7319740
:103CF000BF016C197D0940E0C601C6CF60E579E0DF
:103D0000FB01449150E080E80E94D30A09CF97302C
:103D100009F4BECF983021F481E08093F10000CF08
:103D2000993009F0FDCE837009F0B2CFEFE0F1E0F9
:103D300081E031E096E32191222371F08093E90044
:103D40003093EB00DF0111972C912093EC009093BE
:103D5000ED008F5F873079F78EE78093EA0010924D
:103D6000EA008F8980933B05DBCE8B8D9C8D109272
:103D7000E900109229051092280590932705809359
:103D80002605898D811192C08E899D89913A49F4C9
:103D9000813209F07DCF47E050E066E071E080E0DD
:103DA000B3CF913209F074CF833269F48F89988D43
:103DB000B0E0A0E08093020190930301A09304017E
:103DC000B0930501ADCE803269F48091E80082FFA6
:103DD000FCCF67E086E091E00E942A0B8BEF809396
:103DE000E8009ECE823209F09BCE8F8980930D0130
:103DF000EEEFFFE7859194918B3F9C4D51F1E0E010
:103E0000F8E08091060190910701A0910801B0911E
:103E10000901803B9440A105B105F1F480910D01A9
:103E200080FD1AC0EE3F8AE0F80789F587E797E73B
:103E3000918380838091600080932A0588E19BE0D4
:103E40000FB6F894A895809360000FBE9093600021
:103E500067CEEEEFFAE0D5CF808191818737974723
:103E600009F05ECEA8958091600088618093600023
:103E700080912A0580936000EE3F2AE0F20789F0E6
:103E80008091FE0A9091FF0A9183808349CE8081C0
:103E900091818737980751F29093FF0A8093FE0A29
:103EA000C5CF1092FF0A1092FE0A3ACE0E94100A65
:103EB000DC0112960D911C910115110509F4E8CE53
:103EC000D801ED91FC910190F081E02DBE016B5E77
:103ED0007F4FC8010995811123CEF8010085118516
:103EE000EBCF181619060CF41BCED2CEF1E0FF1260
:103EF000BECE64E579E004CF1F920F920FB60F9209
:103F000011242F933F938F939F93AF93BF938091EF
:103F1000350190913601A0913701B091380130916F
:103F2000300123E0230F2D3758F50196A11DB11D57
:103F3000209330018093350190933601A09337018F
:103F4000B09338018091310190913201A0913301F9
:103F5000B09134010196A11DB11D80933101909360
:103F60003201A0933301B0933401BF91AF919F917F
:103F70008F913F912F910F900FBE0F901F9018952A
:103F800026E8230F0296A11DB11DD2CFEF92FF921A
:103F90000F931F93CF93DF93F82E192FE62E042F44
:103FA00081E0860F880F0E94A50A83E00E94A50A7F
:103FB000CF2DD12FEC0EFD2EF11CCE15DF05B9F063
:103FC00007FF13C0FE0184910E94A50A182F80E00C
:103FD0000E94A50A812321968111EFCFDF91CF9115
:103FE0001F910F91FF90EF9008958881EDCF81E0B0
:103FF000F5CFE7EDF9E01382128288EE93E0A0E0BE
:10400000B0E084839583A683B78389E191E09183AF
:1040100080838FEF9FEF95878487E7E2FAE02BE2BA
:1040200031E0318320831582168220E12783948337
:1040300083831486158616861786108A0895CF9373
:10404000DF93CDB7DEB762970FB6F894DEBF0FBE31
:10405000CDBF789484B5826084BD84B5816084BD11
:1040600085B5826085BD85B5816085BD80916E0016
:10407000816080936E001092810080918100826047
:104080008093810080918100816080938100809184
:104090008000816080938000809191008260809395
:1040A00091008091910081608093910080919000B7
:1040B0008160809390008091C10084608093C100F2
:1040C0008091C10082608093C1008091C1008160B5
:1040D0008093C1008091C30081608093C300809170
:1040E000C00082608093C0008091C2008160809394
:1040F000C20080917A00846080937A0080917A0077
:10410000826080937A0080917A00816080937A0047
:1041100080917A00806880937A0010923B0510921B
:104120002B0510922D058091D70081608093D700D8
:1041300080EA8093D80089B5806189BD89B58260A5
:1041400089BD09B400FEFDCF61E070E080E090E041
:104150000E945D0B8091D8008F7C80618093D80095
:104160008091E000807F8093E0008091E1008E7E6E
:104170008093E1008DE08093E200559A209A68E8F0
:1041800073E180E090E00E945D0B81EC80937C0005
:1041900085B1886485B9239884B1866484B9589AB6
:1041A000899880B3836180BB8F9A85B1806D85B912
:1041B0008BB188618BB9879A84B18F6284B98AB1D7
:1041C000876E8AB92D9A84B18F6D84B98EB18F6B49
:1041D0008EB98DB18F6B8DB9259A259A80E58CBDEE
:1041E00081E08DBD85E090E00E94170C899A85E002
:1041F00090E00E94170C88988C98EEE4F2E08BE532
:1042000092E024912EBD00000DB407FEFDCF319643
:104210008E179F07B1F78C9A81E88093640081E044
:10422000809365000E941C0C83FF13C08C9885EA64
:104230008EBD00000DB407FEFDCF8C9A5E985E988F
:104240005E98809164008062809364000E94370CC5
:10425000FDCF0E941C0C80FF16C05E980E941C0CB3
:104260008970893019F46FEF0E94A3180E941C0C0A
:104270008370833019F460E00E94A31888EC90E00A
:104280000E94170CE6CF0E94150C5E98FEEEEF2EF2
:10429000FF24FA9410E0ACE3CA2EA5E0DA2E0E94C7
:1042A0001C0C86FF27C05E9A5E9A0E94150C88E25D
:1042B00080932E0A0E9474162FB7F89480913501CE
:1042C00090913601A0913701B09138012FBF209114
:1042D000370A222309F44DC020912F0A821B8093B4
:1042E000380A1092370A80E090E0892B29F30E9467
:1042F0000000E2CF2CEFE2162FEFF20621F40E942D
:10430000150C5E9804C038E1E316F104C1F3812F67
:10431000F60181118FEF0024819381938193819322
:104320000394D1F700E128E54BE552E0B70184E1C1
:1043300090E00E940A090E94C2098BE190E00E946D
:10434000170C40EFE4164FEFF40621F48AEF90E0EB
:104350000E94170C5FEFE51AF50A69E1E616F10411
:1043600009F09DCF8CEB92E00E94170C0E94150C77
:104370009ECF4091330A5091340A6091350A709172
:10438000360A84179507A607B70738F4481B42304A
:1043900008F4A9CF0E94370CA6CF21E02093370A5A
:1043A00080932F0A9093300AA093310AB093320A77
:1043B00020912E0A820F911DA11DB11D8093330AF9
:1043C0009093340AA093350AB093360A80912A0A52
:1043D00090912B0A019690932B0A80932A0A809140
:1043E0002405823019F0843009F017C680913E010F
:1043F000823808F0B7C3E82EF12C73E0879FC00124
:104400001124DC01AB56BC4F5D014701880C991C9F
:1044100094012E0D3F1DF901EB56FC4F9281892F1F
:10442000807309F44CC1D901AA56BC4F8C918039D4
:1044300008F493C029563C4FD9018C9182958F7016
:104440008D5F83708295807F9F7C892B82830E9401
:104450004A0D813418F0C5010E94A917C5010E94B8
:10446000E31480913E018F5F80933E01809193031E
:104470009091940301979093940380939303892BD5
:1044800009F0CBC502E810E00E944A0D9927823856
:1044900091050CF04BC69C01220F331F820F931F16
:1044A000FC01EA56FC4F208122952F7009F43EC68C
:1044B000FC01E956FC4F30813295337009F036C665
:1044C000293008F033C6253009F430C68C010B566C
:1044D0001C4FD80112962C9112972F7C20611296B6
:1044E0002C93C8010E94E314F8012081922F929529
:1044F00096959695937081818F70880F880F892B80
:104500008F5F2F732F5F2093200580932105F8E0A4
:104510002F9F900111242C53310930931D052093B6
:104520001C0528E0829FC00111244C9790931F0521
:1045300080931E0583E0809324058CE380932305FC
:104540000E944A0D60E678E10E940B2E805D934F39
:10455000909394038093930360C50FEF30E020E0C5
:10456000C901880F991FAC01420F531FBA016B5646
:104570007C4F6B01DB0111966C91607F603799F580
:1045800049565C4FDA014C9147FF2DC050815F7353
:10459000D6014C914F73451708F059C0541B452F55
:1045A0005081652F629566956695637051815F7045
:1045B000550F550F562B820F931FDC01AB56BC4F86
:1045C0008C91982F929596959695937011968C91C3
:1045D0008F70880F880F892B8517D8F5581B540FBB
:1045E000501708F4052F2F5F3F4F2238310509F08F
:1045F000B7CFB5E00B9F80011124005C1F4F0F3F28
:10460000110509F04CF50E944A0D8017110621F1A1
:1046100018F1C4018E0D9F1DFC01EB56FC4F89560D
:104620009C4FDC018C9182958F708D5F8370829599
:10463000807F92819F7C892B8283F401EE0DFF1D88
:10464000EB56FC4F82818F7B828380E0CDC1451B7E
:10465000A7CF851B582FC3CF0E944A0D8134D8F0B5
:104660000E944A0D803448F794012E0D3F1D8901A8
:104670000B561C4FF8019281892F8073803389F487
:10468000C5010E94AC16D80112968C9112978063D6
:1046900012968C93D2CFC5010E94A917882301F3EB
:1046A000CCCF29563C4FF901808182958F708F5F66
:1046B00083708295807F9F7C892BD801E9CF81818F
:1046C000982F907D903121F0807F803209F0BDCF0E
:1046D00084010E0D1F1DF801E956FC4F808187FFF4
:1046E0001AC20E944A0D209184032650330B66EFB4
:1046F0006203A001639F500D11248F7199270F97BA
:10470000480F591FF801EA56FC4F908192959F700F
:10471000923009F4C2C09330D9F09130B1F4809155
:104720008503909186032091870330918803821737
:10473000930700F16091890370918A03260F371F58
:104740000CE91FEF28173907B8F010E000E014C09B
:10475000809187039091880320918503309186038F
:104760008217930738F02091890330918A038217CA
:10477000930758F70AE010E0FA01E00FF11FFC87F9
:10478000EB87C5010E945512833008F4BDC1F401C6
:10479000EE0DFF1DEB56FC4F82818F7031F42B859F
:1047A0003C85215F3F4F3C872B8745E953E05C8385
:1047B0004B8310E000E0312C212C58E15F83712CF9
:1047C000612CC4018E0D9F1DBC016B567C4F2B01CB
:1047D000DC01A956BC4FBE87AD87EB81FC81AE16CC
:1047E000BF0609F49FC06301CC0CDD1CC601860D19
:1047F000971DFC01EB56FC4F2181207F09F492C0EC
:1048000089569C4FDC018C9187FD03C0203509F04F
:1048100089C0F601E60DF71DEB56FC4F82818073CF
:1048200009F080C0D2019C919F7380818F7389179A
:1048300008F044C0981B892FF201308132953695DB
:104840003695337091819F70990F990F392BF6012E
:10485000E60DF71DEB56FC4F9081492F429546958A
:104860004695437091819F70990F990F942B9317E0
:1048700038F5391B932F890F203621F5FF818F17CB
:1048800008F48F83F601E60DF71DE956FC4F908181
:1048900096FF2CC028E030E022C0809189039091DF
:1048A0008A0320918503309186038217930708F4C9
:1048B00061CF209187033091880359CF891BBCCFEA
:1048C000931BD9CF203309F0BCC0F601E60DF71DCC
:1048D000E956FC4F20812F7030E0285F3F4F281BA6
:1048E00031091216130614F4220E331E8132D0F44D
:1048F0008B819C810E9455128330A0F0C601860DE9
:10490000971DFC01EA56FC4F208122952F70233021
:1049100009F4AFC008F09BC0213009F4C8C02230B0
:1049200009F4D6C0FFEF6F1A7F0A2B813C812D5FFF
:104930003F4F3C832B8332E86316710409F04DCF5F
:104940006B857C85060F171FF401EE0DFF1DEB56DE
:10495000FC4F8181807F803151F4910123333105F7
:1049600014F022E330E0220F331F021B130BF4017B
:10497000EE0DFF1DE956FC4F40814F70AF81A051F5
:10498000BB0B4A9F90014B9F300D112437FF02C093
:1049900030E020E02333310514F022E330E0021B45
:1049A000130BF401EE0DFF1DEB56FC4F92819F702F
:1049B0009F3039F081E0043111054CF480E09923F7
:1049C00031F081E0033E1F4F0CF080E08195F4014F
:1049D000EE0DFF1DEB56FC4F21E04D3008F420E0BA
:1049E000928120FB96F9928394012E0D3F1DF901CF
:1049F000EB56FC4FD901A956BC4F9C91980F492FFB
:104A00004F709281907F942B92832A563C4FF901EC
:104A1000908192959F70923009F497C0933009F479
:104A200087C0913009F01ACD20918503309186031B
:104A3000280F311D87FD3A95309386032093850317
:104A40000DCD203409F01ECF20E230E048CF2530D4
:104A500009F451C0283009F065CFD20111968C912C
:104A6000807F803119F0803209F05CCF0C591F4FE4
:104A700059CF89569C4FDC019C919F70ED85FE8536
:104A800080818F70981748F0D20111962C91207F69
:104A9000203119F40C5F1F4F45CF891708F042CF22
:104AA000F2018181807F803209F03CCFF3CF8956BB
:104AB0009C4FDC019C919F70ED85FE8580818F70FD
:104AC000891708F02FCFD20111968C91807EEBCF01
:104AD00089569C4FFC0190819F70AD85BE858C915D
:104AE0008F70981708F41ECFF2018181807F80318A
:104AF00009F018CFCFCFF2018181807F803109F09A
:104B000011CF0B5F1F4F0ECF10E000E0312C212C96
:104B100048E14F8315CFF801EB56FC4F82818F7B24
:104B200082838F7091E009F490E0892F81955CCFAA
:104B30002091870330918803280F311D87FD3A9516
:104B4000309388032093870389CC20918903309187
:104B50008A03280F311D87FD3A9530938A032093ED
:104B600089037CCC833809F42BC1843809F46AC1E9
:104B7000823809F076CCECE3F5E08CE596E0119212
:104B80008E179F07E1F7D12CC12CF601EE0FFF1F06
:104B9000EC0DFD1DDF01AA56BC4F8C9182958F70E4
:104BA000843009F040C0EB56FC4F9081292F2295AC
:104BB00026952695237081818F70880F880F822B10
:104BC0009F7390935C0680935D063EE5E32E36E08E
:104BD000F32E662463945701F2E0AF1AB108D501B1
:104BE0007C906A94F7013197508010E000E0E52C4A
:104BF000052C000CFF08872C912C57FC49C0B701ED
:104C0000601B710BC4010E94311281FF41C0652DF0
:104C1000872D0E94E6110F5F1F4F811139C05A94F2
:104C2000ECCF6110D8CF5FEFC51AD50A62E8C6167F
:104C3000D10409F0AACFF12CE12C8701000F111F3C
:104C40000E0D1F1DF801EA56FC4F808182958F7072
:104C5000B9F00B561C4FD8018C91982F92959695D0
:104C60009695937011966C916F70660F660F692B15
:104C70008F730E94E611F801928180FB97F992836D
:104C8000FFEFEF1AFF0A22E8E216F104B1F6E9CBD2
:104C9000812C1B8211E0150D7501312C212CA12EC8
:104CA000012E000CBB08BE86AD86472C512C92010C
:104CB00021503109388B2F8799249A94970C9F8221
:104CC0002E5F3F4F3A8B298B99249394970C9B86A8
:104CD00010330CF0A6CFAD84BE84A20CB31CB5017A
:104CE000C2010E94311281FF9CCF612F872D0E944B
:104CF000E611082F811195CFC20120E3129F800D8C
:104D0000911D1124FC0123E0F595E7952A95E1F723
:104D1000E45CFA4F8770992721E030E001C0220F50
:104D20008A95EAF78081822B8083B5018F859889E7
:104D30000E943112912C81FF07C0612F8F810E9448
:104D4000E6119924939498263B81311128C077204D
:104D500049F1992051F0EF81D701EC9311961C9302
:104D6000639497012E5F3F4F7901B50189899A8934
:104D70000E94311281FFDCC6612F8B850E94E611F3
:104D80008111D6C6882081F0082D3EE23715B0F09B
:104D90004FEF241A340A1F5F802E9B8299CF31E097
:104DA0007312E3CF912CE1CF8B84D7018C921196B3
:104DB0001C93639497012E5F3F4F790101E0E8CF88
:104DC00050E040E070E060E0F0E0E0E030E020E063
:104DD000C901880F991F820F931FDC01AA56BC4F8F
:104DE000AC91A295AF70A23029F1A330D9F0A130D7
:104DF00039F489569C4FDC018C918F70480F511DFE
:104E00002F5F3F4F2238310519F7F0938803E09365
:104E1000870370938A0360938903509386034093BA
:104E200085031FCB89569C4FDC018C918F70E80F56
:104E3000F11DE6CF89569C4FDC018C918F70680F75
:104E4000711DDECF10923E0180913D018F5F8093F6
:104E50003D018C3008F4E1C010923D0180913B018E
:104E600090913C01019690933C0180933B0180918D
:104E7000850390918603880F991F209189033091B3
:104E80008A03820F931F41E1489F9001499F300D93
:104E90001124A0918403B0E00E94FC2D24E630E0B0
:104EA00040E050E00E94BB2D29013A0140928B0363
:104EB00050928C0360928D0370928E03C0903F01DC
:104EC000D0904001E0904101F0904201C40CD51C0B
:104ED000E61CF71C30E020E090E080E0FC01EE0FE3
:104EE000FF1FE80FF91FEA56FC4F408142954F70B3
:104EF000463009F016C12F5F01968238910571F78F
:104F00003093900320938F0344E6349FC001112413
:104F10004C01990FAA08BB088B829C82AD82BE828D
:104F2000249F900111244901330FAA08BB088F82E6
:104F30009886A986BA868B809C80AD80BE80C81872
:104F4000D908EA08FB088F809884A984BA84C81815
:104F5000D908EA08FB08C0923F01D0924001E092D4
:104F60004101F0924201912C812C10E000E0B12C23
:104F7000A12CB801C5010E94311280FF03C02FEFA0
:104F8000821A920A3FEFA31AB30A40E3A416B104AF
:104F900081F70F5F1F4F0033110549F7C4016AE025
:104FA00070E00E941F2E7093920360939103CB01D7
:104FB000B0E0A0E0C81AD90AEA0AFB0AC0923F0191
:104FC000D0924001E0924101F0924201481A590A00
:104FD0006A0A7B0A8F809884A984BA844818590881
:104FE0006A087B088B809C80AD80BE804818590879
:104FF0006A087B088091250580FF0AC014141504F7
:10500000160417042CF41C141D041E041F042CF099
:1050100086E0809324051092230580912405833037
:1050200039F480912305811186C082E080932405A4
:105030000E941C0C10E084FD10E10E941C0C80FDFD
:1050400010620E941C0C83FD14600E941C0C81FDE8
:1050500018600E941C0C87FD11600E941C0C86FDCC
:10506000126080913A01811709F469C010923901E8
:105070008095812319F0812F0E94CE1810933A0158
:10508000809020058B8628E0829EA00111244C533D
:105090005109809021058D8668E0869E900111243B
:1050A0002C51310980911C0590911D05DA01A81B36
:1050B000B90BCD01B7FD0196959587954A01881AE0
:1050C000990A98868F8290921D0580921C05809186
:1050D0001E0590911F055901A81AB90AC501B7FC10
:1050E0000196959587952901481A590A50921F05EE
:1050F00040921E05B0902405BB822B2D253080F5F3
:10510000223008F06BC1BB2009F4EBC0213009F458
:105110001FC180911B058F5F80931B050E94C209F0
:10512000E2C8473009F0E8CE3F5FE6CE01501109F2
:1051300009F0AAC905CA81508093230579CF8091CF
:1051400039018F5F809339018B3008F497CF812F1D
:105150000E94CE18809139018250809339018ECF00
:105160003B81353009F49CC4363099F600E028E3E1
:1051700044E665E08FE00E941C1001E028E344E66D
:1051800064E08EE00E946A1000E028E344E664E0F8
:105190008EE00E941C1046E060E18CEF98E00E94D7
:1051A000051080913B0190913C01009709F4BDC42A
:1051B0008559984F46E068E50E94A00F4FE060E1F6
:1051C00083EE98E00E940510809184034FE06CE527
:1051D00090E00E94A00F46E160E183ED98E00E941C
:1051E000051060918B0370918C0380918D039091D9
:1051F0008E0326E14CE60E94040F4DE160E187EC4E
:1052000098E00E9405106091900314E6619FB00140
:105210001124072E000C880B990B2DE14CE60E94FF
:10522000040F44E260E189EB98E00E940510609170
:105230008F03619FB0011124072E000C880B990B7E
:1052400024E24CE60E94040F4BE260E18DEA98E014
:105250000E940510609191037091920390E080E0AC
:105260002BE24CE60E94040F44E360E183EA98E0FD
:105270000E940510209191033091920360918B035D
:1052800070918C0380918D0390918E03621B730B40
:1052900081099109C0908F03C19E600111240D2CDA
:1052A000000CEE08FF086C197D098E099F0900911A
:1052B0009003019F80011124012E000C220B330B5F
:1052C000601B710B820B930B24E34CE60E94040FCE
:1052D00080912305803108F01CCF8F5F80932305D8
:1052E00018CF01E020E440E860E080E00E946A100E
:1052F00000E028E248E461E08CE10E946A1008E2E4
:1053000028E44CE153E061E070E08CE190E00E9421
:105310000A096091230589E0689F602D11246B5D67
:105320002AE04CE28AE20E949E1047E26CE286E8A4
:1053300098E00E94051040E36CE28FE898E00E943C
:10534000051049E360E28BE093E00E940510E1CE96
:1053500001E020E440E860E080E00E946A1000E0A4
:1053600020E340E364E088E20E946A1080918303B6
:1053700044EA55E0813031F044EC56E0823011F4DB
:1053800044E854E000E320E364E070E088E290E069
:105390000E940A0900E024E344E362E086E20E94FE
:1053A0001C10809183038130B1F0823089F080EF4E
:1053B00097E049E364E30E9405104DE16EE188EF58
:1053C00097E00E9405104DE16EE586EF97E0BDCFB6
:1053D00084EE97E0EECF89EE97E0EBCF8090D60990
:1053E000EF80F884F3E0F594E794FA95E1F7E81894
:1053F000F10887FCF3948091D509282E880F330893
:105400003201A3E075946794AA95E1F762187308D6
:10541000F7FE8AC040EFE4164FEFF4060CF481C0AB
:10542000AA24BB24AE18BF088A188092D60990E03F
:1054300080E0A7014F5E5F4F841795079CF4ECE472
:10544000F9E0E81BF90B30E020E0DF01AE0DBF1DF5
:105450006C9160832F5F3F4F719629303105A9F71A
:105460000196EACF0CE319E0082C000C9908B4016E
:105470006C5379404B016801F12CE12CC401800F81
:10548000911F988B8F87B701620D731D8F85988947
:105490000E943113D6018C93BFEFEB1AFB0AE1E1B6
:1054A000CE0ED11CF9E0EF16F10469F70F5F1F4F24
:1054B000C8018C5399408A159B05ECF277FE3DC2DA
:1054C00038EF63163FEF73060CF434C22224332402
:1054D000261837080091D50902190093D50984ECE4
:1054E00099E021E1269DB001279D700D112430E047
:1054F00020E049E0640E711C261537050CF065C0EC
:10550000DB01A80FB91FFC0150E040E01D91119391
:105510004F5F5F4F41315105C9F72F5F3F4F4197B3
:10552000EBCF0E941716CACFE114F10439F221E142
:10553000E216F104B4F7082D0E0D0093D6098CE3A2
:1055400099E021E130E02E193F09AC014C5359405C
:105550004217530784F4FC0150E040E0DF01AE0D38
:10556000BF1D6C9160834F5F5F4F7196493051054D
:10557000A9F70196EACF002E000C110B005F1F4F18
:10558000D12CC12CECE48E2EE9E09E2E8C189D08C7
:10559000B12CA12CB501620D731DC8010E943113FD
:1055A000D4018C93BFEFAB1ABB0AE1E18E0E911CC4
:1055B000F9E0AF16B10471F72FEFC21AD20A015009
:1055C0001109CE14DF04F4F279CF7CE3672E79E081
:1055D000772EF12CE12C002E000C110B5301D12C55
:1055E000C12C4701800E911E8091D609B401D601CD
:1055F000A80FB11D87FDBA95CD010E943113F501A9
:1056000081935F01FFEFCF1ADF0A21E1C216D104B7
:1056100059F73FEFE31AF30A41E1640E711C2E14AF
:105620003F04E1F680911B058870D82E10E000E061
:1056300051E1C52EC801880F991FBC01600F711F71
:10564000FB01EB56FC4F2181322F307F09F442C021
:10565000303509F43FC0DB01AA56BC4F3C913039CC
:10566000C8F53081432F4F7350E04F5F5F4FE0919B
:10567000D6094E1B5109E7FD53954131510550F5AF
:1056800032953695369533702F70220F220F232BCB
:1056900030E02F5F3F4FE091D5092E1B3109E7FD28
:1056A000339529303105B0F4C29E7001C39EF00CD1
:1056B00011244E0D5F1DDA01A45CB64F7D01DD2083
:1056C00009F499C169567C4FFB01208127FD93C1E4
:1056D000F0E3FC930F5F1F4F0238110509F0AACFCA
:1056E0000F81188507701127612CD12CC12C420124
:1056F000B7E08B229924740170E060E0C6010E943B
:10570000071128E0829FF0011124E00FF11FE658F5
:10571000F64FE491F0E0082C02C0F595E7950A9465
:10572000E2F77E2E312CB12CA12C472D4170632D38
:10573000862D0E947A0C3FEFE31AF30A47E0E42239
:10574000FF247694E114F10481F45FEFA51AB50A01
:10575000B501C6010E94071168E0869FF00111247F
:10576000E00FF11FE658F64F7490339470E437124F
:10577000DCCF0F5F1F4F077011270115110519F4BA
:105780008FEFC81AD80A639490E86912B4CFAB813E
:10579000A43009F448C000912205033008F436C152
:1057A0000250110BAE014F5F5F4FBE016E5F7F4F26
:1057B000C8010E940A0D85E0809F9001819F300DF5
:1057C0001124F901E450F84F4491B8E04B9FA00137
:1057D00011242350384FF9012491F8E02F9F9001B4
:1057E00011248A8168E0869FC00111248F809884EB
:1057F000881999096981A8E06A9FB0011124641988
:10580000750997FD10C077FD0EC0FC01E40FF51F70
:10581000E038F10544F4FB01E20FF31FE034F10539
:1058200014F40E949E1080912405843009F003C175
:1058300001E02AE047E766E380E00E946A1028E082
:1058400045E46FE280E00E946A1001E010E030EF72
:10585000F32EB8018F2D0E94980CF394075F1F4F11
:10586000BDEFFB12F6CF109123052AE04AE066E374
:1058700089E0189F802D11240E949E10E12FF0E0F6
:10588000EE0FFF1FEF5CF74F8591949140E361E0CD
:105890000E940510113009F4C2C008F4C9C065E0C7
:1058A00070E0123009F4BDC01B3070F4EEEFE10F70
:1058B00025E0E29FF0011124E650F84F65917491C4
:1058C0006115710509F0ADC001E028E042E260E039
:1058D00080E00E946A10E0913D01F0E0EE0FFF1FB2
:1058E000E55BF74F8591949141E061E00E940510DE
:1058F00080913B0190913C0141E061E18459984FD6
:105900000E94A00F60913F01709140018091410180
:105910009091420121E04BE70E94040F880F880F0D
:1059200042E0480F28E060E09EE7981B892F0E9424
:105930001C10EFCB0E94171675CE6114710409F488
:1059400071CE59E065167104ACF70091D509060DCA
:105950000093D5098CE399E021E1269D7001279DF4
:10596000F00C112430E020E049E050E046195709DE
:10597000241735078CF4D701A80FB91FFC0170E07C
:1059800060E01D9111936F5F7F4F61317105C9F721
:105990002F5F3F4F4196ECCF64ECA62E69E0B62E08
:1059A000002E000C110B085F1F4FD12CC12C45019C
:1059B000F12CE12C8091D609B801D701A80FB11DB7
:1059C00087FDBA95CD010E943113F40181934F01F7
:1059D000FFEFEF1AFF0A21E1E216F10459F73FEF5A
:1059E000C31AD30A41E1A41AB10801501109C6141F
:1059F000D704ECF217CE800F911F41E061E08B5687
:105A00009C4F0E943011D7018C9364CE8B848A8284
:105A10009D84998228E030E048E050E0E2CE6AE0E0
:105A200070E090E080E020E340E40E94040F4CCF5F
:105A300061E070E0F6CF833091F401E02AE04CE3BE
:105A400066E383E20E946A108091230582FF3CCFC7
:105A500049E364E283E698E00E94051035CF109197
:105A60002205E12FF0E0EE0FFF1FEF5CF74FE5900E
:105A7000F490C7010E949C2D0396482F440F440FB9
:105A800001E02AE066E380E00E946A1061E070E0D5
:105A900080EF810F0E94980C49E36AE0C701DCCFD8
:105AA00000E022E344E468E08FE10E941C1001E082
:105AB00022E344E467E08EE10E946A1000E022E302
:105AC00044E467E08EE10E941C10609123058AE0A7
:105AD000689F602D1124645F2AE040E480E20E9408
