:100000000C94E6140C940E150C940E150C940E150D
:100010000C940E150C940E150C940E150C940E15D4
:100020000C940E150C940E150C94402E0C94AF2EBF
:100030000C940E150C940E150C940E150C940E15B4
:100040000C940E150C940E150C940E150C940E15A4
:100050000C940E150C940E150C940E150C94E130A6
:100060000C940E150C940E150C940E150C940E1584
:100070000C940E150C940E150C940E150C940E1574
:100080000C942B310C940E150C940E150C940E152B
:100090000C940E150C940E150C940E150C940E1554
:1000A0000C940E150C940E150C940E150008FC0003
:1000B00008F80008FC0129E04008C040180C40087E
:1000C0001E40087F7C08470C2C17066636F303E6B3
:1000D00011020F99837FCD803CC9C08063C0C021CD
:1000E00046E43740E017603F1760010778C0070813
:1000F00000030E307602929510B5059504750292B4
:100100003417B41192901101700F85500A50096F85
:100110000F85AE11AC084C036B08076B0007AA00F3
:10012000480D87628306A1128051C000FF007C0049
:10013000007F04FF0340FF0100C020800200000296
:1001400000F0C03FF0D93F0018000002000000009E
:10015000000100000000000300000300017F000018
:100160007F000000800101E00100E0017804007FD1
:1001700000007F000015019463B30573008B926348
:100180006F10CAAE10A80567090367080386E66604
:10019000018D451745158526650194C500A413A357
:1001A0000F830DA20D828A21014012FF0000000082
:1001B0000000000000F7103C9007101E0490060499
:1001C0001004FC31050011240199062411000033AC
:1001D000018011AC2A99FE3F10FC3F3079F81303DF
:1001E000FF93FFFF13FFFF330000000000800000BB
:1001F00080FFC4F816017517D4B213B00A90098FA6
:1002000037AF164D0C4D0A4D084D064D046C009746
:100210008B3388512805A8016800978737A512837A
:1002200048420CC201A10FFF0060000060000060A6
:1002300000806100806100FCE107FCE12780610033
:10024000816110830100BF6108BFE10180E101808D
:10025000E10380610080610880010080612080618D
:100260000000000C00000F00000FFFF30FFFFF0F56
:10027000770B14770A14550E550C1502B009700847
:100280008D4E13AD0C8B31A90E69088D896288ECF7
:10029000680085A7098762241184E944064405C4DF
:1002A000044402A316630DC3A2088227FF9EFFFF2A
:1002B00000007040007000C07004E07000F07040FA
:1002C000F870400C70FFFF73001070001070040095
:1002D00070040070FCFF7F00007000007000A071CF
:1002E000A0EA71E0CE7F0F007E00006000000700F2
:1002F000800F1FE0FF771714770403B507B40131AF
:1003000012510A5106500E6F14D48CACAC0A8CA357
:100310006B14D28B036A14D28A0DA901470E470DC4
:10032000A70C07008625850B4302C117A000FFF02C
:10033000FFF1F0FFF13000E03000E07074F1707414
:10034000F17077F07074F07074F07074F0F075F014
:100350007074F07060F07074F07037E07034E070BA
:1003600034E07034E1F0B5E10000E40000E00000AA
:10037000E89A97EA9A97EB56107609127608127661
:100380000712510F9127B007AF0E8F288D28AC0CA4
:100390008B27C9104908A907680E846714C48728E9
:1003A000660E848528A3144310230C430AA3060178
:1003B00001FFFFFF071F400470400697400697406B
:1003C0000197400097C001B700009700F8D70F7859
:1003D00001000821000821000CFFCF9F0000000051
:1003E000000000CC0088CE0000C00C00C00C00C093
:1003F0000C00C07C00C03800F000770D17770C1798
:1004000075160C5416B4085113B003AC144C0B4CB5
:100410000A4C098C446C00966B00968A57AA016AB4
:1004200000962716A60543100200A111C105FFFF83
:10043000FFFF0003F0000300FCFB07FCFBFFE4F3FD
:10044000FFE4F30764F00764F00764F0076400401A
:1004500064510064D00764D04764D007E4D117E446
:10046000D10700D34700D00300D0130000009FFE47
:10047000071FFE071FFE07750A127504107503108B
:10048000540754045403B307700883AB178B6F6B86
:100490000883AB076A16C5AA0DA70186CB86E4863A
:1004A000E3C503231783E183E04210420F420EA20B
:1004B0000C0206FF0000FC00001C00007800007029
:1004C000000000000000000000010000000000002B
:1004D0000006FFFF7FFFFF7F00000000000000001C
:1004E0000000C00000C0800180810180818007E0A1
:1004F0008007E08FC7E18FE7E18FF761B60C550DFC
:100500005410140172108572008D711085B105B1FF
:100510000471008D70170CB013CE0E894E892AA974
:1005200009892729016700944116A115FF867F7F5D
:10053000C6FFFFC60F0CCE0F0CC68F0DE68F1DC673
:100540009F8DC88F0DC0CF1DE08F0DC79F8DC78FAA
:100550000DC7CF1DC78F0DC79F8DC08F0DC0CF1D7D
:10056000FE8F0DFE9F8D06800D02C01D008001468E
:10057000880D06808D771703B515B50890054F0EC9
:100580008CAC4B14090186EE45F7241484ECA4E0EE
:100590004310430FC21781E5A100A017A00F80C32D
:1005A000FF00060300060300060300060B302603C7
:1005B000300603F00627F4060330061330264330D6
:1005C0000603300603B40703B027033006033006E2
:1005D00003300603342603300603300603300000E0
:1005E0003020003F2603BF2603770D1777070F77CC
:1005F0000213760D1676020F750D1535031500AE34
:1006000002AD0E8B274816C815A813880D8807A8B9
:1006100006471445154512A40EA40C83EF83EB4244
:1006200013FF1F03301E037030036336036366033A
:1006300066663E66C63C63CC18318C993198811849
:1006400018C31830C30C30660C306606003C060038
:100650003C03C01803C0991180810100C30000C38E
:1006600000006600077E07073C077700137600123C
:10067000551235115501B40BB1035014AF144F0787
:100680008B31CB078A1089328811671405040BA2BD
:1006900002A1118100A00BFFFDFF07FFFF77000003
:1006A00074FEFF75FEFF753E804506805DB6BF5D3A
:1006B000B6BF5DB63140B6F57FBEF57FBEB57106FB
:1006C000B471F6B77DF6B77D36BC7116A07116AD64
:1006D0007136AD7116AD7186BD71B60170B6FD7320
:1006E000771115770E125505940CB10C510A8F0B2A
:1006F0006E09062D13CD0E8C0E8A03A90B4605A696
:100700000385F7451485E0A200A0170015A041FF5E
:10071000FE8FFFFFBFFF003898001098FE9399FEF0
:10072000BB991893991B939943BB994F93997F93C6
:10073000991FBB99DF9301C79301F1BB1FFC931F66
:100740000E93110EBB117893116383110F83113037
:10075000831106FF01FFFF3B77151577111577070A
:1007600011770014760E16760A16150CB50054048F
:100770005302B117D104B0138EF54E038D714D05A0
:10078000AA0B4905486284F684F584F284F1A21527
:10079000200CA080FFDC1D40DCFD7F0C1C40001CF9
:1007A00040000C401F18F83F183EFB007F0B006311
:1007B000013860037C6003FE6001FE70C10070C3FD
:1007C0000078FF007F7F007F0F0070030040033C34
:1007D00040017E0001FF0081FF01FFFFFF77171737
:1007E000B61596D11603730D0D4E124C07AB04A926
:1007F00013A9018862A61646104607650005C417AE
:100800002415A40C8441834D401380418080FF0057
:1008100000000000E00000E01C0000380000F13F94
:1008200000E07F0007E0E707E0E7E0E7E7F8E7E759
:1008300018E8E700E0C720F0CFF0FFCF18FCCF03A7
:10084000C0CF0B84CFFF8FCF18980100C00120D0FC
:1008500001F7FFFFF7FFFF770B1777041776140FE9
:10086000351295E41501540CB408540591E4500A6E
:10087000B00750038E94AD088DE44CEC4C85AA0172
:10088000879487B3A017C016A015FFFFFFFFFF00D6
:10089000FF3F00FC0F00F007C0E0C7FFE0C71FC02C
:1008A0003F00C03F00870118870118BF01FFBF0349
:1008B000038001008019008019F08F03F6CFC33642
:1008C000C0C730E0073CE0010CF03900FCFF00FF3E
:1008D000FFFFFF1501520B520AB10B700E09902653
:1008E0006F110C6F0E088F298EECCD0E8CECAB16B1
:1008F000AA164A0F4A0E4A0D864D26E384E6A3093E
:10090000FF00FC1F00FEFF7067F0386600BC660049
:100910003E6E037E6F03386603B16603336603776A
:100920006703376603B16603306603380003382077
:1009300003FEFF03FEFF1F00C03F00000000008019
:10094000004080C7FFFFC7FFFF771214770C1477B2
:10095000081777071777061795AF95E61501B411B5
:10096000940EB40993EE92E64F0F4F0E8FC62F01EF
:10097000AB164B07A7164707A316A30B4307C016D2
:10098000FF00000000000043FE0718FEC718FEC766
:10099000180006F80F06F80F7E180C7E000C1E00DB
:1009A0000CC6000CF6180CF6F83FC6F83F1F180CE2
:1009B0007E184C66180C06180CC7000CF6004C305C
:1009C000000C003A0C073A0E8F7717117713117746
:1009D00009077701147601141504B417521451163F
:1009E000B017D013AF054E164D14AC132C0C8C85DC
:1009F000AB094A144916A8178673853685458320A6
:100A0000FF00000047443407003007003007003083
:100A1000070030070830FFFF3FFCFF3F80013080B8
:100A200001308319309119328019308419388019B6
:100A30003081193280193084593080193090193141
:100A4000001800C0193CC0193C5304510EAF134D9F
:100A5000028CEA8CE94B11AB0DAA168A738A2BCA59
:100A6000062A00A91386EC660B0486E3A511A545AA
:100A7000400A0001FF00000000000000000000002C
:100A80000007002007004C00000C00000C60C30CA5
:100A900060C30C60C30C60C34C01C00C01C00C39B6
:100AA000C00C39C00C38C00C00C02C00C00C00C0F9
:100AB0000C00C00000C00C00DF6C00DE6C77161468
:100AC00077151476161476151476080A150AB410DC
:100AD000B3089215B202AC118C856C0005CA2BA725
:100AE0001547084705861685152301A20AFF300021
:100AF000383F80393080390080B90780990F80599C
:100B00002F825900901900901900C01900C01900D7
:100B1000E11908E019008039030078030058FFFF4D
:100B200019FFFF190000B80000B800000000000025
:100B30000300FC0700FC76171776161776151715B5
:100B400013B4019016B0158D164A0DAA0389578962
:100B500075A908A717871645094505441644038358
:100B6000242301A111400FC001FF81FF7F80FF7F7F
:100B700098C160FEC160FEC16286C36684C162B175
:100B8000E17231E062FBFF66FB3F6210A27310224C
:100B9000631E67673E226302B273FA2363F86767D6
:100BA000F823633DB273303203007607FF0703FF7B
:100BB000FFAB7717177603167602167601167600C6
:100BC00016B515150752029101AE134D052C0AAC4E
:100BD000086B1007AB038B204A10480348018702BB
:100BE000A613A50B856344098374C20D8100FF0021
:100BF0000070F80070FCFC7F06FC0F067E00E67FAC
:100C0000E0E671F87670FE76F0077EFF031EFF01C6
:100C1000DE8101C681E1F619ECF619ECF681EDF6FC
:100C200081EDF681ED86C1EDBEC1EDBE83E10080B0
:100C3000E1FF8FEDFF8FFD77140A760013551274D4
:100C40000907D10EAF0C4E0F4C124C0B4C05AC03E8
:100C50002B164A07AA05080AA803870F86116517ED
:100C60000585138415A411A40F82298108FFE001D2
:100C700030E70130C70130DFFF379FFF37BF073054
:100C80003F0030FF503CFFFF3FFFFF2300E020000C
:100C9000E034409E290F9E210F1E230F1E270F1E9A
:100CA00026EF0728EF07200F66300FE0310FF80717
:100CB000FFFFFFFFFFFF7604059412540C931071A1
:100CC00008055006AE17AE062C018B13CB0B4B86D6
:100CD000AA14681305A70DA616864C46064405639C
:100CE000090482E94203A10E0001FF020000030093
:100CF000000000FC0000FED402FE003800013800B5
:100D0000003000241D00001C0001D82000D8000481
:100D1000D80800D80001C002F1C100FFFF08FFFFA2
:100D200000C00720000000000080000080FF27C9ED
:100D3000FF07C0760804760604B513B510B50D9507
:100D400086150293868E84C869A70B4708470585D8
:100D50004A6417054211A20E2115A000FF000300EE
:100D600001830180838100830911830300833F0293
:100D7000337C003300383EFE7800FF008003001F04
:100D800000803F00803100C06000C06800E0E000EB
:100D90007EC21B3E821B308801000800002000300C
:100DA00020C07980C477120577E00556129600B509
:100DB000059410B4099311CD0A0A0A270AA213A1B7
:100DC00017A1E74010400FA000FFC40040C0008002
:100DD000C00000C85615090600FF0780FE079138BD
:100DE000000000600000E00000C0004182010093AC
:100DF000030403030003001047000000C00400D1F7
:100E00000000000100000100000300000BA2E40349
:100E100000E01516B509B503701704B014CE0A6BBF
:100E2000000DA600830583248322A212A20E2017A0
:100E30008001FF0000700000F00000F00000F000F2
:100E4000F3FF00F3FF00F30702F30388F33180F3AD
:100E50003880738C8033868033C3FC83C1FCC3E04D
:100E60000060E00030F00018F0FE0FF8FE07F80018
:100E700000FC0000FC00E0FF01F0FF770C0A7700A7
:100E80000A150EB506531251134F148F0C4D15ADA4
:100E90000E8D0C6D0607AC0BAC0A4B168B10491768
:100EA0008912670106A615C60384EB84EA2311A004
:100EB00017FFE00300E0030000000007D8F607D8A2
:100EC000F60018F0E01FF0F8FFFFF8FFFFC0000089
:100ED000C0C000C7C021C78703C0070780000EF845
:100EE000000CF800C00000C000006007806007042C
:100EF00000070080FF01C0FF03C176040E73010EDE
:100F0000B217AE062B098A85A91667100446B246A9
:100F100010460E660A05660804660604A510854696
:100F2000A30AA3E7C216822B82660201800AFF0091
:100F30003C30001CE0000CC00F0CC00F0C000CACCF
:100F4000E10CCC010E8C010E9C050C8C010C8C016B
:100F50000C8C110C80010CFC010CFC41FCFF01FC11
:100F6000FF110080010780010780050780C107008D
:100F7000D00700C0D7A9CA771315770405B317B2F5
:100F80000CB20872000B4E094E084E074E064E0575
:100F90004E046D0E0C6D0D0C6D0C0BAC05890C87A1
:100FA0000E860D2601C417820C0201810DA017A028
:100FB00016800EFF0000000000000000000783C143
:100FC0000700000300000100000100000100000113
:100FD00000000138000338801B7CB03DFE783DFEE8
:100FE000781938303DEE783DFE781938303DEE788E
:100FF0003DFE781938303D7C787D7C7C7712147703
:10100000061496129606B513B505B20EB20AAF0EC7
:10101000AF0A6D0C0AC92C2217421042080201FFC8
:10102000807F00000000070000070000FFFF1FFF97
:10103000FF1F000000000000000000F8E1FFF8FFC3
:10104000FF001F00000E00000000C01818FFFF1F67
:10105000FFFF1F00000000000000000080C100C072
:10106000C101FF80FFFF08FF770B06761608B62B3D
:1010700015E3350191896F01064E0EAE0D4E0A4EF5
:1010800008AB17691605492C4909880D8884860E16
:10109000A60D640A0383E7A20EA20781E7C101FF40
:1010A000016700FF610001E01F30E63F3006607815
:1010B0000600FFE7FFFFE7FF03E600016600E067C9
:1010C000F8F067FE1C00FF0C0000000000FFE73F87
:1010D000FFE73F0060000060000060FE0060FE006F
:1010E00060C0FFE7FFFFFFFF770C17770B17760F46
:1010F0000D962BD515551215E2731605B3466F00E4
:10110000054E124E068B104B038A00A816A80766E0
:10111000080445122501A411420481AFA012A002C7
:10112000FF0018C00018C00E1FF09F07E1FF0780E6
:10113000FF3F04FF3F000000100000000000C0005F
:1011400000C00000FEFF87FFFF8701380600100681
:101150000000067800FE7F82F80700000000000013
:10116000000000FFCFCCFFCFCC77170A77040776BB
:10117000040695E0B304710B089107AF07AF010BAC
:1011800001A90DC40C8311A20E2102A00F804DFFF6
:10119000C0C1FFE0CDFFB0CD0087CD0007CD0080FE
:1011A000CD03FCDD03FCCD0F0CCC8F0CCC800CCC24
:1011B000C08CCFC08CCFF08CEFF18CCF018CCF03E3
:1011C0008CCF039CCF0F8CCF8F8C0F80800FC08073
:1011D0000FC0FFFFF3FFFFF37606067104085012FD
:1011E0008C0D4B15AB0D6B090A8B86A912A90488CF
:1011F000844612850C2410A40CA4078346A303C2C2
:10120000160201FF60FEE760FEE76100006000007B
:10121000600018E0CF1FE0CF8F7486816000C0604F
:1012200000C0E0FFCFE0FFCF66000060000060007C
:10123000006000006000007460F86070F860780082
:10124000007C00007E00FF7FF8FFFFF8770F067636
:1012500000055504B31671040610169002AE11AEC7
:10126000026C01088B024911892CA801C711A7083B
:1012700067040786022411440884E0A100FF0000EF
:1012800000000000000F00FFFF07FFFF3FFFFF3FD0
:10129000003E00001C000000800000C000FFFFFCBA
:1012A000FFFFFCFF010C00000C00000C00000C0014
:1012B000000C00F00C00F00C00F00000F00000F05A
:1012C0003F7FFE7FFFFF771010770F0F77060A76BC
:1012D000010AB10B3016AD06AC13AB00C90F490DB6
:1012E0004909A51782100201410AA106FF0000006A
:1012F000000000000006AFFE0F0FFE1D0F00C00033
:1013000000C00000F00000F8F855FFF000060300F0
:10131000000300000700000FFC011FFE0F18060E5F
:1013200000001C0000000000C00060C08061F0FFF1
:10133000FFFFFFFFFF1501B308B014AC08AC05A612
:101340000D630703630503C2022200A006FF100815
:101350002060606060400000000000181C0E070361
:1013600030707070706000000000001C1E0F0703DA
:1013700040404040404000000000001008040201CE
:10138000000000000000000000000000000000005D
:101390000000000000000001000203030200000042
:1013A0000000000000000001000203030200000032
:1013B0000608001C1E1E0E00000C1E1E0C00001C49
:1013C0001E1F0F06040C1810000000000000000093
:1013D0000508060E0E0C0002060E0C00060F0F0785
:1013E0000303060C000000000000000000000000E5
:1013F00000000000000000000000000000000000ED
:1014000000000000010203040404012040FFFFFE6D
:10141000F8E0C08FFF7F7F3F3F1F1F0F0F0F0F0FA1
:101420000F1F1F3F7FFFFFFFFFFFFFFFFF070703A8
:1014300003010100000000000000000000000000A7
:10144000000000000000C3FFFFFFFFFFFF000000DF
:10145000000000000000000000000000000080C04C
:10146000E0F0F8FCFEFFFFFFFFFFFFFFFF008080C2
:1014700000000000000000000000000C1E3F3F7F45
:101480007F7F7F3FBF9FCF67331B99FDFC00030722
:10149000070000101818180800000000F0FCFEFEFD
:1014A000FEFFF7F3FBFFFCFCFEFFFFFFFF0080C029
:1014B000C0E0E0F0F0F0B8B838787878F8F3E7CF2B
:1014C000DF9FBF3F7F7F63C383A3A78FFF0F1F3FB4
:1014D0007FFFFFFFFFFFFFFFFFFFEF8E1EDC9DB9C9
:1014E000B3A78FFFFEF8C0E0F0F8FCFE3E808080DE
:1014F000C0C0E1E1F3E7EFECECE1F3F7F6F0FFFF5A
:10150000FFFFFFFFFFFF7F3F1F0F030000FCF0E026
:10151000C08001071F3F7FFFFFFFFFFFFFFFFFFFAF
:10152000FFFCF0E0C08081071F7FFFFFFFFFFFFF90
:10153000FFFFFFFEFCFCF8F8F9F3F7F7FFDFDF9F92
:10154000BFBFFFFFFFFFFFFFFFFFFFFFFFFFFF7FAB
:101550007F7F7F7F7F7F7FFFFFFFFFFFFFFFFFFF1B
:10156000FFFFFFFFFFFF7F3FBFBF1F5F4FFCC000BC
:101570007CFEC7D3732386FCF9F3E78F1F7FFFFF41
:1015800003F9FDDD9DBCB83333000EE7F3FF7F3F69
:101590001E1E8E8ECEFFFFFFFFFFFFFF3E80F3F18A
:1015A000E4ECC99B33E3033F7F7E3C3C1CFDF9FB2D
:1015B0007F7F7F3FBF9FDF4F6F2733181E4FCFC7FF
:1015C0008783030918183A3A7A7A7AFBF90E0606E5
:1015D00006030301010000000000000000000001FC
:1015E000010303030206060404048484840000004B
:1015F000C0701C06033119010302020206740404C0
:101600000CF8000000C0F0FCF6E7E7E7EF00003F51
:10161000FFFFFF3F9FCF603080C60F1F3FFFFFFFE0
:10162000FFFF7FFF7FDF77DD77DD77DD77FFF8E096
:10163000830F3F7FF9CCE63399CC6600801F373D9E
:10164000371D1F0D0703010101010307076F27B7AE
:1016500093DBC006EC4903078F9C1E3B396C66F296
:10166000D8C8E0B090C040008080008080F336741D
:10167000E18F3FFCF8FAFBF9FCFFFFFFFEFEFCFCEC
:10168000FCF8797979393919190901018180FE004D
:10169000E7F3F8FFFFFFFFFFFBFBF9F9F9F9F8F8B3
:1016A000F8FCFCFCFCFCFC7E7E7E7F3F3FFDFCF6F4
:1016B000F7E7E7E7C7C7C7C74743030303030301C8
:1016C00001010101000000000000000000C0C0C1D5
:1016D000E1E1E1F1F1F0F8F8F8F870302060C08055
:1016E00000000000000000000000000000FFFFFFFD
:1016F000F7F3F3F1F9FDFFFF0F0100000000000315
:1017000006000000000000000000000000DD7FC7B0
:1017100003010000000000000000000080FFFFFF48
:10172000FF1F0080FF0080C0E0F0FCFFFF050707FF
:1017300003000000000000000080E0F87F3F0F037E
:10174000C0F0FCFFFFFFFFFF7F1F0F0701C040003D
:1017500040607070381804060383C1E0F0F87E7FA3
:101760003F9F8FCFC7E3E1707038F8FCFC80C0C0AA
:10177000E0E0F0F0F818CC66331B190D0C060607F4
:1017800007030301010000000000031FFF3F1F1FAC
:101790001F0F0F0703000FF80000000000000000FB
:1017A0000000000000000000000000000000000039
:1017B00000000000000000010F0800000000000011
:1017C0000000000000000000000000000000000019
:1017D0000000000000000000000000000000000009
:1017E00000000000000000000000000000000000F9
:1017F00000000000000000000000000000000000E9
:10180000000000000000000000000000003C380064
:101810000000000080F8FE0FE3FB1B0B0B8BFBF3BB
:10182000F7F6F6F60606ECECECECECECECECECEC9B
:10183000ECECECECEEE6F6F6F6F7F3FBFBCBCBFBD1
:10184000E30FFEF8801E332121339E00000080F854
:10185000FF0FE0F8F9F9F9F9F9F9F9F1F3F3F3F316
:10186000F0F0FFFFFFFFFFFFFFFFFFFFFFFFFFFFA6
:10187000FFFFFFFFFFFFFFFFFFFFFF7F7FFEE00F88
:10188000FFF880060600000000000F3FF0C60704C6
:1018900004070707070707070707070707FFFFFFF3
:1018A000FFFFFFFFFFFFFFFFFFFFFFFFFF07070730
:1018B0000707078787070726860707C6F03F1F0029
:1018C000808000000000000000030784C4E4E4E41A
:1018D000E4E4E4E4E4C49C000FE7E7E7E7E7E7E7D4
:1018E000E7E7E7C7870F1F0FC7E7E0ECE4E4E4E5AD
:1018F000E5E4C4040404070300C040C3031100006E
:1019000000000000000000FFFFFFFFFF393939FF32
:10191000FFFF0FE0E0EFEF0FFFFF183879FFFFF751
:1019200003E0E0EFEF0FFFF9F0F0FCFDFDFD0DEC43
:10193000E0E0E00000012101000000000080C06044
:101940002060C080000000000C0C007EFE803C3E49
:101950001C1C1C1C1C0C0C0E0C0C0C0C0E1E1C1C41
:101960001C1C3C3E80FE7E00000000C0E0E0C00089
:10197000000000030300000E1B3166C680D06031FA
:101980001B0E00003828380001471E382020202078
:10199000301010D0D0101090103020202020381E91
:1019A0000701000006060000010100000000000021
:1019B0000000001B2801FCFE02FA2222FA02FAAA09
:1019C000AA8A02FA82BEBE02FA2AAABA82FEFC01E2
:1019D00000FFFF06F656567606F6067E7E06F6965B
:1019E00096F6067646C77707FFFF0000FFFF0C2D2F
:1019F000EC2F0FEC4D8D0DED0CEDACAC2D0CEF2C58
:101A00002DEC0FFFFF0000FFFF18DA5B5A181BD800
:101A10005859DB18DB981EDE18DB5A5A5B18FFFF9B
:101A200000C0CF9F90171415151017145457505716
:101A3000D0D1D7D0D7D15D5C5F1F0F004020FFFF12
:101A4000FF0707E7E7676767676767E7E70707FF76
:101A5000FF9F9FFFFF8787FFFF6767E7E7FFFF9F06
:101A60009F67679F9FE7E76767E7E7FFFF0707E76E
:101A7000E7676767676767E7E70707FFFFFFFFFF3E
:101A8000FF00007F7F6060606060607F7F0000FF1C
:101A9000FF1919818179799F9F1818F9F901019F20
:101AA0009F7E7E81816161E6E60101FFFF00007F8C
:101AB0007F6060606060607F7F0000FFFFFFFFFF6E
:101AC000FF060666666666E6E606067E7E6666E7EC
:101AD000E70606E1E11818E1E19E9E8787666679D0
:101AE00079181887879E9E8181989887879E9E8601
:101AF000861E1EE6E6FEFEE6E69E9EFFFFFFFFFF59
:101B0000FF8686FEFE98989F9F1E1E00006666193F
:101B10001986860707E6E67F7F61618787606060D8
:101B2000601E1E87877F7F818179791F1F9F9F811C
:101B3000819898E7E70707F9F99F9FFFFFFFFFFFED
:101B4000FF1919E1E1F9F961618080E6E6666698BE
:101B50009861610606E7E7E0E09E9E1F1F7E7E60BB
:101B600060808067671E1E999998989E9E1F1F79B6
:101B7000799F9F1F1F0606F9F99F9FFFFFFFFFFF39
:101B8000FF60607F7F7F7F7E7E616161616666E767
:101B9000E71E1E1E1E19197F7F6161F8F8E6E67EBA
:101BA0007E19198686989819190707E7E76666E08F
:101BB000E001011E1E060681818787FFFFFFFFFFF0
:101BC000FF0000FEFE060606060606FEFE0000FFFB
:101BD000FF0606FEFE1E1EE0E09E9E1F1F191960F6
:101BE000601E1E878781819898E0E0070766660778
:101BF0000760600000666601018787FFFFFFFFFF47
:101C0000FFE0E0E7E7E6E6E6E6E6E6E7E7E0E0FF56
:101C1000FFE0E0FFFFE6E6FFFFE1E1F8F8E6E6F8C7
:101C2000F8F8F8E7E7FFFFE7E7F9F9FEFEF8F8E074
:101C3000E0E6E6E0E0E6E6F8F8FFFFFFFFFF0F1062
:101C4000FDFD3131FDFD01C9DDDDEDED4D01FE0490
:101C50000406060404060404040404040603021033
:101C6000FE0103060910FE01C9DDDDEDED4D0103A6
:101C700006040404040406063010864D49CBC30054
:101C800000CF494D4D00CF4545CF00C7C84847005C
:101C90004FCB4B09C04F42C40F40CF49094F808AF8
:101CA0004F08C0CACF4800CD0D0B61D392B23000AF
:101CB00000438282F200F39191F30092B2B3F300F9
:101CC000F05350B00391F1910002030200030000B1
:101CD0000300030202020003020207100010389002
:101CE0000004060000010301000010107C10100029
:101CF0001C000000000000000010381000040E005E
:101D00000000010000000000008004040700000142
:101D100003010000000090C0840E070001030703C8
:101D200001002A18FE03F9FD0DFDF90DFDF9C3D9D7
:101D3000DDDDD1F1FD7D01C9DDDDEDEDED410D0D07
:101D4000FDFD0D01EDED0179FDCDCD4903FEFF0057
:101D50007E7E7A6E6C38007C7E1A1A7E7C007E7ED7
:101D600060600E7E606C6E0E7E663C427E7E663CDF
:101D7000007E7E067E7C01FF010302020202020257
:101D80000302020202020203020202020302020230
:101D90000203020203020202020203020202020220
:101DA0000301232001FCFE02BAAAAAEA02FA2AAA27
:101DB0008A028ADA72DA8A22FEFEFEFEFEFC0180C8
:101DC000C00F1B1E1B0E0FFCF9FBFAFA7A3A9A029F
:101DD000FEFEFFFFFE06F61616F606F75757170724
:101DE000F7545514C4FDFDFCF800017CFEEECEDE78
:101DF000DC9900FFFFFFFFFFFCFD0DED2D2CED0C2E
:101E0000EF4F9C0DEC0FFFFFFFFFFFFF00F2F6E42A
:101E1000CD1971011F30270F8F8FCF6F0FE8EBEABD
:101E2000EAEBE8EBE8ECE9EBE8EFEFEFEFEFE7F0F8
:101E3000211000F8F0FCF8FCE8FCC8FCF0FC00FB0A
:101E4000020302030203020302030203020302036A
:101E5000020302030203020302030203020302035A
:101E6000020302030203020302030203020302034A
:101E7000FCFF00FE000100030107037F01070007CC
:101E8000020F020E020E020E020E020E020E020ED1
:101E9000020E020E020E020E020E020E020E020EC2
:101EA000020E020E020E020E020E020E020E020EB2
:101EB000030F010F00071B1801FCFE02FA82BEBED1
:101EC00002FA8A8AFA02FA4A4AFA02FA8A8AF20676
:101ED000FEFC0100FFFF06F6264E86F606F6565675
:101EE0001606F686CE86F606FEFEFEFFFF00F063BF
:101EF00007348584969485C445653585F4F5F5F4F5
:101F0000F5F5F6F7F7F7F7F3F007081E3F31313F25
:101F10001E8000323F3F3080C0103B3B373732805D
:101F20003135353F3F1E80CE8F0C3C3F3F803237EE
:101F3000373B3B90C01E3F37353D19808203333B12
:101F40003F8F801E3F35353F1E80123735353F1E8F
:101F5000801118FEFF01FDFDC1C3C11D7DE1E17DC2
:101F60003D81FFFEFF800000000000000000000037
:101F700000000000FF01030202020202020202024C
:101F80000202020203010710010101010101010423
:101F90000404040404040210FE03030603FE060303
:101FA0003410FE01FDFD35353DD9E53D75FDD921E6
:101FB000FDF5D5DD5981DDDDEDED419DDDEDED4139
:101FC0000301FDFD3179EDC539FDF5D5DD5985DD1F
:101FD000D1D1FD7D01FE03060404040606040404B9
:101FE00006040406040404040604040404040604A9
:101FF000040404040604040406040404060404049B
:10200000040604040404040406030C10FE07F30988
:10201000E5D5F5E509F307FE7FF0E3C4C8C9C9C8F3
:10202000C4E3F07FFE0FF7FBFDFDFDF58BF70FFE20
:102030007FFEFCF9F38787E3F1F8FC7F2418FE03A9
:10204000F9FD0DFDF90379FDFDD5D5DDD9C3C1ED50
:102050007D397DEDC10D0DFDFD0DEDE1FBF3E74E8D
:1020600018F0FF007E7E606C0E7E6A6A6E2C001E89
:102070003E70703E1E003C7E6A6A6E2C007E7E6062
:102080006B690CFE0301010302020202020202025A
:10209000020203020202020203020202020202031D
:1020A0000202020202020301000083918B9883ACBA
:1020B000C8BCD5FF1010FF00FEFAFE0E060606068D
:1020C0000EFEFAFE00FFFF00FFBFFFCFC6C0C0C676
:1020D000CFFFBFFF00FFFF00FE020202020202026A
:1020E0000262626200FFFF00DFC0C0D8D8D8DBDB2D
:1020F000DBDBDBDB00FF1010037D3E1E3E7E3E1E61
:102100003E7E3E1E3E7E3D03803A6E3B6E3A6E3B07
:102110006E3A6E3B6E3A2E80037D3E1E3E7E3E1E24
:102120003E7E3E1E3E7E3E1E803A6E3B6E7A6E3B8B
:102130001E0E466370386C3E008FC6E3F1B8ECBEED
:10214000EFBBEEBBEEFB6E00803B6E3B6E3B6E3B2F
:102150001E0F466371382C80008FC6E3F1B8ECBEC9
:10216000EFBBEEBBEEFB6E3B803B6E3B6E3B6E3BD4
:102170001E0F466371386C3E3E7E3E1E3E7E3E1E06
:102180003E7E3E1E3E7E3D036E3A6E3B6E7A6E3B59
:102190001E0E466370382C803E7E3E1E3E7E3E1EE6
:1021A0003E7E3E1E3E7E3E1E6E3A6E3B6E7A6E3B1D
:1021B0001E0E466370386C3E1E8FC6E3F1B8ECBE4F
:1021C000EFBBEEBBEEFB6E006F3B6E3B6E3B6E3BC0
:1021D0001E0F466371382C801E8FC6E3F1B8ECBE2B
:1021E000EFBBEEBBEEFB6E3B6F3B6E3B6E3B6E3B65
:1021F0001E0F466371386C3E037D3E1E3E7E3E1EC2
:102200003E7E3E1E3E7E3D0300BAEEBBEEFA6E3BC6
:102210001E8EC6E3F0B8EC00037D3E1E3E7E3E1EE1
:102220003E7E3E1E3E7E3E1E00BAEEBBEEFA6E3B8A
:102230001E8EC6E3F0B8ECBE008FC6E3F1B8ECBE6C
:10224000EFBBEEBBEEFB6E0000BBEEBBEEFB6E3BEE
:102250001E8FC6E3F1B8EC00008FC6E3F1B8ECBE08
:10226000EFBBEEBBEEFB6E3B00BBEEBBEEFB6E3B93
:102270001E8FC6E3F1B8ECBE3E7E3E1E3E7E3E1E85
:102280003E7E3E1E3E7E3D03EEBAEEBBEEFA6E3B58
:102290001E8EC6E3F0B8EC003E7E3E1E3E7E3E1E25
:1022A0003E7E3E1E3E7E3E1EEEBAEEBBEEFA6E3B1C
:1022B0001E8EC6E3F0B8ECBE1E8FC6E3F1B8ECBAD2
:1022C000EFBBEEBBEEFB6E00EFBBEEBBEEFB6E3B7F
:1022D0001E8FC6E3F1B8EC001E8FC6E3F1B8ECBE6A
:1022E000EFBBEEBBEEFB6E3BEFBBEEBBEEFB6E3B24
:1022F0001E8FC6E3F1B8ECBEFFFFFFFFFFDFBF7F1D
:10230000BFDFFFFFFFFFFFFFFFFFFFFFFFFDFEFF40
:10231000FEFDFFFFFFFFFFFF08088FE1CED29ED238
:102320001E21211ED29ED2CEE18F84784B794B7331
:1023300087F1F187734B794B7884101003397D64F2
:10234000E2E2E2E28E8E8E8E4C7D3903C09F3F7EAC
:10235000006C6C6C6C006C6C000099C003397D7C67
:10236000F6929282929292DE7C7D3903C09F3F7EEC
:10237000006C6C6C6C006C6C000099C003397D4C77
:102380008E8E8E8EE2E2E2E2647D3903C09F3F7E54
:10239000006C6C6C6C006C6C000099C003E9EC0E76
:1023A000EEEE0E06F0FCFE06060CF107C08D0D40A9
:1023B0004D0D00400F3060607F3F8FE003E9EC0E71
:1023C000EEEE0E06F01C1E7E0E1CF107C08D0D40B9
:1023D0004D0D00400F38707F78388FE003E9EC0E28
:1023E000EEEE0E06F00C0606FEFCF107C08D0D4069
:1023F0004D0D00400F3F7F6060308FE007F1FCFE25
:1024000006060CF00200B0B202B0B103E08F3060FB
:10241000607F3F0F60707777703797C007F11C1EA1
:10242000FE0E1CF00200B0B202B0B103E08F3870B3
:102430007E78380F60707777703797C007F10C0699
:1024400006FEFCF00200B0B202B0B103E08F3F7FA5
:102450006060300F60707777703797C0080800961B
:10246000CDCDEBEBEBF73F4F713E410F3F7FF7EBED
:10247000EBEBCDCD9600FCF28E7C82F0FCFE0A10D8
:1024800003F90472EAFA7204F903FCF9F2F4F4F4C1
:10249000F4F2F9FCFF0371F872060CF903FFFFFC7C
:1024A000F8F0F4F6F3F9FCFFFFFFFF00060600FF6B
:1024B000FFFFFFFFFFF0F4F4F0FFFFFFFF03F90C55
:1024C0000672F87103FFFFFCF9F3F6F4F0F8FCFF75
:1024D000FF813C66C2C2663C81FFFFFFFF007F7F39
:1024E000286B03FF010803101040C03EFE81FF9CD3
:1024F000FFBEFF3EFF76FFF6FF7CFFF9FF72FE7422
:10250000FC74FC08F8F0F0808080FF3FFF67FF6BF1
:10251000FF73FF7FFF78FF73FF76FF76FF70FF3357
:10252000FF81FF4C7F5E7F407F0000FEFE01FF3C8D
:10253000FF7EFF7EFFF6FFF6FF7CFFF9FF72FE7461
:10254000FC74FC08F870F040C07F7F80FF3EFF679E
:10255000FF67FF7EFF78FF73FF76FF76FF30FF8017
:10256000FF4C7F9EFFBFFF80FF8080F0F008F87473
:10257000FC74FC72FEF9FF7CFFF6FF76FF3EFFBEA7
:10258000FF9CFF81FF3EFE40C0407F5E7F4C7F810D
:10259000FF33FF70FF76FF76FF73FF78FF7FFF73D7
:1025A000FF6BFF67FF3FFF80FF40C070F008F874CB
:1025B000FC75FD73FFF9FF7CFFF6FFF6FF7EFF7EE3
:1025C000FF3CFF01FFFEFE000080FFBFFF9EFF4CAF
:1025D0007F80FF30FF76FF76FF73FF78FF7EFF6717
:1025E000FF67FF3EFF80FF7F7F0C103EE38101010C
:1025F0001903868C8888700000FD93988EA0F31EC6
:102600000000007CC602020232060C181010E0FE28
:10261000939F80D054F6B2B39FF1003EE381010155
:102620001903868C8888700000FD93988EA0F31E95
:102630000000007CC602020232060C181010E06E88
:1026400093B37A68CC90B39F7507007CC682020A68
:102650001A020684C44C78FCB29399CCE080CF79FE
:102660000000003EE3810121311B8AEEBC88780026
:10267000001F202161474D643C00007088888C86D3
:102680000319010181E33E0000001EF3A08E989320
:10269000FD0000E01010180C0632020202C67C0099
:1026A000F19FB3B2F654D0809F93FE7088888C86D9
:1026B0000319010181E33E0000001EF3A08E9893F0
:1026C000FD0000E01010180C0632020202C67C0069
:1026D00007759FB390CC687AB3936E784CC4840628
:1026E000021A0A0282C67C00000079CF80E0CC99F1
:1026F00093B2FC7888BCEE8A1B31210181E33E0055
:10270000003C644D476121201F00003CFFFFFFFF9C
:10271000FFFEFCFCFCF8F06CFEFFFFFFFFFFFFFF7D
:102720007F0500F0F8FCFCFCFEFFFFFFFFFF3C0014
:10273000057FFFFFFFFFFFFFFFFE6C0A1000F8F8A8
:10274000FCFCFEFEFFFEFFFEFFFAFFC4FEF8FC00ED
:10275000F80000000101030307077F070F030701CB
:1027600003000100000508819D8181819B81818199
:102770009F85859191919D95818181E1E7818181FD
:1027800091918585858191858585F9F98181818101
:10279000958181819195818181E34181C5E3EBBF81
:1027A000FDBFEBC38D8581C3F1918585F10808FFDD
:1027B000FFFFFFFFFFFFFF2218FE0379FDFD85B538
:1027C000F57103F9FD3535FDF903F9FD0DFDF90D41
:1027D000FDF90379FDD5D5DD5903FEFF017E7E1A93
:1027E0001A1E0C707E1A1A7E7C027E60607E3E404D
:1027F0006E6E7676200C7E6A6A6E2C01FF010302F3
:1028000002020303030202020202020302020202A4
:102810000302020202020203020202020203012276
:1028200018FE0379FDFD85B5F57103F9FD3535FD1C
:10283000F903F9FD0DFDF90DFDF90379FDD5D5DDA0
:102840005903FEFF013C7E7E7E7E663C001E3E708C
:1028500060703E1E003C7E7E6A6A6E2C007E7E1A90
:102860003E7E6C01FF010302020202020202030229
:102870000202020202030202020202020302020236
:1028800002030202020301D5F08D14A1C881CFD941
:10289000F1AF20005810F0F89C8E8783878E9CF84B
:1028A000F00000FEFF0303030303070EFCF8000023
:1028B000FEFF0303030303070EFCF80000FFFF0005
:1028C000000000000000FFFF0000FEFF8383838301
:1028D00083C7EE7C380000F8FC0E07030303070EE5
:1028E000FCF800003F7FE0C08080C0E07F3FFFFF3A
:1028F00001010101010101FFFF0000FFFF0C0C0CB1
:102900000C1C3E77E3C100007FFFC0C0C0C0C0E028
:10291000703F1F00001F3F70E0C0C0C0E0703F1F4D
:1029200000007FFFC1C1C1C1C1E3773E1C00001F91
:102930003F70E0C0C0C0E0703F1F00000000000119
:10294000FFFF01000000241CD51BFE1A7E1B352949
:10295000F02D6C2AA61D5E1A132A731C701A080B20
:10296000000202020000090400000102020000054A
:102970002400100105240101010424020605240697
:1029800000010705810310004009040100020A004C
:102990000000070502024000000705830240000016
:1029A0000403090412010002EF02014041233680B2
:1029B00000010102030141726475696E6F204C4C85
:1029C000430041726475626F7900BF3111241FBEEC
:1029D000CFEFDAE0DEBFCDBF11E0A0E0B1E0E2E58D
:1029E000FDE602C005900D92AE37B107D9F727E09A
:1029F000AEE7B1E001C01D92AB39B207E1F714E1D7
:102A0000C6EED4E104C02197FE010E94A136C53E66
:102A1000D107C9F70E94DB320C94A7360C94000052
:102A20008091C701089590918F07982329F4909180
:102A30008E07982381E009F480E008954F925F9219
:102A40006F927F928F929F92AF92BF92CF92DF92BE
:102A5000EF92FF920F931F93CF93DF937A01FA01C6
:102A6000149131965491F2E0EF0EF11CC12FD0E099
:102A7000222301F1E1E0F0E0352F377011F4F0E0AE
:102A8000E0E0A52FA695A695A695AE0FBF2FB11D88
:102A9000AC9FF001AD9FF00DBC9FF00D11240330F1
:102AA00011F4EE0FFF1F2E9FD0012F9FB00D1124A8
:102AB000EA0EFB1E6C01CC0EDD1E1C141D040CF076
:102AC00077C0803891050CF073C09B01250F311D34
:102AD000121613060CF06CC0603471050CF068C05F
:102AE000E114F10409F464C09B0177FF04C02227BC
:102AF0003327261B370B322F3770FB0177FD3796B4
:102B0000A3E0F595E795AA95E1F72E2F77FF07C08B
:102B1000332329F02FEF2E0F48E0431B342FAA2731
:102B2000BB27A81BB90B97FD02C0B0E0A0E060E88E
:102B3000B62EB81A40E8C416D1040CF4B12EBA1A55
:102B4000622F022E000C770B462F40952F3F0CF082
:102B500040E0DD24D394E52FE77009F4D12C56959D
:102B600056955695D50E6D0D711D693071051CF089
:102B700058E0D52ED21AD41A240F50E82503B001FC
:102B80001124680F791F6A0F7B1FFD01149FE00D50
:102B9000F11D1124A7014E0F5F1FE32E032E000C21
:102BA000FF08033009F4C1C0A0F4023009F46DC07D
:102BB000DF91CF911F910F91FF90EF90DF90CF9019
:102BC000BF90AF909F908F907F906F905F904F904D
:102BD00008950A3F79F1D20E0B3F51F72D1541F3BD
:102BE000DB01A950BE4F90E080E08B1508F097C044
:102BF000FA01E80FF91FE491F0E00E2C02C0EE0F8D
:102C0000FF1F0A94E2F727FD05C01C910E2F0095C7
:102C100010231C93332359F027304CF48D010058B6
:102C20001F4FCF2EC094F801A080CA20C082019609
:102C30001196DBCFD20E2D1509F4BACFDB01A950C6
:102C4000BE4F90E080E08B1508F063C0FA01E80FFA
:102C5000F91FE491F0E03F010E2C02C0660C771CD6
:102C60000A94E2F727FD03C01C9116291C93332315
:102C700049F027303CF48D0100581F4FF801C08007
:102C8000C728C08201961196DECF8FEF90E00E2C00
:102C900002C0880F991F0A94E2F73C016094709477
:102CA000A72C9D2C920E291509F482CFDB01A95087
:102CB000BE4F10E000E00B1530F5FA01E00FF11FF8
:102CC000E491F0E02F010E2C02C0440C551C0A9434
:102CD000E2F727FD04C0CC90C620C428CC92332351
:102CE00071F0273064F46D0180E8C80ED11CF60144
:102CF0008081E82FEA218E2F8529F60180830F5FDE
:102D00001F4F1196D8CF2F5F4C0F5D1F60587F4F1C
:102D1000CACF2F5F4C0F5D1F60587F4F8CCF2F5F46
:102D20004C0F5D1F60587F4F59CF8B2D90E0E40F03
:102D3000F51FDB01A950BE4F69587D4F00E810E038
:102D4000081B190BC81BD90B7E01EE0CFF1CC1E040
:102D5000D0E0032E01C0CC0F0A94EAF79B2DDD2DA5
:102D60008B2C9D2CAC2ECF93DF93EB01C59045911E
:102D7000332359F0CA9C60014A9DA00127302CF4EE
:102D8000B8805095B522BD28B99222233AF0BC9064
:102D90004095B422BC28BD920C94CF1611969A95FA
:102DA00029F7DA9551F0982D23951124EE0DF11D98
:102DB000A00FB11DC00FD11DD9CFDF91CF9111242C
:102DC000F7CE80E0E7EFF1E081118FEF00248193EF
:102DD0008193819381930394D1F708958091F701B2
:102DE0008EBDE8EFF1E087EF95E021910DB407FE8D
:102DF000FDCF2EBD8E179F07C1F70DB407FEFDCF87
:102E00000895FC018091F601882311F13FB7F894F1
:102E100082E08093E9002091F200822F90E0181662
:102E2000190614F481E090E0882339F0289844E6EC
:102E30004093F5014091F1004083222339F0209125
:102E4000F200211103C02BE62093E8003FBF089554
:102E50008FEF9FEF08952FB7F89483E08093E900F8
:102E60009091E800892F807295FF04C09091F20044
:102E700080E4891B2FBF08958091ED0181110DC061
:102E800082E08093E90184E08093EA011092EC01F2
:102E90001092EB0181E08093ED0189EE91E00895BD
:102EA000CF93DF931F92CDB7DEB76983DC01ED913D
:102EB000FC910280F381E02D41E050E0BE016F5FA4
:102EC0007F4F09950F90DF91CF91089583E0809314
:102ED000E9008091F200882319F08AE38093E800EA
:102EE00008950E942B1790E00895CF93DF931F92CF
:102EF000CDB7DEB7FC018485958597FD08C02FEF1F
:102F00003FEF358724870F90DF91CF910895CE0151
:102F100001960E940117019719F4898190E0F3CF7F
:102F20008FEF9FEFF0CF0F931F93CF93DF931F92FD
:102F3000CDB7DEB78C01FC018485958597FF0BC06A
:102F4000CE0101960E940117019771F4898190E0EA
:102F5000F80195878487F801848595850F90DF9126
:102F6000CF911F910F9108958FEF9FEFF1CFFC014B
:102F70008485958597FD0BC09FB7F89482E0809378
:102F8000E9008091F2009FBF90E0019608959FB7FD
:102F9000F89482E08093E9008091F2009FBF90E076
:102FA00008954091E3015091E4012091E1013091B5
:102FB000E20142175307B4F49091E8009570E1F3F1
:102FC0009091E80092FD19C08093F1008091E30197
:102FD0009091E40101968F739927892B19F48EEF54
:102FE0008093E8008091E3019091E4010196909331
:102FF000E4018093E30181E0089580E00895DF9289
:10300000EF92FF920F931F93CF93DF93D82E8A01F5
:10301000EB017B01E40EF51ECE15DF0559F0D7FE5E
:1030200012C0FE0184910E94D11721968111F4CF24
:103030000FEF1FEFC801DF91CF911F910F91FF900C
:10304000EF90DF9008958881EECF0F931F93CF9379
:10305000DF931F92CDB7DEB782E0898342E450E070
:103060006EE579E280E80E94FF170E943C17DC01C0
:1030700012960D911C910115110589F0D801ED9161
:10308000FC910280F381E02DBE016F5F7F4FC8018C
:10309000099597FD04C0F80100851185ECCF898161
:1030A0000F90DF91CF911F910F910895615030F0F3
:1030B0002091F100FC0120830196F8CF289884E646
:1030C0008093F501089508953FB7F8948091D70152
:1030D0009091D801A091D901B091DA0126B5A89BB1
:1030E00005C02F3F19F00196A11DB11D3FBFBA2F9A
:1030F000A92F982F8827BC01CD01620F711D811D5A
:10310000911D42E0660F771F881F991F4A95D1F7DE
:1031100008958F929F92AF92BF92CF92DF92EF92DB
:10312000FF926B017C010E9464184B015C01C11489
:10313000D104E104F104B9F00E9464186819790916
:103140008A099B09683E73408105910580F321E05F
:10315000C21AD108E108F10888EE880E83E0981EB3
:10316000A11CB11CE4CFFF90EF90DF90CF90BF90F7
:10317000AF909F908F9008958F929F92AF92BF9241
:10318000CF92DF92EF92FF920F931F93CF93DF9333
:103190006C017B018A0180910C01882309F45CC0D9
:1031A0008091F601882309F457C08091E80180FFDF
:1031B00005C08091E00082608093E000E801B12CBE
:1031C0008AEFA82E93E0892E2AE3922E209711F4FD
:1031D000BB20D9F10E942B1781110AC0AA94AA2002
:1031E000D9F161E070E080E090E00E948918EECFB4
:1031F0008C171D0611F00CF08C2F9FB7F89480925D
:10320000E9002091E80025FD02C09FBFDFCF282FF5
:1032100030E0C21BD30BF701815020F04191409365
:10322000F100FACFE20EF31EBB2021F09092E800ED
:10323000B12CEBCF8091E80085FDE7CF9092E800BC
:10324000BB24B394209709F3F3CF5D9884E6809371
:10325000E701101611063CF081E090E0F60193833F
:10326000828310E000E0C801DF91CF911F910F91A0
:10327000FF90EF90DF90CF90BF90AF909F908F9096
:1032800008952091CF01E091CD01F091CE01CF01C1
:1032900002969093CE018093CD01222319F085915F
:1032A00094910895808191810895CF92DF92EF9259
:1032B000FF92CF93DF930E944119811520E8920776
:1032C00091F4809171008D7F809371001092910034
:1032D000469847981092CC01DF91CF91FF90EF90E4
:1032E000DF90CF90089521E02093CC01813020E839
:1032F000920751F48091CA019091CB019093CE0135
:103300008093CD010E94411997FD05C02091C9010C
:10331000222309F454C02091C801211150C021E09A
:103320002093D001EC01DF77209709F04BC081E0BA
:103330008093D10146983FE9C32E3FE0D32EE12C84
:10334000F12CCAEFD0E0E0915506F09156060995B0
:10335000811103C081E08093D1018091D001882345
:1033600029F08091D101882309F43FC047980E9439
:1033700041190097F1F19C01DE010E945E36DC01EB
:10338000CB0129E0B595A795979587952A95D1F713
:10339000109290002AE020939100D0929900C09260
:1033A00098008093D2019093D301A093D401B0935D
:1033B000D501809171008260809371008DCF109251
:1033C000D001B0CF9E0150E040E060E472E48FE0B5
:1033D00090E00E940A3669017A0181E0C81AD1089A
:1033E000E108F1081092D101AECF4699BFCF479ABC
:1033F000BECF8FEF9FEFDC01CBCF9C01E1E7F0E088
:1034000090819D7F90831092CF01E7E4F6E0F093E6
:10341000CE01E093CD01F093CB01E093CA0131835B
:1034200020837383628380E090E8958384830C9487
:1034300055190F9303E00E941E150F9108950F93E5
:103440000AEF0E941E150F9108950F930BEF0E9433
:103450001E150F9108950F9302E00E941E150F9103
:1034600008955E9A0895BC0190E080E00C9489185C
:1034700043B18FB129B190E08095909534E0959556
:1034800087953A95E1F7887030E02095309553E0C4
:10349000359527955A95E1F72370822B942F9095B7
:1034A000907D892B08951092C7012598259808953D
:1034B000259A259A81E08093C701089520E047EB83
:1034C00057E261E170E08FE290E00E941F1A81E113
:1034D0000E941315882319F087E08093E001089576
:1034E0001092C6011092BC011092C1011092C0014D
:1034F0001092C2011092C3011092C4011092C50132
:103500001092800183E08093730786E08093E0014E
:103510001092BF0110928101089580917307882352
:1035200081F010926D0781508093730764E670E01C
:1035300084EA91E00E94FD1981E08093680710926F
:1035400070070895883140F5683140F5A091C601B3
:10355000B0E0AA0FBB1FAF5EBE4FE82F082E000CD5
:10356000FF0B23E0F595E7952A95E1F79F0193E09E
:103570006902200D311D1124ED91FC91E20FF31F22
:10358000E491F0E087709F0102C0359527958A95F8
:10359000E2F7C9018170089581E0089580E00895FF
:1035A000EF92FF92CF93C5E05CE15C9FF0011124A4
:1035B000E95AF94FDF015A96328D31111CC07C0156
:1035C00084E0EE0CFF1C8A95E1F794E0660F771F0C
:1035D0009A95E1F771836083F382E28280E1489FEC
:1035E000A0011124518F408F81E08C93238FCF91C4
:1035F000FF90EF900895C150C0F6F9CF20E04CE362
:103600005AE170E060E080E290E00E941F1A21E041
:103610004CE35AE160E270E080E290E00E941F1A01
:1036200081E10E941315882349F081E08093E00135
:1036300064E170E089EA91E00C94FD1908950F931C
:103640001F93CF93DF9380918C0790918D078770A4
:103650009927892B31F480917E018F5F8F71809340
:103660007E0110E000E0C0E02C2F4BE054E170E060
:1036700060E0C8010E941F1ACF5F005E1F4FC43078
:1036800099F720E042E25DE16DE270E085E590E0CF
:103690000E941F1A2091DF014AED5CE16BE270E0AD
:1036A0008FE490E00E941F1AC0917E01D0E08E014D
:1036B00005511C4EF801249140ED53E169E070E0A2
:1036C00089E090E00E941F1AF801249140EB53E139
:1036D0006DE070E08FE090E00E941F1AFE01E0575D
:1036E000FC4E24914EE453E162E270E08DE690E0FE
:1036F000DF91CF911F910F910C941F1ACF930E94CD
:103700001F1B20E046EB5EE162E170E085E390E0A4
:103710000E942B1A82E00E941315882349F081E051
:1037200080937F0164E170E08CE291E00E94FD19DA
:1037300088E00E941315882341F010927F0164E114
:1037400070E08CE291E00E94FD19C0917F0189E058
:10375000C89FB00111246E5E7F4F20E040E35EE120
:1037600080E390E00E94191A81E00E9413158823DB
:1037700059F0C65FC093E00110927F0164E170E0F0
:1037800089EA91E00E94FD1980E10E9413158823C7
:1037900051F081E08093E00164E170E089EA91E01A
:1037A000CF910C94FD19CF9108950E941F1B20E02A
:1037B00043EB59E169E070E083E390E00E942B1A4B
:1037C00082E00E941315882369F080910001853002
:1037D00048F48F5F8093000164E170E08CE291E037
:1037E0000E94FD1988E00E941315882369F08091DA
:1037F0000001833048F081508093000164E170E063
:103800008CE291E00E94FD1981E10E94131588234A
:1038100051F0809100018093E00164E170E089EA59
:1038200091E00E94FD19809100018150990B29E0DF
:10383000289FB001299F700D112420E040E35EE134
:103840008EE290E00C94191ACF93C0918001CF5F63
:10385000C0938001C03A50F420E04DE058E164E0AC
:1038600070E082E290E0CF910C941F1A0E941F1B1F
:10387000CB3F28F481E10E941315882351F081E0A9
:103880008093E00164E170E089EA91E0CF910C94CB
:10389000FD19CF9108950C94F435CF92DF92EF92F9
:1038A000FF920F931F93CF93DF93EB017B0124E0F3
:1038B000E20EF11C8B016C01C61AD70AC601800FFB
:1038C000911F0E94F435F80181938F01EE15FF05D9
:1038D000A9F7CE01DF91CF911F910F91FF90EF904B
:1038E000DF90CF90089584E490E00E944B1C809379
:1038F000C60185E490E00E944B1C8093C1011092A8
:10390000BC011092C00162EC71E087E490E00E947B
:103910004D1C1092800183E08093730786E08093B2
:10392000E0011092BF0110928101089580918C07EF
:1039300080FD0FC00E94363524E130E040E050E0C9
:103940000E940A36CB01805C9E4F6EE170E00C94C1
:10395000FD1908954F925F926F927F928F929F927E
:10396000AF92BF92CF92DF92EF92FF920F931F938D
:10397000CF93DF93CDB7DEB72A970FB6F894DEBFAB
:103980000FBECDBF842E522EE62EF12C082F10E054
:10399000380182E0681A7108FE0131966F01F2E089
:1039A0002F1709F47BC06091C2017091C30180910F
:1039B000C4019091C5012AE0A6010E949935F60143
:1039C00001900020E9F73197EC19FD099E2E86E061
:1039D000582E5E1A570182E0A81AB10820E046E985
:1039E0005FE1B501C3010E941F1A45E0742E57E044
:1039F000652E20E046E85FE1B501C801769C800DA8
:103A0000911D11240E941F1A7A949FEF7912F1CF11
:103A100021E046E95FE1B501C80189960E941F1ABD
:103A2000712CA52C052C000CBB0827E0622E36E07B
:103A3000432E7A141B040CF44AC0E52DF6E0EF0285
:103A4000000D111D1124A00EB11E512C692C990CD2
:103A5000770887E0982E96E0492E852D90E0861510
:103A600097050CF05CC08C0D9D1DFC01208121335D
:103A70000CF448C020532A3008F044C0F2E08F16FE
:103A800009F442C045E657E2B701C801549C800DD5
:103A9000911D11240E942B1A5394DFCF8091C601EF
:103AA00090E04AE0B60101960E948E35F601019041
:103AB0000020E9F73197EC19FD099E2E5E1A20E0EF
:103AC00041E55FE1B70169507109C301A7CF82E009
:103AD00020E0881661F045E657E2B701C801749C02
:103AE000800D911D11240E942B1A7394A2CF49E0DE
:103AF0005FE1B701C801769C800D911D11240E94E1
:103B00001F1AF3CF20E0BACF49E05FE1B701C5014A
:103B1000599C800D911D11240E941F1ABDCF2A9619
:103B20000FB6F894DEBF0FBECDBFDF91CF911F91CE
:103B30000F91FF90EF90DF90CF90BF90AF909F904C
:103B40008F907F906F905F904F9008952F923F924B
:103B50004F925F926F927F928F929F92AF92BF929D
:103B6000CF92DF92EF92FF920F931F93CF93DF9349
:103B7000CDB7DEB728970FB6F894DEBF0FBECDBF26
:103B800080917307882309F4AAC0109258071092F5
:103B9000570710925A071092590710926A070E940D
:103BA000381A81FFABC380EF9FEF90935A07809341
:103BB000590780916F07811144C00E94381A87FF0E
:103BC000AFC380E190E0909358078093570781E05E
:103BD0008093690780916B07811197C380916D076E
:103BE000811193C380916C0781118FC360915D0730
:103BF00070915E07685F7F4F34E0759567953A95E1
:103C0000E1F780915B0790915C07019744E09595FF
:103C100087954A95E1F70E94A21A811109C0809107
:103C20005F079091600780979093600780935F078C
:103C300081E080936A078FEF9FEF909364078093F2
:103C4000630710926F070E94381A84FF07C00E9412
:103C5000381A81FFAFC388E08093E00181E00E94C1
:103C60001315882379F18091650790916607892B58
:103C700009F0ADC380916B078111A9C380916C07D6
:103C80008111A5C364E670E088EC90E00E94FD1904
:103C900010926A0781E080936B0710926E078BE0A9
:103CA0008093710788E290E09093660780936507A0
:103CB0000E94381A86FF84C380E290E090936407E4
:103CC000809363070E94381A80FD09C010926D0727
:103CD00080916B07882319F081E080936E078091B3
:103CE0006807882391F080918C0780FD06C0809141
:103CF000670791E0892780936707809170078F5F3E
:103D00008D3308F074C38093700780916A07811126
:103D100005C080916F07882309F471C380918C07D7
:103D200090918D0787709927892B79F4809172077C
:103D30008F5F982F93709093720780FD06C064E1A7
:103D400070E086E990E00E94FD19809165079091EE
:103D5000660720916D07211155C3181619060CF03E
:103D600051C321E020936B0710926C0720916E07DE
:103D700021110CC020917107222341F005969093E8
:103D800066078093650721502093710760915D0756
:103D900070915E078B01085F1F4FF4E01595079542
:103DA000FA95E1F740915B0750915C074A5F5F4FDE
:103DB000A4E055954795AA95E1F75A834983605F3A
:103DC0007F4FB4E075956795BA95E1F789810E94B8
:103DD000A21AD82E209163073091640780915F0763
:103DE00090916007820F931F15E0959587951A951E
:103DF000E1F70197121613060CF00CC32EE030E029
:103E0000820F931F5C0154E0B594A7945A95E1F793
:103E100060915D0770915E076E5F7F4FE4E075957E
:103E20006795EA95E1F78A2D0E94A21AE82E811182
:103E30000FC060915D0770915E07635F7F4F44E044
:103E4000759567954A95E1F78A2D0E94A21AE82E8A
:103E50008091650790916607A0906107B090620716
:103E6000A81AB90A35E0B594A7943A95E1F797FFF7
:103E7000D4C281E190E0A80EB91E14E0B594A794D5
:103E80001A95E1F780915B0790915C07029624E018
:103E9000959587952A95E1F76A2D0E94A21AF82E2A
:103EA00081110EC080915B0790915C070A96B4E087
:103EB00095958795BA95E1F76A2D0E94A21AF82E7A
:103EC000309173078091650790916607332309F459
:103ED000A7C2181619060CF4A7C2DD2009F4A0C267
:103EE0008091650790916607181619060CF4AEC20A
:103EF000F11003C0DD2009F4A9C280916C0788236A
:103F000031F06EE170E080E590E00E94FD191092C2
:103F1000660710926507109264071092630710926B
:103F20006C0710926B0710926D078091610790915A
:103F30006207F5E095958795FA95E1F70C96A4E070
:103F400095958795AA95E1F7880F10926107809360
:103F500062070E94381A807C803C09F445C0C090FA
:103F60005D07D0905E0770E1C70ED11C54E0D59478
:103F7000C7945A95E1F780915B0790915C0704968E
:103F800064E0959587956A95E1F76C2D0E94A21AD9
:103F9000B82E80915B0790915C07089674E0959528
:103FA00087957A95E1F76C2D0E94A21AA82E809130
:103FB0005B0790915C070B96E4E095958795EA95F1
:103FC000E1F76C2D0E94A21A91E0B91609F46FC2B4
:103FD000882309F46CC280915F0790916007449731
:103FE0009093600780935F07602F89810E94A21AD7
:103FF000811118C080915B0790915C0734E0959522
:1040000087953A95E1F7602F0E94A21A882309F458
:104010006FC280915F079091600708969093600748
:1040200080935F07809165079091660720917307E1
:10403000222321F0F11072C2009751F02091610704
:1040400030916207281B390B309362072093610778
:1040500020916307309164072115310561F0E1106B
:104060007BC280915F0790916007820F931F9093AE
:10407000600780935F078091610790916207F5E088
:1040800095958795FA95E1F720915F073091600744
:10409000A5E035952795AA95E1F730935C07209325
:1040A0005B0790935E0780935D0780916F07811196
:1040B0000E94961C80917307882309F457C0809151
:1040C000570790915807181619060CF05FC2019710
:1040D00090935807809357078091590790915A07FA
:1040E000181619060CF057C2019790935A0780933F
:1040F00059076091530770915407409155075091AB
:1041000056078091590790915A07840F951F209167
:104110005D0730915E07281B390B28513109359511
:10412000279535952795E0915707F0915807E60FA9
:10413000F71F80915B0790915C078E1B9F0BCA97BE
:104140009595879595958795860F971F909354071A
:1041500080935307240F351F2134B1E03B0714F03F
:1041600020E431E03093560720935507E8E0E983D7
:1041700010E1E12EF12C2981F0E12F9F8001112423
:1041800035E03B835B8140E1549FF0011124809135
:10419000550790915607805C9F4F9595879595950B
:1041A0008795B7010E948D36E81BF90B8091530764
:1041B000909154079595879595958795B7010E949D
:1041C0008D3620E146EF50E2BF01D801A81BB90BA4
:1041D000CD010E941F1ABB81B150BB83BF3F91F636
:1041E000E981E150E983EF3F31F6009153071091E7
:1041F000540774E0159507957A95E1F75801FFEF9C
:10420000AF1ABF0A6801E4E0CC0CDD1CEA95E1F7C7
:10421000E0915307F09154072091550730915607CC
:104220003A832983CF0164E0959587956A95E1F7F4
:104230000896801791070CF4BCC154E0359527957A
:104240005A95E1F73A832983EE24EA94E00E8091AF
:1042500055079091560744E0959587954A95E1F763
:10426000049649815A81841795070CF499C1698194
:10427000802F0E94A21A8823D9F169818E2D0E9475
:10428000A21A982E69816150802F0E94A21AF82EDE
:1042900069818A2D0E94A21A882E69816F5F802F02
:1042A0000E94A21A2F2D220F64E0969EA0011124D5
:1042B000242B282978E0879FC0011124282B809186
:1042C00055079091560769817A8134E0660F771F10
:1042D0003A95E1F7681B790B809153079091540749
:1042E00046EF50E2D601A81BB90BCD010E942B1A54
:1042F000E981FA813196FA83E983A9CF0E94381ABD
:1043000083FF57CC80E190E050CC8091630790917F
:104310006407813E2FEF92070CF493CC02978DCC6B
:104320000E94381A86FF8DCC80EF9FEF909358073C
:10433000809357071092690780916B07811130C0F5
:1043400080916D0781112CC080916C07811128C06C
:1043500060915D0770915E07685F7F4F04E075951F
:1043600067950A95E1F780915B0790915C070C9641
:1043700024E0959587952A95E1F70E94A21A81116C
:1043800009C080915F0790916007809690936007C5
:1043900080935F0781E080936A0781E090E04DCCD5
:1043A0008091630790916407803291050CF049CCAD
:1043B000029643CC10926D0781E080936F074ECC3C
:1043C0000E94381A87FF7ECC80EE9FEF77CC8091D9
:1043D0007307882309F476CC81E080936D0790E120
:1043E0009093740710926B0780936C076BCC1092BC
:1043F00070071092680781E08093670786CC10925F
:104400007207A3CC97FFC2CC10926B0781E0809318
:104410006C07BCCC30E020E0F3CC90E080E02BCD0A
:10442000813A5FEF95079CF103979093660780931D
:10443000650720916D07222339F02091740722230C
:1044400049F122502093740731114ACD80916307BE
:10445000909164079C0197FF04C022273327281BF3
:10446000390B223031050CF43EC020918C0730917D
:104470008D0723703327232B09F0B6CD18161906A4
:104480006CF501979093640780936307ADCD80EA44
:104490009FEFCBCF632F6550770BAB016817790780
:1044A0000CF4AC015093660740936507CDCFA11083
:1044B0009BCD80915B0790915C0744E09595879533
:1044C0004A95E1F76C2D0E94A21A882309F48CCD3D
:1044D00080915F0790916007449682CD009709F420
:1044E00083CD0196CFCF10926407109263077CCDE5
:1044F00080915B0790915C070B9624E095958795DA
:104500002A95E1F7602F0E94A21A882309F48ACD28
:1045100080915F0790916007089780CD1816190663
:104520000CF096CD80915D0790915E07089614E09F
:10453000959587951A95E1F7880F109261078093FA
:10454000620710926607109265076EE170E080E5E1
:1045500090E00E94FD197CCD1092640710926307D1
:1045600080915B0790915C070696807F2091690798
:1045700031E02327A4E02A9F90011124820F931F8A
:10458000B5E0880F991FBA95E1F771CD009709F44E
:10459000A3CD01969DCD009709F4ABCD0196A5CD95
:1045A0000F5F1F4FFFEFAF1ABF0A20E1C20ED11CF1
:1045B0002FCE609187077091880749815A81641BCB
:1045C000750B80918507909186072091340744EB05
:1045D00050E28E1B9F0B0E942B1A80918C079091AA
:1045E0008D0787709927892B61F4809185018F5FF2
:1045F000817080938501809184018F5F83708093A7
:104600008401809133078823C9F06091310770914C
:1046100032078091550790915607681B790B80915E
:104620002F0790913007E0915307F091540724E051
:104630004EE754E28E1B9F0B0E942B1AA5E0DA2E48
:10464000B9E09B2E9D9CB00111246A577E4F7A835E
:104650006983DB011896BC901897B2FE56C00D9185
:104660001C9111978091530790915407081B190BC7
:104670001296ED90FC908091550790915607E81A9C
:10468000F90ABB2DB370CB2E2B2F4CE554E2B701AA
:10469000C8010E942B1AB0FC1CC0F8E0AF2EB12C50
:1046A000E981FA813696FA83E983A981BA818D91ED
:1046B0009C91A816B9064CF5B5016E0D7F1D2C2DE9
:1046C0004CE554E2C8010E942B1AB8E0AB0EB11CB5
:1046D000ECCFE8E0AE2EB12CE981FA813496FA8372
:1046E000E983A981BA818D919C91A816B90668F4D5
:1046F0002C2D4CE554E2B701C8018A0D9B1D0E9488
:104700002B1AB8E0AB0EB11CECCFDA94EFEFDE124F
:1047100099CF80918C0790918D0783709927892B71
:1047200041F4809183018F5F63E00E946D36909326
:10473000830107E516E045E3E42E47E0F42E5FEF42
:10474000452E56E0552E6FEF662E66E0762E75E00C
:10475000A72ED8015A968C91882309F482C08091A3
:104760008C0780FD5EC06801B12CF60166817781FF
:10477000D80158968D909C90681579054CF56A5F24
:104780007F4FF60177836683409155075091560716
:104790002090530730905407D8015B969C905B970C
:1047A00012962D913C9113978D919C91A481B58186
:1047B000992009F1E1E09E1609F498C1205F3F4F6E
:1047C0002A1B3B0BD901A41BB50B861B970B98C169
:1047D000959487949594879460E070E0CB01811460
:1047E000910479F20E9436359401990C440B550BD3
:1047F0000E940A36C6CFF901E61BF70BBF01641B06
:10480000750B8A0F9B1F20E044EE54E28219930936
:104810000E94251AB394F4E0CF0ED11C24E0B2120A
:10482000A4CFD8015B968C915B97282F220F280F7D
:1048300080918301280F12966D917C91139780913E
:10484000550790915607681B790B8D919C91E091CB
:104850005307F09154074AE353E28E1B9F0B0E94CB
:104860002B1AF2018781882309F44BC080918C07B1
:1048700080FD27C08581181624F58681811121C00D
:104880006281738184E0759567958A95E1F78081EF
:10489000918104962481FA2D2F02800D911D1124FF
:1048A00024E0959587952A95E1F70E94A21A88231E
:1048B00009F42BC1D20114968C911497819514960A
:1048C0008C93F201858122E018160CF420E080918F
:1048D0008501280FD20112966D917C9113978091DA
:1048E000550790915607681B790B8D919C91E0912B
:1048F0005307F091540748E153E28E1B9F0B0E942F
:104900002B1AF70184818823B1F062817381809131
:10491000550790915607681B790B80819181E09132
:104920005307F0915407209184014EE754E28E1B07
:104930009F0B0E942B1A045E1F4FF5E0EF0EF11C37
:1049400028E0420E511C6016710609F002CF8091DA
:104950006707882309F4A0C000915B0710915C07EA
:104960008091530790915407081B190BE0905D0745
:10497000F0905E078091550790915607E81AF90A62
:1049800031E7E316F104CCF0809181079091820722
:104990009093600780935F078091830790918407CD
:1049A00090936207809361070E948D1A809173072C
:1049B000811103C089E08093E00180916D07882315
:1049C000B9F1209169074AEF420360011124C00E3A
:1049D000D11E50917407652F6E0D7F2D711D7A8346
:1049E0006983809173078230C0F020E04BE357E287
:1049F0006B507109C60101960E94191A80917307C4
:104A0000833058F020E04BE357E269817A816C50A3
:104A10007109C60107960E94191A69817A81695045
:104A2000710920E04BE357E2C60104960E94191A6F
:104A30002091690780916F07811191C0245F49EE31
:104A400055E2B701C8010E941F1A80916907282FFB
:104A5000220F280F220F80917207280F80916B0779
:104A600074E0879FC001112430916C07311102C09E
:104A700030916D07A5E03A9F800D911D1124909112
:104A80006F0731E09327989F200D112449EE55E2DE
:104A9000B701C8010E94251AFFE0F98320E04DEA22
:104AA00057E270E060E0A98138E0A39FC0011124C3
:104AB0000E941F1AB981B150B983BF3F79F719829B
:104AC00080917307E981E81708F0C8C0F7E0EF9F0D
:104AD000C00111242AE045E657E270E060E002964A
:104AE0000E942B1A29812F5F2983EACF205F3F4F35
:104AF0002A1B3B0BD901A41BB50B4096860F971FB1
:104B000020E044EE54E2BD0181CEF2016281738166
:104B1000A4E075956795AA95E1F76F5F8081918113
:104B200004962481FA2D2F02800D911D1124B4E0EA
:104B300095958795BA95E1F70E94A21A882309F402
:104B4000B9CED20114962C9114978D919C91119706
:104B5000820F911D27FD9A958D939C93B2CE220FC3
:104B600080918501280F47EE54E2B701C8010297F2
:104B70000E94191AEBE5F7E0FA83E98367E6462E0F
:104B800067E0562E70E1C72ED12CEDE08E2E912CD1
:104B9000A12CB12C3701FAE06F0E711C78012FE0C7
:104BA000E20EF11CA981BA815C968D919C915D9772
:104BB0008330910584F101975D969C938E935C9769
:104BC000A981BA815A968D919C915B97029797FD26
:104BD0002CC05B969C938E935A97E981FA81648DE1
:104BE000758D660D771D828D938D20916907222327
:104BF00079F120E044EE54E2D801A81BB90BCD01B5
:104C00000E94251AE981FA813496FA83E9834E16C7
:104C10005F0641F641CF8E3FBFEF9B078CF60196B2
:104C2000E981FA81958F848FCBCFE981FA81D38E88
:104C3000C28E0E943635A50194010E940A36645046
:104C40007109A981BA815D967C936E935C97C5CFFB
:104C500020E044EE54E28E0D9F1DD2CF21E041E0D2
:104C600060E08BE50E94AA1C35E0398306E010E085
:104C7000498156E0459FC001112488962091BD01CD
:104C8000B801621B7109461717060CF4F1C02BE03E
:104C900045E657E270E060E00E942B1A798171507E
:104CA00079837F3F29F780913407882349F02DE0ED
:104CB00045E657E270E060E08CE190E00E942B1A3C
:104CC00080917307882309F4AAC280915B079091B1
:104CD0005C07E0905D07F0905E07D7011296B887F9
:104CE000AF835091690741E0252F2427B0E12B9F26
:104CF00090011124280F391F1901E0E15E9F20184F
:104D0000310811248C010E5F1F4F20912F07309125
:104D10003007B901685F7F4F0617170720F50A961D
:104D20002817390700F580913107909132079C01CF
:104D3000205F3F4F6F81788562177307A4F4970156
:104D4000225F3F4F8217930774F4809133078823C3
:104D500051F0109233074093340768EC70E084EA16
:104D600091E00E94FD1980918507909186079C0132
:104D70002C5F3F4F0C960817190788F5C801089655
:104D80002817390760F580918707909188079C0163
:104D9000205F3F4FAF81B885A217B30704F5970195
:104DA000225F3F4F82179307D4F488E00E941315C7
:104DB0008823A9F080913407882389F080917307B4
:104DC0008093C00181E08093BF011092BE01809169
:104DD000C6018F5F8093C60186E08093E00145E0C5
:104DE000742E55E0652E2801B8E04B0E511C57017A
:104DF000EEE0AE0EB11C9101205F3F4F3C832B8350
:104E0000A701405F5F4F5E834D83C72CD12C6C9C04
:104E1000F0016D9CF00D1124EB5CF84F8481882328
:104E200009F46CC0808191812281338140916F07A8
:104E3000442301F16B817C8186179707D8F4AC017C
:104E4000465F5F4F24163506A8F4AD81BE812A1750
:104E50003B0784F4A901445F5F4F6F817885641735
:104E6000750744F420916907211145C0019744C09A
:104E70002CE00ECF8415950508F040C00A9608175F
:104E80001907E0F52A153B05CCF5245F3F4F8F81CC
:104E900098858217930794F56C9CF0016D9CF00D3A
:104EA0001124EB5CF84F14828091BD0181508093F6
:104EB000BD018091BC018F5F8093BC018091C101D5
:104EC0008F5F8093C10168EC70E080E991E00E94FF
:104ED000FD192091BD018091C2019091C301A09163
:104EE000C401B091C501222309F4A1C088539F4F8A
:104EF000AF4FBF4FA0C0019691838083D60133E0AE
:104F0000AA0FBB1F3A95E1F7BA83A983FD01E150CF
:104F1000F94F8781882309F466C080809180E28000
:104F2000F3802B813C8182169306A8F4C401089675
:104F30002816390680F44D815E81E416F5065CF48E
:104F4000C70108966F8178856817790724F48091E6
:104F50006F07811179C0E981FA81E150F94F16821A
:104F60008414950408F03FC088E0880E911C081551
:104F70001905C8F5EA14FB04B4F598E0E90EF11C34
:104F8000AF81B885AE15BF0574F5E981FA81E150AE
:104F9000F94F7F018581181634F5809168078111DA
:104FA00022C00E948D1A28E230E0309366072093D9
:104FB000650780915B0790915C07D7012D913C912B
:104FC000821B930B97FD9CC08630910514F085E001
:104FD00090E0029725E0880F991F2A95E1F79093BA
:104FE0006407809363078CE18C9DD0018D9DB00D8B
:104FF0001124A95AB94F5A968C915A97882309F4CB
:10500000C5C05B96EC915B972D913C9111971296E0
:105010006D917C91139758968D919C91EE2309F494
:1050200072C0E13009F49CC0281B390B9BC08C5026
:105030009E4FAF4FBF4F8093C2019093C301A09387
:10504000C401B093C5015ACF85818150858371E039
:10505000768318160CF484CF80915B0790915C07DF
:1050600020916907222361F194012F5F3F4F318323
:1050700020830797281739070CF472CF1782809185
:105080007307833040F58F5F809373078091C2016F
:105090009091C301A091C401B091C501C296A11D18
:1050A000B11D8093C2019093C301A093C401B0933A
:1050B000C50164E670E088EC90E00E94FD1950CFD5
:1050C000940121503109318320830F968217930771
:1050D0000CF446CFD3CF8091C2019091C301A0912F
:1050E000C401B091C5018C599F4FAF4FBF4F809302
:1050F000C2019093C301A093C401B093C501C6CF70
:1051000080EA9FEF6CCF681B790B40E150E02415DB
:105110003505E0F5240F351F02171307B8F56A159A
:105120007B05A4F5860F971F2F813885281739072F
:105130006CF580916D07882349F1EE23B9F0309129
:10514000630720916407E13009F482C0832F922F16
:105150008F3C3FEF930714F48FEC9FEF059780C0CF
:10516000205F3F4FAC0180E190E0D1CF8091650797
:10517000909166078C35910514F08BE590E00596CB
:1051800090936607809365070E94961C809168073C
:10519000811141C0E9E0EC9DC001ED9D900D11240D
:1051A000AC014A575E4F7A01DA0118968C9182FF62
:1051B00032C07E9EF0011124EA57FE4F808191811A
:1051C0008415950540F524813581820F931F0817BA
:1051D000190708F5828193818A159B05E4F42681DD
:1051E0003781820F931FEF81F885E817F9079CF448
:1051F0000E948D1A20915D0730915E07D7011296AB
:105200008D919C912817390734F4E8E2F0E0F0938F
:105210006607E09365077A94FFEF7F12F6CD289634
:105220000FB6F894DEBF0FBECDBFDF91CF911F91B7
:105230000F91FF90EF90DF90CF90BF90AF909F9035
:105240008F907F906F905F904F903F902F90089538
:10525000832F922F8233910514F081E390E005961D
:1052600090936407809363078FCF20E042E25DE173
:1052700062E070E08BE290E00E941F1A2091DF0153
:105280004AED5CE170E060E085E290E00E941F1A68
:1052900020E048E75CE160E370E088E290E00E9493
:1052A0001F1A62EC71E08BE490E00E944D1C86E4D2
:1052B00090E00E944B1C20E08A3E29F544E65CE128
:1052C0006CE170E085E190E00E941F1A20E04EE35F
:1052D0005CE16CE170E08EE190E00E941F1A21E039
:1052E00042E06EE187E30E94AA1C81E10E9413154F
:1052F000882381F081E08093E00164E170E089EA35
:1053000091E00C94FD194EE55CE16CE170E08CE1FC
:1053100090E0DACF0895FF920F931F93CF93DF931E
:10532000EC01F62E08811981C8010E94F435F816A7
:1053300021F06F2DC8010E94FC35CE01DF91CF9185
:105340001F910F91FF9008950F931F93CF93DF93B9
:1053500000D0CDB7DEB78C0184E490E09A838983D6
:10536000F8016081CE0101960E948B2985E490E0CE
:105370009A838983F8016181CE0101960E948B296D
:10538000C8010F900F90DF91CF911F910F91089559
:10539000AF92BF92CF92DF92EF92FF920F931F9343
:1053A000CF93DF9300D0CDB7DEB78B016B0124E044
:1053B000C20ED11C7B015C01A61AB70AC5018E0D75
:1053C0009F1D9A838983F70161917F01CE01019628
:1053D0000E948B29EC14FD0489F7C8010F900F90EF
:1053E000DF91CF911F910F91FF90EF90DF90CF90C1
:1053F000BF90AF9008950F931F93CF93DF9300D08A
:10540000CDB7DEB78B019A838983FB016081CE0122
:1054100001960E948B29C8010F900F90DF91CF91C8
:105420001F910F910895CF93DF9300D000D0CDB797
:10543000DEB78091C601873208F04CC022E042E01E
:105440006AE18EE40E94AA1C83E220E04FE158E268
:1054500061E170E090E00E941F1A21E042E061E308
:105460008BE20E94AA1C19821A821B821C82BE0136
:105470006F5F7F4F8BE490E00E944D1C4091C20112
:105480005091C3016091C4017091C50189819A81D5
:10549000AB81BC8184179507A607B70760F461EC60
:1054A00071E086E490E00E94FB2962EC71E08BE4FD
:1054B00090E00E94C82981E10E941315882319F009
:1054C00081E08093E0010F900F900F900F90DF919B
:1054D000CF9108958FE2B9CF2F923F924F925F9272
:1054E0006F927F928F929F92AF92BF92CF92DF92F4
:1054F000EF92FF920F931F93CF93DF93CDB7DEB759
:1055000060970FB6F894DEBF0FBECDBF80918C07B9
:1055100090918D0764E170E00E947936892B69F5DE
:105520001092BE018091BC01E0918201882309F4B0
:1055300074C081508093BC018091C2019091C301DD
:10554000A091C401B091C5014496A11DB11D8093E5
:10555000C2019093C301A093C401B093C50181E03F
:105560008E0F80938201F0E0E655FF4DE49166E9ED
:1055700070E08E2F90E00E94FD1966EC71E084E4EB
:1055800090E00E94FB2961EC71E085E490E00E94CC
:10559000FB2962EC71E087E490E00E94C8298091C9
:1055A000C601873208F071C020E04CE350E264E0AD
:1055B00070E083E290E00E941F1A22E042E06DE07A
:1055C0008EE40E94AA1C21E042E061E38BE20E948B
:1055D000AA1C8091BF01882309F469C0D090BC0146
:1055E000E090C001ED0C2E2D39EF32038001112423
:1055F0000F5B1F4FF12CFE1409F459C020E0FD147D
:1056000008F021E04AE050E26BE170E0C8010E943E
:105610002B1AF394025F1F4FEECF8091C0018823B5
:1056200079F081508093C0018091C2019091C301B3
:10563000A091C401B091C5014E96A11DB11D87CFA7
:1056400091E09093BE011092BF0180918101892762
:1056500080938101EA3080F481E08E0F8093820193
:10566000F0E0E655FF4D849168EC70E090E00E9418
:10567000FD198AE0809382018091C601873208F487
:105680007CCF89E08093E00178CF1A821982CE0125
:1056900001960E94A42919821A821B821C82BE01D3
:1056A0006F5F7F4F87E490E00E94C8298CCF809184
:1056B000BE01882309F47BC280918101882349F0CF
:1056C00020E040EA5FE16DE170E086E290E00E9458
:1056D0002B1A81E10E941315882309F468C21092E5
:1056E000820164E170E089EA91E00E94FD19109264
:1056F0005C0710925B0710925E0710925D0780E8CE
:1057000090E09093600780935F0710926207109279
:105710006107109264071092630710926607109257
:10572000650781E080936707809368071092700790
:10573000109271071092690710926A0710926B0716
:1057400010926C0710926D0780936E0710926F078E
:1057500083E080937307109274070BE517E090E1E4
:10576000C92ED12CE12CF12C0E9436354B015C0165
:105770000E943635A70196010E940A36F801738F00
:10578000628FC501B401A70196010E940A36F80193
:10579000758F648F0C5F1F4FF7E007361F0721F7E7
:1057A000109254071092530780E491E090935607AB
:1057B00080935507109258071092570710925A0776
:1057C000109259071092BD0115E0D12E00E1402E34
:1057D000512C612C712C80E1282E312CED2CF12CD8
:1057E0002CE12E9DF0012F9DF00D1124E95AF94F67
:1057F00011821082138212828F01B4E0CB2E0E949C
:1058000036354B015C010E943635A30192010E949E
:105810000A36F80175836483C501B401A3019201BE
:105820000E940A36F80177836683CA940C5F1F4F83
:10583000C110E5CF2CE12E9DF0012F9DF00D11241C
:10584000E95AF94F118E108E128E138E39E03E9D5B
:10585000F0013F9DF00D1124EA57FE4F1182108296
:1058600013821282358224823782268241E0408769
:10587000F701A3E0EE0FFF1FAA95E1F7E150F94F02
:10588000118210821382128217828EE185834483F3
:10589000168295E09E9DF0019F9DF00D1124EB5C1A
:1058A000F84F11821082138212821482DA94EFEF81
:1058B000DE1294CFE091C601F0E0EE0FFF1FEF5E25
:1058C000FE4FA080B180F8E4AF0EB11CF5018491C9
:1058D00090E044244394E8E06E2E712C8F3F09F44D
:1058E00063C1F501E90FF11D849104910F7162E02C
:1058F000562E590EE1E0E90FEA0DFB2DF11D149132
:105900001F71E52DF0E0807E803409F465C0D0F48D
:105910008823C9F1803209F44EC020E1129FF001C2
:105920001124F0933007E0932F0730E1039F8001AB
:1059300011241093320700933107409233071092DD
:10594000340733C0803809F488C0803A09F403C1B1
:10595000803619F743E0542E590EEA0DFB1DE491F1
:10596000812F90E010E0E03408F05FC09E838D83CB
:1059700018870F8320E04E2F6D817E818F8198855F
:105980000E94D01A12C0110F109281071093820743
:10599000000F109283070093840710925F07109303
:1059A00060071092610700936207F501E50DF11D94
:1059B0008491952D93CF20E1129FF0011124F09353
:1059C0008607E093850730E1039F8001112410933F
:1059D000880700938707E9CFEFEFF6E090E080E0DB
:1059E000278121111CC053E0880F991F5A95E1F7B8
:1059F000DC01A150B94F40E1149FF0011124119630
:105A0000FC93EE9380E1089F80011124085F1F4FF3
:105A100013961C930E93129717964C92C6CF01962D
:105A2000389686309105E1F6C0CF4E2F4F73E03C9B
:105A300050F49A8789871C870B8721E069857A85CE
:105A40008B859C859DCF9E878D87188B0F8722E045
:105A50006D857E858F85988993CF3197EA0DFB1DE3
:105A6000E490E6E8F1E090E080E0208522FD6CC063
:105A7000F12C25E0F594E7942A95E1F7EFEFEE1A83
:105A8000FE0A34E0EE0CFF1C3A95E1F7F0E11F9FAF
:105A90001001112449E0489F9001499F300D1124C5
:105AA000C9018A579E4F6C01FC0131822082F0E1CE
:105AB0000F9F40011124FC01938282826FEF600FDF
:105AC000812F0E94A21A882341F027E0F601208747
:105AD000F582E4827782668268CF61E0600F812F71
