:100000000C947F040C94A7040C94A7040C94A704EC
:100010000C94A7040C94A7040C94A7040C94A704B4
:100020000C94A7040C94A7040C9408110C94771159
:100030000C94A7040C94A7040C94A7040C94A70494
:100040000C94A7040C94BA140C94A7040C94A70461
:100050000C94A7040C94A7040C94A7040C94A91363
:100060000C94A7040C94A7040C94A7040C94A70464
:100070000C94A7040C94A7040C94A7040C94A70454
:100080000C94F3130C94A7040C94A7040C94A704E9
:100090000C94A7040C94A7040C94A7040C94A70434
:1000A0000C94A7040C94A7040C94A7043F213F00D0
:1000B0003F003D252725253F07043F27253D3F25B8
:1000C0003D01013F3F253F27253F05020547414DA3
:1000D00045204F5645520000000000003E5B4F5B3C
:1000E0003E3E6B4F6B3E1C3E7C3E1C183C7E3C18DB
:1000F0001C577D571C1C5E7F5E1C00183C1800FFBF
:10010000E7C3E7FF0018241800FFE7DBE7FF3048EC
:100110003A060E2629792926407F050507407F05E6
:10012000253F5A3CE73C5A7F3E1C1C08081C1C3EDD
:100130007F14227F22145F5F005F5F06097F017FCB
:10014000006689956A606060606094A2FFA294086E
:10015000047E040810207E201008082A1C08081CB1
:100160002A08081E101010100C1E0C1E0C30383EF1
:100170003830060E3E0E06000000000000005F0052
:10018000000007000700147F147F14242A7F2A121E
:100190002313086462364956205000080703000004
:1001A0001C2241000041221C002A1C7F1C2A080836
:1001B0003E08080080703000080808080800006049
:1001C000600020100804023E5149453E00427F4035
:1001D0000072494949462141494D331814127F1094
:1001E00027454545393C4A494931412111090736DE
:1001F00049494936464949291E000014000000407B
:100200003400000008142241141414141400412274
:10021000140802015909063E415D594E7C12111223
:100220007C7F494949363E414141227F4141413E1F
:100230007F494949417F090909013E414151737F85
:100240000808087F00417F41002040413F017F08AE
:100250001422417F404040407F021C027F7F0408FF
:10026000107F3E4141413E7F090909063E4151212F
:100270005E7F09192946264949493203017F010356
:100280003F4040403F1F2040201F3F4038403F63D9
:100290001408146303047804036159494D43007F33
:1002A0004141410204081020004141417F04020104
:1002B00002044040404040000307080020545478A6
:1002C000407F284444383844444428384444287FF4
:1002D000385454541800087E090218A4A49C787F4E
:1002E0000804047800447D40002040403D007F1019
:1002F00028440000417F40007C047804787C080496
:1003000004783844444438FC182424181824241849
:10031000FC7C08040408485454542404043F442436
:100320003C4040207C1C2040201C3C4030403C4451
:10033000281028444C9090907C4464544C4400080D
:10034000364100000077000000413608000201023B
:1003500004023C2623263C1EA1A161123A40402003
:100360007A3854545559215555794121545478417E
:10037000215554784020545579400C1E5272123940
:1003800055555559395454545939555454580000F9
:10039000457C410002457D420001457C40F0292416
:1003A00029F0F0282528F07C545545002054547C31
:1003B000547C0A097F493249494932324848483217
:1003C000324A4848303A4141217A3A424020780046
:1003D0009DA0A07D39444444393D4040403D3C24EB
:1003E000FF2424487E4943662B2FFC2F2BFF09292D
:1003F000F620C0887E090320545479410000447DD2
:10040000413048484A32384040227A007A0A0A721B
:100410007D0D19317D2629292F28262929292630C5
:10042000484D4020380808080808080808382F10E8
:10043000C8ACBA2F102834FA00007B000008142A38
:10044000142222142A14089500220095AA005500AF
:10045000AAAA55AA55AA000000FF00101010FF001C
:10046000141414FF001010FF00FF1010F010F0140F
:100470001414FC001414F700FF0000FF00FF141414
:10048000F404FC141417101F10101F101F14141460
:100490001F00101010F0000000001F101010101F9F
:1004A00010101010F010000000FF101010101010AD
:1004B000101010FF10000000FF140000FF00FF00EC
:1004C000001F10170000FC04F41414171017141464
:1004D000F404F40000FF00F714141414141414F7B7
:1004E00000F7141414171410101F101F141414F410
:1004F000141010F010F000001F101F0000001F1457
:10050000000000FC140000F010F01010FF10FF14A9
:100510001414FF141010101F00000000F010FFFF53
:10052000FFFFFFF0F0F0F0F0FFFFFF000000000021
:10053000FFFF0F0F0F0F0F38444438447C2A2A3E28
:10054000147E02020606027E027E02635549416362
:100550003844443C04407E201E2006027E0202995C
:10056000A5E7A5991C2A492A1C4C7201724C304AF5
:100570004D4D303048784830BC625A463D3E49497E
:1005800049007E0101017E2A2A2A2A2A44445F4426
:100590004440514A444040444A51400000FF010356
:1005A000E080FF000008086B6B0836123624360620
:1005B0000F090F060000181800000010100030404E
:1005C000FF0101001F01011E00191D1712003C3C14
:1005D0003C3C000000000006011501260137014ADD
:1005E000015D01720188019F01B801D201EE010B8A
:1005F000022A024B026E029302BA02E40210033F87
:10060000037003A403DC03170455049704DD0427D7
:10061000057505C80520067D06E0064907B8072DC3
:1006200008A9082D09B9094D0AEA0A900B400CFAED
:100630000CC00D910E6F0F5A1053115B1272139A6A
:1006400014D41520178018F519801B231DDE1EB445
:1006500020A622B524E4263429A72B402E0031EA17
:10066000330037453ABC3D68414C456B49C84D683D
:10067000524F57805C006210111213151617181A8A
:100680001C1D1F21232527292C2E3134373A3E41AA
:1006900045494E52575C62686E757B838B939CA56F
:1006A000AFB9C4D0DCE9F70000000200090F000078
:1006B000030401000C000000000000000000000026
:1006C000000000000000F0F89C8E8783878E9CF865
:1006D000F00000FEFF0303030303070EFCF8000015
:1006E000FEFF0303030303070EFCF80000FFFF00F7
:1006F000000000000000FFFF0000FEFF83838383F3
:1007000083C7EE7C380000F8FC0E07030303070ED6
:10071000FCF800003F7FE0C08080C0E07F3FFFFF2B
:1007200001010101010101FFFF0000FFFF0C0C0CA2
:100730000C1C3E77E3C100007FFFC0C0C0C0C0E01A
:10074000703F1F00001F3F70E0C0C0C0E0703F1F3F
:1007500000007FFFC1C1C1C1C1E3773E1C00001F83
:100760003F70E0C0C0C0E0703F1F0000000000010B
:10077000FFFF0100000000000000240027002A0005
:100780002D003000D5F08D14A1C881CFD9F1AF2054
:10079000000B020A021202040208020102150117EC
:1007A00001160100F8FC24243C18003D3D0000180F
:1007B0003C24242400183C24243C1800041C382029
:1007C000381C0410382A2A2E3C20183C2424273FA9
:1007D00020001C3E2A2A2E0C00043C3E0202242E3D
:1007E0002A2A3A1206060706060105060605040728
:1007F00004050205000500050305060503060502BC
:1008000005060306030603060306030600030603A4
:10081000000006030600060507030705060005039A
:10082000000606000700060600060607000503008E
:100830000606050700060606063C3E1F0F0F1F3E74
:100840003C080B0002020200000904000001020241
:100850000000052400100105240101010424020602
:10086000052406000107058103100040090401006A
:10087000020A00000007050202400000070583028B
:100880004000000403090412010002EF020140418C
:1008900023368000010102030141726475696E6FA5
:1008A000204C4C430041726475626F790004080269
:1008B00001104080401020408040800802040180E8
:1008C0004020100201108010204040200000000055
:1008D000250028002B002E0031000404040404032A
:1008E00004050202020204030202020206060606D0
:1008F0000606040402020204040301002515112463
:100900001FBECFEFDAE0DEBFCDBF12E0A0E0B1E066
:10091000E0EBFFE302C005900D92A834B107D9F7D0
:1009200027E0A8E4B2E001C01D92AF36B207E1F7BC
:1009300014E0CFE7D4E004C02197FE010E94C41F59
:10094000CE37D107C9F70E9458150C94D61F0C94C6
:100950000000462F477066956695669590E8699FFA
:10096000B00111246B5A7C4F860F972F911DFC010B
:10097000848990E021E030E0042E02C0220F331F72
:100980000A94E2F78223932302C0959587954A95AE
:10099000E2F708952F923F924F925F926F927F926B
:1009A0008F929F92AF92BF92CF92DF92EF92FF927F
:1009B0000F931F93CF93DF9300D000D01F92CDB73A
:1009C000DEB7822E912C9401280F391F37FDD7C036
:1009D000803891050CF0D3C09B01200F311D37FDED
:1009E000CEC0603471050CF0CAC0DB0177FF04C0D3
:1009F000AA27BB27A61BB70BA770BB279B0177FFB6
:100A000002C0295F3F4FF3E035952795FA95E1F74E
:100A100077FF08C02150310968E070E0FB01EA1B54
:100A2000FB0BDF01202E269426942694312C077090
:100A300019F0FFEF2F1A3F0ABA01A9015695542F5A
:100A4000442757954795480F591F5C834B83220EC7
:100A5000331E48E050E03A016A1A7B0A2216330638
:100A600009F48DC02830310509F489C02F3F5FEFAC
:100A700035070CF458C00B811C810B5A1C4F6C01BC
:100A800050E040E0EB81FC81EB52FC4F2F01D7FCA2
:100A90003BC02F3F320709F46EC05A01A60EB71EA5
:100AA000F801F488F1E0EF1249C0F501A490EA2DB5
:100AB0000A2E01C0EE0F0A94EAF7FE2AF801F48A22
:100AC000109711F127303105F9F0FA01E60FF71F01
:100AD000FA83E9835201A40EB51EF501F489FD8362
:100AE000FF24F394E981FA81EF1036C0F491F98381
:100AF000EF2FF0E0062C02C0F595E7950A94E2F797
:100B0000FD80FE2AF501F48A4F5F5F4FFFEFCF1A99
:100B1000DF0A0F5F1F4F481559052CF4F0E8CF1678
:100B2000D10409F0B4CF2F5F3F4F680D791D4B8181
:100B30005C8140585F4F5C834B8390CFF501A4905C
:100B4000EA2DF0E00A2E02C0EE0FFF1F0A94E2F732
:100B5000E095F095FE22B2CFF491F983EF2FF0E00B
:100B6000062C02C0F595E7950A94E2F7E095F0951A
:100B7000FD80FE22C7CF109709F0A7CFC5CF0F90F9
:100B80000F900F900F900F90DF91CF911F910F91C9
:100B9000FF90EF90DF90CF90BF90AF909F908F909D
:100BA0007F906F905F904F903F902F9008952F927D
:100BB0003F925F926F927F928F929F92AF92BF927D
:100BC000CF92DF92EF92FF920F931F93CF93DF9319
:100BD0009C01AB012090F3023090F402C091F70227
:100BE000D091F802B101C215D3050CF4BE01A09159
:100BF000F502B091F6020091F9021091FA02CD01CE
:100C00000A171B070CF4C801621773070CF095C094
:100C10006D5B7F4F621773070CF48FC084179507C5
:100C20000CF08BC04A96841795070CF486C0809010
:100C3000FD0270ECE72E72E0F72E912CEAE07E2E9A
:100C4000F7E06F2E84E0C82ED12C96E0592E891043
:100C500037C0C92DD0E0C054DD4F8AE0F82E97E0B0
:100C6000E92E04E010E066E0D62EF1E3F91508F471
:100C700064C08991882311F1892D6F2D0E94821FF4
:100C8000B1019E9D600D711D112426173707B4F028
:100C90006C5F7F4F621773078CF0B801681B710996
:100CA000D69EC001D79E900D11248A0F9B1F481716
:100CB000590724F002968417950754F59394D5CFDD
:100CC000F70181917F018823B1F1892D672D0E9461
:100CD000821FBE01969D600D711D112426173707D6
:100CE00054F16C5F7F4F621773072CF15601A81AFD
:100CF000B1085A9CB0015B9C700D1124600F711FEC
:100D000046175707C4F06E5F7F4F641775079CF056
:100D1000892DDF91CF911F910F91FF90EF90DF9080
:100D2000CF90BF90AF909F908F907F906F905F908B
:100D30003F902F90089593948ACF8FEFEACF89E662
:100D400093E020E0B22FB111BFEFFC010024B1937A
:100D5000B193B193B1930394D1F70895FC018091BD
:100D6000A502882311F13FB7F89482E08093E9004F
:100D70002091F200822F90E01816190614F481E0F9
:100D800090E0882339F0289844E64093A4024091EB
:100D9000F1004083222339F02091F200211103C099
:100DA0002BE62093E8003FBF08958FEF9FEF089553
:100DB0002FB7F89483E08093E9009091E800892FA1
:100DC000807295FF04C09091F20080E4891B2FBFD0
:100DD000089580919C0281110DC082E08093980259
:100DE00084E08093990210929B0210929A0281E013
:100DF00080939C0288E992E00895CF93DF931F923D
:100E0000CDB7DEB76983DC01ED91FC910280F381FF
:100E1000E02D41E050E0BE016F5F7F4F09950F90DC
:100E2000DF91CF91089583E08093E9008091F200F3
:100E3000882319F08AE38093E80008950E94D80679
:100E400090E00895CF93DF931F92CDB7DEB7FC01FA
:100E50008485958597FD08C02FEF3FEF3587248760
:100E60000F90DF91CF910895CE0101960E94AE06BA
:100E7000019719F4898190E0F3CF8FEF9FEFF0CFC6
:100E80000F931F93CF93DF931F92CDB7DEB78C01E3
:100E9000FC018485958597FF0BC0CE0101960E94C9
:100EA000AE06019771F4898190E0F80195878487F7
:100EB000F801848595850F90DF91CF911F910F9157
:100EC00008958FEF9FEFF1CFFC018485958597FD05
:100ED0000BC09FB7F89482E08093E9008091F20004
:100EE0009FBF90E0019608959FB7F89482E08093A9
:100EF000E9008091F2009FBF90E008954091920236
:100F00005091930220919002309191024217530721
:100F1000B4F49091E8009570E1F39091E80092FDAF
:100F200019C08093F10080919202909193020196F2
:100F30008F739927892B19F48EEF8093E8008091A5
:100F40009202909193020196909393028093920261
:100F500081E0089580E00895EF92FF920F931F9330
:100F6000CF93DF93F82E192FE62E042F81E0860F02
:100F7000880F0E947E0783E00E947E07CF2DD12F2D
:100F8000EC0EFD2EF11CCE15DF05B9F007FF13C0E6
:100F9000FE0184910E947E07182F80E00E947E0748
:100FA000812321968111EFCFDF91CF911F910F9176
:100FB000FF90EF9008958881EDCF81E0F5CFDF922B
:100FC000EF92FF920F931F93CF93DF93D82E8A0156
:100FD000EB017B01E40EF51ECE15DF0559F0D7FEBF
:100FE00012C0FE0184910E947E0721968111F4CFE8
:100FF0000FEF1FEFC801DF91CF911F910F91FF906D
:10100000EF90DF9008958881EECF0F931F93CF93D9
:10101000DF931F92CDB7DEB782E0898342E450E0D0
:1010200061E478E080E80E94DF070E94E906DC01C5
:1010300012960D911C910115110589F0D801ED91C1
:10104000FC910280F381E02DBE016F5F7F4FC801EC
:10105000099597FD04C0F80100851185ECCF8981C1
:101060000F90DF91CF911F910F910895615030F053
:101070002091F100FC0120830196F8CF289884E6A6
:101080008093A4020895AF92BF92CF92DF92EF9225
:10109000FF920F931F93CF93DF936C017B018B0122
:1010A000040F151FEB015E01AE18BF08C017D10772
:1010B00059F06991D601ED91FC910190F081E02DFC
:1010C000C6010995892B79F7C501DF91CF911F9151
:1010D0000F91FF90EF90DF90CF90BF90AF90089569
:1010E000282F30E0F901E955F94F9491F901E355C2
:1010F000F74F84912652374FF9012491222309F4A6
:1011000030C09923E9F091509F30D0F4E92FF0E0FE
:10111000E457F74F0C94C41FBA08BE089B08B208E6
:10112000B608A008A008A008C108C708CB08CF08C7
:10113000D508A008D908909180009F7790938000EF
:10114000E22FF0E0EE0FFF1FE453F74FA591B491AB
:101150009FB7F894EC91611132C080958E238C93E7
:101160009FBF0895909180009F7DE8CF909180006F
:10117000977FE4CF94B59F7794BDE2CF94B59F7DE0
:10118000FBCF909190009F7790939000D9CF909152
:1011900090009F7DF9CF90919000977FF5CF90912F
:1011A000C0009F779093C000CBCF9091C0009F7DEF
:1011B000F9CF9091C200977F9093C200C1CF8E2B40
:1011C000CECFCF93DF9390E0FC01E355F74F24910E
:1011D0008652974FFC0184918823C9F090E0880FD4
:1011E000991FFC01EA58F84FA591B491FC01E45312
:1011F000F74FC591D49161110DC09FB7F8948C91B0
:10120000209582238C938881282328839FBFDF9198
:10121000CF910895623051F49FB7F8943C91822F9A
:10122000809583238C93E8812E2BEFCF8FB7F89492
:10123000EC912E2B2C938FBFEACF3FB7F89480917F
:10124000590290915A02A0915B02B0915C0226B5BE
:10125000A89B05C02F3F19F00196A11DB11D3FBFEE
:10126000BA2FA92F982F8827BC01CD01620F711DBD
:10127000811D911D42E0660F771F881F991F4A95B7
:10128000D1F708958F929F92AF92BF92CF92DF9243
:10129000EF92FF924B015C010E941D096B017C01E2
:1012A0000E941D096C197D098E099F09683E7340D3
:1012B00081059105A8F321E0821A9108A108B108DF
:1012C00088EEC80E83E0D81EE11CF11C8114910445
:1012D000A104B10429F7FF90EF90DF90CF90BF9069
:1012E000AF909F908F9008958F929F92AF92BF92F0
:1012F000CF92DF92EF92FF920F931F93CF93DF93E2
:101300006C017B018A018091EE01882309F45CC0A5
:101310008091A502882309F457C08091970280FF2D
:1013200005C08091E00082608093E000E801B12C6C
:101330008AEFA82E93E0892E2AE3922E209711F4AB
:10134000BB20D9F10E94D80681110AC0AA94AA2014
:10135000D9F161E070E080E090E00E944209EECFB8
:101360008C171D0611F00CF08C2F9FB7F89480920B
:10137000E9002091E80025FD02C09FBFDFCF282FA4
:1013800030E0C21BD30BF701815020F04191409314
:10139000F100FACFE20EF31EBB2021F09092E8009C
:1013A000B12CEBCF8091E80085FDE7CF9092E8006B
:1013B000BB24B394209709F3F3CF5D9884E6809320
:1013C0009602101611063CF081E090E0F60193833E
:1013D000828310E000E0C801DF91CF911F910F914F
:1013E000FF90EF90DF90CF90BF90AF909F908F9045
:1013F000089543B18FB129B190E08095909534E084
:10140000959587953A95E1F7887030E0209530956D
:1014100053E0359527955A95E1F72370822B942F49
:101420009095907D892B0895FC0121912EBD9C5FA4
:1014300021910DB407FEFDCF2EBDE817F907C1F7C6
:101440000DB407FEFDCF0895CF92DF92EF92FF9289
:101450000F931F93CF93E82FF0E0E750F74FC4911D
:10146000E62FF0E0603398F5E958F94FE4910E2F3C
:1014700010E0F12CE12C60E074E284EF90E0A70131
:1014800098010E94321F215031094109510991E010
:101490002115310581E0480751056CF060E970EDD8
:1014A00083E090E0A70198010E94321F215031098A
:1014B0004109510993E0C13089F0C330F9F0CF916F
:1014C0001F910F91FF90EF90DF90CF900895EE0F56
:1014D000FF1FE958FA4F05911491CBCF80918100FD
:1014E000887F892B80938100309389002093880026
:1014F00080916F00826080936F00E1CF80919100B6
:10150000887F892B809391003093990020939800D5
:10151000109357020093560281E080935502809108
:101520007100826080937100CACFE82FF0E0E7502D
:10153000F74FE491E13019F0E33089F0089580919C
:101540006F008D7F80936F008091A902E091AA02C5
:10155000F091AB0290818095892380830895109249
:1015600055028091A602E091A702F091A802F2CF65
:10157000CF938091AC02823081F0E82FF0E0E75009
:10158000F74FC4918F5F8093AC0261E089E00E94C5
:10159000E108C13021F0C33021F1CF9108951092BC
:1015A000800010928100809181008860809381008A
:1015B00080918100816080938100E3EEF8E0E49106
:1015C000F0E0EE0FFF1FE453F74F85919491909355
:1015D000AB028093AA02E6EBF8E0E491E093A90263
:1015E000DCCF109290001092910080919100886061
:1015F0008093910080919100816080939100E3EE4F
:10160000F8E0E491F0E0EE0FFF1FE453F74F85910F
:1016100094919093A8028093A702E6EBF8E0E491FE
:10162000E093A6028091AC02882321F06CE380E075
:101630000E94240A80E0CF910C94950AE4E6F0E041
:101640008081877F8083E5E6F0E08081877F8083EB
:10165000089560387105E8F440345105D0F4342F12
:10166000369536953695A0E83A9FF0011124E60F9D
:10167000F71FE80FF91F3489CA018770992741E0E5
:1016800050E001C0440F8A95EAF7222319F0432B5A
:10169000448B089540954323FBCFAF92BF92CF92E6
:1016A000DF92EF92FF920F931F93CF93DF936B0123
:1016B000EC015C01A40EB11C7B01E20EF11CCA1509
:1016C000DB05DCF48601D7FE02C010E000E0C701B4
:1016D00021E4E216F10414F080E490E00817190701
:1016E00054F420E0A801BE0185E593E00E94290B97
:1016F0000F5F1F4FECCF2196E2CFDF91CF911F916B
:101700000F91FF90EF90DF90CF90BF90AF90089532
:1017100023E047E070E060E08091BA029091BB0264
:101720000C944D0B23E045E06DE370E08091AD0239
:101730009091AE020C944D0B2F923F924F925F927C
:101740006F927F928F929F92AF92BF92CF92DF92D1
:10175000EF92FF920F931F93CF93DF93CDB7DEB736
:101760002D970FB6F894DEBF0FBECDBF6A3069F576
:10177000FC01EA5EFB4FDC01A85EBB4F2C9148E008
:10178000249F9001112440815181240F351F318302
:10179000208314971D921C922D960FB6F894DEBFED
:1017A0000FBECDBFDF91CF911F910F91FF90EF90B2
:1017B000DF90CF90BF90AF909F908F907F906F9071
:1017C0005F904F903F902F9008956D3029F39D8743
:1017D0008C878C5E9B4F9A838983FC0180809180EB
:1017E0002C853D85285E3B4F3C832B8330E8831658
:1017F00091040CF071C0EC85FD85EA5EFB4F6080C2
:10180000718040E4641671040CF066C0AB81BC8149
:101810004C9045E09401449E200D311D1124121678
:1018200013060CF059C0242C312C910153E0220FE7
:10183000331F5A95E1F7260D371D121613060CF0CB
:101840004BC0649FB001112410E000E0FB01E9529D
:10185000FF4FFB87EA87E0E0053029F0EA85FB854A
:10186000E00FF11FE491530198E0592E2E2F30E044
:101870003E832D83E170EF83F12CE12CE414D8F446
:10188000C4018E0D9F1D99878887D12CC12CC4144B
:1018900070F4A6014A0D5B1D2F81688579858C85C2
:1018A0009D850E94290B9FEFC91AD90AF0CFAFEF8F
:1018B000EA1AFA0AE3CFED81FE81F595E7955A948D
:1018C000A20CB31C5110D2CF0F5F1F4F820C931C80
:1018D0000630110509F0BFCFEB81FC812081422F3A
:1018E00050E0A981BA818D919C91B6E02B9F800D2B
:1018F000911D1124E981FA8191838083EC85FD8516
:10190000E75EFB4F2081222309F446CF6AEF640390
:101910009001659F300D112420583F4F281739073B
:101920000CF03ACFAC85BD85ED91FC9111970190FB
:10193000F081E02D6AE0CD012D960FB6F894DEBF60
:101940000FBECDBFDF91CF911F910F91FF90EF9010
:10195000DF90CF90BF90AF909F908F907F906F90CF
:101960005F904F903F902F900994089590E080E011
:101970000895CF93DF9325E24CE367E170E081E2C5
:1019800090E00E944D0B85E290E090936A0780936F
:1019900069078CE190E090936C0780936B07CDEC26
:1019A000D0E0FE016491662339F085E593E00E9462
:1019B0009C0B2196892BA9F7DF91CF9108951F9356
:1019C000CF93DF93EC01162F8A819B81FC01339723
:1019D00097FD019695958795019662E070E00E94CB
:1019E000B01F68817981680F791F212FAF0185E5CC
:1019F00093E00E94290B8A819B81FC01329797FD1D
:101A000001969595879562E070E00E94B01F68810D
:101A10007981680F791F212FAF0185E593E00E943E
:101A2000290B8A819B81FC01319797FD0196959541
:101A30008795019662E070E00E94B01F688179810D
:101A4000680F791F212FAF0185E593E00E94290BD4
:101A5000EA81FB81CF01F7FD01969595879562E0BC
:101A600070E00E94B01F68817981680F791F212F73
:101A7000AF0185E593E0DF91CF911F910C94290B85
:101A80001F93CF93DF93EC01162F8A819B819C01DA
:101A90002150310997FD01969595879562E070E098
:101AA0000E94B01FA901481B590B688179816F5FA3
:101AB0007F4F212F85E593E00E94290B8A819B812E
:101AC0009C012150310997FD01969595879562E01B
:101AD00070E00E94B01FA901481B590B68817981F1
:101AE000212F85E593E00E94290B4A815B81688163
:101AF00079816F5F7F4F212F85E593E00E94290B4D
:101B00004A815B8168817981212F85E593E0DF91AE
:101B1000CF911F910C94290B1F93CF93DF93EC016E
:101B2000162F8A819B81FC013297019697FD0196C1
:101B30009595879562E070E00E94B01F6881798179
:101B4000680F791F212FAF0185E593E00E94290BD3
:101B50004A815B8141505109688179816F5F7F4F74
:101B6000212F85E593E00E94290B4A815B8141503A
:101B7000510968817981212F85E593E00E94290B25
:101B8000EA81FB81CF01F7FD01969595879562E08B
:101B900070E00E94B01F68817981680F791F212F42
:101BA000AF0185E593E0DF91CF911F910C94290B54
:101BB000EAE6F2E0148223E1258380E490E0938357
:101BC00082834FED5CE05783468349E95FE05187AC
:101BD0004087168627879587848740E45DE0518B90
:101BE000408B45E55FE0538B428B108E218F978BA6
:101BF000868B8CE89DE0938F828F85E89FE0958FA0
:101C0000848F08952F923F924F925F926F927F92AE
:101C10008F929F92AF92BF92CF92DF92EF920F93EB
:101C20001F93CF93DF93EC01162F97FD079623E0C8
:101C3000959587952A95E1F762E070E00E94B01FC4
:101C400045E0489F9001499F300D1124C9018E5FE6
:101C5000974F2C01C9018850984F1C01C901845F1E
:101C6000974F5C016E0194E1C91AD1083BE1832EC4
:101C7000912C712C43E0642E872D662D0E948E1FBF
:101C8000882339F0813091F1E12E03E025E0A501B0
:101C900004C0E12E03E025E0A101B601C4010E94C9
:101CA000CA04739485E0880E911C93E0C90ED11C80
:101CB00088E07812E1CF4E0192E0891A910883E41E
:101CC000C82ED12C96E0692E712CC30163E070E020
:101CD0000E94B01F6115710571F06130710509F442
:101CE00047C0E12E03E025E0A50109C0E12E03E095
:101CF00025E0A201D2CFE12E03E025E0A101B4014D
:101D0000C6010E94CA0481E0681A710895E0C90EF4
:101D1000D11C83E0881A910896E6C916D104A9F669
:101D2000E12E03E027E046E158E06CE170E081EA53
:101D300090E08C1B9D0B0E94CA0427E046E158E00E
:101D40006FE170E0CE018A970E94CA04DF91CF91C3
:101D50001F910F91EF90DF90CF90BF90AF909F9029
:101D60008F907F906F905F904F903F902F9008954D
:101D7000E12E03E025E0A201C2CF1F93CF93DF93B2
:101D8000EC01162F4A815B8168817981212F85E5DD
:101D900093E00E94290B4A815B814F5F5F4F68810E
:101DA0007981212F85E593E0DF91CF911F910C94EC
:101DB000290BEF920F93E62EFC01628173818081E3
:101DC000918103E023E04AEC50E001970E94CA04AD
:101DD0000F91EF9008951F93CF93DF93EC01162F8F
:101DE0004A815B8168817981212F85E593E00E949A
:101DF000290B4A815B81688179816F5F7F4F212F39
:101E000085E593E00E94290B4A815B81415051098D
:101E100068817981212F85E593E00E94290B4A8111
:101E20005B8141505109688179816F5F7F4F212F1C
:101E300085E593E0DF91CF911F910C94290BFC0174
:101E4000862F96EF960F97FD0BC0A92F092E000C39
:101E5000BB0BA054BD4F2C912111892F9A50F3CF69
:101E600015826AE00E94821F2091F7023091F802E9
:101E700047E0949F200D311D11242F5F3F4F318388
:101E8000208324E030E0281B310946E0429FC00156
:101E9000439F900D11242091F9023091FA02820F94
:101EA000931F0696938382830895EF92FF920F9378
:101EB0001F93CF93DF937C01C091AD02CE5F009161
:101EC000FF02035010E00C2E000CDD0B2296602F59
:101ED000610F062E000C770BCE010E94D70587FFFD
:101EE0000AC01650123E99F7DF91CF911F910F91C2
:101EF000FF90EF900895682FC701DF91CF911F9158
:101F00000F91FF90EF900C941F0F9C018091FD02A8
:101F100090E0CC9662E370E00E94B01FFC01E054B8
:101F2000FD4F4081442321F0682FC9010C941F0FFD
:101F300008956091FD020C941F0FDC011696ED913F
:101F4000FC9109940F931F93CF93DF93D82F8B01AC
:101F5000FB01C081CC2361F00E94F9098D2341F47B
:101F6000F80110828C2FDF91CF911F910F9108956E
:101F7000F801C081CC2311F0C0E0F4CF0E94F90930
:101F80008D23D813F9CF81E0F8018083EBCFCF9375
:101F900069E472E080E10E94A20FC82F882329F033
:101FA0000E941E0B8C2FCF91089568E472E081E0AF
:101FB0000E94A20FC82F8823A9F380916400886033
:101FC0008093640080916500886080936500EACF0B
:101FD0004F925F926F927F92AF92BF92CF92DF92B9
:101FE000EF92FF920F931F93CF93DF93EC018F81BA
:101FF0009885019709F084C00A8110E08E8191E0F4
:10200000980F9E8390E1899F0019110911241016E1
:1020100011060CF059C08D8190E0880F991F28811E
:102020003981820F931FFC01A080B18081E08093F1
:102030004E02712C612C60E072E18AE790E0A3010E
:1020400095010E94321F69017A01F1E0CF1AD1088F
:10205000E108F10891E0C114D10481E0E806F1043F
:1020600084F068E478EE81E090E0A30195010E949D
:10207000321F69017A0191E0C91AD108E108F1081B
:1020800093E080918100887F892B80938100950166
:10209000220F331FD8010E94CA1F28EE33E040E010
:1020A00050E00E94511FD0928900C0928800209376
:1020B0004A0230934B0240934C0250934D02809160
:1020C0006F00826080936F009E818B818917C0F4BE
:1020D0001E82288139818D818F5F8D8390E0880FEA
:1020E000991F820F931FFC018081918197FF08C087
:1020F0008C81811104C082E090E098878F831D82DB
:10210000DF91CF911F910F91FF90EF90DF90CF90D3
:10211000BF90AF907F906F905F904F900895FC01BB
:1021200087819085892B31F481E090E090878783C7
:10213000168215820895CF92DF92EF920F931F932C
:10214000CF93DF93EC016B01142F26E043E00E9454
:102150004D0B812F6AE00E94821F83E0989FA001AF
:10216000112444555F4FEE24E39405E023E0B601CB
:10217000CE010E94CA04DF91CF911F910F91EF9081
:10218000DF90CF900895482F64E170E08DE090E0FB
:102190000C949B10BF92CF92DF92EF92FF920F931D
:1021A0001F93CF93DF937B01122F2150330BE90153
:1021B000CC0FDD1FCC0FDD1FC80FD91F3AE0C32E97
:1021C000D12CCA01B6010E949C1FB62E072F482FA2
:1021D000B701CE010E949B1024974B2D502F115018
:1021E00081F7DF91CF911F910F91FF90EF90DF90DA
:1021F000CF90BF900895409188025091890224E0C9
:1022000064E170E08DE690E00C94CA100E94D11F4A
:102210001F920F920FB60F9211248F939F9380916C
:10222000E1009091E100937F9093E10083FF0FC064
:102230001092E90091E09093EB001092EC0092E391
:102240009093ED001092A50298E09093F00082FF29
:1022500022C093E09093E9009091F200992319F045
:102260009AE39093E80090919602992341F090911F
:102270009602915090939602911101C05D9A9091AF
:10228000A402992341F09091A40291509093A4024A
:10229000911101C0289A84FF18C08091E2008E7EBF
:1022A00081608093E2008091E1008F7E8093E10065
:1022B000809197028E7E8061809397029F918F918B
:1022C0000F900FBE0F901F90189580FFF7CF809151
:1022D000E2008E7E80618093E2008091E1008E7E3C
:1022E0008093E100809197028E7E8160E5CF1F92FE
:1022F0000F920FB60F921124CF92DF92EF92FF92BE
:102300000F931F932F933F934F935F936F937F93FD
:102310008F939F93AF93BF93EF93FF93CF93DF93ED
:10232000CDB7DEB76C97DEBFCDBF1092E9008091CC
:10233000E80083FF25C068E0CE0145960E9436087C
:1023400082EF8093E8008D8987FF39C09091E80083
:1023500090FFFCCF982F907609F034C19E894F8969
:10236000588D2F89F88C911131C0803861F580919A
:1023700095028093F1001092F1008EEF8093E800B7
:102380006C960FB6F894DEBF0FBECDBFDF91CF9134
:10239000FF91EF91BF91AF919F918F917F916F913D
:1023A0005F914F913F912F911F910F91FF90EF906F
:1023B000DF90CF900F900FBE0F901F9018959EEF5B
:1023C0009093E800C7CF1092F100D5CF913059F427
:1023D0008111D3CF4130510581F6809195028D7FD7
:1023E00080939502CACF933049F48111C6CF413012
:1023F000510519F6809195028260F2CF953041F433
:102400008091E80080FFFCCF20682093E300B5CFE7
:10241000963009F0A9C00B8D1C8D22E01092E900C6
:102420001092930210929202F2122EC01092910218
:10243000109290020E9405081F8299E09983FA8207
:1024400091E09E8390EA98879AEF99872091920273
:1024500030919302275F3F4F3C832B838D831092F3
:10246000E90010929302109292021093910200934D
:10247000900249E050E0BE016F5F7F4F80E00E9414
:10248000DF070E94050879CF109391020093900214
:102490000E94E906DC0112960D911C9101151105AF
:1024A00009F451C1D801ED91FC910480F581E02D32
:1024B000BE016B5E7F4FC8010995009709F03EC1D0
:1024C000F80100851185EACFF3E0FF120EC08F8975
:1024D000882309F440C0823061F440E867E085EA6F
:1024E00098E00E94AC07811148CF81E28093EB0015
:1024F00047CF813029F440E86BE089E998E0F1CFDB
:10250000833099F70E94E906DC011296ED90FC9069
:102510008E010F5F1F4F6801E114F10479F0D701BC
:10252000ED91FC910680F781E02DB801C701099576
:10253000080F111DF701E084F184EECFD8011C9241
:10254000F60101900020E9F73197BF016C197D0970
:1025500040E0C601C6CF63E878E0FB01449150E05B
:1025600080E80E94DF0709CF973009F4BECF98308A
:1025700021F481E08093F10000CF993009F0FDCE85
:10258000837009F0B2CFE3E2F2E081E031E096E35C
:102590002191222371F08093E9003093EB00DF0159
:1025A00011972C912093EC009093ED008F5F873072
:1025B00079F78EE78093EA001092EA008F89809382
:1025C000A502DBCE8B8D9C8D1092E90010929302B8
:1025D000109292029093910280939002898D8111C2
:1025E00092C08E899D89913A49F4813209F07DCF5C
:1025F00047E050E067EE71E080E0B3CF913209F040
:1026000074CF833269F48F89988DB0E0A0E0809315
:10261000E3019093E401A093E501B093E601ADCE10
:10262000803269F48091E80082FFFCCF67E087EE9A
:1026300091E00E9436088BEF8093E8009ECE8232B4
:1026400009F09BCE8F898093EE01EEEFFFE7859135
:1026500094918B3F9C4D51F1E0E0F8E08091E701CF
:102660009091E801A091E901B091EA01803B94408A
:10267000A105B105F1F48091EE0180FD1AC0EE3F95
:102680008AE0F80789F587E797E79183808380914F
:1026900060008093940288E19BE00FB6F894A895BF
:1026A000809360000FBE9093600067CEEEEFFAE07B
:1026B000D5CF808191818737974709F05ECEA89565
:1026C0008091600088618093600080919402809383
:1026D0006000EE3F2AE0F20789F08091FE0A9091B7
:1026E000FF0A9183808349CE808191818737980743
:1026F00051F29093FF0A8093FE0AC5CF1092FF0A11
:102700001092FE0A3ACE0E94E906DC0112960D9163
:102710001C910115110509F4E8CED801ED91FC9149
:102720000190F081E02DBE016B5E7F4FC8010995DD
:10273000811123CEF80100851185EBCF18161906FB
:102740000CF41BCED2CEF1E0FF12BECE67E878E0EB
:1027500004CF1F920F920FB60F9211242F933F9325
:102760008F939F93AF93BF93809163029091640284
:10277000A0916502B09166023091580223E0230FC8
:102780002D3758F50196A11DB11D20935802809355
:10279000630290936402A0936502B09366028091F5
:1027A000590290915A02A0915B02B0915C0201968D
:1027B000A11DB11D8093590290935A02A0935B0210
:1027C000B0935C02BF91AF919F918F913F912F91F8
:1027D0000F900FBE0F901F90189526E8230F0296BA
:1027E000A11DB11DD2CF1F920F920FB60F921124CF
:1027F0002F933F934F935F936F937F938F939F9309
:10280000AF93BF93EF93FF9380915502882349F0D4
:102810008091A602E091A702F091A80290818927F9
:10282000808380915D02882309F456C08091510213
:1028300090915202A0915302B0915402892B8A2B9D
:102840008B2B09F449C08091510290915202A091C2
:102850005302B09154020197A109B109809351022A
:1028600090935202A0935302B0935402892B8A2B67
:102870008B2B91F5E0914F02F0915002BF016F5FF9
:102880007F4F7093500260934F022491922F907F5C
:10289000822F8F70903819F40E94950AEBCF9039EF
:1028A00081F43296F0935002E0934F02FB01649161
:1028B0009091AC028917F0F667FDDCCF0E94240AE4
:1028C000D9CF903E29F41092500210924F02D2CFED
:1028D000903F99F410925D02FF91EF91BF91AF91FB
:1028E0009F918F917F916F915F914F913F912F9128
:1028F0000F900FBE0F901F90189597FDBBCF32968B
:10290000F0935002E0934F02FB016491A0915602B4
:10291000B0915702322F262F0E94731F6C507E4FAA
:102920008F4F9F4F28EE33E040E050E00E94511F50
:102930002093510230935202409353025093540219
:102940008091510290915202A0915302B091540291
:10295000892B8A2B8B2B09F0BFCF81E090E0A0E080
:10296000B0E08093510290935202A0935302B0932F
:102970005402B2CF1F920F920FB60F9211248F9371
:102980009F93AF93BF93EF93FF9380914E02882361
:1029900009F452C080914A0290914B02A0914C02DE
:1029A000B0914D02892B8A2B8B2BA1F19091A9021A
:1029B000E091AA02F091AB02808189278083809107
:1029C0004A0290914B02A0914C02B0914D02181610
:1029D00019061A061B069CF480914A0290914B023C
:1029E000A0914C02B0914D020197A109B1098093C9
:1029F0004A0290934B02A0934C02B0934D02FF9178
:102A0000EF91BF91AF919F918F910F900FBE0F905B
:102A10001F90189510924E0280916F008D7F8093C9
:102A20006F008091A902E091AA02F091AB0290811F
:102A3000809589238083E3CF9091A902E091AA0237
:102A4000F091AB0280818927F5CFE5E0F3E01382B6
:102A5000128288EE93E0A0E0B0E084839583A683A1
:102A6000B7838DE292E0918380838FEF9FEF95870C
:102A70008487E5E5F3E0138212828FE392E091838D
:102A800080838CE3868380E1818710861782168697
:102A90001786108A118A128A10926A0710926907A3
:102AA00010926C0710926B0781E080936D07089578
:102AB000CF93DF93CDB7DEB72F970FB6F894DEBF75
:102AC0000FBECDBF789484B5826084BD84B581602B
:102AD00084BD85B5826085BD85B5816085BD8091E9
:102AE0006E00816080936E00109281008091810061
:102AF0008260809381008091810081608093810059
:102B0000809180008160809380008091910082603C
:102B100080939100809191008160809391008091D9
:102B200090008160809390008091C10084608093C8
:102B3000C1008091C10082608093C1008091C1007A
:102B400081608093C1008091C30081608093C30045
:102B50008091C00082608093C0008091C20081603B
:102B60008093C20080917A00846080937A00809183
:102B70007A00826080937A0080917A0081608093ED
:102B80007A0080917A00806880937A001092A50282
:102B900010929502109297028091D70081608093E5
:102BA000D70080EA8093D80089B5806189BD89B556
:102BB000826089BD09B400FEFDCF61E070E080E075
:102BC00090E00E9442098091D8008F7C80618093C0
:102BD000D8008091E000807F8093E0008091E10048
:102BE0008E7E8093E1008DE08093E200559A209ADA
:102BF00068E873E180E090E00E9442091FB7F89412
:102C000080915E02811127C0EBEEF8E08491EEEB3B
:102C1000F8E09491E82FF0E0EE0FFF1FEA58F84F2C
:102C2000A591B491EC91E92321F461E081E10E9446
:102C3000700861E081E10E94E1088CB580618CBD83
:102C40008CB580648CBD61E08FE00E94E10861E09A
:102C500080E10E94E10880915E028F5F80935E02B6
:102C60001FBF01E917E0B801F80184916F5F7F4F42
:102C70000E5F1F4FFB016491882319F00E94E10849
:102C8000F2CF61E086E10E94700861E070E080E0D0
:102C900090E00E94420960E086E10E9470086AE0CC
:102CA00070E080E090E00E94420961E086E10E94CD
:102CB0007008E1EFF8E0E491F0E0EE0FFF1FE4535D
:102CC000F74FA591B4919C918091620280958923E0
:102CD0008C93E4ECF8E0E491E0936202EFEEF8E02C
:102CE000E491F0E0EE0FFF1FE453F74F85919491CC
:102CF0009093610280936002E2ECF8E0E491E0934B
:102D00005F028CB58C7F8CBD8DB581608DBDE091EF
:102D10006002F0916102908180915F028095892329
:102D20008083E4E8F7E081E997E08E179F0749F098
:102D300024912EBD00000DB407FEFDCF2EB53196B7
:102D4000F4CFE0916002F0916102808190915F0286
:102D5000892B8083809164008160809364008091DE
:102D60006400826080936400809164008068809336
:102D700064008091640080648093640080916500A9
:102D80008160809365000E94F90983FF0BC080E099
:102D900094E01EBC00000DB407FEFDCF2EB50197D8
:102DA000C1F7FFCFEEEECE2EDD24DA940E949F060F
:102DB000EE24E39400E128E546EC56E0B60184E118
:102DC00090E00E94CA0489E693E00E94140A6BE135
:102DD00070E080E090E00E944209F0EFCF1206C060
:102DE0006AEF70E080E090E00E9442092FEFC21A83
:102DF000D20A39E1C316D104C9F66EEE72E080E062
:102E000090E00E9442090E94B80A0E94B80A1092FB
:102E10005D0282E090E00E942A1F81110E941E0B39
:102E20000E949F068CE380935B0380E180935E03A6
:102E300084E090E090938F0280938E024090EF01A7
:102E40005090F0016090F1017090F20162E0C62EA6
:102E5000D12C73E0272E312C2FB7F8948091630288
:102E600090916402A0916502B09166022FBF2091FB
:102E70006703222391F020915F03582F521B509338
:102E8000680320915C0330915D032F5F3F4F3093C7
:102E90005D0320935C03109267034091630350919C
:102EA0006403609165037091660384179507A60714
:102EB000B707ACF4481B423050F083B7817F83BF23
:102EC00083B7816083BF889583B78E7F83BF80E09F
:102ED00090E0892B09F4C0CF0E940000B7CF209169
:102EE0005E03AC01BD01420F511D611D711D409378
:102EF0006303509364036093650370936603809348
:102F00005F0390936003A0936103B093620321E099
:102F10002093670380918E0290918F0282309105F9
:102F200009F48FC058F4009709F48AC6019709F490
:102F300014C189E693E00E94140AC9CF8330910539
:102F400009F4C9C60497A9F78091680290916902B3
:102F50008E31910509F418C70CF0F5C68A30910539
:102F600009F412C78431910521F08130910509F0EF
:102F7000F5C620E440E870E060E090E080E00E9468
:102F80004D0B8091680290916902019690936902BD
:102F9000809368020E94C70F882359F220E440E81A
:102FA00070E060E090E080E00E944D0B10E000E0F7
:102FB00021E0A80162E170E085E593E00E94290B21
:102FC0000F5F1F4F0034110599F710E000E021E07A
:102FD000A8016BE670E085E593E00E94290B0F5F86
:102FE0001F4F0034110599F721E050E040E064E103
:102FF00070E08DE790E00E94CA1021E050E040E0D0
:103000006EE170E08DE790E00E94CA1040918A0264
:1030100050918B0224E06EE170E08DE690E00E941A
:10302000CA10EE24E39403E025E044EE57E066E1A5
:1030300070E084E090E00E94CA0480E00E94C31027
:1030400068C620E448E570E060E083E190E00E941B
:103050004D0B80E290E09093AE028093AD0210920F
:10306000B6028FEF8093B5028EE08093B402109287
:10307000B70280918C0299E0E3EFF1E0DE01119656
:1030800001900D929A95E1F769E00E94821FE1E0BC
:10309000F0E0EC0FFD1FE90FF11D8081A3E08A0233
:1030A000C00111240796E0ECF2E021E02193B2E0A8
:1030B000E23FFB07D9F7ECE1F0E0F093F402E09394
:1030C000F30221E030E03093FC022093FB02ADE1FB
:1030D000B0E0B093F802A093F7029093F6028093C9
:1030E000F5029093FA028093F90210920003109275
:1030F000FF021092FD021092FE0210920103109244
:103100000203109203031092040382E38093F202FD
:103110001092B9021092B8028FEF8093BE0250E273
:10312000A52EB12CEE24E39406E028E049E358E014
:1031300064E370E0C5010E94CA04B2E1AB0EB11CA9
:10314000E8E6AE16B10471F70E94D80D21E030E038
:1031500030938F0220938E02ECCE8091B7028823A9
:1031600041F1813009F4EAC00E94920B8091B702CC
:10317000082E000C990B9595879595958795B60126
:103180000E94B01F25E0289FA001299F500D112407
:103190004751584FEE24E39403E06DE370E08091D3
:1031A000AD029091AE020E94CA048091B702815094
:1031B000CBC08091B60281111BC02093B60285E07E
:1031C000ECEFF1E0DE01119601900D928A95E1F7A6
:1031D0004A865B866C867D868091B502882309F4D9
:1031E000C9C00CF0B4C08F3F09F4AEC18150AAC170
:1031F0001092B6020E94920B0E94F90986FF09C044
:103200008091AD029091AE0201969093AE028093B0
:10321000AD020E94F90987FF09C08091AD0290912B
:10322000AE0201979093AE028093AD028091AD0201
:103230009091AE028736910510F086E690E08331DA
:10324000910510F483E190E09093AE028093AD027B
:10325000EE24E39403E025E044EE57E06DE370E0F4
:103260000E94CA048091B5028F3F39F58091030313
:10327000811123C00091AD021091AE020E94F909A4
:1032800084FF57C01092B5020E5F1F4F1093B1021A
:103290000093B0028CE390E09093B3028093B2026B
:1032A0008091B40290E001966FE070E00E94B01F40
:1032B0008093B40281708093BD028091B70288230D
:1032C00009F47DCF8091B7028F3F21F410928F02D5
:1032D00010928E028091F20281110DC08091030341
:1032E000811109C080918C028F5F80938C02D092F3
:1032F0008F02C0928E0280910203882331F00E94D7
:10330000B90C30928F0220928E0220910303222367
:1033100009F49DC38091BD019091BE01273109F44C
:10332000DDC3029709F0ACC31092BE011092BD013B
:10333000A7C30E94F90980FDA5CFBFCF60E080EB55
:1033400092E00E94BD0E8FEF8093B702B6CF81301E
:1033500009F4F2C0883109F049CF60E080EB92E0D7
:103360000E94BD0E61E080EB92E00E94D90E809138
:10337000B5023CCF60E080EB92E00E94BD0E8091F0
:10338000B50281110FC08091B2029091B3020297F1
:103390009093B3028093B202181619061CF088E1CC
:1033A0008093B5020091B2021091B302A090B002D6
:1033B000B090B102B801C5010E94D70587FD4FC08A
:1033C000E82F082E000CFF0BE054FD4F1082809375
:1033D000040398E1909303039091F202915090932B
:1033E000F2026AE00E948E1FE4E0F0E0E81BF109BF
:1033F00087FDF39581E090E08C0F9D1FE80FF91F8A
:1034000000818FEF8093B5028091B502811105C0D4
:1034100061E080EB92E00E94BD0E002309F494C0AD
:103420008091880290918902080F192F111D863909
:10343000910574F4073911055CF080918D028F5F5E
:1034400080938D020E94C3108AED91E00E948F103C
:1034500010938902009388020E94FB1075C080912E
:10346000BE0281112AC00330110538F58091BA02DD
:103470009091BB02A816B90600F10796A816B906E6
:10348000E0F488E78093BE020E94880BE091B402CA
:1034900011E0ED3020F4F0E0EB5EFD4F108188E7A5
:1034A0008093BE020E94880B1093BF02EAE0F0E016
:1034B000EC0FFD1FE10FF11DA3CFC801C5970597C4
:1034C000C8F48091FF02909100038017910794F453
:1034D000602F8A2D0E94A904811107C061E0600F4E
:1034E0008A2D0E94A904882329F088E18093B502DF
:1034F00000E08ACF2091B502EAE6F2E085818111F1
:1035000013C080819181A816B90621F00196A816F2
:10351000B90651F4828193810817190721F00196A9
:103520000817190709F428E13A9692E0E838F907F4
:1035300029F72093B502DCCF60E080EB92E00E9497
:10354000D90E8FEF8093B5020AE612E0FF24F394C0
:1035500034E1E32ED80115968C911597882309F450
:1035600046C054F48F3F91F0D80115968C91159771
:10357000815015968C9327C0813009F4AEC08431F8
:1035800099F761E0C8010E94EB0EEECFF80184814B
:103590008F5F84838D3374F0809167028F5F809397
:1035A0006702853138F00084F185E02DC801099566
:1035B00010926702D80115968C91811104C061E0C8
:1035C000C8010E949D0F065F1F4FB2E008381B071D
:1035D00009F68091BE02882309F4A3C00CF086C0CE
:1035E0008F3F09F42FC18091BE0281505FC1F80165
:1035F0008481843054F58F5F8483D80112968D9135
:103600009C911397CE970297F0F62D913C912F5FE6
:103610003F4F8091AD029091AE022817390798F282
:1036200005968217930778F2BFE7B093B7028091AF
:10363000B5028F3F39F060E081114AC080EB92E023
:103640000E94BD0EF092B502BECF14961C9260E0AF
:10365000C8010E949D0FF801828193815C01F2E014
:10366000AF0EB11CD8011396BC92AE921297B1E482
:10367000AB16B10424F023E1F8012583BECFC39734
:10368000059708F5D8019C906A2D892D0E94A90400
:10369000811116C088248394890C6A2D882D0E947C
:1036A000A90481110DC0AA946A2D892D0E94A90434
:1036B000811106C06A2D882D0E94A904882319F063
:1036C000F801E5829ACF61E0C8010E949D0F95CF75
:1036D00080EB92E00E94D90EB5CF60E0C8010E9455
:1036E000EB0E2FEFF801258314826DCF813009F4A2
:1036F000DAC0883709F077CF4091BF0237E0439FA7
:10370000A0011124435E574FEE24E39403E027E029
:1037100070E060E08091BA029091BB020E94CA04FE
:1037200062CF8091B8029091B9028330910508F080
:1037300061C001969093B9028093B802809103030F
:10374000813009F463C1883109F40DC1811151C17F
:103750008091FD029AE0E92E6E2D0E94821F392F82
:1037600014E0512F581B06E06091F5027091F602AB
:10377000509F600D711D112427E0F22E8091F302FD
:103780009091F40223E045E03F9D800D911D1124AE
:103790000E944D0B8091FD02E82FF0E0E054FD4FB8
:1037A0009081992309F4CEC06E2D0E94821F181BB0
:1037B0008090F7029090F8029F9D800C911C11243C
:1037C000A090F902B090FA02109FA00CB11C112435
:1037D000133008F06EC08091FE02113008F483C0EF
:1037E000F5E08F9FC00111249C012E5F374F3F876A
:1037F0002E8761C01092B9021092B8020E94880B05
:103800002091BC028091BA029091BB02820F911D5F
:1038100027FD9A959093BB028093BA029C01245194
:1038200031092035310518F021E02093BE02EE2445
:10383000E39403E027E046E158E070E060E00E9496
:10384000CA047CCF9091F202983008F477CF20918F
:10385000B8023091B902A9014F5F5F4F5093B9028E
:103860004093B8022D3D354008F468CF1092BE0257
:103870001092B9021092B8029091BD0291110AC043
:1038800081E08093BC0283E190E09093BB0280933F
:10389000BA0254CF8093BC0224E630E03093BB02DE
:1038A0002093BA024BCF0E94880B8FEF8093BE0209
:1038B00045CF153010F1EE24E39403E025E04E856A
:1038C0005F85B501C4010E94CA04B4E18B1691045E
:1038D00004F58091FB029091FC0297FF25C081E0E6
:1038E0008093010321C0A5E08A9FC0011124FC013F
:1038F000E45FF74FFF87EE87DECF8091FE0235E071
:10390000839FC0011124DC01A850B84FBF87AE8748
:10391000D2CFE6E68E1691043CF08091FB029091A6
:10392000FC0218161906DCF22091FF023091000308
:10393000C5010396821793070CF4C9019093000305
:103940008093FF028091FD02E1E0E80FF0E0E05497
:10395000FD4F8F5F823308F029C291919923C9F3FB
:103960008093FD02AFCC40910403842F6AE00E9453
:10397000821F392F24E0281B8091FD024817E8F1AF
:103980008091F3029091F4026091F5027091F60239
:1039900006E0209F600D711D112417E023E045E033
:1039A000319F800D911D11240E944D0B80910403C5
:1039B0006AE00E94821F24E0281B6091F902709146
:1039C000FA02209F600D711D1124E091F702F09121
:1039D000F802EE24E39403E025E043EF57E0DF0133
:1039E000919FA00DB11D1124CD010E94CA048091A8
:1039F000030381508093030365CC8091F70290917B
:103A0000F8026091F9027091FA02C2CF809104032A
:103A10006AE00E94821F392F24E0281B6091F9027E
:103A20007091FA02B6E02B9F600D711D11248091F8
:103A3000F7029091F80223E045E0E7E03E9F800D19
:103A4000911D11240E944D0B109203033BCC309129
:103A5000F2022091A701EBE0F2E081E090E04191D9
:103A6000341304C0DC01A050BE4F2C9101968B3062
:103A70009105A9F72093A70184EA91E00E948F1095
:103A80008091BE028130E1F1873769F1811104C074
:103A90008FEB91E00E948F108091B702813009F482
:103AA00059C08E3721F481ED91E00E948F108091F2
:103AB000B502882309F464C0813009F48EC08F3FB9
:103AC00009F068C08091B4019091B501029709F0A6
:103AD00061C01092B5011092B4015CC0892B81F6CF
:103AE00086EB91E0CBCF8091C6019091C701019701
:103AF00021F4D092C701C092C60188EC91E0CACFF0
:103B00008091C6019091C701019721F4D092C7011D
:103B1000C092C6018091C6019091C701029721F41D
:103B20001092C7011092C6018091CF019091D001EF
:103B3000019721F4D092D001C092CF018091CF01A2
:103B40009091D001029709F0A7CF1092D001109266
:103B5000CF01A2CF8091D8019091D901019721F492
:103B6000D092D901C092D8018091D8019091D90109
:103B7000029709F09CCF1092D9011092D80197CFEB
:103B80008091B4019091B501892B21F48DEA91E0E7
:103B90000E948F1080918E0290918F02019741F5C3
:103BA00084EA91E00E94E80F8DEA91E00E94E80F1C
:103BB00086EB91E00E94E80F8FEB91E00E94E80F06
:103BC00088EC91E00E94E80F81ED91E00E94E80FFF
:103BD0008AED91E00E94E80FACC98091B401909108
:103BE000B5010197B9F6D092B501C092B401D2CF18
:103BF0008091AB019091AC01019721F4D092AC017E
:103C0000C092AB018091AB019091AC01029721F47D
:103C10001092AC011092AB01EDEAF1E08781908542
:103C2000019711F4D086C78287819085029711F49D
:103C300010861782399621E0E33EF20779F779C9B9
:103C400080918D02815080938D020E94C3100E944A
:103C5000920B80E290E09093AE028093AD021092BE
:103C6000B6028FEF8093B5028EE08093B40210927B
:103C7000B70260E08AE692E00E949D0F60E084E770
:103C800092E00E949D0F60E08EE792E00E949D0FFF
:103C90000E94D80D80918D02882339F0A1E0B0E018
:103CA000B0938F02A0938E0244C90E94B90C8091F8
:103CB00088029091890220918A0230918B02281704
:103CC000390724F490938B0280938A0230928F02FA
:103CD00020928E022EC980916802909169029C0107
:103CE0002F5F3F4F3093690220936802893C910512
:103CF0005CF01092690210926802E4E0F0E0F09348
:103D00008F02E0938E0215C90E94C70F882309F421
:103D100010C9109289021092880210928B021092A0
:103D20008A0210928C0283E080938D020E94C3105D
:103D30000E94FB10D0928F02C0928E0210926902F4
:103D400010926802F6C882339105F1F08835F2E0EE
:103D50009F0739F18832910509F40BC98D3391051C
:103D60000CF40FC9B1010E94B01F8B01892B09F01F
:103D700008C960E0C80145970E94020E61E0C801D1
:103D800044970E94020EFDC8EE24E39408E020E46C
:103D900044EA57E06CE170E08FE190E00E94CA04D1
:103DA000F0C81092690210926802EBC88091FF027D
:103DB00090910003803491051CF081E08093020310
:103DC000E0ECF2E080E09191911103C08F5F8233CB
:103DD000D1F78093FD028091FE0290E00196817000
:103DE00099278093FE028091F7029091F8029093B8
:103DF000F4028093F3024091FB025091FC029C017B
:103E0000240F351F3093F8022093F7022091F90216
:103E10003091FA023093F6022093F502609101038B
:103E2000662309F44FCA1092010366277727641BA3
:103E3000750B7093FC026093FB022D5F3F4F309334
:103E4000FA022093F902841B950B9093F802809359
:103E5000F70238CAF999FECF92BD81BDF89A992729
:103E600080B50895052E97FB1EF400940E94491F0B
:103E700057FD07D00E94511F07FC03D04EF40C944D
:103E8000491F50954095309521953F4F4F4F5F4FBB
:103E9000089590958095709561957F4F8F4F9F4FB6
:103EA0000895A1E21A2EAA1BBB1BFD010DC0AA1F7B
:103EB000BB1FEE1FFF1FA217B307E407F50720F093
:103EC000A21BB30BE40BF50B661F771F881F991F0E
:103ED0001A9469F760957095809590959B01AC0157
:103EE000BD01CF010895A29FB001B39FC001A39F60
:103EF000700D811D1124911DB29F700D811D112423
:103F0000911D0895991B79E004C0991F961708F038
:103F1000961B881F7A95C9F78095089587FB082E10
:103F2000062687FD819567FD61950E94821F0EF42C
:103F3000919507FC81950895AA1BBB1B51E107C011
:103F4000AA1FBB1FA617B70710F0A61BB70B881F29
:103F5000991F5A95A9F780959095BC01CD010895B8
:103F600097FB072E16F4009407D077FD09D00E9426
:103F70009C1F07FC05D03EF4909581959F4F0895B6
:103F8000709561957F4F0895EE0FFF1F0590F49196
:103F9000E02D09940E94731FB7FF0895821B930BB5
:103FA000089581E090E0F8940C94D61FF894FFCF28
:103FB000A500930083007B00FFFFE8030000E803F7
:103FC0000000E8030000E8030000E8030000E80345
:103FD0000000E8030000E8030000E803FFFF7B00A7
:103FE0000000FFFF7800B40059013A021B03C00330
:103FF000FC03C0031B033A025901B400FFFF780021
:10400000F1003A02FC03BE05080780070807BE0559
:10401000FC033A02F100FFFF1003E402BA0293022C
:104020000000E0067D062006C80575052705DD04AD
:10403000970455041704DC03A4032705DD04970443
:104040005504FFFF000000000000B8072D08000025
:10405000B807FFFF0001463401000000009A011478
:104060000000000000006801140000000000004E85
:1040700001140001000000003401140001000000E0
:10408000002E01140001000000000A016406000077
:10409000000000FFFFFFFF00E1000000000000053E
:1040A0000A0F1E00020405050506060603020201AA
:1040B00001342C241C17120D0A070532281E161075
:1040C0000C080402010000010201010003010101CA
:1040D000000200C1808100000000000000FD0674A5
:1040E000091E071307640722074007000000009C11
:0840F0000B4308B60CB50C00EF
:00000001FF
