:100000000C943D180C9465180C9465180C946518A4
:100010000C9465180C9465180C9465180C9465186C
:100020000C9465180C9465180C9467240C94D624D1
:100030000C9465180C9465180C9465180C9465184C
:100040000C9465180C9465180C9465180C9465183C
:100050000C9465180C9465180C9465180C9408277A
:100060000C9465180C9465180C9465180C9465181C
:100070000C9465180C9465180C9465180C9465180C
:100080000C9452270C9465180C9465180C94651800
:100090000C9465180C9465180C9465180C946518EC
:1000A0000C9465180C9465180C94651805080303E6
:1000B000000303030300030003030000001C1800F7
:1000C0000000000000000000C0F8FCFEFEFFFFFF83
:1000D000FEFEFC7830000000000000000000000080
:1000E0000000103EFFFFFFFFFFFFFFFFF7FBFD7C5F
:1000F000783000000000000000000000183C7EFF87
:10010000FFFFFF7F7F3F07030000000000000000AB
:100110000000000000000000000000000080F0F877
:10012000FCFCFEFEFEFEFCF8F020000000000000DB
:1001300000003078FCFEFE7E0EFFFFFFFFFFFFFF9A
:10014000FFFFFF7F7D3E3E3C1800000000000000E6
:100150001C7EFEFEFFDF1F0F0F071F3F3F3F1F0EDE
:100160000E060000000000000000000000808080FB
:100170000000E0F0F8F8FCFCFCF8F8F0E0400000CB
:100180000000000000081CBEBFFFDFCFCF9FFFFFB5
:10019000FFFFFFFFBFFFFF7F7F7F3F3E1C08000088
:1001A0000000070707070F0F0F0F070703030F1FB5
:1001B0003FFFFE7E7C3C3C1C0C0000000000000069
:1001C0000000000080F0F8FCFCFEFEFEFCFCF8F0F5
:1001D00020000000000000000000000090F8FCFE7D
:1001E000FFFFFFFFFFFFFFFFFFF7FBFD7C78300005
:1001F000000000000000000F0F0F07077FFFFFFF48
:10020000FFFFFFEF00000000000000000000000002
:10021000000000000000000000C0F8FCFEFEFFFF30
:10022000FFFFFEFC7830000000000000000000002E
:100230000000000000DFFFFFFFFFFFFFFFFFF701EF
:10024000000000000000000000000030787CFEFE8E
:10025000FFFFFF0F0F1F3F3F3F070300000000009D
:100260000000000000000000000000000080F0F826
:10027000FCFCFEFEFEFEFCF8F0F06000000000005A
:1002800000000010B8FCFEBF9FCFFFFFFFFFFFFF85
:10029000FFFFFFFFBE1C0800000000003E7FFFFFC5
:1002A0007F3F1F1F0F0F07030101010101071F7F80
:1002B0007F3F3E1C1C0C00000000000000000000FE
:1002C0000080808080E0F8F8FCFCFCFCF8F8F0E0AE
:1002D000E0C00080C0E0E0F0F0FCFEFEFFDFCFEF0A
:1002E000FFFFFFFFFF9F3F7F7F7F7F3F3F1C080196
:1002F0000303030303030707070707030301031FA0
:100300007FFFFFFEFCF8F07070200000000000008E
:1003100000000000000080F0FCFCFEFEFEFEFCFC85
:10032000F8F0F060000000000000C0E0F0F0F0F82D
:10033000FCFEFFFFFFFFFF3F7F7F7F7F3F3E1C08EC
:10034000000000000000070F0F07070F0F0F7FFFCF
:10035000FFFFFFFFE0C00000000000000000000001
:100360000000000000E0F0F8F8FCFCFCFCFCFCFCE9
:10037000F8F0F0E0C0000000000000000000000005
:100380000000030F7FFFFFFFFFFFFF1F0F0F07039B
:10039000000000000000000000000000000030FE2F
:1003A000FFFF7F3F1F0F0300000000000000000060
:1003B000000000607CFCF8F0C0F8FCFEFFFFFFFFCF
:1003C000FFFE9CC8E0E0800000000080800000008C
:1003D000000003070F1F3F3F3F3F3F3F3F3F3F3F6F
:1003E0003F3D3C3C38383A023C013E0000000000F2
:1003F00000000000000000000000000000000000FD
:100400000000000000000007100000FFFEC0000018
:1004100070F8FFFFFFFC700000C0FE80000000705D
:10042000FFFFFF7800000000F0F800000070FFFF01
:100430007F7820000080F0FE00000078FFFFFF784A
:1004400020000080F0FE00000070FFFFFF78200019
:1004500000F0FCFE1E000078FFFFFF78200000FE89
:10046000FEE000000078FFFFFF78300000FCFCC0D9
:1004700000000078FFFFFF78200000FEFC800000F5
:100480000078FFFFFF78200000FCF880000000707B
:10049000FFFFFFF8200000FCF80000000070FFFFE5
:1004A000FF78200000FCFFC000002078FFFFFFF86D
:1004B000700000F0FEF800000078FFFFFF783000C9
:1004C00000F0FCFC00000078FFFFFFF8300000C0E7
:1004D000F08000000070FFFFFF78200000C0E00007
:1004E000000000307F7F7E70000000F8FEF000000A
:1004F0000078FFFFFF78300000C0FCC000002078CB
:10050000FFFFFF78300000C0F8F800002078FFFF00
:10051000FF78300000E0E0C0000000707F7F7F7057
:10052000000000FEF08000000070FFFFFF78200058
:1005300000FEFEF800000078FFFFFF78300000F0BA
:10054000FCF000000070FFFFFF78200000F8FFF8CB
:1005500000000078FFFFFFF8200D20E0F8FCFCFC15
:10056000FEFEFCFEFFFFFFFE07FFFFFFFFFFFFFF9A
:10057000FFFFFFFFFF00FFFFFFFFFFFFFFFFFFFF8A
:10058000FFFF00FFFFFFFFFFFFFFFFFFFFFFFF3C3D
:1005900038000000000080F8FE0FE3FB1B0B0B8B04
:1005A000FBF3F7F6F6F60606ECECECECECECECEC18
:1005B000ECECECECECECEEE6F6F6F6F7F3FBFBCB52
:1005C000CBFBE30FFEF8801E332121339E00000099
:1005D00080F8FF0FE0F8F9F9F9F9F9F9F9F1F3F317
:1005E000F3F3F0F0FFFFFFFFFFFFFFFFFFFFFFFF51
:1005F000FFFFFFFFFFFFFFFFFFFFFFFFFF7F7FFE0C
:10060000E00FFFF880060600000000000F3FF0C674
:10061000070404070707070707070707070707FF78
:10062000FFFFFFFFFFFFFFFFFFFFFFFFFFFFFF07D2
:1006300007070707078787070726860707C6F03FCC
:100640001F00808000000000000000030784C4E455
:10065000E4E4E4E4E4E4E4C49C000FE7E7E7E7E76C
:10066000E7E7E7E7E7C7870F1F0FC7E7E0ECE4E43A
:10067000E4E5E5E4C4040404070300C040C3031137
:10068000000000000000000000FFFFFFFFFF3939FD
:1006900039FFFFFF0FE0E0EFEF0FFFFF183879FFA2
:1006A000FFF703E0E0EFEF0FFFF9F0F0FCFDFDFDD9
:1006B0000DECE0E0E00000012101000000000080FE
:1006C000C0602060C080000000000C0C007EFE8036
:1006D0003C3E1C1C1C1C1C0C0C0E0C0C0C0C0E1E92
:1006E0001C1C1C1C3C3E80FE7E00000000C0E0E0A4
:1006F000C000000000030300000E1B3166C680D05E
:1007000060311B0E00003828380001471E382020B9
:100710002020301010D0D010109010302020202039
:10072000381E07010000060600000101000000005D
:1007300000000000002020000000000080C0E0F069
:10074000F0F8F8FCFCFCFCFCFCFCFCF8F8F0F0E039
:10075000C08000000000000000F0FCFFFFFFFFFF72
:10076000FFFFFFFFFFFFFFFFFFFFFFFFFFFFFFFF99
:10077000FFFFFFFCF0000000000F3FFFFFFFFFFF47
:10078000FFFFFFFFFFFFFFFFFFFFFFFFFFFFFFFF79
:10079000FFFFFF3F0F000000000000000103070FF4
:1007A0000F1F1F3F3F3F3F3F3F3F3F1F1F0F0F07A1
:1007B00003010000000000200855AA55AA55AA55BB
:1007C000AA55AA55AA55AA55AA55AA55AA55AA5531
:1007D000AA55AA55AA55AA55AA1008FCFE06FEFC61
:1007E00000387CEEC6C6EE7C3800000206FCFC0633
:1007F00002007CFED6D600CCDEF6662020FEFE1877
:10080000FEFE007CFED6D6007EFEC0C000FCFE369A
:100810003E1C0000000000000000000000FCFE364E
:100820003E1C007EFEC0C000FCFE36FEFC00020640
:10083000FCFC0602000000000000000000FEFE00BC
:1008400000FCFE06FEFC00FCFE360602387CEEC60E
:10085000C6EE7C38000000000000000000CCDEF690
:100860006600387CEEC6C6EE7C38007EFEC0FE7E9A
:1008700000FCFE06FEFC00FEFEC6C67C38602800BA
:10088000F0F89898F8F0000000F0F89898F8F00068
:1008900000F0F89898F8F00000F0F818F8F818F858
:1008A000F00000F0F898B8B83000000000FEFE98A4
:1008B00098F8F00000F8F880F8F800000080FEFEDC
:1008C000000078FCCE868686CEFC78000084969662
:1008D0009EFEF60000FEFE0676FEDC0000FEFE0038
:1008E00000818101818100808000038D8D0F03E0F4
:1008F000E080010101E1E180800101000101E0E10E
:1009000081000000E1E181810000000080808181A0
:100910000101000000ECED8F870300000081818061
:1009200080000000E1E10101018080808000010180
:1009300001010080808181000001C1E160010100AE
:10094000000F1F181F1F181F0F00001F1F00000798
:100950000F1D1C00001F1F011F1FC0C0C0C0C7CF3C
:100960001D1C00001F1F011F1F00000F1F191B1B54
:100970000300C0C0001F1F011F1F00000F1F191B15
:100980001B0300001F1F00007F7F19190F0F0000BD
:1009900000000F1F19191F0F00001F1F0600000085
:1009A0000000000000000000000000000000000047
:1009B0000000808080808080000000003F3F0000B9
:1009C000003E3F0300001E3F33333F1E00001E3E2B
:1009D00033333F1F00001E3F33333F1E0000303EC5
:1009E0001F0700303E1F070080808080000000004D
:1009F00000000000000000000000000000000000F7
:100A000000000000000000000000000000000000E6
:100A100000007F7F016161733F1E00007C7E060045
:100A2000003C7E666E6E0C00003C7E66667E7C003E
:100A3000007C7E067E7E067E7C00003C7E666E6EBE
:100A40000C00007C7E06000065677F3D0000000012
:100A50000000000000000000000000000000005E38
:100A60001800A854AA55AA050A000000AA55AA55BC
:100A700080408055AA55AA000000A854AA550A052E
:100A80000A05AA54A85000000055AA55AA050A054F
:100A90000A050A14AA54A84000000040A854AA1449
:100AA0000A050A050A152A54A850A0000000AA55F4
:100AB000AA550000AA55AA5500000055AA55AA50EB
:100AC000A051AA552A150A000000AA55AA550201EC
:100AD0000255AA55AA000000AA55AA550A0502E522
:100AE000EAE5EAE5E0C08015AA05EAE0E80008E0EA
:100AF000E8E40A158AC5E0E0E0E5CA952A1488C052
:100B0000E0E0E0E0E8C50A15C2E0E0E0EAE50A5509
:100B100000E0EAE5EAE5E0C080152A552A00000079
:100B200000000000000000000000000000000000C5
:100B3000000000000000000000000000007F7F7F38
:100B4000003C7F7F670000003F7F7F60607F7F3FCA
:100B500000007F7F7F00007F7F7F00007F7F7F001E
:100B6000007F7F7F00007F7F7F6E6E6E0000007FC2
:100B70007F7F003C7F7F670000000004081E21216A
:100B80001E22213F20223129273225251F0E0A3F10
:100B90000832231D011C26251D03211D033B25258D
:100BA0001B2325251F1A086E6A6A7A007E6262621C
:100BB000007E62627E007E12126C007E6A626200BB
:100BC000644038FFFFFFFFFFFFFFFFFFFFFFFFFF56
:100BD0007F7F7FBF5FAF53ABD5A955BD7DFBF7E7E7
:100BE000CF9F3F7F7FFFFFFFFFFFFFFFFFFFFFFF65
:100BF000FFFFFFFF7F8354AA7FFFFFFEFDF3CFDFE0
:100C00009FBF3FAF4FAF57AB55A955A955AA54AA9F
:100C100055AA55AA55AA57AF57AA55AA55AA55ABD2
:100C2000DFFFFFFFFFFEFEFDFDFBF7EFDFAF5FAF76
:100C300057AB55AAD5EAF5FA7DBA7DFBFFFFFFFF5A
:100C4000FFFFFFAA55AA55AA55AA55AA55AA55AA03
:100C500055AA55AA55AA55AA55EA75FA7DFE7FBF31
:100C60007FBF7FBF7FBF5FAF5DBB75FBF5FED5AAC2
:100C700055AA55AA55AA55AA55AA55AA55AB57AF74
:100C800057AF57AA95AA95AA95AA95AA95AA95AAE3
:100C900095AA95AA95AA95AA95AA95AA95AA95AA5C
:100CA00095AA95AA95AA95AA95AA95AA95AB95AB4A
:100CB00095AA95AA95AA95AA95AA95AA95AA95AA3C
:100CC00095AA95FFFFFFFFFFFFFFFFFFFFFFFFFF5D
:100CD000FFFFFFFFFFFFFFFFFFFFFFFFFFFFFFFF24
:100CE000FFFFFFFFFFFFFFFFFFFFFFFFFFFFFFFF14
:100CF000FFFFFFFFFFFFFFFFFFFFFFFFFFFFFFFF04
:100D0000FFFFFFFFFFFFFFFFFFFFFFFFFFFFFFFFF3
:100D1000FFFFFFFFFFFFFFFFFFFFFFFFFFFFFFFFE3
:100D2000FFFFFFFFFFFFFFFFFFFFFFFFFFFFFFFFD3
:100D3000FFFFFFFFFFFFFFFFFFFFFFFFFFFFFFFFC3
:100D4000FFFFFF0F0F0F0F0F0F0F0F0F0F0F0F0FE3
:100D50000F0F0F0F0F0F0F0F0F0F0F0F0F0F0F0FA3
:100D60000F0F0F0F0F0F0F0F0F0F0F0F0F0F0F0F93
:100D70000F0F0F0F0F0F0F0F0F0F0F0F0F0F0F0F83
:100D80000F0F0F7FFFFFFFFFFFFFFFFFFFFFFFFFC3
:100D9000FFFFFFFFFF7F7FBF9FCFF7F7F7F7EF1F43
:100DA000FFFFFFFFFFFFFFFFFFFFFFFFFFFF7FBF13
:100DB0003FDFBF7FFFFFFFFFFFFFFFFFFFFFFFFFE3
:100DC000FFFFFFFFFEFEFDFBFBFB7BBB7BBB5BABCB
:100DD0005BA955A954AAD5FA7FFFFFFFFFFFFFFCCF
:100DE00051A74FAF4FAF4FAF4FAF57A753A855AA1B
:100DF00055AA75FF7EFE79A75FBF7FFFFFFF7FBF0C
:100E00005F9F4FAB57AB55AA55AA55AA55AA55AAED
:100E100055AA55AA57AB55AA55AA55AB57AB57AFCC
:100E200057AA55AA55AA55AA55AA55AA55AA55AAC8
:100E300055AA55AA55AA55AA55AA55AA54AA55AABB
:100E400055AA55AA95AA95AA95AA95AA95AA95AA2A
:100E500095AA95AA95AA95AA95AA95AA95AA95AA9A
:100E600095AA95AA95AA95AA95AA95AA95AA95AA8A
:100E700095AA95AA95AA95AA95AA95AA95AA95AA7A
:100E800095AA95FFFFFFFFFFFFFFFFFFFFFFFFFF9B
:100E9000FFFFFFFFFFFFFFFFFFFFFFFFFFFFFFFF62
:100EA000FFFFFFFFFFFFFFFFFFFFFFFFFFFFFFFF52
:100EB000FFFFFFFFFFFFFFFFFFFFFFFFFFFFFFFF42
:100EC000FFFFFFFFFFFFFFFFFFFFFFFFFFFFFFFF32
:100ED000FFFFFFFFFFFFFFFFFFFFFFFFFFFFFFFF22
:100EE000FFFFFFFFFFFFFFFFFFFFFFFFFFFFFFFF12
:100EF000FFFFFFFFFFFFFFFFFFFFFFFFFFFFFFFF02
:100F0000FFFFFF0F0F0F0F0F0F0F0F0F0F0F0F0F21
:100F10000F0F0F0F0F0F0F0F0F0F0F0F0F0F0F0FE1
:100F20000F0F0F0F0F0F0F0F0F0F0F0F0F0F0F0FD1
:100F30000F0F0F0F0F0F0F0F0F0F0F0F0F0F0F0FC1
:100F40000F0F0FFFFFFFFFFFFFFFFFFFFFFFFFFF81
:100F5000FFFFFFFFFFFFFFFFFFFFFFFFFFFFFFFFA1
:100F6000FFFFFFFFFFFFFFFFFFFFFFFFFFFFFFFF91
:100F7000FFFFFFFFFFFFFFFFFFFFFFFFFFFFFFFF81
:100F8000FFBF5FAF4F9F5F9F5FBF3FBF3F9F5F9FB1
:100F90005FAFEFEFDF9F3F7F7F7F7F7F7F7F7F3F71
:100FA0003FBF3FBF1F9F5F8F4FAF4FAF57A7F7F7B1
:100FB000F7E7CF9F3F7F7FFF7FEF77AB77AB55ABF7
:100FC00055AA55AA55AA55AA55AA55AA55AA55AA29
:100FD00055AA55AB57BF75EB55AB55AA55AA55AA9F
:100FE00055AA55AA55AA55AA55AAD5EAFDFEFFFF4E
:100FF0007FFF5FAF57AF57AAD4A975BA7FBE55BA66
:1010000055AA55AA95AA95AA95AA95AA95AA95AA68
:1010100095AA95AA95AA95AA95AA95AA95AA95AAD8
:1010200095AA95AA95AA95AE97AF97AB95AB95AAB9
:1010300095AA95AA95AA9FAB9DAE77BE55BE57BA05
:1010400077ABBFFFFFFFFFFFFFFFFFFFFFFFFFFFCC
:10105000FFFFFFFFFFFFFFFFFFFFFFFFFFFFFFFFA0
:10106000FFFFFFFF5FAFF7AB57AB57AB57AB57AFC8
:1010700057AF57AB57AB55AB55AAD5EAF5FEFDFABE
:10108000F5EBF7FFFFFFFFFFFFFFFFFFFFFFFFFF96
:10109000FFFFFFFFFFFFFFFFFFFFFFFFFFFFFFFF60
:1010A000FFFFFFAAF5FA5FEAF5EA55AAF5FEFDFE95
:1010B000FDFAFDFAFDAAF5EA5DFFFFFFFFFFFFFF66
:1010C000FFFFFF0F0F0F0F0F0F0F0F0F0F0F0F0F60
:1010D0000F0F0F0F0F0F0F0F0F0F0F0F0F0F0F0F20
:1010E0000F0F0F0F0F0F050F0F0F0F0E0D0F0F0F1D
:1010F0000F0F0F0F0F0A070F0D0F070F0F0F0F0F17
:101100000F0F0FBE5DAB55AA55AB55AA55AA55AAF0
:1011100055EA55AA55AA55AA55EA55AB57AB57EF0C
:1011200057AB7FFF5FFFFDEA57AF7FFFFFBFFFFFBA
:10113000FFFFFFFFFFFFFFFFFFFFFFFFFFFFFFFFBF
:10114000FFFFFFAAD5BA55AA55BA5DAA55BA55AA46
:1011500055AA55EA55AA55AA55AA55AA55AA57AA55
:1011600055AA5DAE5FAA5DBE7FAF7FFA7DFA7F7F35
:101170007F3F0FA757A757AB53AB53AB57A757A703
:101180004FAF4FBA55AA55AAD5EA7DAE5DAA55AA6A
:1011900055AE75FAD7AA55BA55EAD5AADDEA55EA89
:1011A000F5EA55AA5DAA55BAF5BAD5FA5DA954ABC8
:1011B00055AA55AA55AA55AA55AA55AA55AA55AA37
:1011C00055AA55AB95BA95BB95BA9FAF9DAB9FAB52
:1011D00097BE95AB57AABDBE95AF95AE95BFB7AFBD
:1011E000BDAF95AE9FAB9FAB95AA95AA95AA95AAC0
:1011F00095AA95AA95AA95AA95AA95AA95AA95AAF7
:1012000095AA95FFFFFFFFFFFFFFFFFFFFFFFFFF17
:10121000FFFF77AA55FFFFFFFFFFFFFFFFFFFFFF65
:10122000FFFFFFFFFFFFFFFFFFFFFFFFFFFFFFFFCE
:10123000FFFFFFFFFFFFFFFFFFFFFFFFFFFFFFFFBE
:10124000FFFFFFFFFFFFFFFFFFFFFFFFFFFFFFFFAE
:10125000FFFF55AAFFFFFFFFFFFFFFFFFFFFFFFF9D
:10126000FFFFFFFFFFFFFFFFFFFFFFFFFFFFFFFF8E
:10127000FFFFFFFFFFFFFFFFFFFFFFFFFFFFFFFF7E
:10128000FFFFFF0F0F0F0F0F0F0F0F0F0F0F0F0F9E
:101290000F0B050A0F0F0F0F0F0F0F0F0F0F0F0F71
:1012A0000F0F0F0F0F0F0F0F0F0F0F0F0F0F0F0F4E
:1012B0000F0F0F0F0F0F0F0F0F0F0F0F0F0F0F0F3E
:1012C0000F0F0FFFFFFFFFFFFFFFFFFFFFFFFFFFFE
:1012D000FFFFFFFFFFFFFFFFFFFFFFFFFFFFFFFF1E
:1012E000FFFFFFFFFFFFFFFFFFFFFFFFFFFFFFFF0E
:1012F000FFFFFFFFFFFFFFFF3F9F4FA757A757A726
:1013000053AB73AF4FEFCF8F3F3F7F7F7FFFFFFF29
:10131000FFFFFFFFFFFFFFFFFFFF7F7F3FBF1F8F2D
:1013200047A353AB5BFBFBFBF3E7CF9FBFBFBFBF45
:10133000BF9F4FA753AB53AB54AA55AA55AAD5EAA2
:1013400075FA7DAA55AA55AB55AAD5FAFCAE54A993
:1013500055A955A955A955A955A954AA55AA55AA9B
:1013600055AA5DAE57AB55AB57AF5FBFFFFFFFFF51
:1013700077AB55AB55AA55AA55AA55AA55AA55AA51
:1013800055AA55AA95AA95AA97AB95AB97AF97AED4
:101390009DBAB5AA95AA95AA95AA95AA95AA95AA1D
:1013A00095AA95AA95AA95AA95AE9FAB95AA95AA36
:1013B00095AA95AA95AA95AA95AA95AA95AA95AA35
:1013C00095AA95FFFFFFFFFF57AB57AB57AB57AB46
:1013D00057AB57AB57AB57ABD7EFD7AB57FFFDFA70
:1013E000F5FBF5AA75AAF5EAF5EA75AAD5FFDFAF10
:1013F0005FAF5FAF5FAF5FAF5FAF5FAF5FAF5FAF7D
:101400005FAF5FFFFFFFFFFFF5FFD5FEF5EEFFFECD
:10141000FFFEFFEADDEAFFFFFFFFFFFFFFFFFFFF29
:10142000FFFFFFFFFFFFFFFFFFFFFFFFFFFFFFFECD
:10143000FDFEFFFEFDBAD5FA55FAFDFAFDFAF5AA52
:101440007DAAFF0F0F0F0F0F0F0F0F0F0F0F0F0FB3
:101450000F0F0F0F0F0F0F0F0F0F0F0F0F0F0F0F9C
:101460000F0F0F0F0F0F0F0F0F0F0F0F0F0F0F0F8C
:101470000F0F0F0F0F0F0F0F0F0F0F0F0F0F0F0F7C
:101480000F0F0FF7F7E7CFDFDF9F3F7FFFFFFFFF74
:10149000FFFFFFFFFFFFFFFFFFFFFFFFFFFFFFFF5C
:1014A000FFFFFFFFFF3F43AB55A954AA55AA55AA1A
:1014B00055AA55AA55AA55AA55AB5FBFFFF8738F19
:1014C0003FFFFFBA5FBF5FAF5FBF7FFEFCF9F3E78F
:1014D000CFBF3F7F7F7F7F7F7F7F3FBF3F9F4FA7F4
:1014E00057A353A955AA55AA55AA55AA55AA55AA0C
:1014F00055AA55AA55AA55AA55EAFDFEFFFF57AAB7
:1015000055A853AA55AA55AA55AA55AA55AA55ABE6
:1015100057AB57AF57AF57AA55AA55AA55AA55AAC0
:1015200055AA55AA55AA55AA55AA55AA55AA55AAC3
:1015300055AA55AA55BA5DAE5FAF57AF5FBA75AA47
:1015400055AA55AA95AA95AA95AA95AA95AA95AA23
:1015500095AA95AA95AA95AA95AA95AA95AA95AA93
:1015600095AA95AA95AA95AA95AA95AA95AA95AA83
:1015700095AA95AA95AA95AA95AA95AA95AA95AA73
:1015800095AA95BFFFFBD5ABD5EBD5AB55AB55AB0E
:1015900055AB55AB55AB55AB55EB57FFFFFFFFFFB9
:1015A000FFFFAF57AF57AF57AF57AF57AFDFAFD70B
:1015B000EFFFFFFFFFFFFFFFFFFFFFFFFFFFFFFF4B
:1015C000FFFFFFEAFFFFFFFFFFFFFFFFF7FAFFEA62
:1015D000FFFFFFFFFFFEF5EFF5FFFDFFFFFFFFFF42
:1015E000FFFFFEFDFBFFFFFFFFFDFBFDFFFFFFFF1A
:1015F000FFFFFFFFFFFFFFFFFFFFFFFFFFFFFFFFFB
:10160000FFFFFF0F0F0F0F0F0F0F0F0F0F0F0F0F1A
:101610000F0F0F0F0F0F0F0F0F0F0F0F0F0F0F0FDA
:101620000F0F0F0F0F0F0F0F0F0F0F0F0F0F0F0FCA
:101630000F0F0F0F0F0F0F0F0F0F0F0F0F0F0F0FBA
:101640000F0F0FFFFFFFFFFFFFFFFFFFFFFFFFFF7A
:10165000FFFFFFFFFFFFFF7F7F7FFFFFFFFFFFFF1A
:101660007F3F3FBF3F9F4FA753A954AAD5EB77FFBA
:10167000FFFEFCFDFDF9F3E7DFBF7F7F7F7F7F7F0C
:101680007F7F7FAF4FAF4FAF4FAF4FA757A757A742
:1016900057AB51A954AA54AAD7AE5CBDDCAAD4AAB0
:1016A00054AA55AA55AA55AA55AA55AA55AA55AA43
:1016B00055AA55AB57AF57AF57AF57AFD7AFDFAFFF
:1016C0005FAE5EEA75AA75BE57EE57AA57AE5DAE1D
:1016D0005DAA7DEAD7FFFDAB57AB7DEB55AA55EF71
:1016E000FFAAF7BE5DAAF5BA5FAA57AA57AA77AABA
:1016F00057BE55AE75BEFDAA57AB7DEB55AA55EF4B
:10170000FFAAF7AB9FAA9DAA9DAA9DBA55AAB5AA02
:10171000BDBABDAA9FAA55AAD5BAD7AA7DAAD5AAED
:1017200055BB97BA9FAF95AE97AE95AFFFAA55BE82
:1017300095BEB5AA9DAA55AAD5BAD7AA7DAAD5AAFB
:1017400055BBF7FFFFFFFFFFFFFFFFFFFDFFFFFFA1
:10175000FFFFFFFFFFFFFFFFFFBFFFAAD7BFFFFF96
:10176000FFFEFFFFFFFFFFFFFFFFFFFFFFFEFDFF8D
:10177000FFFFFFFFFFFFFFFFFFBFFFAAD7BFFFFF76
:10178000FFFEFFFFFFFFFFFFFFFFFFFFFFFFFFFF6A
:10179000FFFFFFFFFFFFFFFFFFFFFFFFFFFFFFFF59
:1017A000FFFFFFFFFFFFFFFFFFFFFFFFFFFFFFFF49
:1017B000FFFFFFFFFFFFFFFFFFFFFFFFFFFFFFFF39
:1017C000FFFFFF0F0F0F0F0F0F0F0F0F0F0F0F0F59
:1017D0000F0F0F0F0F0F0F0F0F0F0F0F0F0F0F0F19
:1017E0000F0F0F0F0F0F0F0F0F0F0F0F0F0F0F0F09
:1017F0000F0F0F0F0F0F0F0F0F0F0F0F0F0F0F0FF9
:101800000F0F0FFFFF7F7F3F1F9FDF9F3FFFFFFFF8
:10181000FFFFFFFFFFFFFFFFFFFFFFFFFFFFFFFFD8
:10182000FFFFFFFFFFFFFFFFFFFFFFFFFFFFFFFFC8
:10183000FFFFFFFFFFFFFFFFFFFFFFFFFFFFFFFFB8
:10184000FFFFFFBE5CBA55AA55AA55AF5EAE5CA8B5
:1018500059ABD3A3D7A7C7AF47A353AB53A3F7E75E
:10186000E7AF47A753AB53AB53A757A757A74F9F14
:101870001F9F5F9F5F9F1FDFDFBFBF9F5F9F4FAFB8
:1018800057A74FBE55AA55AA55AA55AAF5FF55AF59
:1018900055BBD5AA55AB55EF57FE7DAA55AB55AAFA
:1018A00055AAF5BA5FAA57AA57AA77AA57BE55AE46
:1018B00075BEFDAA57AB7DEB55AA55EFFFAAF7BE43
:1018C00055AA55BABFAA95AA95BEB7AB5DBA55AA97
:1018D0005FAB55AF55AA55AA75AB5FAEFDBA95AAD9
:1018E00095AA95AE97AE95AFFFAA55BE95BEB5AA7F
:1018F0009DAA55AAD5BAD7AA7DAAD5AA55BBF7BA2B
:10190000BFAA95FFFFFFFFFFFFFFFFFFFFFFFFBF26
:10191000FFBFD5AFFFBEFFFEFFFFFFFFFFFFFFFFD3
:10192000FFFFFFFFFFFFFFFFFFFEFDFFFFFFFFFFCA
:10193000FFFFFFFFFFBFFFAAD7BFFFFFFFFEFFFFB5
:10194000FFFFFFFFFFFFFFFFFFFFFFFFFFFFFFFFA7
:10195000FFFFFFFFFFFFFFFFFFFFFFFFFFFFFFFF97
:10196000FFFFFFFFFFFFFFFFFFFFFFFFFFFFFFFF87
:10197000FFFFFFFFFFFFFFFFFFFFFFFFFFFFFFFF77
:10198000FFFFFF0F0F0F0F0F0F0F0F0F0F0F0F0F97
:101990000F0F0F0F0F0F0F0F0F0F0F0F0F0F0F0F57
:1019A0000F0F0F0F0F0F0F0F0F0F0F0F0F0F0F0F47
:1019B0000F0F0F0F0F0F0F0F0F0F0F0F0F0F0F0F37
:1019C0000F0F0FFFFFFFFFFFFFFFFFFFFFFFFFFFF7
:1019D000FDFAFDFAF5AF55FA7F7F7F7F7FFFFFFFAE
:1019E000FFFFFFFFFFFFFFFFFFFFFFFFFFFFFFFF07
:1019F0007FFF7FFFFFFF7FBF5FBF7FFF7FFF7FFF17
:101A00007FFF7FA747A757B7F7F777B757AB53AB1A
:101A100053A954AAFEAA55AAFFAA55AA54AA54AA81
:101A2000D6EEFDFDFDF9F9FB7BFB77B757A755AA6D
:101A300055AA55AA55AA55AA55AA55AA55AA55AAAE
:101A400055AA55AA55AA55AB55AA55AA55AAD5AA1D
:101A5000D5AAD5AAFFBE77AA55AFFDAA55AA55AFFC
:101A600057AB55AAD5EA75BA5DAE55AE5DBA75EA03
:101A7000D5AA55AA55AA55AA55AA55AA55AA55AAEE
:101A800055AA55AABDAE55AE57AB55AB55AB55AAE9
:101A900055AA55AB57AAD5FA55AADFBA95AA95AA61
:101AA00095BE57AB55AA55AA55AA55AA55AA55AAE7
:101AB00055ABFFAA55AAFDFA55AAFDFA55AA55AA93
:101AC00055AAFDFF5FAE55AAD5EAD5EAF5EAF5EAD3
:101AD000F5EAF5EAF5FAF5FAF5FAF5FBFFFFFFFF8F
:101AE000FFFFF5EAF5EAF5EAF5EAF5EAF5EAF5EADF
:101AF000F5EAFFFAF5FAF5FAF5FAF5FAF5FAF5FA74
:101B0000F5FAF5FFFFFFFFFFFFFFFFFFFFFFFFFFFE
:101B1000FFFFFFFFFFFFFFFFFFFF55AA55EAF5EAB2
:101B2000F5AA55AAF5FBF5FAFDFFFFFFFFFFFFFF42
:101B3000FFFFFFFFFFFFFFFFFFFFFFFFFFFFFFFFB5
:101B4000FFFFFF0F0F0F0F0F0F0F0F0F0F0F0F0FD5
:101B50000F0F0F0F0F0F0F0F0F0F0F0F0F0F0F0F95
:101B60000F0F0F0F0F0F0F0F0F0F0F0F0F0F0F0F85
:101B70000F0F0F0F0F0F0F0F0F0F0F0F0F0F0F0F75
:101B80000F0F0FFF7FFF7FBF5FAF5FBF7FFF7FBF85
:101B90007FBF7FBF7FBFFFFFFFFFFFFFFFFFFFFF95
:101BA000FFFFFFFFFFFFFFFFFFFFFFFFFFFFFFFF45
:101BB000FFFFFFFFFFFFFFFFFFFFFFFFFFFFFFFF35
:101BC000FFFFFFAA55AA55AA55AA55AA55AA55AA74
:101BD00055FA55AA55AF5FFFFFFFFF7F7F3F1F8F6D
:101BE00047A757A74F8F1F7FFFFFFFFFFFFFFFFF95
:101BF000FFFFFFFFFFFFFFFFFFFFFFFFFFFF7F1F55
:101C00004FA757AA55AA55AA55AA55AA55AA55AAE3
:101C100055AA55AA55AA55AA5DB9F4AA55AA55AA16
:101C200055AA55AA55AA55AA54AA54A855A953A7C6
:101C30004FAF4F9F5F9F5F9F5FAF4FA757A954AABA
:101C400055AA55FA55AAFDFA55AA55AA55AAFDBA9C
:101C5000FDBAFDFAFDAA55AA55AA55AB57BE95AADD
:101C600095AA95AA95AA95AA95AA95AA95AA95AA7C
:101C700095AA95AA95AA95AA95AA95AA95AA95AA6C
:101C800095AA95FAF5FAF5FAF5FAF5FAF5FAF7FAEA
:101C9000F7FBF7FAF7FAF5FAF5FAF5FAF5FFFFFFB1
:101CA000FFFFFFFFFFFFFFFFFFFFFFFFFFFFFFFF44
:101CB000FFFFFFFFFFFFFFFFFFFFFFFFFFFFFFFF34
:101CC000FFFFFFFFFFFFFFFFFFFFFFFFFFFFFFFF24
:101CD000FFFFFFFFFFFFFFFFFFFFFFFFFFFFFFFF14
:101CE000FFFFFFFFFFFFFFFFFFFFFFFFFFFFFFFF04
:101CF000FFFFFFFFFFFFFFFFFFFFFFFFFFFFFFFFF4
:101D0000FFFFFF0F0F0F0F0F0F0F0F0F0F0F0F0F13
:101D10000F0F0F0F0F0F0F0F0F0F0F0F0F0F0F0FD3
:101D20000F0F0F0F0F0F0F0F0F0F0F0F0F0F0F0FC3
:101D30000F0F0F0F0F0F0F0F0F0F0F0F0F0F0F0FB3
:101D40000F0F0F4010A0E040E0A0E040E0A0E04016
:101D5000E0A0E040E0AAFF55FFAAFF40E0A0E0407D
:101D6000E0A0E040E0A0E0406020604060206040F3
:101D7000E0A0E040E0A0E040E0AAFE54FEAAFE4061
:101D8000E0A0E040E0A0E040E0A0E040C080C04033
:101D9000C080C040C080C040E0A0E040E0AAFF5545
:101DA000FFAAFF55FFA0E040E0A0E040E0A0E04037
:101DB000E0A0E040E0A0E040E0A0E040E0A0E040A3
:101DC000E0A0E054FE089C141C08DC141C081C1441
:101DD0009C081C141CAAFF55FFAAFF101808180025
:101DE000800000000000E0001400080094000000E3
:101DF000C00000000008981018AAFF55FFAAFF10A5
:101E00001808181098085810180898101808181072
:101E1000D8081810980818109808181018AAFF5514
:101E2000FFAAFF55FF081C101808981018089810F2
:101E30001808D810180898101808D8101808981002
:101E400038283855FFAAFE54FE80C040C080C040EC
:101E5000C080C040C080C040C080C040C080C04082
:101E6000C080C040C080C055FFAAFF55FFA0E04021
:101E7000E0A0E040E0A0E040E0A0E040E0A0E040E2
:101E8000E0A0E040E0A0E050F8A8F850F8A0E04062
:101E9000E020604060206040602060406020604042
:101EA0006020604060206055FFAAFF55FFA0E04021
:101EB000E0A0E040E0A0E040E0A0E040E0A0E040A2
:101EC000E0A0E040E0AAFF55FF0819119908191198
:101ED000D9081911D90819111908991159081D158E
:101EE0009D085911190A1F55FFAAFF55FF08181020
:101EF00098081810980858101808D8101808981042
:101F00005808181098081855FF2AFFD5FF08981090
:101F100058081810180898101808181018081810E1
:101F20001808181018081855FFAAFF55FF081810B0
:101F300098081810980858101808D8101808981001
:101F40005808181018A0E040E0A0E040E0A0E040F1
:101F5000E0A0E040E0A0E040E0A0E054FCA8FC5499
:101F6000FC80C040C080C040C080C040C080C04035
:101F7000C080C040C0808000808080008080C055CC
:101F8000FFAAFF45E7A0E040E0A0E040E0A0E0407D
:101F9000E0A0E040E0A0E040E0A0E040E0A0E040C1
:101FA000E0A0E054FEAAFE54FEAAFE40C080C0405D
:101FB000C080C040C080C040C080C040C080C04021
:101FC000E0A0E040E00898101808D8101808181091
:101FD000180898105808181098081855FF2A7F55A7
:101FE000FF0A1F111908D9111908DD159D0859118B
:101FF00019089911590819119908D91199081955F1
:10200000FFAAFF55FF2838103828B81058081810B4
:10201000D8081810D808181098081810D8081810E0
:1020200098081C55FFAAFF55FFAAFF1018081810A2
:10203000D808181098081810980818101808D81000
:102040001808981098A0E040E0A8FC54FCA8FC00F8
:102050000000000000000000000000000000000080
:1020600080808040C080C040C080C040E0AAFE5454
:10207000FEAAFE54FCA0E040E0A0E040E0A0E0406A
:10208000E0A0E040E0A0E040400040404000405080
:10209000F0A0F050F0A0E000000000000000000000
:1020A00000000000000000000000000000AAFE5434
:1020B000FEAAFE54FCA0E040E0A0E040E0A0E0402A
:1020C000E0A0E040E020705058AAFF55FFAAFF149E
:1020D0001C2A3E143E0A9E151F0A9F151F0A1B1537
:1020E0009F0A1B15DD081D151D08D8141CAAFF55D5
:1020F000FFAAFF141C089C145C081C149C085C14A8
:102100001C08DC141C089C145C089C040C080C556E
:10211000FF2AFF55FF0004149C081C048C084C0483
:102120000C00800000000000C00000141CAAFF5535
:10213000FFAAFF141C089C145C081C149C085C1467
:102140001C08DC141CA0E040E0A0E040E0A0E0405F
:10215000C080C040C0AAFE55FFAAFF40E0A0E040FA
:10216000E0A0E040E0A0E040E0A0E040E0A0E040EF
:10217000E0A0E040E0A0E040E0AAFE54FEAAFE405D
:10218000E00000000000000000000000000000006F
:10219000000000000000000000000000000000003F
:1021A000000000000000000000000000000000002F
:1021B000000000000000000000000000000000001F
:1021C00000A0E054FE081C14DC081C149C081C141D
:1021D0009C081C141CAAFF55FFAAFF141C081C1401
:1021E0009C081C141C08DC141C089C141C08DC141F
:1021F0001C088C040C08DC141CAAFF55FFAAFF0461
:102200000C000000C000000080002000C000300072
:102210000A0004000A008000000000000000C8005E
:10222000300008000000C0000000C00020000000D6
:10223000800040000000800000000000000000104E
:1022400038283855FFAAFE54FE80C040C080C040E8
:10225000C080C040C080C040C080C040C080C0407E
:10226000C080C040C080C054FEAAFE54FE80C04062
:10227000C080C040C080C040C080C040C080C0405E
:10228000C080C040C080C040C080C054FEAAFE5480
:10229000FE80C040C080C040C080C040C080C04000
:1022A000C080C040C080C040C080C040C080C05519
:1022B000FFAAFF55FFA0E040E0A0E040C080C04082
:1022C000E0A0E040E0AAFF55FF0819111908991194
:1022D00019081911D9081911990819111908D911D2
:1022E0001908991119081955FFAAFF55FF08191166
:1022F0001908991119081911D908191199081911F2
:102300001908D9111908991119081955FFAAFF556B
:10231000FF0819111908991119081911D90819116B
:10232000990819111908D91119089911190819557D
:10233000FFAAFF55FF081810D8081810D808181061
:102340009808181018A0E040E0A0E040E0A0E040AD
:10235000E0A0E040E0A0E054FCA8FC54FEAAFE404F
:10236000E0A0E040C080C040C0808000808080004D
:10237000000000000000000000000000000000401D
:10238000C0A8F854FC287C143C00040000000000A5
:10239000000000000000000000000000000000003D
:1023A000000000000080C054FEAAFE54FE80C04021
:1023B000C080C040C080C040E0A0E040E0A0E0405D
:1023C000E0A0E040E0081C141C08DC141C089C146D
:1023D0001C08DC141C081C141CAAFF55FFAAFF10C3
:1023E0001808D8111908D911190ADB111B0ADB15B5
:1023F0001F0ADF151F2AFE143E2A3E54FCA8FC5576
:10240000FF0A1F15DF081810D80818109808581070
:102410001808981058081810D8081810D80818105C
:10242000D8081850F8AAFF55FF0A1F10980818106E
:10243000D800000080000000C0000000C0000000C4
:1024400080283810B8A0E045E7AAFF55FF80C040BB
:10245000C0808000808080008080C040C080C040FC
:10246000C080C040C080C040C080C054FCA8FC54A4
:10247000FCA0E040E0A0E040E0A0A000A0A0A040C0
:10248000E0A0E040E0A0E040E0A0E054FCA8FC5464
:10249000FCA0E040E0A0E040E0A0E040E0A0E040A0
:1024A000E0A0E040E0A0E040E0A0E054FCA8FC5444
:1024B000FCA0E040E0A0E040E0A0E040E0A0E04080
:1024C000E0A0E040E0283855FFAAFF55FF081911A9
:1024D0001908D91119081911D908191119089911D0
:1024E00019081D15DD081911990A1F55FFAAFF5576
:1024F000FF08181098081810D80818101808981015
:10250000580818109808181018081855FFAAFF55F1
:10251000FF08181098081810D808181098085810B4
:10252000180898105808181098081855FFAAFF5551
:10253000FF08181098081810D808181098081810D4
:102540001808D81018A0E040E0A0E040E0A0E0406B
:102550006020604060A0E040E0A0E040E0A8FC54C3
:10256000FCA8FC40E00000000000000000000000AB
:10257000000000000000000000000000000000005B
:1025800000000000008080008080800000000000CB
:10259000000000000000000000000000000000003B
:1025A00000000000000000000000000000808040EB
:1025B000C080C040C080C0000000000000000000DB
:1025C00000000000000818101808D810180818108B
:1025D000D80818101808D81018089810180A1F558D
:1025E000FFAAFF1119081810D80818101808181099
:1025F000B82838103828B81030203010B0203010EB
:1026000030207055FFAAFF557FAAEF40E0A0E040C0
:10261000E0A0E04060206040E0A0E040E0A0E040BA
:10262000C080C040C080C040C0A0E054FCAAFF559C
:102630007F2A3F05070000000000000000000000A6
:10264000000000000000000000000000000000008A
:10265000000000000000000000A8F850F8A8F850A2
:10266000F800000000000000000000000000000072
:10267000000000000000000000000000000000005A
:1026800000808000808080000000000000000000CA
:10269000000000000000000000000000000000003A
:1026A0000000000000000040E0A8FC54FCA8FC4032
:1026B000E0A0E040E0A0E04060206040602060409A
:1026C000E0A0E040E000000000000000000000008A
:1026D000000000000000000000AAFF55FFAAFF5400
:1026E000FCA0E040E0A0E040C080C040C080C0400E
:1026F000E0A0E040E0A0E04060A0E040E0A0E040DA
:10270000E0AAEF557FAAFF55FFA0F010B0203010CF
:10271000B02030103020B01038283810B8283810C9
:1027200018081810D80818151DAAFF55FF0A1F1001
:10273000180898101808D81018081810D808181079
:102740001808D81018101000F8FCFEFEFEFCF8F86F
:10275000FCFEFEFEFCF800000103070F1F3F7F7F19
:102760003F1F0F07030100000000E0F0F8F8F0F051
:10277000F8F8F0E00000000000000103070F1F1F41
:102780000F0703010000001118C0E0F0FCFCFCF88A
:10279000300000008080800000000000080F070764
:1027A000070F0F0F0F0F0F0F0908080000000000A0
:1027B0000000000000000000000000000000008099
:1027C0008080800000000000000000000000030F77
:1027D0000F0707070F0E0E0E0E0E0E08080800005A
:1027E00000000000000000000000000000000000E9
:1027F00000000000000000000000000000000000D9
:102800000010183C3E7E7E7E1E0E1E1C1C0C08080E
:1028100008000000000000000000000000000000B0
:1028200000000000000000000000000000000000A8
:1028300000000000E0E8ECF6FEFEFE7EFEFEFEFC80
:102840009C08080800000103070F1F1F0C0001016E
:102850000101000000000000000000000000000076
:102860000000000000000060E4F6F3FBFFFFFFFF44
:10287000FFFEFE8C040404000001070F1F3F3F1CF5
:10288000040303030000000000000000000000003B
:102890000000000000000000000020E8FCF6FEFE42
:1028A000FE7E3E7EFEFCDC080808000000010307F7
:1028B0000707030100000000000000000000000006
:1028C0000000000000000000000000000000080EF2
:1028D0000606060E0E0E0C0C0C0C08080800000074
:1028E000000000000000000000000000000080C0A8
:1028F000C0E0F0F0E0400000000000000000000137
:1029000001090F0707070F0E0E0F0F0F0D0808081C
:1029100000000000000000000000000000000000B7
:10292000001010000000C000F000F000F800FC20D3
:10293000FC60FCC0F880F800F000F000F000C0007F
:102940000000000000003F007F00FF00FF00FF00CC
:10295000FF00FF01FF03FF0FFF00FF00FF00FF006C
:102960007F00003838000000004030117FFFFFFF7B
:10297000FFC700031FFFFCF7FFFFFFFF3F171F9F6D
:102980003F97FF7BF7C7D657B043AF17B46078F8CF
:10299000E480800000000000000000000000000053
:1029A000000000000000070F3FFFFFFEF8F0FFFFF0
:1029B000FFFFFF0F04040008027C0791C33E39703B
:1029C000C9081050110840C0E0010000030204389B
:1029D000C8800000000000000000000000000000AF
:1029E0000000FFFFFFFFFFFFFFFFFF0000000000F0
:1029F00000000000020107060001020000000000C4
:102A00000107040B000000000101010001000000AB
:102A1000000000000000000000B0FFFFFFFFFFFF0C
:102A2000FFFFFF00000000000000000000000000A9
:102A30000000000000000000000000000000000096
:102A40000000000000000000000000000000000086
:102A500000FFFFFFFFFFFFFFFFFFFF000000000080
:102A60000000000000000000000000000000000066
:102A70000000000000000000000000000000000056
:102A8000000000000000000000FEFFFFFFFFFFFF4E
:102A9000FFFFFF0000000000000000000000000039
:102AA0000000000000000000000000000000000026
:102AB000000000000000000000000000000000C056
:102AC000E0FFFFFFFFFFFFFFFFFFFFFFFEF8F0C08B
:102AD0008000000000000000000000000000000076
:102AE00000000000000000000000000000179FFF31
:102AF000FFFFFCFCF1E0010000000000301038F2A4
:102B0000FBFFFFFFFFFFFEFEFFFFFFFFFF7F7F3E9C
:102B10003F1F0F0707070303030301010000000025
:102B200000000000000043633F0F1F3F7F7FFEFC5B
:102B3000F8F8F8F0F0F0E0E0E0C0C2FFFFFFFFFFC0
:102B4000FFFFFFFFD8F04020000000000000000061
:102B50000000000000000000000000000000000075
:102B6000000000000001000101030707070F1F1FFD
:102B70003F3FFFFFFFFFFFFFFFFFFFFFFFEFF3FE02
:102B8000DEEEFAE8B80000000000000000000000DF
:102B90000000000000000000000000000000000035
:102BA0000000000000000000000000001FFFFFFF09
:102BB000FFFFFFFFFFFFFFFFFF1F4F0307060000A0
:102BC0000000000000000000000000000000000005
:102BD00000000000000000000000000000000000F5
:102BE0000000000000FFFFFFFFFFFFFFFFFFFFFFF0
:102BF000FF0E0000000000000000000000000000C8
:102C000000000000000000000000000000000000C4
:102C100000000000000000000000000000FFFFFFB7
:102C2000FFFFFFFFFFFFFFFFFFF8000000000000B5
:102C30000000000000000000000000000000000094
:102C40000000000000000000000000000000000084
:102C50000000000000FFFFFFFFFFFFFFFFFFFFFF7F
:102C6000FFFFFFF8E0C080800000000000000000CF
:102C7000000000000000FB444000091111F10D0AA2
:102C80000C22138A47273F7FFFFFFDFFE3F0C4E6D6
:102C9000FFFFFFFFFFBF63378808040444BA9111A8
:102CA0000000080F042890C0B04888070006F9000B
:102CB000000402817109060224241B00000058054B
:102CC00006010707FFFFFFFFFFFFFF1F03101010A4
:102CD00010091D0300000101196600000000020137
:102CE0003E40A001020300000000160100000000A9
:102CF000000000000000000000000000FFFFFFFFD8
:102D0000FFFFFF00000000000000000000000000C6
:102D10000000000000000000000000631C00000034
:102D200000000000000000000000000000000000A3
:102D3000000000FEFFFFFFFFFFFF3F00000000005C
:102D40000000000000000000000000000000000083
:102D50000000000000000000000000000000000073
:102D600000000000000000000080FEFFFFFFFFFFEA
:102D7000FFFF000000000000000000000000000055
:102D80000000000000000000000000000000000043
:102D90000000000000000000000000000000000033
:102DA00080FFFFFFFFFFFFFFFF07000000000000A4
:102DB0000000000000000000000000000000000013
:102DC0000000000000000000000000000000000003
:102DD00000000000000000C0FFFFFFFFFFFFFFFF3B
:102DE0001F000000000000000000000000000000C4
:102DF00000000000000000000000000000010803C7
:102E0000170810307C3414007E7E6060007E007EE7
:102E10007E0A0A007E7E6A6A6A3810F0F8FCFE1E9E
:102E20009E9EFEFCF8F000F0F8FCFE1E1E1EFEFE4C
:102E3000FCF00000FEFEFEFE000000FEFEFEFE00B6
:102E40000000F0FCFEFEFE1E0000F8FCFEFE9E9E52
:102E50009E9E1EAB55AB550005030503010100AB5B
:102E600055AB550A140055AB55AB0000152B55ABAF
:102E700050A050AB552B150000A051AB552B550B56
:102E80000000152B55AB55A355A3503A188050A8F8
:102E90005428140A140A142A0000000000A050A8A4
:102EA000542A140A14AA54A8500000A854AA540A78
:102EB00014AA54A8540A140A54AA54A8000050A8EA
:102EC00054AA148A148A140A152A55A850A040AA94
:102ED00045AA552A140000AA55AA550A140000AAAA
:102EE00015CAE57030B23572E5C00032F5F2E5F092
:102EF000701005E2F5B2B000F5F235B2F5E205A2C8
:102F00004500000000000100010001000000000079
:102F1000000001000100000000000003070E0C0C7F
:102F20000C0E07030000010F0701000000070F0D42
:102F30000D000F0F00030F0E080001F0F89C8E87A4
:102F400083878E9CF8F00000FEFF03030303030752
:102F50000EFCF80000FEFF0303030303070EFCF85A
:102F60000000FFFF00000000000000FFFF0000FE67
:102F7000FF8383838383C7EE7C380000F8FC0E0751
:102F8000030303070EFCF800003F7FE0C08080C011
:102F9000E07F3FFFFF01010101010101FFFF000090
:102FA000FFFF0C0C0C0C1C3E77E3C100007FFFC040
:102FB000C0C0C0C0E0703F1F00001F3F70E0C0C035
:102FC000C0E0703F1F00007FFFC1C1C1C1C1E377F6
:102FD0003E1C00001F3F70E0C0C0C0E0703F1F00FB
:102FE0000000000001FFFF01000000D5F08D14A1DA
:102FF000C881CFD9F1AF2000CE1D0D1FC51DA51D65
:10300000AA1DA91D791D7820F71E6020080B00025B
:103010000202000009040000010202000005240071
:103020001001052401010104240206052406000103
:103030000705810310004009040100020A00000096
:103040000705020240000007058302400000040358
:10305000090412010002EF02014041233680000101
:103060000102030141726475696E6F204C4C43008C
:1030700041726475626F7900E62711241FBECFEF9D
:10308000DAE0DEBFCDBF11E0A0E0B1E0EAE1F8E5B3
:1030900002C005900D92AA36B107D9F726E0AAE63C
:1030A000B1E001C01D92A832B207E1F718E1CDE30B
:1030B000D8E104C02197FE010E94052CCC33D10732
:1030C000C9F70E941C280C940B2C0C9400008091D2
:1030D000870108958F929F92AF92BF92CF92DF9215
:1030E000EF92FF920F931F93CF93DF93DC01CB01FD
:1030F000FA011491319674914E5F5F4FC12FD0E069
:10310000222301F1E1E0F0E0372F377011F4F0E015
:10311000E0E0E72EE694E694E694EE0EFF2EF11C36
:10312000EC9EF001ED9EF00DFC9EF00D112403309D
:1031300011F4EE0FFF1F2E9F70012F9FF00C112432
:103140004E0D5F1D7D01EC0EFD1E1E141F040CF0C4
:10315000C3C0A038B1050CF0BFC09C01270F311DC2
:10316000121613060CF0B8C0803491050CF0B4C0F0
:103170004115510509F4B0C09C0197FF04C02227F6
:103180003327281B390BF22FF770BF2E9C0197FFB6
:1031900002C0295F3F4F63E0359527956A95E1F7B7
:1031A000622F97FF07C0BB2029F06FEF620F88E006
:1031B0008B19B82EEE27FF27EA1BFB0BB7FD02C0C9
:1031C000F0E0E0E020E82A1B30E8E316F1040CF41C
:1031D000212F2E1B862F062E000C990BF82EF09413
:1031E0006F3F0CF0F12CDD24D394372F377009F4A6
:1031F000D12C7695769576953D2D370F830F911DC1
:10320000099714F038E0361B832F8F199F2D960FE6
:10321000692F30E8630360011124B6016A0F7B1F38
:103220006E0F7F1F1F9DE00DF11D11244E0F5F1FBC
:10323000EB2C0B2C000CFF080A3F09F45AC00B3F83
:1032400009F484C0033009F047C0C22ED12CE40F2A
:10325000F51FDB01AA54BE4F6A5C7D4F00E810E009
:103260000C191D09CC19DD09CC0FDD1F41E050E020
:1032700001C0440FEA94EAF7382F922EA82ECF937C
:10328000DF93EB01C590E590BB2059F0C49E60012F
:10329000E49E700197302CF45881F0945F215D29F1
:1032A000599399233AF05C91E0945E215C295D93F7
:1032B0000C945B1911962A9529F73A9551F0292D0E
:1032C00093951124EC0FF11DA00FB11DC00FD11D5E
:1032D000D9CFDF91CF911124DF91CF911F910F9121
:1032E000FF90EF90DF90CF90BF90AF909F908F9026
:1032F0000895382F390F391779F3DB01AA54BE4FDF
:1033000010E000E0021708F051C0FA01E00FF11FD1
:10331000E491F0E04F010E2C02C0880C991C0A9435
:10332000E2F797FD03C08C9188298C93BB2051F064
:10333000973044F46D0180E8C80ED11CF6018081FD
:10334000892980830F5F1F4F1196DCCF382F390FEB
:10335000391709F4C1CFDB01AA54BE4F10E000E0D9
:10336000021750F5FA01E00FF11FE491F0E00E2C86
:1033700002C0EE0FFF1F0A94E2F797FD05C08C9183
:10338000DE2ED0948D218C93BB2061F0973054F4C5
:103390006D0180E8C80ED11C9F2E9094F6018081AB
:1033A000892180830F5F1F4F1196DACF9F5F4C0FEB
:1033B0005D1F60587F4F9FCF9F5F4C0F5D1F605810
:1033C0007F4FC6CF90911C06982329F490911B063D
:1033D000982381E009F480E0089580E0E6EBF1E0D5
:1033E00081118FEF002481938193819381930394C2
:1033F000D1F708958091B6018EBDE7EBF1E086EB41
:1034000095E021910DB407FEFDCF2EBD8E179F07CD
:10341000C1F70DB407FEFDCF08950F93242F03E0ED
:10342000AB0164E270E00E946A180F910895FC01FC
:103430008091B501882311F13FB7F89482E0809321
:10344000E9002091F200822F90E01816190614F47A
:1034500081E090E0882339F0289844E64093B40155
:103460004091F1004083222339F02091F200211194
:1034700003C02BE62093E8003FBF08958FEF9FEF36
:1034800008952FB7F89483E08093E9009091E800C5
:10349000892F807295FF04C09091F20080E4891B0F
:1034A0002FBF08958091AC0181110DC082E08093FF
:1034B000A80184E08093A9011092AB011092AA01A7
:1034C00081E08093AC0188EA91E00895CF93DF9387
:1034D0001F92CDB7DEB76983DC01ED91FC910280CC
:1034E000F381E02D41E050E0BE016F5F7F4F099511
:1034F0000F90DF91CF91089583E08093E900809150
:10350000F200882319F08AE38093E80008950E946E
:10351000411A90E00895CF93DF931F92CDB7DEB7A5
:10352000FC018485958597FD08C02FEF3FEF358717
:1035300024870F90DF91CF910895CE0101960E94CC
:10354000171A019719F4898190E0F3CF8FEF9FEF5D
:10355000F0CF0F931F93CF93DF931F92CDB7DEB7BA
:103560008C01FC018485958597FF0BC0CE010196E7
:103570000E94171A019771F4898190E0F8019587EC
:103580008487F801848595850F90DF91CF911F91F5
:103590000F9108958FEF9FEFF1CFFC018485958502
:1035A00097FD0BC09FB7F89482E08093E90080916B
:1035B000F2009FBF90E0019608959FB7F89482E0D3
:1035C0008093E9008091F2009FBF90E008954091C0
:1035D000A2015091A3012091A0013091A1014217B5
:1035E0005307B4F49091E8009570E1F39091E800EE
:1035F00092FD19C08093F1008091A2019091A301E6
:1036000001968F739927892B19F48EEF8093E80028
:103610008091A2019091A30101969093A3018093C0
:10362000A20181E0089580E00895DF92EF92FF9279
:103630000F931F93CF93DF93D82E8A01EB017B0169
:10364000E40EF51ECE15DF0559F0D7FE12C0FE01BF
:1036500084910E94E71A21968111F4CF0FEF1FEF9A
:10366000C801DF91CF911F910F91FF90EF90DF90F4
:1036700008958881EECF0F931F93CF93DF931F920E
:10368000CDB7DEB782E0898342E450E06CE070E3BE
:1036900080E80E94151B0E94521ADC0112960D91BF
:1036A0001C910115110589F0D801ED91FC91028062
:1036B000F381E02DBE016F5F7F4FC801099597FD33
:1036C00004C0F80100851185ECCF89810F90DF914E
:1036D000CF911F910F910895615030F02091F1002A
:1036E000FC0120830196F8CF289884E68093B401EA
:1036F000089508953FB7F8948091970190919801AB
:10370000A0919901B0919A0126B5A89B05C02F3FC1
:1037100019F00196A11DB11D3FBFBA2FA92F982FF7
:103720008827BC01CD01620F711D811D911D42E0F2
:10373000660F771F881F991F4A95D1F708958F92BA
:103740009F92AF92BF92CF92DF92EF92FF926B0166
:103750007C010E947A1B4B015C01C114D104E1047D
:10376000F104B9F00E947A1B681979098A099B094A
:10377000683E73408105910580F321E0C21AD108AB
:10378000E108F10888EE880E83E0981EA11CB11CA8
:10379000E4CFFF90EF90DF90CF90BF90AF909F90DD
:1037A0008F9008958F929F92AF92BF92CF92DF92A7
:1037B000EF92FF920F931F93CF93DF936C017B01E6
:1037C0008A0180912001882309F45CC08091B501B1
:1037D000882309F457C08091A70180FF05C080911C
:1037E000E00082608093E000E801B12C8AEFA82E0F
:1037F00093E0892E2AE3922E209711F4BB20D9F171
:103800000E94411A81110AC0AA94AA20D9F161E04C
:1038100070E080E090E00E949F1BEECF8C171D06A9
:1038200011F00CF08C2F9FB7F8948092E900209152
:10383000E80025FD02C09FBFDFCF282F30E0C21B6C
:10384000D30BF701815020F041914093F100FACF62
:10385000E20EF31EBB2021F09092E800B12CEBCFDA
:103860008091E80085FDE7CF9092E800BB24B394F7
:10387000209709F3F3CF5D9884E68093A601101694
:1038800011063CF081E090E0F6019383828310E022
:1038900000E0C801DF91CF911F910F91FF90EF9051
:1038A000DF90CF90BF90AF909F908F900895209120
:1038B0008F01E0918D01F0918E01CF0102969093DE
:1038C0008E0180938D01222319F0859194910895A2
:1038D000808191810895CF92DF92EF92FF92CF93F2
:1038E000DF930E94571C811520E8920791F4809184
:1038F00071008D7F809371001092910046984798D7
:1039000010928C01DF91CF91FF90EF90DF90CF90DC
:10391000089521E020938C01813020E8920751F432
:1039200080918A0190918B0190938E0180938D01FB
:103930000E94571C97FD05C020918901222309F49C
:1039400054C020918801211150C021E020939001A2
:10395000EC01DF77209709F04BC081E08093910163
:1039600046983FE9C32E3FE0D32EE12CF12CCAEF5D
:10397000D0E0E0911406F09115060995811103C07D
:1039800081E08093910180919001882329F08091BA
:103990009101882309F43FC047980E94571C009763
:1039A000F1F19C01DE010E94E22BDC01CB0129E058
:1039B000B595A795979587952A95D1F71092900080
:1039C0002AE020939100D0929900C09298008093B1
:1039D000920190939301A0939401B09395018091EB
:1039E00071008260809371008DCF10929001B0CFF2
:1039F0009E0150E040E060E472E48FE090E00E94BD
:103A00008E2B69017A0181E0C81AD108E108F1081A
:103A100010929101AECF4699BFCF479ABECF8FEF9C
:103A20009FEFDC01CBCF9C01E1E7F0E090819D7F2F
:103A3000908310928F01E6E0F6E0F0938E01E09320
:103A40008D01F0938B01E0938A013183208373838E
:103A5000628380E090E8958384830C946B1C0F93C1
:103A60000AEF0E946A180F9108950F930BEF0E94BE
:103A70006A180F9108955E9A0895BC0190E080E065
:103A80000C949F1B43B18FB129B190E08095909524
:103A900034E0959587953A95E1F7887030E0209568
:103AA000309553E0359527955A95E1F72370822B91
:103AB000942F9095907D892B089583B7817F83BF44
:103AC00083B7816083BF889583B78E7F83BF089556
:103AD0008EBD00000DB407FEFDCF08951092870142
:103AE000259825980895259A259A81E08093870145
:103AF000089510921401109213018CE190E09093BC
:103B00007A018093790110927C0110927D011092CC
:103B10007E0110927F0188EE93E0A0E0B0E08093F8
:103B2000800190938101A0938201B093830180E88A
:103B300090E0909377018093760110927B01109230
:103B4000780187E080939F01089586E080939F012C
:103B50000895089520E04FE55AE070E060E080E1CC
:103B600090E00E942F1D20E04DE758E069E170E0F1
:103B70008FE090E00E942F1D81E10E94E2198823CE
:103B800019F081E080939F01089581E10E94E2197C
:103B9000882319F081E080939F010895CF93C0910D
:103BA0006B01CF5FC0936B0120E04FE855E064E00C
:103BB00070E082E290E00E942F1DC53B28F0109239
:103BC0006B0181E080939F01CF910895EF92FF9266
:103BD0000F931F93CF93DF938091190690911A064C
:103BE00083709927892B29F4809185018F5F8093B9
:103BF0008501E0918501809186010091130110916A
:103C00001401882399F110928401EF3020F5F0E03F
:103C1000E55CFE4F808190E090937A01809379017A
:103C2000C0917901D0917A0128E04DEB50E0BE01BE
:103C3000C8010E94351DBE016A5F7F4F21E04CEA3A
:103C400050E0C8010C96DF91CF911F910F91FF902A
:103C5000EF900C942F1D8CE190E090937A0180936B
:103C600079011092860110928501DACF809184014A
:103C7000882339F1EF30D0F486E290E090937A0116
:103C800080937901C0917901D0917A0129E04DEBBF
:103C900050E0BE01C8010E94351DBE016B5F7F4F21
:103CA00021E04CEA50E0C8010A96CDCF8CE190E0CB
:103CB00090937A018093790110928401109285018A
:103CC000E1CFE83010F010928501C0918501E090BD
:103CD0007901F0907A012C2F4DEB50E0B701C8012B
:103CE0000E94351D2C2F30E0F901E75CFE4FD90111
:103CF000A15DBE4F6C916E0D7F2D711D2B5D3E4FF2
:103D0000D9018C9120814CEA50E0800F912F911DB8
:103D10009ACFCF93DF93C82FD62F0E943B1D88ECFC
:103D200090E00E943D1D5E9882E090E00E94782B1A
:103D3000D81729F06D2F82E090E00E94802B84EF4D
:103D400091E00E943D1D0E943B1D0E94421D8C235C
:103D5000C817D9F3DF91CF910895CF92DF92EF92F8
:103D6000FF926B017C01C114D104E104F10441F024
:103D70000E94DF2AA70196010E948E2B6B017C0115
:103D8000C701B601FF90EF90DF90CF9008950F9399
:103D90001F93CF93DF93082FC62F80911906909120
:103DA0001A0683709927892B41F468E170E080E05E
:103DB00090E00E94AD1E60936A01D0E010E0BE0169
:103DC0006E5D7F4F20E049E555E0C8010E942F1D40
:103DD000BE016E5E7F4F20916A0147E054E0C8014A
:103DE0000496DF91CF911F910F910C942F1D20E02D
:103DF00049E15EE264E070E083E290E00E942F1D02
:103E000068E088E30E94C71E8AE40E94E2198823C2
:103E100019F087E080939F0108950F931F93CF932C
:103E2000DF9310927A011092790180911906909196
:103E30001A0683709927892B49F480911301909178
:103E4000140104969093140180931301809113013F
:103E5000909114018038910564F081E89FEF909370
:103E600014018093130180916C0191E08927809364
:103E70006C0120E04FE55AE070E060E080E190E006
:103E80000E942F1D20E04BEF57E06AE170E081E3D4
:103E900090E00E942F1D2091870149ED57E062E3D9
:103EA00070E089E590E00E942F1D60910001625E44
:103EB000660F660F660F8DE10E94C71E0AE110E0D3
:103EC000D2E0C0910001DC1781F020E047EB57E021
:103ED000B80181E390E00E94351D20E047EB57E0F8
:103EE000B80182E590E00E94351DDF5F085F1F4F3B
:103EF000D63039F780916C01882369F020E045E3E2
:103F000057E06EEF7FEF80911301909114010E94B2
:103F10002F1D0E94E61D88E00E94E219882331F0DF
:103F2000C33020F0C150C09300010CC082E00E9459
:103F3000E219882311F0C53050F081E10E94E219A6
:103F4000811107C0DF91CF911F910F910895CF5F2D
:103F5000EACFC53019F0C0939F01F4CF809187015B
:103F6000882399F00E946E1DC091870182E090E045
:103F70000E94782BC81731F36C2F82E090E0DF911C
:103F8000CF911F910F910C94802B0E94731DECCF49
:103F90004F925F926F927F928F929F92AF92BF9259
:103FA000CF92DF92EF92FF920F931F93CF93DF9305
:103FB000CDB7DEB728970FB6F894DEBF0FBECDBFE2
:103FC0008C017B0120E045EA5BE00E942F1D60919F
:103FD0007C0170917D0180917E0190917F012AE0AA
:103FE000AE014F5F5F4F6A010E94372BF6010190CF
:103FF0000020E9F73197EC19FD09AE2E88E0582E24
:104000005E1AB12C045E1F4F652C052C000C77083E
:1040100047015FEF851A950A95E0492EB6141704FB
:104020004CF1852D95E08902000D111D1124912C74
:104030000A2C000CBB08EFEFEE1AFE0A85E0882E72
:10404000892D90E08A159B0524F58C0D9D1DFC01A2
:1040500020812133E4F020532A30C8F44BE75BE0A1
:10406000B701C801989C800D911D11240E942F1D3D
:104070009394E6CF20E04BE75BE0B401C801B49C29
:10408000800D911D11240E942F1DB394C7CF20E0F5
:10409000E5CF28960FB6F894DEBF0FBECDBFDF91F7
:1040A000CF911F910F91FF90EF90DF90CF90BF9035
:1040B000AF909F908F907F906F905F904F900895FA
:1040C00020E04BE85EE260E170E08FE190E00E946A
:1040D0002F1D6CE270E08BE190E00E94C81F81E12F
:1040E0000E94E219882319F081E080939F010895CE
:1040F0004F925F926F927F928F929F92AF92BF92F8
:10410000CF92DF92EF92FF920F931F93CF93DF93A3
:104110008091190690911A0663E070E00E94F12BDD
:10412000892B91F480916E0190916F01019790938A
:104130006F0180936E0180910201909103010197BC
:10414000909303018093020180916E0190916F0121
:1041500081389F4F74F480E890E090936F018093D2
:104160006E0162E070E080E090E00E94AD1E60931E
:104170006D01809102019091030181389F4F94F469
:1041800080E890E0909303018093020164E070E086
:1041900080E090E00E94AD1E6F5F7F4F8F4F9F4F7A
:1041A00060930101C0916D01CC0F00916E011091DF
:1041B0006F012C2F41EC5BE070E060E0C8010E94D1
:1041C0002F1D21E02C0F41EC5BE070E060E0C801A6
:1041D000805C9F4F0E942F1DC0910101CC0F009168
:1041E0000201109103012C2F41EC5BE070E060E0D4
:1041F000C8010E942F1D21E02C0F41EC5BE070E014
:1042000060E0C801805C9F4F0E942F1DA09071014B
:10421000B090720185010150110910937201009351
:104220007101E0900501F0900601670181E0C81A74
:10423000D108D0920601C0920501C0917001CC0F47
:104240004C2F63E47DE1C8010E940D1A41E04C0F40
:1042500063E47DE1C501CF960E940D1AC09104016F
:10426000CC0F4C2F63E47DE1C6010E940D1A41E0A2
:104270004C0F63E47DE1C701CF960E940D1A01380F
:104280001F4F74F480E890E0909372018093710165
:1042900063E070E080E090E00E94AD1E60937001EA
:1042A000809105019091060181389F4F94F480E838
:1042B00090E0909306018093050163E070E080E058
:1042C00090E00E94AD1E6E5F7F4F8F4F9F4F6093B7
:1042D0000401C0917801C0FF09C040E061E279E2C9
:1042E0008091090190910A010E940D1AC1FF09C035
:1042F00040E061E279E280910B0190910C010E9413
:104300000D1AC2FF0CC02091750147E857E260E129
:1043100070E080910D0190910E010E94351DC3FF48
:104320000CC02091750147E857E260E170E0809190
:104330000F01909110010E94351DC5FF0CC0209106
:10434000740145E457E264E070E0809111019091BE
:1043500012010E94351D0E94E61D80910701909177
:1043600008018038910541F463E070E080E090E05E
:104370000E94AD1E60937301C0910701D0910801A6
:104380002091730143E659E26CEF7FEFCE010E946A
:10439000351D8091190690911A0680FD05C024975D
:1043A000D0930801C09307012091070130910801C3
:1043B00021303F4F34F420E830E03093080120935F
:1043C000070120917B0168E070E0621B7109660FB4
:1043D00070E00E94F12B892B49F480917601909135
:1043E0007701019790937701809376010091760190
:1043F00010917701003411052CF4809178018062CE
:104400008093780120E040E05EE264E370E082E0C7
:1044100090E00E942F1DC0E08C2F90E00817190734
:104420004CF020E04DEF5DE26DE370E00E942F1D47
:10443000CF5FF2CF64E370E08BE390E00E94C81F8F
:104440008091090190910A01029790930A0180934B
:10445000090181389F4FBCF462E070E080E090E099
:104460000E94AD1E20917801672B682B692B09F4FF
:1044700007C2822F81608093780180E890E090935A
:104480000A018093090180910B0190910C01029720
:1044900090930C0180930B0181389F4FBCF462E034
:1044A00070E080E090E00E94AD1E20917801672BC3
:1044B000682B692B09F4E7C1822F82608093780111
:1044C00080E890E090930C0180930B0180910D01A6
:1044D00090910E01029790930E0180930D01813807
:1044E0009F4FBCF462E070E080E090E00E94AD1E5F
:1044F00020917801672B682B692B09F4C7C1822FA3
:1045000084608093780180E890E090930E0180931E
:104510000D0180910F01909110010297909310016D
:1045200080930F0181389F4F0CF562E070E080E0CE
:1045300090E00E94AD1E20917801672B682B692BBB
:1045400009F4A7C1822F8860809378018091780157
:10455000982F9A709A3021F498E0892780937801F7
:1045600080E890E09093100180930F018091780192
:1045700085FF17C02091110130911201225031099D
:104580003093120120931101283E3F4F54F490E2E2
:1045900089278093780180E890E0909312018093BE
:1045A00011018091190690911A0666E070E00E9450
:1045B000F12B892B59F4809175018F5F80937501E0
:1045C0008091740191E08927809374018091750135
:1045D000883010F0109275018090760190907701EC
:1045E00097FE09C089E080939F0168EE73E080E048
:1045F00090E00E949F1BC0911301D09114017E0195
:1046000028E0E20EF11C0091790110917A01A0904E
:104610000B01B0900C01C0900D01D0900E01609084
:104620000F01709010014090110150901201809183
:10463000780180FF22C08091090190910A01AC01AC
:104640004E5F5F4F9E012E5E3F4F42175307ACF403
:104650000D96E816F9068CF4C80143974F9768F455
:1046600044E0841A9108909277018092760164E682
:1046700070E08FEA90E00E94131D8091780181FF25
:1046800021C09E012E5E3F4FC501029682179307FF
:10469000CCF48DE0A80EB11CEA14FB049CF4C80114
:1046A00043974F9778F48091760190917701049722
:1046B000909377018093760164E670E08FEA90E052
:1046C0000E94131D8091780182FF21C09E012E5E01
:1046D0003F4FC601029682179307CCF49EE0C90EA5
:1046E000D11CEC14FD049CF4C8010196879778F462
:1046F0008091760190917701029790937701809352
:10470000760162E370E08BE092E00E94131D8091DD
:10471000780183FF21C09E012E5E3F4FC3010296A8
:1047200082179307CCF42EE0620E711CE614F70496
:104730009CF4C8010196879778F480917601909156
:1047400077010297909377018093760162E370E09E
:104750008BE092E00E94131D8091780185FF3AC0A2
:10476000629692012E5F3F4F2C173D079CF54EE05D
:10477000440E511CE414F5046CF5015F1F4F0F311A
:10478000110540F540917C0150917D0160917E01C1
:1047900070917F0190E289278093780180E890E012
:1047A0009093120180931101909377018093760189
:1047B0004C505E4F6F4F7F4F40937C0150937D0173
:1047C00060937E0170937F0168EC70E08EEE92E062
:1047D0000E94131D409180015091810160918201DE
:1047E0007091830180917C0190917D01A0917E0167
:1047F000B0917F01481759076A077B07B0F42091F1
:104800007B012F5F20937B0148515C4F6F4F7F4F9F
:1048100040938001509381016093820170938301E2
:10482000283018F027E020937B010196A11DB11DCF
:1048300080937C0190937D01A0937E01B0937F01D2
:1048400081E00E94E219882339F18091860181116B
:1048500006C081E08093860188E080938501DF9126
:10486000CF911F910F91FF90EF90DF90CF90BF906D
:10487000AF909F908F907F906F905F904F90089532
:10488000822F8E7FF8CD822F8D7F18CE822F8B7F47
:1048900038CE822F877F58CE80E90E94E219882384
:1048A00069F0809184018111DACF809186018111B4
:1048B000D6CF81E08093840189E0CFCF8AE40E9443
:1048C000E219882361F288E080939F01C8CF1F928C
:1048D0000F920FB60F9211248F939F938091E10056
:1048E0009091E100937F9093E10083FF0FC01092BD
:1048F000E90091E09093EB001092EC0092E390932A
:10490000ED001092B50198E09093F00082FF22C074
:1049100093E09093E9009091F200992319F09AE3C3
:104920009093E8009091A601992341F09091A601FF
:1049300091509093A601911101C05D9A9091B4019C
:10494000992341F09091B40191509093B401911149
:1049500001C0289A84FF18C08091E2008E7E816099
:104960008093E2008091E1008F7E8093E10080914E
:10497000A7018E7E80618093A7019F918F910F90F8
:104980000FBE0F901F90189580FFF7CF8091E20027
:104990008E7E80618093E2008091E1008E7E809324
:1049A000E1008091A7018E7E8160E5CF1F920F927A
:1049B0000FB60F921124CF92DF92EF92FF920F93D6
:1049C0001F932F933F934F935F936F937F938F9397
:1049D0009F93AF93BF93EF93FF93CF93DF93CDB7A5
:1049E000DEB76C97DEBFCDBF1092E9008091E80082
:1049F00083FF25C068E0CE0145960E946C1B82EFC4
:104A00008093E8008D8987FF39C09091E80090FF7E
:104A1000FCCF982F907609F034C19E894F89588D2C
:104A20002F89F88C911131C0803861F58091A501F2
:104A30008093F1001092F1008EEF8093E8006C9665
:104A40000FB6F894DEBF0FBECDBFDF91CF91FF91BF
:104A5000EF91BF91AF919F918F917F916F915F91F6
:104A60004F913F912F911F910F91FF90EF90DF9009
:104A7000CF900F900FBE0F901F9018959EEF9093C0
:104A8000E800C7CF1092F100D5CF913059F48111D1
:104A9000D3CF4130510581F68091A5018D7F809360
:104AA000A501CACF933049F48111C6CF41305105D9
:104AB00019F68091A5018260F2CF953041F4809182
:104AC000E80080FFFCCF20682093E300B5CF96304C
:104AD00009F0A9C00B8D1C8D22E01092E900109204
:104AE000A3011092A201F2122EC01092A101109205
:104AF000A0010E943B1B1F8299E09983FA8291E0FA
:104B00009E8390EA98879AEF99872091A20130912D
:104B1000A301275F3F4F3C832B838D831092E900D5
:104B20001092A3011092A2011093A1010093A00181
:104B300049E050E0BE016F5F7F4F80E00E94151B8F
:104B40000E943B1B79CF1093A1010093A0010E940A
:104B5000521ADC0112960D911C910115110509F4F0
:104B600051C1D801ED91FC910480F581E02DBE0189
:104B70006B5E7F4FC8010995009709F03EC1F801AF
:104B800000851185EACFF3E0FF120EC08F898823DC
:104B900009F440C0823061F440E867E080E790E3C8
:104BA0000E94B327811148CF81E28093EB0047CF69
:104BB000813029F440E86BE084E690E3F1CF833064
:104BC00099F70E94521ADC011296ED90FC908E012A
:104BD0000F5F1F4F6801E114F10479F0D701ED91E7
:104BE000FC910680F781E02DB801C7010995080FF7
:104BF000111DF701E084F184EECFD8011C92F6017B
:104C000001900020E9F73197BF016C197D0940E060
:104C1000C601C6CF6EE470E3FB01449150E080E82A
:104C20000E94151B09CF973009F4BECF983021F4AC
:104C300081E08093F10000CF993009F0FDCE8370C0
:104C400009F0B2CFEBE4F1E081E031E096E32191AD
:104C5000222371F08093E9003093EB00DF0111977C
:104C60002C912093EC009093ED008F5F873079F7C3
:104C70008EE78093EA001092EA008F898093B50155
:104C8000DBCE8B8D9C8D1092E9001092A3011092C7
:104C9000A2019093A1018093A001898D811192C0FE
:104CA0008E899D89913A49F4813209F07DCF47E0A0
:104CB00050E069E171E080E0B3CF913209F074CF48
:104CC000833269F48F89988DB0E0A0E0809315015C
:104CD00090931601A0931701B0931801ADCE8032C6
:104CE00069F48091E80082FFFCCF67E089E191E000
:104CF0000E946C1B8BEF8093E8009ECE823209F0FD
:104D00009BCE8F8980932001EEEFFFE785919491F0
:104D10008B3F9C4D51F1E0E0F8E0809119019091BA
:104D20001A01A0911B01B0911C01803B9440A10588
:104D3000B105F1F48091200180FD1AC0EE3F8AE0B8
:104D4000F80789F587E797E7918380838091600072
:104D50008093A40188E19BE00FB6F894A895809316
:104D600060000FBE9093600067CEEEEFFAE0D5CF03
:104D7000808191818737974709F05ECEA895809111
:104D800060008861809360008091A401809360003E
:104D9000EE3F2AE0F20789F08091FE0A9091FF0A27
:104DA0009183808349CE808191818737980751F222
:104DB0009093FF0A8093FE0AC5CF1092FF0A1092CB
:104DC000FE0A3ACE0E94521ADC0112960D911C91F5
:104DD0000115110509F4E8CED801ED91FC9101907F
:104DE000F081E02DBE016B5E7F4FC80109958111F6
:104DF00023CEF80100851185EBCF181619060CF4A7
:104E00001BCED2CEF1E0FF12BECE62E570E304CF3E
:104E10001F920F920FB60F9211242F933F938F93EF
:104E20009F93AF93BF9380919B0190919C01A09120
:104E30009D01B0919E013091960123E0230F2D3703
:104E400058F50196A11DB11D2093960180939B01F9
:104E500090939C01A0939D01B0939E018091970136
:104E600090919801A0919901B0919A010196A11D8C
:104E7000B11D8093970190939801A0939901B093ED
:104E80009A01BF91AF919F918F913F912F910F9078
:104E90000FBE0F901F90189526E8230F0296A11DB4
:104EA000B11DD2CF1F920F920FB60F9211242F93E4
:104EB0003F934F935F936F937F938F939F93AF93A2
:104EC000BF93EF93FF938091920190919301A091F2
:104ED0009401B0919501892B8A2B8B2B09F440C04A
:104EE0008091910181110BC088B190E4892788B924
:104EF00080919001882319F088B1805888B98091F9
:104F0000920190919301A0919401B091950118168E
:104F100019061A061B069CF4809192019091930148
:104F2000A0919401B09195010197A109B1098093D5
:104F3000920190939301A0939401B0939501FF91F6
:104F4000EF91BF91AF919F918F917F916F915F9101
:104F50004F913F912F910F900FBE0F901F9018957A
:104F60000E946B1CECCFEF92FF920F931F93CF9395
:104F7000DF93F82E192FE62E042F81E0860F880F7D
:104F80000E94E71A83E00E94E71ACF2DD12FEC0E82
:104F9000FD2EF11CCE15DF05B9F007FF13C0FE0191
:104FA00084910E94E71A182F80E00E94E71A81235B
:104FB00021968111EFCFDF91CF911F910F91FF903B
:104FC000EF9008958881EDCF81E0F5CFE6EBF5E035
:104FD0001382128288EE93E0A0E0B0E08483958390
:104FE000A683B78385E591E0918380838FEF9FEF60
:104FF00095878487E6E1F6E027E631E03183208378
:105000001582168220E12783948383831486158674
:1050100016861786108A87E698E190931506809386
:10502000140680E090E89093130680931206469849
:105030003E9A47983F9A0895789484B5826084BDDB
:1050400084B5816084BD85B5826085BD85B581608C
:1050500085BD80916E00816080936E00109281000A
:1050600080918100826080938100809181008160C5
:105070008093810080918000816080938000809186
:105080009100826080939100809191008160809373
:105090009100809190008160809390008091C10088
:1050A00084608093C1008091C10082608093C100C0
:1050B0008091C10081608093C1008091C3008160B4
:1050C0008093C3008091C00082608093C000809173
:1050D000C20081608093C20080917A0084608093D6
:1050E0007A0080917A00826080937A0080917A00C1
:1050F000816080937A0080917A00806880937A0042
:105100001092B5011092A5011092A7018091D700CD
:1051100081608093D70080EA8093D80089B5806150
:1051200089BD89B5826089BD09B400FEFDCF61E00B
:1051300070E080E090E00E949F1B8091D8008F7CFF
:1051400080618093D8008091E000807F8093E000B0
:105150008091E1008E7E8093E1008DE08093E200FB
:10516000559A209A68E873E180E090E00E949F1BC6
:1051700081EC80937C0085B1886485B9239884B1E3
:10518000866484B9589A899880B3836180BB8F9A6A
:1051900085B1806D85B98BB188618BB9879A84B1EF
:1051A0008F6284B98AB1876E8AB92D9A84B18F6D66
:1051B00084B98EB18F6B8EB98DB18F6B8DB9259AF5
:1051C000259A80E58CBD81E08DBD85E090E00E9450
:1051D0003D1D899A85E090E00E943D1D88988C983D
:1051E000CBEEDFE208EF1FE2FE0184910E94681D12
:1051F00021960C171D07C1F78C9A81E880936400F3
:1052000081E080936500C0E0D4E080E00E94681DEA
:105210002197D9F70E94421D83FF10C08C9885EA20
:105220000E94681D8C9A5E985E985E9880916400DA
:105230008062809364000E945D1DFDCF0E94421D2C
:1052400080FF16C05E980E94421D8970893019F453
:105250006FEF0E94891E0E94421D8370833019F4F3
:1052600060E00E94891E88EC90E00E943D1DE6CF20
:105270000E943B1D82E090E00E94782B882309F475
:1052800069C00E94731D5E98CEEEDFEF08E010E06B
:105290000E94421D86FF61C05E9A5E9A0E943B1D7D
:1052A00082E390E00E943D1D0E94421D8111F8CFD3
:1052B00080E180931D06809164008E7F809364005E
:1052C00080917A00806480937A0080917A0086FDD4
:1052D000FCCFC0917800D09179000E947A1BAB017D
:1052E000BC01CE01B0E0A0E0DC01992788278C0149
:1052F0009D01040F151F261F371FC901B801611535
:1053000071058105910511F00E942E2B809164009A
:10531000816080936400C0E0D0E011E02FB7F89482
:1053200080919B0190919C01A0919D01B0919E0163
:105330002FBF20912606222309F4A8C020911E0623
:10534000821B8093270610922606209739F30E942D
:105350000000E4CF0E946E1D96CFCC3FFFEFDF0729
:1053600021F40E943B1D5E9803C0C831D105C9F3EA
:105370000E94ED19C03F2FEFD2070CF46DC09E01C3
:10538000D7FF04C0222733272C1B3D0B2770332760
:10539000CE01D7FD079653E0959587955A95E1F78D
:1053A000D7FF05C00197A801421B530B9A01BC010E
:1053B0007695762F6627779567956A547E4FB0E08D
:1053C000A0E04801821A930A8F3F5FEF95070CF423
:1053D0003AC050E040E0FD01E55CF04D7F015B012B
:1053E000F0E8AF0EB11C8F3F980791F0F701E40F82
:1053F000F51FE4916B01C40ED51EF0E03F01022EB3
:1054000001C0660C0A94EAF7F60174886728648A7A
:105410002115310599F0F701E40FF51FE4916501BD
:10542000C40ED51EF0E03F01082C02C075946794AD
:105430000A94E2F7F60174886728648A4F5F5F4F29
:105440004835510581F60196A85ABF4F60587F4FE5
:10545000A03BB10509F0B8CF0E94FA198BE190E0AA
:105460000E943D1DC03FFFEFDF0721F48AEF90E06F
:105470000E943D1D2196C931D10509F009CF8CEB61
:1054800092E00E943D1D0E943B1D0ACF40912206E2
:105490005091230660912406709125068417950784
:1054A000A607B70738F4481B423008F44ECF0E94D5
:1054B0005D1D4BCF1093260680931E0690931F060A
:1054C000A0932006B093210620911D06820F911D06
:1054D000A11DB11D8093220690932306A09324065C
:1054E000B09325068091190690911A060196909323
:1054F0001A068093190680911B0680931C060E9451
:10550000421D80931B060E94ED19E0919F01F0E07F
:10551000EE0FFF1FE850F04D85919491FC01099525
:105520000E94FA1912CF8F929F92AF92BF92CF92A0
:10553000DF92EF92FF92CF93DF93EC016881798144
:105540008A819B81611571058105910521F464E2D1
:1055500079ED8BE597E02DE133EF41E050E00E94DB
:105560008E2B49015A019B01AC01A7EAB1E40E94CC
:10557000AD2B6B017C01ACEEB4EFA50194010E9450
:10558000BB2BC60ED71EE81EF91EF7FE06C081E033
:10559000C81AD108E10880E8F80AC882D982EA82EC
:1055A000FB82C701B6019F77DF91CF91FF90EF900B
:1055B000DF90CF90BF90AF909F908F9008958F9283
:1055C0009F92AF92BF92CF92DF92EF92FF92609143
:1055D0002101709122018091230190912401611594
:1055E00071058105910521F464E279ED8BE597E081
:1055F0002DE133EF41E050E00E948E2B49015A012A
:105600009B01AC01A7EAB1E40E94AD2B6B017C01C8
:10561000ACEEB4EFA50194010E94BB2BC60ED71EC1
:10562000E81EF91EF7FE06C081E0C81AD108E1089D
:1056300080E8F80AC0922101D0922201E092230171
:10564000F0922401C701B6019F77FF90EF90DF90A1
:10565000CF90BF90AF909F908F900895609321015D
:105660007093220180932301909324010895BB2716
:105670002A3051F4992342F4BDE2909580957095BB
:1056800061957F4F8F4F9F4F0C94472BBB27FA019B
:10569000A62F6217710581059105330B30FB66F06B
:1056A000AA27660F771F881F991FAA1FA21710F03D
:1056B000A21B63953850A9F7A05DAA3308F0A95D35
:1056C000A19336F7B111B1931082CA010C94682BE3
:1056D000DC01FC01672F71917723E1F7329704C059
:1056E0007C916D9370836291AE17BF07C8F30895E4
:1056F000F999FECF92BD81BDF89A992780B508959A
:10570000262FF999FECF1FBA92BD81BD20BD0FB6DD
:10571000F894FA9AF99A0FBE01960895052E97FB10
:105720001EF400940E94A52B57FD07D00E94C02BA9
:1057300007FC03D04EF40C94A52B50954095309562
:1057400021953F4F4F4F5F4F0895909580957095ED
:1057500061957F4F8F4F9F4F08950E94E22BA59F29
:10576000900DB49F900DA49F800D911D112408955C
:10577000B7FF0C94AD2B0E94AD2B821B930B0895A9
:10578000A1E21A2EAA1BBB1BFD010DC0AA1FBB1F45
:10579000EE1FFF1FA217B307E407F50720F0A21BB7
:1057A000B30BE40BF50B661F771F881F991F1A9424
:1057B00069F760957095809590959B01AC01BD014E
:1057C000CF010895A29FB001B39FC001A39F700DA8
:1057D000811D1124911DB29F700D811D1124911DF9
:1057E0000895AA1BBB1B51E107C0AA1FBB1FA61728
:1057F000B70710F0A61BB70B881F991F5A95A9F77A
:1058000080959095BC01CD010895EE0FFF1F059086
:0A581000F491E02D0994F894FFCF05
:10581A00030180000180008000C0FF60003000802A
:10582A0000800081FFFFFFFFFF00E1000000000091
:10583A0000010000000E0E0E0E101014120C0A07C2
:10584A000809080708090806050000000001010206
:10585A00020101130D0806080D1300C18081000022
:10586A000000000000661AD21B871A7C1ACD1A8B18
:0A587A001AA91A00000000791B00B3
:00000001FF
