:100000000C9443070C946B070C946B070C946B07D0
:100010000C946B070C946B070C946B070C946B0798
:100020000C946B070C946B070C94971E0C94061F92
:100030000C946B070C946B070C946B070C946B0778
:100040000C946B070C94DA210C946B070C946B07DF
:100050000C946B070C946B070C946B070C94382171
:100060000C946B070C946B070C946B070C946B0748
:100070000C946B070C946B070C946B070C946B0738
:100080000C9482210C946B070C946B070C946B07F7
:100090000C946B070C946B070C946B070C946B0718
:1000A0000C946B070C946B070C946B070010F1E435
:1000B000FF0020E3D3E3D3C585FF00000000003E2E
:1000C0005B4F5B3E3E6B4F6B3E1C3E7C3E1C183CC8
:1000D0007E3C181C577D571C1C5E7F5E1C00183C24
:1000E0001800FFE7C3E7FF0018241800FFE7DBE76D
:1000F000FF30483A060E2629792926407F05050754
:10010000407F05253F5A3CE73C5A7F3E1C1C0808AF
:100110001C1C3E7F14227F22145F5F005F5F060974
:100120007F017F006689956A606060606094A2FFCD
:10013000A29408047E040810207E201008082A1CBF
:1001400008081C2A08081E101010100C1E0C1E0C8B
:1001500030383E3830060E3E0E060000000000002B
:10016000005F00000007000700147F147F14242A9A
:100170007F2A12231308646236495620500008076C
:100180000300001C2241000041221C002A1C7F1C8D
:100190002A08083E0808008070300008080808088F
:1001A000000060600020100804023E5149453E00F6
:1001B000427F400072494949462141494D33181454
:1001C000127F1027454545393C4A494931412111A3
:1001D00009073649494936464949291E0000140095
:1001E00000004034000000081422411414141414B8
:1001F000004122140802015909063E415D594E7C16
:100200001211127C7F494949363E414141227F41CA
:1002100041413E7F494949417F090909013E414128
:1002200051737F0808087F00417F41002040413F13
:10023000017F081422417F404040407F021C027F22
:100240007F0408107F3E4141413E7F090909063E77
:100250004151215E7F091929462649494932030146
:100260007F01033F4040403F1F2040201F3F403858
:10027000403F631408146303047804036159494D33
:1002800043007F4141410204081020004141417F69
:1002900004020102044040404040000307080020DF
:1002A000545478407F2844443838444444283844DF
:1002B00044287F385454541800087E090218A4A416
:1002C0009C787F0804047800447D40002040403D35
:1002D000007F1028440000417F40007C04780478AF
:1002E0007C080404783844444438FC182424181842
:1002F000242418FC7C08040408485454542404049E
:100300003F44243C4040207C1C2040201C3C40308A
:10031000403C44281028444C9090907C4464544CB9
:100320004400083641000000770000004136080014
:1003300002010204023C2623263C1EA1A161123ABE
:100340004040207A3854545559215555794121540B
:10035000547841215554784020545579400C1E5210
:1003600072123955555559395454545939555454B4
:10037000580000457C410002457D420001457C401B
:10038000F0292429F0F0282528F07C545545002038
:1003900054547C547C0A097F4932494949323248D5
:1003A000484832324A4848303A4141217A3A42403C
:1003B0002078009DA0A07D39444444393D40404010
:1003C0003D3C24FF2424487E4943662B2FFC2F2BE1
:1003D000FF0929F620C0887E090320545479410082
:1003E00000447D413048484A32384040227A007A01
:1003F0000A0A727D0D19317D2629292F28262929DF
:10040000292630484D402038080808080808080800
:10041000382F10C8ACBA2F102834FA00007B000027
:1004200008142A142222142A14089500220095AADE
:10043000005500AAAA55AA55AA000000FF001010F6
:1004400010FF00141414FF001010FF00FF1010F034
:1004500010F0141414FC001414F700FF0000FF0047
:10046000FF1414F404FC141417101F10101F101F95
:100470001414141F00101010F0000000001F1010C2
:1004800010101F10101010F010000000FF101010BE
:10049000101010101010FF10000000FF140000FFDB
:1004A00000FF00001F10170000FC04F414141710C4
:1004B000171414F404F40000FF00F71414141414B7
:1004C0001414F700F7141414171410101F101F142D
:1004D0001414F4141010F010F000001F101F00008E
:1004E000001F14000000FC140000F010F01010FFBA
:1004F00010FF141414FF141010101F00000000F05F
:1005000010FFFFFFFFFFF0F0F0F0F0FFFFFF000033
:10051000000000FFFF0F0F0F0F0F38444438447CDA
:100520002A2A3E147E02020606027E027E026355DD
:100530004941633844443C04407E201E2006027E2C
:10054000020299A5E7A5991C2A492A1C4C7201723E
:100550004C304A4D4D303048784830BC625A463DA8
:100560003E494949007E0101017E2A2A2A2A2A445D
:10057000445F444440514A444040444A5140000092
:10058000FF0103E080FF000008086B6B083612369D
:100590002436060F090F060000181800000010107E
:1005A000003040FF0101001F01011E00191D17123C
:1005B000003C3C3C3C000000000006011501260107
:1005C00037014A015D01720188019F01B801D20122
:1005D000EE010B022A024B026E029302BA02E402FF
:1005E00010033F037003A403DC03170455049704AE
:1005F000DD0427057505C80520067D06E0064907C8
:10060000B8072D08A9082D09B9094D0AEA0A900B67
:10061000400CFA0CC00D910E6F0F5A1053115B1263
:1006200072139A14D41520178018F519801B231DF6
:10063000DE1EB420A622B524E4263429A72B402EA2
:100640000031EA330037453ABC3D68414C456B49BF
:10065000C84D68524F57805C006210111213151676
:1006600017181A1C1D1F21232527292C2E3134373A
:100670003A3E4145494E52575C62686E757B838BAA
:10068000939CA5AFB9C4D0DCE9F7000000020009D3
:100690000F0000030401000C000000000000000037
:1006A000000000000000000000F0F89C8E878387A7
:1006B0008E9CF8F00000FEFF0303030303070EFC0B
:1006C000F80000FEFF0303030303070EFCF800001D
:1006D000FFFF00000000000000FFFF0000FEFF839E
:1006E00083838383C7EE7C380000F8FC0E07030386
:1006F00003070EFCF800003F7FE0C08080C0E07F71
:100700003FFFFF01010101010101FFFF0000FFFFA9
:100710000C0C0C0C1C3E77E3C100007FFFC0C0C076
:10072000C0C0E0703F1F00001F3F70E0C0C0C0E0CD
:10073000703F1F00007FFFC1C1C1C1C1E3773E1CF4
:1007400000001F3F70E0C0C0C0E0703F1F0000000D
:10075000000001FFFF01000000000000002400274E
:10076000002A002D003000D5F08D14A1C881CFD90A
:10077000F1AF20000B020A02120204020802010279
:10078000150117011601004F6666004F6E00536F8A
:10079000756E643A2000536565643A20200000803D
:1007A0008040404080802040F84020000000000051
:1007B000000000000000C080F080C00000C23E02C7
:1007C000020282020202030181010101FF00000016
:1007D0000000C00E312045444524310E03000000C6
:1007E0008000C00080000000000000000003060838
:1007F00018107FC000000000404040404000000052
:1008000000877810101C070000000000F88C868B11
:10081000838B868CF809090F01010000000000009D
:1008200000000000000000000FF0808080808080C9
:10083000000000000000FF000000000000000000B9
:1008400000000003000000030000000000000000A2
:100850000000000000000000000000000000000098
:100860001E0100000001011F010101010000000044
:100870000000806010080C06020381416121E10143
:1008800001010F060E0830C060202020202020200B
:10089000206040C08080C0202020C00000000000F8
:1008A000C06020C0800080C04040404040C080C048
:1008B0004040C00000000080808080800E1A32E23C
:1008C000C65C700000000000000000000000000096
:1008D0000000030C102060C0800F1D38207867C016
:1008E000C08080808080C0611F0000806020202048
:1008F000E00000000107FC00000007FC800080C051
:100900007F000000FF0F1910180C040CF800010301
:10091000FF60010306F213111010302123FEA30122
:1009200001071CFC860283C1414141C3060C1830FB
:10093000C0000000F01808040F0A1E346C6838006C
:10094000000000000103060C18E000030604040682
:100950000300008080E03F60404080808181818092
:1009600000000000FF0301794949494939000000AE
:10097000FF70C000040FF80000000000000007F83E
:10098000800080F8CF8083060C08080D0700000067
:1009900001FF0000010306040C08181010101010CD
:1009A000101010101010180C0307040C0808080889
:1009B0000C0C181010111E000000000000000001B7
:1009C00002040C0C070102020202020101030E08DC
:1009D000090F0707040701000000000000000000E5
:1009E00003020300000001010101030202020301EE
:1009F00001017B009300AF00DC002601B8014B022F
:100A0000170455049704DD0427052E084E0AB7077E
:100A1000904000E38000E3904000E38000E3903EDC
:100A2000038D80903E00E38000E3903E00E3800071
:100A3000E3903D038D80903E00E38000E3903E0014
:100A4000E38000E3903D038D80903D00E38000E370
:100A5000903D00E38000E3903B038D80F0902F00F9
:100A600055800055902D00AA8000AA902F00AA80E2
:100A70000154903D00AA8000AA903D00AA80903DBC
:100A800000AA80903D00AA80903D00AA80903E0080
:100A9000AA80903B015480F0902F00AA8000AA9079
:100AA0002F00AA80903600AA8000AA903600AA8063
:100AB000903200AA8000AA903200AA80903400AA46
:100AC0008000AA903400AA80903400AA8000AA90E6
:100AD0003400AA8000AAF0546F74616C002B446942
:100AE00073742E0053636F726500FF80003FC3FC78
:100AF00007F80080FFFFE04207FC0FF08083002032
:100B000042044C08108083002442044C88108FF368
:100B1000002442644C88108903232042644C0990CD
:100B20008903232042644C09908903232042644CAA
:100B300009F089132321C2644C390089132327C289
:100B4000040CF9008103232042040C0900810323D3
:100B50002042060C0900FFFFFFFFC3FDF7FF000066
:100B600000000000000000000020D1C1B1A3D1C1ED
:100B7000B1A1FF001021113121FF0010C1B1A191DD
:100B8000FF0810010100000001FE02020202020241
:100B9000FE1F10F010F010101FFEFEFEFEFEFEFE07
:100BA000FE9F1FFF1FFF1F1F9F080801010000007D
:100BB00001003EE222E2223E0000BEFE3EFE3EBEBC
:100BC0000000404141515161617171FF080801010C
:100BD000020101011824EAA1A9F22418183CFEFF21
:100BE000FFFE3C18484947482053434F52450048B0
:100BF0004947482053434F52455300080B00020217
:100C00000200000904000001020200000524001097
:100C10000105240101010424020605240600010740
:100C200005810310004009040100020A00000007CA
:100C3000050202400000070583024000000403098A
:100C40000412010002EF020140412336800001013D
:100C500002030141726475696E6F204C4C43004180
:100C6000726475626F7900101001010302000100C7
:100C700000000000805028060141E222140C088088
:100C80004070282512080E06010100000000000037
:100C90000000000080D0E8FEFF7FFE3E1C0C0880B4
:100CA0004070383D1F0F0F070101000000000008D1
:100CB00008010102020F0184EC7C3F3F7CEC84843C
:100CC000EC7C3F3F7CEC8408080101020201013CFE
:100CD0004281A9A1A9423C3C7EFFFFFFFF7E3C0868
:100CE000080101020103014070CC43C24C70400076
:100CF00038FE3FFF3E38000000FF00FF000000818B
:100D0000818181818181FFFF8181BF818181818199
:100D1000818181818181FFFF8181FD81818181FFCD
:100D200081A58181A581FFFF8185B5959D81FF000A
:100D300000000000FF0000FFA9A9B9A9EFA9FFFF6B
:100D4000FFFFFFFFFFFFFF0014001400140014401A
:100D5000004000400054804480448044804400446B
:100D600000440054004000400040004050A050A00B
:100D700055A051A0552000200020550241024102FB
:100D800041025502100210029500900090001000E0
:100D900015150010001000100015001000100015AF
:100DA00000100010001000150000000000AA0080D4
:100DB00000AA0000000004040404040404FC202031
:100DC0002020F80808080808E8283820203E2222B9
:100DD000E20202FE2020202020E0000000C040406F
:100DE00040784FC90909090F08080808F820202091
:100DF00020F808080CFC000000000000001F0000A4
:100E000000001F00000000000F00000000000000B4
:100E10000F0000000000000000FF01010101FF00C1
:100E20000000003F0000000000000000070000007C
:100E3000003F0000001F0408020110408040102005
:100E40004080408008020401804020100201108090
:100E5000102040402000000000250028002B002E1C
:100E60000031000404040404030405020202020425
:100E70000302020202060606060606040402020235
:100E800004040301452211241FBECFEFDAE0DEBFC8
:100E9000CDBF11E0A0E0B1E0E2E4F5E602C00590CC
:100EA0000D92AE34B107D9F728E0AEE4B1E001C04D
:100EB0001D92A431B207E1F717E0C3E4D7E004C004
:100EC0002197FE010E94A82FC234D107C9F70E94C2
:100ED000D4220C949F320C9400004F925F926F9238
:100EE0007F928F929F92AF92BF92CF92DF92EF92BA
:100EF000FF92CF93DF93EC014A015B0181E0809385
:100F0000AE01712C612C60E072E18AE790E0A301F0
:100F10009E010E94312F69017A0181E0C81AD1082F
:100F2000E108F10891E0C114D10481E0E806F10480
:100F300084F068E478EE81E090E0A3019E010E94D5
:100F4000312F69017A0181E0C81AD108E108F1085E
:100F500093E080918100887F892B809381002FEF1F
:100F60003FEFA90181149104A104B10469F0DE01ED
:100F7000AA0FBB1FA50194010E94502F28EE33E059
:100F800040E050E00E94632FD0928900C092880018
:100F90002093AA013093AB014093AC015093AD0173
:100FA00080916F00826080936F00DF91CF91FF90FE
:100FB000EF90DF90CF90BF90AF909F908F907F90F9
:100FC0006F905F904F9008958EE094E020E0B22FF4
:100FD000B111BFEFFC010024B193B193B193B19370
:100FE0000394D1F708952FB7F89480919F019091C1
:100FF000A001A091A101B091A2012FBF8093F6039F
:101000009093F703A093F803B093F90308950F9317
:101010001F938FB7F89400919F011091A001209128
:10102000A1013091A2018FBF4091F6035091F703C7
:101030006091F8037091F90348535F4F6F4F7F4FF2
:1010400081E0401751076207730708F080E01F91A5
:101050000F910895CF93DF9357FD19C0E8E3F3E0B4
:1010600030E020E0A081B1816A177B07A9F5A28159
:10107000B3814A175B0781F595E0929FF001939F3A
:10108000F00D1124E45CFC4F9081911122C020915D
:10109000CE033091CF0395E0929FF001939FF00D26
:1010A0001124DF01A150BE4FED01C75CDE4F7983F3
:1010B0006883A55CBE4F4D935C93E45CFC4F8083DA
:1010C0002F5F3F4F2E31310579F03093CF032093BE
:1010D000CE03DF91CF9108952F5F3F4F35962E318C
:1010E000310509F0BFCFD3CF1092CF031092CE03BA
:1010F000F0CFEF92FF920F931F93CF93DF938C016A
:10110000EB01AB01BC018BE00E942A0878018FEF54
:10111000E81AF80AAE01B7018CE00E942A08CF5FF6
:10112000D0E0C03160F4AE01B8018FE00E942A081F
:10113000AE01B70180E10E942A082196F2CFDF912B
:10114000CF911F910F91FF90EF900895CF92DF9272
:10115000EF92FF920F931F93CF93DF938C01EB01DC
:101160006B018FEFC81AD80AA601B8018DE00E9462
:101170002A0878018FEFE81AF80AA601B7018EE075
:101180000E942A08AE01B8018FE00E942A08AE0131
:10119000B70180E1DF91CF911F910F91FF90EF9008
:1011A000DF90CF900C942A08FC0180918E01882357
:1011B00011F13FB7F89482E08093E9002091F200AA
:1011C000822F90E01816190614F481E090E088232D
:1011D00039F0289844E640938D014091F100408316
:1011E000222339F02091F200211103C02BE6209335
:1011F000E8003FBF08958FEF9FEF08952FB7F89451
:1012000083E08093E9009091E800892F807295FF38
:1012100004C09091F20080E4891B2FBF0895809153
:10122000850181110DC082E08093810184E080936B
:101230008201109284011092830181E080938501E4
:1012400081E891E00895CF93DF931F92CDB7DEB789
:101250006983DC01ED91FC910280F381E02D41E096
:1012600050E0BE016F5F7F4F09950F90DF91CF91E6
:10127000089583E08093E9008091F200882319F0BB
:101280008AE38093E80008950E94FE0890E00895A4
:10129000CF93DF931F92CDB7DEB7FC018485958590
:1012A00097FD08C02FEF3FEF358724870F90DF9120
:1012B000CF910895CE0101960E94D408019719F4A8
:1012C000898190E0F3CF8FEF9FEFF0CF0F931F93C3
:1012D000CF93DF931F92CDB7DEB78C01FC018485DD
:1012E000958597FF0BC0CE0101960E94D408019707
:1012F00071F4898190E0F80195878487F8018485ED
:1013000095850F90DF91CF911F910F9108958FEFE9
:101310009FEFF1CFFC018485958597FD0BC09FB7AA
:10132000F89482E08093E9008091F2009FBF90E002
:10133000019608959FB7F89482E08093E900809128
:10134000F2009FBF90E0089540917B0150917C0195
:101350002091790130917A0142175307B4F49091AA
:10136000E8009570E1F39091E80092FD19C0809338
:10137000F10080917B0190917C0101968F739927F8
:10138000892B19F48EEF8093E80080917B01909176
:101390007C01019690937C0180937B0181E008950C
:1013A00080E00895EF92FF920F931F93CF93DF9306
:1013B000F82E192FE62E042F81E0860F880F0E9449
:1013C000A40983E00E94A409CF2DD12FEC0EFD2E9D
:1013D000F11CCE15DF05B9F007FF13C0FE018491A3
:1013E0000E94A409182F80E00E94A409812321965D
:1013F0008111EFCFDF91CF911F910F91FF90EF906F
:1014000008958881EDCF81E0F5CFDF92EF92FF92D2
:101410000F931F93CF93DF93D82E8A01EB017B01AB
:10142000E40EF51ECE15DF0559F0D7FE12C0FE0101
:1014300084910E94A40921968111F4CF0FEF1FEF30
:10144000C801DF91CF911F910F91FF90EF90DF9036
:1014500008958881EECF0F931F93CF93DF931F9250
:10146000CDB7DEB782E0898342E450E06BEF7BE0EA
:1014700080E80E94050A0E940F09DC0112960D9176
:101480001C910115110589F0D801ED91FC910280A4
:10149000F381E02DBE016F5F7F4FC801099597FD75
:1014A00004C0F80100851185ECCF89810F90DF9190
:1014B000CF911F910F910895615030F02091F1006C
:1014C000FC0120830196F8CF289884E680938D0153
:1014D0000895EF92FF920F931F93CF93DF938C01A8
:1014E0007B01D0E0C0E0F701EC0FFD1F64916623A3
:1014F00061F0D801ED91FC910190F081E02DC801DF
:101500000995892B11F02196EECFCE01DF91CF9175
:101510001F910F91FF90EF900895AF92BF92CF92DD
:10152000DF92EF92FF920F931F93CF93DF936C01A3
:101530007B018B01040F151FEB015E01AE18BF0884
:10154000C017D10759F06991D601ED91FC91019036
:10155000F081E02DC6010995892B79F7C501DF914E
:10156000CF911F910F91FF90EF90DF90CF90BF90A0
:10157000AF900895282F30E0F901E657F94F949184
:10158000F901EA5CF14F84912D59314FF901249111
:10159000222309F430C09923E9F091509F30D0F410
:1015A000E92FF0E0EA52F54F0C94A82F040B080B3A
:1015B000E50AFC0A000BEA0AEA0AEA0A0B0B110B1D
:1015C000150B190B1F0BEA0A230B909180009F77D4
:1015D00090938000E22FF0E0EE0FFF1FEB5AF14FE7
:1015E000A591B4919FB7F894EC91611132C08095A8
:1015F0008E238C939FBF0895909180009F7DE8CFAC
:1016000090918000977FE4CF94B59F7794BDE2CF0F
:1016100094B59F7DFBCF909190009F779093900021
:10162000D9CF909190009F7DF9CF90919000977FB6
:10163000F5CF9091C0009F779093C000CBCF909151
:10164000C0009F7DF9CF9091C200977F9093C20018
:10165000C1CF8E2BCECFCF93DF9390E0FC01EA5C1D
:10166000F14F24918D59914FFC0184918823C9F049
:1016700090E0880F991FFC01E75AF84FA591B491AB
:10168000FC01EB5AF14FC591D49161110DC09FB788
:10169000F8948C91209582238C9388812823288329
:1016A0009FBFDF91CF910895623051F49FB7F894B6
:1016B0003C91822F809583238C93E8812E2BEFCF52
:1016C0008FB7F894EC912E2B2C938FBFEACF3FB7B6
:1016D000F8948091560190915701A0915801B091D2
:1016E000590126B5A89B05C02F3F19F00196A11DF1
:1016F000B11D3FBFBA2FA92F982F8827BC01CD015C
:10170000620F711D811D911D42E0660F771F881FBA
:10171000991F4A95D1F708958F929F92AF92BF92E9
:10172000CF92DF92EF92FF924B015C010E94670B18
:101730006B017C010E94670B6C197D098E099F0962
:10174000683E734081059105A8F321E0821A910853
:10175000A108B10888EEC80E83E0D81EE11CF11C78
:1017600081149104A104B10429F7FF90EF90DF9058
:10177000CF90BF90AF909F908F9008958F929F923F
:10178000AF92BF92CF92DF92EF92FF920F931F938F
:10179000CF93DF936C017B018A0180910F01882335
:1017A00009F45CC080918E01882309F457C08091B0
:1017B000800180FF05C08091E00082608093E0009E
:1017C000E801B12C8AEFA82E93E0892E2AE3922E0D
:1017D000209711F4BB20D9F10E94FE0881110AC0A4
:1017E000AA94AA20D9F161E070E080E090E00E9424
:1017F0008C0BEECF8C171D0611F00CF08C2F9FB7C1
:10180000F8948092E9002091E80025FD02C09FBF76
:10181000DFCF282F30E0C21BD30BF701815020F01F
:1018200041914093F100FACFE20EF31EBB2021F06C
:101830009092E800B12CEBCF8091E80085FDE7CFD6
:101840009092E800BB24B394209709F3F3CF5D98FE
:1018500084E680937F01101611063CF081E090E051
:10186000F6019383828310E000E0C801DF91CF91FD
:101870001F910F91FF90EF90DF90CF90BF90AF90AE
:101880009F908F90089543B18FB129B190E08095DA
:10189000909534E0959587953A95E1F7887030E01A
:1018A0002095309553E0359527955A95E1F72370AB
:1018B000822B942F9095907D892B0895FC01219186
:1018C0002EBD9C5F21910DB407FEFDCF2EBDE81704
:1018D000F907C1F70DB407FEFDCF0895CF92DF924F
:1018E000EF92FF920F931F93CF93E82FF0E0EE5704
:1018F000F14FC491E62FF0E0603398F5E65AF94FC6
:10190000E4910E2F10E0F12CE12C60E074E284EF02
:1019100090E0A70198010E94312F2150310941091F
:10192000510991E02115310581E0480751056CF01E
:1019300060E970ED83E090E0A70198010E94312FEB
:10194000215031094109510993E0C13089F0C33078
:10195000F9F0CF911F910F91FF90EF90DF90CF9012
:101960000895EE0FFF1FE65AFA4F05911491CBCF61
:1019700080918100887F892B80938100309389003A
:101980002093880080916F00826080936F00E1CF88
:1019900080919100887F892B8093910030939900EA
:1019A00020939800109354010093530181E0809399
:1019B000520180917100826080937100CACFE82F3C
:1019C000F0E0EE57F14FE491E13019F0E33089F0A7
:1019D000089580916F008D7F80936F008091A601A4
:1019E000E091A701F091A8019081809589238083DF
:1019F0000895109252018091A301E091A401F09109
:101A0000A501F2CFCF938091A901823081F0E82F18
:101A1000F0E0EE57F14FC4918F5F8093A90161E030
:101A200089E00E942B0BC13021F0C33021F1CF910E
:101A3000089510928000109281008091810088604A
:101A40008093810080918100816080938100ECE629
:101A5000FEE0E491F0E0EE0FFF1FEB5AF14F8591AD
:101A600094919093A8018093A701EFE3FEE0E491A5
:101A7000E093A601DCCF109290001092910080912B
:101A800091008860809391008091910081608093A3
:101A90009100ECE6FEE0E491F0E0EE0FFF1FEB5A60
:101AA000F14F859194919093A5018093A401EFE368
:101AB000FEE0E491E093A3018091A901882321F045
:101AC0006CE380E00E946E0C80E0CF910C94DF0C00
:101AD000E0915F01F0916001BF016F5F7F4F7093F4
:101AE000600160935F012491922F907F822F8F700D
:101AF000903819F40E94DF0CEBCF903981F43296C4
:101B0000F0936001E0935F01FB0164919091A90162
:101B10008917F0F667FDDCCF0E946E0CD9CF903E9E
:101B200049F48091610190916201909360018093EA
:101B30005F01CECF903F19F410926F01089597FD89
:101B4000C7CF3296F0936001E0935F01FB0164918F
:101B5000A0915301B0915401322F262F0E94852F5E
:101B60006C507E4F8F4F9F4F28EE33E040E050E0A7
:101B70000E94632F20934E0130934F0140935001F8
:101B80005093510180914E0190914F01A0915001CD
:101B9000B0915101892B8A2B8B2B61F481E090E06D
:101BA000A0E0B0E080934E0190934F01A0935001CC
:101BB000B093510108955F926F927F928F929F929E
:101BC000AF92BF92CF92DF92EF92FF920F931F934B
:101BD000CF93DF9310E0F801E60FF71FF7FDBFC0CA
:101BE000603871050CF0BBC0FA01EE0DF11DF7FD78
:101BF000B6C0403451050CF0B2C0DA0157FF04C042
:101C0000AA27BB27A41BB50BA770BB27FA0157FD5A
:101C10003796D3E0F595E795DA95E1F757FF07C0DA
:101C2000319748E050E0EA01CA1BDB0BDE016E2C65
:101C3000669466946694712CDE2DD77019F04FEF80
:101C4000641A740AAF01F695FE2FEE27F795E79513
:101C5000E60FF71F8E0F9F1FE901640E751E28E027
:101C600030E07901EA1AFB0A4615570509F477C0F6
:101C70004830510509F473C04F3FEFEF5E070CF495
:101C800063C030E020E04C01F0E88F0E911C20177B
:101C900031070CF059C0F901E60FF71FE038F105E4
:101CA0000CF052C0F7FD35C04F3F540709F453C044
:101CB0005C01A20EB31EF501D488F901EC0FFD1FE3
:101CC00055245394C51028C0E4910A2E01C0EE0F8C
:101CD0000A94EAF7DE2AF501D48A1097D1F047304A
:101CE0005105B9F05401A20EB31EF501D488F901D3
:101CF000EC0FFD1F55245394C5101AC0E491F0E079
:101D00000E2C02C0F595E7950A94E2F7DE2AF5015C
:101D1000D48A2F5F3F4FBBCFE491F0E00A2E02C080
:101D2000EE0FFF1F0A94E2F7E095F095DE22D3CF85
:101D3000E491F0E00E2C02C0F595E7950A94E2F7E5
:101D4000E095F095DE22E3CF4F5F5F4F80589F4FC5
:101D5000C00FD11F89CF109709F0C4CFDACFDF9120
:101D6000CF911F910F91FF90EF90DF90CF90BF9098
:101D7000AF909F908F907F906F905F9008952F927B
:101D80003F924F925F926F927F928F929F92AF920B
:101D9000BF92CF92EF920F931F93CF93DF93CDB764
:101DA000DEB728970FB6F894DEBF0FBECDBF809187
:101DB000EB039091EC036CE070E00E94942F7A8327
:101DC00069838091E60380FF0EC18091E9039091C1
:101DD000EA0397FD0396959587959595879530E449
:101DE000A32EB12CB5010E94942F4C0129813A8178
:101DF000245031093A83298366277727681B790B9A
:101E0000CC24C39440E1E42E00E426EB3DE049817C
:101E10005A8180910502909106020E94DB0DB50166
:101E20006819790926EB3DE049815A8180910502C4
:101E3000909106020E94DB0D60E870E06819790954
:101E400026EB3DE049815A8180910502909106027E
:101E50000E94DB0DA090E903B090EA03B7FE03C037
:101E600057E0A50EB11CE3E0B594A794EA95E1F71D
:101E70003501F3E0660C771CFA95E1F78091E903F0
:101E80009091EA0397FD079673E0959587957A956B
:101E9000E1F740968A159B050CF480C16091EB0335
:101EA0007091EC037A83698377FF04C0695F7F4F89
:101EB0007A83698389819A8163E0959587956A958C
:101EC000E1F798878F83C501B7FC0F9614E09595CD
:101ED00087951A95E1F763E070E00E94942F9C01CA
:101EE000C50160E170E00E94942F880F991FEF8177
:101EF000F88543E0EE0FFF1F4A95E1F7FA83E98387
:101F0000512C412C55E0220F331F5A95E1F72A52EC
:101F10003D4FA901480F591FBA016D5F7F4F7C8368
:101F20006B83CA0102969E838D838091EB0390910F
:101F3000EC039C0197FF02C0295F3F4FB3E035954A
:101F40002795BA95E1F7285F3F4FEF81F8852E1767
:101F50003F070CF41CC1E131F1050CF087C0389744
:101F60000CF070C041E050E00F8002C0440F551FDC
:101F70000A94E2F7ED81FE812081242309F472C0E6
:101F800089809A80840C951CA401481B590B809170
:101F9000E9039091EA03B301681B790BC12CA8E017
:101FA000EA2E08E02FE33DE08091050290910602C1
:101FB0000E94DB0D8091EB039091EC03A401481B80
:101FC000590B8091E9039091EA03B301681B790BE7
:101FD000CC24C39427E33DE0809105029091060252
:101FE0000E94DB0DA8C010E049815A81405F5F4F1D
:101FF0005A83498300E6A02EB12C212F30E0809136
:10200000E9039091EA0397FD039695958795959539
:102010008795B5010E94942FB901681B790BCC24D8
:10202000C394B8E1EB2E05E227E43DE049815A81F3
:1020300080910502909106020E94DB0D105A103E1D
:10204000E1F608CF4F8158854850510921E030E032
:10205000B90102C0660F771F4A95E2F7AB01EB8129
:10206000FC818ACF2F81388537FD65C0E8E3F3E036
:1020700030E020E040815181A416B50609F054C03B
:10208000428153816F8178856417750709F04CC0D0
:1020900045E0429FF001439FF00D1124E45CFC4FAA
:1020A000E081E750EA3008F046C0F0E0E65AFF4E23
:1020B0000C94A82F6410C21064109B10A410A910D7
:1020C000AE10B310B810BD10F7E28F2EFDE09F2EBA
:1020D00029803A80240C351CA101481B590B8091A2
:1020E000E9039091EA03B301681B790BC12C88E0E6
:1020F000E82E08E02FE33DE0809105029091060272
:102100000E94DB0D8091EB039091EC03A101481B31
:10211000590B8091E9039091EA03B301681B790B95
:10212000CC24C394940158CF2F5F3F4F35962E3166
:10213000310509F09FCF8F819885019698878F830D
:1021400098E0490E511CF1CEE7E18E2EEDE09E2E77
:10215000BFCF7FE0872E7DE0972EBACF67E0862E37
:102160006DE0962EB5CF5FEF852E5CE0952EB0CF5B
:1021700047EF842E4CE0942EABCF3FE2832E3DE020
:10218000932EA6CF2FE1822E2DE0922EA1CFEFEF3E
:10219000AE1ABE0AF8E06F0E711C70CE28960FB60C
:1021A000F894DEBF0FBECDBFDF91CF911F910F918D
:1021B000EF90CF90BF90AF909F908F907F906F9057
:1021C0005F904F903F902F90089560387105E8F42C
:1021D00040345105D0F4342F369536953695A0E825
:1021E0003A9FF0011124E60FF71FE80FF91F348919
:1021F000CA018770992741E050E001C0440F8A95D9
:10220000EAF7222319F0432B448B0895409543238A
:10221000FBCF2F923F924F925F926F927F928F925D
:102220009F92AF92BF92CF92DF92EF92FF920F9365
:102230001F93CF93DF9300D01F92CDB7DEB79B8360
:102240008A837B016A0109838901061B170B17FF2B
:1022500003C011950195110956018A819B81A81A25
:10226000B90AB7FE03C0B194A194B108A016B10693
:102270005CF49C2D8D2D6901292F382F9A818B813B
:10228000FB82EA82E92EF82E8A819B81C816D90644
:102290005CF49E2D8F2D7901292F382F9A818B8107
:1022A000DB82CA82C92ED82E16018A819B81281A08
:1022B000390A29014E185F0857FE03C05194419412
:1022C0005108310137FE03C09FEF691A790A7594EE
:1022D00067948FEFE216F3060CF481E0882E880FE6
:1022E00099088A819B81C816D906DCF02981AC0146
:1022F000B701A016B1061CF0A7016A817B818AEFA5
:1023000093E00E94E5106418750877FE04C0E80C9D
:10231000F91C620C731C8A819B8101969B838A83C2
:10232000E0CF0F900F900F90DF91CF911F910F9101
:10233000FF90EF90DF90CF90BF90AF909F908F90E5
:102340007F906F905F904F903F902F9008958F9265
:102350009F92AF92BF92DF92EF92FF920F931F93E3
:10236000CF93DF93D12CAD2CB12C8091DC039091D5
:10237000DD03A816B9060CF072C08090050290909B
:102380000602AA0CBB1C00910F0210911002055FFF
:102390001F4F0A191B098091EB039091EC03081B56
:1023A000190BC0910D02D0910E0221968091E90384
:1023B0009091EA03C81BD90B7E0126E0E20EF11CC6
:1023C000D7FF02C0D0E0C0E0C70121E8E216F10467
:1023D00014F080E890E0C817D90744F421E0A80180
:1023E000BE01C4010E94E5102196EECFE0900502E7
:1023F000F090060200910F0210911002065F1F4F2D
:102400000A191B098091EB039091EC03081B190B2F
:10241000C0910D02D0910E0221968091E903909116
:10242000EA03C81BD90B5E0186E0A80EB11CD7FFDA
:1024300002C0D0E0C0E0C50121E8A216B10414F04A
:1024400080E890E0C817D90744F421E0A801BE0154
:10245000C7010E94E5102196EECFD39484CFDF917F
:10246000CF911F910F91FF90EF90DF90BF90AF90B1
:102470009F908F9008952F923F924F925F926F920C
:102480007F928F929F92AF92BF92CF92DF92EF9204
:10249000FF920F931F93CF93DF93CDB7DEB72D97A6
:1024A0000FB6F894DEBF0FBECDBF6A3069F5FC01F0
:1024B000EA5EFB4FDC01A85EBB4F2C9148E0249FF5
:1024C0009001112440815181240F351F31832083D5
:1024D00014971D921C922D960FB6F894DEBF0FBE76
:1024E000CDBFDF91CF911F910F91FF90EF90DF90C3
:1024F000CF90BF90AF909F908F907F906F905F90A4
:102500004F903F902F9008956D3029F39D878C87D1
:102510008C5E9B4F9A838983FC01808091802C85FF
:102520003D85285E3B4F3C832B8330E88316910426
:102530000CF071C0EC85FD85EA5EFB4F6080718018
:1025400040E4641671040CF066C0AB81BC814C9011
:1025500045E09401449E200D311D112412161306EE
:102560000CF059C0242C312C910153E0220F331F61
:102570005A95E1F7260D371D121613060CF04BC0C5
:10258000649FB001112410E000E0FB01E654FF4F0E
:10259000FB87EA87E0E0053029F0EA85FB85E00F5C
:1025A000F11FE491530198E0592E2E2F30E03E8325
:1025B0002D83E170EF83F12CE12CE414D8F4C401F5
:1025C0008E0D9F1D99878887D12CC12CC41470F45F
:1025D000A6014A0D5B1D2F81688579858C859D85B7
:1025E0000E94E5109FEFC91AD90AF0CFAFEFEA1A9F
:1025F000FA0AE3CFED81FE81F595E7955A94A20C96
:10260000B31C5110D2CF0F5F1F4F820C931C0630AA
:10261000110509F0BFCFEB81FC812081422F50E0F2
:10262000A981BA818D919C91B6E02B9F800D911D5F
:102630001124E981FA8191838083EC85FD85E75E31
:10264000FB4F2081222309F446CF6AEF64039001F7
:10265000659F300D112420583F4F281739070CF083
:102660003ACFAC85BD85ED91FC9111970190F08139
:10267000E02D6AE0CD012D960FB6F894DEBF0FBEB7
:10268000CDBFDF91CF911F910F91FF90EF90DF9021
:10269000CF90BF90AF909F908F907F906F905F9002
:1026A0004F903F902F900994089590E080E0089516
:1026B000DC011496ED91FC911597E49116968D919D
:1026C0009C918E0F911D01970895EF92FF920F93A9
:1026D0001F93CF93DF93EB0177FD2796F3E0D5951A
:1026E000C795FA95E1F79A0157FF02C0295F3F4F5E
:1026F000E3E035952795EA95E1F7FC010281138126
:10270000213131058CF577FF02C061587F4FCB0135
:10271000880F892F881F990B63E070E00E94942F27
:102720007C01CE0160E170E00E94942F880F991F18
:10273000F801E952FF4FA70165E0440F551F6A9564
:10274000E1F7283031058CF561E070E0022E01C020
:10275000660F0A94EAF7E40FF51FE80FF91F82816C
:102760008623C1F537FD34C0F801E75CFE4F90E0E9
:1027700080E040815181C417D50729F542815381FA
:102780002417350701F525E0289FF001299FF00D5A
:102790001124E00FF11FE35CFE4F8081DF91CF91A8
:1027A0001F910F91FF90EF900895D901189761E064
:1027B00070E001C0660FAA95EAF7E40FF51FE80F75
:1027C000F91F8381CDCF019635968E31910589F61B
:1027D00080E0E4CF8FEFE2CFDC011496ED91FC9125
:1027E000319684910895CF93DF93FC01C085D18504
:1027F0000E94EC138C0F9D2F911D0197DF91CF91BB
:1028000008950F931F93CF93DF9320910D02309182
:102810000E028217930714F420E018C0EB018C011C
:1028200087E092E00E94581380179107ACF38091E3
:102830000F0290911002C817D90774F387E092E055
:102840000E94F31321E08C179D0734F3822FDF9150
:10285000CF911F910F910895AF92BF92CF92DF92C7
:10286000EF92FF920F931F93CF93DF93EC01A62E6D
:10287000F12CE12CB12CEC81FD81E491E695E695FB
:10288000E695BE1608F04CC00885198581E0A816AB
:1028900049F101501109CE80DF80B6016E0D7F1D18
:1028A000A801CE010E946513882361F081E0DF91C9
:1028B000CF911F910F91FF90EF90DF90CF90BF903D
:1028C000AF900895B6016E0D7F1D695F7F4FA8011F
:1028D000CE010E9465138111E9CFB39488E0E80E20
:1028E000F11CC9CFCE010E94EC13A801480F511D65
:1028F0006E817F816E0D7F1DCE010E946513811157
:10290000D5CF08851985CE010E94EC13A801480F88
:10291000511D6E817F816E0D7F1D695F7F4FD8CF06
:1029200080E0C5CFCF93DF93EC0161E00E942C14CF
:10293000882321F028EF3FEF3D872C87DF91CF914F
:1029400008958F929F92AF92BF92CF92DF92EF92B3
:10295000FF920F931F93CF93DF93EC01862E08E035
:1029600010E0912CCE010E94EC13869586958695F9
:10297000981608F049C082E0881639F0E3E08E1618
:1029800019F19394085F1F4FEDCFE884F984CE804E
:10299000DF80F1E0CF1AD108A801485051094E0D4F
:1029A0005F1DB601CE010E94651381110BC0A80105
:1029B0004E0D5F1D41505109B601CE010E946513B5
:1029C0008823F9F281E021C0C884D984AE80BF8019
:1029D000EC80FD80F7016491A801485051094C0D2D
:1029E0005D1D6A0D7B2D711DCE010E946513811145
:1029F000E9CFF7016491A8014C0D5D1D41505109CB
:102A00006A0D7B2D711DD9CF80E0DF91CF911F9191
:102A10000F91FF90EF90DF90CF90BF90AF909F907D
:102A20008F900895EF92FF920F931F93CF93DF93B0
:102A3000EC01EC81FD813496E4914C855D85E0FFED
:102A400015C02E813F818A859B85280F391F3F83C2
:102A50002E8388859985840F951F99878887DF91B4
:102A6000CF911F910F91FF90EF900895452B69F43E
:102A700061E00E942C14811108C08C859D858630F0
:102A800091051CF401969D878C878C859D85181671
:102A90001906FCF410E000E08C859D8508171907E5
:102AA00084F461E0CE010E942C14811108C0888555
:102AB00099850196998788870F5F1F4FEDCF1D86F7
:102AC0001C868C859D85863091051CF401969D871A
:102AD0008C878C859D8597FFABC001969D878C87E1
:102AE00010E000E08C859D85801791070CF0A0C058
:102AF00060E0CE010E942C14882309F4C6C0EC814A
:102B0000FD813496E491E1FD91C00885198501505D
:102B100011096E817F81A801CE010E9465138D305D
:102B200021F5CE010E945813A801BC01CE010E94DC
:102B300065138E30D1F48E819F81803491050CF421
:102B400075C0EA81FB81EF50FE4F88E69BE09183E0
:102B50008083EA81FB81E251FE4F84E08083EA8139
:102B6000FB81E151FE4F11821082088519850150C9
:102B700011096E817F81A801CE010E946513F82E94
:102B8000CE010E945813A801BC01CE010E9465131A
:102B9000182F27E0F21619F089E0F8121FC0888577
:102BA0009985AC014150510957FF02C0495F5F4F01
:102BB000F3E055954795FA95E1F76E817F8177FFB0
:102BC00002C0695F7F4FE3E075956795EA95E1F78D
:102BD0008A819B8189529F4F0E943E18173011F0C5
:102BE000193021F50A811B8109521F4F888599856B
:102BF0007C0121E0E21AF108F7FE04C07C0126E026
:102C0000E20EF11C63E0F594E7946A95E1F7CE01DA
:102C10000E94581397FD0796BC0153E07595679580
:102C20005A95E1F7A701C8010E943E181D861C862F
:102C30008A859B851816190684F510E000E08A85C0
:102C40009B85081719074CF5CE010E945813EA819D
:102C5000FB81EB52FE4F208131812F5F3F4F369534
:102C6000322F22273795279582179307B4F463E014
:102C7000CE010E94A114811110C08E819F81019606
:102C80009F838E830F5F1F4FDACF888599850197C9
:102C9000998788870150110925CF8A859B8597FFE1
:102CA000DECE10E000E08A859B85801791070CF04E
:102CB000D6CEEA81FB81ED52FE4F808191819695BF
:102CC000982F8827979587952E813F8182179307A4
:102CD0000CF0C5CE62E0CE010E94A1148111BFCEDE
:102CE0008E819F8101979F838E8301501109DBCFD5
:102CF0000F931F93CF93DF93EC018C819D819C01F7
:102D00002A5F3F4FF901449142FF67C0AA81BB810E
:102D10001C96ED91FC911D97E4914E815F811E966A
:102D20006D917C911F97E60FF72FF11DE417F507C2
:102D30005CF462E06A8BFC013596E491F0E0F19579
:102D4000E195F109FB87EA87FC016491460F511D6B
:102D50001E966D917C91461757073CF443E04A8BD1
:102D60003596E491F0E0FB87EA87F901249123FF8F
:102D70002DC06A89CE010E94A114882319F0CE01CA
:102D80000E9492148A89823071F46E817F81615031
:102D900071094FE750E0CE010E946513811103C015
:102DA000CE010E9492148A89833081F4CE010E9460
:102DB0005813BC016F5F7F4F4FE750E0CE010E9478
:102DC0006513811103C0CE010E949214CE01DF91E0
:102DD000CF911F910F910C941215249120FF0DC0DB
:102DE0008A89823091F562E0CE010E94A114882385
:102DF00011F183E08A8B1B861A86EC81FD81369661
:102E0000E491E1FFE3CF8A89823009F03BC0CE0133
:102E10000E94F313AC014F5F5F4F6E817F81615061
:102E20007109CE010E946513811122C083E08A8B53
:102E30001B861A86CBCFEC81FD813596E491F0E0BC
:102E4000F195E195F109FB87EA878A898330A9F634
:102E500063E0CE010E94A114882311F082E0CACF62
:102E6000EC81FD813596E491F0E0FB87EA87C5CFE0
:102E7000EC81FD813596E491F0E0F195E195F10961
:102E8000FB87EA878A89833009F0A0CFCE010E94B0
:102E9000F3138C01CE010E945813A8014F5F5F4FBE
:102EA000BC016F5F7F4FCE010E946513811102C08C
:102EB00082E0BDCFEC81FD813596E491F0E0FB87A7
:102EC000EA8784CFAF92BF92CF92DF92EF92FF92C8
:102ED0000F931F93CF93DF93CDB7DEB764970FB6F1
:102EE000F894DEBF0FBECDBFFC017C01CE01019680
:102EF00010E000E0D7019A96DC909A97D11051C06B
:102F0000A3E1A09FC001A19F900D1124DC0159965F
:102F1000AE0FBF1FE80FF91F768F658F81E082A784
:102F200082E083A703E0440F551F0A95E1F7179647
:102F30005C934E93169783E0220F331F8A95E1F737
:102F400019963C932E9318971B961C921E921A97D3
:102F50001D961C921E921C9750961C9250971F967D
:102F60001C921E921E9767567C4041F48CEF9FEF97
:102F700094A383A382E090E096A385A3CD016496F9
:102F80000FB6F894DEBF0FBECDBFDF91CF911F917A
:102F90000F91FF90EF90DF90CF90BF90AF900C9487
:102FA0007816A684B7845F96CD90DC90D501AC19D5
:102FB000BD096D01B7FD5EC0DC01CD92DC920F5FF3
:102FC0001F4FB3E1EB0EF11C02960A30110509F018
:102FD00091CF99818E010D5F1F4F81E0D12CD801D7
:102FE000ED90FD908D019E151F0414F49E2DD82E9A
:102FF0008F5F8A30A1F783E1D89ED0011124CD01E3
:1030000049968E0F9F1FEA0FFB1F768F658FA1E0F9
:10301000A2A7A2E0A3A7A3E0440F551FAA95E1F73A
:10302000DC0117965C934E93169713E0220F331F23
:103030001A95E1F719963C932E9318971B961C92BC
:103040001E921A971D961C921E921C9750961C92C7
:1030500050971F961C921E921E9767567C4009F04F
:103060008ECF2CEF3FEF34A323A322E030E036A332
:1030700025A385CFD194C194D1089ECF2F923F92A2
:103080004F925F926F927F928F929F92AF92BF9278
:10309000CF92DF92EF92FF920F931F93CF93DF9324
:1030A0008C017B016A01EC01CE59DF4F1C0188EFD6
:1030B000280E311C84E1482E512C9CEA692E90E0A8
:1030C000792E21EBA22E20E0B22E4A01A1E08A1A2D
:1030D0009108888199818E159F0559F48A819B8179
:1030E0008C159D0531F48C818730D1F0893009F43D
:1030F00044C02596C215D30561F7DF91CF911F918A
:103100000F91FF90EF90DF90CF90BF90AF909F9086
:103110008F907F906F905F904F903F902F90089589
:10312000D801ED91FC911197ED51FE4F8081918175
:103130000196918380832D913C91F901ED51FE4FD1
:1031400080819181B2010E94942F892B81F4329663
:1031500080819181019691838083D801ED91FC91CA
:10316000EF50FE4FB182A082F8E0FC83C2CF2F5017
:103170003E4FF90171826082F7CF9401A7016CEC98
:103180007BE0D8018D919C910E946217B8E0BC83CE
:10319000B0CF0F931F93CF93DF938C010E94EC135A
:1031A000F801C481D581FE012491829F90011124F0
:1031B00083E0359527958A95E1F7329644913196CB
:1031C000649170E0F801868597850E94942F629F34
:1031D000C001639F900D729F900D1124429FB0011A
:1031E000439F700D1124860F971F08968C0F9D1F0B
:1031F000DF91CF911F910F9108958F929F92AF927F
:10320000BF92CF92DF92EF920F93CF93DF93EC01B7
:10321000EC81FD813796E491EE2329F1EA81FB816F
:10322000A680B7800E94EC13E82EEC81FD8104910A
:10323000CE010E94C918AA81BB81FD01E451FE4F55
:103240004885598520813181421B530BA651BE4FC1
:103250006E817F812D913C91621B730BC12C9C016F
:10326000C5010E94DB0DEA81FB81A680B780CE01FB
:103270000E94EC13E82EEC81FD810491CE010E94A6
:10328000EC138C809D80F401949133966491CA80F4
:10329000DB80899FF001112483E0F595E7958A95FD
:1032A000E1F770E08E859F850E94942FE69F900144
:1032B000E79F300DF69F300D1124285F3F4F280DFA
:1032C000391DF601E451FE4F488559858081918171
:1032D000481B590B32976E817F8180819181681BD9
:1032E000790BCC24C394C5010E94DB0D4E855F850C
:1032F0004F5F5F4F8C819D81FC0132962491039634
:10330000FC018491289FC0011124481759076CF4CF
:103310005F874E87DF91CF910F91EF90DF90CF9035
:10332000BF90AF909F908F9008951F861E86F2CF1A
:103330000F931F93CF93DF93CFEFD1E08AA588231C
:10334000C9F08E01075E1F4FC8010E9458132091DB
:10335000E9033091EA03821B930B1816190654F403
:103360008F8D98A1821B930B803891051CF4C801A6
:103370000E94FD18639682E0CD3BD807F9F6DF91F5
:10338000CF911F910F9108958091ED03813048F105
:10339000833018F08530A8F008950E94BF0E0E9477
:1033A00098198091EE0380FD1CC087E092E00E9496
:1033B000FD188091DC039091DD03892B91F00C9432
:1033C000A71187E092E00E94FD188091DC039091A4
:1033D000DD03892B11F00E94A7110E94BF0E0C94EF
:1033E00098190895EF92FF920F931F93CF93DF9355
:1033F000DC0116962D913C9117977B01E21AF30A96
:10340000F7FE08C080E0DF91CF911F910F91FF90F0
:10341000EF90089518968D919C911997EA01C81B19
:10342000D90BD7FDEFCF1496ED91FC911597E49150
:10343000EE151F043CF38D01CD010E94EC138C1797
:103440001D0604F3C8010E94C918D8011496ED9115
:10345000FC912491AE0133E0559547953A95E1F7FB
:10346000249FF001259FF00D1124EE0EFF1E8E0DFE
:103470009F1DFC01849190E0C770DD2702C09595E7
:103480008795CA95E2F78170BECF8F929F92AF92D7
:10349000BF92EF92FF920F931F93CF93DF93CDB71D
:1034A000DEB7A1970FB6F894DEBF0FBECDBF7C018B
:1034B000FA01CB0119A2223008F42AE08E010F5D37
:1034C0001F4F822E912CB12CA12CBF01A50194017C
:1034D0000E94632FF901CA016A3074F5605DD8015A
:1034E0006E938D01232B242B252B79F790E080E020
:1034F000109789F0FD0101900020E9F73197AF01A5
:103500004A1B5B0BD701ED91FC910280F381E02D0A
:10351000B801C7010995A1960FB6F894DEBF0FBE9A
:10352000CDBFDF91CF911F910F91FF90EF90BF9092
:10353000AF909F908F900895695CD1CF4FE851E094
:10354000FA0101900020E9F7AF01405951406FE8BE
:1035500071E08AEF93E00C948D0A2F923F924F9284
:103560005F926F927F928F929F92AF92BF92CF9213
:10357000DF92EF92FF920F931F93CF93DF93CDB71C
:10358000DEB72B970FB6F894DEBF0FBECDBF7C0120
:103590002091D6023091D702F901E951FE4F6081A6
:1035A00071817A836983CB018E0D9F1D64E070E089
:1035B0000E94942F280F391FF901ED50FE4F808192
:1035C00029813A81829FB001839F700D11246E0D75
:1035D0007F1D072E000C880B990B61157105810565
:1035E000910511F00E94122FC70163E070E00E9464
:1035F000942F55E0880F991F5A95E1F7BC0161504F
:103600007E4F7C836B8390E080E0FC01E752FF4FAC
:103610002B813C81E20FF31F1082019680329105CD
:10362000A1F70E94C32E23E030E040E050E00E946A
:10363000312F635F7F4F8F4F9F4F6A87E091D60294
:10364000F091D702E951FE4F208120FD5DC138E0A5
:103650003B87670144E0CC0CDD1C4A95E1F73B85D4
:10366000232F30E03A832983E114F10461F42B85A0
:10367000222309F44BC169817A816F5F7F4F81E01A
:1036800090E00E94A60881E0098001C0880F0A949A
:10369000EAF78F83312C212C10E000E069817A81D8
:1036A0006B5F7F4F7987688789819A8102969E83B5
:1036B0008D839B85992399F0F801EE0FFF1F2981D7
:1036C0003A812830310509F428C1E752FF4F6B8158
:1036D0007C81E60FF71F80817F81872B80832114F7
:1036E000310409F068C12A85822F90E0F801EE0FBD
:1036F000FF1FE652FF4F6B817C81E60FF71F408171
:103700009C012850310961E070E002C0660F771F0C
:103710002A95E2F7462B01968031910589F740837F
:10372000E114F10409F44BC18091D4039091D503C5
:10373000E816F9060CF0ABC00E94C32E2AE030E078
:1037400040E050E00E94312F672B682B692B09F075
:10375000EDC00E94C32E23E030E040E050E00E9424
:10376000312FDC01CB010296A11DB11D1C017B850F
:10377000772319F021E0221A31088091DA03909121
:10378000DB038C159D050CF082C00E94C32E28E03F
:1037900030E040E050E00E94312F672B682B692B0E
:1037A000D1F40E94C32E24E130E040E050E00E94BA
:1037B000312F6A3008F0D2C08A858250990B9C0163
:1037C000A601400F511F6FED7CE08091D6029091D1
:1037D000D7020E9462170E94C32E20E130E040E031
:1037E00050E00E94312F672B682B692B09F04FC0E6
:1037F0002114310409F04BC02A85822F90E068859E
:103800007985681779070CF042C00F30110509F46B
:103810003EC04C0173E0871A9108092C000CAA08DD
:10382000BB0807974D805E80481659060CF42C01A2
:10383000052C000C66087708481459046A047B04B8
:103840008CF484189508A608B70841F00E94C32E8E
:10385000A50194010E94312F4B015C01480C591CB9
:103860006A1C7B1C0E94C32E5601A00EB11E24E0D0
:1038700030E040E050E00E94312FA201672B682B1E
:10388000692B09F095C0B50189E00E942A080F5FF5
:103890001F4F0031110509F00CCF8091D403909196
:1038A000D503E816F90661F4C6010D962B8522238F
:1038B00009F488C069817A816F5F7F4F0E94A608F2
:1038C0008091DA039091DB038C159D0524F4D0924E
:1038D000DB03C092DA032B960FB6F894DEBF0FBE5F
:1038E000CDBFDF91CF911F910F91FF90EF90DF90AF
:1038F000CF90BF90AF909F908F907F906F905F9090
:103900004F903F902F9008951B86A3CE625071096F
:1039100081E090E00E947908B6CEE652FF4F8B819D
:103920009C81E80FF91F80818160D8CE0E94C32E50
:1039300025E030E040E050E00E94312F672B682BFB
:10394000692B09F01ACF0E94C32E3A853F3019F037
:103950003F5F3A8712CF6EE06A870FCF603150F435
:103960006A856250770B9B01A601400F511F67ECDF
:103970007CE02BCF633178F479E0E716F1040CF4A6
:103980002ACF8A858250990B9C01A601400F511FB6
:103990006FEA7CE01ACF99E0E916F1040CF41BCF32
:1039A00022E030E0A601400F511F67E67CE00DCF1A
:1039B000B50187E06ACF81E0281A310868CF312C41
:1039C000212C65CF2A852250330BB9010E9479083A
:1039D00077CF8091D4039091D5039695982F88271F
:1039E0009795879501972091D6033091D703369507
:1039F000322F222737952795215C3F4FE091D20344
:103A0000F091D303DF01B695BA2FAA27B795A795F2
:103A100040910D0250910E02405451095093EA0317
:103A20004093E90360910F02709110026850710990
:103A300026173707A4F17093EC036093EB03841708
:103A4000950724F49093EA038093E9038091E903B6
:103A50009091EA038A179B0724F4B093EA03A0939A
:103A6000E903A091D602B091D7021E968D919C9148
:103A700097FF02C081589F4F880F892F881F990B8D
:103A8000019797FF02C090E080E0E817F90764F41F
:103A90009093D3038093D20302960C94AD1A309383
:103AA000EC032093EB03CBCF08958F929F92AF92BC
:103AB000BF92CF92DF92EF92FF9281E08093ED036D
:103AC0001092F1031092F0031092CF031092CE03E4
:103AD0001092D9031092D8031092D3031092D203FC
:103AE0001092DB031092DA03EAE3F3E080ED93E057
:103AF0002FEF3FEF3183208335968E179F07D1F745
:103B000090E080E063E12FEF3FEFE091D602F0918B
:103B1000D702689FA001699F500D1124E40FF51F83
:103B200012A613A6168E158E30A3278F32A321A3BB
:103B300014A213A216A215A210A617A211A60196EE
:103B40008A30910511F72091D6023091D702F90100
:103B5000E951FE4FE080F180C70164E070E00E940F
:103B6000942F280F391FF901ED50FE4F80818E9D53
:103B7000B0018F9D700D1124072E000C880B990B3E
:103B8000611571058105910511F00E94122FE091D8
:103B9000D602F091D702E951FE4FC080D1800D2CA2
:103BA000000CEE08FF08C114D104E104F10439F05F
:103BB0000E94C32EA70196010E94312F6B01C601FE
:103BC0000C96E091D602F091D702E951FE4FC080E9
:103BD000D1804C01092E000CAA08BB089C012C0DB9
:103BE0003D1D821793070CF04BC00D2C000CEE0806
:103BF000FF08C114D104E104F10441F00E94C32E76
:103C0000A70196010E94312F6B017C01C80CD91CC1
:103C1000EA1CFB1C0D2C000CEE08FF088C149D0404
:103C2000AE04BF048CF4C818D908EA08FB0841F0B8
:103C30000E94C32EA70196010E94312F6B017C01C7
:103C40008C0C9D1CAE1CBF1C9092D5038092D4039B
:103C500090E080E00E94AD1A81E090E00E94AD1AF1
:103C600082E090E00E94AD1A61E087E092E00E945D
:103C70002C14811107C087E092E00E941215F4CF46
:103C80006401C8CFFF90EF90DF90CF90BF90AF90CE
:103C90009F908F900C94E91CE0910502F091060230
:103CA00090E0603127E272078CF4683E23E07207EF
:103CB000ACF52AE030E06436710554F430E020E0E1
:103CC0006A3071052CF025E030E002C024E130E0DC
:103CD000DF01AC5EBB4F40E650E0421B530B119638
:103CE0005C934E9312968D939C93AB0170E060E0D1
:103CF0002AE0CF010E94451A8091050290910602A8
:103D000044960E945E0C6AEF70E080E090E00E94B2
:103D10008C0B0E94430C8823E1F308952FE030E0E0
:103D2000D7CF0E94C22F0C941B2F0C94232F1F92CD
:103D30000F920FB60F9211248F939F938091E10001
:103D40009091E100937F9093E10083FF0FC0109268
:103D5000E90091E09093EB001092EC0092E39093D5
:103D6000ED0010928E0198E09093F00082FF22C047
:103D700093E09093E9009091F200992319F09AE36F
:103D80009093E80090917F01992341F090917F01F9
:103D9000915090937F01911101C05D9A90918D0196
:103DA000992341F090918D01915090938D01911143
:103DB00001C0289A84FF18C08091E2008E7E816045
:103DC0008093E2008091E1008F7E8093E1008091FA
:103DD00080018E7E8061809380019F918F910F90F2
:103DE0000FBE0F901F90189580FFF7CF8091E200D3
:103DF0008E7E80618093E2008091E1008E7E8093D0
:103E0000E100809180018E7E8160E5CF1F920F924C
:103E10000FB60F921124CF92DF92EF92FF920F9381
:103E20001F932F933F934F935F936F937F938F9342
:103E30009F93AF93BF93EF93FF93CF93DF93CDB750
:103E4000DEB76C97DEBFCDBF1092E9008091E8002D
:103E500083FF25C068E0CE0145960E945C0A82EF90
:103E60008093E8008D8987FF39C09091E80090FF2A
:103E7000FCCF982F907609F034C19E894F89588DD8
:103E80002F89F88C911131C0803861F580917E01C5
:103E90008093F1001092F1008EEF8093E8006C9611
:103EA0000FB6F894DEBF0FBECDBFDF91CF91FF916B
:103EB000EF91BF91AF919F918F917F916F915F91A2
:103EC0004F913F912F911F910F91FF90EF90DF90B5
:103ED000CF900F900FBE0F901F9018959EEF90936C
:103EE000E800C7CF1092F100D5CF913059F481117D
:103EF000D3CF4130510581F680917E018D7F809333
:103F00007E01CACF933049F48111C6CF41305105AB
:103F100019F680917E018260F2CF953041F4809154
:103F2000E80080FFFCCF20682093E300B5CF9630F7
:103F300009F0A9C00B8D1C8D22E01092E9001092AF
:103F40007C0110927B01F2122EC010927A01109225
:103F500079010E942B0A1F8299E09983FA8291E0ED
:103F60009E8390EA98879AEF998720917B01309100
:103F70007C01275F3F4F3C832B838D831092E900A8
:103F800010927C0110927B0110937A0100937901C9
:103F900049E050E0BE016F5F7F4F80E00E94050A5C
:103FA0000E942B0A79CF10937A01009379010E9425
:103FB0000F09DC0112960D911C910115110509F4F0
:103FC00051C1D801ED91FC910480F581E02DBE0135
:103FD0006B5E7F4FC8010995009709F03EC1F8015B
:103FE00000851185EACFF3E0FF120EC08F89882388
:103FF00009F440C0823061F440E867E08FE59CE05E
:104000000E94D209811148CF81E28093EB0047CF13
:10401000813029F440E86BE083E59CE0F1CF833008
:1040200099F70E940F09DC011296ED90FC908E0129
:104030000F5F1F4F6801E114F10479F0D701ED9192
:10404000FC910680F781E02DB801C7010995080FA2
:10405000111DF701E084F184EECFD8011C92F60126
:1040600001900020E9F73197BF016C197D0940E00C
:10407000C601C6CF6DE37CE0FB01449150E080E8CF
:104080000E94050A09CF973009F4BECF983021F479
:1040900081E08093F10000CF993009F0FDCE83706C
:1040A00009F0B2CFE5E1F1E081E031E096E3219162
:1040B000222371F08093E9003093EB00DF01119728
:1040C0002C912093EC009093ED008F5F873079F76F
:1040D0008EE78093EA001092EA008F8980938E0128
:1040E000DBCE8B8D9C8D1092E90010927C0110929A
:1040F0007B0190937A0180937901898D811192C01F
:104100008E899D89913A49F4813209F07DCF47E04B
:1041100050E068E071E080E0B3CF913209F074CFF5
:10412000833269F48F89988DB0E0A0E08093040118
:1041300090930501A0930601B0930701ADCE8032A4
:1041400069F48091E80082FFFCCF67E088E091E0AD
:104150000E945C0A8BEF8093E8009ECE823209F0C9
:104160009BCE8F8980930F01EEEFFFE785919491AD
:104170008B3F9C4D51F1E0E0F8E080910801909177
:104180000901A0910A01B0910B01803B9440A10567
:10419000B105F1F480910F0180FD1AC0EE3F8AE075
:1041A000F80789F587E797E791838083809160001E
:1041B00080937D0188E19BE00FB6F894A8958093E9
:1041C00060000FBE9093600067CEEEEFFAE0D5CFAF
:1041D000808191818737974709F05ECEA8958091BD
:1041E000600088618093600080917D018093600011
:1041F000EE3F2AE0F20789F08091FE0A9091FF0AD3
:104200009183808349CE808191818737980751F2CD
:104210009093FF0A8093FE0AC5CF1092FF0A109276
:10422000FE0A3ACE0E940F09DC0112960D911C91F4
:104230000115110509F4E8CED801ED91FC9101902A
:10424000F081E02DBE016B5E7F4FC80109958111A1
:1042500023CEF80100851185EBCF181619060CF452
:104260001BCED2CEF1E0FF12BECE61E47CE004CFE3
:104270001F920F920FB60F9211242F933F938F939B
:104280009F93AF93BF9380919F019091A001A091C4
:10429000A101B091A2013091550123E0230F2D37E8
:1042A00058F50196A11DB11D2093550180939F01E2
:1042B0009093A001A093A101B093A2018091560117
:1042C00090915701A0915801B09159010196A11DFB
:1042D000B11D8093560190935701A0935801B0935C
:1042E0005901BF91AF919F918F913F912F910F9065
:1042F0000FBE0F901F90189526E8230F0296A11D60
:10430000B11DD2CF1F920F920FB60F9211242F938F
:104310003F934F935F936F937F938F939F93AF934D
:10432000BF93EF93FF9380915201882349F08091CE
:10433000A301E091A401F091A501908189278083D8
:1043400080916F01882329F180914E0190914F0156
:10435000A0915001B0915101892B8A2B8B2BC9F070
:1043600080914E0190914F01A0915001B091510167
:104370000197A109B10980934E0190934F01A09339
:104380005001B0935101892B8A2B8B2B11F40E9481
:10439000680DFF91EF91BF91AF919F918F917F91A8
:1043A0006F915F914F913F912F910F900FBE0F90A2
:1043B0001F9018951F920F920FB60F9211248F9392
:1043C0009F93AF93BF93EF93FF938091AE018823A8
:1043D00009F452C08091AA019091AB01A091AC0167
:1043E000B091AD01892B8A2B8B2BA1F19091A60165
:1043F000E091A701F091A8018081892780838091B5
:10440000AA019091AB01A091AC01B091AD01181639
:1044100019061A061B069CF48091AA019091AB0123
:10442000A091AC01B091AD010197A109B1098093B0
:10443000AA019093AB01A093AC01B093AD01FF91A1
:10444000EF91BF91AF919F918F910F900FBE0F9001
:104450001F9018951092AE0180916F008D7F809310
:104460006F008091A601E091A701F091A8019081D1
:10447000809589238083E3CF9091A601E091A701E5
:10448000F091A80180818927F5CF1092B201109296
:10449000B10188EE93E0A0E0B0E08093B301909387
:1044A000B401A093B501B093B6018FE191E0909370
:1044B000B0018093AF018FEF9FEF9093BC01809389
:1044C000BB011092FD031092FC0387E391E09093EF
:1044D000FB038093FA038CE38093000480E18093D4
:1044E0000304109202041092010410920804109226
:1044F000090410920A0410920B0410920C041092FA
:104500000F0810920E08109211081092100881E006
:10451000809312082FEF31E081E391E0909308023D
:104520008093070281E391E090931902809318022F
:1045300090932C0280932B0290933F0280933E0233
:10454000909352028093510290936502809364028B
:10455000909378028093770290938B0280938A02E3
:1045600090939E0280939D029093B1028093B0023B
:104570009093C4028093C3028AEF93E09093060263
:104580008093050230930A02209309023093D702E8
:104590002093D602F901C901948F838F739622E08C
:1045A000ED3BF207C9F70895CF93DF9300D01F9238
:1045B000CDB7DEB7789484B5826084BD84B5816060
:1045C00084BD85B5826085BD85B5816085BD8091DE
:1045D0006E00816080936E00109281008091810056
:1045E000826080938100809181008160809381004E
:1045F0008091800081608093800080919100826032
:1046000080939100809191008160809391008091CE
:1046100090008160809390008091C10084608093BD
:10462000C1008091C10082608093C1008091C1006F
:1046300081608093C1008091C30081608093C3003A
:104640008091C00082608093C0008091C200816030
:104650008093C20080917A00846080937A00809178
:104660007A00826080937A0080917A0081608093E2
:104670007A0080917A00806880937A0010928E018F
:1046800010927E01109280018091D700816080930A
:10469000D70080EA8093D80089B5806189BD89B54B
:1046A000826089BD09B400FEFDCF61E070E080E06A
:1046B00090E00E948C0B8091D8008F7C8061809369
:1046C000D8008091E000807F8093E0008091E1003D
:1046D0008E7E8093E1008DE08093E200559A209ACF
:1046E00068E873E180E090E00E948C0B1FB7F894BB
:1046F00080915A01811127C0E4E7FEE08491E7E44C
:10470000FEE09491E82FF0E0EE0FFF1FE75AF84F1C
:10471000A591B491EC91E92321F461E081E10E943B
:10472000BA0A61E081E10E942B0B8CB580618CBDDF
:104730008CB580648CBD61E08FE00E942B0B61E042
:1047400080E10E942B0B80915A018F5F80935A0168
:104750001FBF04E717E0B801F80184916F5F7F4F36
:104760000E5F1F4FFB016491882319F00E942B0BF1
:10477000F2CF61E086E10E94BA0A61E070E080E079
:1047800090E00E948C0B60E086E10E94BA0A6AE029
:1047900070E080E090E00E948C0B61E086E10E9476
:1047A000BA0AEAE7FEE0E491F0E0EE0FFF1FEB5AF1
:1047B000F14FA591B4919C9180915E0180958923E0
:1047C0008C93EDE4FEE0E491E0935E01E8E7FEE027
:1047D000E491F0E0EE0FFF1FEB5AF14F85919491B9
:1047E00090935D0180935C01EBE4FEE0E491E09343
:1047F0005B018CB58C7F8CBD8DB581608DBDE091EA
:104800005C01F0915D01908180915B01809589232D
:104810008083E7E6F7E084E797E08E179F0749F08B
:1048200024912EBD00000DB407FEFDCF2EB53196AC
:10483000F4CFE0915C01F0915D01808190915B018A
:10484000892B8083809164008160809364008091D3
:10485000640082608093640080916400806880932B
:10486000640080916400806480936400809165009E
:104870008160809365000E94430C83FF0BC080E041
:1048800094E01EBC00000DB407FEFDCF2EB50197CD
:10489000C1F7FFCF5EEEA52EBB24BA940E94E407B9
:1048A000CC24C39440E1E42E08E529EA36E0A501D2
:1048B00064E170E08AEF93E00E94DB0D8EE094E00B
:1048C0000E945E0C6BE170E080E090E00E948C0B37
:1048D000F0EFAF1206C06AEF70E080E090E00E9457
:1048E0008C0B2FEFA21AB20A39E1A316B104B1F66C
:1048F0006EEE72E080E090E00E948C0B0E94020D50
:104900000E94020D10926F0182E090E00E94931EBF
:10491000882351F080916400877F809364008091A8
:104920006500877F80936500109278010E94F307ED
:10493000FF24FA9411E020E3A22EB12C38E3832E59
:10494000912C0E940708882361F10E94430C982F44
:10495000917109F079C087FD02C086FF05C0909172
:10496000030191279093030183FF06C090910001FA
:104970009F3F69F41093000181FF11C080910001F5
:10498000813049F4F09200010E94F3070AC09F5F52
:1049900090930001F1CF815080930001F5CF8111F8
:1049A000F3CF0E94E407CC24C39490E2E92E00E602
:1049B00022E738E050E040E06EE070E08AEF93E0FC
:1049C0000E94DB0D05E32EE937E04DE150E062E4A3
:1049D00070E08AEF93E00E94DB0D10920F081092B6
:1049E0000E08B0921108A092100866E977E08AEFED
:1049F00093E00E94690A4091000150E070E060E09D
:104A00002AE08AEF93E00E94451A10920F08109254
:104A10000E0890921108809210086EE877E08AEFF5
:104A200093E00E94690A809103016BE877E08111AD
:104A300002C067E877E08AEF93E00E94690A8EE09F
:104A400094E00E945E0C7DCF6091000170E090E0E8
:104A500080E0611571058105910511F00E94122F0A
:104A600002EF13E086EFE82E83E0F82E0E94C32EBB
:104A70002FEF30E040E050E00E94312FD8016D93DD
:104A80008D01EA16FB0691F71092DD031092DC030C
:104A90001092DF031092DE031092E1031092E00304
:104AA0001092E3031092E20381E090E09093E5031B
:104AB0008093E4039093E7038093E60389EA9BE005
:104AC00090930C0280930B028AE090E090930E0288
:104AD00080930D021092100210920F021092120297
:104AE00010921102109214021092130210921702E7
:104AF00010921602109215020E94551D11E050905E
:104B0000ED03552009F411C68FB7F894C0909F01AA
:104B1000D090A001E090A101F090A2018FBFC092BF
:104B20007401D0927501E0927601F0927701809144
:104B30000301882309F479C080916F01811119C0A4
:104B400000917801083008F0A1C1E8E9FAE0F0939B
:104B50006201E0936101F0936001E0935F010E94C4
:104B6000680D10936F010F5F003109F4AAC1009323
:104B700078018091F0039091F1030097E1F0A2EFAA
:104B8000B9E0B0936E01A0936D0190936C01809396
:104B90006B011092F1031092F003E2E0F0E0F09369
:104BA0000201E093010110926701109268011092D6
:104BB000690110926A0120916B0130916C012115FD
:104BC000310599F18091670190916801A091690187
:104BD000B0916A0140916301509164016091650157
:104BE00070916601840F951FA61FB71FC816D906BE
:104BF000EA06FB06D0F0E0910101F0910201CF013D
:104C000001969093020180930101E20FF31F8491BA
:104C10008F3F09F059C110926C0110926B012FEF78
:104C20003FEF309302012093010180917001909138
:104C30007101A0917201B09173018196A11DB11D06
:104C40008C159D05AE05BF0508F059CFC0927001C7
:104C5000D0927101E0927201F09273010E94E40718
:104C60000E94430C9091030280FF62C1911103C026
:104C700091E0909303029091040284FF5FC191112F
:104C800003C091E0909304029091000283FF5CC105
:104C9000911103C091E0909300029091020281FF74
:104CA00059C1911103C091E0909302029091FF01CC
:104CB00087FF56C1911103C091E09093FF0190913D
:104CC000010286FF53C1911103C081E0809301026C
:104CD0006090D6037090D7037694762C66247794F0
:104CE0006794930121583F4F39018091040224E0D9
:104CF000811101C023E0309101024091FF018091B8
:104D000011029091120241110C94682E31113BC195
:104D1000181619062CF40197909312028093110231
:104D2000809111029091120297FF05C00196909315
:104D300012028093110280910302882361F087E0C0
:104D400092E00E949214882331F083E79BE09093D5
:104D5000F1038093F00380910202882309F44CC090
:104D600080910D0290910E02803491050CF444C0A4
:104D700000910F021091100287E092E00E94EC1364
:104D8000800F912F911DAC014F5F5F4F60910D021D
:104D900070910E0287E092E00E9465138B3061F5FE
:104DA00000910F021091100287E092E00E94EC1334
:104DB000F82E87E092E00E9458130F0D111DA801F4
:104DC0004F5F5F4FBC0187E092E00E9465138C301B
:104DD00099F48091090290910A02FC01EF50FE4F74
:104DE00028E63BE031832083339723E02083815101
:104DF0009E4FDC011D921C928091ED038330F1F4F3
:104E00000091EE031091EF0387E092E00E94EC1313
:104E10008017110699F094F080910F029091100282
:104E200001969093100280930F028091EE0390916F
:104E3000EF0301969093EF038093EE038091ED03CF
:104E4000843009F4AFC08091ED03823009F0DDC1F8
:104E50002091EE033091EF0380910F0290911002A8
:104E60002A3131050CF4C8C1019790931002809348
:104E70000F0280910F0290911002681679060CF0D3
:104E8000BDC11092EF031092EE03ABC00C3058F48A
:104E90002DE53AE030936201209361013093600187
:104EA00020935F015CCE003108F05DCE80E19AE096
:104EB00090936201809361019093600180935F0100
:104EC0004ECE1092780155CEF90144913196E4917D
:104ED000982F9F7050E09E9F400D511D1124052E6C
:104EE000000C660B770B4093630150936401609351
:104EF00065017093660182958F70E82FF0E0E150B4
:104F0000F048EE0FFF1F80916D0190916E01E80F48
:104F1000F91F85919491969587950E946D07C0928F
:104F20006701D0926801E0926901F0926A017DCE3A
:104F3000992309F4A0CE109203029DCE992309F47F
:104F4000A3CE10920402A0CE992309F4A6CE10920B
:104F50000002A3CE992309F4A9CE10920202A6CE94
:104F6000992309F4ACCE1092FF01A9CE992309F43C
:104F7000AFCE10920102ACCE5093120240931102B8
:104F8000332309F4D8CE8091110290911202019638
:104F900030E0281739070CF0CACE30931202209364
:104FA0001102C9CE0091EE031091EF0387E092E069
:104FB0000E94EC138017110609F00CF444CF809185
:104FC0000F029091100201979093100280930F02AC
:104FD0008091EE039091EF0301969093EF038093FD
:104FE000EE033DEB432E32E0532E0FEF11E04AE784
:104FF000242E4BE0342EF80182A5882391F178010C
:10500000F9E1EF0EF11CC7010E947816D8019196C4
:105010006D917C919297661677060CF000C15E96B2
:105020001C921E925D979A961C929A979B961C9240
:105030009B97EFEFFFEF9096FC93EE935F9792961E
:10504000FC93EE93919794961C921E92939796964A
:105050001C921E92959798961C921E9297979996DD
:105060001C920D5E1F4F4016510629F68091ED03EC
:10507000813081F480910F029091100268167906B8
:105080004CF482E08093ED0389E190E09093EF038C
:105090008093EE038091ED03823009F04AC00091C5
:1050A000EE031091EF030115110509F042C0809144
:1050B000E4039091E50301979093E5038093E40363
:1050C0000E94C4198091E4039091E503892B09F4AF
:1050D00022C21092DD031092DC038091E60380FD72
:1050E00002C008E510E089EA9BE090930C028093EF
:1050F0000B028AE090E090930E0280930D021093D1
:10510000100200930F0210921202109211021092DC
:1051100014021092130210921702109216021092AB
:1051200015020E94551D68EC70E080E090E00E943E
:105130008C0B8091ED03813069F42091EE03309166
:10514000EF032115310531F0215031093093EF0380
:105150002093EE0383508230E8F50091EE03109126
:10516000EF0387E092E00E94EC138017110691F59F
:105170001092EF031092EE0380910D0290910E02B7
:1051800097FD0796A3E095958795AA95E1F720915D
:10519000E0033091E103820F931F9093E10380932A
:1051A000E0038091E6039091E70301969093E70373
:1051B0008093E6032AE030E030930E0220930D0244
:1051C00080FFB0C290E080E09093100280930F02C5
:1051D0000E94551D8091ED0381110E94C419109207
:1051E0000F0810920E0810921108109210088EE00D
:1051F00094E00E945E0C82CC029637CE2150310999
:105200003093EF032093EE03ECCE813009F0E9CE2A
:1052100087E092E00E9412150E94E91CE2CE5F96A0
:105220008D919C910E940114882309F44AC0F801D1
:10523000878D90A1C0900D02D0900E02C816D9069D
:105240000CF46C0187E092E00E9458135C01C701E6
:105250000E945813A816B9060CF057C087E092E0D8
:105260000E9458138C159D050CF4FBCED801919625
:105270008D919C91A0900F02B0901002A816B906D3
:105280000CF45C0187E092E00E94F3134C01C7012B
:105290000E94F31388169906D4F587E092E00E94E5
:1052A000F3138A159B050CF490C0A501B60187E0A5
:1052B00092E00E94F21981112CC0BFEFAB1ABB0A19
:1052C000E1CFD8019196CD90DC90C7010E94581390
:1052D000B6010E9401148111AACFC7010E94F313E5
:1052E000BC01F801878D90A10E94011481119FCF0C
:1052F000C7010E94F3136C01C7010E945813B60145
:105300000E940114811193CFACCEC701A9CFC70170
:10531000C6CFD8015996ED91FC910190F081E02D16
:10532000A501B601C7010995882339F2D8015D9618
:105330008D919C918C5C9B4009F059C0F801168EB0
:10534000158E12A613A62FEF3FEF30A3278F32A39F
:1053500021A314A213A216A215A210A617A211A689
:105360008091DE039091DF038C599F4F9093DF0370
:105370008093DE0381EC9BE09093F1038093F00334
:1053800080910B0290910C02895A9B4011F58091FB
:105390000F02909110020897E1E8FBE0F0930C02F5
:1053A000E0930B029093100280930F02109212026E
:1053B000109211021092140210921302109217020E
:1053C00010921602109215024CCEBFEFCB1ADB0AD8
:1053D00039CF8091DC039091DD03853091050CF08D
:1053E00040CE01969093DD038093DC033ACE61E0DA
:1053F00087E092E00E942C14811142C0D8015E9691
:105400001C921E925D979A961C929A979B961C925C
:105410009B97EFEFFFEF9096FC93EE935F9792963A
:10542000FC93EE93919794961C921E929397969666
:105430001C921E92959798961C921E9297979996F9
:105440001C928091DE039091DF0344969093DF03DA
:105450008093DE033092F1032092F00380910302E7
:10546000882339F026EF3FEF309314022093130284
:10547000F8CD8CEF9FEF9093140280931302F1CD3F
:105480008091EE039091EF03892B09F0EACD809192
:10549000DC039091DD031816190664F401979093CC
:1054A000DD038093DC03EEE1F0E0F093EF03E093A3
:1054B000EE03D7CD87E092E00E94EC13883019F418
:1054C00092E09093ED0387E092E00E94EC13893024
:1054D00050F380910F02909110020896A9EABBE068
:1054E000B0930C02A0930B029093100280930F02D2
:1054F00010921202109211021092140210921302D2
:105500001092170210921602109215023092F103B7
:105510002092F003C8CF80910D0290910E0297FD6A
:10552000079623E0959587952A95E1F72091E0036A
:105530003091E103820F931F9093E1038093E00386
:105540001092ED03E0900502F090060200E110E0F9
:1055500021E048E050E0B801C7010E94E5100F5F6C
:105560001F4F00371105A1F700E110E021E047E3EC
:1055700050E0B801C7010E94E5100F5F1F4F0037D0
:105580001105A1F708E010E021E0A80160E170E05A
:10559000C7010E94E5100F5F1F4F08331105A1F7E7
:1055A00008E010E021E0A8016FE670E0C7010E946A
:1055B000E5100F5F1F4F08331105A1F7C0900502DA
:1055C000D090060201E110E089E0E82EF12C20E005
:1055D000A701B801C6010E94E510FFEFEF1AFF0A0C
:1055E00027E3E216F10499F70F5F1F4F0F361105FD
:1055F00059F7A0900502B09006021CE0C12ED12CF4
:10560000F12CE12C00E8802E912C10E000E0F80154
:10561000B3E0F595E795BA95E1F7EE0DFF1DE6517C
:10562000F54FE491C80187709927D40102C0B59560
:10563000A7958A95E2F7CD01F0E0EA23F923EF2B55
:1056400041F021E0A601B801625E7F4FC5010E94D2
:10565000E5100F5F1F4F08341105C9F6B9E0EB0ED6
:10566000F11CEFEFCE1ADE0AFEE7EF16F10469F641
:105670008091050290910602FC01EC5EFB4F0AE16D
:1056800010E01183008332962DE130E031832083D6
:1056900064EE7AE00E94690A809105029091060208
:1056A000FC01EC5EFB4F24E130E031832083329635
:1056B00025E230E0318320836DED7AE00E94690AB3
:1056C0008091050290910602FC01EC5EFB4F118374
:1056D000008332962DE230E03183208367ED7AE05B
:1056E0000E94690A6091DE037091DF038DE10E94E0
:1056F0004C1E6091E0037091E10385E20E944C1E14
:105700006091DE037091DF038091E0039091E103EB
:10571000680F791F7093DF036093DE038DE20E94B0
:105720004C1E07CD88E590E04FCD10E08091A90197
:10573000181728F4812F0E94DF0C1F5FF7CF1092FB
:105740006F01E090DE03F090DF03E114F10409F44F
:1057500002C202E310E0C8010E94931ED82EC801C5
:1057600001960E94931E2FEFD21203C08F3F09F4BF
:105770008DC19D2D21E0250D8E159F0508F0A1C23C
:1057800080E289838A838B830E94F30710E050E1D3
:10579000652E712C6AE4A62E61E0B62E74E1C72E48
:1057A000D12CE8E42E2E312CF1E24F2EE12E012EE9
:1057B000000CFF0837E0E30EF11C43E0EE0CFF1C89
:1057C0004A95E1F7470186E0880E911C0E94E407A4
:1057D00070920F0860920E08109211081092100833
:1057E00064EE7BE08AEF93E00E94690A8091DF0318
:1057F0008F938091DE038F93BF92AF92AFE8B1E0B9
:10580000BF93AF930E94C72F28E530E030930F0875
:1058100020930E0810921108109210080E949E1AF0
:1058200088E390E090930F0880930E08D0921108BF
:10583000C092100869818AEF93E00E943B12A0E4B5
:10584000B0E0B0930F08A0930E08D0921108C09258
:1058500010086A818AEF93E00E943B1230920F0891
:1058600020920E08D0921108C09210086B818AEF26
:1058700093E00E943B1201E02BE130E04EE350E068
:105880006BE170E088E390E00E9409112BE130E0C9
:1058900046E450E06BE170E080E490E00E94091182
:1058A0002BE130E04EE450E06BE170E088E490E002
:1058B0000E94091100E02CE130E048E550E06CE185
:1058C00070E088E390E00E94091101E02CE130E0F3
:1058D000A4016CE170E0C7010E9409118EE094E020
:1058E0000E945E0C0E9407080F900F900F900F907F
:1058F0000F900F90882309F469CF0E94430C082F62
:1059000087FD02C080FF0FC0115008F4C2C0809113
:105910000301882341F04AEF50E060E070E086E147
:1059200094E00E946D0706FF10C01F5F133008F05F
:10593000B2C080910301882341F04AEF50E060E05B
:1059400070E086E194E00E946D0701FF44C0E12E03
:10595000012E000CFF08E1E0F0E0EC0FFD1FEE0D62
:10596000FF1D90809394908280910301882341F0E1
:105970004AEF50E060E070E08BE092E00E946D073B
:10598000B0E39B1208C080E2E1E0F0E0EC0FFD1F05
:10599000EE0DFF1D8083E1E0F0E0EC0FFD1FEE0D4A
:1059A000FF1D8081813211F421E42083E1E0F0E0E9
:1059B000EC0FFD1FEE0DFF1D80818B3511F430E3E0
:1059C0003083E1E0F0E0EC0FFD1FEE0DFF1D808164
:1059D000803409F4408203FF45C0E12E012E000C03
:1059E000FF08E1E0F0E0EC0FFD1FEE0DFF1D9080E1
:1059F0009A94908280910301882341F04AEF50E00D
:105A000060E070E08BE092E00E946D0780E2981207
:105A100008C08FE3E1E0F0E0EC0FFD1FEE0DFF1D8D
:105A20008083E1E0F0E0EC0FFD1FEE0DFF1D8081B3
:105A30008F3211F48AE58083E1E0F0E0EC0FFD1F86
:105A4000EE0DFF1D80818F3111F48FE28083E1E044
:105A5000F0E0EC0FFD1FEE0DFF1D8081803411F48E
:105A600080E2808304FF26C1809103011230ACF4F0
:105A70001F5F882341F04AEF50E060E070E086E16C
:105A800094E00E946D070E94F30790CE90E080E0C2
:105A900071CE10E048CF12E058CF882341F04AEF92
:105AA00050E060E070E086E194E00E946D0795E0D0
:105AB000599E800111240E5C1F4FC8010E94931E45
:105AC000682E4801AFEF8A1A9A0AC4010E94931EF9
:105AD000BFEF6B1203C08F3F09F4F0C0762C682E25
