:100000000C942B070C9453070C9453070C94530730
:100010000C9453070C9453070C9453070C945307F8
:100020000C9453070C9453070C94D71C0C94461D46
:100030000C9453070C9453070C9453070C945307D8
:100040000C9453070C9489200C9453070C94530779
:100050000C9453070C9453070C9453070C94781F7B
:100060000C9453070C9453070C9453070C945307A8
:100070000C9453070C9453070C9453070C94530798
:100080000C94C21F0C9453070C9453070C94530701
:100090000C9453070C9453070C9453070C94530778
:1000A0000C9453070C9453070C9453071818181802
:1000B00018181818000000000000000003030303D4
:1000C000030303030000000000000000C0C0C0C024
:1000D000C0C0C0C0000000000000000018181818C0
:1000E00018181818000000000000000000008686A4
:1000F0008686868600000000000000000000616126
:10010000616161614242424242424242000000005B
:10011000C0C0C0C000245A665A5A2418000000000B
:10012000000000000000000000000000844667237B
:10013000190185C3C7C3811131317E3C84C6E7678D
:10014000BBC3C7C3C7C3C7B979F17E3C84C6E7E761
:10015000FFC3C7C3C7C3C7FDF9F17E3C0000000061
:10016000003E5B4F5B3E3E6B4F6B3E1C3E7C3E1C3D
:10017000183C7E3C181C577D571C1C5E7F5E1C0083
:10018000183C1800FFE7C3E7FF0018241800FFE73A
:10019000DBE7FF30483A060E2629792926407F05FD
:1001A0000507407F05253F5A3CE73C5A7F3E1C1C13
:1001B00008081C1C3E7F14227F22145F5F005F5FD3
:1001C00006097F017F006689956A606060606094BF
:1001D000A2FFA29408047E040810207E20100808C4
:1001E0002A1C08081C2A08081E101010100C1E0CCF
:1001F0001E0C30383E3830060E3E0E060000000061
:100200000000005F00000007000700147F147F1447
:10021000242A7F2A1223130864623649562050008C
:1002200008070300001C2241000041221C002A1C78
:100230007F1C2A08083E0808008070300008080863
:100240000808000060600020100804023E51494583
:100250003E00427F400072494949462141494D33A1
:100260001814127F1027454545393C4A4949314108
:10027000211109073649494936464949291E0000D6
:10028000140000004034000000081422411414142B
:100290001414004122140802015909063E415D5917
:1002A0004E7C1211127C7F494949363E4141412220
:1002B0007F4141413E7F494949417F090909013E4A
:1002C000414151737F0808087F00417F4100204071
:1002D000413F017F081422417F404040407F021C83
:1002E000027F7F0408107F3E4141413E7F0909099A
:1002F000063E4151215E7F09192946264949493266
:1003000003017F01033F4040403F1F2040201F3F2B
:100310004038403F631408146303047804036159B0
:10032000494D43007F4141410204081020004141F2
:10033000417F04020102044040404040000307089E
:100340000020545478407F2844443838444444289A
:10035000384444287F385454541800087E09021841
:10036000A4A49C787F0804047800447D40002040C9
:10037000403D007F1028440000417F40007C04780D
:1003800004787C080404783844444438FC18242455
:100390001818242418FC7C080404084854545424D5
:1003A00004043F44243C4040207C1C2040201C3C52
:1003B0004030403C44281028444C9090907C446449
:1003C000544C4400083641000000770000004136DC
:1003D000080002010204023C2623263C1EA1A16162
:1003E000123A4040207A3854545559215555794194
:1003F0002154547841215554784020545579400C6B
:100400001E5272123955555559395454545939554B
:100410005454580000457C410002457D420001458E
:100420007C40F0292429F0F0282528F07C545545FB
:10043000002054547C547C0A097F4932494949328E
:100440003248484832324A4848303A4141217A3AA3
:1004500042402078009DA0A07D39444444393D406D
:1004600040403D3C24FF2424487E4943662B2FFC1A
:100470002F2BFF0929F620C0887E090320545479C8
:10048000410000447D413048484A32384040227A99
:10049000007A0A0A727D0D19317D2629292F282616
:1004A0002929292630484D4020380808080808081E
:1004B0000808382F10C8ACBA2F102834FA00007B77
:1004C000000008142A142222142A1408950022007D
:1004D00095AA005500AAAA55AA55AA000000FF0037
:1004E000101010FF00141414FF001010FF00FF1074
:1004F00010F010F0141414FC001414F700FF0000A6
:10050000FF00FF1414F404FC141417101F10101F24
:10051000101F1414141F00101010F0000000001F12
:10052000101010101F10101010F010000000FF101D
:100530001010101010101010FF10000000FF140019
:1005400000FF00FF00001F10170000FC04F414144B
:100550001710171414F404F40000FF00F714141417
:1005600014141414F700F7141414171410101F1097
:100570001F141414F4141010F010F000001F101FBA
:100580000000001F14000000FC140000F010F01028
:1005900010FF10FF141414FF141010101F0000009F
:1005A00000F010FFFFFFFFFFF0F0F0F0F0FFFFFFA3
:1005B0000000000000FFFF0F0F0F0F0F38444438FA
:1005C000447C2A2A3E147E02020606027E027E0235
:1005D00063554941633844443C04407E201E200654
:1005E000027E020299A5E7A5991C2A492A1C4C7291
:1005F00001724C304A4D4D303048784830BC625A18
:10060000463D3E494949007E0101017E2A2A2A2AA7
:100610002A44445F444440514A444040444A514083
:100620000000FF0103E080FF000008086B6B083644
:1006300012362436060F090F0600001818000000B5
:100640001010003040FF0101001F01011E00191DA4
:100650001712003C3C3C3C00000000000601150164
:10066000260137014A015D01720188019F01B8012D
:10067000D201EE010B022A024B026E029302BA0271
:10068000E40210033F037003A403DC0317045504C2
:100690009704DD0427057505C80520067D06E006DC
:1006A0004907B8072D08A9082D09B9094D0AEA0A12
:1006B000900B400CFA0CC00D910E6F0F5A10531195
:1006C0005B1272139A14D41520178018F519801B29
:1006D000231DDE1EB420A622B524E4263429A72B30
:1006E000402E0031EA330037453ABC3D68414C4565
:1006F0006B49C84D68524F57805C0062101112134D
:10070000151617181A1C1D1F21232527292C2E31D9
:1007100034373A3E4145494E52575C62686E757BAC
:10072000838B939CA5AFB9C4D0DCE9F7000000022D
:1007300000090F0000030401000C0000000000008D
:100740000000000000000000000000080B00020292
:10075000020000090400000102020000052400104C
:1007600001052401010104240206052406000107F5
:1007700005810310004009040100020A000000077F
:10078000050202400000070583024000000403093F
:100790000412010002EF02014041233680000101F2
:1007A00002030141726475696E6F204C4C43004135
:1007B000726475626F7900F0F89C8E8783878E9CD7
:1007C000F8F00000FEFF0303030303070EFCF8002C
:1007D00000FEFF0303030303070EFCF80000FFFF06
:1007E00000000000000000FFFF0000FEFF83838385
:1007F0008383C7EE7C380000F8FC0E070303030771
:100800000EFCF800003F7FE0C08080C0E07F3FFF2B
:10081000FF01010101010101FFFF0000FFFF0C0CBE
:100820000C0C1C3E77E3C100007FFFC0C0C0C0C0FD
:10083000E0703F1F00001F3F70E0C0C0C0E0703F8D
:100840001F00007FFFC1C1C1C1C1E3773E1C000092
:100850001F3F70E0C0C0C0E0703F1F0000000000FC
:1008600001FFFF0100000000000000240027002A13
:10087000002D003000D5F08D14A1C881CFD9F1AF83
:1008800020000B020A0212020402080201021501F2
:100890001701160100A542E7E7FFC3DFC3C7EBC797
:1008A000FDF9F17E3C42A5E7E7FFC3DFC3C7EBC715
:1008B000FDF9F17E3C0000000000000070F888881F
:1008C00008383000080808F8F808080800F8F88820
:1008D000888888080000F8F8000000000000F8F898
:1008E00000000000000000E07878E0000000F8F868
:1008F00008080808F8F0000000000000F8F8000000
:10090000F8F8E080000080E0F8F80000F8F8080847
:100910000808F8F00000E07878E0000000E0F01847
:100920000808183000080808F8F80808080000004F
:100930000000000000000000000000000C1C10116E
:10094000111F0E000000001F1F000000001F1F10DD
:100950001010101000001F1F1010101010001F1F8B
:100960001010101010181F070404071F18001F1F75
:10097000010101010F1E1000000000001F1F0000F8
:100980001F1F01071E1E07011F1F00001F1F01015F
:1009900001010100181F070404071F1800070F18A2
:1009A0001010180C000000001F1F000000000000C5
:1009B0000000000000000000FC202020FC000010CF
:1009C000F4000000205250509000E0101010A000E1
:1009D000E0101010E000F02010102000E050505007
:1009E0006000100000000000004000000000000057
:1009F0000000040000000000000000000000207063
:100A000060C0E8FC3830E00000000000000000009A
:100A100002000000000000008080404020202010E4
:100A2000107078F8F8F8FCFCFCFCFCFCFCFCFCFC0E
:100A3000FCFC78787800000001000400010000014F
:100A4000010100000101010100000001010100009D
:100A5000000101010000010000000000000101216F
:100A60000000010000000000000000000000000085
:100A70000000000000000000010000000000000075
:100A800000010103070B01000000000000000080CE
:100A900040201008040402010000000000000000D3
:100AA0000000000000000000000000000000000046
:100AB000000000C0C0000000E0202020C0080000AE
:100AC0000000000000000000000000000000000026
:100AD00000000000040000000000000000804080D2
:100AE00000004000000000000000000000000001C5
:100AF00000000000000000000000000040000000B6
:100B000000000000000000000000C0300CC2F1F83E
:100B1000FCFEFEFEFEFEFEFEFFFFFFFFFFFFFFFEF0
:100B20007C38000000000000000000000000000011
:100B300000000083830000001F01810100001F02EC
:100B4000010102000E1515150600121515150900F4
:100B5000129515150900000010000000021F020088
:100B600000111F9000001F02010102000E15151553
:100B7000060000000000000000000000000000006F
:100B800000000000000000E01C0300000003070F4D
:100B9000FFFFFFFFFFFFFFFFFFFFEFC78301010024
:100BA0000000000000000000008080000000000045
:100BB00000000FFFFF00000002021F2212001C2293
:100BC00022221C000000000100242A2A2A1200020E
:100BD000021F221200102A2A3C20003E04020204B6
:100BE0000002021F221200000000000000000004AA
:100BF000000000000000000048B4FCFC7CE4A49865
:100C0000000000000000FE010000000000003E3E69
:100C1000FFFFFFFFFFFFFFFFFF7F7F1F0F000000B1
:100C2000000000000080FEFFFFFFFFFFFFFEF8E076
:100C30008000000103000000000000000000002010
:100C400000000000000000000000000000000000A4
:100C50000000004000000000000000000000000054
:100C60001000000000000000000000000000000074
:100C70000000000000000000000000000001010171
:100C80000000000000001FE0000000000000FCFE6B
:100C9000FFFFFFFF0F07030100000000000000003E
:100CA00000387CFEFE7F7F7F7F7F3F3F1F1F1F1F1F
:100CB0001F0F000000040802011040804010204077
:100CC0008040800802040180402010020110801042
:100CD0002040402000000000250028002B002E00AE
:100CE00031000404040404030405020202020403A4
:100CF00002020202060606060606040402020204B6
:100D0000040301CCD2F23E7E7E2255CCD2F23E7E4E
:100D10007E5522425A76343C7E6681425A76343C75
:100D20003CC342617179FF8E8E8FFFFFFFFFFE7C17
:100D3000381028868E9EFF7F7FFF83ABD7FF7F3ED4
:100D40001C0814617179FF8E8E8FFFFFFFFFFE7C00
:100D5000382810868E9EFF7F7FFF83ABD7FF7F3EB4
:100D60001C14081818183C3C3C3C3C3CBCFCFCFCEB
:100D7000FCFCFCFCFCFCFEFEFEFFFFFFFFFFFFFF98
:100D8000FFFFFF00000080E0F0FCFEFFFFFFFFFF21
:100D9000FFFFFFFFFFFFFF8F6FEFEFEF0FEFEFEFB3
:100DA0006F8FFFC3FBFFFFFF7F1F0F07030301814F
:100DB00080404020FFFFFF73B3BEBEBEBFBEBEBEBD
:100DC000BF7FFFFFFFFFFF3938545492921111107B
:100DD00010101010FFFFFF4CCBFBFBFBFBFB7B7BE2
:100DE0007BFCFFC3DFFFFFFFFCF0E0C0808101025E
:100DF00002040408FFFFFF9897F7F7FBFDFEFFFFD3
:100E0000FFF0FF00000001070F3F7FFFFFFFFFFF24
:100E1000FEFEFEFEFFFFFFF0EFEFEFF7FBFDFEFE35
:100E2000FEE1FF1818183C3C3C3C3C3C3D3F3F3F3A
:100E30003F3F3F3F3F3F3F7F7F7FFFFFFFFFFFFF82
:100E4000FFFFFF0E3F7EFCFC7E3F0E3C4285BDBD9A
:100E500085423C00F42011241FBECFEFDAE0DEBF54
:100E6000CDBF11E0A0E0B1E0ECEEF9E502C00590E5
:100E70000D92A03AB107D9F728E0A0EAB1E001C08D
:100E80001D92AE34B207E1F717E0CBE2D7E004C021
:100E90002197FE010E94112ACA32D107C9F70E9488
:100EA0006D210C94F42C0C9400002F923F924F92E1
:100EB0005F926F927F928F929F92AF92BF92CF92EA
:100EC000DF92EF92FF920F931F93CF93DF93CDB7F3
:100ED000DEB72A970FB6F894DEBF0FBECDBF822EC5
:100EE000912C9401280F391F37FDC1C0803891051E
:100EF0000CF0BDC09B01200F311D37FDB8C0603420
:100F000071050CF0B4C09B0177FF04C02227332782
:100F1000261B370B27703327DB0177FD1796E3E09D
:100F2000B595A795EA95E1F777FF07C0119768E0B7
:100F300070E0FB01E21BF30B9F01069506950695F9
:100F4000602E712CBA01681B790B7A8769875D0165
:100F5000B694BA2CAA24B794A794A80EB91EB88741
:100F6000AF83F12CE12C250170E8470E511CA5013F
:100F70004C5C5B4F5C834B8368E070E0AB01421BD1
:100F8000530B5E834D834F8158854F3F5F4F0CF469
:100F900053C015012E0C3F1CA2014E0D5F1D5A833C
:100FA00049830B811C810E0D1F1DBC0177FD36C0CE
:100FB0004F8158854F3F5F4F09F472C0E985FA852C
:100FC000E60FF71FE491F0E0AF01022E01C0440FDD
:100FD0000A94EAF7F8015489452B448B2115310511
:100FE000E9F04F81588547305105C1F0E985FA8510
:100FF000E60FF71FE4916801C218D30849815A81AE
:10100000C40ED51EF0E0AF010D8002C05595479586
:101010000A94E2F7F6015489452B448B6F5F7F4FAA
:101020000F5F1F4FFB01E81BF90BE815F90524F4CE
:101030006038710509F0BACF4F8158854F5F5F4F17
:1010400058874F8369857A85680D791D7A87698706
:1010500070E8E70EF11CBA016A1B7B0B6615770579
:1010600034F46F8178856830710509F08CCF2A9649
:101070000FB6F894DEBF0FBECDBFDF91CF911F91A9
:101080000F91FF90EF90DF90CF90BF90AF909F9027
:101090008F907F906F905F904F903F902F9008952A
:1010A0002115310509F0A2CFB9CF0F93CF93DF936C
:1010B000C3E1D4E08C818823A9F0888181508883A2
:1010C000811101C01C829C81992361F0698170E0CB
:1010D00090E02B8108E021110EC028E043E45EE09F
:1010E0000E945507259684E0C133D80719F7DF9190
:1010F000CF910F91089528E04BE45EE0F1CF4F923D
:101100005F926F927F928F929F92AF92BF92CF9297
:10111000DF92EF92FF92CF93DF93EC014A015B01E4
:1011200081E080931D02712C612C60E072E18AE7FE
:1011300090E0A3019E010E949A2969017A0181E051
:10114000C81AD108E108F10891E0C114D10481E086
:10115000E806F10484F068E478EE81E090E0A30111
:101160009E010E949A2969017A0181E0C81AD1087A
:10117000E108F10893E080918100887F892B8093BA
:101180008100DE01AA0FBB1FA50194010E94B929AD
:1011900028EE33E040E050E00E94CC29D092890054
:1011A000C09288002093190230931A0240931B02C8
:1011B00050931C0280916F00826080936F00DF91DA
:1011C000CF91FF90EF90DF90CF90BF90AF909F9026
:1011D0008F907F906F905F904F90089588E494E097
:1011E00020E0B22FB111BFEFFC010024B193B19305
:1011F000B193B1930394D1F70895FC01809110024B
:10120000882311F13FB7F89482E08093E9002091A0
:10121000F200822F90E01816190614F481E090E095
:10122000882339F0289844E640930F024091F1005A
:101230004083222339F02091F200211103C02BE6D4
:101240002093E8003FBF08958FEF9FEF08952FB7D9
:10125000F89483E08093E9009091E800892F8072F0
:1012600095FF04C09091F20080E4891B2FBF089580
:101270008091070281110DC082E08093030284E017
:1012800080930402109206021092050281E080937E
:10129000070283E092E008954091B5015091B601B4
:1012A0002091B3013091B40142175307B4F49091E7
:1012B000E8009570E1F39091E80092FD19C08093E9
:1012C000F1008091B5019091B60101968F73992735
:1012D000892B19F48EEF8093E8008091B5019091ED
:1012E000B60101969093B6018093B50181E008950F
:1012F00080E00895EF92FF920F931F93CF93DF93B7
:10130000F82E192FE62E042F81E0860F880F0E94F9
:101310004C0983E00E944C09CF2DD12FEC0EFD2EFD
:10132000F11CCE15DF05B9F007FF13C0FE01849153
:101330000E944C09182F80E00E944C0981232196BD
:101340008111EFCFDF91CF911F910F91FF90EF901F
:1013500008958881EDCF81E0F5CFDF92EF92FF9283
:101360000F931F93CF93DF93D82E8A01EB017B015C
:10137000E40EF51ECE15DF0559F0D7FE12C0FE01B2
:1013800084910E944C0921968111F4CF0FEF1FEF39
:10139000C801DF91CF911F910F91FF90EF90DF90E7
:1013A00008958881EECF0F931F93CF93DF931F9201
:1013B000CDB7DEB782E0898342E450E06BE477E0AA
:1013C00080E80E94AD090E943809DC0112960D9157
:1013D0001C910115110589F0D801ED91FC91028055
:1013E000F381E02DBE016F5F7F4FC801099597FD26
:1013F00004C0F80100851185ECCF89810F90DF9141
:10140000CF911F910F910895615030F02091F1001C
:10141000FC0120830196F8CF289884E680930F0280
:101420000895AF92BF92CF92DF92EF92FF920F9307
:101430001F93CF93DF936C017B018B01040F151F6A
:10144000EB015E01AE18BF08C017D10759F06991D2
:10145000D601ED91FC910190F081E02DC601099536
:10146000892B79F7C501DF91CF911F910F91FF90E3
:10147000EF90DF90CF90BF90AF900895CF93DF9320
:101480001F92CDB7DEB76983DC01ED91FC9102803C
:10149000F381E02D41E050E0BE016F5F7F4F099581
:1014A0000F90DF91CF91089583E08093E9008091C0
:1014B000F200882319F08AE38093E80008950E94DF
:1014C000270990E00895CF93DF931F92CDB7DEB741
:1014D000FC018485958597FD08C02FEF3FEF358788
:1014E00024870F90DF91CF910895CE0101960E943D
:1014F000FD08019719F4898190E0F3CF8FEF9FEFFA
:10150000F0CF0F931F93CF93DF931F92CDB7DEB72A
:101510008C01FC018485958597FF0BC0CE01019657
:101520000E94FD08019771F4898190E0F801958788
:101530008487F801848595850F90DF91CF911F9165
:101540000F9108958FEF9FEFF1CFFC018485958572
:1015500097FD0BC09FB7F89482E08093E9008091DB
:10156000F2009FBF90E0019608959FB7F89482E043
:101570008093E9008091F2009FBF90E00895282FAA
:1015800030E0F901E45DF84F9491F901EB54F34F29
:1015900084912E51334FF9012491222309F430C054
:1015A0009923E9F091509F30D0F4E92FF0E0E55213
:1015B000F54F0C94112A090B0D0BEA0A010B050BD0
:1015C000EF0AEF0AEF0A100B160B1A0B1E0B240B77
:1015D000EF0A280B909180009F7790938000E22F74
:1015E000F0E0EE0FFF1FEC52F34FA591B4919FB7BF
:1015F000F894EC91611132C080958E238C939FBF3B
:101600000895909180009F7DE8CF90918000977F12
:10161000E4CF94B59F7794BDE2CF94B59F7DFBCF87
:10162000909190009F7790939000D9CF90919000E7
:101630009F7DF9CF90919000977FF5CF9091C0005A
:101640009F779093C000CBCF9091C0009F7DF9CF42
:101650009091C200977F9093C200C1CF8E2BCECFC6
:10166000CF93DF9390E0FC01EB54F34F24918E5124
:10167000934FFC0184918823C9F090E0880F991F53
:10168000FC01E959F74FA591B491FC01EC52F34FDD
:10169000C591D49161110DC09FB7F8948C9120959C
:1016A00082238C938881282328839FBFDF91CF9149
:1016B0000895623051F49FB7F8943C91822F809541
:1016C00083238C93E8812E2BEFCF8FB7F894EC9186
:1016D0002E2B2C938FBFEACF3FB7F8948091AF01A8
:1016E0009091B001A091B101B091B20126B5A89B33
:1016F00005C02F3F19F00196A11DB11D3FBFBA2FA4
:10170000A92F982F8827BC01CD01620F711D811D63
:10171000911D42E0660F771F881F991F4A95D1F7E8
:1017200008958F929F92AF92BF92CF92DF92EF92E5
:10173000FF924B015C010E946C0B6B017C010E94CB
:101740006C0B6C197D098E099F09683E73408105F9
:101750009105A8F321E0821A9108A108B10888EE4A
:10176000C80E83E0D81EE11CF11C81149104A10471
:10177000B10429F7FF90EF90DF90CF90BF90AF902A
:101780009F908F9008958F929F92AF92BF92CF9229
:10179000DF92EF92FF920F931F93CF93DF936C0131
:1017A0007B018A0180911101882309F45CC080913A
:1017B0001002882309F457C08091B90180FF05C049
:1017C0008091E00082608093E000E801B12C8AEF14
:1017D000A82E93E0892E2AE3922E209711F4BB20A5
:1017E000D9F10E94270981110AC0AA94AA20D9F12F
:1017F00061E070E080E090E00E94910BEECF8C17EA
:101800001D0611F00CF08C2F9FB7F8948092E90020
:101810002091E80025FD02C09FBFDFCF282F30E0D8
:10182000C21BD30BF701815020F041914093F1008E
:10183000FACFE20EF31EBB2021F09092E800B12C0B
:10184000EBCF8091E80085FDE7CF9092E800BB24C4
:10185000B394209709F3F3CF5D9884E68093B801A1
:10186000101611063CF081E090E0F601938382832C
:1018700010E000E0C801DF91CF911F910F91FF9020
:10188000EF90DF90CF90BF90AF909F908F90089592
:1018900043B18FB129B190E08095909534E0959552
:1018A00087953A95E1F7887030E02095309553E0C0
:1018B000359527955A95E1F72370822B942F9095B3
:1018C000907D892B0895FC0121912EBD9C5F219173
:1018D0000DB407FEFDCF2EBDE817F907C1F70DB413
:1018E00007FEFDCF0895CF92DF92EF92FF920F9304
:1018F0001F93CF93E82FF0E0EF5FF24FC491E62FF4
:10190000F0E0603398F5E450F94FE4910E2F10E0C9
:10191000F12CE12C60E074E284EF90E0A7019801E3
:101920000E949A29215031094109510991E021155C
:10193000310581E0480751056CF060E970ED83E006
:1019400090E0A70198010E949A292150310941098C
:10195000510993E0C13089F0C330F9F0CF911F9164
:101960000F91FF90EF90DF90CF900895EE0FFF1F43
:10197000E450FA4F05911491CBCF80918100887F7C
:10198000892B809381003093890020938800809177
:101990006F00826080936F00E1CF80919100887F1B
:1019A000892B809391003093990020939800109395
:1019B000AD010093AC0181E08093AB018091710097
:1019C000826080937100CACFE82FF0E0EF5FF24FA2
:1019D000E491E13019F0E33089F0089580916F00CF
:1019E0008D7F80936F0080911402E0911502F09139
:1019F0001602908180958923808308951092AB010F
:101A000080911102E0911202F0911302F2CFCF9374
:101A100080911702823081F0E82FF0E0EF5FF24F03
:101A2000C4918F5F8093170261E089E00E94300BC0
:101A3000C13021F0C33021F1CF9108951092800080
:101A40001092810080918100886080938100809154
:101A50008100816080938100EBEEFCE0E491F0E096
:101A6000EE0FFF1FEC52F34F859194919093160265
:101A700080931502EEEBFCE0E491E0931402DCCFDE
:101A80001092900010929100809191008860809354
:101A9000910080919100816080939100EBEEFCE0D9
:101AA000E491F0E0EE0FFF1FEC52F34F859194911B
:101AB0009093130280931202EEEBFCE0E491E0932A
:101AC000110280911702882321F06CE380E00E94CC
:101AD000730C80E0CF910C94E40C1092F001E4E6DA
:101AE000F0E0808188608083E5E6F0E080818860B6
:101AF00080830895E4E6F0E08081877F8083E5E6D7
:101B0000F0E08081877F808381E08093F0010895F9
:101B100060387105E8F440345105D0F4342F36951F
:101B200036953695A0E83A9FF0011124E60FF71F8D
:101B3000E80FF91F3489CA018770992741E050E006
:101B400001C0440F8A95EAF7222319F0432B448BF6
:101B5000089540954323FBCFCF93DF93CFE6D2E0A8
:101B60008C81882309F14B8150E06A8170E021E08B
:101B700084E394E00E94880D2A81211101C01C8217
:101B8000688170E080913B0490913C040E94FD29A3
:101B9000892B51F480911601882331F080911E0227
:101BA000811102C021502A83259683E0C530D807D1
:101BB000B9F6DF91CF9108952F923F924F925F92A5
:101BC0006F927F928F929F92AF92BF92CF92DF924D
:101BD000EF92FF920F931F93CF93DF9300D000D02B
:101BE000CDB7DEB77C018B01242F30E03C832B8303
:101BF00081E090E05C01A21AB30A190131942194AA
:101C00003108220C331CA901460F571F21E0B701F0
:101C100084E394E00E94880DA8018B819C81481B7D
:101C2000590B21E0B70184E394E00E94880D6B8199
:101C30007C816E0D7F1D21E0A80184E394E00E9469
:101C4000880DB7012B813C81621B730B21E0A80139
:101C500084E394E00E94880DD12CC12C81E090E0B7
:101C60009A8389832B813C81C216D3060CF06DC008
:101C7000B7FC09C0215031093C832B8332E0230E8D
:101C8000311CA20CB31C8FEFC81AD80A29813A81E3
:101C90002E5F3F4F3A832983A20EB31E37016C0C8F
:101CA0007D1C21E08B809C80800E911EA401B301DD
:101CB00084E394E00E94880D27014C185D0821E020
:101CC000A401B20184E394E00E94880D21E0480160
:101CD0008B819C81881A990AA401B30184E394E062
:101CE0000E94880D21E0A401B20184E394E00E94E7
:101CF000880D4601800E911E21E0A4016B807C803E
:101D00006E0C7F1CB30184E394E00E94880D21E0F7
:101D1000A40127018B819C81481A590AB20184E3EE
:101D200094E00E94880D48018C189D0821E0A401D0
:101D3000B30184E394E00E94880D21E0A401B20184
:101D400084E394E00E94880D8DCF0F900F900F9048
:101D50000F90DF91CF911F910F91FF90EF90DF9047
:101D6000CF90BF90AF909F908F907F906F905F903B
:101D70004F903F902F9008952F923F924F925F92F5
:101D80006F927F928F929F92AF92BF92CF92DF928B
:101D9000EF92FF920F931F93CF93DF93CDB7DEB7F0
:101DA0002D970FB6F894DEBF0FBECDBF6A3069F530
:101DB000FC01EA5EFB4FDC01A85EBB4F2C9148E0C2
:101DC000249F9001112440815181240F351F3183BC
:101DD000208314971D921C922D960FB6F894DEBFA7
:101DE0000FBECDBFDF91CF911F910F91FF90EF906C
:101DF000DF90CF90BF90AF909F908F907F906F902B
:101E00005F904F903F902F9008956D3029F39D87FC
:101E10008C878C5E9B4F9A838983FC0180809180A4
:101E20002C853D85285E3B4F3C832B8330E8831611
:101E300091040CF071C0EC85FD85EA5EFB4F60807B
:101E4000718040E4641671040CF066C0AB81BC8103
:101E50004C9045E09401449E200D311D1124121632
:101E600013060CF059C0242C312C910153E0220FA1
:101E7000331F5A95E1F7260D371D121613060CF085
:101E80004BC0649FB001112410E000E0FB01E45A54
:101E9000FE4FFB87EA87E0E0053029F0EA85FB8505
:101EA000E00FF11FE491530198E0592E2E2F30E0FE
:101EB0003E832D83E170EF83F12CE12CE414D8F400
:101EC000C4018E0D9F1D99878887D12CC12CC41405
:101ED00070F4A6014A0D5B1D2F81688579858C857C
:101EE0009D850E94880D9FEFC91AD90AF0CFAFEFE8
:101EF000EA1AFA0AE3CFED81FE81F595E7955A9447
:101F0000A20CB31C5110D2CF0F5F1F4F820C931C39
:101F10000630110509F0BFCFEB81FC812081422FF3
:101F200050E0A981BA818D919C91B6E02B9F800DE4
:101F3000911D1124E981FA8191838083EC85FD85CF
:101F4000E75EFB4F2081222309F446CF6AEF64034A
:101F50009001659F300D112420583F4F28173907F5
:101F60000CF03ACFAC85BD85ED91FC9111970190B5
:101F7000F081E02D6AE0CD012D960FB6F894DEBF1A
:101F80000FBECDBFDF91CF911F910F91FF90EF90CA
:101F9000DF90CF90BF90AF909F908F907F906F9089
:101FA0005F904F903F902F900994089590E080E0CB
:101FB00008959F92AF92BF92CF92DF92EF92FF92DD
:101FC0000F931F93CF93DF9387EDE82E81E0F82ED8
:101FD00096ECC92E91E0D92E23E1A22E24E0B22E58
:101FE00012E03FE0932EF7018081882309F469C055
:101FF000F6018081882309F464C0C5E0D3E0F701CD
:1020000030812989832F90E0422F50E03217A0F0D1
:102010002D89240F352F311D281739076CF0F60153
:1020200060813A89631740F02E89230F3327331FCD
:102030006217130609F104F19C01285F3F4F241732
:1020400035079CF107962D89240F352F311D8217F6
:1020500093075CF5F601808190E02A8930E0AC01BD
:10206000485F5F4F4217530704F107964E89240FCC
:10207000311D82179307CCF48F89988D0197988F23
:102080008F8B10930002909201028091FA018823B5
:1020900041F040E550E060E070E084E690E00E94AE
:1020A0007F08F7011082F60110826B96AC16BD0610
:1020B00009F0A5CFF701C081C937D8F01082F60129
:1020C0001082FFEFEF1AFF0A8FEFC81AD80AE8EE66
:1020D000EE16E1E0FE0609F086CFDF91CF911F9169
:1020E0000F91FF90EF90DF90CF90BF90AF909F90B7
:1020F0000895F601608170E008E028E044E151E0D5
:102100008C2F90E00E94550780911E028111D9CF3B
:10211000CF5FF701C083D5CFCF930E94480C86FFD5
:1021200026C0C091A2010E94480C87FF20C00E94D7
:10213000480C83FF1CC00E94480C81FF18C0C111CD
:102140002CC08091FA0190911E02911119C0882330
:1021500041F040E550E060E070E080E293E00E94F2
:102160007F0881E080931E028EE18093A20180911E
:10217000A201882319F081508093A201CF91089584
:10218000882341F040E550E060E070E08CEB92E0A5
:102190000E947F0810921E02E7CF8091A201EBCF30
:1021A000FC0180911401882309F47CC091898091FD
:1021B000ED01482F50E0692F70E0891710F18589F3
:1021C000860F972F911D84179507DCF02289809147
:1021D000EE01821740F0A689A20FBB27BB1F8A170A
:1021E0001B06D9F1D4F190E030E0DC011896A2177B
:1021F000B3073CF00796A6892A0F311D8217930773
:1022000064F1CA014096861797070CF44BC0415FF2
:102210005F4F8589860F972F911D481759070CF03E
:1022200041C022898091EE01821740F04689420F19
:102230005527551F8417150681F07CF090E030E09B
:10224000AC01485F5F4F4217530764F10796468918
:10225000240F311D821793072CF58789908D0197E4
:10226000908F878B8091FA01882341F040E550E000
:1022700060E070E084E690E00E947F088091E901D0
:10228000811110C081E0809300028FE080930102F1
:102290008091170181508093170198E79093E9018D
:1022A0008093310408952F923F925F926F927F92B4
:1022B0008F929F92AF92BF92CF92DF92EF92FF9256
:1022C0000F931F93CF93DF937C011091160111237D
:1022D00029F180911E02811121C0D70113968C91A2
:1022E00013978111B3C050968C915097F701E80F66
:1022F000F11D51969C9151979650948352969C91C2
:10230000529792878F5F873008F09DC050968C93CC
:10231000D70112968C91129713968C93E7011701AF
:10232000F6E02F0E311C8AE8882E9AE4992E552467
:1023300053942FE0622E38E7732ED70153968C9179
:10234000811188C02C8130E08091ED0190E0A901DD
:102350004C5F5F4F48175907ACF0AC01445F5F4FCB
:10236000421753077CF06A8570E04091EE0150E01F
:10237000FB013796E417F5072CF04F5F5F4F4617C8
:102380005707D4F4A901485F5F4F481759070CF469
:10239000ECC30896821793070CF4E7C33A852091A3
:1023A000EE01832F90E008962817190611F00CF023
:1023B000DCC3231708F4D9C38C829A868091E90183
:1023C0008111D3C350920002609201028091FA0100
:1023D000882341F040E550E060E070E080E590E067
:1023E0000E947F088091170181508093170170929D
:1023F000E901809331041111A6C3D70153968C9142
:102400008111CCC26A8570E08C8108E028E04CE044
:1024100051E090E00E9455072196C215D30509F0BE
:102420008CCFDF91CF911F910F91FF90EF90DF90B4
:10243000CF90BF90AF909F908F907F906F905F9064
:102440003F902F900895F701108A62CF8150F701D5
:10245000838364CF813009F067C0BC81A091ED0116
:102460002B2F30E08A2F90E0BA1730F0AC01405F9C
:102470005F4F4217530774F4A901485F5F4F481735
:1024800059070CF475C3AC01485F5F4F42175307FF
:102490000CF4CCC26A8570E04091EE0150E0FB0183
:1024A0003196E417F5072CF0495F5F4F4617570741
:1024B00084F5BA17A8F0AC01405F5F4F421753078D
:1024C0007CF06A8570E04091EE0150E0FB013796A8
:1024D000E417F5072CF04F5F5F4F46175707CCF412
:1024E000A901485F5F4F48175907D4F00896821733
:1024F0009307B4F02A8530E08091EE0190E0A901C5
:10250000495F5F4F481759075CF0019682179307A0
:102510003CF08C829A868091E901882309F452CF9D
:10252000112309F43DC20FC3823009F0A4C06C81AD
:10253000462F50E09A01265F3F4F7091ED01872FA3
:1025400090E0281739072CF0FC013696E417F507C0
:102550003CF4FA017096E817F9079CF0761788F0BA
:10256000AA85B0E0E091EE01F0E06D010FEFC01A36
:10257000D00ACE16DF062CF03796EA17FB070CF0D0
:10258000C7C228173907B4F0FC013696E417F507DF
:102590008CF0AA85B0E0E091EE01F0E06D0102E080
:1025A000C00ED11CCE16DF062CF03696EA17FB07BC
:1025B0000CF0AEC2FA017096E817F907BCF0761776
:1025C000A8F0CA84D12CA091EE01B0E0560102E03F
:1025D000A00EB11CAA16BB062CF01696AC15BD05B4
:1025E0000CF096C2281739072CF41CC0281739079D
:1025F0000CF495C2DC011696A417B5076CF0CA84DA
:10260000D090EE01AC2DB0E01896DA161B0609F05A
:102610001CF4DC1408F07CC2E817F907A4F0761764
:1026200008F4AAC2CA84D090EE01AC2DB0E018968E
:10263000DA161B0609F01CF4DC1408F069C228172E
:1026400039070CF4FDC1DC011696A417B5070CF48C
:10265000F1C1CA84D090EE01AC2DB0E01996DA1623
:102660001B0609F01CF4CD1408F452C2E817F90750
:102670000CF4FBC1E2C1833009F062C24C8150917D
:10268000ED01242F30E0852F90E0451730F0BC019C
:10269000605F7F4F6217730764F4B901685F7F4F13
:1026A00068177907B4F0BC01685F7F4F6217730742
:1026B00084F0EA85F0E06091EE0170E0DF011396AE
:1026C000A617B70734F06B5F7F4F6E177F070CF0CC
:1026D0005BC14517B0F0BC01605F7F4F62177307A5
:1026E00084F0EA85F0E06091EE0170E0DF0114967D
:1026F000A617B70734F06C5F7F4F6E177F070CF09B
:1027000043C1B901685F7F4F68177907B4F0FC01D6
:102710003896E217F3078CF0AA85B0E0E091EE015D
:10272000F0E06D0104E0C00ED11CCE16DF062CF0E7
:102730003496EA17FB070CF027C1451708F42FC29F
:10274000FC017096E217F3070CF424C2EA85F0E06E
:10275000A091EE01B0E06F0100E1C00ED11CCA16DD
:10276000DB062CF03796EA17FB070CF40DC168174F
:1027700079070CF4D8C1FC013896E217F3078CF006
:10278000EA85F0E0A091EE01B0E06F0100E1C00E3B
:10279000D11CCA16DB062CF03796EA17FB070CF49F
:1027A000F3C04517C8F0FC017096E217F3078CF0F0
:1027B000EA85F0E0A091EE01B0E06F0101E1C00E0A
:1027C000D11CCA16DB062CF03896EA17FB070CF46E
:1027D000DBC068177907CCF0FC013896E217F307E5
:1027E0008CF0EA85F0E0A091EE01B0E06F0101E12C
:1027F000C00ED11CCA16DB062CF03896EA17FB0770
:102800000CF4C2C0451708F492C1FC017096E2179F
:10281000F3078CF0EA85F0E0A091EE01B0E06F01E3
:1028200006E2C00ED11CCA16DB062CF07D96EA1714
:10283000FB070CF4A9C068177907CCF0FC013896A7
:10284000E217F3078CF0EA85F0E0A091EE01B0E02A
:102850006F0106E2C00ED11CCA16DB062CF07D9675
:10286000EA17FB070CF490C0451708F49DC1FC0162
:102870007096E217F3078CF0EA85F0E0A091EE0184
:10288000B0E06F0107E2C00ED11CCA16DB062CF0C7
:102890007E96EA17FB070CF477C0681779070CF4EB
:1028A0004BC1FC013896E217F3078CF0EA85F0E0A3
:1028B000A091EE01B0E06F0107E2C00ED11CCA1674
:1028C000DB062CF07E96EA17FB070CF45DC045177B
:1028D000C8F0FC017096E217F3078CF0EA85F0E08F
:1028E000A091EE01B0E06F0103E3C00ED11CCA1647
:1028F000DB062CF0BA96EA17FB070CF445C0681704
:102900007907BCF0FC013896E217F30784F0EA85FA
:10291000F0E0A091EE01B0E06F0103E3C00ED11C26
:10292000CA16DB0624F0BA96EA17FB076CF14517C6
:10293000C0F0AC01405F5F4F421753077CF04A85FF
:1029400050E0E091EE01F0E0DA01D496AE17BF0757
:102950002CF0455D5F4F4E175F07B4F0681779079D
:10296000D4F0089682179307B4F08A8590E02091FE
:10297000EE0130E0AC014C5C5F4F421753075CF056
:102980008B96821793073CF48C829A868091E9019A
:10299000882309F417CD1123C1F0D5C0813041F44B
:1029A0006A8570E08C8108E028E044E051E031CD98
:1029B000823041F46A8570E08C8100E120E144EED0
:1029C00050E027CD833009F027CD6A8570E08C81F7
:1029D00008E328E04CEA50E01CCDF70193899111FF
:1029E0000CC070E008E028E04CE051E090E00E946C
:1029F00055078C8181508C830FCD913031F470E07C
:102A000008E028E044E051E0F1CF923031F470E08A
:102A100000E120E144EE50E0E9CF933009F0FCCC36
:102A200070E008E328E04CEA50E0E0CFBA1708F085
:102A300042CD5CCDE817F9079CF0761708F4A0C0EA
:102A4000CA84D090EE01AC2DB0E01996DA161B06C0
:102A500009F01CF4CD1408F45BC028173907E4F022
:102A6000DC011696A417B5078CF0AA85B0E0C090DB
:102A7000EE01D12C5D010EE0A00EB11CAC14BD0422
:102A80002CF01596AC15BD050CF442C0E817F907FB
:102A9000B4F0761708F479C0AA85B0E0A090EE01F2
:102AA000B12C6D010EE0C00ED11CCA14DB0424F061
:102AB0001596AA15BB0564F128173907D4F09C01B7
:102AC0002A5F3F4F241735077CF02A8530E040917C
:102AD000EE0150E0D9011F96A417B5072CF02A5F2C
:102AE0003F4F24173507A4F0E817F907C4F076170D
:102AF000B0F08A8590E02091EE0130E0AC01415FBA
:102B00005F4F421753075CF00696821793073CF419
:102B10008C829A868091E901882309F453CC112391
:102B200009F448CF10C0451708F03DCE34CF6817E0
:102B300079070CF083CE2FCF451708F0CACE2BCFE4
:102B4000112309F469CC80911E02811156CC8C812D
:102B50008A3809F461CC6A856A3409F45DCC1816A8
:102B60000CF43BCF8C829A8657CC1111ECCF4ACC17
:102B7000BA1708F0A0CCD4CC281739070CF063CDD5
:102B8000281739070CF4B0CF6BCF281739070CF092
:102B900096CFC5CF681779070CF405CEECCD681732
:102BA00079070CF0E8CDF7CE681779070CF079CEED
:102BB000F2CEFC0134969C01265F3F4F5AE84AE46E
:102BC00051934583E217F307D9F7FC01108A089562
:102BD000FF920F931F93CF93DF93EC01F62E0881A2
:102BE0001981C8010E948429F81621F06F2DC801AF
:102BF0000E948C29CE01DF91CF911F910F91FF9000
:102C000008950C9484290E94172ACF92DF92EF92A4
:102C1000FF926B017C01C114D104E104F10441F085
:102C20000E942C29A70196010E949A296B017C0120
:102C3000C701B601FF90EF90DF90CF9008951F93EA
:102C4000CF93DF93EC0111E018838FE78A8360E470
:102C500070E080E090E00E9405166B831C83DF919A
:102C6000CF911F910895CF92DF92EF92FF921F9321
:102C7000CF93DF9300D000D01F92CDB7DEB7809105
:102C80001601882309F452C080911E0281114EC0A2
:102C900080913204811145C063E070E080E090E0F3
:102CA0000E9405166B017C018091A1018E3180F597
:102CB00090E0019615E0189FF001199FF00D112486
:102CC000E159FD4F848181111EC0CE0101960E9401
:102CD0001F1681E08D838FEFC81AD80AE80AF80A18
:102CE000C9828091A10190E00196189FD001199F9F
:102CF000B00D1124A159BD4F85E0FE013196019020
:102D00000D928A95E1F78091A1018F5F8093A101D7
:102D10008091A1018E3110F01092A10186E0809384
:102D20003204809132048150809332040F900F90CE
:102D30000F900F900F90DF91CF911F91FF90EF9028
:102D4000DF90CF900895CF93DF93EC0160E370E0C4
:102D500080E090E00E940516DC01CB010896A11DE1
:102D6000B11D888323E029832AE52A832B83188ACF
:102D700020E8298B8A8B1B8A81E08C8B88E08D8BE5
:102D80008E8B81E090E0988F8F8B62E070E080E026
:102D900090E00E94051621E0672B682B692B09F44F
:102DA00020E0298F1A8EDF91CF910895CF93DF9382
:102DB000CDB7DEB76B970FB6F894DEBF0FBECDBFB1
:102DC000CE0101960E94A31681E08B8F85E08A8355
:102DD00082E08C8B8AE08D8B80E18E8B8F8B84E000
:102DE00090E0998F888F86E48B838C8368E270E013
:102DF00080E090E00E940516685F7F4F8F4F9F4FE5
:102E00006B8BCE0101960E94D9158091A30190E0B1
:102E100001962BE1289FD001299FB00D1124AB5FB3
:102E2000BC4F8BE1FE01319601900D928A95E1F73E
:102E30008CE291E090930301809302016B960FB6B0
:102E4000F894DEBF0FBECDBFDF91CF910895CF9331
:102E5000DF93CDB7DEB76B970FB6F894DEBF0FBE2A
:102E6000CDBFCE0101960E94A31681E08B8F92E028
:102E70009A838C8B85E08D8B82E38B838C83CE0150
:102E800001960E94D9158091A30190E001962BE153
:102E9000289FD001299FB00D1124AB5FBC4F8BE15F
:102EA000FE01319601900D928A95E1F76B960FB66F
:102EB000F894DEBF0FBECDBFDF91CF910895CF93C1
:102EC000DF93CDB7DEB76B970FB6F894DEBF0FBEBA
:102ED000CDBFCE0101960E94A31681E08B8FCE015B
:102EE00001960E94D9158091A30190E001962BE1F3
:102EF000289FD001299FB00D1124AB5FBC4F8BE1FF
:102F0000FE01319601900D928A95E1F76B960FB60E
:102F1000F894DEBF0FBECDBFDF91CF9108951F9310
:102F2000CF93DF93CDB7DEB76B970FB6F894DEBFC4
:102F30000FBECDBF80911601882309F470C0809127
:102F40001E0281116CC08091A001811168C0809126
:102F500033048111B7C08091A301893098F590E0C6
:102F600001962BE1289FF001299FF00D1124EB5FC2
:102F7000FC4F828D811121C064E070E080E090E020
:102F80000E940516611103C00E945F1716C06130D0
:102F900049F48091040190910501892BA9F70E94C1
:102FA00027170BC0623009F044C080910201909154
:102FB0000301892B71F70E94D6168091A3018F5FC0
:102FC0008093A3018091A301893010F01092A30196
:102FD0008CE38093330480910401909105011816CD
:102FE00019062CF4019790930501809304018091B8
:102FF000020190910301181619062CF40197909381
:103000000301809302018091000190910101181643
:1030100019062CF4019790930101809300016B969F
:103020000FB6F894DEBF0FBECDBFDF91CF911F91D9
:103030000895633011F68091000190910101892B70
:1030400009F0B3CF11E01093A001CE0101960E94C8
:10305000A3161B8F85E08A8383E08C8B84E68D8B9F
:1030600080E28E8B88E38F8B84E190E0998F888F4C
:103070008B838C8366E270E080E090E00E9405160E
:10308000685F7F4F8F4F9F4F6B8BCE0101960E94E1
:10309000D9158091A30190E001962BE1289FD001E2
:1030A000299FB00D1124AB5FBC4FFE0131960190FA
:1030B0000D922A95E1F780E19EE0909301018093C3
:1030C00000017BCF815085CFFF920F931F93CF9349
:1030D000DF93EC011A8E8B89833011F41092A001DA
:1030E0001B8A88E08D8B8E8B6CE270E080E090E034
:1030F0000E940516672B682B692B21F519890A890F
:10310000F98062E070E080E090E00E940516E3E163
:10311000F4E050E040E02481211128C025E0249F04
:10312000F001259FF00D1124ED5EFB4F108301830C
:10313000F28221E0672B682B692B09F420E02383BE
:1031400081E08483198A1A8AFE013496CE010A9698
:103150003AE82AE4319325838E179F07D9F7188A16
:10316000DF91CF911F910F91FF9008954F5F5F4FB7
:1031700035964630510579F6E5CFFC012189358930
:10318000230F3327331F232B11F40C946418089555
:10319000CF93DF93FC012789308D121613067CF044
:1031A000EC010E9464188C892091FD013091FE0190
:1031B000820F932F911D9093FE018093FD01DF916B
:1031C000CF9108950F931F93CF93DF93C5E0D3E082
:1031D00011E08A8D882359F08B89813009F45AC017
:1031E00080F0823009F4A9C0833009F4E1C06B9605
:1031F00084E0C331D80769F7DF91CF911F910F9118
:10320000089520911601698170E080913B049091AE
:103210003C040E94FD29892B01F5222301F18091B4
:103220001E02811103C089898150898B80911E0201
:10323000811115C0809118028F3020F092EE980F06
:103240009F30A8F46A8970E0898908E028E04BE0A3
:103250005DE090E00E94550710C02111E7CF6A8918
:1032600070E0898908E028E043E05DE0F2CF91EF6B
:10327000980F9F30A0F38D3290F7CE010E94D010AE
:10328000CE010E94BD18CE010E94C818CE010E9436
:103290005311ADCF20911601698170E080913B04FC
:1032A00090913C040E94FD29892B51F0211128C0E6
:1032B0006A8970E0898908E028E043E15DE0C9CFD0
:1032C0002223B1F380911E0281111AC08989815095
:1032D000898B898D882329F08A89893010F0815063
:1032E0008A8B8A89893008F4198E998D911104C0CE
:1032F000893310F48F5F8A8B8A89883308F0198F9D
:1033000080911E028111D4CF809118028F3020F05D
:1033100092EE980F9F3040F46A8970E0898908E046
:1033200028E04BE15DE095CF91EF980F9F3008F4D6
:10333000BFCF8D3208F4A1CFBBCF20911601698198
:1033400070E080913B0490913C040E94FD29892B00
:10335000E9F42223E9F080911E02811103C08989DA
:103360008150898B80911E02811112C080911802B8
:103370008F3020F092EE980F9F3090F46A8970E0C1
:10338000898900E120E143E45DE063CF2111EACFC8
:103390006A8970E0898900E120E143E25DE059CF6C
:1033A00091EF980F9F30A0F38D3208F466CFF0CFE5
:1033B000698170E080913B0490913C040E94FD295A
:1033C000892B21F580911601882301F180911E023D
:1033D00081111CC08989813610F08150898B898DBB
:1033E000882329F08A89882311F081508A8B8A8961
:1033F000811101C0198E998D911104C0853110F48D
:103400008F5F8A8B8A89843108F0198F6A8970E00E
:10341000898908E320E243E65DE01BCFFB010190D0
:103420000020E9F73197AF01461B570BDC01ED9106
:10343000FC910280F381E02D09948F929F92AF92CC
:10344000BF920F931F93CF93DF93CDB7DEB7A197B2
:103450000FB6F894DEBF0FBECDBF19A2423008F4FC
:103460004AE08E010F5D1F4F842E912CB12CA12CB0
:10347000A50194010E94CC29E62FB901CA01EA30C6
:1034800004F5E05DD801EE938D01232B242B252B31
:1034900079F790E080E0109729F0BD018FE192E08C
:1034A0000E940E1AA1960FB6F894DEBF0FBECDBFD4
:1034B000DF91CF911F910F91BF90AF909F908F9010
:1034C0000895E95CDFCF0C940E1AEF92FF920F93F0
:1034D0001F93CF93DF9300D0CDB7DEB710921401C6
:1034E00080911501811103C084EB809315018091B7
:1034F000A40181113FC0E090FD01F090FE01809198
:10350000FB019091FC018E159F058CF586E390E000
:103510009A8389836F2DCE0101960E94E815109140
:10352000FD0187E390E09A838983612FCE010196A4
:103530000E94E8151F2588E390E09A838983612F14
:10354000CE0101960E94E81560E571E08FE192E0FE
:103550000E94631A612F70E090E080E040E10E94D9
:103560001D1A68E571E08FE192E00E940E1A81E079
:103570008093A401109115018AE5810F8F30C0F46A
:103580006091EE0170E08091ED0108E020E14CE4F3
:1035900051E090E00E9455078091FA01882341F0A4
:1035A00040E550E060E070E08CE390E00E947F082E
:1035B00088E7810F8F30C0F46091EE0170E0809158
:1035C000ED0108E020E14CE351E090E00E94550756
:1035D0008091FA01882341F040E550E060E070E01E
:1035E00082E390E00E947F0887E8810F8F30C0F46B
:1035F0006091EE0170E08091ED0108E020E14CE285
:1036000051E090E00E9455078091FA01882341F033
:1036100040E550E060E070E088E290E00E947F08C2
:1036200083EC810F8C33E0F46091EE0170E08091C7
:10363000ED0108E020E14CE151E090E00E945507E7
:103640008091FA01882341F040E550E060E070E0AD
:103650008EE190E00E947F0811501093150102C086
:103660001C33D1F7809115018C3309F093C085E2AA
:1036700090E090934908809348088CE190E0909303
:103680004B0880934A086BE571E084E394E00E9464
:10369000631A82E290E0909349088093480886E29A
:1036A00090E090934B0880934A0865E671E084E3CC
:1036B00094E00E94631A809115018C3309F06AC06E
:1036C0000E94480C84FF62C08091FA01882341F077
:1036D00040E550E060E070E080E293E00E947F0807
:1036E0001092A4011092FE011092FD0110920202AC
:1036F0001092A3018CE38093330484E893E09093C9
:1037000005018093040180E699E090930301809382
:10371000020180E19EE090930101809300018EE11F
:10372000809313011092ED0180E28093EE0180916D
:103730001701809331041092E90183E08093120114
:103740001092C5011092EC0105E013E0C8010E943F
:103750006418055E1F4F84E003311807B9F7E7EDE1
:10376000F1E0A6ECB1E011921D9281E0E83EF8078D
:10377000D1F71092170410921C0410922104109299
:10378000260410922B041092300404C00E94480CAE
:1037900080FD9ACF0F900F90DF91CF911F910F91E5
:1037A000FF90EF900895CF92DF92EF92FF920F93E8
:1037B0001F93CF93DF9300D000D000D0CDB7DEB7FA
:1037C00008E028E043E45EE070E060E090E080E044
:1037D0000E9455078AE090E090934908809348083A
:1037E00010924B0810924A081A8219821B8280910B
:1037F00017011F928F9380E7C82E81E0D82EDF92A9
:10380000CF92CE0101967C019F938F930E941C2A38
:10381000B70184E394E00E94631A28E04BE45EE081
:1038200070E060E08CE190E00E94550788E290E053
:10383000909349088093480810924B0810924A08C8
:10384000809112011F928F93DF92CF92FF92EF929D
:103850000E941C2AB70184E394E00E94631A8AE361
:1038600090E0909349088093480810924B0810927A
:103870004A0864E771E084E394E00E94631A1D82C1
:103880001C821E828091FE018F938091FD018F9397
:1038900081E791E09F938F937E0194E0E90EF11C04
:1038A000FF92EF920E941C2A8EE590E090934908C7
:1038B0008093480810924B0810924A08B70184E39D
:1038C00094E00E94631A0FB6F894DEBF0FBECDBF1E
:1038D00080911E02882309F458C08EE290E09093F4
:1038E0004908809348088CE190E090934B088093BE
:1038F0004A086BE771E084E394E00E94631A8091C8
:10390000FF01811125C00E94480C81FF21C0109148
:10391000FA010E94480C83FD1BC00E94480C87FDE1
:1039200017C00E94480C86FD13C081E08127809358
:10393000FA019EE19093FF018823B1F10E947A0D74
:103940004CE251E060E070E088EC90E00E947F087B
:103950008091FA01811112C083E090E090934908B0
:103960008093480887E390E090934B0880934A083F
:1039700062E871E084E394E00E94631A8091FF01A1
:10398000882319F081508093FF0126960FB6F89492
:10399000DEBF0FBECDBFDF91CF911F910F91FF9082
:1039A000EF90DF90CF9008950E946D0DD1CF1F92C0
:1039B0000F920FB60F9211248F939F938091E10085
:1039C0009091E100937F9093E10083FF0FC01092EC
:1039D000E90091E09093EB001092EC0092E3909359
:1039E000ED001092100298E09093F00082FF22C048
:1039F00093E09093E9009091F200992319F09AE3F3
:103A00009093E8009091B801992341F09091B8010A
:103A100091509093B801911101C05D9A90910F025D
:103A2000992341F090910F02915090930F029111C0
:103A300001C0289A84FF18C08091E2008E7E8160C8
:103A40008093E2008091E1008F7E8093E10080917D
:103A5000B9018E7E80618093B9019F918F910F9003
:103A60000FBE0F901F90189580FFF7CF8091E20056
:103A70008E7E80618093E2008091E1008E7E809353
:103A8000E1008091B9018E7E8160E5CF1F920F9297
:103A90000FB60F921124CF92DF92EF92FF920F9305
:103AA0001F932F933F934F935F936F937F938F93C6
:103AB0009F93AF93BF93EF93FF93CF93DF93CDB7D4
:103AC000DEB76C97DEBFCDBF1092E9008091E800B1
:103AD00083FF25C068E0CE0145960E94040A82EF6C
:103AE0008093E8008D8987FF39C09091E80090FFAE
:103AF000FCCF982F907609F034C19E894F89588D5C
:103B00002F89F88C911131C0803861F58091BA010C
:103B10008093F1001092F1008EEF8093E8006C9694
:103B20000FB6F894DEBF0FBECDBFDF91CF91FF91EE
:103B3000EF91BF91AF919F918F917F916F915F9125
:103B40004F913F912F911F910F91FF90EF90DF9038
:103B5000CF900F900FBE0F901F9018959EEF9093EF
:103B6000E800C7CF1092F100D5CF913059F4811100
:103B7000D3CF4130510581F68091BA018D7F80937A
:103B8000BA01CACF933049F48111C6CF41305105F3
:103B900019F68091BA018260F2CF953041F480919C
:103BA000E80080FFFCCF20682093E300B5CF96307B
:103BB00009F0A9C00B8D1C8D22E01092E900109233
:103BC000B6011092B501F2122EC01092B4011092FB
:103BD000B3010E94D3091F8299E09983FA8291E090
:103BE0009E8390EA98879AEF99872091B50130914A
:103BF000B601275F3F4F3C832B838D831092E900F2
:103C00001092B6011092B5011093B4010093B30164
:103C100049E050E0BE016F5F7F4F80E00E94AD0938
:103C20000E94D30979CF1093B4010093B3010E948D
:103C30003809DC0112960D911C910115110509F44A
:103C400051C1D801ED91FC910480F581E02DBE01B8
:103C50006B5E7F4FC8010995009709F03EC1F801DE
:103C600000851185EACFF3E0FF120EC08F8988230B
:103C700009F440C0823061F440E867E08FEA97E0E1
:103C80000E947A09811148CF81E28093EB0047CFEF
:103C9000813029F440E86BE083EA97E0F1CF83308C
:103CA00099F70E943809DC011296ED90FC908E0184
:103CB0000F5F1F4F6801E114F10479F0D701ED9116
:103CC000FC910680F781E02DB801C7010995080F26
:103CD000111DF701E084F184EECFD8011C92F601AA
:103CE00001900020E9F73197BF016C197D0940E090
:103CF000C601C6CF6DE877E0FB01449150E080E853
:103D00000E94AD0909CF973009F4BECF983021F455
:103D100081E08093F10000CF993009F0FDCE8370EF
:103D200009F0B2CFEDE1F1E081E031E096E32191DD
:103D3000222371F08093E9003093EB00DF011197AB
:103D40002C912093EC009093ED008F5F873079F7F2
:103D50008EE78093EA001092EA008F898093100228
:103D6000DBCE8B8D9C8D1092E9001092B6011092E3
:103D7000B5019093B4018093B301898D811192C0F4
:103D80008E899D89913A49F4813209F07DCF47E0CF
:103D900050E06AE071E080E0B3CF913209F074CF77
:103DA000833269F48F89988DB0E0A0E0809306019A
:103DB00090930701A0930801B0930901ADCE803222
:103DC00069F48091E80082FFFCCF67E08AE091E02F
:103DD0000E94040A8BEF8093E8009ECE823209F0A5
:103DE0009BCE8F8980931101EEEFFFE7859194912F
:103DF0008B3F9C4D51F1E0E0F8E080910A019091F9
:103E00000B01A0910C01B0910D01803B9440A105E4
:103E1000B105F1F48091110180FD1AC0EE3F8AE0F6
:103E2000F80789F587E797E79183808380916000A1
:103E30008093B70188E19BE00FB6F894A895809332
:103E400060000FBE9093600067CEEEEFFAE0D5CF32
:103E5000808191818737974709F05ECEA895809140
:103E600060008861809360008091B701809360005A
:103E7000EE3F2AE0F20789F08091FE0A9091FF0A56
:103E80009183808349CE808191818737980751F251
:103E90009093FF0A8093FE0AC5CF1092FF0A1092FA
:103EA000FE0A3ACE0E943809DC0112960D911C914F
:103EB0000115110509F4E8CED801ED91FC910190AE
:103EC000F081E02DBE016B5E7F4FC8010995811125
:103ED00023CEF80100851185EBCF181619060CF4D6
:103EE0001BCED2CEF1E0FF12BECE61E977E004CF67
:103EF0001F920F920FB60F9211242F933F938F931F
:103F00009F93AF93BF938091C1019091C201A09103
:103F1000C301B091C4013091AE0123E0230F2D37CE
:103F200058F50196A11DB11D2093AE018093C101EA
:103F30009093C201A093C301B093C4018091AF01DB
:103F40009091B001A091B101B091B2010196A11D73
:103F5000B11D8093AF019093B001A093B101B093D4
:103F6000B201BF91AF919F918F913F912F910F908F
:103F70000FBE0F901F90189526E8230F0296A11DE3
:103F8000B11DD2CF1F920F920FB60F9211242F9313
:103F90003F934F935F936F937F938F939F93AF93D1
:103FA000BF93EF93FF938091AB01882349F08091F9
:103FB0001102E0911202F09113029081892780830F
:103FC0008091BB01882309F456C08091A70190918C
:103FD000A801A091A901B091AA01892B8A2B8B2B52
:103FE00009F449C08091A7019091A801A091A9016D
:103FF000B091AA010197A109B1098093A7019093FB
:10400000A801A093A901B093AA01892B8A2B8B2B1D
:1040100091F5E091A501F091A601BF016F5F7F4F7F
:104020007093A6016093A5012491922F907F822F17
:104030008F70903819F40E94E40CEBCF903981F422
:104040003296F093A601E093A501FB016491909153
:1040500017028917F0F667FDDCCF0E94730CD9CFE9
:10406000903E29F41092A6011092A501D2CF903F64
:1040700099F41092BB01FF91EF91BF91AF919F9185
:104080008F917F916F915F914F913F912F910F9001
:104090000FBE0F901F90189597FDBBCF3296F093EF
:1040A000A601E093A501FB016491A091AC01B09140
:1040B000AD01322F262F0E94EE296C507E4F8F4F7C
:1040C0009F4F28EE33E040E050E00E94CC2920933F
:1040D000A7013093A8014093A9015093AA018091B0
:1040E000A7019091A801A091A901B091AA01892BE3
:1040F0008A2B8B2B09F0BFCF81E090E0A0E0B0E0ED
:104100008093A7019093A801A093A901B093AA015D
:10411000B2CF1F920F920FB60F9211248F939F93DD
:10412000AF93BF93EF93FF9380911D02882309F40F
:1041300052C08091190290911A02A0911B02B09175
:104140001C02892B8A2B8B2BA1F190911402E091F8
:104150001502F091160280818927808380911902CF
:1041600090911A02A0911B02B0911C021816190618
:104170001A061B069CF48091190290911A02A091D4
:104180001B02B0911C020197A109B1098093190289
:1041900090931A02A0931B02B0931C02FF91EF911F
:1041A000BF91AF919F918F910F900FBE0F901F9075
:1041B000189510921D0280916F008D7F80936F0083
:1041C00080911402E0911502F09116029081809581
:1041D00089238083E3CF90911402E0911502F0913E
:1041E000160280818927F5CF0F931F93CF93DF931A
:1041F000109222021092210288EE93E0A0E0B0E03B
:104200008093230290932402A0932502B093260268
:1042100086E391E09093200280931F028FEF9FEF3F
:1042200090932C0280932B02109237041092360444
:1042300088E491E090933504809334048CE3809378
:104240003A0490E190933D0410923C0410923B0498
:1042500010924204109243041092440410924504B8
:1042600010924604109249081092480810924B0888
:1042700010924A0891E090934C088093330486E0B2
:10428000809332048091170180933104E3E1F4E0DC
:1042900081E01082118282831482359694E0E133AA
:1042A000F907B9F7C5E0D3E003E114E0CE010E94BD
:1042B000A3166B960C171D07C9F7CFE6D2E005E0F1
:1042C00013E0CE010E941F1625960C171D07C9F793
:1042D000DF91CF911F910F910895CF93DF93CDB7C9
:1042E000DEB72D970FB6F894DEBF0FBECDBF789422
:1042F00084B5826084BD84B5816084BD85B58260EB
:1043000085BD85B5816085BD80916E00816080939B
:104310006E00109281008091810082608093810004
:104320008091810081608093810080918000816014
:1043300080938000809191008260809391008091B1
:1043400091008160809391008091900081608093C2
:1043500090008091C10084608093C1008091C10071
:1043600082608093C1008091C10081608093C10010
:104370008091C30081608093C3008091C0008260FF
:104380008093C0008091C20081608093C2008091C0
:104390007A00846080937A0080917A0082608093B2
:1043A0007A0080917A00816080937A0080917A000F
:1043B000806880937A00109210021092BA011092D5
:1043C000B9018091D70081608093D70080EA809303
:1043D000D80089B5806189BD89B5826089BD09B47D
:1043E00000FEFDCF61E070E080E090E00E94910B64
:1043F0008091D8008F7C80618093D8008091E0000C
:10440000807F8093E0008091E1008E7E8093E100C8
:104410008DE08093E200559A209A68E873E180E08D
:1044200090E00E94910B1FB7F8948091BC0181111C
:1044300027C0E3EFFCE08491E6ECFCE09491E82FE8
:10444000F0E0EE0FFF1FE959F74FA591B491EC9101
:10445000E92321F461E081E10E94BF0A61E081E18A
:104460000E94300B8CB580618CBD8CB580648CBD96
:1044700061E08FE00E94300B61E080E10E94300B30
:104480008091BC018F5F8093BC011FBF02E818E0E0
:10449000B801F80184916F5F7F4F0E5F1F4FFB01E2
:1044A0006491882319F00E94300BF2CF61E086E11D
:1044B0000E94BF0A61E070E080E090E00E94910BF2
:1044C00060E086E10E94BF0A6AE070E080E090E070
:1044D0000E94910B61E086E10E94BF0AE9EFFCE0D7
:1044E000E491F0E0EE0FFF1FEC52F34FA591B49171
:1044F0009C918091C001809589238C93ECECFCE029
:10450000E491E093C001E7EFFCE0E491F0E0EE0F0E
:10451000FF1FEC52F34F859194919093BF018093CC
:10452000BE01EAECFCE0E491E093BD018CB58C7F28
:104530008CBD8DB581608DBDE091BE01F091BF0154
:1045400090818091BD01809589238083E5E7F8E023
:1045500082E898E08E179F0749F024912EBD000055
:104560000DB407FEFDCF2EB53196F4CFE091BE011C
:10457000F091BF0180819091BD01892B8083809152
:104580006400816080936400809164008260809305
:10459000640080916400806880936400809164006E
:1045A00080648093640080916500816080936500E1
:1045B0000E94480C83FF0BC080E094E01EBC00000A
:1045C0000DB407FEFDCF2EB50197C1F7FFCF6EEEFC
:1045D000E62EFF24FA940E94EE0800E128E547EB5E
:1045E00057E0B70184E190E00E94550788E494E029
:1045F0000E94630C6BE170E080E090E00E94910B00
:10460000F0EFEF1206C06AEF70E080E090E00E94E9
:10461000910B2FEFE21AF20A39E1E316F104D9F611
:104620006EEE72E080E090E00E94910B0E94070D18
:104630000E94070D1092BB0182E090E00E940116DB
:1046400081110E947A0D809164008E7F80936400B6
:1046500087EC80937C0080E280937B0062E070E0D6
:1046600080E090E00E94910B80917A0080648093BA
:104670007A0080917A0086FDFCCF0091780010913D
:104680007900009510958EE580937C0062E070E0E3
:1046900080E090E00E94910B80917A00806480938A
:1046A0007A0080917A0086FDFCCFE0907800F0904F
:1046B00079000E946C0BE094F094E09ED001E19EA2
:1046C000B00DF09EB00D11249B01AC0120953095EA
:1046D000409550950E94B9296B017C010E946C0B9A
:1046E0006C0D7D1D8E1D9F1D611571058105910548
:1046F00011F00E947B2980916400816080936400A6
:104700001092ED0180E28093EE0188E390E00E9438
:10471000011691E0811101C090E09093FA01882385
:1047200009F46BC00E947A0D85E08093F2018093BA
:10473000F3018093F4018093F5018093F601809357
:10474000F7018093F8018093F901CE0103969D87CC
:104750008C87FE0131967F013AE0232E33E0332E21
:1047600043E0C42ED12C5CE1A52EB12C93E0592E50
:1047700029E0422E2FB7F8948091C1019091C20197
:10478000A091C301B091C4012FBF20914604222300
:1047900091F020913E04F82FF21BF09347042091F2
:1047A0003B0430913C042F5F3F4F30933C042093F7
:1047B0003B0410924604409142045091430460919E
:1047C00044047091450484179507A607B707C4F4FD
:1047D000481B423050F083B7817F83BF83B781602D
:1047E00083BF889583B78E7F83BF80E090E0892B5D
:1047F00009F4C0CF0E940000B9CF0E946D0D94CF84
:1048000020913D04AC01BD01420F511D611D711D80
:1048100040934204509343046093440470934504CE
:1048200080933E0490933F04A0934004B0934104CE
:1048300081E0809346040E94EE088091020281117B
:10484000CAC28091FF01882319F081508093FF0133
:104850001092FE011092FD0100E420E845EB58E0C3
:1048600070E060E090E080E00E9455078AE4682EE6
:1048700081E0782E43010EE410E0C8010E94011689
:10488000F40121914F01022E000C330B8217130605
:10489000C1F50F5F1F4F0D35110579F786E390E0E5
:1048A0000E940116982E87E390E00E940116082FBF
:1048B00088E390E00E940116182F0925801709F45B
:1048C0004EC068E871E08FE192E00E94631A612FA8
:1048D00070E090E080E040E10E941D1A66E571E022
:1048E0008FE192E00E94631A602F70E090E080E018
:1048F00040E10E941D1A68E571E08FE192E00E949C
:104900000E1A0EE410E0F30191903F01C8010E94DD
:104910008429981621F0692DC8010E948C290F5F07
:104920001F4F0D35110579F788E390E098878F8345
:104930006AE0CE0107960E94E81587E390E0988729
:104940008F836AE0CE0107960E94E81586E390E027
:1049500098878F8360E0CE0107960E94E81586E372
:1049600090E00E940116182F87E390E00E94011644
:10497000912F9093FC018093FB011A82198224E00D
:10498000EC85FD8511922A95E9F71F938F9321E716
:1049900031E03F932F93FF92EF920E941C2AD09216
:1049A0004908C0924808B0924B08A0924A08B70143
:1049B00084E394E00E94631A809115010F900F9098
:1049C0000F900F900F900F90882389F08150809363
:1049D000150188E494E00E94630C80910202882310
:1049E00009F403CF88E494E00E94630CFECE80912A
:1049F000F201823009F0CFC08091F301833009F0D9
:104A0000CAC08091F401823009F0C5C08091F501DF
:104A1000833009F0C0C08091F601813009F0BBC03D
:104A20008091F701813009F0B6C08091F8018111C1
:104A3000B2C08091F9018111AEC00E94EE0882E2FD
:104A400090E09093490880934808B0924B08A09258
:104A50004A0865E971E084E394E00E94631A08E083
:104A600028E043E45EE066E270E08CE390E00E94C0
:104A700055070E94480C81FF1AC08091FF018111E7
:104A800016C08091FA0191E089278093FA019EE196
:104A90009093FF01882309F496C10E947A0D4CE29D
:104AA00051E060E070E088EC90E00E947F08809127
:104AB000FA01811110C0D0924908C092480887E3DA
:104AC00090E090934B0880934A0862E871E084E399
:104AD00094E00E94631A0E94480C84FF77C16091A1
:104AE000F00182E090E00E948C298091FA018823F5
:104AF00041F046E950E060E070E08CEB92E00E940B
:104B00007F0881E080930202509217018093140184
:104B10008EE18093130185E08093F2018093F3018D
:104B20008093F4018093F5018093F6018093F7015F
:104B30008093F8018093F9011092F1010FE612E0E1
:104B400099249394CE0107960E941F169B8663E0DA
:104B500070E080E090E00E9405166F5F7F4F8F4FFE
:104B60009F4F6F836FE770E080E090E00E94051632
:104B70006F5F7F4F8F4F9F4F698785E0FE013796AC
:104B8000D80101900D928A95E1F70B5F1F4F201617
:104B90003106C1F61ECF80911301811110C10E9410
:104BA000480C83FF0DC08091F101E82FF0E0EE503A
:104BB000FE4F10828F5F8093F1018AE08093130192
:104BC0000E94480C81FF0EC08091F101E82FF0E0B7
:104BD000EE50FE4F91E090838F5F8093F1018AE069
:104BE000809313010E94480C87FF0EC08091F10151
:104BF000E82FF0E0EE50FE4F92E090838F5F8093BD
:104C0000F1018AE0809313010E94480C86FF0EC0D8
:104C10008091F101E82FF0E0EE50FE4F93E0908399
:104C20008F5F8093F1018AE0809313018091F201FC
:104C30008230A9F0853099F085E08093F20180936D
:104C4000F3018093F4018093F5018093F601809342
:104C5000F7018093F8018093F9011092F10180919E
:104C6000F3018330A9F0853099F085E08093F2015B
:104C70008093F3018093F4018093F5018093F60112
:104C80008093F7018093F8018093F9011092F1016C
:104C90008091F4018230A9F0853099F085E080930D
:104CA000F2018093F3018093F4018093F5018093E6
:104CB000F6018093F7018093F8018093F901109237
:104CC000F1018091F5018330A9F0853099F085E0FC
:104CD0008093F2018093F3018093F4018093F501B6
:104CE0008093F6018093F7018093F8018093F90196
:104CF0001092F1018091F6018B7F813099F085E06F
:104D00008093F2018093F3018093F4018093F50185
:104D10008093F6018093F7018093F8018093F90165
:104D20001092F1018091F7018B7F813099F085E03D
:104D30008093F2018093F3018093F4018093F50155
:104D40008093F6018093F7018093F8018093F90135
:104D50001092F1018091F8018823A9F0853099F033
:104D600085E08093F2018093F3018093F4018093B6
:104D7000F5018093F6018093F7018093F801809309
:104D8000F9011092F1018091F901882309F471CEA3
:104D9000853009F46ECE85E08093F2018093F301B3
:104DA0008093F4018093F5018093F6018093F701DD
:104DB0008093F8018093F9011092F1015ACE81504D
:104DC0008093130156CE0E946D0D71CE0E94480C47
:104DD00080FD85CEFECD80911E02882389F10E9440
:104DE000E2180E948F170E94AC0D0E9433160E9499
:104DF00055080E948C109091EF016091EE01809116
:104E0000ED0170E008E020E145EA58E0911102C0B0
:104E100045E958E090E00E9455070E94D90F409163
:104E2000EC018FEF840F8C3840F46091EB0170E05F
:104E30008091EA0190E00E94DC0D0E94D31BCDCD51
:104E400080910102882319F08150809301020E9411
:104E5000E2180E948F170E94AC0D0E9433160E9428
:104E600055080E948C1080911401811107C0809117
:104E700017018111E2CF0E94651ADFCF8091E9010D
:104E8000882339F081508093E90180913104809327
:104E9000170180911701811102C00E94651A0E94BA
:104EA000480C86FF07C08091ED01803718F48F5FB2
:104EB0008093ED010E94480C87FF07C08091ED01AF
:104EC000882319F081508093ED010E94480C81FFE6
:104ED00007C08091EE01883318F48F5F8093EE0154
:104EE0000E94480C83FF07C08091EE01893018F0C2
:104EF00081508093EE010E94480C80FF2BC080916E
:104F00001301811127C08091FA01882341F040E507
:104F100050E060E070E08CE291E00E947F088091B8
:104F2000E801282F30E0F901E952FE4F9091ED01A0
:104F3000905F90832A533E4F9091EE019F5FF9015D
:104F400090838F5F813108F0EDC08093E80185E2A6
:104F50008093130180911301882319F0815080936D
:104F600013010E94480C84FF2EC0109112011123DE
:104F700051F18091C501811126C08091FA018823E9
:104F800041F048E057E060E070E080E590E00E948A
:104F90007F0882E0809300028CE880930102809376
:104FA000C50181E08093EC018091ED01885F8093E1
:104FB000EA018091EE018C5F8093EB011092160163
:104FC0001150109312018091C501882309F4ADC0DE
:104FD00081508093C5010E94D90F03E114E0F801CC
:104FE00090818091ED01882E912C292F30E0891736
:104FF000E0F0C901089688159905BCF0818190916F
:10500000EE01981740F0482F50E0485F5F4F94172B
:10501000150669F164F1492F50E0485F5F4F84172E
:10502000150609F014F4891710F5C401409682178B
:1050300093070CF43FC0099782179307DCF5F8013A
:1050400081819091EE01981740F0282F30E0285F81
:105050003F4F9217130659F054F0292F30E0285F84
:105060003F4F8217130609F02CF5891718F1F80144
:1050700084819381992309F45FC08823C9F05092F9
:105080000002FFE0F09301028091FA01882341F0D1
:1050900040E550E060E070E084EF91E00E947F081E
:1050A000809112018F5F8A3008F043C08093120113
:1050B000F80114820B5F1F4FF4E001331F0709F062
:1050C0008ECF109118028091E901882309F465C000
:1050D0001F3008F050C06091EE0170E008E020E160
:1050E00045EA58E0C4010E94550781E08093EF0132
:1050F0001F5F1C3308F061C0109318021091EC017F
:105100008FEF810F8C3808F098CE6091EB0170E042
:105110008091EA01412F90E00E94DC0D1F5F109307
:10512000EC018BCE1092E80112CF81E08093160142
:1051300052CF40921201BCCF882309F4B9CF5092CC
:1051400000022FE0209301028091FA01882341F0B0
:1051500040E550E060E070E088E592E00E947F0862
:10516000809117018F5F8A3018F480931701A0CFC8
:10517000409217019DCF82EE810F8F3008F0B8CF9B
:105180006091EE0170E008E020E145E958E0C401DB
:105190000E9455071092EF01ABCF1F3008F49BCF50
:1051A00082EE810F8F3008F496CF81EF810F8F3020
:1051B00038F31D3208F49CCFE3CF109218029ECF33
:1051C0008F929F92AF92BF92CF92DF92EF92FF9217
:1051D000CF93DF93EC01688179818A819B8161158E
:1051E00071058105910521F464E279ED8BE597E085
:1051F0002DE133EF41E050E00E949A2949015A0124
:105200009B01AC01A7EAB1E40E94B9296B017C01C2
:10521000ACEEB4EFA50194010E94C729C60ED71EBB
:10522000E81EF91EF7FE06C081E0C81AD108E108A1
:1052300080E8F80AC882D982EA82FB82C701B601F7
:105240009F77DF91CF91FF90EF90DF90CF90BF904D
:10525000AF909F908F9008958F929F92AF92BF9240
:10526000CF92DF92EF92FF92609118017091190135
:1052700080911A0190911B016115710581059105BD
:1052800021F464E279ED8BE597E02DE133EF41E025
:1052900050E00E949A2949015A019B01AC01A7EAFA
:1052A000B1E40E94B9296B017C01ACEEB4EFA50119
:1052B00094010E94C729C60ED71EE81EF91EF7FEEC
:1052C00006C081E0C81AD108E10880E8F80AC09257
:1052D0001801D0921901E0921A01F0921B01C70146
:1052E000B6019F77FF90EF90DF90CF90BF90AF9087
:1052F0009F908F9008956093180170931901809387
:105300001A0190931B010895F999FECF92BD81BDBA
:10531000F89A992780B50895262FF999FECF1FBADC
:1053200092BD81BD20BD0FB6F894FA9AF99A0FBECE
:1053300001960895052E97FB1EF400940E94B12952
:1053400057FD07D00E94CC2907FC03D04EF40C94E3
:10535000B12950954095309521953F4F4F4F5F4F64
:10536000089590958095709561957F4F8F4F9F4FD1
:1053700008950E94EE29A59F900DB49F900DA49FC3
:10538000800D911D11240895B7FF0C94B9290E9436
:10539000B929821B930B0895A1E21A2EAA1BBB1BED
:1053A000FD010DC0AA1FBB1FEE1FFF1FA217B307F1
:1053B000E407F50720F0A21BB30BE40BF50B661F07
:1053C000771F881F991F1A9469F7609570958095CB
:1053D00090959B01AC01BD01CF010895A29FB00142
:1053E000B39FC001A39F700D811D1124911DB29F19
:1053F000700D811D1124911D0895AA1BBB1B51E145
:1054000007C0AA1FBB1FA617B70710F0A61BB70B34
:10541000881F991F5A95A9F780959095BC01CD01D9
:105420000895EE0FFF1F0590F491E02D099481E09F
:1054300090E0F8940C94F42CAEE0B0E0E2E2FAE2F2
:105440000C94CB2C0D891E8986E08C831A830983EA
:105450008FEF9FE79E838D83AE01475E5F4F6F891D
:10546000788DCE0101960E943F2A2F813885020F48
:10547000131FF80110822E96E4E00C94E72CABE0A9
:10548000B0E0E5E4FAE20C94BD2C7C013B018A011A
:10549000FC0117821682838181FFC8C1CE0101966B
:1054A0005C01F7019381F30193FD859193FF819155
:1054B0003F01882309F453C1853239F493FD859166
:1054C00093FF81913F01853229F4B70190E00E945A
:1054D0002F2CE7CF912C212C312CFFE1F31538F044
:1054E0008B3211F190F4803209F1833229F137FCCB
:1054F0003CC020ED280F2A3050F536FE20C08AE04F
:10550000989E200D1124922E06C08D3291F080338A
:1055100071F7689430F8F30193FD859193FF8191C1
:105520003F018111DACF21C0689431F8689432F8D4
:10553000F2CF689433F8EFCF689434F8ECCFEAE018
:105540002E9E200D1124222E689435F8E4CF8E3241
:1055500029F436FC04C1689436F8DDCF8C3619F492
:10556000689437F8D8CF8836B1F2982F9F7D95543C
:105570009330E0F08336A1F18337C1F1833509F030
:1055800063C02801F2E04F0E511CF801C080D180A9
:10559000692D70E036FC02C06FEF7FEFC6010E94FC
:1055A000192C4C01689437F882010AC00C5F1F4F18
:1055B000FFE3F98388248394912C6501E89437F8FC
:1055C00033FE2DC0522C8114910471F5552009F43D
:1055D00068CFB70180E290E00E942F2C5A94F6CF5A
:1055E000F801808189830E5F1F4FE4CF2801F2E02C
:1055F0004F0E511CF801C080D180692D70E036FC3F
:1056000002C06FEF7FEFC6010E94242C4C01820183
:10561000D5CFB70180E290E00E942F2C2A94281465
:10562000190409F0B0F7CECFF60137FC859137FEAB
:1056300081916F01B70190E00E942F2C51105A9474
:10564000F1E08F1A9108BFCF843619F0893609F03E
:1056500077C0F80137FE6BC06081718182819381D0
:105660000C5F1F4FF32DFF763F2E97FF09C09095DB
:105670008095709561957F4F8F4F9F4F689437F855
:105680002AE030E0A5010E945F2CC82ECA188C2C9D
:10569000432C36FE0CC0E89440F8C91440F434FEA4
:1056A00005C032FC03C0F32DFE7E4F2E892C44FE34
:1056B00095C0FE01EC0DF11D8081803309F087C09B
:1056C000242D297E422E842D8870582E43FC95C0AF
:1056D00040FE8FC09C2C821418F42C0C922C98182D
:1056E00044FE91C0B70180E390E00E942F2C42FE5F
:1056F00009C088E790E041FE02C088E590E0B7016C
:105700000E942F2CC91408F48AC0CA94D12C9FEF90
:10571000C91AD90ACA0CDB1CF60182916F01B701C4
:1057200090E00E942F2CAC14BD04B1F74FCF6081E4
:105730007181072E000C880B990B0E5F1F4F92CFC3
:10574000D32CE894D4F82AE030E0853739F1232DC2
:10575000297FD22E8F3601F148F48835A9F0F70160
:10576000868197812B96E2E10C94D92C803749F001
:105770008837A9F7D4FE02C06894D2F820E130E05F
:105780000DC06894D4F8F6CF34FE03C0822F866033
:10579000D82E20E132E002C028E030E0F801D7FE48
:1057A0000FC060817181828193810C5F1F4FA501C1
:1057B0000E945F2CC82ECA183D2CE89437F867CF9A
:1057C0006081718190E080E00E5F1F4FF0CF42FC5E
:1057D00002C0839478CF8394839475CF842D867888
:1057E00009F471CFF6CFB70180E290E00E942F2C30
:1057F00083948214C0F3512C73CF522C5818821406
:1058000008F46ECFF8CF842D867809F47BCF8BE235
:1058100041FE80E247FC8DE2B70190E071CFB70115
:1058200080E390E00E942F2C9A946CCF8FEF9FEF33
:1058300099CFFC010590615070400110D8F7809518
:1058400090958E0F9F1F0895FC016150704001904C
:105850000110D8F7809590958E0F9F1F08950F9394
:105860001F93CF93DF93182F092FEB018B8181FDBD
:1058700009C01FEF0FEF812F902FDF91CF911F9164
:105880000F91089582FF14C02E813F818C819D81EC
:10589000281739073CF4E881F981CF0101969983F3
:1058A000888310838E819F8101969F838E83E3CFAF
:1058B000E885F985812F0995892BA1F3DACFFA01C3
:1058C000AA27283051F1203181F1E8946F936E7F3F
:1058D0006E5F7F4F8F4F9F4FAF4FB1E03ED0B4E030
:1058E0003CD0670F781F891F9A1FA11D680F791F71
:1058F0008A1F911DA11D6A0F711D811D911DA11D82
:1059000020D009F468943F912AE0269F1124301991
:10591000305D3193DEF6CF010895462F4770405D2C
:105920004193B3E00FD0C9F7F6CF462F4F70405DDB
:105930004A3318F0495D31FD4052419302D0A9F736
:10594000EACFB4E0A6959795879577956795BA9530
:10595000C9F700976105710508959B01AC010A2EF6
:1059600006945795479537952795BA95C9F7620FCD
:10597000731F841F951FA01D08952F923F924F9271
:105980005F926F927F928F929F92AF92BF92CF92CF
:10599000DF92EF92FF920F931F93CF93DF93CDB7D8
:1059A000DEB7CA1BDB0B0FB6F894DEBF0FBECDBF50
:1059B00009942A88398848885F846E847D848C8421
:1059C0009B84AA84B984C884DF80EE80FD800C812A
:1059D0001B81AA81B981CE0FD11D0FB6F894DEBF0D
:0C59E0000FBECDBFED010895F894FFCF7D
:1059EC00100E6009B004FFFFFFFF00E10000000093
:1059FC000000031E013C01030100000000C1808176
:105A0C000000005374656C6C61725F496D7061636A
:105A1C007400000000003E0AC30B5F0A540AA50A7A
:105A2C00630A810A00000000BC0E110AD60FD50FC4
:105A3C0057726F74653A20000D0A0047616D65203E
:105A4C004F766572005072657373206669726500DB
:105A5C007825690053636F72653A00506175736500
:105A6C0064004D7574656400526561642077726FD3
:105A7C006E673A2000466F7220526F62796E2E006C
:00000001FF
