:100000000C94290B0C94C32B0C94510B0C94510B96
:100010000C94510B0C94510B0C94510B0C94510BF0
:100020000C94510B0C94E92B0C94D8280C94472970
:100030000C94510B0C94510B0C94510B0C94510BD0
:100040000C94510B0C94510B0C94510B0C94510BC0
:100050000C94D22B0C94510B0C94510B0C94792BC7
:100060000C94510B0C94510B0C94510B0C94510BA0
:100070000C94510B0C94510B0C94510B0C94510B90
:100080000C94510B0C94510B0C94510B0C94510B80
:100090000C94510B0C94510B0C94510B0C94510B70
:1000A0000C94510B0C94510B0C94510B3C20414C73
:1000B00041524D53203E00202530326868753A2564
:1000C0003032686875256320002530326868750015
:1000D0004D545754465353003C20444941474E4FDA
:1000E0005354494353203E0054656D7065726174EA
:1000F00075726520256868642E256868754300421E
:100100006174746572792020202025756D56005326
:10011000686F7720465053253963004657202020CA
:100120002020312E312031343131313500000000B2
:100130000000005F0000000007000700147F147F2C
:1001400014242A7F2A122313086462364955225048
:1001500000050300001C2241000041221C00000891
:100160002A1C2A0808083E0808A0600000000808A9
:10017000080808606000000020100804023E514991
:10018000453E00427F40006251494946224149496B
:10019000361814127F1027454545393C4A494930E5
:1001A00001710905033649494936064949291E00A6
:1001B0003636000000AC6C00000814224100141414
:1001C000141414412214080002015109063249791D
:1001D000413E7E0909097E7F494949363E414141F8
:1001E000227F4141221C7F494949417F0909090178
:1001F0003E414151727F0808087F417F4100002045
:1002000040413F017F081422417F404040407F022F
:100210000C027F7F0408107F3E4141413E7F090967
:1002200009063E4151215E7F09192946264949495F
:100230003201017F01013F4040403F1F2040201F0D
:100240003F4038403F63140814630304780403619B
:10025000514945437F4141000002040810204141BB
:100260007F0000040201020480808080800102047B
:10027000000020545454787F48444438384444287B
:1002800000384444487F3854545418087E0902000A
:1002900018A4A4A47C7F08040478007D00000080DA
:1002A000847D00007F10284400417F4000007C04D2
:1002B0001804787C08047C003844443800FC24246A
:1002C0001800182424FC00007C080400485454241E
:1002D00000047F4400003C40407C001C2040201C67
:1002E0003C4030403C44281028441CA0A07C0044E2
:1002F00064544C440836410000007F000000413641
:100300000800000201010201020505020060C0F0C0
:10031000381C257500257500214E45572048494752
:100320004853434F524521004869676873636F72B1
:10033000653A0053636F72653A0047414D454F5629
:1003400045522100060F1F3E1F0F062575000101B3
:1003500001010101010140F8EC2C2C38F010D030E3
:10036000E84C4C9CF0021F3734341C0F080B0C1760
:100370003232390F3C2047414D4553203E00436106
:100380007220446F646765003C20444953504C41DF
:1003900059203E00416E696D6174696F6E73000093
:1003A0000080E0F0F8F8FCFC7C7C3CBC9EDEDEDEED
:1003B000DEDEFEBC3CF8F8F0F0E0C000000000001B
:1003C000E0FFFFFF7F7F7D0030F8F8F1F1E3C3E746
:1003D000FFFF7F7F7F7F7F03031FFFFFFEF0000093
:1003E000073FFFFFF8E0C0E0F0F97F3F1F0F0FF37A
:1003F000FDFC786001071F9FDFFFFFFFFFFF00008C
:100400000000000103070F1F1F3C3C3C7878787FF9
:100410007F7F7F7F7E7E7F7F7F3F1F0F07030000F0
:100420000080E0F0F8383C3C7C7C389890C0C0C03C
:10043000C0C0C080000000000000000000000000FC
:1004400000071F3F7C7C7C0030F8F8F1F1E3C387A4
:100450000F1F3F7F7F7E7C00000000000000000037
:100460000000000000000000000103070F0F0FF361
:10047000FDFC786001071F1FDFFFFEFCF8F00000A5
:100480000000000000000000000000000000000765
:100490000F1F3F7F7E7E7C7C7F3F1F0F0703000086
:1004A0000000000080C0E0F0F0F878783C3C3C3C74
:1004B0003C3C7878F8F0F0E0C00000000000000C50
:1004C0001C7CFCFEFFFFFF7F3C0C000000000000D6
:1004D0000000000000000101C0C0C00000000000DA
:1004E0000000000303038080000000000000000003
:1004F00000000000303CFEFFFFFF7F3F3E3C30002D
:10050000000000000003070F0F1F1E1E3C3C3C3C78
:100510003C3C1E1E1F0F0F0703010000000000528D
:100520006F7461746500FFFFFFFFFFEFCF8F0F0F48
:100530000F0F0F0F0F0F0F0F0F0F0F0F0F0F0F0FCB
:100540000F0FFFFFFFFFFFFFFFFFFFFFFFFFFFFE9C
:10055000040C1C3C7CFCFCFCFCFCFCFC00000000D3
:100560000000FFFFFFFFFFFFFFFFFFFFFFFFFFFF99
:10057000C0C0C0C0C0C0C1C3C7CFDFFFC0800000C3
:100580000000FFFFFFFFFFFFFFFFFFFFFFFFFFFF79
:10059000FFFFFFFFFFFFFFFFFFFFFFFFFFFFFFFE6C
:1005A000FCF8FFFFFFFF496E7665727400427269C6
:1005B0006768746E6573730000000000000000003F
:1005C000000000000000000000000000000000002B
:1005D000000000000000000000000000000000001B
:1005E0000000C0F0F8381C1C1C1C38F8F0C00000DB
:1005F00000000000000000000000000000000000FB
:100600000000030F1F1C383838381C1F0F03000070
:1006100000000000000000000000000000000000DA
:1006200000000000000000000000000000000000CA
:1006300000000000000000000000000000000000BA
:1006400000000000000000FEFE00000000000000AE
:10065000000000000000000000000000000000009A
:100660000000C0F0F8381C1C1C1C38F8F0C000005A
:1006700000000000000000000000000000000080FA
:10068000C0C0030F1F1C383838381C1F0F03C0C0F0
:1006900080000000000000000000000000060703CA
:1006A0000100000000000000000000000000000148
:1006B0000307060000000000000000000060E0C02A
:1006C000800000000000000000000000000000802A
:1006D000C0E0600000000000000000000000000119
:1006E0000303C0F0F8381C1C1C1C38F8F0C00303CE
:1006F0000100000000000000000000000000008079
:10070000C0C0030F1F1C383838381C1F0F03C0C06F
:100710008000000000000000000000000006070349
:1007200001000000000000000000000000000001C7
:100730000307060000000000000000000060E0C0A9
:1007400080000000000000FEFE00000000000080AD
:10075000C0E0600000000000008080808080808118
:100760000303C0F0F8381C1C1C1C38F8F0C003034D
:100770008180808080808000000101010101018171
:10078000C0C0030F1F1C383838381C1F0F03C0C0EF
:1007900081010101010101000000000000060703C2
:1007A000010000000000007F7F0000000000000149
:1007B00003070600000000003C204D41494E204D3B
:1007C000454E55203E004578697400000000000049
:1007D0000000000000C0F8F0000000000000000071
:1007E0000000000000000000000000008080808009
:1007F000808080C0FC3F013FFE80000000000000C0
:1008000000000000000000000000000001010101E4
:10081000010101010100000007FFE080F83C0C0C21
:100820000C0C0C0C0C0C0C0C0C0C00000000000050
:10083000000000000000000000010F0F0300000096
:100840000000000000000000000000446961676EC5
:100850006F7374696373000000000040E0F0E0E033
:10086000C080C0C0E0FEFEFEFEE0C0C080C0E0E090
:10087000F0E0400000000000C0C0C0C0E1FBFF1F6E
:1008800007E3F1F97C3C1C1C3C7CF9F1E3071FFFFA
:10089000FBE1C0C0C0C000000303030387DFFFF813
:1008A000E0C78F9F3E3C38383C3E9F8FC7E0F8FF43
:1008B000DF8703030303000000000002070F0707A0
:1008C00003010303077F7F7F7F07030301030707FC
:1008D0000F07020000000053657474696E677300AF
:1008E0000000000080808080800000000000000088
:1008F0000000000000000080808080800000000078
:1009000000E0F89C9F07079F9FFCFCFCFCFCFCFCA4
:10091000FCFCFCFCFCFCFC9F9F67679F9CF8E000D4
:10092000F8FFFFFFFFFE7E3F1F312424311F0F0F12
:100930000F0F1F312424311F3F7EFEFFFFFFFFF802
:1009400000010101010000000000000000000000A3
:100950000000000000000000000000010101010093
:1009600047616D657300000060F0F8F8F0E06060CA
:10097000B030181818F8D818181830B06060E0F0C7
:10098000F8F8F06000000000F07C0F130100000098
:100990000000000000FFFF00000000000000000158
:1009A000130F7CF0000000077FF28240000000007F
:1009B000000000000003070E1C3870E0C08000003B
:1009C0004082F27F07000000000103060C1830305F
:1009D0006860C0C0C0F0C0C0C0C060683131180CD1
:1009E00006030100000053746F7077617463680040
:1009F00000000000000000000000000000000000F7
:100A000000000000000000000000000000000000E6
:100A1000C0E0F0F0F0F0F0F0F0F0F0F0F0F0F0F016
:100A2000F0F0F0F8F8FCFCFCFCFCFC00B0909888BE
:100A300003070F0F0F0F0F0F0F0F0F0F0F0F0F0FDA
:100A40000F0F0F1F1F3F3F3F3F3F3F000D09191181
:100A50000000000000000000000000000000000096
:100A60000000000000000000000000000000000086
:100A7000466C6173686C6967687400000000707888
:100A80003C9ECE6F6737331A1818F8D818181A33E7
:100A900037676FCE9E3C78700000000000F07C0E3F
:100AA00003010000000000000000FFFF0000000044
:100AB0000000000001030E7CF0000000077FF282BE
:100AC0000303030303030303030303030000000002
:100AD00000000000000082F27F0700000000010318
:100AE000060C1830306060C0C0C0F0C0C0C0C0602C
:100AF000603030180C060301000000416C61726D1B
:100B000073003860C080808080808080808080809A
:100B100080808080808080808080808080808080D5
:100B2000808080C060381C060301010101010101C1
:100B300001010101010101010101010101010101A5
:100B40000101010101010103061C000000000080F9
:100B5000E0F0F8FCFCFC3E1E1E1E1E1E3E7CFCFC53
:100B6000F8F0E0800000000000000000000000013C
:100B700001010101010000000080C0E0F0F8FFFF6A
:100B8000FF7F3F0F00000000000000000000000099
:100B90000000000000007C7E7F7F7F7F0F0301014B
:100BA0000000000000000000000000000000000045
:100BB0000000000000007E7E7E7E7E7E0000000041
:100BC000000000000000000000000080C0C0C0C0A5
:100BD000C0C0C0C0C0C0C0C0C0C0C0C0C0C0C08055
:100BE0000000000000000000000000FFFF01000006
:100BF00000000000000000000000808080818F8FD6
:100C000080808C9CB8F0E0C0800000FFFF80000076
:100C10000000000000000000000001010181F1F16E
:100C2000010131391D0F0703010000010303030314
:100C30000303030303030303030303030303030186
:100C4000000000000000000000004261636B00250E
:100C500073202530326868752025732032302530A6
:100C600032686875004D6F6E005475650057656495
:100C70000054687500467269005361740053756EC4
:100C8000000F0102016F909060011F0100788080C9
:100C9000780F0402040FF8A8A8011F0100F8202013
:100CA000F81F050500F828689012150900F028289B
:100CB000F012150900788080782530326868753A1E
:100CC0002530326868752563003C42819DA18142D0
:100CD0003C0010189C7230100010387C381010182E
:100CE00014345656D0D01038103C20534554544933
:100CF0004E4753203E000080C0C0C0C0C0C0C0C02E
:100D0000C0C0C0C0C0C0C0C0C0C0C0C0C0C0C0C0E3
:100D1000C0C0C0C0800000FFFF007E1E0E060202A1
:100D200000000000000000000000000000000000C3
:100D3000000000FFFF0000FFFF00000000000000B7
:100D400000000000000000000000000000006060E3
:100D5000606000FFFF0000010303030303030303BC
:100D60000303030303030303030303030303030353
:100D7000030303030100446973706C617900000090
:100D8000000000000000000000000080C0E0E00063
:100D900000000080000070E0C0800000000000F053
:100DA000F8F8F8F8F8F8F8F8FCFEFFFFFFFFFF008E
:100DB000003CF8C1071FFCF0031FFEF00000000F0D
:100DC0001F1F1F1F1F1F1F1F3F7FFFFFFFFFFF0072
:100DD000003C1F83E0F83F0FC0F87F0F00000000C9
:100DE00000000000000000000000000103070700F1
:100DF0000000000100000E07030100000000536F17
:100E0000756E64000000000000000000000000009B
:100E10000000000000000000000000000484E474F2
:100E20001C0C00000000000000000000000000009A
:100E300000000383C3F33B1F070300000303020208
:100E4000020200000000070787C7E7F77F3F1F0F78
:100E50000000060707060606060600000000000060
:100E600000000000003C3E3F3F3B393838383838FE
:100E70000000000000000000000000000000000072
:100E800000000000536C656570000080C0C0000069
:100E9000F8F8C00000F8F8C0C00000F8F8C0C0C002
:100EA00080000000000000000000FFFFFF3F3E3F09
:100EB0003F3FBFBFBE3FBFBFBFBEBEFFFFFF7F7F85
:100EC0003FB8307070F0E0C08000FFFFFF806C6CB6
:100ED0006C006D6D6D006D6D6DFFFFF78900020692
:100EE0001C7800000008C3FFFF3E0001030303035A
:100EF000030303030303030303030303070F0E0E9C
:100F00000E0F0E0E0E070703010054696D652026B3
:100F10002064617465003C20534C454550203E00E0
:100F20000000000000000000C0E03030181808CCBD
:100F3000CC0818183030E0C00000000000000000AD
:100F400000000000000018FFC30000000000000FB8
:100F50001F3060C080000083FF1800000000000008
:100F6000000000000000000003070C0C18101030F7
:100F7000301010180D0C07030000000000000000E6
:100F80000000000000000000000000000000000061
:100F90000000000000000000000000000000000051
:100FA00054696D656F7574002568687553003C2041
:100FB000534F554E44203E00486F75722062656560
:100FC000707300416C61726D730055490000000040
:100FD0000000000000000000000000000000000011
:100FE0000000000000000000000000000000000001
:100FF00000000000000000000000000000000000F1
:1010000000000000000000000000000000000000E0
:1010100000000000000000000000000000000000D0
:1010200000000000000000000000000000000000C0
:101030000000000000000000001E3F313D3D313F38
:101040001E00000000000000000000000000000082
:101050000000000000000000000000000000000090
:101060000000000000000000000000000000000080
:101070000000000000000000000000000000000070
:101080000000000000000000000000000000000060
:1010900000000000003C7E627A3A3A3A3A3A3A3A24
:1010A0003A7A627E3C000000000000000000000070
:1010B0000000000000000000001E3F313D3D313FB8
:1010C0001E00000000000000000000000000000002
:1010D0000000000000000000000000000000000010
:1010E0000000000000000000000000000000000000
:1010F0000078FCC4F47474747474747474747474C8
:101100007474747474F4C4FC78000000000000006F
:1011100000000000003C7E627A3A3A3A3A3A3A3AA3
:101120003A7A627E3C0000000000000000000000EF
:101130000000000000000000001E3F313D3D313F37
:101140001E00000000000000000000000000F0F899
:1011500088E8E8E8E8E8E8E8E8E8E8E8E8E8E8E86F
:10116000E8E8E8E8E8E8E8E8E888F8F000000001E6
:101170000178FCC4F4747474747474747474747446
:101180007474747474F4C4FC7801010000000000ED
:1011900000000000003C7E627A3A3A3A3A3A3A3A23
:1011A0003A7A627E3C00000000000000000000006F
:1011B0000000000000000000001E3F313D3D313FB7
:1011C0001E00000000000000000000000000F8F811
:1011D000F8F80000C3C3C3C300001F1F1F1F00FE99
:1011E000FFFF0F0707070FFFFFFE7FFFFFF0E0E0A5
:1011F000E0F0FFFF7F0000181C1EFFFFFF00000053
:101200000000000000FFFFFF0000001E1F1F070777
:1012100087C7E7FF7F3EF0F8FCFEEFE7E3E1E0E0A1
:10122000E00E0F0F070787C7EFFF7F3E70F0F0E07B
:10123000E0E1E3F7FFFE7CC0E0F0783C1EFFFFFF3B
:1012400000001F1F1F1C1C1CFFFFFF1C1CFFFFFFBB
:10125000C7C7C7C7C7C7870771F1F1E1E1E1E1F38C
:10126000FF7F3FFEFFFF8F878787878F8F0E7FFF70
:10127000FFE3E3E3E3E3FFFF7F0F0F0F07070787BA
:10128000C7FFFF7FE0F0783C1E0F07030100007EE0
:10129000FFFFC7878787C7FFFF7E7EFFFFE3E1E190
:1012A000E1E3FFFF7EFEFFFFC7C7C7C7C7FFFFFE23
:1012B00078F9F9E1E1E1E1E1FFFF7FFEFFFFFFFFE8
:1012C0000F0F0F0F0F0F0F0F0FFFFFFFFFFEFFFF9F
:1012D000FFFFFF000000000000000000FFFFFFFF15
:1012E000FF7FFFFFFFFFF0F0F0F0F0F0F0F0F0FF15
:1012F000FFFFFF7F000000000000203CFFFFFFFF1A
:10130000FF0000000000000000000000000000FFDF
:10131000FFFFFFFF000000000000000000000000D1
:101320000000FFFFFFFFFF00000000000000FEFFC5
:10133000FFFFFF0F0F0F0F0F0F0F0FFFFFFFFFFE3E
:1013400000000000000080C0E0F0F8FC7E3F1F0FAE
:10135000070301E0F0F8FCFEFFFFFFF7F3F1F0F008
:10136000F0F0F0F0F0F0FEFFFFFFFF0F0F0F0F0F98
:101370000F0F0F0FFFFFFFFFFE0000000000000037
:10138000081C1C3E3E7E7FF7F7F7E3E37FFFFFFF7D
:10139000FFF0F0F0F0F0F0F0F0F0FFFFFFFF7F0063
:1013A0000000000080E0F0FCFF7F1F0F0301000041
:1013B000000080C0F0FCFEFF3F0F0301000000FFB3
:1013C000FFFFFF00000F0F0F0F0F0F0F0F0F0F0F7B
:1013D0000F0FFFFFFFFF0F0FFFFFFFFFFF0F0F0FAD
:1013E0000F0F0F0F0F0F0F0F0F0F0F1F1F1F1F1FBD
:1013F0001E1E1E1E1E1E1E1E1EFEFEFEFEFC7FFF6D
:10140000FFFFFFF0F0F0F0F0F0F0F0F0FFFFFFFF73
:101410007FFEFFFFFFFF0F0F0F0F0F0F0F0F0F7F4D
:101420007F7F7F7EFFFFFFFFFF3C3C3C3C3C3C3C22
:101430003C3CFCFCFCFCF87FFFFFFFFFF0F0F0F011
:10144000F0F0F0F0F0FFFFFFFF7F7F7F7F7F7F0FE7
:101450000F0F0F0F0F0F0FCFFFFFFFFF1F00000039
:1014600000000000000080F0FCFFFF3F0F030000C1
:10147000000000000080E0F8FEFFFF1F07010000F1
:10148000000000FEFFFFFFFF0F0F0F0F0F0F0F0FEA
:101490000FFFFFFFFFFEC3E7E7F7FF7E3E3E3C1C6A
:1014A0003C3E3E7EFFF7E7E7C37FFFFFFFFFF0F024
:1014B000F0F0F0F0F0F0F0FFFFFFFF7FFEFFFFFF26
:1014C000FF0F0F0F0F0F0F0F0F0FFFFFFFFFFE1F7D
:1014D0003F3F3F3F3C3C3C3C3C3C3C3C3CFFFFFFF7
:1014E000FFFF7EFEFEFEFEF0F0F0F0F0F0F0F0F018
:1014F000FFFFFFFF7F2530326868753A253032687C
:1015000068752563003C2054494D45202620444100
:101510005445203E00202020253032686875202563
:10152000732032302530326868750020202025680D
:1015300068756872202530326868753A25303268DF
:1015400068752563005361766500536176656400B4
:101550001F1C1F1E1F1E1F1F1E1F1E1F253032682F
:101560006875004A616E00466562004D6172004117
:101570007072004D6179004A756E004A756C0041C9
:10158000756700536570004F6374004E6F760044BA
:10159000656300FF81BDBDBDBDBDBDBDBDBDBDBDE4
:1015A00081FF3CFF81BDBDBDBDBDBDBDBD81818194
:1015B00081FF3CFF81BDBDBDBD8181818181818174
:1015C00081FF3CFF81BD8181818181818181818118
:1015D00081FF3C8D142000AF257500080B0002022E
:1015E00002000009040000010202000005240010AE
:1015F0000105240101010424020605240600010757
:1016000005810310004009040100020A00000007E0
:1016100005020240000007058302400000040309A0
:101620000412010002EF0201404123368000010153
:1016300002030141726475696E6F204C4C43004196
:10164000726475696E6F204C656F6E6172646F00B5
:10165000EA2B11241FBECFEFDAE0DEBFCDBF11E0D1
:10166000A0E0B1E0EAE5FDE602C005900D92AC38DD
:10167000B107D9F726E0ACE8B1E001C01D92AE3E5B
:10168000B207E1F71BE0C9E2DBE004C02197FE01ED
:101690000E949E36C832D107C9F70E94FF2B0C94D6
:1016A000AB360C940000FC018091ED06882311F10B
:1016B0003FB7F89482E08093E9002091F200822FF6
:1016C00090E01816190614F481E090E0882339F0B0
:1016D000289844E64093EC064091F1004083222391
:1016E00039F02091F200211103C02BE62093E8008D
:1016F0003FBF08958FEF9FEF08952FB7F89483E0D1
:101700008093E9009091E800892F807295FF04C0D2
:101710009091F20080E4891B2FBF08958091E40628
:1017200081110DC082E08093E00684E08093E106A1
:101730001092E3061092E20681E08093E40680EEC8
:1017400096E00895CF93DF931F92CDB7DEB76983FC
:10175000DC01ED91FC910280F381E02D41E050E04D
:10176000BE016F5F7F4F09950F90DF91CF91089574
:1017700083E08093E9008091F200882319F08AE3E6
:101780008093E80008950E947D0B90E00895CF9328
:10179000DF931F92CDB7DEB7FC018485958597FD59
:1017A00008C02FEF3FEF358724870F90DF91CF914F
:1017B0000895CE0101960E94530B019719F4898177
:1017C00090E0F3CF8FEF9FEFF0CF0F931F93CF9366
:1017D000DF931F92CDB7DEB78C01FC018485958520
:1017E00097FF0BC0CE0101960E94530B019771F435
:1017F000898190E0F80195878487F8018485958533
:101800000F90DF91CF911F910F9108958FEF9FEF70
:10181000F1CFFC018485958597FD0BC09FB7F894A7
:1018200082E08093E9008091F2009FBF90E00196F2
:1018300008959FB7F89482E08093E9008091F200C8
:101840009FBF90E0089540918A0650918B062091A9
:1018500088063091890642175307B4F49091E80046
:101860009570E1F39091E80092FD19C08093F1002A
:1018700080918A0690918B0601968F739927892B08
:1018800019F48EEF8093E80080918A0690918B0680
:10189000019690938B0680938A0681E0089580E0FC
:1018A0000895EF92FF920F931F93CF93DF93F82E3B
:1018B000192FE62E042F81E0860F880F0E94230C3B
:1018C00083E00E94230CCF2DD12FEC0EFD2EF11CB6
:1018D000CE15DF05B9F007FF13C0FE0184910E9409
:1018E000230C182F80E00E94230C81232196811164
:1018F000EFCFDF91CF911F910F91FF90EF9008955F
:101900008881EDCF81E0F5CFDF92EF92FF920F93C8
:101910001F93CF93DF93D82E8A01EB017B01E40E56
:10192000F51ECE15DF0559F0D7FE12C0FE018491D9
:101930000E94230C21968111F4CF0FEF1FEFC801F5
:10194000DF91CF911F910F91FF90EF90DF9008955D
:101950008881EECF0F931F93CF93DF931F92CDB764
:10196000DEB782E0898342E450E06BED75E180E808
:101970000E94840C0E948E0BDC0112960D911C912A
:101980000115110589F0D801ED91FC910280F381D8
:10199000E02DBE016F5F7F4FC801099597FD04C020
:1019A000F80100851185ECCF89810F90DF91CF91EF
:1019B0001F910F910895615030F02091F100FC01CA
:1019C00020830196F8CF289884E68093EC0608954A
:1019D0003FB7F89480910F0290911002A0911102EC
:1019E000B091120226B5A89B05C02F3F19F00196B1
:1019F000A11DB11D3FBFBA2FA92F982F8827BC0169
:101A0000CD01620F711D811D911D42E0660F771F90
:101A1000881F991F4A95D1F70895CF92DF92EF92D0
:101A2000FF920E94E80C6B017C010E94E80C6C198B
:101A30007D098E099F09683E734081059105A8F3D1
:101A4000FF90EF90DF90CF9008958F929F92AF928A
:101A5000BF92CF92DF92EF92FF920F931F93CF939B
:101A6000DF936C017B018A0180911401882309F4C2
:101A700058C08091ED06882309F453C080918F06E9
:101A800080FF05C08091E00082608093E000E80163
:101A9000B12C8AEFA82E93E0892E2AE3922E20976C
:101AA00011F4BB20B9F10E947D0B811106C0AA94EC
:101AB000AA20B9F10E940D0DF2CF8C171D0611F06E
:101AC0000CF08C2F9FB7F8948092E9002091E800E9
:101AD00025FD02C09FBFE3CF282F30E0C21BD30BF0
:101AE000F701815020F041914093F100FACFE20ECE
:101AF000F31EBB2021F09092E800B12CEBCF809137
:101B0000E80085FDE7CF9092E800BB24B3942097CE
:101B100009F3F3CF5D9884E680938E0610161106C4
:101B20003CF081E090E0F6019383828310E000E0D6
:101B3000C801DF91CF911F910F91FF90EF90DF903F
:101B4000CF90BF90AF909F908F9008952FB7F8944B
:101B500080910B0290910C02A0910D02B0910E02A7
:101B60002FBF08952091030230910402243F81E0A9
:101B70003807A8F4C90162E370E00E9476366F5F0F
:101B80007F4F42E3469FC001479F900D1124820F73
:101B9000931F909304028093030281E008951092B2
:101BA000040210920302F9CF8091F1018430D1F048
:101BB00030F48130B9F0823059F08BE308958630EB
:101BC00079F020F08730C9F783E608958FE1089512
:101BD0008091FE019091FF01019731F087E1089516
:101BE0008BE0089581E008958CE008958091F201E2
:101BF00081508093F20181110DC08091F1018230FA
:101C0000A1F48091FE019091FF01019719F48CE0FD
:101C10008093F2010E94D40D9091F201891710F483
:101C20008093F2011092F3010895853099F78FE1C6
:101C3000EFCFCF93C091F201CF5FC093F2010E942A
:101C4000D40D8C1710F41092F2018091F1018230C2
:101C500071F48091FE019091FF01019751F4809100
:101C6000F201811106C081E08093F20102C085304B
:101C7000B1F31092F301CF9108951092F101EDEDBF
:101C8000F1E08DE890E1918780878FEF90E1938775
:101C9000828787EA90E19587848786ED97E1918B2B
:101CA000808B1786168608950F931F93CF93DF932B
:101CB00086EF9DE09093E6018093E5018FEF90E140
:101CC0009093E8018093E70189E19EE09093EA0117
:101CD0008093E90186ED97E19093EE018093ED0109
:101CE00088EE9AE19093EC018093EB018091F101F1
:101CF000853081F03091FA018630E1F0811137C0F2
:101D000085E08093F1013093F201DF91CF911F9133
:101D10000F9108958091F201882351F08093FA0188
:101D200086E08093F1018091FB018093F201EDCF79
:101D300081E0F4CF8091F20190E09093FC018093D8
:101D4000FB012091FD01FC01E05BFA4EE49101975B
:101D500021F4822F837009F4EDE1E31710F4E0938E
:101D6000FA0187E08093F1012093F201CECF8091B8
:101D7000F2018093FD014091FB015091FC014F5F06
:101D80005F4F90E0EC01C053D84F8C010253184FC5
:101D90004330510510F48E01219727E1249FC001A3
:101DA000259F900D112469E070E00E947636FB01BA
:101DB0003496BE017595679575956795E60FF71F83
:101DC000CE0160E971E00E948A36E60FF71F300FFE
:101DD000E30FF11DCE0164E670E00E948A36CF0168
:101DE000861B970B67E070E00E947636815008F4FE
:101DF00086E090E09093F9018093F801DF91CF9114
:101E00001F910F910C943D0EFC01928183816130F2
:101E1000710581F4803241F49C3038F09C3009F037
:101E20009C5080E5838392830895911101C09CE0CA
:101E300081E4F8CF813421F49C3039F490E005C07E
:101E4000803519F49C3008F4945F80E2EBCF86EF84
:101E50009DE09093E6018093E5018FEF90E19093F0
:101E6000E8018093E70189E19EE09093EA01809385
:101E7000E90186ED97E19093EE018093ED0188EE04
:101E80009AE19093EC018093EB018091F101813014
:101E9000A1F058F09091F201823011F1833041F1BC
:101EA00080E59923C1F181E436C081E08093F1019E
:101EB0008091FE018093F20108956091F20170E03B
:101EC0007093FF016093FE0184EF91E00E94040F84
:101ED0008091F6018093F20182E08093F1010895F0
:101EE0009093F6018091F5018093F20183E0F5CFA4
:101EF0009093F5018091FE019091FF01019751F4BB
:101F000084E08093F10181E09091F701913491F2A6
:101F100080E0D0CF80E28093F7010C943D0EE091F9
:101F20001302F0911402309709F0099408958091FA
:101F30001C0290911D028130910581F410921D02C6
:101F400010921C0210928506109284060E94A60D23
:101F500090931B0280931A0281E00895892BB1F7B8
:101F600081E090E090931D0280931C02909385067F
:101F700080938406EBCF10921602109217021092F3
:101F80001802109219020E94A60D90931B028093D2
:101F90001A0281E008958EBD0DB407FEFDCF0895AD
:101FA00080916B06829583708F5F843009F480E0A6
:101FB00083708295807F90916B069F7C892B8093A4
:101FC0006B06089580916B068695869583708F5F6A
:101FD000843009F480E08370880F880F90916B063D
:101FE000937F892B80936B06089580916B06837095
:101FF0008F5F843009F480E0837090916B069C7F42
:10200000892B80936B060895809164068F5F8D30D5
:1020100008F080E0809364060895889AE4E6F0E092
:1020200080818460808380E00895E4E6F0E0808130
:102030008B7F808380E58CBD81E08DBD889808957D
:10204000CF93C82F8C980E941510811102C0CF9198
:1020500008958C2F0E94CB0F0E940D10F6CF811196
:1020600003C086EA0C94201087EAFCCF80916506B5
:102070000E942F100E948F0F81E00895CF93DF936D
:10208000C82FD62F8C980E941510811103C0DF91A4
:10209000CF9108958C2F0E94CB0F8D2F0E94CB0FD4
:1020A0000E940D10F2CF882321F068EC81EA0C9495
:1020B0003E1060EC80EAFBCFFB019081811103C0F0
:1020C000903440F00895993308F09150FB019083CB
:1020D00081E008959F5FFACF9091DE018091DD014C
:1020E000292F30E02A5F3F4F8217130629F024F092
:1020F00086508093DE0108959817D8F7892FF9CF7D
:102100008091DD018F5F8093DD019091DF01891760
:1021100010F01092DD010C946C100E9480108091E0
:10212000DD01982F9D7F11F0843011F40C94801004
:1021300008959091DD0191509093DD018091DF0130
:10214000981718F081508093DD010C946C100E9458
:1021500099108091DD01982F9D7F11F0843011F44A
:102160000C94991008952091DF012150330B909128
:10217000DD0181E09217130609F080E00895CF9306
:10218000DF93EC010E94B310811106C08091DD0144
:102190008883DF91CF910895188289819A819093E5
:1021A000F0018093EF01F5CF2091EF013091F00124
:1021B0002617370719F0FC0132832183FC01808147
:1021C0008093DD017093F0016093EF010895909387
:1021D000BB018093BA016093BC014093B901E091C7
:1021E000ED01F091EE01309711F0862F09940895DA
:1021F000482F6091DD0183E090E00C94E7108AEDB8
:1022000091E00E94BF100E94B3100C94F81088EC6B
:1022100091E00E94BF1081E00C94F8102091E00141
:10222000222361F020912E06222321F020913206F4
:10223000211104C0009711F0FC01099408958091C8
:10224000E5019091E6010E940E1181E008958091D0
:10225000E9019091EA010E940E1181E0089586EB58
:1022600091E00E94BF1081E00C94F810E4E6F6E0E3
:10227000828191E0892782830895E4E6F6E08381F4
:1022800091E0892783830C945310E4E6F6E0818182
:1022900091E0892781830C942F1060916B066295E1
:1022A0006695669563706F5F643009F460E0962F01
:1022B0009295990F990F907C80916B068F73892B63
:1022C00080936B0685E5689F602D112481E80C944E
:1022D0003E10CF9380912302882389F00E94A60D9F
:1022E00090912402891B90912302891740F08091DC
:1022F000C2008B7F8093C2005F9810922302C0912E
:10230000230280912102811104C0CC23F9F0CF91E6
:1023100008950E94A60D90912202891B909121029E
:10232000891798F38091C0008F778093C0004798F9
:1023300010922102C111EBCF8091650080618093E2
:10234000650010927F0610927E06E1CF80912102F7
:102350008111DDCFF1CFCF93C42F009751F00197BA
:10236000C9F081E090E090937F0680937E06CF9144
:102370000895609323020E94A60D80932402809109
:10238000C2008B7F8093C200CF3F11F45F9AE9CFE8
:102390005F98E7CF609321020E94A60D80932202EE
:1023A0008091C0008F778093C000CF3F11F4479A8F
:1023B000D8CF4798D6CFCF93DF93C0910302D09167
:1023C0000402209711F10E94A60D20910102309184
:1023D0000202AC01421B530B4C175D0798F090931F
:1023E000020280930102C091000281E0C827C093DD
:1023F00000028C2F0E942F104FEF64E18C2F90E091
:102400000E94AB1181E090E011C087EA0E94201089
:102410004FEF64E681E090E00E94AB114FEF64E67D
:1024200090E080E00E94AB1190E080E0DF91CF91DE
:102430000895FC019091BC00619560749F7B692BAD
:102440006093BC009091BC0090689093BC00809118
:10245000BC0087FFFCCF9091B900907F903529F4A4
:102460008091BB00808381E0089580E0089580938F
:10247000BB0084E88093BC008091BC0087FFFCCF48
:102480009091B900987F81E0983129F0983219F045
:10249000903409F080E081700895809164008F7716
:1024A000809364008CE08093B80084EA8093BC0041
:1024B0008091BC0087FFFCCF089580EB91E00E94E3
:1024C000BF1081E00C94F81081E08093AF01089573
:1024D00082E08093AF0181E008956AE00E946A364D
:1024E0008295807F890F08952F923F924F925F923D
:1024F0006F927F928F929F92AF92BF92CF92DF9214
:10250000EF92FF920F931F93CF93DF93CDB7DEB778
:102510002B970FB6F894DEBF0FBECDBF90912F065C
:10252000690F962F9C19F02EF694F694F694392F95
:102530003770D32E060F78E0790FA22FB0E0BA8360
:10254000A9835A0150E0280FE8E0F0E04F01831A18
:1025500091089C828B82A02FB0E0BE83AD8344247F
:102560004A94512C862E912C98868F825F1119C027
:102570002B960FB6F894DEBF0FBECDBFDF91CF9183
:102580001F910F91FF90EF90DF90CF90BF90AF9091
:102590009F908F907F906F905F904F903F902F9083
:1025A0000895CC2009F474C0761740F45F5F785F1B
:1025B000985FA981BA81AA0EBB1ED8CF7134B0F73B
:1025C0000917A0F3961708F056C0EF81F885E91BAC
:1025D000F109342D01C0330FEA95EAF7692E6694AC
:1025E00066946694E0E86E9E30011124D11005C017
:1025F000F501482F903408F45EC0272E26942694C7
:102600002694B0E82B9E100111244501482F241771
:1026100069F247FD2BC0F401A491E110A095A3231A
:10262000A987903470F4F301E40FF11DE25DFD4FD2
:102630001081BA2F0D2C01C0BB0F0A94EAF7B12B01
:10264000B083703498F4F101E40FF11DE25DFD4FA9
:10265000B985AB2FB0E00B8002C0B595A7950A9461
:10266000E2F7BA87A98710811A2B10834F5FEFEF2B
:102670008E1A9E0ACCCF071758F4372FBD813B1B0B
:10268000F20102C0F595E7953A95E2F73E2FA6CF05
:102690003FEFA4CF47FD0DC01491E1101095130139
:1026A000240E311CD101A25DBD4F13239C9019292A
:1026B0001C934F5F31962413EDCF78CFCF92EF92DA
:1026C0000F93809145069091460643EC55E1803882
:1026D0002CE0920768F043EB55E184372EE0920737
:1026E00038F043E955E1803A9F4010F443EA55E160
:1026F000C12CE12C08E020E168E380E00E94741224
:102700000F91EF90CF9008959F92AF92BF92CF928A
:10271000DF92EF92FF920F931F93CF93DF93EC0121
:102720002C810D811F81209FC001112433E09595DC
:1027300087953A95E1F75C01BB244A815B81819FD3
:10274000400D511D1124F880D9808985882329F0F6
:102750009E808FEF890D8E3F90F0C12CE12C6D2D66
:102760008F2D0E947412DF91CF911F910F91FF90D6
:10277000EF90DF90CF90BF90AF909F900895115051
:1027800008F418858CEFC82EC90CC01AE12C6D2DE9
:102790008F2D0E9474121A9DC0011B9D900D112453
:1027A0004A815B81480F591FC92C0D812C81D7CFDD
:1027B0008F929F92AF92BF92CF92DF92EF92FF9251
:1027C0000F931F93CF93DF93F62E142FD22EC22F89
:1027D000C695C695C69520E8C29FE00111245C010C
:1027E00085E0882E99249A94F50141915F01411169
:1027F0000DC0DF91CF911F910F91FF90EF90DF906F
:10280000CF90BF90AF909F908F9008954052489D79
:10281000A0011124435D5E4FC12CEF2C08E025E0A0
:102820006D2D812F0E947412FF2051F011110AC0EA
:10283000E5E0E10FEC0FFD2FF11DE25DFD4F908211
:10284000195FD2CFEFEFE10FEC0FFD2FF11DE25D2D
:10285000FD4F90821B37A0F7EBCF20916606211128
:1028600003C0109238060895019781F4109234063F
:1028700081E08093350680E280933306109237061C
:102880001092360681E080933806089581E08093A7
:10289000340610923506109233068093370680E88E
:1028A00080933606EFCFE4E6F6E0848191E0892755
:1028B0008483089585E991E00E94BF100E94B310BF
:1028C0000C94F810E0E8F0E080818F738083E4E6F8
:1028D000F0E080818860808310923E06109242066C
:1028E0001092410610927D0610927C060895EF9298
:1028F000FF920F931F93CF93DF93E0914106F091E6
:1029000042062E173F0778F16115710541F4DF91FA
:10291000CF911F910F91FF90EF900C946214EA01F8
:102920007B0141E050E050937D0640937C0630935C
:102930004206209341061093400600933F06809381
:102940003E060E94A60D80933D0681E0E816F10444
:1029500089F4809180008F7380938000809164005F
:10296000886080936400DF91CF911F910F91FF9059
:10297000EF900895C230D10549F0C330D105C1F1BF
:1029800090916B06219731F092E005C090916B0613
:102990009695969593709150933028F784E0EE0CBD
:1029A000FF1C8A95E1F760E270E002C075956795BB
:1029B0009A95E2F7C7010E947636A701461B570B8E
:1029C00080916400877F8093640016BA80916F00C5
:1029D000816080936F001092850010928400509364
:1029E000890040938800F0928700E0928600BBCF78
:1029F00090916B0692959F70CDCF0F931F93CF93BD
:102A0000209108023091090280910702E82FF0E03E
:102A1000EE0FFF1FE20FF31FC0816181C230D9F0BA
:102A20008F5F8093070220914306309144064091C6
:102A30000502509106020DEF14E170E08C2F0E9408
:102A40007714C11104C01092440610924306CF912E
:102A50001F910F91089580E0D9CF209143063091C6
:102A600044064217530780F05093440640934306B0
:102A70009093090280930802709306026093050206
:102A8000109207020C94FD140895EF92FF920F9399
:102A90001F93CF93DF9313E089E0F82E01E094E0D9
:102AA000E92E115038F4DF91CF911F910F91FF90D3
:102AB000EF900895F19EE0011124C95BD94F0C837A
:102AC0000A83EB820E94A60D99838883EACF269819
:102AD000249827982E9A2C9A2F9A0895209166066A
:102AE000222379F021E020932E0620EC611120E0D2
:102AF00020932F0690933106809330066093320620
:102B00000895009711F0FC010994089560E090E0A9
:102B100080E00C946E1588E392E290933A068093DD
:102B20003906E7E4F6E0168215828EEF95E1978785
:102B30008687108E178A60E090E080E00C946E1516
:102B400061E08FE89FE00E946E1581E00895CF92CA
:102B5000EF920F93FB019091BC0198130DC08091EF
:102B6000BA019091BB0181309105C9F048F08230E3
:102B70009105F1F0039701F10F91EF90CF90089537
:102B80008091B9014115510511F44AE45BE0C12C73
:102B9000E12C00E220E260E10E947412EDCF28E314
:102BA00040E060E0CF010F91EF90CF900C94D813EC
:102BB0002091B90146E0F5CF21153105E9F2809168
:102BC000B901882339F061E0C9010F91EF90CF90EE
:102BD0000C946E15F9010F91EF90CF900994E7E4F2
:102BE000F6E0168215828EEF95E197878687108E24
:102BF000178A61E086EA9CE10C946E1580912E069E
:102C0000882321F080913206811109C08091E00172
:102C1000811107C081E08093E0010E94EF1581E0FF
:102C20000895E091E701F091E8013097C1F309952B
:102C3000F6CFE091EF01F091F001309709F009949F
:102C40000C94EF158091F101823021F0833051F026
:102C500081E008958091690690916A06019721F0BC
:102C600087E108958BE308958CE008958091F20147
:102C700081508093F2019091F101923061F42091A2
:102C8000690630916A062130310529F4811103C0AB
:102C90008CE08093F2010E9422169091F201891734
:102CA00010F48093F2010895CF93C091F201CF5FA9
:102CB000C093F2010E9422168C1710F41092F201B8
:102CC0008091F101823069F48091690690916A06E1
:102CD000019739F48091F201811103C081E0809362
:102CE000F201CF9108958DE891E00E94BF100E94FB
:102CF000B3100C94F810DF92EF92FF920F931F9392
:102D0000CF93DF93CDB7DEB768970FB6F894DEBFE9
:102D10000FBECDBFD090BC01D8120EC079018A0180
:102D2000CE0101960E94D7329701A801BE016F5FC4
:102D30007F4F8D2D0E94A71568960FB6F894DEBFC1
:102D40000FBECDBFDF91CF911F910F91FF90EF90FC
:102D5000DF9008958091DF0129E136E14AEC5BE0E4
:102D60006AE47CE081500C947B16CF93DF93CBE632
:102D7000D6E04881437080E8489FA0011124435366
:102D8000504F25EF3FE06AEC7FE080E00E947B1629
:102D9000488146954695437080E8489FA0011124DC
:102DA0004353504F22EE3FE063EC7FE081E00E940E
:102DB0007B1648814295437080E8489FA00111240A
:102DC0004353504F20ED3FE068EB7FE082E00E94EC
:102DD0007B16DF91CF910C94AA1624E030E140E2FB
:102DE0005FE060EA7FE080E00E947B160C94AA1608
:102DF00022EA3BE14AE85EE06AE07FE080E00E9490
:102E00007B162DEF3BE144E05EE064E87EE081E08C
:102E10000E947B162CED3BE14EE75DE06EEF7DE01E
:102E200082E00E947B1622E23CE146EF5CE066E72E
:102E30007DE083E00E947B160C94AA1624E63CE118
:102E40004BE75AE06BEF7AE080E00E947B1629EEB8
:102E50003CE140EF59E060E77AE081E00E947B16B8
:102E600022E03DE146E659E066EE79E082E00E942C
:102E70007B1625E83CE140EE58E060E679E083E02F
:102E80000E947B1623E43CE147E558E067ED78E0DB
:102E900084E00E947B1622EA30E24BEC57E06BE4C0
:102EA00078E085E00E947B162BED3CE14AEC5BE08C
:102EB00066EC77E086E00C947B1640916B064295B9
:102EC00046954695437080E8489FA00111244854D8
:102ED0005A4F2DE431E16DEA75E080E00E947B16E7
:102EE00025E431E146E255E066EA75E081E00E94C2
:102EF0007B162DE331E14FE954E06FE175E082E0AC
:102F00000E947B164091660680E8489FA00111242C
:102F100041565C4F26E331E164E973E083E00E94AF
:102F20007B160C94AA162BE734E250E040E06EE7E3
:102F300073E081E00E947B160C94AA16BF92CF9298
:102F4000DF92EF92FF920F931F93CF93DF93CDB752
:102F5000DEB78C01B62EEDB6FEB60E94DE329927A2
:102F600001962DB73EB7281B390B0FB6F8943EBF1C
:102F70000FBE2DBF8DB79EB701966C01B8010E94A0
:102F8000D7322B2D44E160E0C6010E94D8130FB662
:102F9000F894FEBE0FBEEDBEDF91CF911F910F9151
:102FA000FF90EF90DF90CF90BF9008950F931F9305
:102FB000CF93DF93CDB7DEB766970FB6F894DEBF39
:102FC0000FBECDBF6091FB017091FC01660F771FB2
:102FD000660F771F6D597A4E8E010D5E1F4FC80127
:102FE0000E94D7328091FD011F928F931F930F9300
:102FF0008091FA011F928F9385E195E19F938F93C2
:10300000025111091F930F930E94E73224E53EE01D
:1030100050E040E0B80181E00E94A7158091F701DF
:103020000FB6F894DEBF0FBECDBF98E1803209F035
:103030009CE0282F082E000C330B3F938F93809138
:10304000F5011F928F938091F6011F928F931F922B
:103050009F938BE295E19F938F931F930F930E9411
:10306000E73227E23FE050E040E0B80183E00E9411
:10307000A7150FB6F894DEBF0FBECDBF8091F30148
:1030800065E475E1882311F06AE475E12FEC34E220
:1030900050E040E085E00E947B160E94AA166696EA
:1030A0000FB6F894DEBF0FBECDBFDF91CF911F9159
:1030B0000F910895EDE6F6E08381282F082E000C8D
:1030C000330B3F938F9381811F928F9382811F9245
:1030D0008F9385EF94E19F938F9381ED91E09F9380
:1030E0008F930E94E7328DB79EB70A960FB6F89479
:1030F0009EBF0FBE8DBF81ED91E00895CF92EF92FC
:103100000F93CF93DF9300D000D0CDB7DEB70E94EE
:10311000A60D87FD0AC0C12CE12C00E220E24BE79E
:103120005AE060E180E10E9474120E945A1824E182
:103130004FE460E00E94D8136091710670917206AE
:10314000660F771F660F771F6B59734FCE0101967D
:103150000E94D73224E246E560E0CE0101960E944B
:10316000D81390E080E00F900F900F900F90DF91B8
:10317000CF910F91EF90CF9008952F923F924F9261
:103180005F926F927F928F929F92AF92BF92CF92F7
:10319000DF92EF92FF920F931F93CF93DF930E94E2
:1031A0005E138090160290901702A0901802B090C3
:1031B0001902C501B40120E63AEE40E050E00E9459
:1031C0003936D22F032F342E152FC501B40128EE26
:1031D00033E040E050E00E9439366B017C016CE343
:1031E000462E512C612C712CCA01B901A301920108
:1031F0000E943936C62F262E80E888168EEE980655
:1032000086E3A806B10408F080C0C701B6012AE031
:1032100030E040E050E00E943936C22F8D2F1AE096
:10322000612F0E946A36D92F99E3F92E8F9DA00154
:10323000112445545D4EC12CE12C08E123E164E1E9
:1032400081E00E947412DF9DA001112445545D4E5F
:1032500023E164E188E10E947412822D612F0E94B3
:103260006A36D92F8F9DA001112445545D4E23E16C
:1032700064E18CE30E947412DF9DA0011124455487
:103280005D4E23E164E183E50E9474128C2F612F6F
:103290000E946A36C92FD6E18D9FA00111244152A8
:1032A0005E4E00E12BE06CE188E60E947412CD9F37
:1032B000A001112441525E4E2BE06CE184E70E9494
:1032C000741208E126E04DEC51E164E181E30E94D3
:1032D00074120E945A1820E040E360E00E94D81364
:1032E00081E090E0DF91CF911F910F91FF90EF90DF
:1032F000DF90CF90BF90AF909F908F907F906F9016
:103300005F904F903F902F9008956D2F702F832DD9
:10331000912FA30192010E943936D62EC501B40126
:1033200020E83EEE46E350E00E943936822F2D2CF5
:1033300076CF0F931F93CF93DF9300D000D0CDB7FC
:10334000DEB78091DD0181111FC08091640625E008
:10335000829FC00111249F938F9388EA9FE09F93DF
:103360008F938E010F5F1F4F1F930F930E94E732C1
:1033700028E248E360E0C8010E94D8130F900F9044
:103380000F900F900F900F9090E080E00F900F90B3
:103390000F900F90DF91CF911F910F9108950F9390
:1033A0001F93CF93DF93CDB7DEB768970FB6F8942E
:1033B000DEBF0FBECDBF813009F443C078F082304C
:1033C00009F45FC030E020E050E040E06BE171E0E4
:1033D00083E00E947B160E94AA1628C09091980153
:1033E0002091990127FD85E026FD8E5F1F928F9326
:1033F000292F092E000C330B3F939F9388EE90E00A
:103400009F938F938E010F5F1F4F1F930F930E9407
:10341000E7322FE030E250E040E0B80180E00E9467
:10342000A7150FB6F894DEBF0FBECDBF68960FB6D6
:10343000F894DEBF0FBECDBFDF91CF911F910F91EA
:103440000895809146068F93809145068F938FEF64
:1034500090E09F938F938E010F5F1F4F1F930F93E9
:103460000E94E7322AE830E250E040E0B80181E013
:103470000E94A7150F900F900F900F900F900F9034
:10348000D5CF80916806811115C08EE41F928F936D
:103490008FE091E09F938F938E010F5F1F4F1F93DB
:1034A0000F930E94E73223E534E150E040E0B80199
:1034B00082E0DECF89E5EACFDF92EF92FF920F93B1
:1034C0001F93CF93DF9300D000D0CDB7DEB71A8221
:1034D0000091F101033059F198F4013059F115E1EF
:1034E000023031F190E080E00F900F900F900F903C
:1034F000DF91CF911F910F91FF90EF90DF90089592
:10350000043009F459C00C3068F7EBEFE00F17E016
:10351000E19F102D11241A5B8091F201882309F498
:1035200055C0F0E0E053FF4FE491E9830AC01AE28E
:103530004BE008C08091F20181113CC08EE289838A
:1035400017E045E08091DD019091DE01891B990B28
:103550000196D82EDD0CDD0CDD0C50E08F7120E8DB
:10356000829FC0011124810F911D70E060E0825D97
:103570009D4F0E94A4360250CE0101967C0102307C
:1035800090F48091F2011F928F9389EC90E09F93C9
:103590008F93FF92EF920E94E7320F900F900F905F
:1035A0000F900F900F902D2D412F61E0C7010E94C9
:1035B000D81398CF80E8C3CF8091F201811104C065
:1035C00081E4898318E3BDCF80E5FBCFEDE2ADCF89
:1035D000BF92CF92DF92EF92FF920F931F93CF9300
:1035E000DF9300D000D01F92CDB7DEB7B090F101CD
:1035F000EFEFEB0DE73008F03CC0F0E0EE5FF44E8B
:103600000C949E364E1B521B561B5A1B091B5E1BED
:103610004A1B4EE000E11CE150E0802F8695869524
:10362000869520E8829FC0011124810F911D70E0D2
:1036300060E0825D9D4F0E94A4366091F201CE0150
:1036400001967C0196E0B9123DC024E0629FB00172
:1036500011246D597A4EC7010E94D732202F412F75
:1036600061E0C7010E94D8130FB6F894DEBF0FBE09
:10367000CDBF90E080E00F900F900F900F900F90D3
:10368000DF91CF911F910F91FF90EF90DF90CF903E
:10369000BF9008954EE000E11BE5BECF4CE100E293
:1036A0001BE1BACF4EE000E21FE3B6CF4EE000E2EE
:1036B00014E5B2CF4EE000E212E6AECF41E100E108
:1036C00011E3AACF84E0B81207C081E4611101C000
:1036D00080E589831A82C2CF91E0B91210C06623B7
:1036E00051F081E3898382E38A8388E68B8382E7D2
:1036F0008C831D82B3CF82E3898384E3F5CF1F924D
:103700006F938CE595E19F938F93FF92EF920E94C8
:10371000E7320F900F900F900F900F900F909ECF69
:10372000E5EEF1E09AE0DF011D929A95E9F7EDED03
:10373000F1E0118210828F5F8283778366835583E5
:1037400044830895CF93DF938AE0EDE6F6E0A4EF9B
:10375000B1E001900D928A95E1F780916906909110
:103760006A069093FF018093FE011092F30145E0F9
:1037700055E170E060E086E00E94901BCDEDD1E065
:103780008DE890E1998788878FEF90E19B878A8702
:1037900087EA90E19D878C8786ED97E1998B888BEE
:1037A00062EA7BE18AED91E00E94D41081E0888397
:1037B000DF91CF910C9486154EEA5FE061E070E0F6
:1037C00083E00E94901BEDEDF1E080E890E19187AD
:1037D00080878DE295E29387828789E990E19587DA
:1037E000848785EB96E1918B808B6CED7BE18EEC91
:1037F00091E00E94D4100C94861546E15FE061E0F0
:1038000070E081E00E94901BEDEDF1E080E890E136
:10381000918780878CE395E29387828789E990E19D
:10382000958784878DEE96E1918B808B89E999E16C
:10383000978786876DEF7BE18BEC91E00E94D41037
:103840000C94861548E853E061E070E084E00E9443
:10385000901BEDEDF1E080E890E1918780878BE4AB
:1038600095E29387828789E990E1958784878DE542
:1038700097E1918B808B62E27CE183EB91E00E9487
:10388000D4100C94861549EE5CE061E070E084E0B1
:103890000E94901BEDEDF1E080E890E19187808738
:1038A00087E091E19387828789E990E19587848712
:1038B00088EF96E1918B808B63E47CE188EC91E06A
:1038C0000E94D4100C9486154CEA50E070E060E041
:1038D0008AE00E94901BEDEDF1E080E890E1918795
:1038E000808783E796E19387828789E990E19587CE
:1038F000848787EC90E2918B808B64E67CE18DE895
:1039000091E00E94D4100C94861544E753E070E0D7
:1039100060E082E00E94901BEDEDF1E080E890E134
:10392000918780878DE592E19387828789E990E18D
:103930009587848783E997E1918B808B65E87CE1AB
:1039400080EB91E00E94D4100C94861585E59DE1F2
:1039500090933A0680933906E7E4F6E08FE191E12F
:10396000968385838EEF95E19787868787E291E13D
:10397000908F878B48EB57E061E070E086E00E9413
:10398000901BEDEDF1E080E890E1918780878FE278
:1039900091E19387828789E990E1958784878EE119
:1039A00097E1918B808B66EA7CE186EB91E00E9447
:1039B000D4100C948615E5EEF1E08AE0DF011D924B
:1039C0008A95E9F7EDEDF1E01382138A128A0C94DF
:1039D0008F0F0E94DB1C10920402109203028BEDE9
:1039E00091E190933A0680933906E7E4F6E086E3A6
:1039F00090E19683858322EB3DE037872687908F81
:103A0000878B08950E94DB1C8DEB98E190933A061A
:103A100080933906E7E4F6E08BEB9FE0968385839D
:103A200087E99FE09787868780EA95E1908F878B6B
:103A30000895EF92FF920F931F93CF93DF93CDB72B
:103A4000DEB768970FB6F894DEBF0FBECDBF48E172
:103A500050E060E270E08E010F5F1F4FC8010E94CE
:103A6000A436E090E101F090E201C7010E94DE324D
:103A7000969587959801281B390BC901B7010996BE
:103A80000E94D73220E040E060E0C8010E94D813D5
:103A900068960FB6F894DEBF0FBECDBFDF91CF9111
:103AA0001F910F91FF90EF900895AF92BF92CF9228
:103AB000EF920F931F93CF93DF938091E301909147
:103AC000E401892B09F03FC00E94191DC091DE015D
:103AD000D091DF01D83008F0D7E0DC0F18E0CD1727
:103AE000F0F0D0E0C0E0E091EB01F091EC01309714
:103AF00061F031E020E0CD2B31F4099531E020E098
:103B0000892B09F430E0C32FD22FCE01DF91CF9162
:103B10001F910F91EF90CF90BF90AF90089580913B
:103B2000DD01C81307C0212F40E060E08AE891E082
:103B30000E94D813412F6C2F82E090E00E94E71082
:103B4000CF5F185FCCCF2091DD0130ED3203C00193
:103B50001124805C9F4F20916606222309F45FC0E8
:103B60004091030150910401481759070CF03FC0E0
:103B70009C01241B350B35952795359527952F5F8F
:103B8000213108F020E1240F352F311D2817390786
:103B90000CF045C03093040120930301C1E0D0E054
:103BA000A0900301B09004010E94191DC12CE12CCA
:103BB00008E024E246E25BE06EE08EE20E947412CE
:103BC00024E242E05BE06AE28EE20E947412850128
:103BD000015F1F4FB12C8091DF01B81638F140E032
:103BE0006091DD0181E090E00E94E7107CCF8417B6
:103BF0009507CCF49A01281B390B359527953595F7
:103C000027952F5F213108F020E1421B51098417CD
:103C100095072CF45093040140930301BFCF909378
:103C2000040180930301D0E0C0E0BACF0F39110541
:103C300038F441EE400F6B2D90E080E00E94E710D9
:103C4000B394005D1F4FC7CF8C980E94151081114F
:103C500006C08C9A0E941510811116C0089582E248
:103C60000E94CB0F80E00E94CB0F87E00E94CB0F19
:103C700081E20E94CB0F80E00E94CB0F8FE70E9471
:103C8000CB0F0E940D10E3CFEEE2F2E08191DF0155
:103C900011971C9292E09A95F1F700C09DB58EBDE8
:103CA00086E0EE32F80791F794E09A95F1F700C0BC
:103CB0008DB50E940D10D0CF84E98093BC008FEFAA
:103CC0009091BC0094FD02C081110BC08091BC009A
:103CD0008B7F8093BC008091640080688093640037
:103CE00008959AE19A95F1F700C08150E9CFCF93FA
:103CF000DF93D82FC62F0E944D1280ED0E943712FD
:103D0000811107C00E945C1EC0E08C2FDF91CF9113
:103D100008958D2F0E9437128823A1F38C2F0E94C3
:103D20003712C82F882371F30E945C1EEECFEF92EA
:103D3000FF920F931F93CF93DF93C82F8B01F42E25
:103D40000E944D1280ED0E94371281110BC00E941B
:103D50005C1EC0E08C2FDF91CF911F910F91FF90DF
:103D6000EF9008958C2F0E943712882381F30E94D0
:103D70004D1281ED0E943712882349F3FA94E02E08
:103D8000C02FD12F8C2F8E198F1560F060E0C801E5
:103D90008F0D911D0E941912C82F8823C1F20E9415
:103DA0005C1ED8CF61E0CE010E94191221968111CC
:103DB000E9CFCDCFCF93DF9300D000D000D01F92BA
:103DC000CDB7DEB7BE016F5F7F4F87E0FB01119279
:103DD0008A95E9F747E080E00E94971E8981982F35
:103DE00092959F704AE08F70949F800D112480936C
:103DF0006D068A81982F92959F708F70949F800D89
:103E0000112480936E068B81982F92959F708F70EE
:103E1000949F800D112480936F062C8130E03093A5
:103E20007206209371068D81982F92959F708F70E6
:103E3000949F800D1124809373068E81982F929504
:103E40009F708F70949F800D1124682F70E0709385
:103E50007506609374069F81592F52955F709F700D
:103E6000549F900D1124909376062115310531F061
:103E7000215031093093720620937106882331F066
:103E800061507109709375066093740680E28093A7
:103E900070066091690670916A068DE696E00E9450
:103EA000040F27960FB6F894DEBF0FBECDBFDF918B
:103EB000CF9108951F93CF93DF931F92CDB7DEB7B5
:103EC00041E0BE016F5F7F4F8FE00E94971E6981C6
:103ED00011E061FD07C010E0812F0F90DF91CF91BD
:103EE0001F9108956D7F69838FE00E94771EF4CF44
:103EF0001F93CF93DF931F92CDB7DEB741E0BE0192
:103F00006F5F7F4F8FE00E94971E6981162F11709F
:103F100060FF05C06E7F69838FE00E94771E812F4E
:103F20000F90DF91CF911F9108950F931F93CF931F
:103F3000DF931F92CDB7DEB78C010E945A1F41E07C
:103F4000BE016F5F7F4F8EE00E94971E89818D7F3B
:103F500001151105E1F0F80181810E946D12682FB1
:103F60008BE00E94771EF80180810E946D12682FFD
:103F700060688CE00E94771EF80182810E946D12B9
:103F8000682F60688DE00E94771E89818260898336
:103F900069818EE00E94771E0F90DF91CF911F9173
:103FA0000F9108950F931F93CF93DF931F92CDB777
:103FB000DEB78C010E94781F41E0BE016F5F7F4F2A
:103FC0008EE00E94971E89818E7F01151105E1F018
:103FD00060E087E00E94771EF80181810E946D12E7
:103FE000682F88E00E94771EF80180810E946D1280
:103FF000682F89E00E94771EF801628160648AE080
:104000000E94771E89818160898369818EE00E9488
:10401000771E0F90DF91CF911F910F91089542E08D
:1040200068E971E081E10C94971E0F931F93CF9381
:10403000DF931F92CDB7DEB78C0141E0BE016F5F09
:104040007F4F8EE00E94971E69816B7B84E0013078
:10405000110509F480E4682B69838EE00E94771EC5
:104060000F90DF91CF911F910F910895CF930E94F0
:10407000DA1E81E090E00E9415200E94781FC82F70
:104080000E945A1FCC2331F0811106C082E090E0DB
:10409000CF91089590E0FCCF83E090E0F9CF5C9A57
:1040A0008FE193E00197F1F700C000008091640078
:1040B0008E7F8093640081E480937C0080917B00FC
:1040C000806280937B0080917A00806C80937A007C
:1040D00080917A0086FDFCCF2091780030917900A4
:1040E00080917A008F7780937A008091640081605C
:1040F000809364005C98A8E6B0E10E945B362BE8F0
:1041000032E040E050E00E9439363093460620937A
:10411000450608950C944F2080916D0690916C0691
:10412000891779F080936C0680917706882321F0B7
:10413000815080937706089585E0809377060C94EC
:104140004F2008950E940F200E948C2048ED50E0DF
:1041500070E060E084E00E94901BEDEDF1E080E80B
:1041600090E1918780878AE594E19387828789E946
:1041700090E1958784878FEC99E1918B808B62EA3F
:1041800070E285E991E00E94D4100C9486151F938B
:10419000CF93DF93CDB7DEB768970FB6F894DEBF45
:1041A0000FBECDBF182F8A3008F065C08091F10195
:1041B000882329F08091DD01811709F468C083E02C
:1041C000189FB00111246050704043E050E0CE01D0
:1041D00046960E9488358E898C8B80E28D8B60910B
:1041E000690670916A06CE0142960E94040F8D897D
:1041F000282F082E000C330B3F938F938F891F922B
:104200008F938C891F928F9387EB90E09F938F936E
:10421000CE0102969F938F930E94E732288D0FB6AE
:10422000F894DEBF0FBECDBF80E827FF8EE2898302
:10423000198ADE011A9690E080E030E0A901082E8C
:1042400002C0559547950A94E2F7EDE240FF04C09D
:10425000FC01E053FF4FE491ED9301968730910507
:1042600069F72AE535E250E040E0BE016F5F7F4F1D
:10427000812F0E94A7150E94AA1668960FB6F8947F
:10428000DEBF0FBECDBFDF91CF911F91089580910A
:10429000920190919301A09194018E8B9F8BA88F96
:1042A0009ACF8F929F92AF92BF92CF92DF92EF926E
:1042B000FF920F931F93CF93DF9300D000D000D0D5
:1042C0001F92CDB7DEB780916F068B838091700609
:1042D0008C8370E060E0CE0101960E94040F009193
:1042E0006E060F5F8B812CE3829FC0011124080FA3
:1042F000192F111D4091710620EA35E0429FC0013F
:10430000439F900D1124080F191F8AE0B82EEE2448
:10431000EA94FE2CAA24AA9423E0922E3CE3832E56
:1043200040EAC42E45E0D42EBA948FEFB81215C0DF
:10433000A0928C0127960FB6F894DEBF0FBECDBFBA
:10434000DF91CF911F910F91FF90EF90DF90CF9071
:10435000BF90AF909F908F900895B99CB0011124A9
:104360006050704043E050E0CE0105960E948835D1
:104370004F8147FFD9CF50E02D818E8190E0289D5D
:10438000800D911D1124801B910BF0916206E7E0D6
:10439000E15018F4F0936206C7CF6E2F70E09A01D7
:1043A0000E2E02C0359527950A94E2F720FFF0CF34
:1043B0006C9D90016D9D300D7C9D300D1124280F5A
:1043C000391F37FF02C0215A384D2E153F0500F71F
:1043D000FE2F7901AB2CDCCF0E94512180912B0262
:1043E00090912C0290933A06809339068091250291
:1043F00090912602209127023091280240912902B3
:1044000050912A0250934D0640934C063093560625
:104410002093550690935F0680935E068091650613
:104420000E942F10109287061092860680914106F6
:1044300090914206049710F40E9462141092440670
:104440001092430610922D0281E0089560918C0134
:104450006F3F61F023E0629FB00111246050704013
:1044600043E050E00E94883581E0089580E008959F
:104470004F925F926F927F928F929F92AF92BF9274
:10448000CF92EF92FF920F931F93CF93DF93CDB70D
:10449000DEB76A970FB6F894DEBF0FBECDBF60914E
:1044A000710670917206660F771F660F771F6B5942
:1044B000734F3E0187E1680E711CC3010E94D73221
:1044C0006091740670917506660F771F660F771FEF
:1044D0006D597A4E4E0193E1890E911CC4010E94E0
:1044E000D732809176061F928F939F928F92809100
:1044F00073061F928F937F926F928FE49CE09F933D
:104500008F93DE0111965D01BF93AF930E94E73256
:1045100020E04CE060E0C5010E94D8130FB6F8948B
:10452000DEBF0FBECDBF8091660620916D06882349
:1045300009F4A2C0E091C7012E1709F460C01092DF
:10454000C6011092C50181E08093C40140916F06BD
:104550005091C3013AE0852F632F0E946A36F82FED
:10456000842F0E946A3691E0F81301C090E0909386
:10457000BE013AE0852F632F0E946A36592F842F9F
:104580000E946A3681E0591301C080E08093BF0128
:1045900030916E06F091BD015AE08F2F652F0E9479
:1045A0006A36A82F832F0E946A3691E0A81301C0B3
:1045B00090E09093C0015AE08F2F652F0E946A36D9
:1045C000F92F832F0E946A3681E0F91301C080E041
:1045D0008093C1015AE0822F652F0E946A36F82F1E
:1045E0008E2F0E946A3691E0F81301C090E09093FC
:1045F000C2014093C3013093BD012093C701809154
:10460000C401882309F445C08091C601843010F4A8
:104610008F5F07C0873010F48D5F03C0813120F4B5
:104620008B5F8093C60104C08731B0F38D3180F376
:104630008091C6018C3118F08FEF8093C601809174
:10464000C501823010F48F5F03C08E3020F48D5F7F
:104650008093C50102C08531B0F38091C5018431DA
:1046600018F08FEF8093C5018091C501853188F0E6
:104670008091C6018D3168F01092C6011092C5017B
:104680001092C401EEEBF1E085E0DF011D928A9506
:10469000E9F788E689838CE18A838FED91E19C8339
:1046A0008B838BE08D8380E18E838091C5018F8326
:1046B0001AE0822F612F0E946A36888785E0582E83
:1046C00059868091C2018A87C5010E94841384E7BC
:1046D000898380916D06612F0E946A36988709E070
:1046E00009874090C4014A86C5010E94841384E171
:1046F0008A8383E18D8398E1F92EFE828BEB92E130
:104700009C838B838091C6018F838CE38983809106
:104710006E06612F0E946A36888759868091C00193
:104720008A87C5010E94841383E5898380916E0680
:10473000612F0E946A36988709878091C1018A8714
:10474000C5010E94841381E0898380916F06612FE7
:104750000E946A36888759868091BE018A87C50182
:104760000E948413F98280916F06612F0E946A363D
:10477000988709878091BF018A87C5010E948413A9
:104780004B990AC0C12CE12C08E126E04DEC51E127
:1047900064E181E30E947412809170068B8B1C8A05
:1047A00024E148E660E0C4010E94D813512C0E9425
:1047B0005E1386B186FB882780F966E071E091E0A0
:1047C00089270E945C1014E1882361F0C12CE12C40
:1047D00008E020E149ED5CE06091060184E10E947F
:1047E000741218E286B186FB882780F965E071E0D3
:1047F00091E089270E945C10882361F0C12CE12C94
:1048000008E028E041ED5CE060910501812F0E9405
:104810007412145F80911C0290911D02019759F44B
:10482000C12CE12C08E028E049EC5CE068E3812F32
:104830000E947412145FC3010E942622882309F487
:1048400041C08F898D8B888D8C8B80E28E8B60919F
:10485000690670916A06C4010E94040F8E89282F90
:10486000082E000C330B3F938F938C891F928F93EC
:104870008D891F928F9389EB9CE09F938F93BF92BA
:10488000AF920E94E73228E3412F60E0C5010E9409
:10489000D8130FB6F894DEBF0FBECDBF8E8980321D
:1048A00041F583E24091620698E0499FA0011124FE
:1048B0004F57534FC12CE12C08E028E068E3810FEB
:1048C0000E947412C2016A960FB6F894DEBF0FBE42
:1048D000CDBFDF91CF911F910F91FF90EF90CF90BF
:1048E000BF90AF909F908F907F906F905F904F9010
:1048F00008958AE2D7CFCF930E94DB1C0E94A60DB9
:104900000E94CC3283E996E290933A06809339066E
:10491000E7E4F6E084E692E19683858389EB94E20E
:104920009787868788E692E1908F878BE2EAF1E0AD
:10493000118281E0828380E8808390E1948392E019
:104940009583838390E29783C3E0C087868342E0A8
:1049500050E06EE170E08CE991E00E9488351092A1
:10496000A1011092A0011092AF01C093AB01CF91B1
:1049700008958091AB018F3F21F40E947B2481E058
:10498000089561E08FE89FE00E946E15F8CF48E03F
:1049900050E060E270E084E696E00C94A035CF939E
:1049A000DF938091FE019091FF0190936A068093BE
:1049B00069060E94C724CDE6D6E08AE0E4EFF1E084
:1049C000DE0101900D928A95E1F7188270E060E0B7
:1049D000CE010E94040F88810E946D12682F80E032
:1049E0000E94771E89810E946D12682F81E00E94CB
:1049F000771E8A810E946D12682F82E00E94771EC6
:104A00006C816F5F83E00E94771E8E810E946D1221
:104A1000682F84E00E94771E8F818F5F0E946D1245
:104A2000682F85E00E94771E89850E946D12682F8D
:104A300086E00E94771E0E94DA1E0E9451218AE0C1
:104A4000FE01A4EFB1E001900D928A95E1F781E0BB
:104A50008093F301DF91CF910895CF930E94B3101B
:104A6000C82F81110E94C7248EEC91E00E94BF10D4
:104A70008C2FCF910C94F810CF930E94B310C82FB5
:104A800081110E94C7248BEC91E00E94BF108C2FF3
:104A9000CF910C94F810CF930E94B310C82F8111BE
:104AA0000E94C72483EB91E00E94BF108C2FCF910E
:104AB0000C94F810CF93DF9300D000D0CDB7DEB7C1
:104AC00086E396E19093E6018093E50183E796E122
:104AD0009093E8018093E70184E596E19093EA01E1
:104AE0008093E90187EC90E29093EE018093ED01D1
:104AF0008CE59AE19093EC018093EB012091F10118
:104B00002C3008F052C0E22FF0E0E757FA4D0C9439
:104B10009E369525AE25DC25052620263B263B2600
:104B20003B263B263B263B263B266091DD0183E06E
:104B3000689FB00111246050704043E050E082E96A
:104B400091E00E94883581E08093F1018091940189
:104B500087FB882780F98093F20127C091E080913C
:104B6000F201811101C090E08091940190FB87F9DE
:104B70008093940182E08093F101809192018B8374
:104B800080E28C836091690670916A06CE0101967D
:104B90000E94040F8B818093F20181E09091920139
:104BA0009C3008F480E0809391010F900F900F905B
:104BB0000F90DF91CF9108959091F20120916906B5
:104BC00030916A068CE02130310509F087E19817B1
:104BD00008F4892F2130310571F48B838091910184
:104BE000882389F080E58C8370E060E0CE01019637
:104BF0000E94040F8B818093920183E08093F101E6
:104C000080919301A8CF81E4EECF8091F20180934F
:104C100093018091690690916A06019751F484E0AE
:104C20008093F101809191018093F20110929001A3
:104C3000BCCF85E08093F101809194018170F4CF25
:104C4000809192018B838091F201882391F080E51D
:104C50008C8370E060E0CE0101960E94040F8B818E
:104C60008093920185E08093F1018091940181709D
:104C700072CF81E4EDCF409194013091900181E0B9
:104C800090E0032E01C0880F0A94EAF75091F201D8
:104C90005523B9F0842B809394013F5F30939001AA
:104CA0008091940190E002C0959587953A95E2F73E
:104CB00081708093F2012B3039F02F5F2093F10146
:104CC00074CF80958423E7CF6091DD0183E0689FF6
:104CD000B00111246050704043E050E082E991E05F
:104CE0000E94A0350E9451211092F10180E890E1CC
:104CF0009093E6018093E50183E796E19093E801C4
:104D00008093E70189E990E19093EA018093E901BA
:104D100087EC90E29093EE018093ED011092EC010C
:104D20001092EB0142CF9F92AF92BF92CF92DF924F
:104D3000EF92FF920F931F93CF93DF9300D000D099
:104D400000D0CDB7DEB79091AF018091AD01913029
:104D500009F0EBC0833018F48F5F8093AD0110929F
:104D6000AF019091AD019295907F8091AE0198171F
:104D700008F0E3C082508093AE018091AB018F3F79
:104D800009F4A5C052EAA52E51E0B52E0BEA11E0B8
:104D9000750160E8962E74E0C72ED12CF701808152
:104DA0009281891B97E3980F963208F4CBC08083D9
:104DB000F3E0EF0EF11C0E151F0581F7E2EAF1E0BA
:104DC00020E0A2EAB1E090E02917A1F0318111962C
:104DD0008C91119738130EC030818C91831750F449
:104DE000482F50E0425F5F4F3417150609F014F466
:104DF000805F80839F5F1396933031F72F5F3396E8
:104E00002330F9F68091AC01811161C0DD24D39487
:104E1000F50180818F3008F053C091819E5F8091B1
:104E2000AE018E5F292F30E0482F50E0981730F008
:104E3000BA01645F7F4F621773073CF4245F3F4FF2
:104E400024173507ECF18917D8F1D092AC010E94F4
:104E5000A60D90939F0180939E018091AB0181509C
:104E60008093AB018F3F09F084C08091A0019091A5
:104E7000A10120919C0130919D012817390708F06C
:104E800075C0D0929B0190939D0180939C0142E05C
:104E900050E06EE170E08CE991E00E94A0354FEFA8
:104EA0006AEF90E080E00E94AB1110E000E021E0AA
:104EB00030E041E050E06AEF70E08AEF0E94771442
:104EC000F3E0AF0EB11CEA14FB0409F0A1CF0E947D
:104ED000A60D2091AC01222369F020919E01309112
:104EE0009F01AC01421B530B9A01283E334010F046
:104EF0001092AC012091AC01222309F44CC04091E6
:104F00009E0150919F01BC01641B750BAB014E3596
:104F1000514008F040C020919A012230D1F52EEF87
:104F200020939A0186FD3BC048C0923009F017CF0C
:104F3000882309F414CF815010CF891708F01DCFB2
:104F40008E5F19CF90820E94C732B6010E948A36C6
:104F50008295807FF70181838091A0019091A101CA
:104F600001969093A1018093A00122CF10929B0102
:104F700096CF4FEF6EE190E080E00E94AB1110E021
:104F800000E021E030E041E050E06AEF70E084E6CC
:104F900095CF22E0C5CF10929A012111C3CF609125
:104FA000AE0180919A01680FC12CE12C00E12FE045
:104FB00046E553E080E00E9474128091AB0113E05B
:104FC0008F3F09F05DC060E08AE393E00E949E1786
:104FD00060E183E393E00E949E1760E288E293E041
:104FE0000E949E1780919B01882329F060E388E14D
:104FF00093E00E949E178091A1018F938091A00160
:105000008F9385E193E09F938F938E010F5F1F4FE6
:105010001F930F930E94E73220E140E660E0C80151
:105020000E94D81380919D018F9380919C018F9352
:1050300082E193E09F938F931F930F930E94E73237
:1050400020E240E660E0C8010E94D8130FB6F89451
:10505000DEBF0FBECDBF67C0812F90E0FC01EE0F19
:10506000FF1FE80FF91FEE55FE4F61816F0DC12C38
:10507000E12C00E12FE046E553E080810E947412AC
:105080001150F0909A011F3F39F790E0A92E91E05E
:10509000B92E20E8922E30E4D32EDF0CF50180816A
:1050A0009AE7980F973708F452C08650808310E132
:1050B0001F0DC12CE12C08E028E04EE453E0612FE5
:1050C000F50180810E947412105F1D11F2CFFFEF75
:1050D000AF1ABF0A33E0A31631E0B306F9F68091A8
:1050E000A1018F938091A0018F938BE493E09F9314
:1050F0008F938E010F5F1F4F1F930F930E94E73214
:1051000021E04DE560E0C8010E94D8130F900F9098
:105110000F900F900F900F9080E2F82E10E080918A
:10512000AB011817B0F081E090E026960FB6F89426
:10513000DEBF0FBECDBFDF91CF911F910F91FF90CA
:10514000EF90DF90CF90BF90AF909F9008959082A6
:10515000AECFC12CE12C08E027E044E453E061E04D
:105160008F2D0E9474121F5FF00ED9CFCF93109233
:1051700064061092650681E0809366068093670658
:105180001092680610926A06109269068FEF80935B
:105190006B060E94C724CEE1C15010F4CF91089550
:1051A0008C2F90E060E0805090400E94B035F4CFAA
:1051B0001F920F920FB60F9211248F939F9380919D
:1051C000E1009091E100937F9093E10083FF0FC095
:1051D0001092E90091E09093EB001092EC0092E3C2
:1051E0009093ED001092ED0698E09093F00082FF0E
:1051F00022C093E09093E9009091F200992319F076
:105200009AE39093E80090918E06992341F0909153
:105210008E06915090938E06911101C05D9A9091E7
:10522000EC06992341F09091EC0691509093EC0696
:10523000911101C0289A84FF18C08091E2008E7EEF
:1052400081608093E2008091E1008F7E8093E10095
:1052500080918F068E7E806180938F069F918F91C3
:105260000F900FBE0F901F90189580FFF7CF809181
:10527000E2008E7E80618093E2008091E1008E7E6C
:105280008093E10080918F068E7E8160E5CF1F9232
:105290000F920FB60F921124CF92DF92EF92FF92EE
:1052A0000F931F932F933F934F935F936F937F932E
:1052B0008F939F93AF93BF93EF93FF93CF93DF931E
:1052C000CDB7DEB76C97DEBFCDBF1092E9008091FD
:1052D000E80083FF25C068E0CE0145960E94DB0C04
:1052E00082EF8093E8008D8987FF39C09091E800B4
:1052F00090FFFCCF982F907609F034C19E894F899A
:10530000588D2F89F88C911131C0803861F58091CA
:105310008D068093F1001092F1008EEF8093E800EB
:105320006C960FB6F894DEBF0FBECDBFDF91CF9164
:10533000FF91EF91BF91AF919F918F917F916F916D
:105340005F914F913F912F911F910F91FF90EF909F
:10535000DF90CF900F900FBE0F901F9018959EEF8B
:105360009093E800C7CF1092F100D5CF913059F457
:105370008111D3CF4130510581F680918D068D7F0B
:1053800080938D06CACF933049F48111C6CF413046
:10539000510519F680918D068260F2CF953041F467
:1053A0008091E80080FFFCCF20682093E300B5CF18
:1053B000963009F0A9C00B8D1C8D22E01092E900F7
:1053C00010928B0610928A06F2122EC01092890655
:1053D000109288060E94AA0C1F8299E09983FA8293
:1053E00091E09E8390EA98879AEF998720918A06A8
:1053F00030918B06275F3F4F3C832B838D83109228
:10540000E90010928B0610928A0610938906009389
:10541000880649E050E0BE016F5F7F4F80E00E9448
:10542000840C0E94AA0C79CF1093890600938806F9
:105430000E948E0BDC0112960D911C910115110535
:1054400009F451C1D801ED91FC910480F581E02D62
:10545000BE016B5E7F4FC8010995009709F03EC100
:10546000F80100851185EACFF3E0FF120EC08F89A5
:10547000882309F440C0823061F440E860E18FE3A2
:1054800096E10E94510C811148CF81E28093EB009C
:1054900047CF813029F440E86BE083E396E1F1CF18
:1054A000833099F70E948E0BDC011296ED90FC90F0
:1054B0008E010F5F1F4F6801E114F10479F0D701ED
:1054C000ED91FC910680F781E02DB801C7010995A7
:1054D000080F111DF701E084F184EECFD8011C9272
:1054E000F60101900020E9F73197BF016C197D09A1
:1054F00040E0C601C6CF6DE176E1FB01449150E08A
:1055000080E80E94840C09CF973009F4BECF983010
:1055100021F481E08093F10000CF993009F0FDCEB5
:10552000837009F0B2CFE2E7F1E081E031E096E389
:105530002191222371F08093E9003093EB00DF0189
:1055400011972C912093EC009093ED008F5F8730A2
:1055500079F78EE78093EA001092EA008F898093B2
:10556000ED06DBCE8B8D9C8D1092E90010928B06A0
:1055700010928A069093890680938806898D8111FE
:1055800092C08E899D89913A49F4813209F07DCF8C
:1055900047E050E06DE071E080E0B3CF913209F078
:1055A00074CF833269F48F89988DB0E0A0E0809346
:1055B000090190930A01A0930B01B0930C01ADCEA9
:1055C000803269F48091E80082FFFCCF67E08DE0D3
:1055D00091E00E94DB0C8BEF8093E8009ECE82323C
:1055E00009F09BCE8F8980931401EEEFFFE7859140
:1055F00094918B3F9C4D51F1E0E0F8E080910D01DA
:1056000090910E01A0910F01B0911001803B944048
:10561000A105B105F1F48091140180FD1AC0EE3F9F
:105620008AE0F80789F587E797E79183808380917F
:10563000600080938C0688E19BE00FB6F894A895F3
:10564000809360000FBE9093600067CEEEEFFAE0AB
:10565000D5CF808191818737974709F05ECEA89595
:105660008091600088618093600080918C068093B7
:105670006000EE3F2AE0F20789F08091FE0A9091E7
:10568000FF0A9183808349CE808191818737980773
:1056900051F29093FF0A8093FE0AC5CF1092FF0A41
:1056A0001092FE0A3ACE0E948E0BDC0112960D91EA
:1056B0001C910115110509F4E8CED801ED91FC917A
:1056C0000190F081E02DBE016B5E7F4FC80109950E
:1056D000811123CEF80100851185EBCF181619062C
:1056E0000CF41BCED2CEF1E0FF12BECE61E276E129
:1056F00004CF1F920F920FB60F9211242F933F9356
:105700008F939F93AF93BF9380910B0290910C0264
:10571000A0910D02B0910E0230910A0223E0230FF6
:105720002D3758F50196A11DB11D20930A028093D3
:105730000B0290930C02A0930D02B0930E02809185
:105740000F0290911002A0911102B09112020196E5
:10575000A11DB11D80930F0290931002A09311021E
:10576000B0931202BF91AF919F918F913F912F9172
:105770000F900FBE0F901F90189526E8230F0296EA
:10578000A11DB11DD2CF1F920F920FB60F921124FF
:105790008F9381E0809363068F910F900FBE0F90DF
:1057A0001F9018951F920F920FB60F9211248F938E
:1057B000EF93FF93E0E8F0E08081806C80831092AB
:1057C0006F00FF91EF918F910F900FBE0F901F9080
:1057D00018951895E0E9F6E01382128288EE93E0BE
:1057E000A0E0B0E084839583A683B7838CE791E043
:1057F000918380838FEF9FEF958784870895CF9360
:10580000DF93CDB7DEB72A970FB6F894DEBF0FBE91
:10581000CDBF789484B5826084BD84B5816084BD39
:1058200085B5826085BD85B5816085BD80916E003E
:10583000816080936E00109281008091810082606F
:1058400080938100809181008160809381008091AC
:1058500080008160809380008091910082608093BD
:1058600091008091910081608093910080919000DF
:105870008160809390008091C10084608093C1001A
:105880008091C10082608093C1008091C1008160DD
:105890008093C1008091C30081608093C300809198
:1058A000C00082608093C0008091C20081608093BC
:1058B000C20080917A00846080937A0080917A009F
:1058C000826080937A0080917A00816080937A0070
:1058D00080917A00806880937A001092ED06109291
:1058E0008D0610928F068091D70081608093D7003B
:1058F00080EA8093D80089B5806189BD89B58260CE
:1059000089BD09B400FEFDCF0E940D0D8091D80025
:105910008F7C80618093D8008091E000807F8093AD
:10592000E0008091E1008E7E8093E1008DE0809325
:10593000E200559A209A469A209A229A219A2B9A06
:10594000289A80E58CBD81E08DBD809164008460E3
:10595000809364008CE08093B8008091BC008B7FC2
:105960008093BC003C98449A8FE99FE00197F1F73F
:1059700000C0000081E420E2349903C0815009F0A6
:10598000FBC23C9A3D9A449A459A80916400806893
:105990008093640087E080937A0080E480937C00A9
:1059A00080E880BF8091640081608093640088E219
:1059B00090E00E9498358E3409F0E8C248E050E04B
:1059C00060E270E084E696E00E9488350E94B62886
:1059D00092E09093C00088E08093C10081E08093C2
:1059E000C200809165008061809365003F9A579A5C
:1059F00047985F989093800081E18093810080E0D8
:105A000094E0909389008093880080E098E09093E0
:105A10008700809386008091640088608093640092
:105A2000259A2D98549A5C980E94671589E291E016
:105A300090934F0680934E0681E291E09093580632
:105A40008093570689E191E0909361068093600608
:105A500080916B00806D80936B0080916800816005
:105A60008093680041E0FE0131967F01BF018EE026
:105A70000E94971E6981677669838EE00E94771E77
:105A800041E0B7018FE00E94971E6981647F6983BE
:105A90008FE00E94771E81E090E00E941520109216
:105AA0007B0610927A06109279061092780683B7D8
:105AB000817F83BF5B9A80916900826080936900D7
:105AC000E89A0E9436200E945121809A849A899AED
:105AD000819A8FE99FE00197F1F700C00000899853
