:100000000C9420020C9448020C9448020C94480270
:100010000C9448020C9448020C9448020C94480238
:100020000C9448020C9402130C9417100C94861034
:100030000C9448020C9448020C9448020C94480218
:100040000C9448020C9448020C9448020C94480208
:100050000C9448020C9448020C9448020C94B81278
:100060000C9448020C9448020C9448020C944802E8
:100070000C9448020C9448020C9448020C944802D8
:100080000C9448020C9448020C9448020C944802C8
:100090000C9469130C9448020C9448020C94480286
:1000A0000C9448020C9448020C944802AED580A8E7
:1000B0003FD300408D142002A1C8DA12817FD9F10C
:1000C000DB40A4A6AF00030C0F30333C3FC0C3CCD1
:1000D000CFF0F3FCFF1F1C1F1E1F1E1F1F1E1F1E25
:1000E0001F00000000250028002B002E003100001A
:1000F0000000002300260029002C002F0000000033
:1001000000240027002A002D0030000408020110FE
:100110004080401020408040800802040180402040
:100120001002011080102040402004040404040345
:100130000405020202020403020202020606060687
:100140000606040402020204040000050720610000
:100150000000000000005F00000007000700147F9F
:10016000147F14242A7F2A12231308646236495507
:1001700022500005030000001C2241000041221C07
:1001800000082A1C2A0808083E0808005030000011
:100190000808080808006060000020100804023EFB
:1001A0005149453E00427F4000426151494621414C
:1001B000454B311814127F1027454545393C4A49B3
:1001C000493001710905033649494936064949292B
:1001D0001E0036360000005636000000081422418A
:1001E0001414141414412214080002015109063297
:1001F0004979413E7E1111117E7F494949363E4180
:100200004141227F4141221C7F494949417F0909DF
:1002100001013E414151327F0808087F00417F4182
:10022000002040413F017F081422417F4040404070
:100230007F0204027F7F0408107F3E4141413E7FE0
:10024000090909063E4151215E7F0919294646499F
:1002500049493101017F01013F4040403F1F20409B
:10026000201F7F2018207F63140814630304780480
:1002700003615149454300007F41410204081020B9
:1002800041417F0000040201020440404040400020
:100290000102040020545454787F484444383844C0
:1002A000444420384444487F3854545418087E0944
:1002B0000102081454543C7F0804047800447D4033
:1002C000002040443D00007F10284400417F400052
:1002D0007C041804787C0804047838444444387C4E
:1002E00014141408081414187C7C080404084854D6
:1002F000545420043F4440203C4040207C1C20407B
:10030000201C3C4030403C44281028440C505050A5
:100310003C4464544C44000836410000007F000017
:10032000004136080008082A1C08081C2A08080092
:1003300006090906AC00198040000000000200090F
:100340000F0000030401000C00000000000000008A
:10035000000000000000000000070605040100087E
:100360000A0B0C0D0957616B65733A2000557074C8
:10037000696D653A002E002E003E53746174733C23
:10038000004578697427642E2E2E00536176652708
:10039000642E2E2E0020003E0054696D65205365AA
:1003A00074757000250076302E322E3200576F7231
:1003B00064436C6F636B00576174636858005765E2
:1003C0006C636F6D6520746F00080B000202020001
:1003D00000090400000102020000052400100105CC
:1003E00024010101042402060524060001070581F9
:1003F0000310004009040100020A00000007050282
:1004000002400000070583024000000403090412B3
:10041000010002EF02014041233680000101020386
:100420000141726475696E6F204C4C4300417264E7
:1004300075696E6F204C656F6E6172646F00881411
:1004400011241FBECFEFDAE0DEBFCDBF12E0A0E087
:10045000B1E0E0E4FFE402C005900D92A63EB107D2
:10046000D9F724E0A6EEB2E001C01D92A83DB20784
:10047000E1F712E0C0E2D2E004C02197FE010E9441
:100480008D24CF31D107C9F70E94F6140C949E2712
:100490000C94000091E09093DF038093010410928C
:1004A000E0031092020408959091B2038091B10389
:1004B0002FEF3FEF981748F4E92FF0E0EF56FC4F8D
:1004C000208130E09F5F9093B203C901089590911D
:1004D000B2038091B1032FEF3FEF981748F4E92F53
:1004E000F0E0EF56FC4F208130E09F5F9093B20325
:1004F000C90108958091B1039091B203891B990BB2
:100500000895FC0180919003882311F13FB7F8947E
:1005100082E08093E9002091F200822F90E018168B
:10052000190614F481E090E0882339F0289844E615
:1005300040938F034091F1004083222339F02091B2
:10054000F200211103C02BE62093E8003FBF08957D
:100550008FEF9FEF08952FB7F89483E08093E90021
:100560009091E800892F807295FF04C09091F2006D
:1005700080E4891B2FBF08958091870381110DC0EE
:1005800082E08093830384E0809384031092860347
:100590001092850381E08093870383E893E00895B8
:1005A000CF93DF931F92CDB7DEB76983DC01ED9166
:1005B000FC910280F381E02D41E050E0BE016F5FCD
:1005C0007F4F09950F90DF91CF91089583E080933D
:1005D000E9008091F200882319F08AE38093E80013
:1005E00008950E94AB0290E00895CF93DF931F928D
:1005F000CDB7DEB7FC018485958597FD08C02FEF48
:100600003FEF358724870F90DF91CF910895CE017A
:1006100001960E948102019719F4898190E0F3CF3D
:100620008FEF9FEFF0CF0F931F93CF93DF931F9226
:10063000CDB7DEB78C01FC018485958597FF0BC093
:10064000CE0101960E948102019771F4898190E0A8
:10065000F80195878487F801848595850F90DF914F
:10066000CF911F910F9108958FEF9FEFF1CFFC0174
:100670008485958597FD0BC09FB7F89482E08093A1
:10068000E9008091F2009FBF90E0019608959FB726
:10069000F89482E08093E9008091F2009FBF90E09F
:1006A000089540917D0350917E0320917B0330910A
:1006B0007C0342175307B4F49091E8009570E1F37E
:1006C0009091E80092FD19C08093F10080917D0324
:1006D00090917E0301968F739927892B19F48EEFE1
:1006E0008093E80080917D0390917E030196909322
:1006F0007E0380937D0381E0089580E00895EF926A
:10070000FF920F931F93CF93DF93F82E192FE62EAE
:10071000042F81E0860F880F0E94510383E00E941E
:100720005103CF2DD12FEC0EFD2EF11CCE15DF0580
:10073000B9F007FF13C0FE0184910E945103182FE6
:1007400080E00E945103812321968111EFCFDF9138
:10075000CF911F910F91FF90EF9008958881EDCF79
:1007600081E0F5CFDF92EF92FF920F931F93CF932B
:10077000DF93D82E8A01EB017B01E40EF51ECE1526
:10078000DF0559F0D7FE12C0FE0184910E9451038B
:1007900021968111F4CF0FEF1FEFC801DF91CF91A8
:1007A0001F910F91FF90EF90DF9008958881EECF19
:1007B0000F931F93CF93DF931F92CDB7DEB782E0E5
:1007C000898342E450E069EC73E080E80E94B20360
:1007D0000E94BC02DC0112960D911C9101151105BD
:1007E00089F0D801ED91FC910280F381E02DBE01EA
:1007F0006F5F7F4FC801099597FD04C0F801008520
:100800001185ECCF89810F90DF91CF911F910F91CE
:100810000895615030F02091F100FC012083019691
:10082000F8CF289884E680938F030895089508955B
:100830000895AF92BF92CF92DF92EF92FF920F9303
:100840001F93CF93DF936C017B018B01040F151F66
:10085000EB015E01AE18BF08C017D10759F06991CE
:10086000D601ED91FC910190F081E02DC601099532
:10087000892B79F7C501DF91CF911F910F91FF90DF
:10088000EF90DF90CF90BF90AF90089581508F3060
:1008900008F047C0E82FF0E0E05BFB4F0C948D249C
:1008A0006D0471045F04650469049104910491046A
:1008B00074047A047E048204880491048C04809178
:1008C00080008F77809380000895809180008F7DD5
:1008D000F9CF80918000877FF5CF84B58F7784BD75
:1008E000089584B58F7DFBCF809190008F778093A2
:1008F00090000895809190008F7DF9CF80919000B5
:10090000877FF5CF8091C0008F778093C0000895D6
:100910008091C0008F7DF9CF8091C200877F809346
:10092000C2000895CF93DF93282F30E0F901E65CF1
:10093000FC4F8491F901E55FFE4FD491F901E65D2A
:10094000FE4FC491CC23A1F081110E944604EC2FEC
:10095000F0E0EE0FFF1FE151FF4FA591B491EC9134
:10096000ED2381E090E009F480E0DF91CF910895DC
:1009700080E090E0FACF1F93CF93DF93282F30E0F1
:10098000F901E65CFC4F8491F901E55FFE4FD491DB
:10099000F901E65DFE4FC491CC23A9F0162F811119
:1009A0000E944604EC2FF0E0EE0FFF1FEF51FF4FC7
:1009B000A591B4918FB7F894EC91111108C0D0951E
:1009C000DE23DC938FBFDF91CF911F910895DE2B43
:1009D000F8CFCF93DF9390E0FC01E55FFE4F2491C9
:1009E000865D9E4FFC0184918823C9F090E0880FBA
:1009F000991FFC01E350FF4FA591B491FC01EF5109
:100A0000FF4FC591D49161110DC09FB7F8948C919F
:100A1000209582238C938881282328839FBFDF9190
:100A2000CF910895623051F49FB7F8943C91822F92
:100A3000809583238C93E8812E2BEFCF8FB7F8948A
:100A4000EC912E2B2C938FBFEACF3FB7F894809177
:100A50002F0390913003A0913103B091320326B55A
:100A6000A89B05C02F3F19F00196A11DB11D3FBFE6
:100A7000BA2FA92F982F8827BC01CD01620F711DB5
:100A8000811D911D42E0660F771F881F991F4A95AF
:100A9000D1F708958F929F92AF92BF92CF92DF923B
:100AA000EF92FF924B015C010E9425056B017C01D6
:100AB0000E9425056C197D098E099F09683E7340C7
:100AC00081059105A8F321E0821A9108A108B108D7
:100AD00088EEC80E83E0D81EE11CF11C811491043D
:100AE000A104B10429F7FF90EF90DF90CF90BF9061
:100AF000AF909F908F9008958F929F92AF92BF92E8
:100B0000CF92DF92EF92FF920F931F93CF93DF93D9
:100B10006C017B018A0180912301882309F45CC068
:100B200080919003882309F457C08091820380FF4D
:100B300005C08091E00082608093E000E801B12C64
:100B40008AEFA82E93E0892E2AE3922E209711F4A3
:100B5000BB20D9F10E94AB0281110AC0AA94AA203D
:100B6000D9F161E070E080E090E00E944A05EECFAC
:100B70008C171D0611F00CF08C2F9FB7F894809203
:100B8000E9002091E80025FD02C09FBFDFCF282F9C
:100B900030E0C21BD30BF701815020F0419140930C
:100BA000F100FACFE20EF31EBB2021F09092E80094
:100BB000B12CEBCF8091E80085FDE7CF9092E80063
:100BC000BB24B394209709F3F3CF5D9884E6809318
:100BD0008103101611063CF081E090E0F60193834A
:100BE000828310E000E0C801DF91CF911F910F9147
:100BF000FF90EF90DF90CF90BF90AF909F908F903D
:100C000008952FB7F89460912B0370912C03809175
:100C10002D0390912E032FBF0895FC01808580FD48
:100C200004C082FB882780F9089580E00895862F0C
:100C3000642F0C94E904FC0181850E94920421E058
:100C4000892B09F420E0822F0895CF93DF93EC01E4
:100C5000698718860E941B06882319F0888583609F
:100C600088870E9401066A837B838C839D83DF9142
:100C7000CF910895CF92DF92EF92FF920F931F933F
:100C8000CF93DF93EC0188858B7F8887CE010E940C
:100C90001B06182F8885869581701817B9F00E9459
:100CA00001066A837B838C839D83888592E08927F4
:100CB0008887888582FB882780F9DF91CF911F91F3
:100CC0000F91FF90EF90DF90CF9008950E94010662
:100CD000CA80DB80EC80FD80AB01BC014C195D0952
:100CE0006E097F098E819F81B0E0A0E04817590707
:100CF0006A077B07F0F2888581701817D1F20E948D
:100D000001066A837B838C839D83888591E0892794
:100D1000846088870E9401060A851B852C853D8595
:100D2000601B710B820B930B6E877F87888B998B6F
:100D30000E9401066A877B878C879D87BACFEF92D6
:100D4000FF920F931F93CF93DF93EC01698138815A
:100D5000432F50E02A81822F90E0E5EDF0E021E082
:100D6000261730F47491870F911D2F5F3196F8CFBD
:100D7000633018F0337009F401966DE671E0469F18
:100D80009001479F300D569F300D1124215031099D
:100D90004D5F5F4F5695479556954795240F351FE4
:100DA000280F391FA8E1B0E00E9493242B817B011A
:100DB0008C01E20EF11C011D111DA8019701ACE38D
:100DC000B0E00E94A2242C817B018C01E20EF11C78
:100DD000011D111DA80197010E94A2242D81620FFF
:100DE000711D811D911D60587C4B8249974CDF918C
:100DF000CF911F910F91FF90EF900895FC0190818A
:100E000090539A3008F090E0818180532AE0929FBD
:100E1000800D11240895CF93DF93EC0184EA91E0D3
:100E20000E94FE0688838BE089838FE991E00E940F
:100E3000FE068A8387EA91E00E94FE068B838AEA97
:100E400091E00E94FE068C838DEA91E00E94FE06EE
:100E50008D83DF91CF9108958F929F92AF92BF9231
:100E6000CF92DF92EF92FF92CF93DF93EC016A0172
:100E70007B0180E8C81A83E4D80A8DE6E80A88E393
:100E8000F80A8CE3882E912CA12CB12CC701B60155
:100E9000A50194010E946B246D83CA01B901A501CB
:100EA00094010E946B246C83C701B60120E13EE0EF
:100EB00040E050E00E946B24CA01B90128E130E013
:100EC00040E050E00E946B246B83C701B60120E82C
:100ED00031E541E050E00E946B24188263E97EEF27
:100EE0004881542F537081E009F080E090E0FC01CC
:100EF000E359FE4F2E173F0740F0FB01E81BF90BAB
:100F00002E0F3F1F4F5F4883EBCF81E0898389819C
:100F1000682F6150770BFB01EB52FF4FE4915111A9
:100F200003C0823009F4EF5FF0E02E173F0720F096
:100F30002E1B3F0B8F5FEACF2F5F2A83DF91CF916C
:100F4000FF90EF90DF90CF90BF90AF909F908F90E9
:100F50000895CF93DF93EC019C818E81981768F4FC
:100F60008F856827E881F9810084F185E02D42E0D2
:100F7000CE0109958C818F5F8C83DF91CF9108958D
:100F800020910703260F3327331F21323105ECF45C
:100F90002091D903FC0190E080E0243069F082E0E8
:100FA0000895A09107032191AC0149515D4FA40F11
:100FB000B52FB11D2C930196861798F380910703E6
:100FC000680F6093070380E0089581E00895109210
:100FD000D90381E08093D8031092B30361E082E0EB
:100FE0000E94BB0461E083E00E94BB04E9EBF0E0F7
:100FF00080818E7F808380818D7F808388E4809351
:10100000B80085E48093BC000895CF93DF9391E00E
:101010009093E6028823B9F0C091B800D091BA004D
:101020008091BC008A7B8093BC0060E082E00E94DB
:10103000BB0460E083E00E94BB040E94E707D093FA
:10104000BA00C093B800DF91CF910895CF92DF929C
:10105000EF92FF920F931F93CF93DF93D0910204EF
:1010600081E0D13208F09CC0C09101040E942505A6
:101070006B017C018091D90381116CC082E0809367
:10108000D90381E08093D8038FEF8093D703109228
:10109000D603D093D503A1EEB3E0E5EBF3E080E017
:1010A000D8138DC01092B4038091B403CC0FC82B19
:1010B000C093B4038091B303813009F084C01092CF
:1010C000B3030E9425056B017C018091B4038093DA
:1010D000BB008091DB039091DC03A091DD03B09114
:1010E000DE03892B8A2B8B2BA1F00E942505009112
:1010F000DB031091DC032091DD033091DE036C19DA
:101100007D098E099F09061717072807390708F474
:1011100042C08091BC0083FDD8CF85EC8093BC0099
:101120000E9425056B017C018091D903823009F46E
:101130004CC08091D7038F3F09F469C08091D703D9
:10114000803209F466C08091D703803309F463C00C
:1011500084E026C08091DB039091DC03A091DD0345
:10116000B091DE03892B8A2B8B2B09F483CF0E944D
:1011700025050091DB031091DC032091DD03309104
:10118000DE036C197D098E099F09061717072807CA
:10119000390708F06FCF8091DA030E94050885E0D7
:1011A0001092E003109202041092DF03DF91CF91BE
:1011B0001F910F91FF90EF90DF90CF9008959D9138
:1011C00091938F5F6DCF85EEA9CF8091DB039091D6
:1011D000DC03A091DD03B091DE03892B8A2B8B2BDE
:1011E00009F4A2CF0E9425050091DB031091DC03D6
:1011F0002091DD033091DE036C197D098E099F0972
:10120000061717072807390708F08ECFC4CF80E0EC
:10121000C7CF82E0C5CF83E0C3CFCF92DF92EF92FA
:10122000FF920F931F93CF93DF93D82FC62F613276
:1012300008F098C00E9425056B017C018091D903BC
:1012400081116BC081E08093D9038093D8039FEF15
:101250009093D7031092D6039C0F9093D50380935D
:10126000B4038091B403DD0FD82BD093B4038091E5
:10127000B303813009F078C01092B3030E942505B2
:101280006B017C018091B4038093BB008091DB03F0
:101290009091DC03A091DD03B091DE03892B8A2BB2
:1012A0008B2BA1F00E9425050091DB031091DC033C
:1012B0002091DD033091DE036C197D098E099F09B1
:1012C000061717072807390708F448C08091BC00A3
:1012D00083FDD8CF85EC8093BC000E9425056B016F
:1012E0007C018091D903813009F440C08091D603FC
:1012F0008C1710F4C091D603E5EBF3E0A1E9B3E05D
:1013000080E08C1355C08C2FDF91CF911F910F91EE
:10131000FF90EF90DF90CF9008958091DB03909144
:10132000DC03A091DD03B091DE03892B8A2B8B2B8C
:1013300009F484CF0E9425050091DB031091DC03A2
:101340002091DD033091DE036C197D098E099F0920
:10135000061717072807390708F070CF8091DA03BE
:101360000E940508C0E0CFCF85EEB5CF8091DB03AA
:101370009091DC03A091DD03B091DE03892B8A2BD1
:101380008B2B09F4AECF0E9425050091DB03109151
:10139000DC032091DD033091DE036C197D098E0999
:1013A0009F09061717072807390708F09ACFD6CFE5
:1013B00091919D938F5FA5CF0895E091B2038091A5
:1013C000B103E81730F4F0E0EF56FC4F808190E075
:1013D00008958FEF9FEF0895CF92DF92EF92FF92E3
:1013E0000F931F93CF93DF937C01CB018A01209150
:1013F000DF03222389F0EB016B01C40ED51ECC154F
:10140000DD0569F06991D701ED91FC910190F081C2
:10141000E02DC7010995F3CF642F0E94C007C801D2
:10142000DF91CF911F910F91FF90EF90DF90CF90C0
:101430000895CF93DF931F92CDB7DEB769832091D4
:10144000DF032223F9F020910204203258F021E03A
:1014500030E0FC013383228390E080E00F90DF9145
:10146000CF9108958091E003E82FF0E0EF51FC4F19
:10147000998190838F5F8093E0038093020481E0E1
:1014800090E0ECCF61E0CE0101960E94C007F7CF5B
:10149000CF93DF93D82FC62F8EE00E944A026D2F84
:1014A00083E594E00E94190A6C2F83E594E00E9482
:1014B000190ADF91CF910C942608CF93C82F60E0D2
:1014C00088E08C0F0E94480A6FE070E080E090E0B6
:1014D0000E944A0560E089E08C0FCF910C94480A85
:1014E0001F93CF93DF93162FEA010E944A02612FC8
:1014F00083E594E00E94190A688183E594E00E94E4
:10150000190A0E94260891E0811190E0892FDF914D
:10151000CF911F910895209162033091630330931E
:101520005A032093590390936303809362030895B1
:1015300083B78E7F83BF86E194E090930D01809303
:101540000C01809151038F7B809351038091520352
:101550008F7B8093520380916B008F7B80936B0015
:1015600080916B00811105C0809168008E7F80930F
:10157000680082E390E00C948B0A1F93CF93DF9373
:10158000EC01162F61E0411101C060E08A890E94E0
:10159000BB0480E58CBD81E08DBD60E089890E943F
:1015A000BB041EBD00000DB407FEFDCF8EB561E08B
:1015B0008989DF91CF911F910C94BB04DC01ED91DF
:1015C000FC910084F185E02D40E009940F931F9376
:1015D000CF938C01FC016483C085C60F6C2F6F70A4
:1015E0000E94DE0A6C2F62956F706061C801CF9116
:1015F0001F910F910C94DE0AFC01278126952695F8
:101600002695621738F465832385620F6770606BD7
:101610000C94DE0A08951F93CF93DF93EC01142FEF
:101620008E81681718F4CE010E94E60A612FCE0160
:10163000DF91CF911F910C94FC0ACF92DF92EF9231
:10164000FF920F931F93CF93DF93EC01F62EC42EDE
:10165000D22E8F81869586958695081710F00FEF0C
:10166000080F1D2D011780F0412F6F2DCE010E9414
:101670000B0BEF2CCE1430F06F85CE010E94A90722
:10168000E394F8CF1F5FEECF4D2D6F2DCE01DF918C
:10169000CF911F910F91FF90EF90DF90CF900C941E
:1016A0000B0B2F923F924F925F926F927F928F928D
:1016B0009F92AF92BF92CF92DF92EF92FF920F93E1
:1016C0001F93CF93DF9300D000D01F92CDB7DEB72A
:1016D000DC011D962D913C912115310509F470C155
:1016E0009D838C83F9013296649031964491E42E67
:1016F000F12CB7E0EB0EF11C53E0F594E7945A950A
:10170000E1F7E982319654913196E491651748F0FA
:101710008E2F90E0FC01E50FF11D6E171F060CF4F3
:1017200091C06D3029F5EC81FD81868181111AC04F
:1017300081E090E00F900F900F900F900F90DF914D
:10174000CF911F910F91FF90EF90DF90CF90BF90BE
:10175000AF909F908F907F906F905F904F903F9051
:101760002F90089560E08C819D810E94E60AE0CF71
:101770006A3009F025C1AC81BD8116968C9116970F
:10178000882321F060E0CD010E94E60AEC81FD8112
:1017900000890E9DE02C112465816E0D84858823BF
:1017A00049F027812695269526958E2D821B860F3A
:1017B00018162CF08C819D810E94FC0AB9CFAC8157
:1017C000BD811B969C911B97890F87701B968C93EC
:1017D0001B972E1915962C9315971D96ED91FC913C
:1017E000309771F13396E491F0E0379633E0F59558
:1017F000E7953A95E1F70E9F002D1124EFEFE20FE8
:101800000E0FEC81FD81468141506481CF010E9421
:101810001D0BAC81BD811C968C911C97813009F009
:1018200087CF1B966C911B97660F660F660F6F73C1
:101830001A966C931A976064CD010E94DE0A78CFE5
:1018400000E0DCCF89010A5F1F4F651BEC81FD8141
:1018500071855089759F502D11245B83F901549136
:101860002F5F3F4FF9012491352F2230310508F0C9
:1018700069C06E9CC0016F9C900D1124689FF0019F
:10188000699FF00D11240E0F1F1F512CAC81BD81DB
:101890001496BC91BA83EC81FD812580862C912C15
:1018A000AA24A394B12C312CF9813F1608F086C0EC
:1018B000412CAC81BD8150968C91481608F077C0C0
:1018C000311002C0442041F0EC81FD8145814F5F21
:1018D0006A81CF010E940B0BD12CC12CC61408F0D9
:1018E00059C0F801EC0DFD1D7490552061F0EA140B
:1018F000FB0449F4E72DF0E0052C02C0F595E795CF
:101900000A94E2F77E2EAC81BD8150968C91823094
:1019100081F4442009F43AC072948FE07822E72DD4
:10192000F0E0EB53FF4F7490672D8C819D810E94F6
:10193000A907672D8C819D810E94A907EFEFCE1A20
:10194000DE0ACCCF477028E0522E541A411101C054
:10195000512CF801612C30E020E0661631F0449102
:10196000240F311D63943196F8CF600E712E711CD7
:10197000F3016490E29EF001E39EF00DF29EF00D03
:1019800011248E0F9F1F080F191F80CFB72DBF7016
:101990007B2EC5CFD12CFB81DF1639F060E08C8126
:1019A0009D810E94A907D394F6CF439482CF3394AC
:1019B000080D191D8FEFA81AB80A76CF622DFACE3E
:1019C00090E080E0B7CE682F85EC94E00C94510B4A
:1019D0000F931F93CF93DF938C01D0E0C0E0F80109
:1019E000EC0FFD1F6491662341F085EC94E00E94AA
:1019F000510B892B11F02196F2CFCE01DF91CF91BF
:101A00001F910F9108950F93CF93DF93EC011B86E5
:101A10001A8660E40E94DE0A0F81069506950695F7
:101A200001504E81415020E060E0CE010E941D0B2C
:101A3000DF91CF910F910895089590E080E008958F
:101A4000CF92DF92FF920F931F93CF93DF936C019E
:101A500088E60E944A0260E083E594E00E94190A49
:101A60000E94260867E088E60E940D091092B203E2
:101A70008093B1030E9467028F77282F30E094E0B3
:101A8000359527959A95E1F7922F990F990FC22FC7
:101A9000C91BCC0FC80F0E9467029C0144E035951A
:101AA00027954A95E1F72F703327922F990F990FB9
:101AB000D22FD91BDD0FD80F0E9467029C0154E082
:101AC000359527955A95E1F72F703327922F990F67
:101AD000990F122F191B110F180F0E9467020E94F5
:101AE00067029C0164E0359527956A95E1F72F70B0
:101AF0003327922F990F990F022F091B000F080F00
:101B00000E9467029C0174E0359527957A95E1F76C
:101B10002F703327922F990F990FF22EF91AFF0C7D
:101B2000F80E0E9467029C01E4E035952795EA953E
:101B3000E1F72F703327922F990F990F291B220F4E
:101B4000820FF6018083F18202831383D483C583DD
:101B5000C601DF91CF911F910F91FF90DF90CF9041
:101B60000895CF93C82F8EE00E944A026C2F83E520
:101B700094E00E94190A0E94260883E090E00197F1
:101B8000F1F761E08EE00E940D09C82F1092B203B8
:101B90008093B10380E09091B203C91719F00E94BD
:101BA0006702F9CFCF9108951092B40480E10E94AA
:101BB000B10D682F6C7F80E10C94480A4F925F92C0
:101BC0006F927F92AF92BF92CF92DF92EF92FF928D
:101BD0000F931F93CF93DF93C82FD62F5A018901FC
:101BE0000E9401066B017C018C2F0E944A026D2F1E
:101BF00083E594E00E94190A0E9426088C2F0E9417
:101C00004A0261E08C2F0E940D09D82F1092B20376
:101C10008093B103C0E02801712C612C8091B20344
:101C2000D817A9F10115110551F40E946702F501B9
:101C3000EC0FF11DC7FDFA958083CF5FEFCF0E94B7
:101C400001066C197D098E099F09641575058605C5
:101C5000970558F30E9401066C197D098E099F09AA
:101C600030E020E06017710782079307A0F48C2F03
:101C7000DF91CF911F910F91FF90EF90DF90CF9068
:101C8000BF90AF907F906F905F904F900895011537
:101C9000110569F3DFCF1C1654F3CFEFE8CF0F9394
:101CA0001F93CF93DF9300D0CDB7DEB7182F062F49
:101CB00028EE33E0AE014E5F5F4F6BE60E94DE0D13
:101CC0008A81002389F080648A838983AE014F5F13
:101CD0005F4F6BE6812F0E94700A0F900F90DF918B
:101CE000CF911F910F9108958F7BEECFDF92EF92EE
:101CF000FF920F931F93CF93DF9300D0CDB7DEB742
:101D0000F82EE62E142FD22E28EE33E0AE014E5FD1
:101D10005F4F0E94DE0D882381F1812F8D19990B71
:101D2000AC014F5F5F4F81E090E002C0880F991FC8
:101D3000DA94E2F70197042E01C0880F0A94EAF7BB
:101D400001C0000F4A95EAF7982F90952A819223B7
:101D50008023892B8A838983AE014F5F5F4F6E2D6D
:101D60008F2D0E94700A0F900F90DF91CF911F91DD
:101D70000F91FF90EF90DF90089580E0F4CF1F93D4
:101D8000CF93DF93EC0188E60E944A0260E083E58E
:101D900094E00E94190A2D811AE0822F612F0E947F
:101DA0004B24682F660F680F660F620F83E594E07F
:101DB0000E94190A2C81822F612F0E944B24682FC8
:101DC000660F680F660F620F83E594E00E94190AA0
:101DD0002B81822F612F0E944B24682F660F680F82
:101DE000660F620F83E594E00E94190A60E083E5C4
:101DF00094E00E94190A2A81822F612F0E944B24AD
:101E0000682F660F680F660F620F83E594E00E94EB
:101E1000190A2981822F612F0E944B24682F660F97
:101E2000680F660F620F83E594E00E94190A28810B
:101E3000822F612F0E944B24682F660F680F660F58
:101E4000620F83E594E00E94190A0E94260888E642
:101E50000E944A026FE083E594E00E94190A0E9402
:101E6000260861E088E60E940D091092B203809373
:101E7000B1030E946702C82F88E60E944A026FE001
:101E800083E594E00E94190A6C2F6F7783E594E054
:101E90000E94190ADF91CF911F910C9426088F920E
:101EA0009F92AF92BF920F931F93CF93DF93CDB7C3
:101EB000DEB7A1970FB6F894DEBF0FBECDBF19A253
:101EC000423008F44AE08E010F5D1F4F842E912CA2
:101ED000B12CA12CA50194010E946B24E62FB9011D
:101EE000CA01EA3044F5E05DD801EE938D01232B61
:101EF000242B252B79F790E080E0109769F0FD0105
:101F000001900020E9F73197AF014A1B5B0BBD013F
:101F100085EC94E00E941904A1960FB6F894DEBFF8
:101F20000FBECDBFDF91CF911F910F91BF90AF90AA
:101F30009F908F900895E95CD7CFCF92DF92EF9278
:101F4000FF92CF93DF936C01990FEE08FF08F7FE25
:101F500017C08DE20E94E30CEC0166277727CB01C6
:101F60006C197D098E099F094AE00E944F0F8C0F62
:101F70009D1FDF91CF91FF90EF90DF90CF9008955C
:101F80004AE0C701B601DF91CF91FF90EF90DF905B
:101F9000CF900C944F0F009769F0FC010190002046
:101FA000E9F73197AF01481B590BBC0185EC94E070
:101FB0000C94190490E080E008950E94C12485EDFE
:101FC0008093BC008091DB039091DC03A091DD0342
:101FD000B091DE030796A11DB11D23E0B695A7952C
:101FE000979587952A95D1F72091BC0024FD03C0D1
:101FF0001092D90308954091DB035091DC03609166
:10200000DD037091DE03452B462B472B69F30097C8
:10201000A105B10541F025E32A95F1F700000197EC
:10202000A109B109E1CF8091DA030C9405081F9250
:102030000F920FB60F9211248F939F938091E1001E
:102040009091E100937F9093E10083FF0FC0109285
:10205000E90091E09093EB001092EC0092E39093F2
:10206000ED001092900398E09093F00082FF22C060
:1020700093E09093E9009091F200992319F09AE38C
:102080009093E80090918103992341F0909181030E
:10209000915090938103911101C05D9A90918F03AB
:1020A000992341F090918F03915090938F03911158
:1020B00001C0289A84FF18C08091E2008E7E816062
:1020C0008093E2008091E1008F7E8093E100809117
:1020D00082038E7E8061809382039F918F910F9007
:1020E0000FBE0F901F90189580FFF7CF8091E200F0
:1020F0008E7E80618093E2008091E1008E7E8093ED
:10210000E100809182038E7E8160E5CF1F920F9265
:102110000FB60F921124CF92DF92EF92FF920F939E
:102120001F932F933F934F935F936F937F938F935F
:102130009F93AF93BF93EF93FF93CF93DF93CDB76D
:10214000DEB76C97DEBFCDBF1092E9008091E8004A
:1021500083FF25C068E0CE0145960E94090482EF06
:102160008093E8008D8987FF39C09091E80090FF47
:10217000FCCF982F907609F034C19E894F89588DF5
:102180002F89F88C911131C0803861F580918003DE
:102190008093F1001092F1008EEF8093E8006C962E
:1021A0000FB6F894DEBF0FBECDBFDF91CF91FF9188
:1021B000EF91BF91AF919F918F917F916F915F91BF
:1021C0004F913F912F911F910F91FF90EF90DF90D2
:1021D000CF900F900FBE0F901F9018959EEF909389
:1021E000E800C7CF1092F100D5CF913059F481119A
:1021F000D3CF4130510581F6809180038D7F80934C
:102200008003CACF933049F48111C6CF41305105C4
:1022100019F6809180038260F2CF953041F480916D
:10222000E80080FFFCCF20682093E300B5CF963014
:1022300009F0A9C00B8D1C8D22E01092E9001092CC
:102240007E0310927D03F2122EC010927C03109236
:102250007B030E94D8031F8299E09983FA8291E060
:102260009E8390EA98879AEF998720917D03309119
:102270007E03275F3F4F3C832B838D831092E900C1
:1022800010927E0310927D0310937C0300937B03D6
:1022900049E050E0BE016F5F7F4F80E00E94B203D3
:1022A0000E94D80379CF10937C0300937B030E9494
:1022B000BC02DC0112960D911C910115110509F467
:1022C00051C1D801ED91FC910480F581E02DBE0152
:1022D0006B5E7F4FC8010995009709F03EC1F80178
:1022E00000851185EACFF3E0FF120EC08F898823A5
:1022F00009F440C0823061F440E860E18DE294E08E
:102300000E947F03811148CF81E28093EB0047CF89
:10231000813029F440E86BE081E294E0F1CF833032
:1023200099F70E94BC02DC011296ED90FC908E01A0
:102330000F5F1F4F6801E114F10479F0D701ED91AF
:10234000FC910680F781E02DB801C7010995080FBF
:10235000111DF701E084F184EECFD8011C92F60143
:1023600001900020E9F73197BF016C197D0940E029
:10237000C601C6CF6BE074E0FB01449150E080E8F9
:102380000E94B20309CF973009F4BECF983021F4F0
:1023900081E08093F10000CF993009F0FDCE837089
:1023A00009F0B2CFEBE5F1E081E031E096E3219175
:1023B000222371F08093E9003093EB00DF01119745
:1023C0002C912093EC009093ED008F5F873079F78C
:1023D0008EE78093EA001092EA008F898093900341
:1023E000DBCE8B8D9C8D1092E90010927E031092B3
:1023F0007D0390937C0380937B03898D811192C030
:102400008E899D89913A49F4813209F07DCF47E068
:1024100050E06CE171E080E0B3CF913209F074CF0D
:10242000833269F48F89988DB0E0A0E08093180121
:1024300090931901A0931A01B0931B01ADCE803285
:1024400069F48091E80082FFFCCF67E08CE191E0C5
:102450000E9409048BEF8093E8009ECE823209F03F
:102460009BCE8F8980932301EEEFFFE785919491B6
:102470008B3F9C4D51F1E0E0F8E080911C01909180
:102480001D01A0911E01B0911F01803B9440A10548
:10249000B105F1F48091230180FD1AC0EE3F8AE07E
:1024A000F80789F587E797E791838083809160003B
:1024B00080937F0388E19BE00FB6F894A895809302
:1024C00060000FBE9093600067CEEEEFFAE0D5CFCC
:1024D000808191818737974709F05ECEA8958091DA
:1024E000600088618093600080917F03809360002A
:1024F000EE3F2AE0F20789F08091FE0A9091FF0AF0
:102500009183808349CE808191818737980751F2EA
:102510009093FF0A8093FE0AC5CF1092FF0A109293
:10252000FE0A3ACE0E94BC02DC0112960D911C916B
:102530000115110509F4E8CED801ED91FC91019047
:10254000F081E02DBE016B5E7F4FC80109958111BE
:1025500023CEF80100851185EBCF181619060CF46F
:102560001BCED2CEF1E0FF12BECE6FE074E004CFFE
:102570001F920F920FB60F9211242F933F938F93B8
:102580009F93AF93BF9380912B0390912C03A091C5
:102590002D03B0912E0330912A0323E0230F2D3712
:1025A00058F50196A11DB11D20932A0380932B039A
:1025B00090932C03A0932D03B0932E0380912F03AF
:1025C00090913003A0913103B09132030196A11D87
:1025D000B11D80932F0390933003A0933103B093E8
:1025E0003203BF91AF919F918F913F912F910F90A7
:1025F0000FBE0F901F90189526E8230F0296A11D7D
:10260000B11DD2CF1F920F920FB60F9211242F93AC
:102610003F934F935F936F937F938F939F93AF936A
:10262000BF93CF93EF93FF9393B180913803C09101
:102630005103C923282F2095C223209152038223BE
:10264000292F20958223C82B90933803C4FF05C0FF
:10265000E0910001F09101010995C5FF05C0E091ED
:102660000201F09103010995C6FF05C0E0910C013C
:10267000F0910D010995C7FF05C0E0910401F091AB
:1026800005010995C1FF05C0E0910601F091070120
:102690000995C2FF05C0E0910801F0910901099573
:1026A000C3FF05C0E0910A01F0910B010995FF916C
:1026B000EF91CF91BF91AF919F918F917F916F914A
:1026C0005F914F913F912F910F900FBE0F901F90F0
:1026D00018951F920F920FB60F9211242F933F93CC
:1026E0004F935F936F937F938F939F93AF93BF931A
:1026F000EF93FF938091B900887F803609F44AC038
:10270000F0F5883209F4A7C018F5803109F49BC0B0
:10271000B8F4882309F4F9C0883009F494C0FF9113
:10272000EF91BF91AF919F918F917F916F915F9149
:102730004F913F912F910F900FBE0F901F901895C2
:10274000883109F488C0803251F78093D70314C0D0
:10275000803409F49DC040F48033B9F38833F9F62E
:102760008093D70385ECB0C0803509F485C08835E7
:1027700009F496C0883499F60E94DF0FD0CF8839CB
:1027800009F48CC038F5883729F050F4883611F0F8
:10279000803729F683E08093D9031092290357C02C
:1027A000883809F47BC0803919F0803809F0B7CF38
:1027B00080912903803208F071C0E091290381E003
:1027C0008E0F809329038091BB00F0E0E75FFC4F00
:1027D00080833DC0803B39F0E0F4803A09F479C051
:1027E000883A09F09CCF84E08093D90310920803C3
:1027F00010920703E0913403F0913503099580911D
:10280000070381110FC081E0809307031092E70254
:1028100009C0803C09F4A6CF883C09F4A3CF883BCB
:1028200009F07DCFE091080381E08E0F80930803CB
:10283000F0E0E951FD4F80818093BB009091080347
:102840008091070329C08091B4038093BB0085EC7D
:102850008093BC0064CF9091D6038091D5039817E4
:1028600058F5E091D60381E08E0F8093D603F0E017
:10287000EB54FC4F8081E9CFE091D60381E08E0FCD
:102880008093D6038091BB00F0E0EB54FC4F808333
:102890009091D6038091D5039817C8F285E8D8CFD8
:1028A000E091D60381E08E0F8093D6038091BB0028
:1028B000F0E0EB54FC4F80838091D80381115CCF12
:1028C00081E08093B30384EA8093BC001092D90323
:1028D00026CF85EC8093BC001092D9038091290308
:1028E000803230F4E0912903F0E0E75FFC4F108282
:1028F0006091290370E0E0913603F091370389E09D
:1029000093E00995109229030ACF1092D70334CF90
:10291000E3E0F4E01382128288EE93E0A0E0B0E0FE
:1029200084839583A683B78325E631E031832083B2
:102930002FEF3FEF35872487E3E5F4E0138212821F
:1029400084839583A683B78387E791E0918380830F
:10295000E5ECF4E01382128214861686158617863B
:1029600081E0808B81E991E09183808389E6809387
:10297000B604EBE9F4E013861286158614861182FC
:102980001282138214821582168217821086E9E859
:10299000F4E029E831E0318320831282138214822B
:1029A00015828AE090E09783868310861186E7E798
:1029B000F4E031832083128213821482158297837C
:1029C000868310861186E5E6F4E031832083128247
:1029D000138214821582978386831086118640E0C5
:1029E00050E0BA018FE594E00C942C07CF93DF936D
:1029F000CDB7DEB7A9970FB6F894DEBF0FBECDBF37
:102A0000789484B5826084BD84B5816084BD85B5C9
:102A1000826085BD85B5816085BD80916E008160D5
:102A200080936E001092810080918100826080937B
:102A3000810080918100816080938100809180007D
:102A400081608093800080919100826080939100EA
:102A500080919100816080939100809190008160CD
:102A6000809390008091C10084608093C100809128
:102A7000C10082608093C1008091C1008160809319
:102A8000C1008091C30081608093C3008091C00029
:102A900082608093C0008091C20081608093C200F8
:102AA00080917A00846080937A0080917A008260BD
:102AB00080937A0080917A00816080937A0080917F
:102AC0007A00806880937A001092900310928003BD
:102AD000109282038091D70081608093D70080EAB2
:102AE0008093D80089B5806189BD89B5826089BD30
:102AF00009B400FEFDCF61E070E080E090E00E944C
:102B00004A058091D8008F7C80618093D8008091A5
:102B1000E000807F8093E0008091E1008E7E8093D2
:102B2000E1008DE08093E200559A209A1092B20362
:102B30001092B1031092E003109202040E94E70782
:102B400087E194E0909335038093340388E194E027
:102B50009093370380933603CE0101960E94200D97
:102B600086E0FE013196AFE5B4E001900D928A95C2
:102B7000E1F7CE010D960E940B078FE594E00E94CD
:102B80009F066B017C01CE010D960E949F06C61622
:102B9000D706E806F90618F5CE0107960E940B073E
:102BA000CE0107960E949F06AB01BC01485F5F4FB4
:102BB0006F4F7F4FCE0101960E942C07CE010196E8
:102BC0000E94BF0ECE0101960E94200D86E0FE01FC
:102BD0003196AFE5B4E001900D928A95E1F761E09E
:102BE00086E10E94E90460E086E10E94BB046AE09D
:102BF00070E080E090E00E944A0561E086E10E947A
:102C0000BB046AE070E080E090E00E944A0587E142
:102C10008093D60485E18093D70461E087E10E9428
:102C2000E90461E08091D7040E94E9041FB7F89499
:102C300080913303811127C0EBE3F1E08491ECE153
:102C4000F1E09491E82FF0E0EE0FFF1FE350FF4F0B
:102C5000A591B491EC91E92321F461E081E10E9416
:102C6000BB0461E081E10E94E9048CB580618CBD08
:102C70008CB580648CBD61E08FE00E94E90461E066
:102C800080E10E94E904809133038F5F80933303D6
:102C90001FBF1092C9041092CA04E4E3F3E08591C7
:102CA0009491E82EE6E3F3E0F490E7E3F3E0E491B7
:102CB000E093CB04E8E3F3E0E491E093CC04E9E3B0
:102CC000F3E0E491E093CD048C01802F8E198F15F1
:102CD00048F4F801649185EC94E00E94DE0A0F5FED
:102CE0001F4FF3CF85EC94E00E94030DE9E4F1E07F
:102CF000F093D304E093D2048491EAE4F1E0E49108
:102D0000F82F319709F0D8C11092CE0485EC94E0E9
:102D10000E94030D01E023E042E06BE68091B604DF
:102D20000E94760E00E022E044E06BE18091B60460
:102D30000E94760E22E044E06CE18091B6040E948D
:102D4000760E60E08091B6040E944F0E61E08091A3
:102D5000B6040E944F0E1092B2031092B10310926B
:102D6000E003109202040E94E70787E194E0909349
:102D700035038093340388E194E090933703809384
:102D800036038CE08093B80087E00E94B10D843C4C
:102D9000D9F40E94D40D60E080E10E94480A60E806
:102DA00081E10E94480A1092B3041092B404109278
:102DB000B5041092A40481E00E945D0A83E00E94A1
:102DC0005D0A85E00E945D0A81E08093B40480E1A1
:102DD0000E94B10D682F616080E10E94480A0E9444
:102DE000D40D61E08DE00E94E90461E086E00E947C
:102DF000E90460E08DE00E94BB0460E086E00E9490
:102E0000BB0462E088E00E94E90468E070E089E8C1
:102E100094E00E94250609E110E0109390040093CD
:102E20008F0462E08BE00E94E9046BE070E087E7CA
:102E300094E00E94250610937E0400937D0462E0D6
:102E40008AE00E94E9046AE070E085E694E00E946E
:102E5000250610936C0400936B0462E085E00E94E9
:102E6000E90462E087E00E94E90480E090E0A0E0ED
:102E7000BFE38093530390935403A0935503B093FF
:102E800056038091D80080618093D8002224239437
:102E90000E9401066B017C0189E894E00E943A06D9
:102EA00087E794E00E943A0685E694E00E943A069D
:102EB00087E794E00E940D06382E811105C085E653
:102EC00094E00E940D06382ECE0107960E94200D38
:102ED0008A85282F30E03C8B2B8B3B85398F432F05
:102EE00050E05E8B4D8B8C85A82FB0E0B88FAF8BF8
:102EF0008F8190E0FC01E053F84FFB8FEA8F8885CB
:102F0000282F30E03D8F2C8F8985482F50E05F8F30
:102F10004E8F8B899C898D3091050CF4D1C00C9714
:102F200099A388A3CE0107960E949F066AA37BA35C
:102F30008CA39DA38FE594E00E949F066EA37FA3C0
:102F400088A799A781E02091160130911701ED899A
:102F5000FE892E173F0709F480E080937A0381E011
:102F600020911401309115014F89588D2417350790
:102F700009F480E0809379038D899E8990931701ED
:102F800080931601AF89B88DB0931501A0931401F9
:102F90008091750390917603A0917703B0917803A7
:102FA000A7019601281B390B4A0B5B0BDA01C901FB
:102FB000C397A105B10508F1C0927503D0927603BD
:102FC000E0927703F0927803209110013091110183
:102FD0008091120190911301820F931F909313011E
:102FE000809312010B97843F910538F0319521951C
:102FF0003109309311012093100180917103909158
:103000007203A0917303B0917403A7019601281B6A
:10301000390B4A0B5B0BDA01C9018B3F9105A10506
:10302000B10568F0C0927103D0927203E09273030D
:10303000F0927403809170038225809370038091D5
:103040006C0390916D03A0916E03B0916F03A70183
:103050009601281B390B4A0B5B0BDA01C901853F2E
:103060009140A105B10568F0C0926C03D0926D0348
:10307000E0926E03F0926F0380916B038225809340
:103080006B038091D900817080936A03882309F4CF
:103090005DC185E00E949204892B09F057C100911F
:1030A00012011091130161E086E00E94E90401150C
:1030B000110559F460E00DC081E08093CE0426CE66
:1030C000AB89BC89B9A3A8A32DCF0F3F110529F463
:1030D00061E086E00E94BB0420C0E0E4F3E084915C
:1030E000EFEFE80FEF3008F02CC1F0E0E658F74EB4
:1030F0000C948D2489183E1943194D195719A1199B
:10310000A119A11961196B1975197F198C19A119C8
:10311000941984B5806884BD07BD80916603909141
:103120006703A0916803B091690326013701481A2B
:10313000590A6A0A7B0A8090640390906503092CFF
:10314000000CAA08BB088091620390916303CD979D
:10315000C9F480915E0390915F03A0916003B091E8
:103160006103A7019601281B390B4A0B5B0BDA019F
:10317000C9018C349D41A105B10520F08AE590E09C
:103180000E948B0A8091620390916303CD9761F452
:1031900080916A03882341F0C0925E03D0925F035E
:1031A000E0926003F0926103809162039091630367
:1031B000CD9751F489E894E00E940D06882321F010
:1031C00084E690E00E948B0A8091620390916303F1
:1031D0008436910589F489E894E00E940D068823DD
:1031E00059F080910E0190910F010697029720F4FB
:1031F0008EE690E00E948B0A8091620390916303B7
:10320000CD9751F487E794E00E940D06882321F0C2
:1032100088E790E00E948B0A80916203909163039B
:103220008937910551F489E894E00E940D068823BE
:1032300021F08AE790E00E948B0A809162039091CE
:1032400063038531910509F40DC20CF0DAC08D30AD
:10325000910509F4B6C10CF0A3C08A30910509F4B8
:103260008AC10CF078C0892B09F477C180E090E026
:10327000892B09F40DCE0E94000008CE84B580622F
:1032800084BD08BD4ACF8091800080688093800013
:10329000109389000093880040CF80918000806265
:1032A0008093800010938B0000938A0036CF80912A
:1032B000800088608093800010938D0000938C00C4
:1032C0002CCF80919000806880939000109399009B
:1032D0000093980022CF80919000806280939000AC
:1032E00010939B0000939A0018CF80919000886003
:1032F0008093900010939D0000939C000ECF8091CE
:10330000C00080688093C0008091C0008F7B809354
:10331000C0000093CF0001CF8091C00080628093F5
:10332000C0000093D000F9CE8091C20088608093E5
:10333000C2008091C2008B7F8093C2000093D200B4
:10334000ECCE003811050CF0C3CEB4CE61E086E0BF
:103350000E94E904AFCE8B30910509F429C10C9786
:1033600009F084CF82E08093D50443E06AE185ECE4
:1033700094E00E940B0B87EB93E00E94E80CC09254
:103380006603D0926703E0926803F092690388EBCA
:103390009BE090936503809364038DE090E0E8C028
:1033A0008231910509F42BC184F48031910509F42F
:1033B00011C1419709F05ACF82E190E048145904B5
:1033C0006A047B0408F452CFD3C08331910509F419
:1033D00040C1449709F04ACF85EC94E00E94030D68
:1033E000C0926603D0926703E0926803F09269038B
:1033F00088EE93E0909365038093640385E190E009
:10340000B7C08436910509F42FC50CF087C08D3301
:10341000910509F43AC19CF58233910509F42BC159
:10342000CC9709F023CF0E94010660935E0370934E
:103430005F0380936003909361036FEA85EC94E0EF
:103440000E94DE0A85EC94E00E94030D80916400E6
:103450008E7F8093640020925B038091590390914A
:103460005A03C49749F480915703909158030196E9
:1034700090935803809357038DE390E079C08A3589
:10348000910509F4E1C48B35910509F0EFCE8091E7
:10349000640081608093640083B7817F846083BF10
:1034A00083B7816083BF88E99AE090930D01809390
:1034B0000C018091520380648093520383B1809306
:1034C000380380916B00806480936B00809168006A
:1034D000816080936800889583B78E7F83BF86E183
:1034E00094E090930D0180930C01809151038F7BA8
:1034F00080935103809152038F7B8093520380917C
:103500006B008F7B80936B0080916B008111AECE3E
:10351000809168008E7F80936800A8CE88379105DF
:1035200009F4EAC67CF48E36910509F498C68F3604
:10353000910509F09BCE481459046A047B0408F4F1
:1035400095CE08C08937910509F42BC78A379105B4
:1035500009F08CCE8CE390E00BC06FEA85EC94E030
:103560000E94DE0A85EC94E00E94030D8AE090E060
:103570000E948B0A7BCE2092D50440E060E285EC6D
:1035800094E00E940B0B8EEB93E00E94E80CC0923B
:103590006603D0926703E0926803F092690380EDBE
:1035A00097E090936503809364038BE090E0E0CF15
:1035B0008CE090E0481459046A047B0408F456CE69
:1035C000D7CF80E190E0481459046A047B0408F4E2
:1035D0004DCECECF85EC94E00E94030DC0926603E1
:1035E000D0926703E0926803F092690388EE93E05B
:1035F000909365038093640381E190E0B9CF82E00A
:103600008093D50441E06CE085EC94E00E940B0BC4
:103610008DEA93E00E94E80C2092D50445E06EE22A
:1036200085EC94E00E940B0B86EA93E00E94E80C84
:10363000C0926603D0926703E0926803F092690338
:103640008CED95E0909365038093640383E190E0B3
:103650008FCF84E190E0481459046A047B0408F495
:1036600005CE86CF82E390E0481459046A047B04B7
:1036700008F4FCCD7DCF80915C0390915D030196B1
:1036800090935D0380935C0365CF80917A038111F1
:1036900005C080915B03882309F4D8C140E068E14C
:1036A00085EC94E00E940B0B80EB91E00E94CB0F25
:1036B00041E068E185EC94E00E940B0B8EEB91E019
:1036C0000E94CB0F42E068E185EC94E00E940B0B76
:1036D0008CEC91E00E94CB0F43E068E185EC94E034
:1036E0000E940B0B8AED91E00E94CB0F44E068E151
:1036F00085EC94E00E940B0B88EE91E00E94CB0FCA
:1037000045E068E185EC94E00E940B0B86EF91E0C8
:103710000E94CB0F46E068E185EC94E00E940B0B21
:1037200084E092E00E94CB0F47E068E185EC94E0F2
:103730000E940B0B82E192E00E94CB0F8FEF8093EF
:10374000D40440E068E185EC94E00E940B0B80E239
:1037500092E00E94CB0F40E06AE285EC94E00E9488
:103760000B0B83E292E00E94CB0F498D042F10E0F7
:10377000780155E0E51AF10865E0E616F104A0F4D9
:1037800042E068E185EC94E00E940B0B81EF91E050
:103790000E94CB0F42E066E385EC94E00E940B0BA5
:1037A00086E292E00E94CB0FC8010A970597A0F429
:1037B00040E06CE385EC94E00E940B0B8EE292E01B
:1037C0000E94CB0F42E066E385EC94E00E940B0B75
:1037D00086E292E00E94CB0FC8010F970597A0F4F4
:1037E00040E06AE585EC94E00E940B0B82E392E0F6
:1037F0000E94CB0F41E068E185EC94E00E940B0B46
:1038000084E392E00E94CB0FC80144970597A0F48F
:1038100041E062E485EC94E00E940B0B85EC91E0C2
:103820000E94CB0F42E066E385EC94E00E940B0B14
:1038300086E292E00E94CB0FC80149970597F0F409
:1038400041E062E485EC94E00E940B0B85EC91E092
:103850000E94CB0F42E068E185EC94E00E940B0BE4
:1038600081EF91E00E94CB0F42E066E385EC94E0AB
:103870000E940B0B86E292E00E94CB0FC8014E978C
:10388000059750F440E06EE485EC94E00E940B0B49
:1038900089EB91E00E94CB0FC80183970597F0F464
:1038A00041E062E485EC94E00E940B0B85EC91E032
:1038B0000E94CB0F42E068E185EC94E00E940B0B84
:1038C00081EF91E00E94CB0F42E066E385EC94E04B
:1038D0000E940B0B86E292E00E94CB0FC8018897F2
:1038E0000597A0F441E062E485EC94E00E940B0BA4
:1038F00085EC91E00E94CB0F42E066E385EC94E01A
:103900000E940B0B86E292E00E94CB0FC8018D97BC
:103910000597A0F440E06AE585EC94E00E940B0B6B
:1039200082E392E00E94CB0F41E068E185EC94E0F5
:103930000E940B0B84E392E00E94CB0F025311090B
:1039400005301105A0F440E06CE385EC94E00E94A2
:103950000B0B8EE292E00E94CB0F42E066E385EC17
:1039600094E00E940B0B86E292E00E94CB0F08A12C
:1039700019A1015011098D899E89C7970CF438C08F
:1039800042E068E185EC94E00E940B0B81EF91E04E
:103990000E94CB0F42E066E385EC94E00E940B0BA3
:1039A00086E292E00E94CB0F43E0BEE1EB16F10409
:1039B00008F027C268E185EC94E00E940B0B81E6D9
:1039C00092E00E94CB0F0C30110508F03DC0F801C9
:1039D000E451F34E0C948D24951E9E1EA71EB01E1E
:1039E000B91EC21ECB1ED41EDD1EE61EEF1EF81E23
:1039F000AD89BE891597C4F60C301105D8F4F801CD
:103A0000EC5FF24E0C948D24101D321E3B1E441EA2
:103A10004D1E561E5F1E681E711E7A1E831E8C1E52
:103A200043E062E485EC94E00E940B0B8CE392E0AF
:103A30000E94CB0F47E062E485EC94E00E940B0B00
:103A400089E192E00E94CB0F1092D40440E06AE733
:103A500085EC94E00E940B0BEB89FC898BE53C978D
:103A60000CF48DE50E94E30C80917903882361F0CA
:103A70008F89988D6AE070E00E945724892B21F489
:103A800080916A03811105C080915B03882309F44A
:103A9000E6C061E084E00E94BB0462E370E080E085
:103AA00090E00E944A05E4E6F3E0E49190917B0007
:103AB0008E2F880F880F80729F7D892B80937B00CB
:103AC000E770E064E0937C0080917A0080648093EA
:103AD0007A0080917A0086FDFCCF80917800609119
:103AE0007900762F682F072E000C880B990B0E9407
:103AF000522320E030E040E85AE30E94DE2326E62D
:103B000036E646E550E40E94DE23209153033091CF
:103B1000540340915503509156030E94A8226B0113
:103B20007C0162E370E080E090E00E944A0560E082
:103B300084E00E94BB042AE939E949E550E4C70161
:103B4000B6010E943B222FE632E143E05CE30E9493
:103B5000A8220E941A236B01262F872FF5E6CF1685
:103B6000D10414F024E680E0022F182F17FF02C0C2
:103B700010E000E0C80164E670E00E945724962E31
:103B80002AE030E0B9010E9457247B01862EC8014B
:103B9000B9010E9457245C0144E060E085EC94E0A8
:103BA0000E940B0B992009F44AC14AE061E070E0E1
:103BB00080E090E00E944F0F45E060E085EC94E0EB
:103BC0000E940B0BB701FF0C880B990B4AE00E9477
:103BD0004F0F811006C0911004C089E692E00E9448
:103BE000CB0F46E060E085EC94E00E940B0BB50142
:103BF000BB0C880B990B4AE00E944F0F47E060E036
:103C000085EC94E00E940B0B84EA93E00E94E80CA0
:103C100040E060E085EC94E00E940B0B1C141D0456
:103C20001CF08BE70E94E30CC8014A97489718F4F0
:103C30008CE70E94E30CC801C397489718F48DE7FE
:103C40000E94E30C0B5411098EE70931110528F08D
:103C500024E6C216D1041CF08FE70E94E30C1092F8
:103C60005B0304CB43E064E585EC94E00E940B0B1E
:103C700084EE91E0DDCE44E068E185EC94E00E94C2
:103C80000B0B80E492E0D4CE44E066E385EC94E054
:103C90000E940B0B86E492E0CBCE44E06EE485EC10
:103CA00094E00E940B0B81EF91E0C2CE45E068E109
:103CB00085EC94E00E940B0B8BE492E0B9CE45E0DA
:103CC0006AE285EC94E00E940B0B8FE492E0B0CEA8
:103CD00045E068E485EC94E00E940B0B8EEF91E0E8
:103CE000A7CE46E068E185EC94E00E940B0B85E5E9
:103CF00092E09ECE46E060E385EC94E00E940B0BE0
:103D00008EE292E095CE46E062E485EC94E00E947B
:103D10000B0B8BE092E08CCE47E068E185EC94E001
:103D20000E940B0B8AE592E083CE43E062E485ECCF
:103D300094E00E940B0B8CE392E084CE43E064E5B8
:103D400085EC94E00E940B0B84EE91E07BCE44E086
:103D500068E185EC94E00E940B0B80E492E072CE67
:103D600044E066E385EC94E00E940B0B86E492E06D
:103D700069CE44E06EE485EC94E00E940B0B81EF89
:103D800091E060CE45E068E185EC94E00E940B0B89
:103D90008BE492E057CE45E06AE285EC94E00E9425
:103DA0000B0B8FE492E04ECE45E068E485EC94E0A6
:103DB0000E940B0B8EEF91E045CE46E068E185EC6A
:103DC00094E00E940B0B85E592E03CCE46E060E378
:103DD00085EC94E00E940B0B8EE292E033CE46E03D
:103DE00062E485EC94E00E940B0B8BE092E02ACE1B
:103DF00047E068E185EC94E00E940B0B8AE592E0D5
:103E000021CE60E385EC94E00E940B0B86E692E005
:103E10000E94CB0F0C30110508F016CEF801ED5EB4
:103E2000F04E0C948D249E1EA71EB01EB91EC21EFD
:103E3000CB1ED41EDD1EE61EEF1EF81E951E89E663
:103E400092E00E94CB0FB8CE60E08DE00E94BB04F0
:103E500085EC94E00E94030D6EEA85EC94E00E94EC
:103E6000DE0A8BE590E084CB89E894E00E940D06A1
:103E700000910E0110910F01882369F0C80101978C
:103E8000059748F480915003882329F080914F03CF
:103E9000822580934F0389E894E00E940D068823D1
:103EA000D9F080914F038823B9F08FEF8093D40429
:103EB000402F66E085EC94E00E940B0BE0910E0130
:103EC000F0910F01EE0FFF1FE65BFE4F80819181A5
:103ED0000E94CB0F1092D40489E894E00E940D0652
:103EE0008823B9F080914F03811113C040910E01D6
:103EF00066E085EC94E00E940B0BE0910E01F091DE
:103F00000F01EE0FFF1FE65BFE4F808191810E9443
:103F1000CB0F87E794E00E940D06882369F080911B
:103F20004F03811109C080910E0190910F010197FB
:103F300090930F0180930E0185E694E00E940D0698
:103F4000882369F080914F03811109C080910E018F
:103F500090910F01019690930F0180930E01809133
:103F60000E0190910F01089734F081E090E090935A
:103F70000F0180930E0180910E0190910F01181690
:103F8000190634F087E090E090930F0180930E01C2
:103F900000910E0110910F01C8010197059708F0DB
:103FA00078C087E794E00E940D06882371F0809125
:103FB0004F03882351F0F801EE0FFF1FED5BFC4F1C
:103FC0008081918101969183808385E694E00E94AF
:103FD0000D06882371F080914F03882351F0F8017A
:103FE000EE0FFF1FED5BFC4F808191810197918364
:103FF00080830330110509F4FFC00CF0C5C0023006
:10400000110509F4E1C08091450390914603823E79
:10401000974034F48EEE97E09093460380934503E7
:1040200080914503909146038F3E974034F082EE95
:1040300097E09093460380934503332051F180919C
:104040004F03882331F1402F60E585EC94E00E9416
:104050000B0BE0910E01F0910F01EE0FFF1FED5BD6
:10406000FC4F81818F9380818F93A0E7B2E0BF9353
:10407000AF9329E333E03F932F930E94C62489E353
:1040800093E00E94CB0F0F900F900F900F900F9026
:104090000F90809150038111CDC185EC94E00E9476
:1040A000030D8A8D9B8D9093460380934503AC8DC1
:1040B000BD8DB0934803A0934703EE8DFF8DF09321
:1040C0004A03E09349032B893C8930934C032093A6
:1040D0004B034D895E8950934E0340934D0340E05E
:1040E0006EE185EC94E00E940B0B89E993E00E945D
:1040F000E80C9CE4C92E91E0D92E23E4E22E23E0C3
:10410000F22E01E010E0402F66E085EC94E00E9482
:104110000B0BD6018D919D916D010E94CB0FC801B3
:1041200001970597F8F4402F60E585EC94E00E9434
:104130000B0BF70183818F9382818F9320E732E00D
:104140003F932F9389E393E09F938F930E94C6241C
:1041500089E393E00E94CB0F0F900F900F900F9088
:104160000F900F900F5F1F4FB2E0EB0EF11C083065
:10417000110549F6311061C180915003882309F47B
:1041800060C12092500372C80430110509F44CC07C
:104190000530110509F037CF80914D0390914E0302
:1041A00097FF06C08BE390E090934E0380934D03FE
:1041B00080914D0390914E03CC970CF43ECF10921A
:1041C0004E0310924D0339CF8091470390914803DD
:1041D00097FF06C08CE090E09093480380934703DC
:1041E00080914703909148030D970CF426CF1092CD
:1041F00048031092470321CF8091490390914A03CD
:1042000097FF06C08FE190E090934A0380934903A3
:104210008091490390914A0380970CF40ECF10923D
:104220004A031092490309CF80914B0390914C03AC
:1042300097FF06C087E190E090934C0380934B0377
:1042400080914B0390914C0348970CF4F6CE10925A
:104250004C0310924B03F1CE85E993E004C1109218
:10426000500385EC94E00E94030D80910E01909123
:104270000F01069701F58BE893E00E94E80C20916E
:104280004D0330914B034091490350914703809176
:10429000450390914603803DE7E09E0710F0805D66
:1042A000974089835A834B833C832D831E82CE01A2
:1042B00001960E94BF0E80910E0190910F01079709
:1042C00021F481E893E00E94E80C81E090E0909373
:1042D0000F0180930E01C0926603D0926703E092B3
:1042E0006803F09269038CED95E0909365038093E9
:1042F00064038FE690E03CC985EC94E00E94030DD6
:1043000040E06CE285EC94E00E940B0B89E793E0BF
:104310000E94E80C42E062E185EC94E00E940B0B05
:10432000ACE3B1E08D919C910E94CB0F89E692E0C5
:104330000E94CB0F8E8D9F8D0E949D0F87E793E08B
:104340000E94E80CEC8DFD8DEE0FFF1FEE5DFE4F21
:10435000808191810E94CB0F85E793E00E94E80C59
:104360008A8D9B8D0E949D0F43E066E085EC94E072
:104370000E940B0B8DE693E00E94E80C44E066E09F
:1043800085EC94E00E940B0B85E693E00E94E80C1C
:1043900080915C0390915D030E949D0F89E790E0FE
:1043A000E7C880917903882311F40C943619CAA0C8
:1043B000DBA0ECA0FDA02EA13FA148A559A5C21AE3
:1043C000D30AE40AF50AC701B6012CE330E040E065
:1043D00050E00E946B24CA01B9012CE330E040E0B8
:1043E00050E00E946B247F936F93C701B60120E1D8
:1043F0003EE040E050E00E946B243F932F938BE619
:1044000092E09F938F9349E353E05F934F930E9411
:10441000C62443E068E485EC94E00E940B0B89E33A
:1044200093E00E94CB0F0FB6F894DEBF0FBECDBF56
:104430000C943619332009F4A4CE80914F038111D6
:104440009BCE01E010E0402F60E085EC94E00E94FC
:104450000B0B80910E0190910F018017910709F0CD
:10446000FBCE87E993E00E94E80C0F5F1F4F0830F6
:10447000110549F786CE5058BB27AA270E94532220
:104480000C94A4230E94962338F00E949D2320F0D0
:1044900039F49F3F19F426F40C9493230EF4E0951D
:1044A000E7FB0C948D23E92F0E94B52358F3BA172C
:1044B000620773078407950720F079F4A6F50C943A
:1044C000D7230EF4E0950B2EBA2FA02D0B01B901C6
:1044D00090010C01CA01A0011124FF27591B99F07A
:1044E000593F50F4503E68F11A16F040A22F232F86
:1044F000342F4427585FF3CF469537952795A795D6
:10450000F0405395C9F77EF41F16BA0B620B730B7C
:10451000840BBAF09150A1F0FF0FBB1F661F771FED
:10452000881FC2F70EC0BA0F621F731F841F48F4A2
:10453000879577956795B795F7959E3F08F0B0CF2B
:104540009395880F08F09927EE0F97958795089512
:104550000E94BC220C94A4230E949D2358F00E9428
:10456000962340F029F45F3F29F00C948D235111DC
:104570000C94D8230C9493230E94B52368F39923B9
:10458000B1F3552391F3951B550BBB27AA2762174F
:104590007307840738F09F5F5F4F220F331F441F5C
:1045A000AA1FA9F335D00E2E3AF0E0E832D0915090
:1045B0005040E695001CCAF72BD0FE2F29D0660F7D
:1045C000771F881FBB1F261737074807AB07B0E8C0
:1045D00009F0BB0B802DBF01FF2793585F4F3AF0C6
:1045E0009E3F510578F00C948D230C94D8235F3FA7
:1045F000E4F3983ED4F3869577956795B795F7954C
:104600009F5FC9F7880F911D9695879597F9089533
:10461000E1E0660F771F881FBB1F621773078407CF
:10462000BA0720F0621B730B840BBA0BEE1F88F7DE
:10463000E09508950E9421236894B1110C94D82329
:1046400008950E94BD2388F09F5798F0B92F9927AD
:10465000B751B0F0E1F0660F771F881F991F1AF06D
:10466000BA95C9F714C0B13091F00E94D723B1E0D8
:1046700008950C94D723672F782F8827B85F39F0D7
:10468000B93FCCF3869577956795B395D9F73EF406
:1046900090958095709561957F4F8F4F9F4F0895AE
:1046A000E89409C097FB3EF49095809570956195CC
:1046B0007F4F8F4F9F4F9923A9F0F92F96E9BB2782
:1046C0009395F695879577956795B795F111F8CFFE
:1046D000FAF4BB0F11F460FF1BC06F5F7F4F8F4F69
:1046E0009F4F16C0882311F096E911C0772321F05F
:1046F0009EE8872F762F05C0662371F096E8862FF7
:1047000070E060E02AF09A95660F771F881FDAF74D
:10471000880F9695879597F9089597F99F6780E890
:1047200070E060E008959FEF80EC089500240A9403
:104730001616170618060906089500240A9412167C
:104740001306140605060895092E0394000C11F4AF
:10475000882352F0BB0F40F4BF2B11F460FF04C05C
:104760006F5F7F4F8F4F9F4F089557FD9058440FB5
:10477000551F59F05F3F71F04795880F97FB991FC0
:1047800061F09F3F79F0879508951216130614067D
:10479000551FF2CF4695F1DF08C01616170618060A
:1047A000991FF1CF86957105610508940895E894E5
:1047B000BB2766277727CB0197F908950E94F1233D
:1047C0000C94A4230E94962338F00E949D2320F08D
:1047D000952311F00C948D230C94932311240C94A5
:1047E000D8230E94B52370F3959FC1F3950F50E035
:1047F000551F629FF001729FBB27F00DB11D639F93
:10480000AA27F00DB11DAA1F649F6627B00DA11D38
:10481000661F829F2227B00DA11D621F739FB00DDE
:10482000A11D621F839FA00D611D221F749F33274E
:10483000A00D611D231F849F600D211D822F762FE7
:104840006A2F11249F5750409AF0F1F088234AF0C4
:10485000EE0FFF1FBB1F661F771F881F9150504030
:10486000A9F79E3F510580F00C948D230C94D8231A
:104870005F3FE4F3983ED4F3869577956795B795B7
:10488000F795E7959F5FC1F7FE2B880F911D9695D1
:10489000879597F90895991B79E004C0991F961799
:1048A00008F0961B881F7A95C9F78095089597FBA5
:1048B000072E16F4009407D077FD09D00E94AD248E
:1048C00007FC05D03EF4909581959F4F0895709513
:1048D00061957F4F0895A1E21A2EAA1BBB1BFD0113
:1048E0000DC0AA1FBB1FEE1FFF1FA217B307E407CF
:1048F000F50720F0A21BB30BE40BF50B661F771F27
:10490000881F991F1A9469F7609570958095909506
:104910009B01AC01BD01CF010895EE0FFF1F059073
:10492000F491E02D0994A29FB001B39FC001A39F11
:10493000700D811D1124911DB29F700D811D1124D8
:10494000911D08950E949324A59F900DB49F900DF2
:10495000A49F800D911D11240895AA1BBB1B51E13A
:1049600007C0AA1FBB1FA617B70710F0A61BB70BDF
:10497000881F991F5A95A9F780959095BC01CD0184
:10498000089581E090E0F8940C949E27AEE0B0E0AA
:10499000ECECF4E20C9475270D891E8986E08C837B
:1049A0001A8309838FEF9FE79E838D83AE01475E55
:1049B0005F4F6F89788DCE0101960E94E9242F8187
:1049C0003885020F131FF80110822E96E4E00C9434
:1049D0009127ABE0B0E0EFEEF4E20C9467277C01A6
:1049E0003B018A01FC0117821682838181FFC8C1C5
:1049F000CE0101965C01F7019381F30193FD85914E
:104A000093FF81913F01882309F453C1853239F422
:104A100093FD859193FF81913F01853229F4B70180
:104A200090E00E94D926E7CF912C212C312CFFE178
:104A3000F31538F08B3211F190F4803209F18332A2
:104A400029F137FC3CC020ED280F2A3050F536FE06
:104A500020C08AE0989E200D1124922E06C08D322F
:104A600091F0803371F7689430F8F30193FD8591EC
:104A700093FF81913F018111DACF21C0689431F811
:104A8000689432F8F2CF689433F8EFCF689434F832
:104A9000ECCFEAE02E9E200D1124222E689435F8EA
:104AA000E4CF8E3229F436FC04C1689436F8DDCFA9
:104AB0008C3619F4689437F8D8CF8836B1F2982F2D
:104AC0009F7D95549330E0F08336A1F18337C1F197
:104AD000833509F063C02801F2E04F0E511CF80144
:104AE000C080D180692D70E036FC02C06FEF7FEF8F
:104AF000C6010E94C3264C01689437F882010AC09F
:104B00000C5F1F4FFFE3F98388248394912C650188
:104B1000E89437F833FE2DC0522C8114910471F5BE
:104B2000552009F468CFB70180E290E00E94D926B1
:104B30005A94F6CFF801808189830E5F1F4FE4CF2E
:104B40002801F2E04F0E511CF801C080D180692D80
:104B500070E036FC02C06FEF7FEFC6010E94CE26E8
:104B60004C018201D5CFB70180E290E00E94D926A6
:104B70002A942814190409F0B0F7CECFF60137FCB7
:104B8000859137FE81916F01B70190E00E94D9268F
:104B900051105A94F1E08F1A9108BFCF843619F062
:104BA000893609F077C0F80137FE6BC060817181EA
:104BB000828193810C5F1F4FF32DFF763F2E97FF6D
:104BC00009C090958095709561957F4F8F4F9F4F4D
:104BD000689437F82AE030E0A5010E940927C82E22
:104BE000CA188C2C432C36FE0CC0E89440F8C9142B
:104BF00040F434FE05C032FC03C0F32DFE7E4F2E80
:104C0000892C44FE95C0FE01EC0DF11D808180339E
:104C100009F087C0242D297E422E842D8870582EBD
:104C200043FC95C040FE8FC09C2C821418F42C0CC1
:104C3000922C981844FE91C0B70180E390E00E9446
:104C4000D92642FE09C088E790E041FE02C088E50F
:104C500090E0B7010E94D926C91408F48AC0CA940A
:104C6000D12C9FEFC91AD90ACA0CDB1CF60182911C
:104C70006F01B70190E00E94D926AC14BD04B1F7D2
:104C80004FCF60817181072E000C880B990B0E5F4E
:104C90001F4F92CFD32CE894D4F82AE030E0853728
:104CA00039F1232D297FD22E8F3601F148F4883532
:104CB000A9F0F701868197812B96E2E10C94832776
:104CC000803749F08837A9F7D4FE02C06894D2F83B
:104CD00020E130E00DC06894D4F8F6CF34FE03C074
:104CE000822F8660D82E20E132E002C028E030E03A
:104CF000F801D7FE0FC060817181828193810C5FC2
:104D00001F4FA5010E940927C82ECA183D2CE89400
:104D100037F867CF6081718190E080E00E5F1F4FB0
:104D2000F0CF42FC02C0839478CF8394839475CFF4
:104D3000842D867809F471CFF6CFB70180E290E038
:104D40000E94D92683948214C0F3512C73CF522C25
:104D50005818821408F46ECFF8CF842D867809F4A1
:104D60007BCF8BE241FE80E247FC8DE2B70190E011
:104D700071CFB70180E390E00E94D9269A946CCF5E
:104D80008FEF9FEF99CFFC010590615070400110AB
:104D9000D8F7809590958E0F9F1F0895FC01615064
:104DA000704001900110D8F7809590958E0F9F1F4D
:104DB00008950F931F93CF93DF93182F092FEB01C3
:104DC0008B8181FD09C01FEF0FEF812F902FDF91A5
:104DD000CF911F910F91089582FF14C02E813F81C2
:104DE0008C819D81281739073CF4E881F981CF0136
:104DF00001969983888310838E819F8101969F837A
:104E00008E83E3CFE885F985812F0995892BA1F35E
:104E1000DACFFA01AA27283051F1203181F1E89444
:104E20006F936E7F6E5F7F4F8F4F9F4FAF4FB1E09D
:104E30003ED0B4E03CD0670F781F891F9A1FA11D98
:104E4000680F791F8A1F911DA11D6A0F711D811D99
:104E5000911DA11D20D009F468943F912AE0269F5E
:104E600011243019305D3193DEF6CF010895462FBD
:104E70004770405D4193B3E00FD0C9F7F6CF462F9E
:104E80004F70405D4A3318F0495D31FD4052419307
:104E900002D0A9F7EACFB4E0A695979587957795C4
:104EA0006795BA95C9F700976105710508959B014B
:104EB000AC010A2E06945795479537952795BA95D4
:104EC000C9F7620F731F841F951FA01D08952F92AD
:104ED0003F924F925F926F927F928F929F92AF928A
:104EE000BF92CF92DF92EF92FF920F931F93CF93D7
:104EF000DF93CDB7DEB7CA1BDB0B0FB6F894DEBF6E
:104F00000FBECDBF09942A88398848885F846E8493
:104F10007D848C849B84AA84B984C884DF80EE80DD
:104F2000FD800C811B81AA81B981CE0FD11D0FB6E6
:104F3000F894DEBF0FBECDBFED010895F894FFCF0A
:104F400016041604160416041604160416040100AA
:104F500005000A003D003D00FFFFFFFF00E10000EB
:104F600000000000750279027D028102850289023B
:104F70008D029102950299029D02A102A502A90249
:104F8000AD02B102B502B902BD026A02C102C60297
:104F9000CC02D002D502DC02E10200C18081000017
:104FA0000000000000D0027C05F102E6023703F5A4
:104FB00002130300000000190AEC091D0DDC097A38
:104FC000025402DD09000000001B06170600000065
:104FD00000510B19041D0D1C0DBD0A4E6F762032B9
:104FE0003620323032300031323A35373A313600FD
:104FF00049545249534354454E48414C460051553B
:1050000041525445525457454E545900464956450D
:10501000434D494E55544553480050415354544F05
:10502000454F4E4554574F005448524545464F55FD
:10503000524649564500534958534556454E4549F1
:10504000474854004E494E4554454E454C455645FB
:105050004E005457454C56454C4F434C4F434B0024
:105060004954004953004D494E5554455300544549
:105070004E00410051554152544552004F4E45009B
:10508000544852454500464F555200534958005325
:105090004556454E004E494E45005457454C5645E1
:1050A000005041535400544F002000253033753ACE
:1050B00025303275004A616E00466562004D6172AE
:1050C00000417072004D6179004A756E004A756C3E
:1050D0000041756700536570004F6374004E6F7632
:1050E000004465630053756E004D6F6E0054756526
:1050F0000057656400546875004672690053617416
:105100000059656172004D6F6E74680044617900EA
:10511000486F7572004D696E7574650053617665F0
:06512000004578697400EF
:00000001FF
